:020000040800F2
:100000000000082459A700080DA4000815A4000842
:100010001DA4000825A400082DA40008000000006D
:10002000000000000000000000000000E14404089F
:1000300035A4000800000000314704084D350408CD
:10004000ADA70008ADA70008ADA70008ADA7000840
:10005000ADA70008ADA70008ADA70008ADA7000830
:1000600043A40008ADA70008ADA70008ADA700088D
:10007000ADA70008ADA70008ADA70008ADA7000810
:10008000ADA70008ADA70008ADA70008ADA7000800
:10009000ADA70008ADA70008ADA70008ADA70008F0
:1000A000ADA70008ADA70008ADA70008ADA70008E0
:1000B000ADA70008ADA70008ADA70008ADA70008D0
:1000C000ADA70008ADA70008ADA70008ADA70008C0
:1000D000ADA7000851A4000865A40008ADA700085A
:1000E000ADA70008ADA7000800000000ADA70008FC
:1000F000ADA70008ADA70008ADA70008ADA7000890
:10010000ADA70008ADA70008ADA70008ADA700087F
:10011000ADA70008ADA7000879A40008ADA70008A6
:10012000ADA70008ADA70008ADA70008ADA700085F
:10013000ADA70008ADA70008ADA70008ADA700084F
:10014000ADA70008ADA700080000000000000000F7
:10015000ADA70008ADA70008ADA70008ADA700082F
:10016000ADA70008ADA70008ADA70008ADA700081F
:10017000ADA70008ADA70008ADA70008000000006B
:10018000ADA70008ADA70008ADA70008ADA70008FF
:10019000ADA70008ADA70008ADA70008ADA70008EF
:1001A0008DA40008ADA70008A1A40008ADA7000811
:1001B000B5A40008ADA70008ADA70008ADA70008CA
:1001C000ADA70008ADA70008ADA70008ADA70008BF
:1001D000ADA70008ADA70008ADA70008ADA70008AF
:1001E000ADA70008ADA70008ADA70008ADA700089F
:1001F000ADA70008ADA70008ADA70008ADA700088F
:10020000ADA70008ADA70008ADA70008ADA700087E
:10021000ADA70008ADA70008ADA70008ADA700086E
:10022000ADA70008C9A40008DDA400080000000074
:10023000ADA70008ADA70008ADA70008ADA700084E
:10024000ADA70008ADA70008ADA70008ADA700083E
:10025000ADA70008ADA70008ADA70008ADA700082E
:10026000ADA70008ADA70008ADA70008ADA700081E
:10027000ADA70008ADA70008ADA70008ADA700080E
:10028000ADA70008ADA70008ADA70008000000005A
:08029000ADA70008ADA70008AE
:1002A00010B5054C237833B9044B13B10448AFF3B0
:1002B00000800123237010BDE05E002400000000D8
:1002C000A84D060808B5034B1BB103490348AFF31B
:1002D000008008BD00000000E45E0024A84D060870
:1002E00010F8012B11F8013B012A28BF9A42F7D0E0
:1002F000D01A7047034613F8012B002AFBD1181AB5
:1003000001387047000000000000000000000000FD
:1003100001F0FF01102A2BDB10F0070F08D010F8B6
:10032000013B013A8B422DD010F0070F42B3F6D1BA
:10033000F0B441EA012141EA014122F007047FF0D3
:1003400000070023F0E80256083C85EA010586EA2A
:10035000010685FA47F5A3FA87F586FA47F6A5FA66
:1003600087F68EB9EED1F0BC01F0FF0102F0070272
:1003700032B110F8013B013A83EA010313B1F8D11D
:100380000020704701387047002D06BF35460338FE
:10039000073815F0010F07D1013015F4807F02BF37
:1003A000013015F4C03F0130F0BC0138704700BF88
:1003B00081F0004102E000BF83F0004330B54FEA16
:1003C00041044FEA430594EA050F08BF90EA020F83
:1003D0001FBF54EA000C55EA020C7FEA645C7FEA16
:1003E000655C00F0E2804FEA5454D4EB5555B8BF39
:1003F0006D420CDD2C4480EA020281EA030382EAAA
:10040000000083EA010180EA020281EA0303362D3B
:1004100088BF30BD11F0004F4FEA01314FF4801C0E
:100420004CEA113102D0404261EB410113F0004F20
:100430004FEA03334CEA133302D0524263EB4303D7
:1004400094EA050F00F0A780A4F10104D5F1200E75
:100450000DDB02FA0EFC22FA05F2801841F10001D0
:1004600003FA0EF2801843FA05F359410EE0A5F1A4
:1004700020050EF1200E012A03FA0EFC28BF4CF0D5
:10048000020C43FA05F3C01851EBE37101F000458B
:1004900007D54FF0000EDCF1000C7EEB00006EEB98
:1004A0000101B1F5801F1BD3B1F5001F0CD3490822
:1004B0005FEA30004FEA3C0C04F101044FEA445279
:1004C00012F5800F80F09A80BCF1004F08BF5FEA00
:1004D000500C50F1000041EB045141EA050130BDE0
:1004E0005FEA4C0C404141EB0101013C28BFB1F5F2
:1004F000801FE9D291F0000F04BF01460020B1FA3D
:1005000081F308BF2033A3F10B03B3F120020CDA0F
:100510000C3208DD02F1140CC2F10C0201FA0CF0ED
:1005200021FA02F10CE002F11402D8BFC2F1200C52
:1005300001FA02F120FA0CFCDCBF41EA0C01904008
:10054000E41AA2BF01EB0451294330BD6FEA040451
:100550001F3C1CDA0C340EDC04F11404C4F120023C
:1005600020FA04F001FA02F340EA030021FA04F34E
:1005700045EA030130BDC4F10C04C4F1200220FAA5
:1005800002F001FA04F340EA0300294630BD21FAE3
:1005900004F0294630BD94F0000F83F4801306BFA9
:1005A00081F480110134013D4EE77FEA645C18BF9D
:1005B0007FEA655C29D094EA050F08BF90EA020F34
:1005C00005D054EA000C04BF1946104630BD91EA2C
:1005D000030F1EBF0021002030BD5FEA545C05D12F
:1005E0004000494128BF41F0004130BD14F580046E
:1005F0003CBF01F5801130BD01F0004545F0FE41E2
:1006000041F470014FF0000030BD7FEA645C1ABF16
:10061000194610467FEA655C1CBF0B46024650EA4D
:10062000013406BF52EA033591EA030F41F4002179
:1006300030BD00BF90F0000F04BF0021704730B5FF
:100640004FF4806404F132044FF000054FF00001D4
:1006500050E700BF90F0000F04BF0021704730B595
:100660004FF4806404F1320410F0004548BF40426A
:100670004FF000013EE700BF42004FEAE2014FEABF
:1006800031014FEA02701FBF12F07F4393F07F4F9A
:1006900081F06051704732F07F4208BF704793F09D
:1006A0007F4F04BF41F40021704730B54FF46074B0
:1006B00001F0004521F000411CE700BF50EA0102B3
:1006C00008BF704730B54FF000050AE050EA01025C
:1006D00008BF704730B511F0004502D5404261EBCC
:1006E00041014FF4806404F132045FEA915C3FF40D
:1006F000D8AE4FF003025FEADC0C18BF03325FEAAA
:10070000DC0C18BF033202EBDC02C2F1200300FA5A
:1007100003FC20FA02F001FA03FE40EA0E0021FA7F
:1007200002F11444BDE600BF7BB972B90029BEBF17
:1007300000204FF0004106E008BF00281CBF6FF00A
:1007400000414FF0FF3000F0D3B9ADF1080C6DE976
:1007500004CE002909DB002B1ADB00F04DF8DDF890
:1007600004E0DDE9022304B07047404261EB41013F
:10077000002B1BDB00F040F8DDF804E0DDE902238C
:1007800004B0404261EB4101524263EB43037047C6
:10079000524263EB430300F02FF8DDF804E0DDE99B
:1007A000022304B0404261EB41017047524263EBC7
:1007B000430300F021F8DDF804E0DDE9022304B092
:1007C000524263EB4303704753B94AB9002908BF4B
:1007D00000281CBF4FF0FF314FF0FF3000F088B908
:1007E000ADF1080C6DE904CE00F006F8DDF804E088
:1007F000DDE9022304B070472DE9F047089D8E46DD
:1008000004468846002B4AD18A42174662D9B2FA7A
:1008100082F64EB1C6F1200301FA06F820FA03F37E
:10082000B74043EA0808B4404FEA174E1FFA87FC66
:10083000B8FBFEF1230C0EFB118843EA084301FBD1
:100840000CF29A4209D9FB1801F1FF3080F0EA80DE
:100850009A4240F2E78002393B449A1AA3B2B2FBB3
:10086000FEF00EFB102243EA024300FB0CFC9C4509
:1008700009D9FB1800F1FF3280F0D6809C4540F288
:10088000D3803B44023840EA0140A3EB0C03002133
:100890001DB1F3400022C5E90032BDE8F0878B426C
:1008A00005D90DB1C5E9000100210846F5E7B3FA05
:1008B00083F1002946D1734502D3824200F20581BB
:1008C000841A6EEB030201209046002DE5D0C5E9A5
:1008D0000048E2E7002A00F09080B2FA82F6002E8B
:1008E00040F0A4808A1A030C4FEA174E80B2BCB2C3
:1008F0000121B2FBFEFC0EFB1C2243EA024304FB77
:100900000CF29A4207D9FB180CF1FF3802D29A4236
:1009100000F2E080C4469B1AB3FBFEF20EFB1233DA
:1009200040EA034302FB04F49C4207D9FB1802F19E
:10093000FF3002D29C4200F2CA8002461B1B42EAF0
:100940000C40A5E7C1F120068B4022FA06F71F43B1
:100950000EFA01F420FA06F32EFA06FE4FEA1749C2
:10096000234300FA01F81FFA87FCBEFBF9F01C0CC8
:1009700009FB10EE44EA0E4400FB0CFEA64502FA09
:1009800001F209D93C1900F1FF3A80F09C80A6459C
:1009900040F2998002383C44A4EB0E041FFA83FE17
:1009A000B4FBF9F309FB13444EEA044403FB0CFCCB
:1009B000A44508D93C1903F1FF3E80F08280A4458C
:1009C0007FD9023B3C4443EA0040A4EB0C04A0FB6B
:1009D00002EC64457346E14662D35FD05DB1B8EB8B
:1009E000030264EB090404FA06F622FA01F31E433B
:1009F000CC40C5E9006400214FE7B1FBF2FC010CDB
:100A000041EA0E4180B240EA01423B4638463C464C
:100A1000B846BE462026B1FBF7F1A2EB080241EA38
:100A20000C4166E7014618E710462CE7C6F12002A4
:100A30002EFA02F3B740B14020FA02F24FEA174E05
:100A40000A43B3FBFEF8BCB20EFB1833110C41EAAB
:100A5000034108FB04F9B04089454FEA104380B2D6
:100A60003ED9791808F1FF3C01D289451FD8A1EB86
:100A70000901B1FBFEF909FB04F80EFB191192B252
:100A800042EA0142424529D2BA1809F1FF31C4D2E3
:100A90004245C2D2A9F102013A44BEE7F0459DD2D7
:100AA000BEEB02036CEB070C0138E14696E7A7EBBF
:100AB00009094944A8F1020CB1FBFEF909FB04F84D
:100AC000DBE773467FE7504666E70846FDE63B44B2
:100AD000023A33E7ACF1020C3B441CE749469CE781
:100AE000A1EB0901C446B1FBFEF909FB04F8C4E718
:100AF000704700BF80B584B000AF08F09BFC764B18
:100B00005B6903F40033002B1BD1BFF34F8F00BF91
:100B1000BFF36F8F00BF704B0022C3F85022BFF3AA
:100B20004F8F00BFBFF36F8F00BF6B4B5B696A4A8B
:100B300043F400335361BFF34F8F00BFBFF36F8F98
:100B400000E000BF644B5B6903F48033002B38D1B5
:100B5000614B0022C3F88420BFF34F8F00BF5E4B70
:100B6000D3F88030FB60FB685B0BC3F30E03BB6004
:100B7000FB68DB08C3F309037B60BB685A0143F6DB
:100B8000E07313407A68920753491343C1F8603207
:100B90007B685A1E7A60002BEFD1BB685A1EBA6080
:100BA000002BE5D1BFF34F8F00BF4B4B5B694A4A27
:100BB00043F480335361BFF34F8F00BFBFF36F8F98
:100BC00000E000BF30F04AFB00F0C6F800F0EAFB9E
:100BD00000F072FB00F090FB00F0D8F900F042F951
:100BE00000F062F900F0BEF900F054FA00F07AF972
:100BF00000F0CAFA00F07CFA09F044FD00F0A0FA17
:100C000000F00EFB09F0DAFD09F0D1FD42F0B8FC6E
:100C1000324842F0ACFD0346314A1360314A0221AA
:100C2000402042F0D1FF03462F4A13602F4A022191
:100C3000402042F0C9FF03462D4A13602D4A01218E
:100C40004FF4806042F0C0FF03462B4A13602B4AEA
:100C500001214FF4807042F0B7FF0346284A136029
:100C6000284A0021284842F0D5FC0346274A136051
:100C7000274A0021274842F0CDFC0346264A13604C
:100C8000264A0021264842F0C5FC0346254A136047
:100C9000254A0021254842F0BDFC0346244A136042
:100CA000244A0021244842F0B5FC0346234A13603D
:100CB000234A0021234842F0ADFC0346224A136038
:100CC000224A0021224842F0A5FC0346214A136033
:100CD00042F07AFC00BFFDE700ED00E054BB0608DF
:100CE00054D10024F4BA060804CA00240CBB060838
:100CF000D8CA002424BB0608ACCB00243CBB0608A1
:100D000000D00024F8B906089D870008F865002483
:100D10001CBA0608CDA70008A476002440BA06082D
:100D2000AD8F0008A876002464BA06081190000868
:100D30005487002488BA06088D9000080098002483
:100D4000ACBA0608F1900008ACA80024D0BA060896
:100D50005591000858B9002480B59CB000AF07F148
:100D600024034C220021184661F061FD3B1D202226
:100D70000021184661F05BFD042037F04BFD002395
:100D80003B60364BDB6A354A23F00103D362334BB9
:100D9000DB6A03F001033B60314B9B69304A43F44B
:100DA000404393612E4B9B6903F440433B603B6897
:100DB00000BF2B4B9B6903F40053B3F5005FF8D1E0
:100DC0000B237B624FF48033BB6201233B634023E0
:100DD0007B630123BB630223BB640223FB64052303
:100DE0003B65A0237B650223BB650423FB650223CF
:100DF0003B6608237B660023BB660023FB6607F186
:100E00002403184638F0EAFF0346002B01D008F00F
:100E10005BFB3F237B600323BB600023FB60082355
:100E20003B6140237B614023BB614FF48063FB61E6
:100E300040233B623B1D0221184639F07FFD0346EB
:100E4000002B01D008F040FB4FF48022002100204D
:100E50003AF0E4F800BF7037BD4680BD000400588A
:100E60000048025880B500AF0D4B0E4A1A600C4B7B
:100E700000221A710A4B00225A71094B00225A6152
:100E8000074B00229A61064B01221A62044830F097
:100E90006BFD0346002B01D008F016FB00BF80BDA0
:100EA000FC5E0024004C025880B500AF0B4B0C4A8E
:100EB0001A600A4B4FF440325A60084B02229A6083
:100EC000064B0022DA60054831F00AFC0346002B8D
:100ED00001D008F0F9FA00BF80BD00BF205F0024F8
:100EE0000010005280B500AF1B4B1C4A1A601A4B11
:100EF0001B4A5A60184B00229A60174B0122DA6095
:100F0000154B00221A61144B00225A61124B002229
:100F10009A61114B0022DA610F4B00221A620E48CF
:100F200032F050FA0346002B01D008F0CDFA002130
:100F3000094833F0CBF80346002B01D008F0C4FA7F
:100F40000021054833F038F90346002B01D008F0A2
:100F5000BBFA00BF80BD00BF885F0024001C0058A2
:100F6000B634900080B500AF064B074A1A600548BA
:100F700033F096F90346002B01D008F0A5FA00BF24
:100F800080BD00BFDC5F00240030005280B58EB011
:100F900000AF08F0D5FA3B1D34220021184661F05D
:100FA00046FC3A4B3A4A1A60384B00225A60374B9B
:100FB00000229A60354B0022DA60344B00221A611D
:100FC000324B28225A61314B09229A612F4B35222C
:100FD000DA612E4B0B221A622C4B40F215225A6218
:100FE0002A4B40F21B129A62284B40F23522DA62F9
:100FF000264B40F21D121A63244B002283F8342042
:10100000224B002283F83520204B002283F8362023
:101010001E4835F09DF90346002B01D008F054FA24
:1010200000237B604FF4F073BB600023FB604FF440
:1010300088733B6102237B61FF23BB610023FB615B
:101040004FF480633B6205237B624FF05043BB62E9
:101050004FF4F073FB624FF488733B63002387F80F
:101060003430002387F83530002387F836303B1DB5
:1010700000221946054835F049FB0346002B01D0F4
:1010800008F022FA00BF3837BD4680BD0C6100244D
:101090000010005080B500AF124B134A1A60114B7C
:1010A00001225A600F4B01229A600E4B1022DA6027
:1010B0000C4B1A221A610B4B4FF400725A61094B08
:1010C00000229A61074B40221A62064837F01EFC44
:1010D0000346002B01D008F0F7F9044808F0A4FA01
:1010E00000BF80BDB461002400500052C9940008C4
:1010F00080B500AF104B114A1A600F4B00225A60A6
:101100000D4B7F229A600C4BFF22DA600A4B0022C3
:101110001A61094B00229A61074B0022DA61064BE3
:1011200000225A6104483DF085FB0346002B01D0A4
:1011300008F0CAF900BF80BD0062002400400058DA
:1011400080B500AF0E4B0F4A1A600D4B00225A605B
:101150000B4B00229A600A4B4FF40042DA60084BB6
:1011600000221A61064B00225A61054836F0BAFB8C
:101170000346002B01D008F0A7F900BF80BD00BFD7
:10118000246200240070005280B500AF224B234A35
:101190001A60214B4FF4E1325A601F4B00229A60D3
:1011A0001D4B0022DA601C4B00221A611A4B0C22E4
:1011B0005A61194B00229A61174B0022DA61164BD3
:1011C00000221A62144B00225A62134B00229A62C8
:1011D00011483EF02DFA0346002B01D008F074F9B7
:1011E00000210D4841F010F80346002B01D008F013
:1011F0006BF90021084841F0A1F80346002B01D00B
:1012000008F062F9044840F085FF0346002B01D046
:1012100008F05AF900BF80BD9C6400240010014012
:1012200080B500AF224B234A1A60214B4FF4E132C4
:101230005A601F4B00229A601D4B0022DA601C4B43
:1012400000221A611A4B0C225A61194B00229A6132
:10125000174B0022DA61164B00221A62144B00224F
:101260005A62134B00229A6211483EF0E1F903469C
:10127000002B01D008F028F900210D4840F0C4FFF0
:101280000346002B01D008F01FF90021084841F067
:1012900055F80346002B01D008F016F9044840F039
:1012A00039FF0346002B01D008F00EF900BF80BDC6
:1012B000306500240044004080B582B000AF0D4B83
:1012C000D3F8D4300B4A43F00103C2F8D430094BB1
:1012D000D3F8D43003F001037B607B680022052142
:1012E0007A2030F039F97A2030F060F900BF083701
:1012F000BD4680BD0044025880B588B000AF3B1D9C
:1013000000221A605A609A60DA601A615A619A6122
:10131000214B224A1A60204B01225A601E4B0022A8
:101320009A601D4B0422DA601B4B10221A611A4B83
:1013300040225A61184B4FF480729A61164B00227A
:10134000DA61154B4FF400621A62134B4FF480526E
:101350005A62114B00229A6202237B600623BB6013
:101360000423FB6006233B6102237B610223BB61F4
:101370000223FB613B1D194607483DF0BDFC0346B7
:10138000002B01D008F0A0F8054808F06EF900BF66
:101390002037BD4680BD00BFC465002440410052D7
:1013A000C994000880B590B000AF07F12C0300226B
:1013B0001A605A609A60DA601A61A04BD3F8E03084
:1013C0009E4A43F48063C2F8E0309C4BD3F8E0308F
:1013D00003F48063BB62BB6A984BD3F8E030974A52
:1013E00043F04003C2F8E030944BD3F8E03003F010
:1013F00040037B627B6A914BD3F8E0308F4A43F025
:101400000803C2F8E0308D4BD3F8E03003F0080356
:101410003B623B6A894BD3F8E030884A43F00403CF
:10142000C2F8E030854BD3F8E03003F00403FB61F1
:10143000FB69824BD3F8E030804A43F48073C2F8F2
:10144000E0307E4BD3F8E03003F48073BB61BB69BE
:101450007A4BD3F8E030794A43F01003C2F8E03019
:10146000764BD3F8E03003F010037B617B69734B5C
:10147000D3F8E030714A43F00203C2F8E0306F4B1A
:10148000D3F8E03003F002033B613B696B4BD3F8C8
:10149000E0306A4A43F40073C2F8E030674BD3F897
:1014A000E03003F40073FB60FB68644BD3F8E0307A
:1014B000624A43F00103C2F8E030604BD3F8E030F9
:1014C00003F00103BB60BB685C4BD3F8E0305B4AC0
:1014D00043F02003C2F8E030584BD3F8E03003F07B
:1014E00020037B607B68554BD3F8E030534A43F0D0
:1014F0008003C2F8E030514BD3F8E03003F08003B2
:101500003B603B68002208214D4831F0F3FE012288
:101510004FF400514B4831F0EDFE002208214A48BB
:1015200031F0E8FE00224021484831F0E3FE01227C
:101530000421474831F0DEFE0823FB6201233B63B0
:1015400000237B630023BB6307F12C0319463C484F
:1015500031F0BAFA4FF48073FB6202233B6300233D
:101560007B630023BB630023FB6307F12C03194655
:10157000364831F0A9FA4FF40053FB6201233B6374
:1015800000237B630023BB6307F12C0319462D481E
:1015900031F09AFA0823FB6201233B6300237B634B
:1015A0000323BB6307F12C031946274831F08CFA5B
:1015B0000423FB624FF404133B6300237B6307F1B6
:1015C0002C031946204831F07FFA4FF44063FB6248
:1015D00002233B6301237B630323BB630723FB637A
:1015E00007F12C0319461B4831F06EFA4023FB62C9
:1015F00001233B6300237B630323BB6307F12C03BD
:101600001946124831F060FA0423FB6201233B6360
:1016100000237B630023BB6307F12C0319460C48AE
:1016200031F052FA0022052108202FF095FF082002
:101630002FF0BCFF00BF4037BD4680BD00440258BC
:10164000000C0258002002580018025800000258EE
:10165000002402580004025890B583B000AF04463D
:10166000084611461A462346FB710346BB710B46DA
:101670007B7113463B71FB796433114A5361BB792B
:10168000013B0F4A13617B790D4AD3603B790C4AC9
:1016900093603B7E0A4A53603B7F094A13600848C7
:1016A00061F0E4F902460B460649C1E90023054B07
:1016B000D3E90023134618460C37BD4690BD00BF42
:1016C00000FA002428FA002490B583B000AF7860B7
:1016D000544B1B68184642F0A9FB03469AB2524B82
:1016E0001A80514B1B88002B00F095804F4B1B68D4
:1016F00041F28831184642F0C0F84B4B1B884C4AE7
:101700004C494D4861F02CF84B48FEF7F3FD034679
:101710009CB24948FEF7EEFD03462246464947483B
:101720003EF054F8414B1B68184642F0F1F8444B28
:1017300000221A803CE03B4B1868002300224149FC
:1017400042F016FB0346404A13603F4B1B68002BD8
:1017500020D0364B1B6841F28831184642F08DF894
:10176000394B1B68324A3949334860F0F9FF324837
:10177000FEF7C0FD03469CB22F48FEF7BBFD0346B3
:1017800022462D492D483EF021F8284B1B6818466B
:1017900042F0BEF82A4B1B881A467B681344294A3C
:1017A00012781A70264B1B8801339AB2244B1A8088
:1017B0001C4B1B68184642F039FB0346002B05D032
:1017C0001F4B1B8840F6FD729342B4D91C4B1A88FC
:1017D000154B1A80154B1B6841F28831184642F0B0
:1017E0004CF8114B1B88124A1949134860F0B8FF96
:1017F0001148FEF77FFD03469CB20F48FEF77AFDC5
:10180000034622460C490D483DF0E0FF074B1B689C
:10181000184642F07DF8044B1B8818460C37BD462D
:1018200090BD00BF00D0002430FA002454D1002421
:1018300064BB0608504E0608A8D100249C6400240E
:1018400032FA002434FA002438FA0024784E0608CC
:10185000B04E060890B583B000AF78607B681B6817
:101860002F4A934216D12F4B1A782F4B1A702F4BB9
:101870001868002300222C4942F01AFA03462C4A29
:101880001360012227492B483EF02EF803461A46E2
:10189000294B1A707B681B68284A93423BD1284B1E
:1018A0001A78284B1A70284B186800230022254903
:1018B00042F0FEF903461E4A13601D4B1B68002BC5
:1018C00020D0224B1B6841F28831184641F0D5FFE9
:1018D000174B1B681E4A1F491F4860F041FF1E48F6
:1018E000FEF708FD03469CB21B48FEF703FD0346C6
:1018F000224619490F483DF069FF144B1B681846F2
:1019000042F006F801220E4914483DF0EDFF03466F
:101910001A46094B1A7000BF0C37BD4690BD00BF78
:1019200000100140D5E900243CFA002400D0002436
:1019300040FA00249C64002444FA0024004400403F
:10194000D4E9002445FA0024ACCB002454D100246F
:1019500080BB0608D84E0608A8D1002430650024B4
:1019600090B585B000AFF8607B600B467B81134675
:101970007B727D4B00221A805AE17B7A002B2AD0A1
:10198000794B1B8803F00F039BB2002B23D1774BBD
:101990001B6841F28831184641F06FFF724B1B887B
:1019A0001A467B6813441A467149724860F0D8FEA3
:1019B0007048FEF79FFC03469CB26E48FEF79AFC07
:1019C000034622466B496C483DF000FF674B1B689D
:1019D000184641F09DFF654B1B6841F2883118465F
:1019E00041F04BFF604B1B881A46FB6813441B7881
:1019F0001A4662495F4860F0B3FE5E48FEF77AFC23
:101A000003469CB25B48FEF775FC034622465949E3
:101A100059483DF0DBFE554B1B68184641F078FFF6
:101A2000524B1B6841F28831184641F026FF544959
:101A3000504860F095FE4F48FEF75CFC03469CB2B0
:101A40004C48FEF757FC034622464A494A483DF0B7
:101A5000BDFE464B1B68184641F05AFF424B1B889F
:101A600003F00F039BB2072B1DD1404B1B6841F2C3
:101A70008831184641F001FF42493E4860F070FE4F
:101A80003C48FEF737FC03469CB23A48FEF732FC6E
:101A900003462246374938483DF098FE334B1B68D1
:101AA000184641F035FF304B1B8803F00F039BB203
:101AB0000F2B40F0B7802D4B1B6841F28831184640
:101AC00041F0DBFE2F492B4860F04AFE2948FEF723
:101AD00011FC03469CB22748FEF70CFC0346224645
:101AE000244925483DF072FE204B1B68184641F002
:101AF0000FFF1D4B1B880F3B9AB2234B1A806DE0E2
:101B0000214B1B881A46FB6813441B7801331F4A7C
:101B100013441B7803F09703002B3BD0134B1B6837
:101B200041F28831184641F0A8FE174B1B881A462F
:101B3000FB6813441B781A4615490E4860F010FEE6
:101B40000C48FEF7D7FB03469CB20A48FEF7D2FBCF
:101B500003462246074908483DF038FE034B1B6800
:101B6000184641F0D5FE33E046FA002454D1002453
:101B7000104F0608A8D100249C640024244F0608B6
:101B80002C4F0608304F060848FA002488EF060854
:101B9000384F0608A84B1B6841F28831184641F0BF
:101BA0006CFEA649A64860F0DBFDA548FEF7A2FB47
:101BB00003469CB2A248FEF79DFB03462246A0497D
:101BC000A0483DF003FE9C4B1B68184641F0A0FE68
:101BD0009D4B1B8801339AB29B4B1A809B4B1A88F2
:101BE000994B1B889A428BD2934B1B6841F28831E8
:101BF000184641F042FE9649914860F0B1FD904888
:101C0000FEF778FB03469CB28D48FEF773FB034654
:101C100022468B498B483DF0D9FD874B1B681846FF
:101C200041F076FE894B1B8801339AB2874B1A80AC
:101C3000864B1B887A899A423FF69FAE7B8903F0D8
:101C40000F039BB2002B00F0D5807B8903F00F03BC
:101C50009AB27D4B1A8023E0774B1B6841F28831A2
:101C6000184641F00AFE7B49754860F079FD7448DA
:101C7000FEF740FB03469CB27148FEF73BFB034670
:101C800022466F496F483DF0A1FD6B4B1B6818461B
:101C900041F03EFE6C4B1B8801339AB26A4B1A80AE
:101CA000694B1B880F2BD7D97B8903F008039BB2A4
:101CB000002B1DD1604B1B6841F28831184641F062
:101CC000DCFD65495E4860F04BFD5D48FEF712FBA8
:101CD00003469CB25A48FEF70DFB0346224658497C
:101CE00058483DF073FD544B1B68184641F010FEF8
:101CF000514B1B6841F28831184641F0BEFD5649F0
:101D00004F4860F02DFD4E48FEF7F4FA03469CB2B2
:101D10004B48FEF7EFFA03462246494949483DF051
:101D200055FD454B1B68184641F0F2FD7B8923F0B9
:101D30000F039AB2444B1A8057E0434B1B881A4654
:101D4000FB6813441B780133444A13441B7803F0A7
:101D50009703002B25D0384B1B6841F28831184679
:101D600041F08BFD384B1B881A46FB6813441B78E7
:101D70001A463B49324860F0F3FC3148FEF7BAFAA4
:101D800003469CB22E48FEF7B5FA034622462C497C
:101D90002C483DF01BFD284B1B68184641F0B8FD50
:101DA0001DE0254B1B6841F28831184641F065FD66
:101DB0002249234860F0D4FC2148FEF79BFA0346F1
:101DC0009CB21F48FEF796FA034622461C491D485E
:101DD0003DF0FCFC184B1B68184641F099FD1A4B6E
:101DE0001B8801339AB2184B1A80174B1B887A89CB
:101DF0009A42A2D8104B1B6841F28831184641F034
:101E00003CFD13490E4860F0ABFC0D48FEF772FA3A
:101E100003469CB20A48FEF76DFA0346224608497B
:101E200008483DF0D3FC044B1B68184641F070FD98
:101E300000BF1437BD4690BD54D100243C4F060866
:101E4000A8D100249C64002448FA002446FA002407
:101E5000404F0608444F0608304F060888EF060832
:101E6000384F060890B583B002AF654B1B684FF43E
:101E70007A71184641F001FD6249634860F070FCD8
:101E80006148FEF737FA03469CB25F48FEF732FA24
:101E9000034622465C495D483DF098FC59495A4842
:101EA00060F05EFC5848FEF725FA03469CB256489F
:101EB000FEF720FA03462246534954483DF086FC7B
:101EC0005049514860F04CFC4F48FEF713FA034666
:101ED0009CB24D48FEF70EFA034622464A494B484B
:101EE0003DF074FC4A49484860F03AFC4648FEF729
:101EF00001FA03469CB24448FEF7FCF90346224629
:101F0000414942483DF062FC42493F4860F028FCAC
:101F10003D48FEF7EFF903469CB23B48FEF7EAF96D
:101F200003462246384939483DF050FC3A49364884
:101F300060F016FC3448FEF7DDF903469CB23248E7
:101F4000FEF7D8F9034622462F4930483DF03EFCC3
:101F500041230193314B0093314B314A31492A4897
:101F600060F0FEFB2848FEF7C5F903469CB2264800
:101F7000FEF7C0F903462246234924483DF026FCDB
:101F8000294A2A49204860F0EBFB1F48FEF7B2F9C6
:101F900003469CB21C48FEF7ADF9034622461A4997
:101FA0001A483DF013FC2249174860F0D9FB164847
:101FB000FEF7A0F903469CB21348FEF79BF90346CF
:101FC0002246114911483DF001FC12490E4860F0CB
:101FD000C7FB0D48FEF78EF903469CB20A48FEF790
:101FE00089F903462246084908483DF0EFFB044BB7
:101FF0001B68184641F08CFC00BF0437BD4690BDFD
:1020000054D10024484F0608A8D100249C64002421
:10201000744F06087C4F0608C44F06084050060857
:102020000C50060810500608445006085050060888
:102030007850060890B585B000AF03463960FB7153
:102040001346BB71444B9B78072B5ED8434B1B68F0
:1020500041F28831184641F010FCFB79404A414971
:10206000414860F07DFB4048FEF744F903469CB2CE
:102070003D48FEF73FF9034622463B493B483DF0C9
:10208000A5FB364B1B68184641F042FC324B9B784F
:102090000133DAB2304B9A702F4B5B7819462E4AD7
:1020A000AA2301FB03F313440333FA791A70BB79B3
:1020B000A82B01D9A823BB71274B5B781946264A68
:1020C000AA2301FB03F313440433BA791A70224B99
:1020D0005B781A46AA2302FB03F31F4A1344053315
:1020E000BA793968184661F060FA1B4B5B780133A6
:1020F000DAB2194B5A70184B5B78072B02D9164B82
:1021000000225A700123FB7321E0144B1B6841F23B
:102110008831184641F0B1FBFB79114A1449124845
:1021200060F01EFB1048FEF7E5F803469CB20E482F
:10213000FEF7E0F8034622460B490C483DF046FB0B
:10214000064B1B68184641F0E3FB0023FB73FB7B47
:1021500018461437BD4690BDD8E9002454D1002458
:1021600098BB060828510608A8D100249C640024C6
:102170005451060890B585B000AF03463960FB7135
:102180001346BB71444B9B78072B5ED8434B1B68AF
:1021900041F28831184641F070FBFB79404A4149D1
:1021A000414860F0DDFA4048FEF7A4F803469CB2CF
:1021B0003D48FEF79FF8034622463B493B483DF029
:1021C00005FB364B1B68184641F0A2FB324B9B784F
:1021D0000133DAB2304B9A702F4B5B7819462E4A96
:1021E000AA2301FB03F313440333FA791A70BB7972
:1021F000A82B01D9A823BB71274B5B781946264A27
:10220000AA2301FB03F313440433BA791A70224B57
:102210005B781A46AA2302FB03F31F4A13440533D3
:10222000BA793968184661F0C0F91B4B5B78013305
:10223000DAB2194B5A70184B5B78072B02D9164B40
:1022400000225A700123FB7321E0144B1B6841F2FA
:102250008831184641F011FBFB79114A14491248A4
:1022600060F07EFA1048FEF745F803469CB20E482F
:10227000FEF740F8034622460B490C483DF0A6FA0B
:10228000064B1B68184641F043FB0023FB73FB7BA6
:1022900018461437BD4690BD2CEF002454D10024BD
:1022A000B0BB06089C510608A8D100249C640024F9
:1022B000C851060890B585B000AF03460A46FB71C9
:1022C0001346BB71974B1B6841F28831184641F0A9
:1022D000D4FAFB79944A9549954860F041FA9448BC
:1022E000FEF708F803469CB29148FEF703F8034650
:1022F00022468F498F483DF069FA8A4B1B68184681
:1023000041F006FB8C4B00221A728B4B0022DA60E4
:10231000894B002283F8C820884B00221A70884B12
:1023200018221A70BB79002B1BD0864B0133854ACB
:1023300052781946FF2006F00FFA0346FB73FA792C
:10234000FB7B9A4201D1012200E003227B4B1A70F1
:10235000FA79FB7B9A4201D1062200E01522784BE4
:102360001A70704B1B6841F28831184641F085FAAB
:1023700075496F4860F0F4F96D48FDF7BBFF0346FF
:102380009CB26B48FDF7B6FF034622466849694890
:102390003DF01CFA634B1B68184641F0B9FA664BD6
:1023A000DB7C1946002300226648FFF7D9FA5D4B13
:1023B0001B6841F28831184641F05FFA63495C4876
:1023C00060F0CEF95A48FDF795FF03469CB2584895
:1023D000FDF790FF03462246554956483DF0F6F971
:1023E000504B1B68184641F093FA534B00221A7465
:1023F00001230122524956483DF0E8F9504B1B7821
:10240000182B46D0182B64DC062B02D0152B20D0BD
:102410005FE0444B1B6841F28831184641F02DFAC9
:10242000414A4C49424860F09BF94148FDF762FF40
:1024300003469CB23E48FDF75DFF034622463C49F9
:102440003C483DF0C3F9374B1B68184641F060FA31
:1024500061E0344B1B6841F28831184641F00DFAB7
:10246000314A3D49324860F07BF93148FDF742FF7F
:1024700003469CB22E48FDF73DFF034622462C49F9
:102480002C483DF0A3F9274B1B68184641F040FA51
:1024900041E0244B1B6841F28831184641F0EDF9C8
:1024A000214A2E49224860F05BF92148FDF722FFBE
:1024B00003469CB21E48FDF71DFF034622461C49F9
:1024C0001C483DF083F9174B1B68184641F020FA71
:1024D00021E0144B1B6841F28831184641F0CDF9D8
:1024E000174B1B78104A1E49114860F039F9104803
:1024F000FDF700FF03469CB20D48FDF7FBFE0346C7
:1025000022460B490B483DF061F9064B1B68184603
:1025100041F0FEF900BF094B1B7818461437BD4641
:1025200090BD00BF54D10024D4BB06080C5206084D
:10253000A8D100249C64002480F400244AFA0024DA
:102540004BFA002494F400242C5206088C520608FE
:1025500030650024EC520608285306087853060814
:10256000F053060890B583B000AF0346FB71234BD0
:102570001B6841F28831184641F07FF9FB79204A07
:102580002049214860F0ECF81F48FDF7B3FE0346F0
:102590009CB21D48FDF7AEFE034622461A491B4871
:1025A0003DF014F9154B1B68184641F0B1F9184B72
:1025B000DB7C1A46164B1344FA791A75144BDB7CF4
:1025C0000133DAB2124BDA74124B5B78032B0AD95F
:1025D000104B5B78033BDAB20D4B83F8C9200C4BF0
:1025E00004221A7406E00A4B012283F8C920084B22
:1025F00005221A7400BF0C37BD4690BD54D100248B
:10260000ECBB060838540608A8D100249C640024BA
:1026100080F4002494F4002480B483B000AF034617
:10262000FB71144B93F8C930013BDAB2114B83F8BC
:10263000C920104BDB7C1A460E4B1344FA791A75ED
:102640000C4BDB7C0133DAB20A4BDA74094BDB7CCE
:10265000B32B05D8074BDA7C074B5B789A4202D93B
:10266000044B05221A7400BF0C37BD465DF8047B8D
:10267000704700BF80F4002494F4002498B500AFA4
:10268000194B1B6841F28831184641F0F6F8174A99
:102690001749184860F064F81648FDF72BFE03460A
:1026A0009CB21448FDF726FE034622461149124803
:1026B0003DF08CF80C4B1B68184641F029F90F4B84
:1026C00000221A740D4B002283F8C8200B4B002205
:1026D0001A700A4B00221A72084B00225A60074BEC
:1026E0000022DA6000BF98BD54D1002400BC060867
:1026F00054540608A8D100249C64002480F40024CB
:1027000090B583B000AF0346FB71FB79022B02D971
:10271000FB79B42B2DD9214B1B6841F28831184627
:1027200041F0ABF8FB791E4A1E491F4860F018F8CB
:102730001D48FDF7DFFD03469CB21B48FDF7DAFD9F
:1027400003462246184919483DF040F8134B1B68D0
:10275000184641F0DDF8164B00221A74144B002283
:1027600083F8C820124B00221A72114B0022DA6043
:1027700010E00F4B02221A740D4BDB7C1A460C4BF7
:102780001344FA791A750A4BDB7C0133DAB2084B31
:10279000DA7400BF00BF0C37BD4690BD54D1002491
:1027A00018BC060870540608A8D100249C640024B4
:1027B00080F4002490B585B002AF0346FB719F4BB7
:1027C00000221A70FB79012B39D19D4B1B6841F215
:1027D0008831184641F051F89A4A9B499B485FF06E
:1027E000BFFF9A48FDF786FD03469CB29748FDF768
:1027F00081FD03462246954995483CF0E7FF904B02
:102800001B68184641F084F8924B01221A74914BD0
:102810000022DA748F4B012283F8C8208D4BDB7CB9
:102820001A468C4B1344FA791A758A4BDB7C0133B8
:10283000DAB2884BDA74874B00221A72F9E1854BC1
:102840009B7C002B00F03781FB79062B02D0FB79B3
:10285000152B0ED17F4B00229A747E4B00221A70EA
:102860007C4B00221A727B4B00225A60794B00226B
:10287000DA60FB79062B22D1714B1B6841F288315B
:10288000184640F0FAFF6F4A734970485FF068FFDE
:102890006E48FDF72FFD03469CB26C48FDF72AFDFC
:1028A0000346224669496A483CF090FF644B1B6826
:1028B000184641F02DF8614B02221A70B9E1FB79FC
:1028C000152B22D15E4B1B6841F28831184640F02F
:1028D000D4FF5C4A61495D485FF042FF5B48FDF709
:1028E00009FD03469CB25948FDF704FD0346224604
:1028F000564957483CF06AFF514B1B68184641F057
:1029000007F84E4B05221A7093E1FB790133544AC4
:1029100013441B7803F09703002B23D0484B1B680C
:1029200041F28831184640F0A8FFFA79FB7900930C
:102930001346444A4B4945485FF012FF4348FDF7B0
:10294000D9FC03469CB24148FDF7D4FC034622461D
:102950003E493F483CF03AFF394B1B68184640F06F
:10296000D7FF66E1FB79182B47D0182B00F3828044
:10297000062B02D0152B20D07CE0314B1B6841F296
:102980008831184640F079FF2E4A37492F485FF0CA
:10299000E7FE2E48FDF7AEFC03469CB22B48FDF740
:1029A000A9FC03462246294929483CF00FFF244B45
:1029B0001B68184640F0ACFF3BE1214B1B6841F21D
:1029C0008831184640F059FF1E4A28491F485FF0D9
:1029D000C7FE1E48FDF78EFC03469CB21B48FDF760
:1029E00089FC03462246194919483CF0EFFE144B76
:1029F0001B68184640F08CFF1BE1114B1B6841F22D
:102A00008831184640F039FF0E4A19490F485FF0E7
:102A1000A7FE0E48FDF76EFC03469CB20B48FDF77F
:102A200069FC03462246094909483CF0CFFE044BA5
:102A30001B68184640F06CFFFBE000BF4CFA002416
:102A400054D100242CBC0608A4540608A8D10024A4
:102A50009C64002480F40024BC540608D454060866
:102A600088EF0608EC5406081C5506084055060871
:102A700064550608724B1B6841F28831184640F0D5
:102A8000FCFEFB796F4A704970485FF069FE6F4841
:102A9000FDF730FC03469CB26C48FDF72BFC034667
:102AA00022466A496A483CF091FE654B1B6818460D
:102AB00040F02EFFBDE0FB790133664A13441B78DA
:102AC00003F09703002B23D05D4B1B6841F2883144
:102AD000184640F0D2FEFA79FB7900931346594A22
:102AE0005D495A485FF03CFE5848FDF703FC034639
:102AF0009CB25648FDF7FEFB034622465349544814
:102B00003CF064FE4E4B1B68184640F001FF8AE023
:102B1000FB79182B46D0182B64DC062B02D0152B22
:102B200020D05FE0464B1B6841F28831184640F0E8
:102B3000A4FE444A494945485FF012FE4348FDF768
:102B4000D9FB03469CB24148FDF7D4FB034622461D
:102B50003E493F483CF03AFE394B1B68184640F06E
:102B6000D7FE60E0364B1B6841F28831184640F0D2
:102B700084FE344A3A4935485FF0F2FD3348FDF7A8
:102B8000B9FB03469CB23148FDF7B4FB034622462D
:102B90002E492F483CF01AFE294B1B68184640F07E
:102BA000B7FE40E0264B1B6841F28831184640F0E2
:102BB00064FE244A2B4925485FF0D2FD2348FDF7E7
:102BC00099FB03469CB22148FDF794FB034622463D
:102BD0001E491F483CF0FAFD194B1B68184640F08F
:102BE00097FE20E0164B1B6841F28831184640F0F2
:102BF00044FEFB79134A144914485FF0B1FD1348B1
:102C0000FDF778FB03469CB21048FDF773FB0346C3
:102C100022460E490E483CF0D9FD094B1B68184668
:102C200040F076FE00BF104B00221A700E4B0022BF
:102C30005A600E4B1B7818460C37BD4690BD00BF3E
:102C400054D100242CBC060888550608A8D10024BD
:102C50009C64002488EF0608EC5406081C550608FE
:102C6000405506086455060880F400244CFA0024F8
:102C700090B583B000AF0346FB71FB79012B4CD9B3
:102C8000514B1B6841F28831184640F0F6FDFB7944
:102C90004E4A4F494F485FF063FD4E48FDF72AFB0F
:102CA00003469CB24B48FDF725FB034622464949A3
:102CB00049483CF08BFD444B1B68184640F028FE09
:102CC000414B1B6841F28831184640F0D6FD3F4A1F
:102CD000424940485FF044FD3E48FDF70BFB034688
:102CE0009CB23C48FDF706FB0346224639493A4868
:102CF0003CF06CFD344B1B68184640F009FE384B25
:102D000000221A74364B002283F8C820344B00226C
:102D10001A72334B0022DA6051E0FB79002B1FD18D
:102D2000294B1B6841F28831184640F0A6FD274A1E
:102D30002C4928485FF014FD2648FDF7DBFA0346CE
:102D40009CB22448FDF7D6FA034622462149224880
:102D50003CF03CFD1C4B1B68184640F0D9FD1EE0C2
:102D6000194B1B6841F28831184640F086FD174A1E
:102D70001D4918485FF0F4FC1648FDF7BBFA0346FE
:102D80009CB21448FDF7B6FA034622461149124890
:102D90003CF01CFD0C4B1B68184640F0B9FD104B75
:102DA00003221A740E4BDB7C1A460D4B1344FA793E
:102DB0001A750B4BDB7C0133DAB2094BDA7400BFB6
:102DC0000C37BD4690BD00BF54D1002440BC06085E
:102DD000B4550608A8D100249C64002410560608A7
:102DE00080F40024385606085856060890B585B079
:102DF00000AF0346FB710023BB730023FB736AE043
:102E0000524B186807F10E010023002240F0B0FF7A
:102E100003464F4A13604E4B1B68002B20D04D4B8E
:102E20001B6841F28831184640F027FD484B1B686B
:102E3000494A4A494A485FF093FC4948FDF75AFA23
:102E400003469CB24648FDF755FA034622464449DC
:102E500044483CF0BBFC3F4B1B68184640F058FD13
:102E6000414B1B7C052B33D801A252F823F000BF45
:102E7000892E0008972E0008A12E0008AB2E00080E
:102E8000B52E0008BF2E0008BB7B1846FFF792FC4A
:102E90000346FB731FE0BB7B1846FFF731FC1AE0CB
:102EA000BB7B1846FFF7E4FE15E0BB7B1846FFF737
:102EB00059FB10E0BB7B1846FFF7AEFB0BE0BB7B7A
:102EC000FA7911461846FFF7F5F90346FB7302E05D
:102ED000FFF7D4FB00BFFB7B002B07D11B4B1B680C
:102EE000184640F0A3FF0346002B89D1FB7B002B43
:102EF00027D11D4B93F8C830002B0FD01A4B1B7AEB
:102F0000002B0BD0184B00221A72174B00221A7498
:102F1000154B002283F8C8200423FB73124B9B7CC3
:102F2000002B0ED0104B1B78002B0AD00E4B00222A
:102F30001A700D4B00221A740B4B00229A74052351
:102F4000FB73FB7B18461437BD4690BDACCB002409
:102F500050FA002454D1002454BC060878560608C0
:102F6000A8D100249C64002480F4002480B400AF25
:102F7000104B9B78002B13D00E4B9B78013BDAB2A1
:102F80000C4B9A700B4B1B780133DAB2094B1A7059
:102F9000084B1B78072B07D9064B00221A7003E059
:102FA000044B5A78034B1A7000BFBD465DF8047B92
:102FB000704700BFD8E9002480B400AF104B9B7865
:102FC000002B13D00E4B9B78013BDAB20C4B9A705E
:102FD0000B4B1B780133DAB2094B1A70084B1B7884
:102FE000072B07D9064B00221A7003E0044B5A78CE
:102FF000034B1A7000BFBD465DF8047B704700BFED
:103000002CEF002490B585B002AF9B4B1B6841F2BA
:103010008831184640F031FC984B1B79984A994901
:1030200099485FF09DFB9848FDF764F903469CB210
:103030009548FDF75FF903462246934993483CF0D3
:10304000C5FB8D4B1B68184640F062FC8A4B1B6821
:1030500041F28831184640F010FC884B5B79884A71
:103060008B4989485FF07CFB8748FDF743F90346AD
:103070009CB28548FDF73EF90346224682498348C3
:103080003CF0A4FB7C4B1B68184640F041FC7B4B9A
:103090001B7903F00103002B1FD0774B1B6841F213
:1030A0008831184640F0E9FB754A7A4976485FF066
:1030B00057FB7548FDF71EF903469CB27248FDF7B1
:1030C00019F903462246704970483CF07FFB6A4B71
:1030D0001B68184640F01CFC1EE0674B1B6841F261
:1030E0008831184640F0C9FB654A6B4966485FF075
:1030F00037FB6548FDF7FEF803469CB26248FDF7D2
:10310000F9F803462246604960483CF05FFB5A4BA1
:103110001B68184640F0FCFB584B1B7903F0020378
:10312000002B1FD0544B1B6841F28831184640F0E9
:10313000A4FB534A594954485FF012FB5248FDF72B
:10314000D9F803469CB25048FDF7D4F8034622460E
:103150004D494E483CF03AFB474B1B68184640F03F
:10316000D7FB1EE0444B1B6841F28831184640F003
:1031700084FB434A4A4944485FF0F2FA4248FDF76B
:10318000B9F803469CB24048FDF7B4F8034622461E
:103190003D493E483CF01AFB374B1B68184640F04F
:1031A000B7FB364B1B7903F00403002B1FD0324BC7
:1031B0001B6841F28831184640F05FFB304A3949BC
:1031C00031485FF0CDFA3048FDF794F803469CB2E1
:1031D0002D48FDF78FF8034622462B492B483CF03B
:1031E000F5FA254B1B68184640F092FB1EE0224B77
:1031F0001B6841F28831184640F03FFB204A2A49BB
:1032000021485FF0ADFA2048FDF774F803469CB200
:103210001D48FDF76FF8034622461B491B483CF04A
:10322000D5FA154B1B68184640F072FB134B1B79FF
:1032300003F00803002B3BD00F4B1B6841F2883191
:10324000184640F01AFB0E4A18490F485FF088FAFA
:103250000D48FDF74FF803469CB20B48FDF74AF8BE
:1032600003462246084909483CF0B0FA024B1B6865
:10327000184640F04DFB3AE054D1002494F4002469
:1032800068BC0608F0560608A8D100249C640024F7
:10329000185706084057060858570608705706087A
:1032A00094570608BC570608DC570608F857060866
:1032B000994B1B6841F28831184640F0DEFA974A74
:1032C000974998485FF04CFA9648FDF713F8034683
:1032D0009CB29448FDF70EF8034622469149924865
:1032E0003CF074FA8C4B1B68184640F011FB8A4B7B
:1032F0001B6841F28831184640F0BFFA8B4B9B792E
:10330000864A8B4987485FF02BFA8648FCF7F2FF24
:1033100003469CB28348FCF7EDFF034622468149F1
:1033200081483CF053FA7C4B1B68184640F0F0FA99
:10333000794B1B6841F28831184640F09EFA774A73
:103340007C4978485FF00CFA7648FCF7D3FF0346D7
:103350009CB27448FCF7CEFF03462246714972487E
:103360003CF034FA6C4B1B68184640F0D1FA6F4BB6
:103370009B79002B31D000237B6028E0664B1B68D3
:1033800041F28831184640F078FA684A7B68033386
:1033900013441B7900937B68604A674961485FF07A
:1033A000DFF96048FCF7A6FF03469CB25D48FCF7D6
:1033B000A1FF034622465B495B483CF007FA564BA7
:1033C0001B68184640F0A4FA7B6801337B60574BBA
:1033D0009B791A467B689342D0DB4F4B1B6841F2C6
:1033E0008831184640F049FA504A504B9B790333D4
:1033F00013441B79494A51494A485FF0B1F9494899
:10340000FCF778FF03469CB24648FCF773FF03467F
:103410002246444944483CF0D9F93F4B1B681846C2
:1034200040F076FA3C4B1B6841F28831184640F078
:1034300024FA3E4A3D4B9B79043313441B79374AA7
:103440003F4938485FF08CF93648FCF753FF034694
:103450009CB23448FCF74EFF0346224631493248BD
:103460003CF0B4F92C4B1B68184640F051FA2F4A37
:103470002E4B9B79033313441B79082B27D12B4AFE
:103480002A4B9B79043313441B79002B1FD1224B09
:103490001B6841F28831184640F0EFF91F4A29496C
:1034A00020485FF05DF91F48FCF724FF03469CB2FB
:1034B0001C48FCF71FFF034622461A491A483CF0F5
:1034C00085F9154B1B68184640F022FA1FE0124B95
:1034D0001B6841F28831184640F0CFF90F4A1A496B
:1034E00010485FF03DF90F48FCF704FF03469CB21B
:1034F0000C48FCF7FFFE034622460A490A483CF006
:1035000065F9054B1B68184640F002FA00BF00BF82
:103510000C37BD4690BD00BF54D1002468BC0608DE
:1035200014580608A8D100249C64002494F40024B4
:10353000345806085C58060888580608B05806082B
:10354000D8580608005906083459060890B583B0C3
:1035500000AF834B1B6841F28831184640F08DF96B
:10356000804B1B79804A814981485FF0F9F8804897
:10357000FCF7C0FE03469CB27D48FCF7BBFE034649
:1035800022467B497B483CF021F9754B1B68184665
:1035900040F0BEF9734B04331B783B713B7903F069
:1035A0000103DBB2002B1ED06D4B1B6841F288314A
:1035B000184640F062F96C4A6F496D485FF0D0F8E8
:1035C0006B48FCF797FE03469CB26948FCF792FEF5
:1035D00003462246664967483CF0F8F8604B1B6892
:1035E000184640F095F93B7903F00203DBB2002B5B
:1035F0001ED05B4B1B6841F28831184640F03DF904
:10360000594A5E495A485FF0ABF85948FCF772FED8
:1036100003469CB25648FCF76DFE034622465449C9
:1036200054483CF0D3F84E4B1B68184640F070F9F4
:103630003B7903F00403DBB2002B1ED0484B1B6820
:1036400041F28831184640F018F9474A4C49484839
:103650005FF086F84648FCF74DFE03469CB24448AE
:10366000FCF748FE03462246414942483CF0AEF88A
:103670003B4B1B68184640F04BF93B7903F00803BD
:10368000DBB2002B1ED0364B1B6841F28831184646
:1036900040F0F3F8344A3B4935485FF061F834486C
:1036A000FCF728FE03469CB23148FCF723FE034694
:1036B00022462F492F483CF089F8294B1B681846B1
:1036C00040F026F93B7903F01003DBB2002B1ED04B
:1036D000234B1B6841F28831184640F0CEF8224A4D
:1036E000294923485FF03CF82148FCF703FE0346D4
:1036F0009CB21F48FCF7FEFD034622461C491D48AC
:103700003CF064F8164B1B68184640F001F93B7911
:1037100003F02003DBB2002B1ED0114B1B6841F2DB
:103720008831184640F0A9F80F4A184910485FF050
:1037300017F80F48FCF7DEFD03469CB20C48FCF777
:10374000D9FD034622460A490A483CF03FF8044B9B
:103750001B68184640F0DCF800BF0C37BD4690BD32
:1037600054D1002494F4002488BC06088859060823
:10377000A8D100249C640024A0590608C05906085A
:10378000E4590608105A0608345A0608505A060822
:1037900090B587B002AF9B4B1B6841F28831184649
:1037A00040F06BF8984B1B79984A994999485EF01C
:1037B000D7FF9848FCF79EFD03469CB29548FCF75E
:1037C00099FD03462246934993483BF0FFFF8D4BFA
:1037D0001B68184640F09CF88A4B1B6841F2883100
:1037E000184640F04AF8884B5B79884A8B498948EB
:1037F0005EF0B6FF8748FCF77DFD03469CB2854826
:10380000FCF778FD03462246824983483BF0DEFF01
:103810007C4B1B68184640F07BF87A4B1B6841F2E2
:103820008831184640F029F8774B9B79774A7C49D4
:1038300078485EF095FF7748FCF75CFD03469CB244
:103840007448FCF757FD03462246724972483BF024
:10385000BDFF6C4B1B68184640F05AF8694B1B685B
:1038600041F28831184640F008F8674BDB79674A27
:103870006C4968485EF074FF6648FCF73BFD034600
:103880009CB26448FCF736FD034622466149624813
:103890003BF09CFF5B4B1B68184640F039F8594BD6
:1038A0001B6841F2883118463FF0E7FF564B1B7A00
:1038B000564A5D4957485EF053FF5648FCF71AFDDB
:1038C00003469CB25348FCF715FD03462246514976
:1038D00051483BF07BFF4B4B1B68184640F018F8F3
:1038E000484B1B6841F2883118463FF0C6FF464BF3
:1038F0005B7A464A4D4947485EF032FF4548FCF73F
:10390000F9FC03469CB24348FCF7F4FC034622460C
:10391000404941483BF05AFF3A4B1B6818463FF07C
:10392000F7FF384B1B6841F2883118463FF0A5FF7E
:10393000354B9B7A354A3E4936485EF011FF354893
:10394000FCF7D8FC03469CB23248FCF7D3FC034694
:103950002246304930483BF039FF2A4B1B68184655
:103960003FF0D6FF274B1B6841F2883118463FF0E5
:1039700084FF254BDB7A254A2E4926485EF0F0FE6F
:103980002448FCF7B7FC03469CB22248FCF7B2FC83
:10399000034622461F4920483BF018FF194B1B687D
:1039A00018463FF0B5FF0023FB730023BB607EE0A9
:1039B000144B1B6841F2883118463FF05EFF124AF3
:1039C000BB68083313441B790093BB680F4A1A493C
:1039D00010485EF0C5FE0F48FCF78CFC03469CB215
:1039E0000C48FCF787FC034622460A490A483BF08C
:1039F000EDFE044B1B6818463FF08AFF00237B60F6
:103A00004FE000BF54D1002494F40024B8BC060851
:103A10006C5A0608A8D100249C640024A45A060805
:103A2000DC5A0608145B06084C5B0608845B060833
:103A3000BC5B0608F45B06082C5C0608FB7B0133C4
:103A4000FB731F4ABB68083313441B791A467B6813
:103A500042FA03F303F00103002B1FD0194B1B683C
:103A600041F2883118463FF008FFFB7B164A1749A0
:103A700017485EF075FE1648FCF73CFC03469CB206
:103A80001348FCF737FC03462246114911483BF026
:103A90009DFE0C4B1B6818463FF03AFF7B680133D4
:103AA0007B607B68072BC9DDBB680133BB60BB68EB
:103AB0001F2B7FF77DAF00BF00BF1437BD4690BD01
:103AC00094F4002454D10024B8BC06085C5C0608B9
:103AD000A8D100249C64002490B583B000AFB44BFF
:103AE0001B6841F2883118463FF0C7FEB14B1B7985
:103AF000B14AB249B2485EF033FEB148FCF7FAFB76
:103B000003469CB2AE48FCF7F5FB03462246AC499F
:103B1000AC483BF05BFEA64B1B6818463FF0F8FE36
:103B2000A44B1B790A2B1FDC002BC0F25F810A2BF0
:103B300000F25C8101A252F823F000BF713B000843
:103B4000B13B0008ED3D0008F13B0008313C0008A6
:103B5000713C0008ED3D0008B13C0008ED3D000857
:103B6000F13C0008313D0008FF2B00F001813DE1F0
:103B70008F4B1B6841F2883118463FF07EFE8E4A1B
:103B800091498F485EF0ECFD8D48FCF7B3FB03468E
:103B90009CB28B48FCF7AEFB034622468849894815
:103BA0003BF014FE824B1B6818463FF0B1FE3FE12C
:103BB0007F4B1B6841F2883118463FF05EFE7E4A1B
:103BC00082497F485EF0CCFD7D48FCF793FB0346BD
:103BD0009CB27B48FCF78EFB034622467849794825
:103BE0003BF0F4FD724B1B6818463FF091FE1FE15D
:103BF0006F4B1B6841F2883118463FF03EFE6E4A1B
:103C000073496F485EF0ACFD6D48FCF773FB0346EB
:103C10009CB26B48FCF76EFB034622466849694834
:103C20003BF0D4FD624B1B6818463FF071FEFFE08D
:103C30005F4B1B6841F2883118463FF01EFE5E4A1A
:103C400064495F485EF08CFD5D48FCF753FB03461A
:103C50009CB25B48FCF74EFB034622465849594844
:103C60003BF0B4FD524B1B6818463FF051FEDFE0BD
:103C70004F4B1B6841F2883118463FF0FEFD4E4A1B
:103C800055494F485EF06CFD4D48FCF733FB034649
:103C90009CB24B48FCF72EFB034622464849494854
:103CA0003BF094FD424B1B6818463FF031FEBFE0ED
:103CB0003F4B1B6841F2883118463FF0DEFD3E4A1B
:103CC00046493F485EF04CFD3D48FCF713FB034678
:103CD0009CB23B48FCF70EFB034622463849394864
:103CE0003BF074FD324B1B6818463FF011FE9FE01D
:103CF0002F4B1B6841F2883118463FF0BEFD2E4A1B
:103D000037492F485EF02CFD2D48FCF7F3FA0346A7
:103D10009CB22B48FCF7EEFA034622462849294874
:103D20003BF054FD224B1B6818463FF0F1FD7FE04D
:103D30001F4B1B6841F2883118463FF09EFD1E4A1A
:103D400028491F485EF00CFD1D48FCF7D3FA0346D6
:103D50009CB21B48FCF7CEFA034622461849194884
:103D60003BF034FD124B1B6818463FF0D1FD5FE07D
:103D70000F4B1B6841F2883118463FF07EFD0E4A1A
:103D800019490F485EF0ECFC0D48FCF7B3FA034606
:103D90009CB20B48FCF7AEFA034622460849094894
:103DA0003BF014FD024B1B6818463FF0B1FD3FE0AD
:103DB00054D1002494F40024E8BC0608905C060862
:103DC000A8D100249C640024BC5C0608E45C0608BE
:103DD000285D0608505D06089C5D0608C45D06085F
:103DE000EC5D06081C5E06084C5E06089B4B1B68D3
:103DF00041F2883118463FF040FD994B1B79994AB2
:103E000099499A485EF0ACFC9848FCF773FA03466F
:103E10009CB29648FCF76EFA0346224693499448B2
:103E20003BF0D4FC8D4B1B6818463FF071FD00BF82
:103E30008A4B1B6841F2883118463FF01EFD884BC3
:103E40005B79884A8B4989485EF08AFC8748FCF791
:103E500051FA03469CB28548FCF74CFA03462246C9
:103E6000824983483BF0B2FC7C4B1B6818463FF00C
:103E70004FFD7B4B5B79002B1FD0784B1B6841F2C9
:103E8000883118463FF0F9FC764A7B4977485EF066
:103E900067FC7648FCF72EFA03469CB27348FCF7A1
:103EA00029FA03462246714971483BF08FFC6B4B5F
:103EB0001B6818463FF02CFD1EE0684B1B6841F262
:103EC000883118463FF0D9FC664A6C4967485EF075
:103ED00047FC6648FCF70EFA03469CB26348FCF7C1
:103EE00009FA03462246614961483BF06FFC5B4B8F
:103EF0001B6818463FF00CFD584B1B6841F2883197
:103F000018463FF0BAFC564B9B79564A5C495748D5
:103F10005EF026FC5548FCF7EDF903469CB2534889
:103F2000FCF7E8F903462246504951483BF04EFC65
:103F30004A4B1B6818463FF0EBFC494B9B79202B02
:103F40006CD0202B00F3A680102B47D0102B00F351
:103F5000A180002B02D0012B20D09BE03F4B1B689F
:103F600041F2883118463FF088FC3E4A45493F48B7
:103F70005EF0F6FB3D48FCF7BDF903469CB23B48BA
:103F8000FCF7B8F903462246384939483BF01EFC95
:103F9000324B1B6818463FF0BBFC9DE02F4B1B6863
:103FA00041F2883118463FF068FC2E4A36492F48C6
:103FB0005EF0D6FB2D48FCF79DF903469CB22B48DA
:103FC000FCF798F903462246284929483BF0FEFBB6
:103FD000224B1B6818463FF09BFC7DE01F4B1B6883
:103FE00041F2883118463FF048FC1E4A27491F48D5
:103FF0005EF0B6FB1D48FCF77DF903469CB21B48FA
:10400000FCF778F903462246184919483BF0DEFBD5
:10401000124B1B6818463FF07BFC5DE00F4B1B68A2
:1040200041F2883118463FF028FC0E4A18490F48E3
:104030005EF096FB0D48FCF75DF903469CB20B4819
:10404000FCF758F903462246084909483BF0BEFBF5
:10405000024B1B6818463FF05BFC3DE054D1002446
:1040600094F40024E8BC0608785E0608A8D1002471
:104070009C640024B45E0608E05E0608345F06080F
:10408000705F06089C5F0608F05F0608346006084B
:104090008C600608DB4B1B6841F2883118463FF004
:1040A000ECFBD94B9B79D94AD949DA485EF058FBE9
:1040B000D848FCF71FF903469CB2D648FCF71AF91A
:1040C00003462246D349D4483BF080FBCD4B1B68C6
:1040D00018463FF01DFC00BFCA4B1B6841F28831F7
:1040E00018463FF0CAFBC84BDB79C84ACB49C948E0
:1040F0005EF036FBC748FCF7FDF803469CB2C548A6
:10410000FCF7F8F803462246C249C3483BF05EFB81
:10411000BC4B1B6818463FF0FBFBBB4BDB79A12B6C
:1041200000F34C81002B40F3D984013BA02B00F21B
:10413000D58401A252F823F0A54400086147000885
:10414000C5430008254400081D4A00085D4A0008D0
:104150009D4A0008A148000821490008DD4A0008DE
:10416000DD4A0008DD4A0008DD4A0008DD4A000893
:10417000A5450008A1470008E147000821480008BC
:1041800061480008DD4A000861490008E14800086C
:10419000E5450008A1490008DD4A0008DD4A00089D
:1041A000DD4A0008DD4A0008DD4A0008DD4A000853
:1041B000DD4A0008A546000821470008DD4A00083E
:1041C000DD4A0008DD4A0008DD4A0008DD4A000833
:1041D000DD4A0008DD4A0008DD4A0008DD4A000823
:1041E000DD4A0008DD4A0008DD4A0008DD4A000813
:1041F000DD4A000825450008E5440008DD4A0008BE
:10420000DD4A0008DD4A0008DD4A0008DD4A0008F2
:10421000DD4A0008DD4A0008DD4A0008DD4A0008E2
:10422000DD4A0008DD4A0008DD4A0008DD4A0008D2
:10423000DD4A000865440008DD4A0008DD4A000840
:10424000DD4A0008DD4A0008DD4A0008DD4A0008B2
:10425000DD4A0008DD4A0008DD4A0008DD4A0008A2
:10426000DD4A0008DD4A0008DD4A0008DD4A000892
:10427000DD4A000825460008DD4A0008DD4A00083E
:10428000DD4A0008DD4A0008DD4A0008DD4A000872
:10429000DD4A0008DD4A0008DD4A0008DD4A000862
:1042A000DD4A0008DD4A0008DD4A0008DD4A000852
:1042B000DD4A0008DD4A0008DD4A0008DD4A000842
:1042C000DD4A0008DD4A0008DD4A0008DD4A000832
:1042D000DD4A0008DD4A0008DD4A0008DD4A000822
:1042E000DD4A0008DD4A0008DD4A0008DD4A000812
:1042F000DD4A0008DD4A0008DD4A0008DD4A000802
:10430000DD4A0008DD4A0008DD4A0008DD4A0008F1
:10431000DD4A0008DD4A0008DD4A0008DD4A0008E1
:10432000DD4A0008DD4A0008DD4A0008DD4A0008D1
:10433000DD4A0008DD4A0008DD4A0008DD4A0008C1
:10434000DD4A0008DD4A0008DD4A0008DD4A0008B1
:10435000DD4A0008DD4A0008DD4A0008DD4A0008A1
:10436000DD4A0008DD4A0008DD4A0008DD4A000891
:10437000DD4A0008DD4A0008DD4A0008DD4A000881
:10438000DD4A0008DD4A0008DD4A0008DD4A000871
:10439000DD4A0008DD4A0008DD4A0008DD4A000861
:1043A000DD4A0008DD4A0008DD4A0008DD4A000851
:1043B000DD4A0008DD4A000865460008FF2B00F0D2
:1043C000D1808BE30F4B1B6841F2883118463FF0D8
:1043D00054FA0E4A12490F485EF0C2F90D48FBF735
:1043E00089FF03469CB20B48FBF784FF0346224635
:1043F000084909483BF0EAF9024B1B6818463FF0B0
:1044000087FA8DE354D1002494F40024E8BC060814
:10441000E4600608A8D100249C64002424610608F6
:1044200050610608AF4B1B6841F2883118463FF0D7
:1044300024FAAD4AAD49AE485EF092F9AC48FBF7BC
:1044400059FF03469CB2AA48FBF754FF0346224695
:10445000A749A8483BF0BAF9A24B1B6818463FF0A1
:1044600057FA5DE39F4B1B6841F2883118463FF0D5
:1044700004FA9D4AA0499E485EF072F99C48FBF7F9
:1044800039FF03469CB29A48FBF734FF03462246A5
:10449000974998483BF09AF9924B1B6818463FF0B1
:1044A00037FA3DE38F4B1B6841F2883118463FF0E5
:1044B000E4F98D4A91498E485EF052F98C48FBF739
:1044C00019FF03469CB28A48FBF714FF03462246B5
:1044D000874988483BF07AF9824B1B6818463FF0C1
:1044E00017FA1DE37F4B1B6841F2883118463FF0F5
:1044F000C4F97D4A82497E485EF032F97C48FBF778
:10450000F9FE03469CB27A48FBF7F4FE03462246C6
:10451000774978483BF05AF9724B1B6818463FF0D0
:10452000F7F9FDE26F4B1B6841F2883118463FF006
:10453000A4F96D4A73496E485EF012F96C48FBF7B6
:10454000D9FE03469CB26A48FBF7D4FE03462246D6
:10455000674968483BF03AF9624B1B6818463FF0E0
:10456000D7F9DDE25F4B1B6841F2883118463FF016
:1045700084F95D4A64495E485EF0F2F85C48FBF7F6
:10458000B9FE03469CB25A48FBF7B4FE03462246E6
:10459000574958483BF01AF9524B1B6818463FF0F0
:1045A000B7F9BDE24F4B1B6841F2883118463FF026
:1045B00064F94D4A55494E485EF0D2F84C48FBF735
:1045C00099FE03469CB24A48FBF794FE03462246F6
:1045D000474948483BF0FAF8424B1B6818463FF001
:1045E00097F99DE23F4B1B6841F2883118463FF036
:1045F00044F93D4A46493E485EF0B2F83C48FBF774
:1046000079FE03469CB23A48FBF774FE0346224605
:10461000374938483BF0DAF8324B1B6818463FF010
:1046200077F97DE22F4B1B6841F2883118463FF045
:1046300024F92D4A37492E485EF092F82C48FBF7B2
:1046400059FE03469CB22A48FBF754FE0346224615
:10465000274928483BF0BAF8224B1B6818463FF020
:1046600057F95DE21F4B1B6841F2883118463FF055
:1046700004F91D4A28491E485EF072F81C48FBF7F1
:1046800039FE03469CB21A48FBF734FE0346224625
:10469000174918483BF09AF8124B1B6818463FF030
:1046A00037F93DE20F4B1B6841F2883118463FF065
:1046B000E4F80D4A19490E485EF052F80C48FBF731
:1046C00019FE03469CB20A48FBF714FE0346224635
:1046D000074908483BF07AF8024B1B6818463FF040
:1046E00017F91DE254D10024E8BC06086C610608E5
:1046F000A8D100249C640024806106089861060803
:10470000B4610608C4610608DC610608F8610608A1
:10471000146206082C6206084862060860620608F1
:10472000AF4B1B6841F2883118463FF0A6F8AD4AFE
:10473000AD49AE485EF014F8AC48FBF7DBFD03462C
:104740009CB2AA48FBF7D6FD03462246A749A848D3
:104750003BF03CF8A24B1B6818463FF0D9F8DFE16C
:104760009F4B1B6841F2883118463FF086F89D4AFE
:10477000A0499E485DF0F4FF9C48FBF7BBFD034653
:104780009CB29A48FBF7B6FD0346224697499848E3
:104790003BF01CF8924B1B6818463FF0B9F8BFE19C
:1047A0008F4B1B6841F2883118463FF066F88D4AFE
:1047B00091498E485DF0D4FF8C48FBF79BFD034682
:1047C0009CB28A48FBF796FD0346224687498848F3
:1047D0003AF0FCFF824B1B6818463FF099F89FE1C6
:1047E0007F4B1B6841F2883118463FF046F87D4AFE
:1047F00082497E485DF0B4FF7C48FBF77BFD0346B1
:104800009CB27A48FBF776FD034622467749784802
:104810003AF0DCFF724B1B6818463FF079F87FE1F5
:104820006F4B1B6841F2883118463FF026F86D4AFD
:1048300073496E485DF094FF6C48FBF75BFD0346DF
:104840009CB26A48FBF756FD034622466749684812
:104850003AF0BCFF624B1B6818463FF059F85FE125
:104860005F4B1B6841F2883118463FF006F85D4AFD
:1048700064495E485DF074FF5C48FBF73BFD03460E
:104880009CB25A48FBF736FD034622465749584822
:104890003AF09CFF524B1B6818463FF039F83FE155
:1048A0004F4B1B6841F2883118463EF0E6FF4D4AF7
:1048B00055494E485DF054FF4C48FBF71BFD03463D
:1048C0009CB24A48FBF716FD034622464749484832
:1048D0003AF07CFF424B1B6818463FF019F81FE185
:1048E0003F4B1B6841F2883118463EF0C6FF3D4AF7
:1048F00046493E485DF034FF3C48FBF7FBFC03466D
:104900009CB23A48FBF7F6FC034622463749384842
:104910003AF05CFF324B1B6818463EF0F9FFFFE0AF
:104920002F4B1B6841F2883118463EF0A6FF2D4AF6
:1049300037492E485DF014FF2C48FBF7DBFC03469B
:104940009CB22A48FBF7D6FC034622462749284852
:104950003AF03CFF224B1B6818463EF0D9FFDFE0DF
:104960001F4B1B6841F2883118463EF086FF1D4AF6
:1049700028491E485DF0F4FE1C48FBF7BBFC0346CB
:104980009CB21A48FBF7B6FC034622461749184862
:104990003AF01CFF124B1B6818463EF0B9FFBFE00F
:1049A0000F4B1B6841F2883118463EF066FF0D4AF6
:1049B00019490E485DF0D4FE0C48FBF79BFC0346FA
:1049C0009CB20A48FBF796FC034622460749084872
:1049D0003AF0FCFE024B1B6818463EF099FF9FE040
:1049E00054D10024E8BC060878620608A8D1002447
:1049F0009C64002494620608B0620608C862060837
:104A0000E4620608FC6206081463060828630608C8
:104A1000406306085C63060870630608AF4B1B68BA
:104A200041F2883118463EF028FFAD4AAD49AE4804
:104A30005DF096FEAC48FBF75DFC03469CB2AA48CD
:104A4000FBF758FC03462246A749A8483AF0BEFEA9
:104A5000A24B1B6818463EF05BFF61E09F4B1B6852
:104A600041F2883118463EF008FF9D4AA0499E4811
:104A70005DF076FE9C48FBF73DFC03469CB29A48ED
:104A8000FBF738FC03462246974998483AF09EFEC9
:104A9000924B1B6818463EF03BFF41E08F4B1B6872
:104AA00041F2883118463EF0E8FE8D4A91498E4821
:104AB0005DF056FE8C48FBF71DFC03469CB28A480D
:104AC000FBF718FC03462246874988483AF07EFEE9
:104AD000824B1B6818463EF01BFF21E07F4B1B6892
:104AE00041F2883118463EF0C8FE834BDB797C4AA0
:104AF00082497D485DF034FE7B48FBF7FBFB0346B3
:104B00009CB27948FBF7F6FB034622467649774884
:104B10003AF05CFE714B1B6818463EF0F9FE00BF90
:104B20006E4B1B6841F2883118463EF0A6FE724B70
:104B30001B7A6B4A72496C485DF012FE6A48FBF7BB
:104B4000D9FB03469CB26848FBF7D4FB03462246D8
:104B5000654966483AF03AFE604B1B6818463EF0DD
:104B6000D7FE654BDB79022B40F05881624B1B7AF4
:104B7000072B00F2318101A252F823F09D4B00086F
:104B8000DD4B00081D4C00085D4C00089D4C0008E2
:104B9000194D0008594D0008994D00084F4B1B68EE
:104BA00041F2883118463EF068FE4D4A55494E485C
:104BB0005DF0D6FD4C48FBF79DFB03469CB24A488E
:104BC000FBF798FB03462246474948483AF0FEFD6A
:104BD000424B1B6818463EF09BFE1FE13F4B1B6893
:104BE00041F2883118463EF048FE3D4A46493E486B
:104BF0005DF0B6FD3C48FBF77DFB03469CB23A48AE
:104C0000FBF778FB03462246374938483AF0DEFD89
:104C1000324B1B6818463EF07BFEFFE02F4B1B68B3
:104C200041F2883118463EF028FE2D4A37492E4879
:104C30005DF096FD2C48FBF75DFB03469CB22A48CD
:104C4000FBF758FB03462246274928483AF0BEFDA9
:104C5000224B1B6818463EF05BFEDFE01F4B1B68D3
:104C600041F2883118463EF008FE1D4A28491E4888
:104C70005DF076FD1C48FBF73DFB03469CB21A48ED
:104C8000FBF738FB03462246174918483AF09EFDC9
:104C9000124B1B6818463EF03BFEBFE00F4B1B68F3
:104CA00041F2883118463EF0E8FD0D4A19490E4898
:104CB0005DF056FD0C48FBF71DFB03469CB20A480D
:104CC000FBF718FB03462246074908483AF07EFDE9
:104CD000024B1B6818463EF01BFE9FE054D1002497
:104CE000E8BC06088C630608A8D100249C64002454
:104CF000A8630608BC63060894F40024DC63060875
:104D000018640608446406086C640608946406087F
:104D1000B0640608D0640608774B1B6841F28831FE
:104D200018463EF0AAFD754A754976485DF018FDB3
:104D30007448FBF7DFFA03469CB27248FBF7DAFAD5
:104D4000034622466F4970483AF040FD6A4B1B68A3
:104D500018463EF0DDFD61E0674B1B6841F288318B
:104D600018463EF08AFD654A684966485DF0F8FCE1
:104D70006448FBF7BFFA03469CB26248FBF7BAFAF5
:104D8000034622465F4960483AF020FD5A4B1B68B3
:104D900018463EF0BDFD41E0574B1B6841F288319B
:104DA00018463EF06AFD554A594956485DF0D8FC10
:104DB0005448FBF79FFA03469CB25248FBF79AFA15
:104DC000034622464F4950483AF000FD4A4B1B68C3
:104DD00018463EF09DFD21E0474B1B6841F28831AB
:104DE00018463EF04AFD4B4B1B7A444A4A49454817
:104DF0005DF0B6FC4348FBF77DFA03469CB24148A0
:104E0000FBF778FA034622463E493F483AF0DEFC7B
:104E1000394B1B6818463EF07BFD00BF364B1B68C4
:104E200041F2883118463EF028FD3A4B5B7A334A0E
:104E30003A4934485DF094FC3248FBF75BFA03468C
:104E40009CB23048FBF756FA034622462D492E48BD
:104E50003AF0BCFC284B1B6818463EF059FD2D4B20
:104E60005B7B7B602B4A7B68063313441B791B02F8
:104E700028497A6807320A44127913441B022549EB
:104E80007A6808320A44127913441B0221497A686D
:104E900009320A44127913443B60174B1B6841F2F4
:104EA000883118463EF0E9FC3B68144A1C49154815
:104EB0005DF056FC1348FBF71DFA03469CB21148FF
:104EC000FBF718FA034622460E490F483AF07EFCDB
:104ED000094B1B6818463EF01BFD802002F06EFD5A
:104EE00002F0AEFD02F002FD02F048FE02F0CAFC44
:104EF00000BF0C37BD4690BD54D10024E8BC060865
:104F0000E8640608A8D100249C640024086506080B
:104F10001C65060894F400243065060870650608D0
:104F20009C65060890B589B002AFBA4B1B6841F288
:104F3000883118463EF0A1FCB74B1B79B74AB849F7
:104F4000B8485DF00DFCB748FBF7D4F903469CB2B6
:104F5000B448FBF7CFF903462246B249B2483AF0CB
:104F600035FCAC4B1B6818463EF0D2FCAA4B1B79B3
:104F7000402B00F38B80002BC0F2C082402B00F24C
:104F8000BD8201A252F823F095500008D5500008C8
:104F900015510008055300085551000845530008F5
:104FA000FD540008FD54000895510008FD54000808
:104FB000FD540008FD540008FD540008FD5400088D
:104FC000FD540008FD540008D55100088553000821
:104FD000C553000805540008FD5400084554000856
:104FE00085540008FD540008FD540008FD540008D5
:104FF000FD540008FD540008FD540008FD5400084D
:10500000FD540008FD54000845520008FD540008F6
:10501000FD540008FD540008FD540008FD5400082C
:10502000FD540008FD540008FD540008FD5400081C
:10503000FD540008FD540008FD540008FD5400080C
:10504000FD540008FD540008FD540008FD540008FC
:10505000FD540008FD540008FD540008FD540008EC
:10506000FD540008FD540008FD540008FD540008DC
:10507000FD540008FD540008FD540008FD540008CC
:10508000FD540008FD54000885520008802B00F0F4
:10509000198133E25F4B1B6841F2883118463EF0BC
:1050A000ECFB5E4A61495F485DF05AFB5D48FBF7E7
:1050B00021F903469CB25B48FBF71CF903462246E4
:1050C000584959483AF082FB524B1B6818463EF04B
:1050D0001FFC35E24F4B1B6841F2883118463EF009
:1050E000CCFB4E4A52494F485DF03AFB4D48FBF726
:1050F00001F903469CB24B48FBF7FCF803462246F5
:10510000484949483AF062FB424B1B6818463EF05A
:10511000FFFB15E23F4B1B6841F2883118463EF019
:10512000ACFB3E4A43493F485DF01AFB3D48FBF764
:10513000E1F803469CB23B48FBF7DCF80346224605
:10514000384939483AF042FB324B1B6818463EF06A
:10515000DFFBF5E12F4B1B6841F2883118463EF02A
:105160008CFB2E4A34492F485DF0FAFA2D48FBF7A4
:10517000C1F803469CB22B48FBF7BCF80346224615
:10518000284929483AF022FB224B1B6818463EF07A
:10519000BFFBD5E11F4B1B6841F2883118463EF03A
:1051A0006CFB1E4A25491F485DF0DAFA1D48FBF7E3
:1051B000A1F803469CB21B48FBF79CF80346224625
:1051C000184919483AF002FB124B1B6818463EF08A
:1051D0009FFBB5E10F4B1B6841F2883118463EF04A
:1051E0004CFB0E4A16490F485DF0BAFA0D48FBF722
:1051F00081F803469CB20B48FBF77CF80346224635
:10520000084909483AF0E2FA024B1B6818463EF09A
:105210007FFB95E154D1002494F400240CBD0608D2
:10522000C8650608A8D100249C640024F06506081F
:105230001C6606084466060874660608A466060826
:10524000D46606089F4B1B6841F2883118463EF031
:1052500014FB9D4A9D499E485DF082FA9C48FBF7ED
:1052600049F803469CB29A48FBF744F803462246A5
:10527000974998483AF0AAFA924B1B6818463EF0B4
:1052800047FB5DE18F4B1B6841F2883118463EF0C9
:10529000F4FA8D4A90498E485DF062FA8C48FBF72B
:1052A00029F803469CB28A48FBF724F803462246B5
:1052B000874988483AF08AFA824B1B6818463EF0C4
:1052C00027FB3DE17F4B1B6841F2883118463EF0D9
:1052D000D4FA7D4A81497E485DF042FA7C48FBF76A
:1052E00009F803469CB27A48FBF704F803462246C5
:1052F000774978483AF06AFA724B1B6818463EF0D4
:1053000007FB1DE16F4B1B6841F2883118463EF0E8
:10531000B4FA6D4A72496E485DF022FA6C48FAF7A9
:10532000E9FF03469CB26A48FAF7E4FF03462246C7
:10533000674968483AF04AFA624B1B6818463EF0E3
:10534000E7FAFDE05F4B1B6841F2883118463EF0FA
:1053500094FA5D4A63495E485DF002FA5C48FAF7E8
:10536000C9FF03469CB25A48FAF7C4FF03462246D7
:10537000574958483AF02AFA524B1B6818463EF0F3
:10538000C7FADDE04F4B1B6841F2883118463EF00A
:1053900074FA4D4A54494E485DF0E2F94C48FAF728
:1053A000A9FF03469CB24A48FAF7A4FF03462246E7
:1053B000474948483AF00AFA424B1B6818463EF003
:1053C000A7FABDE03F4B1B6841F2883118463EF01A
:1053D00054FA3D4A45493E485DF0C2F93C48FAF767
:1053E00089FF03469CB23A48FAF784FF03462246F7
:1053F000374938483AF0EAF9324B1B6818463EF014
:1054000087FA9DE02F4B1B6841F2883118463EF029
:1054100034FA2D4A36492E485DF0A2F92C48FAF7A5
:1054200069FF03469CB22A48FAF764FF0346224606
:10543000274928483AF0CAF9224B1B6818463EF023
:1054400067FA7DE01F4B1B6841F2883118463EF039
:1054500014FA1D4A27491E485DF082F91C48FAF7E4
:1054600049FF03469CB21A48FAF744FF0346224616
:10547000174918483AF0AAF9124B1B6818463EF033
:1054800047FA5DE00F4B1B6841F2883118463EF049
:10549000F4F90D4A18490E485DF062F90C48FAF724
:1054A00029FF03469CB20A48FAF724FF0346224626
:1054B000074908483AF08AF9024B1B6818463EF043
:1054C00027FA3DE054D100240CBD06080C670608FD
:1054D000A8D100249C640024386706086467060885
:1054E00098670608C8670608F8670608346806085B
:1054F0006C680608A4680608D86806083A4B1B685A
:1055000041F2883118463EF0B8F9384B1B79384AD9
:10551000384939485DF024F93748FAF7EBFE03467D
:105520009CB23548FAF7E6FE034622463249334834
:105530003AF04CF92C4B1B6818463EF0E9F900BFD5
:105540002A4B1B79012B40F09E80274B1B6841F2B0
:10555000883118463EF091F9244B5B79244A28495A
:1055600025485DF0FDF82448FAF7C4FE03469CB2D6
:105570002148FAF7BFFE034622461F491F483AF06A
:1055800025F9194B1B6818463EF0C2F90023FB753C
:1055900000233B6174E0144B1B6841F288311846CC
:1055A0003EF06BF9114A3B69023313441B790093B7
:1055B0003B690F4A134910485DF0D2F80E48FAF7DC
:1055C00099FE03469CB20C48FAF794FE0346224625
:1055D00009490A483AF0FAF8034B1B6818463EF0AE
:1055E00097F90023FB6045E054D1002494F4002493
:1055F0000CBD060808690608A8D100249C64002494
:105600004C6906086C690608FB7D0133FB75B44ADA
:105610003B69023313441B791A46FB6842FA03F3D1
:1056200003F00103002B22D0AE4B1B6841F28831FE
:1056300018463EF022F9FA7DFB7D00931346AA4AF4
:10564000AA49AB485DF08CF8A948FAF753FE034627
:105650009CB2A748FAF74EFE03462246A449A54845
:105660003AF0B4F89F4B1B6818463EF051F9FB68BE
:105670000133FB60FB68072BC6DD3B6901333B61EF
:105680003B69102B87DD964B1B79052B27D1944B5B
:105690005B791B029BB2924A927913447B81914BB6
:1056A0001B6841F2883118463EF0E7F87B898E4A44
:1056B00091498F485DF054F88D48FAF71BFE034678
:1056C0009CB28B48FAF716FE034622468849894861
:1056D0003AF07CF8834B1B6818463EF019F9804B72
:1056E0001B79102B22D17E4B5B797B727D4B1B6823
:1056F00041F2883118463EF0C0F87B7A7A4A7F49F9
:105700007B485DF02DF87A48FAF7F4FD03469CB229
:105710007748FAF7EFFD03462246754975483AF097
:1057200055F8704B1B6818463EF0F2F86C4B1B792D
:10573000112B22D16A4B5B793B726A4B1B6841F299
:10574000883118463EF099F83B7A674A6C496848B8
:105750005DF006F86648FAF7CDFD03469CB2644852
:10576000FAF7C8FD03462246614962483AF02EF82E
:105770005C4B1B6818463EF0CBF8594B1B79132B3A
:105780004FD1574B5B791B029BB2554A9279134418
:10579000FB80534BDB791B029BB2514A127A1344B4
:1057A000BB80504B1B6841F2883118463EF065F8CB
:1057B000FB884D4A53494E485CF0D2FF4C48FAF7FB
:1057C00099FD03469CB24A48FAF794FD03462246E7
:1057D0004749484839F0FAFF424B1B6818463EF0EB
:1057E00097F8404B1B6841F2883118463EF045F867
:1057F000BB883D4A44493E485CF0B2FF3C48FAF75A
:1058000079FD03469CB23A48FAF774FD03462246F6
:105810003749384839F0DAFF324B1B6818463EF0FA
:1058200077F82F4B1B79202B40F07F822C4B5B7934
:10583000FB70FB78FF2B00F03682FF2B00F35482C5
:10584000212B63DC002BC0F24F82212B00F24C8213
:1058500001A252F823F000BF15590008575900085B
:1058600099590008DB590008E95C0008A15A0008B2
:10587000E35A0008255B0008675B00081D5A000812
:10588000E95C00085F5A0008E95C0008E95C000870
:10589000E95C0008E95C0008E95C0008E95C0008D4
:1058A000E95C0008E95C0008E95C0008E95C0008C4
:1058B000E95C0008E95C0008E95C0008E95C0008B4
:1058C000E95C0008E95C0008E95C0008E95C0008A4
:1058D000E95C0008E95C0008E15B0008235C000863
:1058E00094F4002454D100240CBD060894690608E1
:1058F000A8D100249C640024C8690608E46906084D
:10590000086A0608306A06085C6A0608FE2B00F082
:10591000A981E9E1A44B1B6841F2883118463DF0AA
:10592000ACFFFB78A14AA249A2485CF019FFA1484C
:10593000FAF7E0FC03469CB29E48FAF7DBFC03460C
:1059400022469C499C4839F041FF974B1B681846FA
:105950003DF0DEFFE9E1944B1B6841F288311846C7
:105960003DF08BFFFB78914A944992485CF0F8FE39
:105970009048FAF7BFFC03469CB28E48FAF7BAFC8F
:10598000034622468B498C4839F020FF864B1B6822
:1059900018463DF0BDFFC8E1834B1B6841F28831DA
:1059A00018463DF06AFFFB78804A854981485CF0E3
:1059B000D7FE8048FAF79EFC03469CB27D48FAF772
:1059C00099FC034622467B497B4839F0FFFE764B23
:1059D0001B6818463DF09CFFA7E1734B1B6841F222
:1059E000883118463DF049FFFB78704A7549714887
:1059F0005CF0B6FE6F48FAF77DFC03469CB26D483A
:105A0000FAF778FC034622466A496B4839F0DEFE15
:105A1000654B1B6818463DF07BFF86E1624B1B68B7
:105A200041F2883118463DF028FFFB785F4A66490D
:105A300060485CF095FE5F48FAF75CFC03469CB258
:105A40005C48FAF757FC034622465A495A4839F04F
:105A5000BDFE554B1B6818463DF05AFF65E1524BA1
:105A60001B6841F2883118463DF007FFFB784F4A2A
:105A7000564950485CF074FE4E48FAF73BFC03462A
:105A80009CB24C48FAF736FC0346224649494A483C
:105A900039F09CFE444B1B6818463DF039FF44E149
:105AA000414B1B6841F2883118463DF0E6FEFB7819
:105AB0003E4A47493F485CF053FE3E48FAF71AFC1D
:105AC00003469CB23B48FAF715FC03462246394987
:105AD000394839F07BFE344B1B6818463DF018FFFF
