:020000040800F2
:1000000000000824995E01084D5B0108555B01085A
:100010005D5B0108655B01086D5B01080000000085
:10002000000000000000000000000000C1FD040806
:10003000755B0108000000001100050831EE04089E
:10004000ED5E0108ED5E0108ED5E0108ED5E010860
:10005000ED5E0108ED5E0108ED5E0108ED5E010850
:10006000835B0108ED5E0108ED5E0108ED5E0108AD
:10007000ED5E0108ED5E0108ED5E0108ED5E010830
:10008000ED5E0108ED5E0108ED5E0108ED5E010820
:10009000ED5E0108ED5E0108ED5E0108ED5E010810
:1000A000ED5E0108ED5E0108ED5E0108ED5E010800
:1000B000ED5E0108ED5E0108ED5E0108ED5E0108F0
:1000C000ED5E0108ED5E0108ED5E0108ED5E0108E0
:1000D000ED5E0108915B0108A55B0108ED5E01087A
:1000E000ED5E0108ED5E010800000000ED5E010814
:1000F000ED5E0108ED5E0108ED5E0108ED5E0108B0
:10010000ED5E0108ED5E0108ED5E0108ED5E01089F
:10011000ED5E0108ED5E0108B95B0108ED5E0108C6
:10012000ED5E0108ED5E0108ED5E0108ED5E01087F
:10013000ED5E0108ED5E0108ED5E0108ED5E01086F
:10014000ED5E0108ED5E0108000000000000000007
:10015000ED5E0108ED5E0108ED5E0108ED5E01084F
:10016000ED5E0108ED5E0108ED5E0108ED5E01083F
:10017000ED5E0108ED5E0108ED5E01080000000083
:10018000ED5E0108ED5E0108ED5E0108ED5E01081F
:10019000ED5E0108ED5E0108ED5E0108ED5E01080F
:1001A000CD5B0108ED5E0108E15B0108ED5E010831
:1001B000F55B0108ED5E0108ED5E0108ED5E0108EA
:1001C000ED5E0108ED5E0108ED5E0108ED5E0108DF
:1001D000ED5E0108ED5E0108ED5E0108ED5E0108CF
:1001E000ED5E0108ED5E0108ED5E0108ED5E0108BF
:1001F000ED5E0108ED5E0108ED5E0108ED5E0108AF
:10020000ED5E0108ED5E0108ED5E0108ED5E01089E
:10021000ED5E0108ED5E0108ED5E0108ED5E01088E
:10022000ED5E0108095C01081D5C0108000000008A
:10023000ED5E0108ED5E0108ED5E0108ED5E01086E
:10024000ED5E0108ED5E0108ED5E0108ED5E01085E
:10025000ED5E0108ED5E0108ED5E0108ED5E01084E
:10026000ED5E0108ED5E0108ED5E0108ED5E01083E
:10027000ED5E0108ED5E0108ED5E0108ED5E01082E
:10028000ED5E0108ED5E0108ED5E01080000000072
:08029000ED5E0108ED5E0108BE
:1002A00010B5054C237833B9044B13B10448AFF3B0
:1002B00000800123237010BD005F002400000000B7
:1002C000C006070808B5034B1BB103490348AFF349
:1002D000008008BD00000000045F0024C00607087D
:1002E00010F8012B11F8013B012A28BF9A42F7D0E0
:1002F000D01A7047034613F8012B002AFBD1181AB5
:1003000001387047000000000000000000000000FD
:1003100001F0FF01102A2BDB10F0070F08D010F8B6
:10032000013B013A8B422DD010F0070F42B3F6D1BA
:10033000F0B441EA012141EA014122F007047FF0D3
:1003400000070023F0E80256083C85EA010586EA2A
:10035000010685FA47F5A3FA87F586FA47F6A5FA66
:1003600087F68EB9EED1F0BC01F0FF0102F0070272
:1003700032B110F8013B013A83EA010313B1F8D11D
:100380000020704701387047002D06BF35460338FE
:10039000073815F0010F07D1013015F4807F02BF37
:1003A000013015F4C03F0130F0BC0138704700BF88
:1003B00081F0004102E000BF83F0004330B54FEA16
:1003C00041044FEA430594EA050F08BF90EA020F83
:1003D0001FBF54EA000C55EA020C7FEA645C7FEA16
:1003E000655C00F0E2804FEA5454D4EB5555B8BF39
:1003F0006D420CDD2C4480EA020281EA030382EAAA
:10040000000083EA010180EA020281EA0303362D3B
:1004100088BF30BD11F0004F4FEA01314FF4801C0E
:100420004CEA113102D0404261EB410113F0004F20
:100430004FEA03334CEA133302D0524263EB4303D7
:1004400094EA050F00F0A780A4F10104D5F1200E75
:100450000DDB02FA0EFC22FA05F2801841F10001D0
:1004600003FA0EF2801843FA05F359410EE0A5F1A4
:1004700020050EF1200E012A03FA0EFC28BF4CF0D5
:10048000020C43FA05F3C01851EBE37101F000458B
:1004900007D54FF0000EDCF1000C7EEB00006EEB98
:1004A0000101B1F5801F1BD3B1F5001F0CD3490822
:1004B0005FEA30004FEA3C0C04F101044FEA445279
:1004C00012F5800F80F09A80BCF1004F08BF5FEA00
:1004D000500C50F1000041EB045141EA050130BDE0
:1004E0005FEA4C0C404141EB0101013C28BFB1F5F2
:1004F000801FE9D291F0000F04BF01460020B1FA3D
:1005000081F308BF2033A3F10B03B3F120020CDA0F
:100510000C3208DD02F1140CC2F10C0201FA0CF0ED
:1005200021FA02F10CE002F11402D8BFC2F1200C52
:1005300001FA02F120FA0CFCDCBF41EA0C01904008
:10054000E41AA2BF01EB0451294330BD6FEA040451
:100550001F3C1CDA0C340EDC04F11404C4F120023C
:1005600020FA04F001FA02F340EA030021FA04F34E
:1005700045EA030130BDC4F10C04C4F1200220FAA5
:1005800002F001FA04F340EA0300294630BD21FAE3
:1005900004F0294630BD94F0000F83F4801306BFA9
:1005A00081F480110134013D4EE77FEA645C18BF9D
:1005B0007FEA655C29D094EA050F08BF90EA020F34
:1005C00005D054EA000C04BF1946104630BD91EA2C
:1005D000030F1EBF0021002030BD5FEA545C05D12F
:1005E0004000494128BF41F0004130BD14F580046E
:1005F0003CBF01F5801130BD01F0004545F0FE41E2
:1006000041F470014FF0000030BD7FEA645C1ABF16
:10061000194610467FEA655C1CBF0B46024650EA4D
:10062000013406BF52EA033591EA030F41F4002179
:1006300030BD00BF90F0000F04BF0021704730B5FF
:100640004FF4806404F132044FF000054FF00001D4
:1006500050E700BF90F0000F04BF0021704730B595
:100660004FF4806404F1320410F0004548BF40426A
:100670004FF000013EE700BF42004FEAE2014FEABF
:1006800031014FEA02701FBF12F07F4393F07F4F9A
:1006900081F06051704732F07F4208BF704793F09D
:1006A0007F4F04BF41F40021704730B54FF46074B0
:1006B00001F0004521F000411CE700BF50EA0102B3
:1006C00008BF704730B54FF000050AE050EA01025C
:1006D00008BF704730B511F0004502D5404261EBCC
:1006E00041014FF4806404F132045FEA915C3FF40D
:1006F000D8AE4FF003025FEADC0C18BF03325FEAAA
:10070000DC0C18BF033202EBDC02C2F1200300FA5A
:1007100003FC20FA02F001FA03FE40EA0E0021FA7F
:1007200002F11444BDE600BF7BB972B90029BEBF17
:1007300000204FF0004106E008BF00281CBF6FF00A
:1007400000414FF0FF3000F0D3B9ADF1080C6DE976
:1007500004CE002909DB002B1ADB00F04DF8DDF890
:1007600004E0DDE9022304B07047404261EB41013F
:10077000002B1BDB00F040F8DDF804E0DDE902238C
:1007800004B0404261EB4101524263EB43037047C6
:10079000524263EB430300F02FF8DDF804E0DDE99B
:1007A000022304B0404261EB41017047524263EBC7
:1007B000430300F021F8DDF804E0DDE9022304B092
:1007C000524263EB4303704753B94AB9002908BF4B
:1007D00000281CBF4FF0FF314FF0FF3000F088B908
:1007E000ADF1080C6DE904CE00F006F8DDF804E088
:1007F000DDE9022304B070472DE9F047089D8E46DD
:1008000004468846002B4AD18A42174662D9B2FA7A
:1008100082F64EB1C6F1200301FA06F820FA03F37E
:10082000B74043EA0808B4404FEA174E1FFA87FC66
:10083000B8FBFEF1230C0EFB118843EA084301FBD1
:100840000CF29A4209D9FB1801F1FF3080F0EA80DE
:100850009A4240F2E78002393B449A1AA3B2B2FBB3
:10086000FEF00EFB102243EA024300FB0CFC9C4509
:1008700009D9FB1800F1FF3280F0D6809C4540F288
:10088000D3803B44023840EA0140A3EB0C03002133
:100890001DB1F3400022C5E90032BDE8F0878B426C
:1008A00005D90DB1C5E9000100210846F5E7B3FA05
:1008B00083F1002946D1734502D3824200F20581BB
:1008C000841A6EEB030201209046002DE5D0C5E9A5
:1008D0000048E2E7002A00F09080B2FA82F6002E8B
:1008E00040F0A4808A1A030C4FEA174E80B2BCB2C3
:1008F0000121B2FBFEFC0EFB1C2243EA024304FB77
:100900000CF29A4207D9FB180CF1FF3802D29A4236
:1009100000F2E080C4469B1AB3FBFEF20EFB1233DA
:1009200040EA034302FB04F49C4207D9FB1802F19E
:10093000FF3002D29C4200F2CA8002461B1B42EAF0
:100940000C40A5E7C1F120068B4022FA06F71F43B1
:100950000EFA01F420FA06F32EFA06FE4FEA1749C2
:10096000234300FA01F81FFA87FCBEFBF9F01C0CC8
:1009700009FB10EE44EA0E4400FB0CFEA64502FA09
:1009800001F209D93C1900F1FF3A80F09C80A6459C
:1009900040F2998002383C44A4EB0E041FFA83FE17
:1009A000B4FBF9F309FB13444EEA044403FB0CFCCB
:1009B000A44508D93C1903F1FF3E80F08280A4458C
:1009C0007FD9023B3C4443EA0040A4EB0C04A0FB6B
:1009D00002EC64457346E14662D35FD05DB1B8EB8B
:1009E000030264EB090404FA06F622FA01F31E433B
:1009F000CC40C5E9006400214FE7B1FBF2FC010CDB
:100A000041EA0E4180B240EA01423B4638463C464C
:100A1000B846BE462026B1FBF7F1A2EB080241EA38
:100A20000C4166E7014618E710462CE7C6F12002A4
:100A30002EFA02F3B740B14020FA02F24FEA174E05
:100A40000A43B3FBFEF8BCB20EFB1833110C41EAAB
:100A5000034108FB04F9B04089454FEA104380B2D6
:100A60003ED9791808F1FF3C01D289451FD8A1EB86
:100A70000901B1FBFEF909FB04F80EFB191192B252
:100A800042EA0142424529D2BA1809F1FF31C4D2E3
:100A90004245C2D2A9F102013A44BEE7F0459DD2D7
:100AA000BEEB02036CEB070C0138E14696E7A7EBBF
:100AB00009094944A8F1020CB1FBFEF909FB04F84D
:100AC000DBE773467FE7504666E70846FDE63B44B2
:100AD000023A33E7ACF1020C3B441CE749469CE781
:100AE000A1EB0901C446B1FBFEF909FB04F8C4E718
:100AF000704700BF80B584B000AF14F001F8774BA9
:100B00005B6903F40033002B1BD1BFF34F8F00BF91
:100B1000BFF36F8F00BF714B0022C3F85022BFF3A9
:100B20004F8F00BFBFF36F8F00BF6C4B5B696B4A89
:100B300043F400335361BFF34F8F00BFBFF36F8F98
:100B400000E000BF654B5B6903F48033002B38D1B4
:100B5000624B0022C3F88420BFF34F8F00BF5F4B6E
:100B6000D3F88030FB60FB685B0BC3F30E03BB6004
:100B7000FB68DB08C3F309037B60BB685A0143F6DB
:100B8000E07313407A68920754491343C1F8603206
:100B90007B685A1E7A60002BEFD1BB685A1EBA6080
:100BA000002BE5D1BFF34F8F00BF4C4B5B694B4A25
:100BB00043F480335361BFF34F8F00BFBFF36F8F98
:100BC00000E000BF3BF0EAFE00F0C8F800F004FCD3
:100BD00000F08CFB00F0AAFB00F0DCF900F046F915
:100BE00000F066F900F0C2F900F058FA00F07EF962
:100BF00000F0E4FA00F096FA15F0E4F800F0BAFA22
:100C000000F028FB00F078FA15F078F915F06FF98C
:100C10004EF028F932484EF01CFA0346314A136070
:100C2000314A022140204EF041FC03462F4A136016
:100C30002F4A022140204EF039FC03462D4A136012
:100C40002D4A01214FF400604EF030FC03462B4A40
:100C500013602B4A01214FF480704EF027FC0346AD
:100C6000284A1360284A002128484EF045F90346D7
:100C7000274A1360274A002127484EF03DF90346D2
:100C8000264A1360264A002126484EF035F90346CD
:100C9000254A1360254A002125484EF02DF90346C8
:100CA000244A1360244A002124484EF025F90346C3
:100CB000234A1360234A002123484EF01DF90346BE
:100CC000224A1360224A002122484EF015F90346B9
:100CD000214A13604EF0EAF800BFFDE700ED00E0A6
:100CE00034C2070888D50024D4C1070838CA0024B4
:100CF000ECC107080CCB002404C20708E0CB002499
:100D00001CC2070834D40024D8C00708992F010852
:100D10002C660024FCC007080D5F0108D87600246B
:100D200020C10708B5370108DC76002444C1070854
:100D3000193801088887002468C107089538010818
:100D4000349800248CC10708F9380108E0A8002471
:100D5000B0C107085D3901088CB9002480B59CB08A
:100D600000AF07F124034C22002118466DF059FA18
:100D70003B1D2022002118466DF053FA042043F059
:100D8000E9F800233B60374BDB6A364A23F0010366
:100D9000D362344BDB6A03F001033B60324B9B6947
:100DA000314A43F4404393612F4B9B6903F4404322
:100DB0003B603B6800BF2C4B9B6903F40053B3F5C9
:100DC000005FF8D12B237B624FF48033BB62012399
:100DD0003B6340237B630123BB630123FB6302234B
:100DE000BB640223FB6405233B65A0237B650223D0
:100DF000BB650423FB6502233B6608237B66002357
:100E0000BB660023FB6607F12403184644F086FB0B
:100E10000346002B01D013F0BDFE3F237B6003236C
:100E2000BB600023FB6008233B6140237B614023C0
:100E3000BB614FF48063FB6140233B623B1D022199
:100E4000184645F01BF90346002B01D013F0A2FE13
:100E50004FF480220021002045F080FC00BF703755
:100E6000BD4680BD000400580048025880B500AF60
:100E70000D4B0E4A1A600C4B00221A710A4B0022CD
:100E80005A71094B00225A61074B00229A61064BA6
:100E900001221A6204483CF007F90346002B01D0F6
:100EA00013F078FE00BF80BD1C5F0024004C025888
:100EB00080B500AF0B4B0C4A1A600A4B4FF440321E
:100EC0005A60084B02229A60064B0022DA600548FD
:100ED0003CF0A6FF0346002B01D013F05BFE00BFE1
:100EE00080BD00BF405F00240010005280B500AFFD
:100EF0001B4B1C4A1A601A4B1B4A5A60184B0022A3
:100F00009A60174B0122DA60154B00221A61144BCC
:100F100000225A61124B00229A61114B0022DA61C1
:100F20000F4B00221A620E483DF0ECFD0346002BE9
:100F300001D013F02FFE002109483EF067FC034664
:100F4000002B01D013F026FE002105483EF0D4FC12
:100F50000346002B01D013F01DFE00BF80BD00BF73
:100F6000A85F0024001C0058B634900080B500AF84
:100F7000064B074A1A6005483EF032FD0346002B37
:100F800001D013F007FE00BF80BD00BFFC5F00244E
:100F90000030005280B58EB000AF13F037FE3B1D1D
:100FA0003422002118466DF03CF93A4B3A4A1A6057
:100FB000384B00225A60374B00229A60354B002292
:100FC000DA60344B00221A61324B28225A61314BCD
:100FD00009229A612F4B3522DA612E4B0B221A62BD
:100FE0002C4B40F215225A622A4B40F21B129A6295
:100FF000284B40F23522DA62264B40F21D121A636A
:10100000244B002283F83420224B002283F8352021
:10101000204B002283F836201E4840F039FD03465D
:10102000002B01D013F0B6FD00237B604FF4F0736A
:10103000BB600023FB604FF488733B6102237B613C
:10104000FF23BB610023FB614FF480633B620523F8
:101050007B624FF05043BB624FF4F073FB624FF47E
:1010600088733B63002387F83430002387F83530DA
:10107000002387F836303B1D00221946054840F012
:10108000E5FE0346002B01D013F084FD00BF383786
:10109000BD4680BD2C6100240010005080B500AF1B
:1010A000124B134A1A60114B01225A600F4B012256
:1010B0009A600E4B1022DA600C4B1A221A610B4B0D
:1010C0004FF400725A61094B00229A61074B40228B
:1010D0001A62064842F0BAFF0346002B01D013F013
:1010E00059FD044813F006FE00BF80BDD461002402
:1010F00000500052954B010880B500AF074B084ADD
:101100001A60064B00225A60044848F033FF034639
:10111000002B01D013F03EFD00BF80BD20620024F3
:101120000018024880B500AF104B114A1A600F4BEF
:1011300000225A600D4B7F229A600C4BFF22DA602E
:101140000A4B00221A61094B00229A61074B0022C8
:10115000DA61064B00225A61044848F0DDFF03467D
:10116000002B01D013F016FD00BF80BD34620024B7
:101170000040005880B500AF0E4B0F4A1A600D4B6F
:1011800000225A600B4B00229A600A4B4FF4004237
:10119000DA60084B00221A61064B00225A610548AA
:1011A00041F040FF0346002B01D013F0F3FC00BFD9
:1011B00080BD00BF586200240070005280B500AFAF
:1011C000224B234A1A60214B4FF4E1325A601F4BE5
:1011D00000229A601D4B0022DA601C4B00221A612B
:1011E0001A4B0C225A61194B00229A61174B0022AC
:1011F000DA61164B00221A62144B00225A62134B1A
:1012000000229A62114849F085FE0346002B01D066
:1012100013F0C0FC00210D484CF068FC0346002B85
:1012200001D013F0B7FC002108484CF0F9FC03464C
:10123000002B01D013F0AEFC04484CF0DDFB03465C
:10124000002B01D013F0A6FC00BF80BDD0640024A9
:101250000010014080B500AF224B234A1A60214B99
:101260004FF4E1325A601F4B00229A601D4B00225E
:10127000DA601C4B00221A611A4B0C225A61194B7E
:1012800000229A61174B0022DA61164B00221A6283
:10129000144B00225A62134B00229A62114849F003
:1012A00039FE0346002B01D013F074FC00210D48D9
:1012B0004CF01CFC0346002B01D013F06BFC00210A
:1012C00008484CF0ADFC0346002B01D013F062FC43
:1012D00004484CF091FB0346002B01D013F05AFC5C
:1012E00000BF80BD646500240044004080B582B02A
:1012F00000AF0D4BD3F8D4300B4A43F00103C2F8D2
:10130000D430094BD3F8D43003F001037B607B6801
:10131000002205217A203BF0BFFC7A203BF0E6FC5E
:1013200000BF0837BD4680BD0044025880B588B074
:1013300000AF3B1D00221A605A609A60DA601A61A1
:101340005A619A61214B224A1A60204B01225A604D
:101350001E4B00229A601D4B0422DA601B4B1022A8
:101360001A611A4B40225A61184B4FF480729A61ED
:10137000164B0022DA61154B4FF400621A62134BD0
:101380004FF480525A62114B00229A6202237B6012
:101390000623BB600423FB6006233B6102237B61C1
:1013A0000223BB610223FB613B1D1946074849F03C
:1013B00015F90346002B01D013F0ECFB054813F0A0
:1013C000BAFC00BF2037BD4680BD00BFF8650024D1
:1013D00040410052954B010880B590B000AF07F135
:1013E0002C0300221A605A609A60DA601A61A04BDE
:1013F000D3F8E0309E4A43F48063C2F8E0309C4B5F
:10140000D3F8E03003F48063BB62BB6A984BD3F837
:10141000E030974A43F04003C2F8E030944BD3F8F1
:10142000E03003F040037B627B6A914BD3F8E030FD
:101430008F4A43F00803C2F8E0308D4BD3F8E03018
:1014400003F008033B623B6A894BD3F8E030884ADB
:1014500043F00403C2F8E030854BD3F8E03003F0EA
:101460000403FB61FB69824BD3F8E030804A43F40C
:101470008073C2F8E0307E4BD3F8E03003F4807321
:10148000BB61BB697A4BD3F8E030794A43F0100373
:10149000C2F8E030764BD3F8E03003F010037B6104
:1014A0007B69734BD3F8E030714A43F00203C2F812
:1014B000E0306F4BD3F8E03003F002033B613B694F
:1014C0006B4BD3F8E0306A4A43F40073C2F8E03063
:1014D000674BD3F8E03003F40073FB60FB68644BA8
:1014E000D3F8E030624A43F00103C2F8E030604BC9
:1014F000D3F8E03003F00103BB60BB685C4BD3F86A
:10150000E0305B4A43F02003C2F8E030584BD3F898
:10151000E03003F020037B607B68554BD3F8E0306C
:10152000534A43F08003C2F8E030514BD3F8E03027
:1015300003F080033B603B68002208214D483DF0EA
:1015400079FA01224FF400514B483DF073FA002222
:1015500008214A483DF06EFA0022402148483DF0FB
:1015600069FA0122042147483DF064FA0823FB622E
:1015700001233B6300237B630023BB6307F12C0340
:1015800019463C483CF040FE4FF48073FB62022356
:101590003B6300237B630023BB630023FB6307F1F2
:1015A0002C03194636483CF02FFE4FF40053FB62E3
:1015B00001233B6300237B630023BB6307F12C0300
:1015C00019462D483CF020FE0823FB6201233B63B3
:1015D00000237B630323BB6307F12C0319462748D1
:1015E0003CF012FE0423FB624FF404133B63002320
:1015F0007B6307F12C03194620483CF005FE4FF4AD
:101600004063FB6202233B6301237B630323BB63D1
:101610000723FB6307F12C0319461B483CF0F4FD3C
:101620004023FB6201233B6300237B630323BB63F3
:1016300007F12C03194612483CF0E6FD0423FB6237
:1016400001233B6300237B630023BB6307F12C036F
:1016500019460C483CF0D8FD0022052108203BF03B
:101660001BFB08203BF042FB00BF4037BD4680BD5E
:1016700000440258000C025800200258001802587A
:1016800000000258002402580004025890B583B0AC
:1016900000AF0446084611461A462346FB7103462E
:1016A000BB710B467B7113463B71FB796433114A66
:1016B0005361BB79013B0F4A13617B790D4AD360BB
:1016C0003B790C4A93603B7E0A4A53603B7F094A50
:1016D000136008486CF0D2FE02460B460649C1E989
:1016E0000023054BD3E90023134618460C37BD46AB
:1016F00090BD00BF181401244014012490B583B09C
:1017000000AF7860544B1B6818464EF001F8034652
:101710009AB2524B1A80514B1B88002B00F09580D7
:101720004F4B1B6841F2883118464DF018FD4B4B6A
:101730001B884C4A4C494D486CF00CFD4B48FEF759
:10174000D9FD03469CB24948FEF7D4FD0346224624
:101750004649474849F0ACFC414B1B6818464DF0E0
:1017600049FD444B00221A803CE03B4B18680023A3
:10177000002241494DF06EFF0346404A13603F4B43
:101780001B68002B20D0364B1B6841F2883118466D
:101790004DF0E5FC394B1B68324A394933486CF04F
:1017A000D9FC3248FEF7A6FD03469CB22F48FEF74F
:1017B000A1FD034622462D492D4849F079FC284BCE
:1017C0001B6818464DF016FD2A4B1B881A467B688D
:1017D0001344294A12781A70264B1B8801339AB297
:1017E000244B1A801C4B1B6818464DF091FF034692
:1017F000002B05D01F4B1B8840F6FD729342B4D9D5
:101800001C4B1A88154B1A80154B1B6841F2883106
:1018100018464DF0A4FC114B1B88124A1949134875
:101820006CF098FC1148FEF765FD03469CB20F482A
:10183000FEF760FD034622460C490D4849F038FC8E
:10184000074B1B6818464DF0D5FC044B1B88184607
:101850000C37BD4690BD00BF34D400244814012489
:1018600088D5002444C2070868070708DCD500248F
:10187000D06400244A1401244C140124501401247F
:1018800090070708C807070890B583B000AF7860D5
:101890007B681B682F4A934216D12F4B1A782F4B27
:1018A0001A702F4B1868002300222C494DF072FE4D
:1018B00003462C4A1360012227492B4849F086FC35
:1018C00003461A46294B1A707B681B68284A9342C4
:1018D0003BD1284B1A78284B1A70284B18680023E4
:1018E000002225494DF056FE03461E4A13601D4B4B
:1018F0001B68002B20D0224B1B6841F28831184610
:101900004DF02DFC174B1B681E4A1F491F486CF0F9
:1019100021FC1E48FEF7EEFC03469CB21B48FEF776
:10192000E9FC0346224619490F4849F0C1FB144B14
:101930001B6818464DF05EFC01220E49144849F020
:1019400045FC03461A46094B1A7000BF0C37BD46CA
:1019500090BD00BF0010014011EE0024541401247A
:1019600034D4002458140124D06400245C140124CD
:101970000044004010EE00245D140124E0CB00245C
:1019800088D5002460C20708F0070708DCD50024CA
:101990006465002490B585B000AFF8607B600B46AD
:1019A0007B8113467B727D4B00221A805AE17B7A41
:1019B000002B2AD0794B1B8803F00F039BB2002B1E
:1019C00023D1774B1B6841F2883118464DF0C7FB95
:1019D000724B1B881A467B6813441A467149724839
:1019E0006CF0B8FB7048FEF785FC03469CB26E486D
:1019F000FEF780FC034622466B496C4849F058FBD1
:101A0000674B1B6818464DF0F5FB654B1B6841F2B0
:101A1000883118464DF0A3FB604B1B881A46FB68C3
:101A200013441B781A4662495F486CF093FB5E488A
:101A3000FEF760FC03469CB25B48FEF75BFC034686
:101A400022465949594849F033FB554B1B68184603
:101A50004DF0D0FB524B1B6841F2883118464DF0D7
:101A60007EFB544950486CF075FB4F48FEF742FC32
:101A700003469CB24C48FEF73DFC034622464A49C9
:101A80004A4849F015FB464B1B6818464DF0B2FB1F
:101A9000424B1B8803F00F039BB2072B1DD1404B19
:101AA0001B6841F2883118464DF059FB42493E48C7
:101AB0006CF050FB3C48FEF71DFC03469CB23A48D4
:101AC000FEF718FC034622463749384849F0F0FA39
:101AD000334B1B6818464DF08DFB304B1B8803F0D1
:101AE0000F039BB20F2B40F0B7802D4B1B6841F2C8
:101AF000883118464DF033FB2F492B486CF02AFBF8
:101B00002948FEF7F7FB03469CB22748FEF7F2FB95
:101B1000034622462449254849F0CAFA204B1B684F
:101B200018464DF067FB1D4B1B880F3B9AB2234BA9
:101B30001A806DE0214B1B881A46FB6813441B7802
:101B400001331F4A13441B7803F09703002B3BD04B
:101B5000134B1B6841F2883118464DF000FB174BC0
:101B60001B881A46FB6813441B781A4615490E4811
:101B70006CF0F0FA0C48FEF7BDFB03469CB20A4835
:101B8000FEF7B8FB034622460749084849F090FA99
:101B9000034B1B6818464DF02DFB33E05E14012407
:101BA00088D5002428080708DCD50024D064002448
:101BB0003C0807084408070848080708601401247F
:101BC00028FD070850080708A84B1B6841F2883118
:101BD00018464DF0C4FAA649A6486CF0BBFAA548D1
:101BE000FEF788FB03469CB2A248FEF783FB034640
:101BF0002246A049A04849F05BFA9C4B1B68184656
:101C00004DF0F8FA9D4B1B8801339AB29B4B1A801A
:101C10009B4B1A88994B1B889A428BD2934B1B681B
:101C200041F2883118464DF09AFA964991486CF085
:101C300091FA9048FEF75EFB03469CB28D48FEF792
:101C400059FB034622468B498B4849F031FA874BB2
:101C50001B6818464DF0CEFA894B1B8801339AB2A7
:101C6000874B1A80864B1B887A899A423FF69FAE33
:101C70007B8903F00F039BB2002B00F0D5807B899A
:101C800003F00F039AB27D4B1A8023E0774B1B6859
:101C900041F2883118464DF062FA7B4975486CF084
:101CA00059FA7448FEF726FB03469CB27148FEF7CA
:101CB00021FB034622466F496F4849F0F9F96B4B07
:101CC0001B6818464DF096FA6C4B1B8801339AB28C
:101CD0006A4B1A80694B1B880F2BD7D97B8903F07D
:101CE00008039BB2002B1DD1604B1B6841F2883169
:101CF00018464DF034FA65495E486CF02BFA5D48A1
:101D0000FEF7F8FA03469CB25A48FEF7F3FA034688
:101D100022465849584849F0CBF9544B1B6818469D
:101D20004DF068FA514B1B6841F2883118464DF06E
:101D300016FA56494F486CF00DFA4E48FEF7DAFA9B
:101D400003469CB24B48FEF7D5FA03462246494962
:101D5000494849F0ADF9454B1B6818464DF04AFA21
:101D60007B8923F00F039AB2444B1A8057E0434B10
:101D70001B881A46FB6813441B780133444A1344FA
:101D80001B7803F09703002B25D0384B1B6841F2DA
:101D9000883118464DF0E3F9384B1B881A46FB682A
:101DA00013441B781A463B4932486CF0D3F931484A
:101DB000FEF7A0FA03469CB22E48FEF79BFA0346B4
:101DC00022462C492C4849F073F9284B1B681846C9
:101DD0004DF010FA1DE0254B1B6841F28831184682
:101DE0004DF0BDF9224923486CF0B4F92148FEF7C3
:101DF00081FA03469CB21F48FEF77CFA034622464E
:101E00001C491D4849F054F9184B1B6818464DF001
:101E1000F1F91A4B1B8801339AB2184B1A80174BF1
:101E20001B887A899A42A2D8104B1B6841F28831EC
:101E300018464DF094F913490E486CF08BF90D4893
:101E4000FEF758FA03469CB20A48FEF753FA0346D7
:101E500022460849084849F02BF9044B1B681846EC
:101E60004DF0C8F900BF1437BD4690BD88D5002499
:101E700054080708DCD50024D06400246014012431
:101E80005E140124580807085C080708480807087A
:101E900028FD07085008070890B583B002AF654BCE
:101EA0001B684FF47A7118464DF059F9624963483E
:101EB0006CF050F96148FEF71DFA03469CB25F488A
:101EC000FEF718FA034622465C495D4849F0F0F8EF
:101ED00059495A486CF03EF95848FEF70BFA034648
:101EE0009CB25648FEF706FA034622465349544828
:101EF00049F0DEF8504951486CF02CF94F48FEF794
:101F0000F9F903469CB24D48FEF7F4F90346224620
:101F10004A494B4849F0CCF84A4948486CF01AF90C
:101F20004648FEF7E7F903469CB24448FEF7E2F95B
:101F3000034622464149424849F0BAF842493F48DF
:101F40006CF008F93D48FEF7D5F903469CB23B48D2
:101F5000FEF7D0F9034622463849394849F0A8F837
:101F60003A4936486CF0F6F83448FEF7C3F90346B0
:101F70009CB23248FEF7BEF9034622462F4930484C
:101F800049F096F841230193314B0093314B314A8C
:101F900031492A486CF0DEF82848FEF7ABF90346D1
:101FA0009CB22648FEF7A6F9034622462349244858
:101FB00049F07EF8294A2A4920486CF0CBF81F489E
:101FC000FEF798F903469CB21C48FEF793F90346C6
:101FD00022461A491A4849F06BF8224917486CF012
:101FE000B9F81648FEF786F903469CB21348FEF787
:101FF00081F9034622461149114849F059F812491E
:102000000E486CF0A7F80D48FEF774F903469CB231
:102010000A48FEF76FF9034622460849084849F086
:1020200047F8044B1B6818464DF0E4F800BF04372E
:10203000BD4690BD88D5002460080708DCD5002483
:10204000D06400248C08070894080708DC080708F7
:102050005809070824090708280907085C09070820
:10206000680907089009070880B500AF03490448CC
:1020700047F0FCFF014B1B68184680BD6414012427
:102080002062002490B58BB004AF03463960FB801A
:102090000023BB82FB88002B23D0FB88A3F5807331
:1020A000002B00DA0733DB10FB75FB88DBB203F093
:1020B0000703BB75FB8801333B823B8AA3F5807322
:1020C000002B00DA0733DB10FB753B8AA3F5807326
:1020D0005A4203F0070302F0070258BF5342BB7590
:1020E00003E00023FB750023BB75FB7DFB7454E00C
:1020F000BB7DBB7449E0FB7C3A6813441B781A46ED
:10210000BB7C42FA03F303F00103002B3AD0FB7CC3
:1021100020339BB2DB009AB2BB7C9BB21344BB82E0
:10212000FB7CFB73BB7CBB73314B1B6841F288317A
:1021300018464DF014F8B88AFB7BBA7BB97B0124B2
:1021400004FA01F10291019200930346294A2A49B7
:102150002A486BF0FFFF2948FEF7CCF803469CB2F3
:102160002648FEF7C7F8034622462449244848F08B
:102170009FFF1F4B1B6818464DF03CF80823BB74AB
:102180008023FB74BB7C0133BB74BB7C072BB2D9AF
:102190000023BB75FB7C0133FB7497F91330002BD4
:1021A000A6DABB8A002B1ED1114B1B6841F2883185
:1021B00018464CF0D4FF0F4A124910486BF0CAFF82
:1021C0000E48FEF797F803469CB20C48FEF792F8CB
:1021D0000346224609490A4848F06AFF044B1B6837
:1021E00018464DF007F8BB8A18461C37BD4690BD0F
:1021F00088D5002478C207088C0A0708DCD500249B
:10220000D0640024E80A0708B0B584B002AF0346E2
:10221000FB71FB79002B44D18B4B1B6841F2883159
:1022200018464CF09CFF894A89498A486BF092FF16
:102230008848FEF75FF803469CB28648FEF75AF8D6
:10224000034622468349844848F032FF7E4B1B6890
:1022500018464CF0CFFF814B00221A607A4B1B6866
:1022600041F2883118464CF07AFF784A7C49794827
:102270006BF070FF7748FEF73DF803469CB2754857
:10228000FEF738F8034622467249734848F010FFBB
:102290006D4B1B6818464CF0ADFF724B00221A7054
:1022A0007BE3FB79012B40F019836F4B9A786F4BDE
:1022B0001B789A4208D06C4B9A786C4B1A70674B1B
:1022C0001B680133654A1360644B1B683C2B26D99D
:1022D000624B00221A605C4B1B6841F28831184641
:1022E0004CF03DFF624B1B78584A624959486BF0ED
:1022F00031FF5848FDF7FEFF03469CB25548FDF7F5
:10230000F9FF034622465349534848F0D1FE4E4B4D
:102310001B6818464CF06EFF524B0B221A70514B43
:102320001B78002B5CD1524B1B781946524A0B4646
:10233000DB005B1ADB00134414331B78052B40F0E1
:102340002C830FF075FF03461A464C4B1A7050222F
:1023500000214B486BF065FF494B9F221A70484B98
:1023600004225A70424B1B781946434A0B46DB0045
:102370005B1ADB00134416331888404B1B7800931C
:1023800001233F4A02210EF075FF344B00221A60F0
:102390003C4B00221A702C4B1B6841F288311846C6
:1023A0004CF0DDFE324B1B78284A374929486BF048
:1023B000D1FE2848FDF79EFF03469CB22548FDF755
:1023C00099FF034622462349234848F071FE1E4BDD
:1023D0001B6818464CF00EFF224B01221A70DCE2FB
:1023E000204B1B78012B40F0BB81264B1B78002B28
:1023F00000F0D382254B1B78002B4BD1124B1B686E
:1024000041F2883118464CF0AAFE194B1B780F4A4E
:102410001F4910486BF09EFE0E48FDF76BFF034608
:102420009CB20C48FDF766FF0346224609490A485C
:1024300048F03EFE044B1B6818464CF0DBFE094B8F
:102440000B221A70A9E200BF88D5002494C20708A5
:10245000100B0708DCD50024D06400246814012484
:10246000240B07086C140124DCED00241600002462
:1024700014000024540B0708341201244C130124C7
:1024800070140124D2130124A40B0708D3130124D0
:10249000E00B0708A04B00221A600FF0C9FE0346AC
:1024A0001A469E4B1A70502200219D486BF0B9FECF
:1024B0009B4B9F221A709A4B06225A70984B00220F
:1024C0009A70974B0222DA70954B01221A71954B44
:1024D0001B781946944A0B46DB005B1ADB00134459
:1024E00011331B7803F00403002B22D08F4B1B68A1
:1024F00041F2883118464CF032FE8D4A8D498E48A3
:102500006BF028FE8C48FDF7F5FE03469CB28A4826
:10251000FDF7F0FE034622468749884848F0C8FD8B
:10252000824B1B6818464CF065FE7D4B04225A71A5
:1025300085E07C4B1B7819467B4A0B46DB005B1A17
:10254000DB00134411331B7803F00203002B22D06D
:10255000764B1B6841F2883118464CF000FE744AF5
:10256000774975486BF0F6FD7348FDF7C3FE0346E7
:102570009CB27148FDF7BEFE034622466E496F4885
:1025800048F096FD694B1B6818464CF033FE644BCF
:1025900002225A7153E0634B1B781946624A0B467C
:1025A000DB005B1ADB00134411331B7803F00103DB
:1025B000002B22D05D4B1B6841F2883118464CF04D
:1025C000CEFD5B4A5F495C486BF0C4FD5A48FDF79D
:1025D00091FE03469CB25848FDF78CFE0346224606
:1025E0005549564848F064FD504B1B6818464CF05E
:1025F00001FE4B4B01225A7121E04C4B1B6841F20A
:10260000883118464CF0ABFD494A4F494A486BF0B7
:10261000A1FD4948FDF76EFE03469CB24648FDF712
:1026200069FE034622464449444848F041FD3F4B79
:102630001B6818464CF0DEFD394B00225A713B4BAB
:102640001B6841F2883118464CF089FD354B1B78E8
:10265000374A3E4938486BF07DFD3748FDF74AFE62
:1026600003469CB23448FDF745FE034622463249F4
:10267000324848F01DFD2D4B1B6818464CF0BAFD42
:10268000284B1B781946264B5879274A0B46DB0006
:102690005B1ADB001344123302461A70214B1B787D
:1026A0001946214A0B46DB005B1ADB001344163344
:1026B00018881A4B1B7800930123194A06210EF043
:1026C000D9FD234B00221A70224B00221A70174B9F
:1026D0001B6841F2883118464CF041FD114B1B78C4
:1026E000134A1D4914486BF035FD1348FDF702FEEF
:1026F00003469CB21048FDF7FDFD034622460E49F5
:102700000E4848F0D5FC094B1B6818464CF072FD8A
:10271000124B02221A7040E1681401244C13012468
:1027200070140124140000243412012488D50024DC
:1027300094C20708200C0708DCD50024D0640024CC
:102740003C0C07085C0C0708800C0708D00C070835
:10275000D4130124D5130124F40C07086C140124AC
:10276000914B1B78022B40F08B80904B1B78002BF9
:1027700000F013818E4B1B78002B24D08D4B1B68EF
:1027800041F2883118464CF0EAFC8B4B1B788B4A9F
:102790008B498C486BF0DEFC8A48FDF7ABFD0346A5
:1027A0009CB28848FDF7A6FD034622468549864827
:1027B00048F07EFC7F4B1B6818464CF01BFD7A4BA3
:1027C0000B221A70E9E0814B00221A600FF030FDF5
:1027D00003461A467E4B1A70502200217D486BF04A
:1027E00020FD7C4B9F221A707A4B08225A70794B3D
:1027F00001229A70774B784ADC1C15460FCD206079
:102800006160A260E3600FCD20616161A261E3615C
:10281000694B1B781946714A0B46DB005B1ADB00DB
:102820001344163318886A4B1B7800930123694AB6
:1028300023210EF01FFD5F4B1B6841F288311846C3
:102840004CF08DFC5C4B1B785C4A65495D486BF035
:1028500081FC5C48FDF74EFD03469CB25948FDF7EC
:1028600049FD034622465749574848F021FC514B41
:102870001B6818464CF0BEFC4B4B03221A708CE0D0
:10288000494B1B78032B00F08880474B1B78042BA7
:1028900000F08380444B1B78052B7ED0424B1B7885
:1028A000062B7AD0404B1B78072B76D03E4B1B78FB
:1028B000082B72D03C4B1B78092B6ED03A4B1B78FF
:1028C0000A2B03D1474B01221A7066E0364B1B7866
:1028D0000B2B62D1444B01221A705EE0FB79022B74
:1028E0005BD0344B1B6841F2883118464CF037FC02
:1028F0003E4934486BF02EFC3248FDF7FBFC0346A2
:102900009CB23048FDF7F6FC034622462D492E487E
:1029100048F0CEFB274B1B6818464CF06BFC254B50
:102920001B6841F2883118464CF019FCFB79234AA8
:102930002F4924486BF00EFC2248FDF7DBFC0346D0
:102940009CB22048FDF7D6FC034622461D491E488E
:1029500048F0AEFB174B1B6818464CF04BFC154B70
:102960001B6841F2883118464CF0F9FB1F491548A5
:102970006BF0F0FB1348FDF7BDFC03469CB2114819
:10298000FDF7B8FC034622460E490F4848F090FB7D
:10299000084B1B6818464CF02DFC034B1B7818465F
:1029A0000837BD46B0BD00BF6C140124D413012408
:1029B000D513012488D500241400002494C20708EC
:1029C000380D0708DCD50024D064002468140124E5
:1029D0004C13012470140124D8130124341201244F
:1029E0007C0D070805EE002406EE0024CC0D070838
:1029F000280E070898B500AF7C4B1B6841F2883160
:102A000018464CF0ACFB7A497A486BF0A3FB794846
:102A1000FDF770FC03469CB27648FDF76BFC03465D
:102A200022467449744848F043FB704B1B681846B3
:102A30004CF0E0FB714B181D704B5B78033B99B277
:102A400000230022FEF7A6FF684B1B6841F2883185
:102A500018464CF084FB694B1B79694A6949654803
:102A60006BF078FB6348FDF745FC03469CB2614878
:102A7000FDF740FC034622465E495F4848F018FBDC
:102A80005A4B1B6818464CF0B5FB584B1B6841F27B
:102A9000883118464CF063FB584B5B79584A5A49C9
:102AA00054486BF057FB5348FDF724FC03469CB297
:102AB0005048FDF71FFC034622464E494E4848F059
:102AC000F7FA4A4B1B6818464CF094FB4B4B5B796A
:102AD000032B00F2A38001A252F823F0ED2A000894
:102AE0002D2B00086D2B0008AD2B00083F4B1B68F9
:102AF00041F2883118464CF032FB414A43493D4887
:102B00006BF028FB3B48FDF7F5FB03469CB23948C8
:102B1000FDF7F0FB034622463649374848F0C8FA2D
:102B2000324B1B6818464CF065FB97E02F4B1B6837
:102B300041F2883118464CF012FB314A34492D4895
:102B40006BF008FB2B48FDF7D5FB03469CB22948E8
:102B5000FDF7D0FB034622462649274848F0A8FA4D
:102B6000224B1B6818464CF045FB77E01F4B1B6857
:102B700041F2883118464CF0F2FA214A25491D48A5
:102B80006BF0E8FA1B48FDF7B5FB03469CB2194809
:102B9000FDF7B0FB034622461649174848F088FA6D
:102BA000124B1B6818464CF025FB57E00F4B1B6877
:102BB00041F2883118464CF0D2FA114A16490D48B4
:102BC0006BF0C8FA0B48FDF795FB03469CB2094829
:102BD000FDF790FB034622460649074848F068FA8D
:102BE000024B1B6818464CF005FB37E088D50024E3
:102BF000D00E0708DCD50024D0640024C0080124CE
:102C0000B4C20708140F0708540F0708940F0708E9
:102C1000AC0F0708D80F070810100708B24B1B6845
:102C200041F2883118464CF09AFAB04AB049B1489E
:102C30006BF090FAAF48FDF75DFB03469CB2AD48E0
:102C4000FDF758FB03462246AA49AB4848F030FA44
:102C5000A54B1B6818464CF0CDFA00BFA24B1B6871
:102C600041F2883118464CF07AFAA44B9B791B024A
:102C7000A24AD27913449D4AA1499E486BF06AFA50
:102C80009C48FDF737FB03469CB29A48FDF732FBA0
:102C9000034622469749984848F00AFA924B1B6827
:102CA00018464CF0A7FA904B1B6841F28831184641
:102CB0004CF055FA914B1B7A8C4A92498D486BF037
:102CC00049FA8C48FDF716FB03469CB28948FDF78C
:102CD00011FB034622468749874848F0E9F9824BB1
:102CE0001B6818464CF086FA7F4B1B6841F288310E
:102CF00018464CF034FA814B5B7A7C4A82497D4815
:102D00006BF028FA7B48FDF7F5FA03469CB2794848
:102D1000FDF7F0FA034622467649774848F0C8F9AD
:102D2000714B1B6818464CF065FA6F4B1B6841F2FB
:102D3000883118464CF013FA704B9B7A6B4A7349F2
:102D40006C486BF007FA6B48FDF7D4FA03469CB267
:102D50006848FDF7CFFA034622466649664848F0C0
:102D6000A7F9614B1B6818464CF044FA5E4B1B6890
:102D700041F2883118464CF0F2F9604BDB7A5B4A3D
:102D800063495C486BF0E6F95A48FDF7B3FA03462D
:102D90009CB25848FDF7AEFA0346224655495648BC
:102DA00048F086F9504B1B6818464CF023FA4E4BFE
:102DB0001B6841F2883118464CF0D1F94F4B1B7B10
:102DC0004A4A54494B486BF0C5F94A48FDF792FA14
:102DD00003469CB24748FDF78DFA03462246454913
:102DE000454848F065F9404B1B6818464CF002FA1C
:102DF0003D4B1B6841F2883118464CF0B0F93F4B0F
:102E00005B7B3A4A44493B486BF0A4F93948FDF7EB
:102E100071FA03469CB23748FDF76CFA0346224626
:102E20003449354848F044F92F4B1B6818464CF09C
:102E3000E1F92D4B1B6841F2883118464CF08FF9AF
:102E40002E4B9B7B294A35492A486BF083F9294848
:102E5000FDF750FA03469CB22648FDF74BFA0346AD
:102E600022462449244848F023F91F4B1B68184682
:102E70004CF0C0F91C4B1B6841F2883118464CF0ED
:102E80006EF91E4BDB7B194A25491A486BF062F933
:102E90001848FDF72FFA03469CB21648FDF72AFAA8
:102EA000034622461349144848F002F90E4B1B68AA
:102EB00018464CF09FF90C4B1B6841F288311846BC
:102EC0004CF04DF90D4B1B7C084A164909486BF034
:102ED00041F90848FDF70EFA03469CB20548FDF794
:102EE00009FA034622461FE088D50024B4C2070829
:102EF0003C100708DCD50024D0640024C00801245D
:102F00006C100708AC100708EC1007082C11070814
:102F10006C110708AC110708EC1107082C12070800
:102F20006C120708AC120708A549A64848F0C0F87B
:102F3000A54B1B6818464CF05DF9A34B1B6841F28A
:102F4000883118464CF00BF9A04B5B7CA04AA14994
:102F50009B486BF0FFF89A48FDF7CCF903469CB20A
:102F60009748FDF7C7F9034622469549954848F02A
:102F70009FF8954B1B6818464CF03CF9924B1B6828
:102F800041F2883118464CF0EAF8904B9B7C904A0D
:102F900091498B486BF0DEF88948FDF7ABF90346A1
:102FA0009CB28748FDF7A6F9034622468449854826
:102FB00048F07EF8844B1B6818464CF01BF9824B96
:102FC0001B6841F2883118464CF0C9F87F4BDB7C16
:102FD0007F4A82497A486BF0BDF87948FDF78AF953
:102FE00003469CB27648FDF785F9034622467449AC
:102FF000744848F05DF8744B1B6818464CF0FAF8BA
:10300000714B1B6841F2883118464CF0A8F86F4BA1
:103010001B7D6F4A72496A486BF09CF86848FDF75F
:1030200069F903469CB26648FDF764F903462246F7
:103030006349644848F03CF8634B1B6818464CF001
:10304000D9F8614B1B6841F2883118464CF087F87B
:103050005E4B5B7D5E4A634959486BF07BF858488C
:10306000FDF748F903469CB25548FDF743F903467E
:1030700022465349534848F01BF8534B1B681846E7
:103080004CF0B8F8514B5B7D03F04003002B1ED091
:103090004D4B1B6841F2883118464CF060F84C4AA1
:1030A000514947486BF056F84548FDF723F9034668
:1030B0009CB24348FDF71EF9034622464049414869
:1030C00047F0F6FF404B1B6818464CF093F83F4B17
:1030D0005B7D03F02003002B1ED03B4B1B6841F2AD
:1030E000883118464CF03BF8394A404934486BF077
:1030F00031F83348FDF7FEF803469CB23048FDF73F
:10310000F9F8034622462E492E4847F0D1FF2E4BB0
:103110001B6818464CF06EF82C4B5B7D03F00703E0
:10312000013B032B00F2B48001A252F823F000BF50
:103130004131000881310008F931000839320008B6
:10314000214B1B6841F2883118464CF008F8204AA0
:1031500027491B486AF0FEFF1948FDF7CBF80346E4
:103160009CB21748FDF7C6F8034622461449154895
:1031700047F09EFF144B1B6818464CF03BF8A7E045
:10318000114B1B6841F2883118464BF0E8FF104A9A
:1031900018490B486AF0DEFF0948FDF7ABF8034613
:1031A0009CB20748FDF7A6F80346224604490548A5
:1031B00047F07EFF044B1B6818464CF01BF887E075
:1031C000DCD50024D064002488D50024C008012464
:1031D000B4C20708EC1207082C1307086C13070881
:1031E000AC130708EC1307082C1407086814070829
:1031F000A4140708C41407081F4B1B6841F2883148
:1032000018464BF0ACFF1D4A1D491E486AF0A2FF4C
:103210001C48FDF76FF803469CB21A48FDF76AF8A0
:10322000034622461749184847F042FF124B1B68D5
:1032300018464BF0DFFF4BE00F4B1B6841F2883123
:1032400018464BF08CFF0D4A10490E486AF082FF79
:103250000C48FDF74FF803469CB20A48FDF74AF8C0
:10326000034622460749084847F022FF024B1B68E5
:1032700018464BF0BFFF2BE088D50024B4C20708E6
:10328000E4140708DCD50024D064002404150708E2
:10329000A34B1B6841F2883118464BF060FFA14AEE
:1032A000A149A2486AF056FFA048FDF723F803465B
:1032B0009CB29E48FDF71EF8034622469B499C4857
:1032C00047F0F6FE964B1B6818464BF093FF00BF85
:1032D000934B1B6841F2883118464BF040FF954BE9
:1032E0009B7D904A944991486AF034FF8F48FDF7DE
:1032F00001F803469CB28D48FCF7FCFF03462246CA
:103300008A498B4847F0D4FE854B1B6818464BF022
:1033100071FF834B1B6841F2883118464BF01FFF49
:10332000844BDB7D7F4A854980486AF013FF7F48E4
:10333000FCF7E0FF03469CB27C48FCF7DBFF03464A
:1033400022467A497A4847F0B3FE754B1B68184607
:103350004BF050FF724B1B6841F2883118464BF01E
:10336000FEFE744B1B7E6F4A754970486AF0F2FE90
:103370006E48FCF7BFFF03469CB26C48FCF7BAFFEF
:103380000346224669496A4847F092FE644B1B682F
:1033900018464BF02FFF624B1B6841F288311846EC
:1033A0004BF0DDFE634B5B7E5E4A66495F486AF028
:1033B000D1FE5E48FCF79EFF03469CB25B48FCF7DB
:1033C00099FF034622465949594847F071FE544B2C
:1033D0001B6818464BF00EFF514B1B6841F28831B9
:1033E00018464BF0BCFE534B9B7E4E4A56494F4805
:1033F0006AF0B0FE4D48FCF77DFF03469CB24B4897
:10340000FCF778FF034622464849494847F050FEFA
:10341000434B1B6818464BF0EDFE414B1B6841F2D5
:10342000883118464BF09BFE424BDB7E3D4A4749B4
:103430003E486AF08FFE3D48FCF75CFF03469CB2B5
:103440003A48FCF757FF034622463849384847F0C8
:103450002FFE334B1B6818464BF0CCFE304B1B68DD
:1034600041F2883118464BF07AFE324B1B7F2D4AD1
:1034700037492E486AF06EFE2C48FCF73BFF0346A6
:103480009CB22A48FCF736FF0346224627492848C3
:1034900047F00EFE224B1B6818464BF0ABFE204B4C
:1034A0001B6841F2883118464BF059FE214B5B7F77
:1034B0001C4A28491D486AF04DFE1C48FCF71AFFBB
:1034C00003469CB21948FCF715FF034622461749EC
:1034D000174847F0EDFD124B1B6818464BF08AFE6B
:1034E0000F4B1B6841F2883118464BF038FE1A49E1
:1034F0000E486AF02FFE0D48FCF7FCFE03469CB216
:103500000A48FCF7F7FE034622460849084847F0F8
:10351000CFFD034B1B6818464BF06CFE00BF98BDF7
:1035200088D50024B4C2070828150708DCD5002474
:10353000D0640024C008012470150708B0150708DE
:10354000F01507083016070870160708B0160708A8
:10355000F0160708301707087017070890B585B0F0
:1035600000AF03463960FB710123FB73FB79042B29
:103570006BD8FA7948491346DB009B1ADB000B44F1
:1035800008331B7863F03F03DAB23B681A70FA79AC
:103590003B68591C40481346DB009B1ADB00034480
:1035A00009331B780B70FA793B68991C3A4813462B
:1035B000DB009B1ADB0003440A331B780B70FA799B
:1035C00035491346DB009B1ADB000B440B331A789A
:1035D0003B68033322F00102D2B21A70FA792E4905
:1035E0001346DB009B1ADB000B440C331A783B6854
:1035F000043362F03F02D2B21A70FA793B68591D67
:1036000025481346DB009B1ADB0003440D331B786F
:103610000B70FA793B68991D1F481346DB009B1A13
:10362000DB0003440E331B780B70FA791A491346FA
:10363000DB009B1ADB000B440F331A783B6807331F
:1036400022F00102D2B21A7021E0144B1B6841F241
:10365000883118464BF083FDFB79114A1149124815
:103660006AF078FD1048FCF745FE03469CB20E4810
:10367000FCF740FE034622460B490C4847F018FD74
:10368000064B1B6818464BF0B5FD0023FB73FB7B14
:1036900018461437BD4690BD3412012488D5002445
:1036A000CCC20708B4170708DCD50024D064002476
:1036B00090B583B000AFFF23FB7100237B7141E025
:1036C0000123BB7100233B7110E07A7939792148DD
:1036D0001346DB009B1ADB0003440B441B78002BD2
:1036E00001D00023BB713B7901333B713B790F2B38
:1036F000EBD9BB79002B22D0174B1B6841F28831E4
:1037000018464BF02CFD7B79144A154915486AF090
:1037100021FD1448FCF7EEFD03469CB21148FCF76E
:10372000E9FD034622460F490F4847F0C1FC0A4B0A
:103730001B6818464BF05EFD7B79FB7105E07B79D9
:1037400001337B717B79042BBAD9FB7918460C378E
:10375000BD4690BD3412012488D50024ECC2070870
:1037600008180708DCD50024D064002480B483B096
:1037700000AF0023FB7100233B6026E018493A6844
:103780001346DB009B1ADB000B4414331B78002B21
:1037900018D013493A681346DB009B1ADB000B4430
:1037A00014331B78012B0DD00D493A681346DB000A
:1037B0009B1ADB000B4414331B78062B02D0012329
:1037C000FB7105E03B6801333B603B68042BD5DDB2
:1037D000FB7918460C37BD465DF8047B704700BF87
:1037E0003412012490B585B000AF0346FB71FB791C
:1037F000042B19D80123FB730023BB7310E0FA7963
:10380000B97B1D481346DB009B1ADB0003440B44C5
:103810001B78002B01D00023FB73BB7B0133BB73F0
:10382000BB7B0F2BEBD921E0144B1B6841F2883195
:1038300018464BF094FCFB79114A124912486AF081
:1038400089FC1148FCF756FD03469CB20E48FCF774
:1038500051FD034622460C490C4847F029FC074B12
:103860001B6818464BF0C6FC0023FB73FB7B184615
:103870001437BD4690BD00BF3412012488D5002402
:1038800004C3070824180708DCD50024D0640024EA
:1038900090B58BB000AF7860012387F82730AF4B2D
:1038A0001B6841F2883118464BF059FC7B68AC4AE2
:1038B000AC49AD486AF04EFCAB48FCF71BFD034633
:1038C0009CB2A948FCF716FD03462246A649A74824
:1038D00047F0EEFBA14B1B6818464BF08BFC786859
:1038E000FCF708FD03462F2B25D09C4B1B6841F2AB
:1038F000883118464BF033FC7868FCF7FBFC034634
:10390000974A9B4998486AF025FC9748FCF7F2FCD7
:1039100003469CB29448FCF7EDFC034622469249CC
:10392000924847F0C5FB8D4B1B6818464BF062FC74
:10393000002387F827300023BB6176E0BB69052BA5
:1039400011D0BB690B2B0ED0BB69112B0BD0BB69FF
:10395000172B08D0BB691D2B05D0BB69232B02D0C8
:10396000BB69292B2FD1BB697A6813441B780133BB
:10397000804A13441B7803F00403002B52D0774B8A
:103980001B6841F2883118464BF0E9FBBB69744A69
:10399000794975486AF0DEFB7348FCF7ABFC0346D7
:1039A0009CB27148FCF7A6FC034622466E496F485C
:1039B00047F07EFB694B1B6818464BF01BFC00234D
:1039C00087F827302EE0BB697A6813441B780133EF
:1039D000684A13441B7803F00403002B22D15F4B89
:1039E0001B6841F2883118464BF0B9FBBB695C4A51
:1039F00062495D486AF0AEFB5B48FCF77BFC03461E
:103A00009CB25948FCF776FC034622465649574873
:103A100047F04EFB514B1B6818464BF0EBFB002365
:103A200087F82730BB690133BB61BB692E2B85DD6D
:103A30007B683B620023FB7741E007F10C03062221
:103A4000002118466AF0EDFB07F10C030522396AE4
:103A500018466BF0B2FA07F10C0318466AF050F9F9
:103A600003467B617B69B3F5803F22D33B4B1B68E8
:103A700041F2883118464BF072FB7B69384A404965
:103A800039486AF067FB3848FCF734FC03469CB2BF
:103A90003548FCF72FFC034622463349334847F0AC
:103AA00007FB2E4B1B6818464BF0A4FB002387F83E
:103AB00027303B6A06333B62FB7F0233FB77FB7F99
:103AC0000F2BBAD997F82730002B20D0234B1B6837
:103AD00041F2883118464BF042FB7B68204A294965
:103AE00021486AF037FB2048FCF704FC03469CB2EF
:103AF0001D48FCF7FFFB034622461B491B4847F0C5
:103B0000D7FA164B1B6818464BF074FB1FE0134B9B
:103B10001B6841F2883118464BF021FB7B68104A44
:103B2000194911486AF016FB0F48FCF7E3FB0346FE
:103B30009CB20D48FCF7DEFB034622460A490B48BF
:103B400047F0B6FA054B1B6818464BF053FB97F845
:103B5000273018462C37BD4690BD00BF88D50024BD
:103B60001CC307086C180708DCD50024D0640024A7
:103B70008418070828FD0708C8180708101907083F
:103B80005419070888190708A019070890B585B0C7
:103B900000AF03463960FB71FB79042B36D8FA7904
:103BA0002C491346DB009B1ADB000B441033012227
:103BB0001A700023FB6011E0FB683A681344FA793D
:103BC000187824491346DB009B1ADB00CA18FB68EF
:103BD000134402461A70FB680133FB60FB680F2B2D
:103BE000EADDFA791B491346DB009B1ADB000B4424
:103BF000133300221A70FA7916491346DB009B1A18
:103C0000DB000B44143301221A701FE0124B1B68B7
:103C100041F2883118464BF0A2FAFB790F4A10495D
:103C200010486AF097FA0F48FCF764FB03469CB211
:103C30000C48FCF75FFB034622460A490A4847F056
:103C400037FA054B1B6818464BF0D4FA00BF1437FF
:103C5000BD4690BD3412012488D5002438C307081E
:103C6000D8190708DCD50024D064002490B58DB0A5
:103C700000AF03463960FB71012387F82F30012321
:103C800087F82E30FB79042B22D9654B1B6841F253
:103C9000883118464BF063FAFB79624A62496348FF
:103CA0006AF058FA6148FCF725FB03469CB25F486E
:103CB000FCF720FB034622465C495D4847F0F8F9D3
:103CC000574B1B6818464BF095FA002387F82F30A6
:103CD0003868FFF7DDFD034687F82E3097F82F3060
:103CE000002B03D097F82E3087F82F303B68BB624B
:103CF000002387F8273097F82E30002B5AD055E054
:103D000007F108030622002118466AF08AFA07F133
:103D100008030522B96A18466BF04FF907F108034A
:103D2000184669F0EDFF03463B623B6AB3F5803FFE
:103D300022D33B4B1B6841F2883118464BF00FFAF7
:103D40003B6A384A3B4939486AF004FA3748FCF77D
:103D5000D1FA03469CB23548FCF7CCFA034622461A
:103D60003249334847F0A4F92D4B1B6818464BF0F5
:103D700041FA002387F82E303B6A1A0A97F8273059
:103D8000D2B230333B4403F8202C97F8273001336C
:103D90003A6AD2B230333B4403F8202CBB6A063374
:103DA000BB6297F82730023387F8273097F827301F
:103DB0000F2BA5D997F82F30002B0BD097F82E306A
:103DC000002B07D007F11002FB7911461846FFF7C8
:103DD000DDFE1EE0124B1B6841F2883118464BF0A5
:103DE000BEF9104A144911486AF0B4F90F48FCF7BB
:103DF00081FA03469CB20D48FCF77CFA0346224642
:103E00000A490B4847F054F9054B1B6818464BF01C
:103E1000F1F997F82F3018463437BD4690BD00BFF2
:103E200088D5002448C30708181A0708DCD50024E1
:103E3000D064002454190708441A070890B585B0C7
:103E400000AF03463960FB713C22002129486AF02B
:103E5000E8F90023FB603CE0FA7927491346DB00D0
:103E60009B1ADB00CA18FB6813441B781B0299B22B
:103E7000FA79FB68581C204C1346DB009B1ADB00C8
:103E8000234403441B780B449AB21C4B1A800A2229
:103E900000211B486AF0C5F9184B1B881A461949BE
:103EA00017486AF057F9164912486AF0C2F9FB68D8
:103EB0000D2B0BDC0F48FCF71DFA03461A460D4B81
:103EC000134411491A460B461B881380FB680233C2
:103ED000FB60FB680F2BBFDD0648FCF70BFA0346BF
:103EE0001A46044938686BF068F800BF1437BD46BD
:103EF00090BD00BFC014012434120124FC1401241D
:103F000000150124701A0708781A070890B583B0C5
:103F100000AF0346FB71FB79042B76D84D4B1B6831
:103F200041F2883118464BF01AF9FB794A4A4B495D
:103F30004B486AF00FF94A48FCF7DCF903469CB29B
:103F40004748FCF7D7F9034622464549454847F01C
:103F5000AFF8404B1B6818464BF04CF9FA794249D0
:103F60001346DB009B1ADB000B44103300221A704F
:103F7000FA791346DB009B1ADB003B4A13441022FC
:103F8000002118466AF04DF9FA7937491346DB00EB
:103F90009B1ADB000B44113300221A70FA79324964
:103FA0001346DB009B1ADB000B44123300221A700D
:103FB000FA792D491346DB009B1ADB000B441333BF
:103FC00001221A70FA7928491346DB009B1ADB009C
:103FD0000B44143300221A70FA7923491346DB008C
:103FE0009B1ADB000B4416334FF6FF721A80FA79E6
:103FF0001346DB009B1ADB0018331B4A13442022B4
:10400000002118466AF00DF91FE0124B1B6841F2BF
:10401000883118464BF0A3F8FB790F4A1349104832
:104020006AF098F80E48FCF765F903469CB20C4814
:10403000FCF760F90346224609490A4847F038F878
:10404000044B1B6818464BF0D5F800BF0C37BD4633
:1040500090BD00BF88D5002464C307087C1A0708F8
:10406000DCD50024D064002434120124941A0708FB
:1040700090B587B002AF03463960FB711346BB7140
:10408000594B9B781F2B00F28880574B9B781D2B38
:1040900024D9564B1B6841F2883118464BF05FF823
:1040A000514B9B781A46202300931346504A51499E
:1040B00051486AF04FF85048FCF71CF903469CB28F
:1040C0004D48FCF717F9034622464B494B4846F04A
:1040D000EFFF464B1B6818464BF08CF8434B1B68B0
:1040E00041F2883118464BF03AF8FB79404A44498E
:1040F00041486AF02FF84048FCF7FCF803469CB2B0
:104100003D48FCF7F7F8034622463B493B4846F05A
:10411000CFFF364B1B6818464BF06CF8324B9B7840
:104120000133DAB2304B9A702F4B5B7819462E4A26
:10413000AA2301FB03F313440333FA791A70BB7902
:10414000A82B01D9A823BB71274B5B781946264AB7
:10415000AA2301FB03F313440433BA791A70224BE8
:104160005B781A46AA2302FB03F31F4A1344053364
:10417000BA79396818466AF020FF1B4B5B78013327
:10418000DAB2194B5A70184B5B781F2B02D9164BB9
:1041900000225A700123FB7321E0144B1B6841F28B
:1041A000883118464AF0DBFFFB79114A154912485D
:1041B00069F0D0FF1048FCF79DF803469CB20E480A
:1041C000FCF798F8034622460B490C4846F070FF6E
:1041D000064B1B6818464BF00DF80023FB73FB7B66
:1041E00018461437BD4690BD14EE002488D500242F
:1041F00078C30708D81A0708DCD50024D064002447
:104200002C1B0708581B070890B587B002AF034660
:104210003960FB711346BB71594B9B78072B00F239
:104220008880574B9B78052B24D9564B1B6841F24D
:10423000883118464AF093FF514B9B781A46082361
:1042400000931346504A5149514869F083FF504842
:10425000FCF750F803469CB24D48FCF74BF8034678
:1042600022464B494B4846F023FF464B1B681846F5
:104270004AF0C0FF434B1B6841F2883118464AF0B0
:104280006EFFFB79404A4449414869F063FF40486A
:10429000FCF730F803469CB23D48FCF72BF8034688
:1042A00022463B493B4846F003FF364B1B68184605
:1042B0004AF0A0FF324B9B780133DAB2304B9A7050
:1042C0002F4B5B7819462E4AAA2301FB03F31344B4
:1042D0000333FA791A70BB79A82B01D9A823BB71D3
:1042E000274B5B781946264AAA2301FB03F31344A4
:1042F0000433BA791A70224B5B781A46AA2302FB60
:1043000003F31F4A13440533BA79396818466AF033
:1043100054FE1B4B5B780133DAB2194B5A70184BC1
:104320005B78072B02D9164B00225A700123FB73CE
:1043300021E0144B1B6841F2883118464AF00FFF08
:10434000FB79114A1549124869F004FF1048FBF740
:10435000D1FF03469CB20E48FBF7CCFF0346224632
:104360000B490C4846F0A4FE064B1B6818464AF061
:1043700041FF0023FB73FB7B18461437BD4690BDFD
:104380005803012488D5002490C30708A01B070800
:10439000DCD50024D0640024F41B0708201C070887
:1043A00090B585B000AF03460A46FB711346BB715A
:1043B000974B1B6841F2883118464AF0D0FEFB79D2
:1043C000944A9549954869F0C5FE9448FBF792FFD9
:1043D00003469CB29148FBF78DFF034622468F4966
:1043E0008F4846F065FE8A4B1B6818464AF002FF6C
:1043F0008C4B00221A728B4B0022DA60894B002210
:1044000083F8C820884B00221A70884B18221A7033
:10441000BB79002B1BD0864B0133854A5278194655
:10442000FF200EF097FD0346FB73FA79FB7B9A425F
:1044300001D1012200E003227B4B1A70FA79FB7B49
:104440009A4201D1062200E01522784B1A70704B77
:104450001B6841F2883118464AF081FE75496F4861
:1044600069F078FE6D48FBF745FF03469CB26B4848
:10447000FBF740FF034622466849694846F018FEAC
:10448000634B1B6818464AF0B5FE664BDB7C194649
:10449000002300226648FDF77DFA5D4B1B6841F260
:1044A000883118464AF05BFE63495C4869F052FE69
:1044B0005A48FBF71FFF03469CB25848FBF71AFF08
:1044C000034622465549564846F0F2FD504B1B68BC
:1044D00018464AF08FFE534B00221A740123012222
:1044E0005249564846F0E4FD504B1B78182B46D0F5
:1044F000182B64DC062B02D0152B20D05FE0444B38
:104500001B6841F2883118464AF029FE414A4C495D
:10451000424869F01FFE4148FBF7ECFE03469CB29F
:104520003E48FBF7E7FE034622463C493C4846F03E
:10453000BFFD374B1B6818464AF05CFE61E0344B08
:104540001B6841F2883118464AF009FE314A3D495C
:10455000324869F0FFFD3148FBF7CCFE03469CB2C0
:104560002E48FBF7C7FE034622462C492C4846F04E
:104570009FFD274B1B6818464AF03CFE41E0244B48
:104580001B6841F2883118464AF0E9FD214A2E495C
:10459000224869F0DFFD2148FBF7ACFE03469CB2E0
:1045A0001E48FBF7A7FE034622461C491C4846F05E
:1045B0007FFD174B1B6818464AF01CFE21E0144B88
:1045C0001B6841F2883118464AF0C9FD174B1B7829
:1045D000104A1E49114869F0BDFD1048FBF78AFEDC
:1045E00003469CB20D48FBF785FE034622460B4965
:1045F0000B4846F05DFD064B1B6818464AF0FAFD75
:1046000000BF094B1B7818461437BD4690BD00BF4C
:1046100088D50024B4C30708641C0708DCD500242F
:10462000D0640024AC0801240A1501240B150124D0
:10463000C0080124841C0708E41C070864650024E2
:10464000441D0708801D0708D01D0708481E0708DD
:1046500080B483B000AF0346FB71144BDB7C1A4679
:10466000124B1344FA791A75104BDB7C0133DAB222
:104670000E4BDA740E4B5B78032B0AD90C4B5B782C
:10468000033BDAB2094B83F8C920084B04221A74A1
:1046900006E0064B012283F8C920044B05221A7458
:1046A00000BF0C37BD465DF8047B7047AC080124A1
:1046B000C008012480B483B000AF0346FB71144BE3
:1046C00093F8C930013BDAB2114B83F8C920104B83
:1046D000DB7C1A460E4B1344FA791A750C4BDB7CC3
:1046E0000133DAB20A4BDA74094BDB7CB32B05D801
:1046F000074BDA7C074B5B789A4202D9044B0522C0
:104700001A7400BF0C37BD465DF8047B704700BFCC
:10471000AC080124C008012498B500AF194B1B68F0
:1047200041F2883118464AF01AFD174A17491848CD
:1047300069F010FD1648FBF7DDFD03469CB21448F6
:10474000FBF7D8FD034622461149124846F0B0FC5B
:104750000C4B1B6818464AF04DFD0F4B00221A7493
:104760000D4B002283F8C8200B4B00221A700A4B15
:1047700000221A72084B00225A60074B0022DA60AE
:1047800000BF98BD88D50024CCC30708901E070839
:10479000DCD50024D0640024AC08012490B583B09B
:1047A00000AF0346FB71FB79022B02D9FB79B42BD6
:1047B0002DD9214B1B6841F2883118464AF0CFFCB5
:1047C000FB791E4A1E491F4869F0C4FC1D48FBF7CF
:1047D00091FD03469CB21B48FBF78CFD0346224625
:1047E0001849194846F064FC134B1B6818464AF0F8
:1047F00001FD164B00221A74144B002283F8C820C6
:10480000124B00221A72114B0022DA6010E00F4B9B
:1048100002221A740D4BDB7C1A460C4B1344FA79B6
:104820001A750A4BDB7C0133DAB2084BDA7400BF2D
:1048300000BF0C37BD4690BD88D50024E4C30708EF
:10484000AC1E0708DCD50024D0640024AC08012489
:1048500090B585B002AF0346FB719F4B00221A70E2
:10486000FB79012B39D19D4B1B6841F288311846E9
:104870004AF075FC9A4A9B499B4869F06BFC9A4840
:10488000FBF738FD03469CB29748FBF733FD034620
:1048900022469549954846F00BFC904B1B681846FC
:1048A0004AF0A8FC924B01221A74914B0022DA7450
:1048B0008F4B012283F8C8208D4BDB7C1A468C4B32
:1048C0001344FA791A758A4BDB7C0133DAB2884BD0
:1048D000DA74874B00221A72F9E1854B9B7C002B1E
:1048E00000F03781FB79062B02D0FB79152B0ED116
:1048F0007F4B00229A747E4B00221A707C4B002260
:104900001A727B4B00225A60794B0022DA60FB79E5
:10491000062B22D1714B1B6841F2883118464AF0B0
:104920001EFC6F4A7349704869F014FC6E48FBF72F
:10493000E1FC03469CB26C48FBF7DCFC03462246D4
:1049400069496A4846F0B4FB644B1B6818464AF054
:1049500051FC614B02221A70B9E1FB79152B22D16F
:104960005E4B1B6841F2883118464AF0F8FB5C4AFE
:1049700061495D4869F0EEFB5B48FBF7BBFC034611
:104980009CB25948FBF7B6FC0346224656495748A5
:1049900046F08EFB514B1B6818464AF02BFC4E4BE1
:1049A00005221A7093E1FB790133544A13441B78B2
:1049B00003F09703002B23D0484B1B6841F288314A
:1049C00018464AF0CCFBFA79FB7900931346444A27
:1049D0004B49454869F0BEFB4348FBF78BFC034657
:1049E0009CB24148FBF786FC034622463E493F48BD
:1049F00046F05EFB394B1B6818464AF0FBFB66E14C
:104A0000FB79182B47D0182B00F38280062B02D09D
:104A1000152B20D07CE0314B1B6841F288311846C1
:104A20004AF09DFB2E4A37492F4869F093FB2E48E8
:104A3000FBF760FC03469CB22B48FBF75BFC03468C
:104A400022462949294846F033FB244B1B68184667
:104A50004AF0D0FB3BE1214B1B6841F288311846FC
:104A60004AF07DFB1E4A28491F4869F073FB1E4827
:104A7000FBF740FC03469CB21B48FBF73BFC03469C
:104A800022461949194846F013FB144B1B68184677
:104A90004AF0B0FB1BE1114B1B6841F2883118460C
:104AA0004AF05DFB0E4A19490F4869F053FB0E4866
:104AB000FBF720FC03469CB20B48FBF71BFC0346AC
:104AC00022460949094846F0F3FA044B1B68184688
:104AD0004AF090FBFBE000BF0C15012488D50024B0
:104AE000F8C30708E01E0708DCD50024D0640024C2
:104AF000AC080124F81E0708101F070828FD070846
:104B0000281F0708581F07087C1F0708A01F070851
:104B1000724B1B6841F2883118464AF020FBFB7942
:104B20006F4A7049704869F015FB6F48FBF7E2FB6C
:104B300003469CB26C48FBF7DDFB034622466A49FC
:104B40006A4846F0B5FA654B1B6818464AF052FBB6
:104B5000BDE0FB790133664A13441B7803F09703E9
:104B6000002B23D05D4B1B6841F2883118464AF078
:104B7000F6FAFA79FB7900931346594A5D495A4887
:104B800069F0E8FA5848FBF7B5FB03469CB2564873
:104B9000FBF7B0FB034622465349544846F088FAD7
:104BA0004E4B1B6818464AF025FB8AE0FB79182B10
:104BB00046D0182B64DC062B02D0152B20D05FE0EA
:104BC000464B1B6841F2883118464AF0C8FA444AFD
:104BD0004949454869F0BEFA4348FBF78BFB034659
:104BE0009CB24148FBF786FB034622463E493F48BC
:104BF00046F05EFA394B1B6818464AF0FBFA60E053
:104C0000364B1B6841F2883118464AF0A8FA344AFC
:104C10003A49354869F09EFA3348FBF76BFB034687
:104C20009CB23148FBF766FB034622462E492F48CB
:104C300046F03EFA294B1B6818464AF0DBFA40E082
:104C4000264B1B6841F2883118464AF088FA244AFC
:104C50002B49254869F07EFA2348FBF74BFB0346B6
:104C60009CB22148FBF746FB034622461E491F48DB
:104C700046F01EFA194B1B6818464AF0BBFA20E0B2
:104C8000164B1B6841F2883118464AF068FAFB79E6
:104C9000134A1449144869F05DFA1348FBF72AFBDC
:104CA00003469CB21048FBF725FB034622460E49FB
:104CB0000E4846F0FDF9094B1B6818464AF09AFA6F
:104CC00000BF104B00221A700E4B00225A600E4B90
:104CD0001B7818460C37BD4690BD00BF88D5002410
:104CE000F8C30708C41F0708DCD50024D0640024DB
:104CF00028FD0708281F0708581F07087C1F0708FA
:104D0000A01F0708AC0801240C15012490B583B03E
:104D100000AF0346FB71FB79012B4CD9514B1B684B
:104D200041F2883118464AF01AFAFB794E4A4F4947
:104D30004F4869F00FFA4E48FBF7DCFA03469CB285
:104D40004B48FBF7D7FA034622464949494846F003
:104D5000AFF9444B1B6818464AF04CFA414B1B68AC
:104D600041F2883118464AF0FAF93F4A4249404830
:104D700069F0F0F93E48FBF7BDFA03469CB23C48A7
:104D8000FBF7B8FA0346224639493A4846F090F90B
:104D9000344B1B6818464AF02DFA384B00221A741F
:104DA000364B002283F8C820344B00221A72334B52
:104DB0000022DA6051E0FB79002B1FD1294B1B68E0
:104DC00041F2883118464AF0CAF9274A2C49284846
:104DD00069F0C0F92648FBF78DFA03469CB22448D7
:104DE000FBF788FA034622462149224846F060F93B
:104DF0001C4B1B6818464AF0FDF91EE0194B1B6856
:104E000041F2883118464AF0AAF9174A1D49184854
:104E100069F0A0F91648FBF76DFA03469CB21448F6
:104E2000FBF768FA034622461149124846F040F95A
:104E30000C4B1B6818464AF0DDF9104B03221A741C
:104E40000E4BDB7C1A460D4B1344FA791A750B4B4B
:104E5000DB7C0133DAB2094BDA7400BF0C37BD4694
:104E600090BD00BF88D500240CC40708F01F0708B8
:104E7000DCD50024D06400244C200708AC080124B1
:104E8000742007089420070890B583B000AF03464C
:104E9000FB71FB79013B032B00F28C8001A252F8DD
:104EA00023F000BFB54E0008754F0008354F0008CD
:104EB000F54E0008524B1B6841F2883118464AF003
:104EC0004EF9504A5049514869F044F94F48FBF7B0
:104ED00011FA03469CB24D48FBF70CFA03462246F2
:104EE0004A494B4846F0E4F8454B1B6818464AF0DF
:104EF00081F980E0424B1B6841F2883118464AF044
:104F00002EF9404A4349414869F024F93F48FBF7EC
:104F1000F1F903469CB23D48FBF7ECF90346224603
:104F20003A493B4846F0C4F8354B1B6818464AF0EE
:104F300061F960E0324B1B6841F2883118464AF053
:104F40000EF9304A3449314869F004F92F48FBF72B
:104F5000D1F903469CB22D48FBF7CCF90346224613
:104F60002A492B4846F0A4F8254B1B6818464AF0FE
:104F700041F940E0224B1B6841F2883118464AF063
:104F8000EEF8204A2549214869F0E4F81F48FBF76C
:104F9000B1F903469CB21D48FBF7ACF90346224623
:104FA0001A491B4846F084F8154B1B6818464AF00E
:104FB00021F920E0124B1B6841F2883118464AF073
:104FC000CEF8FB790F4A1649104869F0C3F80F482C
:104FD000FBF790F903469CB20C48FBF78BF90346AC
:104FE00022460A490A4846F063F8054B1B681846F2
:104FF0004AF000F900BF00BF0C37BD4690BD00BFAE
:1050000088D5002420C40708B4200708DCD5002474
:10501000D0640024DC200708142107083421070885
:105020005C21070890B583B000AF0346FB71FB79A4
:10503000A12B00F34D81002B40F3CA84013BA02B30
:1050400000F2C68401A252F823F000BF9953000871
:1050500055560008D9520008195300081159000884
:105060005159000891590008955700081558000833
:10507000D1590008D1590008D1590008D159000868
:10508000D15900089954000895560008D5560008D3
:105090001557000855570008D15900085558000801
:1050A000D5570008D9540008D1580008D159000834
:1050B000D1590008D1590008D1590008D159000828
:1050C000D1590008D1590008D555000815560008D7
:1050D000D1590008D1590008D1590008D159000808
:1050E000D1590008D1590008D1590008D1590008F8
:1050F000D1590008D1590008D1590008D1590008E8
:10510000D1590008D159000819540008D953000892
:10511000D1590008D1590008D1590008D1590008C7
:10512000D1590008D1590008D1590008D1590008B7
:10513000D1590008D1590008D1590008D1590008A7
:10514000D1590008D159000859530008D159000815
:10515000D1590008D1590008D1590008D159000887
:10516000D1590008D1590008D1590008D159000877
:10517000D1590008D1590008D1590008D159000867
:10518000D1590008D159000819550008D159000813
:10519000D1590008D1590008D1590008D159000847
:1051A000D1590008D1590008D1590008D159000837
:1051B000D1590008D1590008D1590008D159000827
:1051C000D1590008D1590008D1590008D159000817
:1051D000D1590008D1590008D1590008D159000807
:1051E000D1590008D1590008D1590008D1590008F7
:1051F000D1590008D1590008D1590008D1590008E7
:10520000D1590008D1590008D1590008D1590008D6
:10521000D1590008D1590008D1590008D1590008C6
:10522000D1590008D1590008D1590008D1590008B6
:10523000D1590008D1590008D1590008D1590008A6
:10524000D1590008D1590008D1590008D159000896
:10525000D1590008D1590008D1590008D159000886
:10526000D1590008D1590008D1590008D159000876
:10527000D1590008D1590008D1590008D159000866
:10528000D1590008D1590008D1590008D159000856
:10529000D1590008D1590008D1590008D159000846
:1052A000D1590008D1590008D1590008D159000836
:1052B000D1590008D1590008D1590008D159000826
:1052C000D1590008D1590008D15900085955000892
:1052D000FF2B00F0C1807BE3AF4B1B6841F28831AC
:1052E000184649F03CFFAD4AAD49AE4868F032FF80
:1052F000AC48FAF7FFFF03469CB2AA48FAF7FAFF58
:1053000003462246A749A84845F0D2FEA24B1B6897
:10531000184649F06FFF7CE39F4B1B6841F28831D0
:10532000184649F01CFF9D4AA0499E4868F012FFAC
:105330009C48FAF7DFFF03469CB29A48FAF7DAFF77
:10534000034622469749984845F0B2FE924B1B68A7
:10535000184649F04FFF5CE38F4B1B6841F28831E0
:10536000184649F0FCFE8D4A91498E4868F0F2FEDD
:105370008C48FAF7BFFF03469CB28A48FAF7BAFF97
:10538000034622468749884845F092FE824B1B68B7
:10539000184649F02FFF3CE37F4B1B6841F28831F0
:1053A000184649F0DCFE7D4A82497E4868F0D2FE0C
:1053B0007C48FAF79FFF03469CB27A48FAF79AFFB7
:1053C000034622467749784845F072FE724B1B68C7
:1053D000184649F00FFF1CE36F4B1B6841F2883100
:1053E000184649F0BCFE6D4A73496E4868F0B2FE3B
:1053F0006C48FAF77FFF03469CB26A48FAF77AFFD7
:10540000034622466749684845F052FE624B1B68D6
:10541000184649F0EFFEFCE25F4B1B6841F2883111
:10542000184649F09CFE5D4A64495E4868F092FE69
:105430005C48FAF75FFF03469CB25A48FAF75AFFF6
:10544000034622465749584845F032FE524B1B68E6
:10545000184649F0CFFEDCE24F4B1B6841F2883121
:10546000184649F07CFE4D4A55494E4868F072FE98
:105470004C48FAF73FFF03469CB24A48FAF73AFF16
:10548000034622464749484845F012FE424B1B68F6
:10549000184649F0AFFEBCE23F4B1B6841F2883131
:1054A000184649F05CFE3D4A46493E4868F052FEC7
:1054B0003C48FAF71FFF03469CB23A48FAF71AFF36
:1054C000034622463749384845F0F2FD324B1B6807
:1054D000184649F08FFE9CE22F4B1B6841F2883141
:1054E000184649F03CFE2D4A37492E4868F032FEF6
:1054F0002C48FAF7FFFE03469CB22A48FAF7FAFE58
:10550000034622462749284845F0D2FD224B1B6816
:10551000184649F06FFE7CE21F4B1B6841F2883150
:10552000184649F01CFE1D4A28491E4868F012FE24
:105530001C48FAF7DFFE03469CB21A48FAF7DAFE77
:10554000034622461749184845F0B2FD124B1B6826
:10555000184649F04FFE5CE20F4B1B6841F2883160
:10556000184649F0FCFD0D4A19490E4868F0F2FD55
:105570000C48FAF7BFFE03469CB20A48FAF7BAFE97
:10558000034622460749084845F092FD024B1B6836
:10559000184649F02FFE3CE288D5002444C4070891
:1055A00098210708DCD50024D0640024B421070822
:1055B000C8210708E0210708FC2107080C2207087A
:1055C00024220708402207085C22070874220708E3
:1055D00090220708AF4B1B6841F28831184649F00A
:1055E000BEFDAD4AAD49AE4868F0B4FDAC48FAF72F
:1055F00081FE03469CB2AA48FAF77CFE0346224687
:10560000A749A84845F054FDA24B1B68184649F02D
:10561000F1FDFEE19F4B1B6841F28831184649F0CD
:105620009EFD9D4AA0499E4868F094FD9C48FAF76B
:1056300061FE03469CB29A48FAF75CFE0346224696
:105640009749984845F034FD924B1B68184649F03D
:10565000D1FDDEE18F4B1B6841F28831184649F0DD
:105660007EFD8D4A91498E4868F074FD8C48FAF7AA
:1056700041FE03469CB28A48FAF73CFE03462246A6
:105680008749884845F014FD824B1B68184649F04D
:10569000B1FDBEE17F4B1B6841F28831184649F0ED
:1056A0005EFD7D4A82497E4868F054FD7C48FAF7E9
:1056B00021FE03469CB27A48FAF71CFE03462246B6
:1056C0007749784845F0F4FC724B1B68184649F05E
:1056D00091FD9EE16F4B1B6841F28831184649F0FD
:1056E0003EFD6D4A73496E4868F034FD6C48FAF728
:1056F00001FE03469CB26A48FAF7FCFD03462246C7
:105700006749684845F0D4FC624B1B68184649F06D
:1057100071FD7EE15F4B1B6841F28831184649F00C
:105720001EFD5D4A64495E4868F014FD5C48FAF766
:10573000E1FD03469CB25A48FAF7DCFD03462246D7
:105740005749584845F0B4FC524B1B68184649F07D
:1057500051FD5EE14F4B1B6841F28831184649F01C
:10576000FEFC4D4A55494E4868F0F4FC4C48FAF7A7
:10577000C1FD03469CB24A48FAF7BCFD03462246E7
:105780004749484845F094FC424B1B68184649F08D
:1057900031FD3EE13F4B1B6841F28831184649F02C
:1057A000DEFC3D4A46493E4868F0D4FC3C48FAF7E6
:1057B000A1FD03469CB23A48FAF79CFD03462246F7
:1057C0003749384845F074FC324B1B68184649F09D
:1057D00011FD1EE12F4B1B6841F28831184649F03C
:1057E000BEFC2D4A37492E4868F0B4FC2C48FAF725
:1057F00081FD03469CB22A48FAF77CFD0346224607
:105800002749284845F054FC224B1B68184649F0AC
:10581000F1FCFEE01F4B1B6841F28831184649F04D
:105820009EFC1D4A28491E4868F094FC1C48FAF763
:1058300061FD03469CB21A48FAF75CFD0346224616
:105840001749184845F034FC124B1B68184649F0BC
:10585000D1FCDEE00F4B1B6841F28831184649F05D
:105860007EFC0D4A19490E4868F074FC0C48FAF7A2
:1058700041FD03469CB20A48FAF73CFD0346224626
:105880000749084845F014FC024B1B68184649F0CC
:10589000B1FCBEE088D5002444C40708A82207084C
:1058A000DCD50024D0640024C0220708DC220708CD
:1058B000F8220708102307082C23070844230708A9
:1058C0005C2307087023070888230708A423070818
:1058D000524B1B6841F28831184649F040FC504A4F
:1058E0005049514868F036FC4F48FAF703FD03462B
:1058F0009CB24D48FAF7FEFC034622464A494B4803
:1059000045F0D6FB454B1B68184649F073FC80E018
:10591000424B1B6841F28831184649F020FC404A4E
:105920004349414868F016FC3F48FAF7E3FC034658
:105930009CB23D48FAF7DEFC034622463A493B4812
:1059400045F0B6FB354B1B68184649F053FC60E048
:10595000324B1B6841F28831184649F000FC304A4E
:105960003449314868F0F6FB2F48FAF7C3FC034688
:105970009CB22D48FAF7BEFC034622462A492B4822
:1059800045F096FB254B1B68184649F033FC40E078
:10599000224B1B6841F28831184649F0E0FB204A4F
:1059A0002549214868F0D6FB1F48FAF7A3FC0346B7
:1059B0009CB21D48FAF79EFC034622461A491B4832
:1059C00045F076FB154B1B68184649F013FC20E0A8
:1059D000124B1B6841F28831184649F0C0FBFB7935
:1059E0000F4A1649104868F0B5FB0F48FAF782FCD9
:1059F00003469CB20C48FAF77DFC034622460A494E
:105A00000A4845F055FB054B1B68184649F0F2FB68
:105A100000BF00BF0C37BD4690BD00BF88D5002435
:105A200044C40708B8230708DCD50024D064002448
:105A3000D4230708F02307080424070824240708B0
:105A400090B583B000AF03460A46FB711346BB71A5
:105A5000FB79402B40F0B481BB79013B0A2B00F26B
:105A60008F8101A252F823F0955A0008D55A0008F8
:105A7000155B0008555B0008955B0008D55B0008C6
:105A8000155C0008555C0008955C0008D55C0008B2
:105A9000155D0008AF4B1B6841F28831184649F08C
:105AA0005EFBAD4AAD49AE4868F054FBAC48FAF72E
:105AB00021FC03469CB2AA48FAF71CFC0346224686
:105AC000A749A84845F0F4FAA24B1B68184649F0CC
:105AD00091FB75E19F4B1B6841F28831184649F0F4
