:020000040800F2
:10000000000008248507010839040108410401089B
:1000100049040108510401085904010800000000C6
:10002000000000000000000000000000B1A604086D
:10003000610401080000000001A904081D970408DC
:10004000D9070108D9070108D9070108D90701080C
:10005000D9070108D9070108D9070108D9070108FC
:100060006F040108D9070108D9070108D907010859
:10007000D9070108D9070108D9070108D9070108DC
:10008000D9070108D9070108D9070108D9070108CC
:10009000D9070108D9070108D9070108D9070108BC
:1000A000D9070108D9070108D9070108D9070108AC
:1000B000D9070108D9070108D9070108D90701089C
:1000C000D9070108D9070108D9070108D90701088C
:1000D000D90701087D04010891040108D907010826
:1000E000D9070108D907010800000000D907010855
:1000F000D9070108D9070108D9070108D90701085C
:10010000D9070108D9070108D9070108D90701084B
:10011000D9070108D9070108A5040108D907010872
:10012000D9070108D9070108D9070108D90701082B
:10013000D9070108D9070108D9070108D90701081B
:10014000D9070108D90701080000000000000000DD
:10015000D9070108D9070108D9070108D9070108FB
:10016000D9070108D9070108D9070108D9070108EB
:10017000D9070108D9070108D907010800000000C4
:10018000D9070108D9070108D9070108D9070108CB
:10019000D9070108D9070108D9070108D9070108BB
:1001A000B9040108D9070108CD040108D9070108DD
:1001B000E1040108D9070108D9070108D907010896
:1001C000D9070108D9070108D9070108D90701088B
:1001D000D9070108D9070108D9070108D90701087B
:1001E000D9070108D9070108D9070108D90701086B
:1001F000D9070108D9070108D9070108D90701085B
:10020000D9070108D9070108D9070108D90701084A
:10021000D9070108D9070108D9070108D90701083A
:10022000D9070108F50401080905010800000000CC
:10023000D9070108D9070108D9070108D90701081A
:10024000D9070108D9070108D9070108D90701080A
:10025000D9070108D9070108D9070108D9070108FA
:10026000D9070108D9070108D9070108D9070108EA
:10027000D9070108D9070108D9070108D9070108DA
:10028000D9070108D9070108D907010800000000B3
:08029000D9070108D907010894
:1002A00010B5054C237833B9044B13B10448AFF3B0
:1002B00000800123237010BDE05E002400000000D8
:1002C00078AF060808B5034B1BB103490348AFF3E9
:1002D000008008BD00000000E45E002478AF06083E
:1002E00010F8012B11F8013B012A28BF9A42F7D0E0
:1002F000D01A7047034613F8012B002AFBD1181AB5
:1003000001387047000000000000000000000000FD
:1003100001F0FF01102A2BDB10F0070F08D010F8B6
:10032000013B013A8B422DD010F0070F42B3F6D1BA
:10033000F0B441EA012141EA014122F007047FF0D3
:1003400000070023F0E80256083C85EA010586EA2A
:10035000010685FA47F5A3FA87F586FA47F6A5FA66
:1003600087F68EB9EED1F0BC01F0FF0102F0070272
:1003700032B110F8013B013A83EA010313B1F8D11D
:100380000020704701387047002D06BF35460338FE
:10039000073815F0010F07D1013015F4807F02BF37
:1003A000013015F4C03F0130F0BC0138704700BF88
:1003B00081F0004102E000BF83F0004330B54FEA16
:1003C00041044FEA430594EA050F08BF90EA020F83
:1003D0001FBF54EA000C55EA020C7FEA645C7FEA16
:1003E000655C00F0E2804FEA5454D4EB5555B8BF39
:1003F0006D420CDD2C4480EA020281EA030382EAAA
:10040000000083EA010180EA020281EA0303362D3B
:1004100088BF30BD11F0004F4FEA01314FF4801C0E
:100420004CEA113102D0404261EB410113F0004F20
:100430004FEA03334CEA133302D0524263EB4303D7
:1004400094EA050F00F0A780A4F10104D5F1200E75
:100450000DDB02FA0EFC22FA05F2801841F10001D0
:1004600003FA0EF2801843FA05F359410EE0A5F1A4
:1004700020050EF1200E012A03FA0EFC28BF4CF0D5
:10048000020C43FA05F3C01851EBE37101F000458B
:1004900007D54FF0000EDCF1000C7EEB00006EEB98
:1004A0000101B1F5801F1BD3B1F5001F0CD3490822
:1004B0005FEA30004FEA3C0C04F101044FEA445279
:1004C00012F5800F80F09A80BCF1004F08BF5FEA00
:1004D000500C50F1000041EB045141EA050130BDE0
:1004E0005FEA4C0C404141EB0101013C28BFB1F5F2
:1004F000801FE9D291F0000F04BF01460020B1FA3D
:1005000081F308BF2033A3F10B03B3F120020CDA0F
:100510000C3208DD02F1140CC2F10C0201FA0CF0ED
:1005200021FA02F10CE002F11402D8BFC2F1200C52
:1005300001FA02F120FA0CFCDCBF41EA0C01904008
:10054000E41AA2BF01EB0451294330BD6FEA040451
:100550001F3C1CDA0C340EDC04F11404C4F120023C
:1005600020FA04F001FA02F340EA030021FA04F34E
:1005700045EA030130BDC4F10C04C4F1200220FAA5
:1005800002F001FA04F340EA0300294630BD21FAE3
:1005900004F0294630BD94F0000F83F4801306BFA9
:1005A00081F480110134013D4EE77FEA645C18BF9D
:1005B0007FEA655C29D094EA050F08BF90EA020F34
:1005C00005D054EA000C04BF1946104630BD91EA2C
:1005D000030F1EBF0021002030BD5FEA545C05D12F
:1005E0004000494128BF41F0004130BD14F580046E
:1005F0003CBF01F5801130BD01F0004545F0FE41E2
:1006000041F470014FF0000030BD7FEA645C1ABF16
:10061000194610467FEA655C1CBF0B46024650EA4D
:10062000013406BF52EA033591EA030F41F4002179
:1006300030BD00BF90F0000F04BF0021704730B5FF
:100640004FF4806404F132044FF000054FF00001D4
:1006500050E700BF90F0000F04BF0021704730B595
:100660004FF4806404F1320410F0004548BF40426A
:100670004FF000013EE700BF42004FEAE2014FEABF
:1006800031014FEA02701FBF12F07F4393F07F4F9A
:1006900081F06051704732F07F4208BF704793F09D
:1006A0007F4F04BF41F40021704730B54FF46074B0
:1006B00001F0004521F000411CE700BF50EA0102B3
:1006C00008BF704730B54FF000050AE050EA01025C
:1006D00008BF704730B511F0004502D5404261EBCC
:1006E00041014FF4806404F132045FEA915C3FF40D
:1006F000D8AE4FF003025FEADC0C18BF03325FEAAA
:10070000DC0C18BF033202EBDC02C2F1200300FA5A
:1007100003FC20FA02F001FA03FE40EA0E0021FA7F
:1007200002F11444BDE600BF7BB972B90029BEBF17
:1007300000204FF0004106E008BF00281CBF6FF00A
:1007400000414FF0FF3000F0D3B9ADF1080C6DE976
:1007500004CE002909DB002B1ADB00F04DF8DDF890
:1007600004E0DDE9022304B07047404261EB41013F
:10077000002B1BDB00F040F8DDF804E0DDE902238C
:1007800004B0404261EB4101524263EB43037047C6
:10079000524263EB430300F02FF8DDF804E0DDE99B
:1007A000022304B0404261EB41017047524263EBC7
:1007B000430300F021F8DDF804E0DDE9022304B092
:1007C000524263EB4303704753B94AB9002908BF4B
:1007D00000281CBF4FF0FF314FF0FF3000F088B908
:1007E000ADF1080C6DE904CE00F006F8DDF804E088
:1007F000DDE9022304B070472DE9F047089D8E46DD
:1008000004468846002B4AD18A42174662D9B2FA7A
:1008100082F64EB1C6F1200301FA06F820FA03F37E
:10082000B74043EA0808B4404FEA174E1FFA87FC66
:10083000B8FBFEF1230C0EFB118843EA084301FBD1
:100840000CF29A4209D9FB1801F1FF3080F0EA80DE
:100850009A4240F2E78002393B449A1AA3B2B2FBB3
:10086000FEF00EFB102243EA024300FB0CFC9C4509
:1008700009D9FB1800F1FF3280F0D6809C4540F288
:10088000D3803B44023840EA0140A3EB0C03002133
:100890001DB1F3400022C5E90032BDE8F0878B426C
:1008A00005D90DB1C5E9000100210846F5E7B3FA05
:1008B00083F1002946D1734502D3824200F20581BB
:1008C000841A6EEB030201209046002DE5D0C5E9A5
:1008D0000048E2E7002A00F09080B2FA82F6002E8B
:1008E00040F0A4808A1A030C4FEA174E80B2BCB2C3
:1008F0000121B2FBFEFC0EFB1C2243EA024304FB77
:100900000CF29A4207D9FB180CF1FF3802D29A4236
:1009100000F2E080C4469B1AB3FBFEF20EFB1233DA
:1009200040EA034302FB04F49C4207D9FB1802F19E
:10093000FF3002D29C4200F2CA8002461B1B42EAF0
:100940000C40A5E7C1F120068B4022FA06F71F43B1
:100950000EFA01F420FA06F32EFA06FE4FEA1749C2
:10096000234300FA01F81FFA87FCBEFBF9F01C0CC8
:1009700009FB10EE44EA0E4400FB0CFEA64502FA09
:1009800001F209D93C1900F1FF3A80F09C80A6459C
:1009900040F2998002383C44A4EB0E041FFA83FE17
:1009A000B4FBF9F309FB13444EEA044403FB0CFCCB
:1009B000A44508D93C1903F1FF3E80F08280A4458C
:1009C0007FD9023B3C4443EA0040A4EB0C04A0FB6B
:1009D00002EC64457346E14662D35FD05DB1B8EB8B
:1009E000030264EB090404FA06F622FA01F31E433B
:1009F000CC40C5E9006400214FE7B1FBF2FC010CDB
:100A000041EA0E4180B240EA01423B4638463C464C
:100A1000B846BE462026B1FBF7F1A2EB080241EA38
:100A20000C4166E7014618E710462CE7C6F12002A4
:100A30002EFA02F3B740B14020FA02F24FEA174E05
:100A40000A43B3FBFEF8BCB20EFB1833110C41EAAB
:100A5000034108FB04F9B04089454FEA104380B2D6
:100A60003ED9791808F1FF3C01D289451FD8A1EB86
:100A70000901B1FBFEF909FB04F80EFB191192B252
:100A800042EA0142424529D2BA1809F1FF31C4D2E3
:100A90004245C2D2A9F102013A44BEE7F0459DD2D7
:100AA000BEEB02036CEB070C0138E14696E7A7EBBF
:100AB00009094944A8F1020CB1FBFEF909FB04F84D
:100AC000DBE773467FE7504666E70846FDE63B44B2
:100AD000023A33E7ACF1020C3B441CE749469CE781
:100AE000A1EB0901C446B1FBFEF909FB04F8C4E718
:100AF000704700BF80B584B000AF0EF077FC774B35
:100B00005B6903F40033002B1BD1BFF34F8F00BF91
:100B1000BFF36F8F00BF714B0022C3F85022BFF3A9
:100B20004F8F00BFBFF36F8F00BF6C4B5B696B4A89
:100B300043F400335361BFF34F8F00BFBFF36F8F98
:100B400000E000BF654B5B6903F48033002B38D1B4
:100B5000624B0022C3F88420BFF34F8F00BF5F4B6E
:100B6000D3F88030FB60FB685B0BC3F30E03BB6004
:100B7000FB68DB08C3F309037B60BB685A0143F6DB
:100B8000E07313407A68920754491343C1F8603206
:100B90007B685A1E7A60002BEFD1BB685A1EBA6080
:100BA000002BE5D1BFF34F8F00BF4C4B5B694B4A25
:100BB00043F480335361BFF34F8F00BFBFF36F8F98
:100BC00000E000BF36F060FB00F0C8F800F004FC65
:100BD00000F08CFB00F0AAFB00F0DCF900F046F915
:100BE00000F066F900F0C2F900F058FA00F07EF962
:100BF00000F0E4FA00F096FA0FF05AFD00F0BAFAAD
:100C000000F028FB00F078FA0FF0EEFD0FF0E5FDA4
:100C100048F09EFD324848F092FE0346314A136088
:100C2000314A0221402049F0B7F803462F4A1360A9
:100C30002F4A0221402049F0AFF803462D4A1360A5
:100C40002D4A01214FF4006049F0A6F803462B4AD3
:100C500013602B4A01214FF4807049F09DF8034640
:100C6000284A1360284A0021284848F0BBFD034663
:100C7000274A1360274A0021274848F0B3FD03465E
:100C8000264A1360264A0021264848F0ABFD034659
:100C9000254A1360254A0021254848F0A3FD034654
:100CA000244A1360244A0021244848F09BFD03464F
:100CB000234A1360234A0021234848F093FD03464A
:100CC000224A1360224A0021224848F08BFD034645
:100CD000214A136048F060FD00BFFDE700ED00E031
:100CE000B04B070868D50024504B070818CA0024E9
:100CF000684B0708ECCA0024804B0708C0CB0024CF
:100D0000984B070814D40024544A0708D9E3000874
:100D10000C660024784A0708F9070108B876002411
:100D20009C4A070889EE0008BC760024C04A0708E0
:100D3000EDEE000868870024E44A070869EF000820
:100D400014980024084B0708CDEF0008C0A8002421
:100D50002C4B070831F000086CB9002480B59CB01A
:100D600000AF07F124034C220021184667F047FE2C
:100D70003B1D20220021184667F041FE04203DF073
:100D80005FFD00233B60374BDB6A364A23F00103EB
:100D9000D362344BDB6A03F001033B60324B9B6947
:100DA000314A43F4404393612F4B9B6903F4404322
:100DB0003B603B6800BF2C4B9B6903F40053B3F5C9
:100DC000005FF8D12B237B624FF48033BB62012399
:100DD0003B6340237B630123BB630123FB6302234B
:100DE000BB640223FB6405233B65A0237B650223D0
:100DF000BB650423FB6502233B6608237B66002357
:100E0000BB660023FB6607F1240318463EF0FCFF97
:100E10000346002B01D00EF033FB3F237B600323FE
:100E2000BB600023FB6008233B6140237B614023C0
:100E3000BB614FF48063FB6140233B623B1D022199
:100E400018463FF091FD0346002B01D00EF018FB31
:100E50004FF480220021002040F0F6F800BF7037E8
:100E6000BD4680BD000400580048025880B500AF60
:100E70000D4B0E4A1A600C4B00221A710A4B0022CD
:100E80005A71094B00225A61074B00229A61064BA6
:100E900001221A62044836F07DFD0346002B01D082
:100EA0000EF0EEFA00BF80BDFC5E0024004C02583C
:100EB00080B500AF0B4B0C4A1A600A4B4FF440321E
:100EC0005A60084B02229A60064B0022DA600548FD
:100ED00037F01CFC0346002B01D00EF0D1FA00BF06
:100EE00080BD00BF205F00240010005280B500AF1D
:100EF0001B4B1C4A1A601A4B1B4A5A60184B0022A3
:100F00009A60174B0122DA60154B00221A61144BCC
:100F100000225A61124B00229A61114B0022DA61C1
:100F20000F4B00221A620E4838F062FA0346002B7B
:100F300001D00EF0A5FA0021094839F0DDF803468A
:100F4000002B01D00EF09CFA0021054839F04AF937
:100F50000346002B01D00EF093FA00BF80BD00BF06
:100F6000885F0024001C0058B634900080B500AFA4
:100F7000064B074A1A60054839F0A8F90346002BCA
:100F800001D00EF07DFA00BF80BD00BFDC5F002401
:100F90000030005280B58EB000AF0EF0ADFA3B1DB0
:100FA00034220021184667F02AFD3A4B3A4A1A606B
:100FB000384B00225A60374B00229A60354B002292
:100FC000DA60344B00221A61324B28225A61314BCD
:100FD00009229A612F4B3522DA612E4B0B221A62BD
:100FE0002C4B40F215225A622A4B40F21B129A6295
:100FF000284B40F23522DA62264B40F21D121A636A
:10100000244B002283F83420224B002283F8352021
:10101000204B002283F836201E483BF0AFF90346F0
:10102000002B01D00EF02CFA00237B604FF4F073FC
:10103000BB600023FB604FF488733B6102237B613C
:10104000FF23BB610023FB614FF480633B620523F8
:101050007B624FF05043BB624FF4F073FB624FF47E
:1010600088733B63002387F83430002387F83530DA
:10107000002387F836303B1D0022194605483BF017
:101080005BFB0346002B01D00EF0FAF900BF3837A6
:10109000BD4680BD0C6100240010005080B500AF3B
:1010A000124B134A1A60114B01225A600F4B012256
:1010B0009A600E4B1022DA600C4B1A221A610B4B0D
:1010C0004FF400725A61094B00229A61074B40228B
:1010D0001A6206483DF030FC0346002B01D00EF0AA
:1010E000CFF904480EF07CFA00BF80BDB461002443
:1010F0000050005281F4000880B500AF074B084A49
:101100001A60064B00225A60044843F0A9FB0346CC
:10111000002B01D00EF0B4F900BF80BD00620024A6
:101120000018024880B500AF104B114A1A600F4BEF
:1011300000225A600D4B7F229A600C4BFF22DA602E
:101140000A4B00221A61094B00229A61074B0022C8
:10115000DA61064B00225A61044843F053FC03460F
:10116000002B01D00EF08CF900BF80BD146200246A
:101170000040005880B500AF0E4B0F4A1A600D4B6F
:1011800000225A600B4B00229A600A4B4FF4004237
:10119000DA60084B00221A61064B00225A610548AA
:1011A0003CF0B6FB0346002B01D00EF069F900BFFE
:1011B00080BD00BF386200240070005280B500AFCF
:1011C000224B234A1A60214B4FF4E1325A601F4BE5
:1011D00000229A601D4B0022DA601C4B00221A612B
:1011E0001A4B0C225A61194B00229A61174B0022AC
:1011F000DA61164B00221A62144B00225A62134B1A
:1012000000229A62114844F0FBFA0346002B01D0F9
:101210000EF036F900210D4847F0DEF80346002BAA
:1012200001D00EF02DF90021084847F06FF9034670
:10123000002B01D00EF024F9044847F053F8034680
:10124000002B01D00EF01CF900BF80BDB06400245B
:101250000010014080B500AF224B234A1A60214B99
:101260004FF4E1325A601F4B00229A601D4B00225E
:10127000DA601C4B00221A611A4B0C225A61194B7E
:1012800000229A61174B0022DA61164B00221A6283
:10129000144B00225A62134B00229A62114844F008
:1012A000AFFA0346002B01D00EF0EAF800210D48FA
:1012B00047F092F80346002B01D00EF0E1F8002130
:1012C000084847F023F90346002B01D00EF0D8F868
:1012D000044847F007F80346002B01D00EF0D0F881
:1012E00000BF80BD446500240044004080B582B04A
:1012F00000AF0D4BD3F8D4300B4A43F00103C2F8D2
:10130000D430094BD3F8D43003F001037B607B6801
:10131000002205217A2036F035F97A2036F05CF982
:1013200000BF0837BD4680BD0044025880B588B074
:1013300000AF3B1D00221A605A609A60DA601A61A1
:101340005A619A61214B224A1A60204B01225A604D
:101350001E4B00229A601D4B0422DA601B4B1022A8
:101360001A611A4B40225A61184B4FF480729A61ED
:10137000164B0022DA61154B4FF400621A62134BD0
:101380004FF480525A62114B00229A6202237B6012
:101390000623BB600423FB6006233B6102237B61C1
:1013A0000223BB610223FB613B1D1946074843F042
:1013B0008BFD0346002B01D00EF062F805480EF0BD
:1013C00030F900BF2037BD4680BD00BFD86500247E
:1013D0004041005281F4000880B590B000AF07F1A1
:1013E0002C0300221A605A609A60DA601A61A04BDE
:1013F000D3F8E0309E4A43F48063C2F8E0309C4B5F
:10140000D3F8E03003F48063BB62BB6A984BD3F837
:10141000E030974A43F04003C2F8E030944BD3F8F1
:10142000E03003F040037B627B6A914BD3F8E030FD
:101430008F4A43F00803C2F8E0308D4BD3F8E03018
:1014400003F008033B623B6A894BD3F8E030884ADB
:1014500043F00403C2F8E030854BD3F8E03003F0EA
:101460000403FB61FB69824BD3F8E030804A43F40C
:101470008073C2F8E0307E4BD3F8E03003F4807321
:10148000BB61BB697A4BD3F8E030794A43F0100373
:10149000C2F8E030764BD3F8E03003F010037B6104
:1014A0007B69734BD3F8E030714A43F00203C2F812
:1014B000E0306F4BD3F8E03003F002033B613B694F
:1014C0006B4BD3F8E0306A4A43F40073C2F8E03063
:1014D000674BD3F8E03003F40073FB60FB68644BA8
:1014E000D3F8E030624A43F00103C2F8E030604BC9
:1014F000D3F8E03003F00103BB60BB685C4BD3F86A
:10150000E0305B4A43F02003C2F8E030584BD3F898
:10151000E03003F020037B607B68554BD3F8E0306C
:10152000534A43F08003C2F8E030514BD3F8E03027
:1015300003F080033B603B68002208214D4837F0F0
:10154000EFFE01224FF400514B4837F0E9FE002234
:1015500008214A4837F0E4FE00224021484837F08D
:10156000DFFE01220421474837F0DAFE0823FB6240
:1015700001233B6300237B630023BB6307F12C0340
:1015800019463C4837F0B6FA4FF48073FB620223E9
:101590003B6300237B630023BB630023FB6307F1F2
:1015A0002C031946364837F0A5FA4FF40053FB6276
:1015B00001233B6300237B630023BB6307F12C0300
:1015C00019462D4837F096FA0823FB6201233B6346
:1015D00000237B630323BB6307F12C0319462748D1
:1015E00037F088FA0423FB624FF404133B630023B3
:1015F0007B6307F12C031946204837F07BFA4FF440
:101600004063FB6202233B6301237B630323BB63D1
:101610000723FB6307F12C0319461B4837F06AFACE
:101620004023FB6201233B6300237B630323BB63F3
:1016300007F12C031946124837F05CFA0423FB62C9
:1016400001233B6300237B630023BB6307F12C036F
:1016500019460C4837F04EFA00220521082035F0D3
:1016600091FF082035F0B8FF00BF4037BD4680BD70
:1016700000440258000C025800200258001802587A
:1016800000000258002402580004025890B583B0AC
:1016900000AF0446084611461A462346FB7103462E
:1016A000BB710B467B7113463B71FB796433114A66
:1016B0005361BB79013B0F4A13617B790D4AD360BB
:1016C0003B790C4A93603B7E0A4A53603B7F094A50
:1016D0001360084867F0B2FA02460B460649C1E9B2
:1016E0000023054BD3E90023134618460C37BD46AB
:1016F00090BD00BF641101248811012490B583B00E
:1017000000AF7860544B1B68184648F077FC0346DE
:101710009AB2524B1A80514B1B88002B00F09580D7
:101720004F4B1B6841F28831184648F08EF94B4BFD
:101730001B884C4A4C494D4867F0FAF84B48FEF775
:10174000D9FD03469CB24948FEF7D4FD0346224624
:101750004649474844F022F9414B1B68184648F077
:10176000BFF9444B00221A803CE03B4B1868002331
:101770000022414948F0E4FB0346404A13603F4BD6
:101780001B68002B20D0364B1B6841F2883118466D
:1017900048F05BF9394B1B68324A3949334867F0E6
:1017A000C7F83248FEF7A6FD03469CB22F48FEF765
:1017B000A1FD034622462D492D4844F0EFF8284B61
:1017C0001B68184648F08CF92A4B1B881A467B6820
:1017D0001344294A12781A70264B1B8801339AB297
:1017E000244B1A801C4B1B68184648F007FC034624
:1017F000002B05D01F4B1B8840F6FD729342B4D9D5
:101800001C4B1A88154B1A80154B1B6841F2883106
:10181000184648F01AF9114B1B88124A1949134807
:1018200067F086F81148FEF765FD03469CB20F4845
:10183000FEF760FD034622460C490D4844F0AEF821
:10184000074B1B68184648F04BF9044B1B88184699
:101850000C37BD4690BD00BF14D400249011012464
:1018600068D50024C04B070820B00608BCD500246A
:10187000B0640024921101249411012498110124D0
:1018800048B0060880B0060890B583B000AF786015
:101890007B681B682F4A934216D12F4B1A782F4B27
:1018A0001A702F4B1868002300222C4948F0E8FAE0
:1018B00003462C4A1360012227492B4844F0FCF8C8
:1018C00003461A46294B1A707B681B68284A9342C4
:1018D0003BD1284B1A78284B1A70284B18680023E4
:1018E0000022254948F0CCFA03461E4A13601D4BDE
:1018F0001B68002B20D0224B1B6841F28831184610
:1019000048F0A3F8174B1B681E4A1F491F4867F091
:101910000FF81E48FEF7EEFC03469CB21B48FEF78C
:10192000E9FC0346224619490F4844F037F8144BA6
:101930001B68184648F0D4F801220E49144844F0B8
:10194000BBF803461A46094B1A7000BF0C37BD4658
:1019500090BD00BF00100140E9ED00249C1101245E
:1019600014D40024A0110124B0640024A411012483
:1019700000440040E8ED0024A5110124C0CB002460
:1019800068D50024DC4B0708A8B00608BCD50024A5
:101990004465002490B585B000AFF8607B600B46CD
:1019A0007B8113467B727D4B00221A805AE17B7A41
:1019B000002B2AD0794B1B8803F00F039BB2002B1E
:1019C00023D1774B1B6841F28831184648F03DF827
:1019D000724B1B881A467B6813441A467149724839
:1019E00066F0A6FF7048FEF785FC03469CB26E4881
:1019F000FEF780FC034622466B496C4843F0CEFF5D
:101A0000674B1B68184648F06BF8654B1B6841F242
:101A10008831184648F019F8604B1B881A46FB6855
:101A200013441B781A4662495F4866F081FF5E489E
:101A3000FEF760FC03469CB25B48FEF75BFC034686
:101A400022465949594843F0A9FF554B1B6818468F
:101A500048F046F8524B1B6841F28831184647F06F
:101A6000F4FF5449504866F063FF4F48FEF742FCCC
:101A700003469CB24C48FEF73DFC034622464A49C9
:101A80004A4843F08BFF464B1B68184648F028F83D
:101A9000424B1B8803F00F039BB2072B1DD1404B19
:101AA0001B6841F28831184647F0CFFF42493E4853
:101AB00066F03EFF3C48FEF71DFC03469CB23A48E8
:101AC000FEF718FC034622463749384843F066FFC4
:101AD000334B1B68184648F003F8304B1B8803F063
:101AE0000F039BB20F2B40F0B7802D4B1B6841F2C8
:101AF0008831184647F0A9FF2F492B4866F018FF98
:101B00002948FEF7F7FB03469CB22748FEF7F2FB95
:101B1000034622462449254843F040FF204B1B68DA
:101B2000184647F0DDFF1D4B1B880F3B9AB2234B35
:101B30001A806DE0214B1B881A46FB6813441B7802
:101B400001331F4A13441B7803F09703002B3BD04B
:101B5000134B1B6841F28831184647F076FF174B4C
:101B60001B881A46FB6813441B781A4615490E4811
:101B700066F0DEFE0C48FEF7BDFB03469CB20A4849
:101B8000FEF7B8FB034622460749084843F006FF24
:101B9000034B1B68184647F0A3FF33E0A61101244E
:101BA00068D50024E0B00608BCD50024B064002449
:101BB000F4B00608FCB0060800B10608A81101241C
:101BC0008081070808B10608A84B1B6841F28831DC
:101BD000184647F03AFFA649A64866F0A9FEA54870
:101BE000FEF788FB03469CB2A248FEF783FB034640
:101BF0002246A049A04843F0D1FE9C4B1B681846E2
:101C000047F06EFF9D4B1B8801339AB29B4B1A80A5
:101C10009B4B1A88994B1B889A428BD2934B1B681B
:101C200041F28831184647F010FF9649914866F016
:101C30007FFE9048FEF75EFB03469CB28D48FEF7A0
:101C400059FB034622468B498B4843F0A7FE874B3E
:101C50001B68184647F044FF894B1B8801339AB232
:101C6000874B1A80864B1B887A899A423FF69FAE33
:101C70007B8903F00F039BB2002B00F0D5807B899A
:101C800003F00F039AB27D4B1A8023E0774B1B6859
:101C900041F28831184647F0D8FE7B49754866F016
:101CA00047FE7448FEF726FB03469CB27148FEF7D8
:101CB00021FB034622466F496F4843F06FFE6B4B92
:101CC0001B68184647F00CFF6C4B1B8801339AB217
:101CD0006A4B1A80694B1B880F2BD7D97B8903F07D
:101CE00008039BB2002B1DD1604B1B6841F2883169
:101CF000184647F0AAFE65495E4866F019FE5D4841
:101D0000FEF7F8FA03469CB25A48FEF7F3FA034688
:101D100022465849584843F041FE544B1B68184628
:101D200047F0DEFE514B1B6841F28831184647F000
:101D30008CFE56494F4866F0FBFD4E48FEF7DAFA36
:101D400003469CB24B48FEF7D5FA03462246494962
:101D5000494843F023FE454B1B68184647F0C0FE38
:101D60007B8923F00F039AB2444B1A8057E0434B10
:101D70001B881A46FB6813441B780133444A1344FA
:101D80001B7803F09703002B25D0384B1B6841F2DA
:101D90008831184647F059FE384B1B881A46FB68B5
:101DA00013441B781A463B49324866F0C1FD31485E
:101DB000FEF7A0FA03469CB22E48FEF79BFA0346B4
:101DC00022462C492C4843F0E9FD284B1B68184655
:101DD00047F086FE1DE0254B1B6841F2883118460E
:101DE00047F033FE2249234866F0A2FD2148FEF762
:101DF00081FA03469CB21F48FEF77CFA034622464E
:101E00001C491D4843F0CAFD184B1B68184647F093
:101E100067FE1A4B1B8801339AB2184B1A80174B76
:101E20001B887A899A42A2D8104B1B6841F28831EC
:101E3000184647F00AFE13490E4866F079FD0D4832
:101E4000FEF758FA03469CB20A48FEF753FA0346D7
:101E500022460849084843F0A1FD044B1B68184678
:101E600047F03EFE00BF1437BD4690BD68D5002444
:101E70000CB10608BCD50024B0640024A8110124CC
:101E8000A611012410B1060814B1060800B1060815
:101E90008081070808B1060890B583B002AF654B92
:101EA0001B684FF47A71184647F0CFFD62496348CA
:101EB00066F03EFD6148FEF71DFA03469CB25F489E
:101EC000FEF718FA034622465C495D4843F066FD7A
:101ED00059495A4866F02CFD5848FEF70BFA03465C
:101EE0009CB25648FEF706FA034622465349544828
:101EF00043F054FD5049514866F01AFD4F48FEF733
:101F0000F9F903469CB24D48FEF7F4F90346224620
:101F10004A494B4843F042FD4A49484866F008FDAB
:101F20004648FEF7E7F903469CB24448FEF7E2F95B
:101F3000034622464149424843F030FD42493F486A
:101F400066F0F6FC3D48FEF7D5F903469CB23B48E7
:101F5000FEF7D0F9034622463849394843F01EFDC2
:101F60003A49364866F0E4FC3448FEF7C3F90346C4
:101F70009CB23248FEF7BEF9034622462F4930484C
:101F800043F00CFD41230193314B0093314B314A17
:101F900031492A4866F0CCFC2848FEF7ABF90346E5
:101FA0009CB22648FEF7A6F9034622462349244858
:101FB00043F0F4FC294A2A49204866F0B9FC1F483E
:101FC000FEF798F903469CB21C48FEF793F90346C6
:101FD00022461A491A4843F0E1FC2249174866F0A4
:101FE000A7FC1648FEF786F903469CB21348FEF795
:101FF00081F9034622461149114843F0CFFC1249AA
:102000000E4866F095FC0D48FEF774F903469CB245
:102010000A48FEF76FF9034622460849084843F08C
:10202000BDFC044B1B68184647F05AFD00BF04373F
:10203000BD4690BD68D5002418B10608BCD5002463
:10204000B064002444B106084CB1060894B10608F7
:1020500010B20608DCB10608E0B1060814B20608A2
:1020600020B2060848B2060880B500AF034904480C
:1020700042F072FC014B1B68184680BDAC11012474
:102080000062002498B500AFB14B1B6841F2883163
:10209000184647F0DAFCAF49AF4866F049FCAE4855
:1020A000FEF728F903469CB2AB48FEF723F9034636
:1020B0002246A949A94843F071FCA54B1B68184664
:1020C00047F00EFDA64B181DA54B5B78033B99B25C
:1020D00000230022FFF75EFC9D4B1B6841F2883114
:1020E000184647F0B2FC9E4B1B799E4A9E499A487F
:1020F00066F01EFC9848FEF7FDF803469CB2964831
:10210000FEF7F8F8034622469349944843F046FC0C
:102110008F4B1B68184647F0E3FC8D4B1B6841F260
:102120008831184647F091FC8D4B5B798D4A8F4979
:10213000894866F0FDFB8848FEF7DCF803469CB250
:102140008548FEF7D7F8034622468349834843F083
:1021500025FC7F4B1B68184647F0C2FC7C4B1B6874
:1021600041F28831184647F070FC7D4B9B791B0289
:102170007B4AD27913447B4A7D49774866F0D8FB85
:102180007548FEF7B7F803469CB27348FEF7B2F8FD
:10219000034622467049714843F000FC6C4B1B68B3
:1021A000184647F09DFC6A4B1B6841F2883118467F
:1021B00047F04BFC6A4B1B7A6A4A6E49664866F0E8
:1021C000B7FB6548FEF796F803469CB26248FEF7F7
:1021D00091F8034622466049604843F0DFFB5C4BC0
:1021E0001B68184647F07CFC594B1B6841F288314C
:1021F000184647F02AFC5A4B5B7A5A4A5E495648C1
:1022000066F096FB5448FEF775F803469CB25248B8
:10221000FEF770F8034622464F49504843F0BEFB94
:102220004B4B1B68184647F05BFC494B1B6841F25F
:102230008831184647F009FC494B9B7A494A4F4977
:10224000454866F075FB4448FEF754F803469CB2D7
:102250004148FEF74FF8034622463F493F4843F0C6
:102260009DFB3B4B1B68184647F03AFC384B1B68FC
:1022700041F28831184647F0E8FB394BDB7A394A9E
:102280003F49354866F054FB3348FEF733F80346C0
:102290009CB23148FEF72EF8034622462E492F48BD
:1022A00043F07CFB2A4B1B68184647F019FC284B6F
:1022B0001B6841F28831184647F0C7FB284B1B7B4F
:1022C000284A3049244866F033FB2348FEF712F8C9
:1022D00003469CB22048FEF70DF8034622461E49ED
:1022E0001E4843F05BFB1A4B1B68184647F0F8FB8F
:1022F000174B1B6841F28831184647F0A6FB184B74
:102300005B7B184A2049144866F012FB1248FDF71F
:10231000F1FF03469CB21048FDF7ECFF034622464E
:102320000D490E4843F03AFB094B1B68184647F02D
:10233000D7FB074B1B6841F28831184647F085FBF5
:10234000074B9B7B074A1149034866F0F1FA1FE0EF
:1023500068D50024F8B20608BCD50024B064002477
:1023600098080124F44B07083CB306087CB3060820
:10237000BCB30608FCB306083CB406087CB40608E7
:10238000BCB40608FCB406083CB506087CB50608D3
:10239000AB48FDF7AFFF03469CB2A948FDF7AAFF83
:1023A00003462246A649A74843F0F8FAA64B1B6805
:1023B000184647F095FBA44B1B6841F2883118463C
:1023C00047F043FBA14BDB7BA14AA2499C4866F046
:1023D000AFFA9B48FDF78EFF03469CB29848FDF785
:1023E00089FF034622469649964843F0D7FA964B12
:1023F0001B68184647F074FB934B1B6841F2883109
:10240000184647F022FB914B1B7C914A92498C481D
:1024100066F08EFA8A48FDF76DFF03469CB2884845
:10242000FDF768FF034622468549864843F0B6FA21
:10243000854B1B68184647F053FB834B1B6841F2E2
:102440008831184647F001FB804B5B7C804A83490A
:102450007B4866F06DFA7A48FDF74CFF03469CB264
:102460007748FDF747FF034622467549754843F014
:1024700095FA754B1B68184647F032FB724B1B6888
:1024800041F28831184647F0E0FA704B9B7C704A65
:1024900073496B4866F04CFA6948FDF72BFF034619
:1024A0009CB26748FDF726FF03462246644965480B
:1024B00043F074FA644B1B68184647F011FB624BFB
:1024C0001B6841F28831184647F0BFFA5F4BDB7C4E
:1024D0005F4A64495A4866F02BFA5948FDF70AFFEB
:1024E00003469CB25648FDF705FF03462246544971
:1024F000544843F053FA544B1B68184647F0F0FA1F
:10250000514B1B6841F28831184647F09EFA4F4BF9
:102510001B7D4F4A54494A4866F00AFA4848FDF77D
:10252000E9FE03469CB24648FDF7E4FE0346224618
:102530004349444843F032FA434B1B68184647F07E
:10254000CFFA414B1B6841F28831184647F07DFABB
:102550003E4B5B7D3E4A4549394866F0E9F93848CB
:10256000FDF7C8FE03469CB23548FDF7C3FE03469F
:1025700022463349334843F011FA334B1B6818465F
:1025800047F0AEFA314B5B7D03F04003002B1ED0C9
:102590002D4B1B6841F28831184647F056FA2C4AF9
:1025A0003349274866F0C4F92548FDF7A3FE0346E2
:1025B0009CB22348FDF79EFE03462246204921484F
:1025C00043F0ECF9204B1B68184647F089FA1F4B83
:1025D0005B7D03F02003002B1ED01B4B1B6841F2D8
:1025E0008831184647F031FA194A2249144866F0F2
:1025F0009FF91348FDF77EFE03469CB21048FDF795
:1026000079FE034622460E490E4843F0C7F90E4BA9
:102610001B68184647F064FA0C4B5B7D03F0070318
:10262000013B032B00F2B88001A252F823F000BF57
:1026300079260008B9260008F9260008392700087D
:10264000BCD50024B064002468D500249808012477
:10265000F44B0708BCB50608FCB506083CB60608EE
:102660007CB60608BCB60608FCB606083CB70608E9
:102670007CB70608B8B706083F4B1B6841F28831A3
:10268000184647F0E2F93D4A3D493E4866F050F9A8
:102690003C48FDF72FFE03469CB23A48FDF72AFE60
:1026A000034622463749384843F078F9324B1B68D5
:1026B000184647F015FA8FE02F4B1B6841F288311E
:1026C000184647F0C2F92D4A30492E4866F030F9D5
:1026D0002C48FDF70FFE03469CB22A48FDF70AFE80
:1026E000034622462749284843F058F9224B1B68E5
:1026F000184647F0F5F96FE01F4B1B6841F288312F
:10270000184647F0A2F91D4A21491E4866F010F903
:102710001C48FDF7EFFD03469CB21A48FDF7EAFDA1
:10272000034622461749184843F038F9124B1B68F4
:10273000184647F0D5F94FE00F4B1B6841F288313E
:10274000184647F082F90D4A12490E4866F0F0F833
:102750000C48FDF7CFFD03469CB20A48FDF7CAFDC1
:10276000034622460749084843F018F9024B1B6804
:10277000184647F0B5F92FE068D50024F44B070858
:10278000F4B70608BCD50024B064002414B80608C9
:1027900034B8060854B80608A34B1B6841F28831C8
:1027A000184647F052F9A14AA149A24866F0C0F87C
:1027B000A048FDF79FFD03469CB29E48FDF79AFD99
:1027C000034622469B499C4843F0E8F8964B1B6819
:1027D000184647F085F900BF934B1B6841F28831DA
:1027E000184647F032F9954B9B7D904A94499148A1
:1027F00066F09EF88F48FDF77DFD03469CB28D483C
:10280000FDF778FD034622468A498B4843F0C6F817
:10281000854B1B68184647F063F9834B1B6841F2F0
:102820008831184647F011F9844BDB7D7F4A854992
:10283000804866F07DF87F48FDF75CFD03469CB25A
:102840007C48FDF757FD034622467A497A4843F013
:10285000A5F8754B1B68184647F042F9724B1B6888
:1028600041F28831184647F0F0F8744B1B7E6F4AEE
:102870007549704866F05CF86E48FDF73BFD03460D
:102880009CB26C48FDF736FD0346224669496A480A
:1028900043F084F8644B1B68184647F021F9624BFB
:1028A0001B6841F28831184647F0CFF8634B5B7ED6
:1028B0005E4A66495F4866F03BF85E48FDF71AFDE0
:1028C00003469CB25B48FDF715FD03462246594975
:1028D000594843F063F8544B1B68184647F000F919
:1028E000514B1B6841F28831184647F0AEF8534B04
:1028F0009B7E4E4A56494F4866F01AF84D48FDF700
:10290000F9FC03469CB24B48FDF7F4FC0346224613
:102910004849494843F042F8434B1B68184647F082
:10292000DFF8414B1B6841F28831184647F08DF8BB
:10293000424BDB7E3D4A47493E4865F0F9FF3D4842
:10294000FDF7D8FC03469CB23A48FDF7D3FC03469A
:1029500022463849384843F021F8334B1B68184663
:1029600047F0BEF8304B1B6841F28831184647F0FB
:102970006CF8324B1B7F2D4A37492E4865F0D8FF43
:102980002C48FDF7B7FC03469CB22A48FDF7B2FC81
:10299000034622462749284843F000F8224B1B688B
:1029A000184647F09DF8204B1B6841F288311846C5
:1029B00047F04BF8214B5B7F1C4A28491D4865F0C6
:1029C000B7FF1C48FDF796FC03469CB21948FDF77B
:1029D00091FC034622461749174842F0DFFF124B8D
:1029E0001B68184647F07CF80F4B1B6841F2883192
:1029F000184647F02AF81A490E4865F099FF0D4825
:102A0000FDF778FC03469CB20A48FDF773FC0346C9
:102A100022460849084842F0C1FF034B1B6818468C
:102A200047F05EF800BF98BD68D50024F44B070856
:102A300078B80608BCD50024B064002498080124A6
:102A4000C0B8060800B9060840B9060880B90608EB
:102A5000C0B9060800BA060840BA060880BA0608D7
:102A6000C0BA060890B585B000AF03460A46FB71B0
:102A70001346BB71474B1B6841F28831184646F03C
:102A8000E4FFFB79444A4549454865F051FF444815
:102A9000FDF730FC03469CB24148FDF72BFC034692
:102AA00022463F493F4842F079FF3A4B1B6818469F
:102AB00047F016F83C4B00221A723B4B0022DA60BA
:102AC000394B002283F8C820384B00221A70BB799A
:102AD000002B12D0364B0133354A52781946FF206D
:102AE0000BF058FC0346FB73FA79FB7B9A4201D149
:102AF000012200E003222D4B1A70264B1B6841F285
:102B00008831184646F0A1FF2A49254865F010FF94
:102B10002348FDF7EFFB03469CB22148FDF7EAFB93
:102B2000034622461E491F4842F038FF194B1B68D6
:102B3000184646F0D5FF1C4BDB7C194600230022CB
:102B40001B48FEF727FF134B1B6841F288311846DC
:102B500046F07BFF1849124865F0EAFE1048FDF781
:102B6000C9FB03469CB20E48FDF7C4FB0346224650
:102B70000B490C4842F012FF064B1B68184646F002
:102B8000AFFF094B00221A74084B1B781846143704
:102B9000BD4690BD68D500240C4C070890BC0608C3
:102BA000BCD50024B064002484080124B0110124A1
:102BB00098080124B0BC060810BD060880B483B094
:102BC00000AF0346FB71144BDB7C1A46124B1344D7
:102BD000FA791A75104BDB7C0133DAB20E4BDA74DA
:102BE0000E4B5B78032B0AD90C4B5B78033BDAB2B4
:102BF000094B83F8C920084B04221A7406E0064BDF
:102C0000012283F8C920044B05221A7400BF0C3737
:102C1000BD465DF8047B70478408012498080124B0
:102C200080B483B000AF0346FB71144B93F8C930F6
:102C3000013BDAB2114B83F8C920104BDB7C1A46FA
:102C40000E4B1344FA791A750C4BDB7C0133DAB264
:102C50000A4BDA74094BDB7CB32B05D8074BDA7CC3
:102C6000074B5B789A4202D9044B05221A7400BFC5
:102C70000C37BD465DF8047B704700BF8408012413
:102C80009808012498B500AF194B1B6841F28831B0
:102C9000184646F0DAFE174A1749184865F048FE0C
:102CA0001648FDF727FB03469CB21448FDF722FBAC
:102CB000034622461149124842F070FE0C4B1B6835
:102CC000184646F00DFF0F4B00221A740D4B0022E0
:102CD00083F8C8200B4B00221A700A4B00221A728C
:102CE000084B00225A60074B0022DA6000BF98BDF3
:102CF00068D50024244C070870BD0608BCD5002404
:102D0000B06400248408012490B583B000AF03466A
:102D1000FB71FB79022B02D9FB79B42B2DD9214B06
:102D20001B6841F28831184646F08FFEFB791E4A37
:102D30001E491F4865F0FCFD1D48FDF7DBFA034600
:102D40009CB21B48FDF7D6FA03462246184919489B
:102D500042F024FE134B1B68184646F0C1FE164B8A
:102D600000221A74144B002283F8C820124B002250
:102D70001A72114B0022DA6010E00F4B02221A7413
:102D80000D4BDB7C1A460C4B1344FA791A750A4B2F
:102D9000DB7C0133DAB2084BDA7400BF00BF0C37BA
:102DA000BD4690BD68D500243C4C07088CBD060884
:102DB000BCD50024B06400248408012490B585B0FB
:102DC00002AF0346FB719F4B00221A70FB79012B67
:102DD00039D19D4B1B6841F28831184646F035FECB
:102DE0009A4A9B499B4865F0A3FD9A48FDF782FAF1
:102DF00003469CB29748FDF77DFA03462246954963
:102E0000954842F0CBFD904B1B68184646F068FE93
:102E1000924B01221A74914B0022DA748F4B0122DB
:102E200083F8C8208D4BDB7C1A468C4B1344FA790F
:102E30001A758A4BDB7C0133DAB2884BDA74874B24
:102E400000221A72F9E1854B9B7C002B00F0378140
:102E5000FB79062B02D0FB79152B0ED17F4B00227C
:102E60009A747E4B00221A707C4B00221A727B4BA4
:102E700000225A60794B0022DA60FB79062B22D1BE
:102E8000714B1B6841F28831184646F0DEFD6F4AEF
:102E90007349704865F04CFD6E48FDF72BFA034608
:102EA0009CB26C48FDF726FA0346224669496A48F7
:102EB00042F074FD644B1B68184646F011FE614BEE
:102EC00002221A70B9E1FB79152B22D15E4B1B68E7
:102ED00041F28831184646F0B8FD5C4A61495D48C8
:102EE00065F026FD5B48FDF705FA03469CB259489C
:102EF000FDF700FA034622465649574842F04EFD78
:102F0000514B1B68184646F0EBFD4E4B05221A70DC
:102F100093E1FB790133544A13441B7803F0970380
:102F2000002B23D0484B1B6841F28831184646F0ED
:102F30008CFDFA79FB7900931346444A4B49454886
:102F400065F0F6FC4348FDF7D5F903469CB24148CD
:102F5000FDF7D0F9034622463E493F4842F01EFDA8
:102F6000394B1B68184646F0BBFD66E1FB79182B10
:102F700047D0182B00F38280062B02D0152B20D0CF
:102F80007CE0314B1B6841F28831184646F05DFD0C
:102F90002E4A37492F4865F0CBFC2E48FDF7AAF999
:102FA00003469CB22B48FDF7A5F903462246294962
:102FB000294842F0F3FC244B1B68184646F090FD6C
:102FC0003BE1214B1B6841F28831184646F03DFD3C
:102FD0001E4A28491F4865F0ABFC1E48FDF78AF9D8
:102FE00003469CB21B48FDF785F903462246194962
:102FF000194842F0D3FC144B1B68184646F070FD8C
:103000001BE1114B1B6841F28831184646F01DFD4B
:103010000E4A19490F4865F08BFC0E48FDF76AF916
:1030200003469CB20B48FDF765F903462246094961
:10303000094842F0B3FC044B1B68184646F050FDAB
:10304000FBE000BFB111012468D50024504C0708F3
:10305000C0BD0608BCD50024B06400248408012447
:10306000D8BD0608F0BD06088081070808BE06081E
:1030700038BE06085CBE060880BE0608724B1B6898
:1030800041F28831184646F0E0FCFB796F4A7049FE
:10309000704865F04DFC6F48FDF72CF903469CB273
:1030A0006C48FDF727F9034622466A496A4842F010
:1030B00075FC654B1B68184646F012FDBDE0FB79B8
:1030C0000133664A13441B7803F09703002B23D087
:1030D0005D4B1B6841F28831184646F0B6FCFA7920
:1030E000FB7900931346594A5D495A4865F020FC24
:1030F0005848FDF7FFF803469CB25648FDF7FAF82A
:10310000034622465349544842F048FC4E4B1B6844
:10311000184646F0E5FC8AE0FB79182B46D0182BC0
:1031200064DC062B02D0152B20D05FE0464B1B68D9
:1031300041F28831184646F088FC444A49494548DE
:1031400065F0F6FB4348FDF7D5F803469CB24148CD
:10315000FDF7D0F8034622463E493F4842F01EFCA8
:10316000394B1B68184646F0BBFC60E0364B1B68C9
:1031700041F28831184646F068FC344A3A493548ED
:1031800065F0D6FB3348FDF7B5F803469CB23148ED
:10319000FDF7B0F8034622462E492F4842F0FEFBC9
:1031A000294B1B68184646F09BFC40E0264B1B68E9
:1031B00041F28831184646F048FC244A2B492548FC
:1031C00065F0B6FB2348FDF795F803469CB221480D
:1031D000FDF790F8034622461E491F4842F0DEFBE9
:1031E000194B1B68184646F07BFC20E0164B1B6809
:1031F00041F28831184646F028FCFB79134A1449FD
:10320000144865F095FB1348FDF774F803469CB22B
:103210001048FDF76FF8034622460E490E4842F06B
:10322000BDFB094B1B68184646F05AFC00BF104B0B
:1032300000221A700E4B00225A600E4B1B78184663
:103240000C37BD4690BD00BF68D50024504C070820
:10325000A4BE0608BCD50024B06400248081070801
:1032600008BE060838BE06085CBE060880BE060812
:1032700084080124B111012490B583B000AF034646
:10328000FB71FB79012B4CD9514B1B6841F2883102
:10329000184646F0DAFBFB794E4A4F494F4865F035
:1032A00047FB4E48FDF726F803469CB24B48FDF716
:1032B00021F8034622464949494842F06FFB444BF6
:1032C0001B68184646F00CFC414B1B6841F28831E4
:1032D000184646F0BAFB3F4A4249404865F028FB91
:1032E0003E48FDF707F803469CB23C48FDF702F85C
:1032F0000346224639493A4842F050FB344B1B689A
:10330000184646F0EDFB384B00221A74364B00226B
:1033100083F8C820344B00221A72334B0022DA6043
:1033200051E0FB79002B1FD1294B1B6841F28831FA
:10333000184646F08AFB274A2C49284865F0F8FAD7
:103340002648FCF7D7FF03469CB22448FCF7D2FF7F
:10335000034622462149224842F020FB1C4B1B68B1
:10336000184646F0BDFB1EE0194B1B6841F2883140
:10337000184646F06AFB174A1D49184865F0D8FA06
:103380001648FCF7B7FF03469CB21448FCF7B2FF9F
:10339000034622461149124842F000FB0C4B1B68C1
:1033A000184646F09DFB104B03221A740E4BDB7C33
:1033B0001A460D4B1344FA791A750B4BDB7C01331B
:1033C000DAB2094BDA7400BF0C37BD4690BD00BFBE
:1033D00068D50024644C0708D0BE0608BCD500247C
:1033E000B06400242CBF06088408012454BF0608DA
:1033F00074BF060890B583B000AF0346FB71FB793C
:10340000013B032B00F28C8001A252F823F000BF95
:1034100021340008E1340008A134000861340008B8
:10342000524B1B6841F28831184646F00EFB504A59
:103430005049514865F07CFA4F48FCF75BFF034662
:103440009CB24D48FCF756FF034622464A494B487A
:1034500042F0A4FA454B1B68184646F041FB80E059
:10346000424B1B6841F28831184646F0EEFA404A5A
:103470004349414865F05CFA3F48FCF73BFF03468F
:103480009CB23D48FCF736FF034622463A493B488A
:1034900042F084FA354B1B68184646F021FB60E089
:1034A000324B1B6841F28831184646F0CEFA304A5A
:1034B0003449314865F03CFA2F48FCF71BFF0346BE
:1034C0009CB22D48FCF716FF034622462A492B489A
:1034D00042F064FA254B1B68184646F001FB40E0B9
:1034E000224B1B6841F28831184646F0AEFA204A5A
:1034F0002549214865F01CFA1F48FCF7FBFE0346EE
:103500009CB21D48FCF7F6FE034622461A491B48AA
:1035100042F044FA154B1B68184646F0E1FA20E0E9
:10352000124B1B6841F28831184646F08EFAFB793F
:103530000F4A1649104865F0FBF90F48FCF7DAFE10
:1035400003469CB20C48FCF7D5FE034622460A49C6
:103550000A4842F023FA054B1B68184646F0C0FAA9
:1035600000BF00BF0C37BD4690BD00BF68D500242A
:10357000784C070894BF0608BCD50024B06400242A
:10358000BCBF0608F4BF060814C006083CC0060805
:1035900090B583B000AF0346FB71FB79A12B00F31C
:1035A0004D81002B40F3CA84013BA02B00F2C6845E
:1035B00001A252F823F000BF05390008C13B000802
:1035C00045380008853800087D3E0008BD3E0008EB
:1035D000FD3E0008013D0008813D00083D3F000818
:1035E0003D3F00083D3F00083D3F00083D3F0008CB
:1035F000053A0008013C0008413C0008813C0008F5
:10360000C13C00083D3F0008C13D0008413D0008A5
:10361000453A00083D3E00083D3F00083D3F000898
:103620003D3F00083D3F00083D3F00083D3F00088A
:103630003D3F0008413B0008813B00083D3F00083A
:103640003D3F00083D3F00083D3F00083D3F00086A
:103650003D3F00083D3F00083D3F00083D3F00085A
:103660003D3F00083D3F00083D3F00083D3F00084A
:103670003D3F000885390008453900083D3F0008F6
:103680003D3F00083D3F00083D3F00083D3F00082A
:103690003D3F00083D3F00083D3F00083D3F00081A
:1036A0003D3F00083D3F00083D3F00083D3F00080A
:1036B0003D3F0008C53800083D3F00083D3F000879
:1036C0003D3F00083D3F00083D3F00083D3F0008EA
:1036D0003D3F00083D3F00083D3F00083D3F0008DA
:1036E0003D3F00083D3F00083D3F00083D3F0008CA
:1036F0003D3F0008853A00083D3F00083D3F000877
:103700003D3F00083D3F00083D3F00083D3F0008A9
:103710003D3F00083D3F00083D3F00083D3F000899
:103720003D3F00083D3F00083D3F00083D3F000889
:103730003D3F00083D3F00083D3F00083D3F000879
:103740003D3F00083D3F00083D3F00083D3F000869
:103750003D3F00083D3F00083D3F00083D3F000859
:103760003D3F00083D3F00083D3F00083D3F000849
:103770003D3F00083D3F00083D3F00083D3F000839
:103780003D3F00083D3F00083D3F00083D3F000829
:103790003D3F00083D3F00083D3F00083D3F000819
:1037A0003D3F00083D3F00083D3F00083D3F000809
:1037B0003D3F00083D3F00083D3F00083D3F0008F9
:1037C0003D3F00083D3F00083D3F00083D3F0008E9
:1037D0003D3F00083D3F00083D3F00083D3F0008D9
:1037E0003D3F00083D3F00083D3F00083D3F0008C9
:1037F0003D3F00083D3F00083D3F00083D3F0008B9
:103800003D3F00083D3F00083D3F00083D3F0008A8
:103810003D3F00083D3F00083D3F00083D3F000898
:103820003D3F00083D3F00083D3F00083D3F000888
:103830003D3F00083D3F0008C53A0008FF2B00F05F
:10384000C1807BE3AF4B1B6841F28831184646F0DC
:10385000FCF8AD4AAD49AE4865F06AF8AC48FCF7F3
:1038600049FD03469CB2AA48FCF744FD03462246A4
:10387000A749A84842F092F8A24B1B68184646F0A8
:103880002FF97CE39F4B1B6841F28831184646F0C4
:10389000DCF89D4AA0499E4865F04AF89C48FCF730
:1038A00029FD03469CB29A48FCF724FD03462246B4
:1038B0009749984842F072F8924B1B68184646F0B8
:1038C0000FF95CE38F4B1B6841F28831184646F0D4
:1038D000BCF88D4A91498E4865F02AF88C48FCF76F
:1038E00009FD03469CB28A48FCF704FD03462246C4
:1038F0008749884842F052F8824B1B68184646F0C8
:10390000EFF83CE37F4B1B6841F28831184646F0E4
:103910009CF87D4A82497E4865F00AF87C48FCF7AD
:10392000E9FC03469CB27A48FCF7E4FC03462246D5
:103930007749784842F032F8724B1B68184646F0D7
:10394000CFF81CE36F4B1B6841F28831184646F0F4
:103950007CF86D4A73496E4864F0EAFF6C48FCF7E6
:10396000C9FC03469CB26A48FCF7C4FC03462246E5
:103970006749684842F012F8624B1B68184646F0E7
:10398000AFF8FCE25F4B1B6841F28831184646F005
:103990005CF85D4A64495E4864F0CAFF5C48FCF725
:1039A000A9FC03469CB25A48FCF7A4FC03462246F5
:1039B0005749584841F0F2FF524B1B68184646F0F1
:1039C0008FF8DCE24F4B1B6841F28831184646F015
:1039D0003CF84D4A55494E4864F0AAFF4C48FCF764
:1039E00089FC03469CB24A48FCF784FC0346224605
:1039F0004749484841F0D2FF424B1B68184646F001
:103A00006FF8BCE23F4B1B6841F28831184646F024
:103A10001CF83D4A46493E4864F08AFF3C48FCF7A2
:103A200069FC03469CB23A48FCF764FC0346224614
:103A30003749384841F0B2FF324B1B68184646F010
:103A40004FF89CE22F4B1B6841F28831184645F035
:103A5000FCFF2D4A37492E4864F06AFF2C48FCF7DA
:103A600049FC03469CB22A48FCF744FC0346224624
:103A70002749284841F092FF224B1B68184646F020
:103A80002FF87CE21F4B1B6841F28831184645F045
:103A9000DCFF1D4A28491E4864F04AFF1C48FCF719
:103AA00029FC03469CB21A48FCF724FC0346224634
:103AB0001749184841F072FF124B1B68184646F030
:103AC0000FF85CE20F4B1B6841F28831184645F055
:103AD000BCFF0D4A19490E4864F02AFF0C48FCF758
:103AE00009FC03469CB20A48FCF704FC0346224644
:103AF0000749084841F052FF024B1B68184645F041
:103B0000EFFF3CE268D500249C4C070878C006080B
:103B1000BCD50024B064002494C00608A8C00608E0
:103B2000C0C00608DCC00608ECC0060804C10608D0
:103B300020C106083CC1060854C1060870C1060829
:103B4000AF4B1B6841F28831184645F07EFFAD4A05
:103B5000AD49AE4864F0ECFEAC48FCF7CBFB034645
:103B60009CB2AA48FCF7C6FB03462246A749A848D0
:103B700041F014FFA24B1B68184645F0B1FFFEE16F
:103B80009F4B1B6841F28831184645F05EFF9D4A05
:103B9000A0499E4864F0CCFE9C48FCF7ABFB034672
:103BA0009CB29A48FCF7A6FB0346224697499848E0
:103BB00041F0F4FE924B1B68184645F091FFDEE1A0
:103BC0008F4B1B6841F28831184645F03EFF8D4A05
:103BD00091498E4864F0ACFE8C48FCF78BFB0346A1
:103BE0009CB28A48FCF786FB0346224687498848F0
:103BF00041F0D4FE824B1B68184645F071FFBEE1D0
:103C00007F4B1B6841F28831184645F01EFF7D4A04
:103C100082497E4864F08CFE7C48FCF76BFB0346CF
:103C20009CB27A48FCF766FB0346224677497848FF
:103C300041F0B4FE724B1B68184645F051FF9EE1FF
:103C40006F4B1B6841F28831184645F0FEFE6D4A05
:103C500073496E4864F06CFE6C48FCF74BFB0346FE
:103C60009CB26A48FCF746FB03462246674968480F
:103C700041F094FE624B1B68184645F031FF7EE12F
:103C80005F4B1B6841F28831184645F0DEFE5D4A05
:103C900064495E4864F04CFE5C48FCF72BFB03462D
:103CA0009CB25A48FCF726FB03462246574958481F
:103CB00041F074FE524B1B68184645F011FF5EE15F
:103CC0004F4B1B6841F28831184645F0BEFE4D4A05
:103CD00055494E4864F02CFE4C48FCF70BFB03465C
:103CE0009CB24A48FCF706FB03462246474948482F
:103CF00041F054FE424B1B68184645F0F1FE3EE190
:103D00003F4B1B6841F28831184645F09EFE3D4A04
:103D100046493E4864F00CFE3C48FCF7EBFA03468B
:103D20009CB23A48FCF7E6FA03462246374938483F
:103D300041F034FE324B1B68184645F0D1FE1EE1BF
:103D40002F4B1B6841F28831184645F07EFE2D4A04
:103D500037492E4864F0ECFD2C48FCF7CBFA0346BB
:103D60009CB22A48FCF7C6FA03462246274928484F
:103D700041F014FE224B1B68184645F0B1FEFEE0F0
:103D80001F4B1B6841F28831184645F05EFE1D4A04
:103D900028491E4864F0CCFD1C48FCF7ABFA0346EA
:103DA0009CB21A48FCF7A6FA03462246174918485F
:103DB00041F0F4FD124B1B68184645F091FEDEE021
:103DC0000F4B1B6841F28831184645F03EFE0D4A04
:103DD00019490E4864F0ACFD0C48FCF78BFA034619
:103DE0009CB20A48FCF786FA03462246074908486F
:103DF00041F0D4FD024B1B68184645F071FEBEE051
:103E000068D500249C4C070888C10608BCD500244E
:103E1000B0640024A0C10608BCC10608D8C10608C9
:103E2000F0C106080CC2060824C206083CC20608F7
:103E300050C2060868C2060884C20608524B1B68B6
:103E400041F28831184645F000FE504A5049514829
:103E500064F06EFD4F48FCF74DFA03469CB24D48A6
:103E6000FCF748FA034622464A494B4841F096FD82
:103E7000454B1B68184645F033FE80E0424B1B68FB
:103E800041F28831184645F0E0FD404A4349414837
:103E900064F04EFD3F48FCF72DFA03469CB23D48C6
:103EA000FCF728FA034622463A493B4841F076FDA2
:103EB000354B1B68184645F013FE60E0324B1B681B
:103EC00041F28831184645F0C0FD304A3449314846
:103ED00064F02EFD2F48FCF70DFA03469CB22D48E6
:103EE000FCF708FA034622462A492B4841F056FDC2
:103EF000254B1B68184645F0F3FD40E0224B1B683C
:103F000041F28831184645F0A0FD204A2549214854
:103F100064F00EFD1F48FCF7EDF903469CB21D4806
:103F2000FCF7E8F9034622461A491B4841F036FDE2
:103F3000154B1B68184645F0D3FD20E0124B1B685B
:103F400041F28831184645F080FDFB790F4A164949
:103F5000104864F0EDFC0F48FCF7CCF903469CB226
:103F60000C48FCF7C7F9034622460A490A4841F0C3
:103F700015FD054B1B68184645F0B2FD00BF00BF9C
:103F80000C37BD4690BD00BF68D500249C4C070887
:103F900098C20608BCD50024B0640024B4C2060848
:103FA000D0C20608E4C2060804C3060890B583B070
:103FB00000AF03460A46FB711346BB71FB79402BE9
:103FC00040F0B481BB79013B0A2B00F28F8101A242
:103FD00052F823F0014000084140000881400008E9
:103FE000C14000080141000841410008814100082A
:103FF000C141000801420008414200088142000816
:10400000AF4B1B6841F28831184645F01EFDAD4AA2
:10401000AD49AE4864F08CFCAC48FCF76BF9034644
:104020009CB2AA48FCF766F903462246A749A8486D
:1040300041F0B4FCA24B1B68184645F051FD75E1F8
:104040009F4B1B6841F28831184645F0FEFC9D4AA3
:10405000A0499E4864F06CFC9C48FCF74BF9034671
:104060009CB29A48FCF746F903462246974998487D
:1040700041F094FC924B1B68184645F031FD55E128
:104080008F4B1B6841F28831184645F0DEFC8D4AA3
:1040900091498E4864F04CFC8C48FCF72BF90346A0
:1040A0009CB28A48FCF726F903462246874988488D
:1040B00041F074FC824B1B68184645F011FD35E158
:1040C0007F4B1B6841F28831184645F0BEFC7D4AA3
:1040D00082497E4864F02CFC7C48FCF70BF90346CF
:1040E0009CB27A48FCF706F903462246774978489D
:1040F00041F054FC724B1B68184645F0F1FC15E189
:104100006F4B1B6841F28831184645F09EFC6D4AA2
:1041100073496E4864F00CFC6C48FCF7EBF80346FE
:104120009CB26A48FCF7E6F80346224667496848AD
:1041300041F034FC624B1B68184645F0D1FCF5E0B9
:104140005F4B1B6841F28831184645F07EFC5D4AA2
:1041500063495E4864F0ECFB5C48FCF7CBF803462F
:104160009CB25A48FCF7C6F80346224657495848BD
:1041700041F014FC524B1B68184645F0B1FCD5E0E9
:104180004F4B1B6841F28831184645F05EFC4D4AA2
:1041900053494E4864F0CCFB4C48FCF7ABF803465F
:1041A0009CB24A48FCF7A6F80346224647494848CD
:1041B00041F0F4FB424B1B68184645F091FCB5E01A
:1041C0003F4B1B6841F28831184645F03EFC3D4AA2
:1041D00043493E4864F0ACFB3C48FCF78BF803468F
:1041E0009CB23A48FCF786F80346224637493848DD
:1041F00041F0D4FB324B1B68184645F071FC95E04A
:104200002F4B1B6841F28831184645F01EFC2D4AA1
:1042100033492E4864F08CFB2C48FCF76BF80346BE
:104220009CB22A48FCF766F80346224627492848EC
:1042300041F0B4FB224B1B68184645F051FC75E079
:104240001F4B1B6841F28831184645F0FEFB1D4AA2
:1042500024491E4864F06CFB1C48FCF74BF80346ED
:104260009CB21A48FCF746F80346224617491848FC
:1042700041F094FB124B1B68184645F031FC55E0A9
:104280000F4B1B6841F28831184645F0DEFB0D4AA2
:1042900015490E4864F04CFB0C48FCF72BF803461C
:1042A0009CB20A48FCF726F803462246074908480C
:1042B00041F074FB024B1B68184645F011FC35E0D9
:1042C00068D50024C04C070840C30608BCD50024AC
:1042D000B064002454C3060870C30608A0C30608CF
:1042E000D4C3060804C406082CC40608B24B1B68D5
:1042F00041F28831184645F0A8FBB04AB049B148B0
:1043000064F016FBAF48FBF7F5FF03469CB2AD48DF
:10431000FBF7F0FF03462246AA49AB4841F03EFBBB
:10432000A54B1B68184645F0DBFB00BFFB79012B52
:1043300040F0D480BB79013B052B00F2AF8001A295
:1043400052F823F05D4300089D430008DD43000858
:104350001D4400089D4400085D440008964B1B68FE
:1043600041F28831184645F070FB944A97499548C8
:1043700064F0DEFA9348FBF7BDFF03469CB2914818
:10438000FBF7B8FF034622468E498F4841F006FBF3
:10439000894B1B68184645F0A3FB9FE0864B1B68C2
:1043A00041F28831184645F050FB844A88498548D7
:1043B00064F0BEFA8348FBF79DFF03469CB2814838
:1043C000FBF798FF034622467E497F4841F0E6FA14
:1043D000794B1B68184645F083FB7FE0764B1B68E2
:1043E00041F28831184645F030FB744A79497548E6
:1043F00064F09EFA7348FBF77DFF03469CB2714858
:10440000FBF778FF034622466E496F4841F0C6FA33
:10441000694B1B68184645F063FB5FE0664B1B6801
:1044200041F28831184645F010FB644A6A496548F4
:1044300064F07EFA6348FBF75DFF03469CB2614877
:10444000FBF758FF034622465E495F4841F0A6FA53
:10445000594B1B68184645F043FB3FE0564B1B6821
:1044600041F28831184645F0F0FA544A5B49554804
:1044700064F05EFA5348FBF73DFF03469CB2514897
:10448000FBF738FF034622464E494F4841F086FA73
:10449000494B1B68184645F023FB1FE0464B1B6841
:1044A00041F28831184645F0D0FA444A444945481B
:1044B00064F03EFA4348FBF71DFF03469CB24148B7
:1044C000FBF718FF034622463E493F4841F066FA93
:1044D000394B1B68184645F003FB00BFFB79312BB5
:1044E00040F0A480BB79032B46D0032B7EDC012B4C
:1044F00002D0022B20D079E02F4B1B6841F288318B
:10450000184645F0A2FA2D4A35492E4864F010FAB3
:104510002C48FBF7EFFE03469CB22A48FBF7EAFE65
:10452000034622462749284841F038FA224B1B68A7
:10453000184645F0D5FA79E01F4B1B6841F28831E7
:10454000184645F082FA1D4A26491E4864F0F0F9E3
:104550001C48FBF7CFFE03469CB21A48FBF7CAFE85
:10456000034622461749184841F018FA124B1B68B7
:10457000184645F0B5FA59E00F4B1B6841F28831F7
:10458000184645F062FA0D4A17490E4864F0D0F912
:104590000C48FBF7AFFE03469CB20A48FBF7AAFEA5
:1045A000034622460749084841F0F8F9024B1B68C8
:1045B000184645F095FA39E068D50024C04C070844
:1045C00054C40608BCD50024B064002488C406087E
:1045D000B0C40608D4C4060804C5060824C50608E5
:1045E00048C5060864C5060890C50608B04B1B6898
:1045F00041F28831184645F028FAAE4AAE49AF4834
:1046000064F096F9AD48FBF775FE03469CB2AB48E3
:10461000FBF770FE03462246A849A94841F0BEF9BF
:10462000A34B1B68184645F05BFA00BFFB79A12B32
:1046300040F0BA81BB79013B0A2B00F2958101A2BF
:1046400052F823F0F1460008F147000871470008CE
:1046500071480008714600083147000831480008D9
:10466000B1470008E9480008B14600082949000898
:104670008F4B1B6841F28831184645F0E6F98D4AA8
:1046800090498E4864F054F98C48FBF733FE03469A
:104690009CB28A48FBF72EFE03462246874988488B
:1046A00041F07CF9824B1B68184645F019FA7BE112
:1046B0007F4B1B6841F28831184645F0C6F97D4AA8
:1046C00081497E4864F034F97C48FBF713FE0346C9
:1046D0009CB27A48FBF70EFE03462246774978489B
:1046E00041F05CF9724B1B68184645F0F9F95BE143
:1046F0006F4B1B6841F28831184645F0A6F96D4AA8
:1047000072496E4864F014F96C48FBF7F3FD0346F8
:104710009CB26A48FBF7EEFD0346224667496848AB
:1047200041F03CF9624B1B68184645F0D9F93BE172
:104730005F4B1B6841F28831184645F086F95D4AA7
:1047400063495E4864F0F4F85C48FBF7D3FD034628
:104750009CB25A48FBF7CEFD0346224657495848BB
:1047600041F01CF9524B1B68184645F0B9F91BE1A2
:104770004F4B1B6841F28831184645F066F94D4AA7
:1047800054494E4864F0D4F84C48FBF7B3FD034657
:104790009CB24A48FBF7AEFD0346224647494848CB
:1047A00041F0FCF8424B1B68184645F099F9FBE0D4
:1047B0003F4B1B6841F28831184645F046F93D4AA7
:1047C00045493E4864F0B4F83C48FBF793FD034686
:1047D0009CB23A48FBF78EFD0346224637493848DB
:1047E00041F0DCF8324B1B68184645F079F9DBE004
:1047F0002F4B1B6841F28831184645F026F92D4AA7
:1048000036492E4864F094F82C48FBF773FD0346B4
:104810009CB22A48FBF76EFD0346224627492848EA
:1048200041F0BCF8224B1B68184645F059F9BBE033
:104830001F4B1B6841F28831184645F006F91D4AA6
:1048400027491E4864F074F81C48FBF753FD0346E3
:104850009CB21A48FBF74EFD0346224617491848FA
:1048600041F09CF8124B1B68184645F039F99BE063
:104870000F4B1B6841F28831184645F0E6F80D4AA7
:1048800018490E4864F054F80C48FBF733FD034612
:104890009CB20A48FBF72EFD03462246074908480A
:1048A00041F07CF8024B1B68184645F019F97BE093
:1048B00068D50024C04C070854C40608BCD50024A1
:1048C000B0640024B4C50608E8C506081CC606087E
:1048D00050C6060884C60608BCC60608F4C6060804
:1048E00020C706084CC70608B14B1B6841F2883147
:1048F000184645F0AAF8AF4AAF49B04864F018F836
:10490000AE48FBF7F7FC03469CB2AC48FBF7F2FC61
:1049100003462246A949AA4841F040F8A44B1B6827
:10492000184645F0DDF83FE0A14B1B6841F28831A5
:10493000184645F08AF89F4AA249A04863F0F8FF5C
:104940009E48FBF7D7FC03469CB29C48FBF7D2FC81
:104950000346224699499A4841F020F8944B1B6837
:10496000184645F0BDF81FE0914B1B6841F28831B5
:10497000184645F06AF88F4A9349904863F0D8FF8B
:104980008E48FBF7B7FC03469CB28C48FBF7B2FCA1
:104990000346224689498A4841F000F8844B1B6847
:1049A000184645F09DF800BFFB79212B65D1BB79F6
:1049B000012B02D0022B20D03FE07D4B1B6841F23F
:1049C0008831184645F041F87A4A80497B4863F0BF
:1049D000AFFF7A48FBF78EFC03469CB27748FBF7A3
:1049E00089FC034622467549754840F0D7FF704B55
:1049F0001B68184645F074F83FE06D4B1B6841F2A8
:104A00008831184645F021F86A4A71496B4863F0CD
:104A10008FFF6A48FBF76EFC03469CB26748FBF7C2
:104A200069FC034622466549654840F0B7FF604B84
:104A30001B68184645F054F81FE05D4B1B6841F2B7
:104A40008831184645F001F85A4A5F495B4863F0DF
:104A50006FFF5A48FBF74EFC03469CB25748FBF7E2
:104A600049FC034622465549554840F097FF504BB4
:104A70001B68184645F034F800BFFB79022B40F064
:104A80003181BB79013B062B00F20C8101A252F867
:104A900023F000BFB14A0008F14A0008314B00087A
:104AA000714B0008E54B0008254C0008654C0008D8
:104AB0003F4B1B6841F28831184644F0C6FF3D4A1F
:104AC00044493E4863F034FF3C48FBF713FC03467F
:104AD0009CB23A48FBF70EFC034622463749384859
:104AE00040F05CFF324B1B68184644F0F9FFF9E0D8
:104AF0002F4B1B6841F28831184644F0A6FF2D4A1F
:104B000035492E4863F014FF2C48FBF7F3FB0346AE
:104B10009CB22A48FBF7EEFB034622462749284869
:104B200040F03CFF224B1B68184644F0D9FFD9E007
:104B30001F4B1B6841F28831184644F086FF1D4A1E
:104B400026491E4863F0F4FE1C48FBF7D3FB0346DE
:104B50009CB21A48FBF7CEFB034622461749184879
:104B600040F01CFF124B1B68184644F0B9FFB9E037
:104B70000F4B1B6841F28831184644F066FF0D4A1E
:104B800017490E4863F0D4FE0C48FBF7B3FB03460D
:104B90009CB20A48FBF7AEFB034622460749084889
:104BA00040F0FCFE024B1B68184644F099FF99E068
:104BB00068D50024C04C07087CC70608BCD5002473
:104BC000B0640024ACC7060854C40608D0C7060861
:104BD00004C8060828C8060844C8060860C80608AD
:104BE00090C80608AC4B1B6841F28831184644F067
:104BF0002CFFAA4AAA49AB4863F09AFEA948FBF7E2
:104C000079FB03469CB2A748FBF774FB0346224698
:104C1000A449A54840F0C2FE9F4B1B68184644F0CB
:104C20005FFF5FE09C4B1B6841F28831184644F0FF
:104C30000CFF9A4A9D499B4863F07AFE9948FBF71E
:104C400059FB03469CB29748FBF754FB03462246A8
:104C50009449954840F0A2FE8F4B1B68184644F0DB
:104C60003FFF3FE08C4B1B6841F28831184644F00F
:104C7000ECFE8A4A8E498B4863F05AFE8948FBF75E
:104C800039FB03469CB28748FBF734FB03462246B8
:104C90008449854840F082FE7F4B1B68184644F0EB
:104CA0001FFF1FE07C4B1B6841F28831184644F01F
:104CB000CCFE7A4A7F497B4863F03AFE7948FBF79D
:104CC00019FB03469CB27748FBF714FB03462246C8
:104CD0007449754840F062FE6F4B1B68184644F0FB
:104CE000FFFE00BFFB79102B40F03281BB79013B06
:104CF000062B00F20D8101A252F823F0194D000895
:104D0000594E0008594D0008994D0008D94D00082A
:104D1000194E0008D14E00085F4B1B6841F28831E4
:104D2000184644F092FE5D4A63495E4863F000FE17
:104D30005C48FBF7DFFA03469CB25A48FBF7DAFA05
:104D4000034622465749584840F028FE524B1B68FC
:104D5000184644F0C5FEFBE04F4B1B6841F288311A
:104D6000184644F072FE4D4A54494E4863F0E0FD47
:104D70004C48FBF7BFFA03469CB24A48FBF7BAFA25
:104D8000034622464749484840F008FE424B1B680C
:104D9000184644F0A5FEDBE03F4B1B6841F288312A
:104DA000184644F052FE3D4A45493E4863F0C0FD76
:104DB0003C48FBF79FFA03469CB23A48FBF79AFA45
:104DC000034622463749384840F0E8FD324B1B681D
:104DD000184644F085FEBBE02F4B1B6841F288313A
:104DE000184644F032FE2D4A36492E4863F0A0FDA5
:104DF0002C48FBF77FFA03469CB22A48FBF77AFA65
:104E0000034622462749284840F0C8FD224B1B682C
:104E1000184644F065FE9BE01F4B1B6841F2883149
:104E2000184644F012FE1D4A27491E4863F080FDD3
:104E30001C48FBF75FFA03469CB21A48FBF75AFA84
:104E4000034622461749184840F0A8FD124B1B683C
:104E5000184644F045FE7BE00F4B1B6841F2883159
:104E6000184644F0F2FD0D4A18490E4863F060FD03
:104E70000C48FBF73FFA03469CB20A48FBF73AFAA4
:104E8000034622460749084840F088FD024B1B684C
:104E9000184644F025FE5BE068D50024C04C0708A6
:104EA000A8C80608BCD50024B0640024C8C80608F9
:104EB000D4C8060854C40608E8C8060808C9060885
:104EC00020C9060838C9060848C9060868C906087E
:104ED000AD4B1B6841F28831184644F0B6FDAB4A31
:104EE000AB49AC4863F024FDAA48FBF703FA03463C
:104EF0009CB2A848FBF7FEF903462246A549A648FE
:104F000040F04CFDA04B1B68184644F0E9FD1FE043
:104F10009D4B1B6841F28831184644F096FD9B4A30
:104F20009E499C4863F004FD9A48FBF7E3F9034669
:104F30009CB29848FBF7DEF903462246954996480D
:104F400040F02CFD904B1B68184644F0C9FD00BF93
:104F5000FB79112B40F05481BB79013B072B00F208
:104F60002F8101A252F823F089500008495100080E
:104F700049500008C9500008894F0008C94F00086F
:104F800009500008095100087F4B1B6841F2883125
:104F9000184644F05AFD7D4A81497E4863F0C8FCBA
:104FA0007C48FBF7A7F903469CB27A48FBF7A2F9C5
:104FB000034622467749784840F0F0FC724B1B6864
:104FC000184644F08DFD1BE16F4B1B6841F28831A0
:104FD000184644F03AFD6D4A72496E4863F0A8FCE9
:104FE0006C48FBF787F903469CB26A48FBF782F9E5
:104FF000034622466749684840F0D0FC624B1B6874
:10500000184644F06DFDFBE05F4B1B6841F28831B0
:10501000184644F01AFD5D4A63495E4863F088FC17
:105020005C48FBF767F903469CB25A48FBF762F904
:10503000034622465749584840F0B0FC524B1B6883
:10504000184644F04DFDDBE04F4B1B6841F28831C0
:10505000184644F0FAFC4D4A54494E4863F068FC47
:105060004C48FBF747F903469CB24A48FBF742F924
:10507000034622464749484840F090FC424B1B6893
:10508000184644F02DFDBBE03F4B1B6841F28831D0
:10509000184644F0DAFC3D4A45493E4863F048FC76
:1050A0003C48FBF727F903469CB23A48FBF722F944
:1050B000034622463749384840F070FC324B1B68A3
:1050C000184644F00DFD9BE02F4B1B6841F28831E0
:1050D000184644F0BAFC2D4A36492E4863F028FCA5
:1050E0002C48FBF707F903469CB22A48FBF702F964
:1050F000034622462749284840F050FC224B1B68B3
:10510000184644F0EDFC7BE01F4B1B6841F28831F0
:10511000184644F09AFC1D4A27491E4863F008FCD3
:105120001C48FBF7E7F803469CB21A48FBF7E2F885
:10513000034622461749184840F030FC124B1B68C2
:10514000184644F0CDFC5BE00F4B1B6841F2883100
:10515000184644F07AFC0D4A18490E4863F0E8FB03
:105160000C48FBF7C7F803469CB20A48FBF7C2F8A5
:10517000034622460749084840F010FC024B1B68D2
:10518000184644F0ADFC3BE068D50024C04C07084D
:1051900094C90608BCD50024B064002454C4060891
:1051A000C4C90608F4C906081CCA060850CA06087D
:1051B00070CA060890CA0608B4CA0608C8CA060813
:1051C000B54B1B6841F28831184644F03EFCB34AA7
:1051D000B349B44863F0ACFBB248FBF78BF8034625
:1051E0009CB2B048FBF786F803462246AD49AE486C
:1051F00040F0D4FBA84B1B68184644F071FC00BF7C
:10520000FB79122B40F0B080BB79013B032B00F2FD
:105210008B8001A252F823F029520008695200083D
:10522000A9520008E95200089B4B1B6841F28831E3
:10523000184644F00AFC994A9C499A4863F078FB66
:105240009848FBF757F803469CB29648FBF752F88C
:10525000034622469349944840F0A0FB8E4B1B68BE
:10526000184644F03DFC7FE08B4B1B6841F28831CF
:10527000184644F0EAFB894A8D498A4863F058FB96
:105280008848FBF737F803469CB28648FBF732F8AC
:10529000034622468349844840F080FB7E4B1B68CE
:1052A000184644F01DFC5FE07B4B1B6841F28831DF
:1052B000184644F0CAFB794A7E497A4863F038FBC5
:1052C0007848FBF717F803469CB27648FBF712F8CC
:1052D000034622467349744840F060FB6E4B1B68DE
:1052E000184644F0FDFB3FE06B4B1B6841F28831F0
:1052F000184644F0AAFB694A6F496A4863F018FBF4
:105300006848FAF7F7FF03469CB26648FAF7F2FFDF
:10531000034622466349644840F040FB5E4B1B68ED
:10532000184644F0DDFB1FE05B4B1B6841F28831FF
:10533000184644F08AFB594A59495A4863F0F8FA2A
:105340005848FAF7D7FF03469CB25648FAF7D2FFFF
:10535000034622465349544840F020FB4E4B1B68FD
:10536000184644F0BDFB00BFFB79082B40F00E81CE
:10537000BB79013B052B00F2E98001A252F823F032
:105380000D55000859540008995300081954000895
:10539000D9530008CD5400083F4B1B6841F28831B7
:1053A000184644F052FB3D4A44493E4863F0C0FA77
:1053B0003C48FAF79FFF03469CB23A48FAF79AFF37
:1053C000034622463749384840F0E8FA324B1B681A
:1053D000184644F085FBD9E02F4B1B6841F2883119
:1053E000184644F032FB2D4A35492E4863F0A0FAA6
:1053F0002C48FAF77FFF03469CB22A48FAF77AFF57
:10540000034622462749284840F0C8FA224B1B6829
:10541000184644F065FBB9E01F4B1B6841F2883128
:10542000184644F012FB1D4A26491E4863F080FAD4
:105430001C48FAF75FFF03469CB21A48FAF75AFF76
:10544000034622461749184840F0A8FA124B1B6839
:10545000184644F045FB99E00F4B1B6841F2883138
:10546000184644F0F2FA0D4A17490E4863F060FA04
:105470000C48FAF73FFF03469CB20A48FAF73AFF96
:10548000034622460749084840F088FA024B1B6849
:10549000184644F025FB79E068D50024C04C070885
:1054A00054C40608BCD50024B0640024F8CA060819
:1054B00018CB06083CCB060864CB060890CB060840
:1054C000B8CB0608D8CB060804CC0608314B1B68BD
:1054D00041F28831184644F0B8FA2F4A2F49304833
:1054E00063F026FA2E48FAF705FF03469CB22C48D3
:1054F000FAF700FF0346224629492A4840F04EFAAF
:10550000244B1B68184644F0EBFA3FE0214B1B6824
:1055100041F28831184644F098FA1F4A224920483F
:1055200063F006FA1E48FAF7E5FE03469CB21C48F3
:10553000FAF7E0FE0346224619491A4840F02EFACF
:10554000144B1B68184644F0CBFA1FE0114B1B6844
:1055500041F28831184644F078FA0F4A134910484E
:1055600063F0E6F90E48FAF7C5FE03469CB20C4814
:10557000FAF7C0FE0346224609490A4840F00EFAEF
:10558000044B1B68184644F0ABFA00BF00BF0C3751
:10559000BD4690BD68D50024C04C070820CC060845
:1055A000BCD50024B06400243CCC060854C40608D2
:1055B00090B585B000AF0346FB710023BB73002399
:1055C000FB736AE0524B186807F10E0100230022BA
:1055D00044F0B6FC03464F4A13604E4B1B68002B49
:1055E00020D04D4B1B6841F28831184644F02DFA0B
:1055F000484B1B68494A4A494A4863F099F9494867
:10560000FAF778FE03469CB24648FAF773FE034663
:1056100022464449444840F0C1F93F4B1B681846B4
:1056200044F05EFA414B1B7C052B33D801A252F8A3
:1056300023F000BF4D5600085B5600086556000871
:105640006F5600087956000883560008BB7B184641
:10565000FDF7B4FB0346FB731FE0BB7B1846FDF769
:1056600053FB1AE0BB7B1846FDF706FE15E0BB7B3B
:105670001846FDF7A3FA10E0BB7B1846FDF7D0FAF9
:105680000BE0BB7BFA7911461846FDF7EBF90346B0
:10569000FB7302E0FDF7F6FA00BFFB7B002B07D19E
:1056A0001B4B1B68184644F0A9FC0346002B89D10C
:1056B000FB7B002B27D11D4B93F8C830002B0FD05C
:1056C0001A4B1B7A002B0BD0184B00221A72174B67
:1056D00000221A74154B002283F8C8200423FB73A0
:1056E000124B9B7C002B0ED0104B1B78002B0AD04A
:1056F0000E4B00221A700D4B00221A740B4B002225
:105700009A740523FB73FB7B18461437BD4690BD86
:10571000C0CB0024B411012468D50024E44C070850
:1057200058CC0608BCD50024B064002484080124A9
:1057300080B400AF104B9B78002B13D00E4B9B789E
:10574000013BDAB20C4B9A700B4B1B780133DAB287
:10575000094B1A70084B1B781F2B07D9064B0022E8
:105760001A7003E0044B5A78034B1A7000BFBD4611
:105770005DF8047B704700BFECED002480B400AFFF
:10578000104B9B78002B13D00E4B9B78013BDAB269
:105790000C4B9A700B4B1B780133DAB2094B1A7021
:1057A000084B1B78072B07D9064B00221A7003E021
:1057B000044B5A78034B1A7000BFBD465DF8047B5A
:1057C000704700BF3003012490B587B002AF9B4BF8
:1057D0001B6841F28831184644F037F9984B1B7921
:1057E000984A9949994863F0A3F89848FAF782FDD6
:1057F00003469CB29548FAF77DFD0346224693493D
:10580000934840F0CBF88D4B1B68184644F068F97C
:105810008A4B1B6841F28831184644F016F9884BD0
:105820005B79884A8B49894863F082F88748FAF7A0
:1058300061FD03469CB28548FAF75CFD03462246AB
:105840008249834840F0AAF87C4B1B68184644F014
:1058500047F97B4B1B7903F00103002B1FD0774BDB
:105860001B6841F28831184644F0EFF8754A7A49CE
:10587000764863F05DF87548FAF73CFD03469CB244
:105880007248FAF737FD034622467049704840F0E7
:1058900085F86A4B1B68184644F022F91EE0674BF6
:1058A0001B6841F28831184644F0CFF8654A6B49CD
:1058B000664863F03DF86548FAF71CFD03469CB264
:1058C0006248FAF717FD034622466049604840F0F7
:1058D00065F85A4B1B68184644F002F9584B1B797F
:1058E00003F00203002B1FD0544B1B6841F2883198
:1058F000184644F0AAF8534A5949544863F018F836
:105900005248FAF7F7FC03469CB25048FAF7F2FC0B
:10591000034622464D494E4840F040F8474B1B682D
:10592000184644F0DDF81EE0444B1B6841F2883114
:10593000184644F08AF8434A4A49444862F0F8FF5E
:105940004248FAF7D7FC03469CB24048FAF7D2FC2B
:10595000034622463D493E4840F020F8374B1B683D
:10596000184644F0BDF8364B1B7903F00403002BB6
:105970001FD0324B1B6841F28831184644F065F85D
:10598000304A3949314862F0D3FF3048FAF7B2FC67
:1059900003469CB22D48FAF7ADFC034622462B493C
:1059A0002B483FF0FBFF254B1B68184644F098F846
:1059B0001EE0224B1B6841F28831184644F045F83E
:1059C000204A2A49214862F0B3FF2048FAF792FCA6
:1059D00003469CB21D48FAF78DFC034622461B493C
:1059E0001B483FF0DBFF154B1B68184644F078F866
:1059F000134B1B7903F00803002B3BD00F4B1B68A4
:105A000041F28831184644F020F80E4A18490F48F0
:105A100062F08EFF0D48FAF76DFC03469CB20B480E
:105A2000FAF768FC03462246084909483FF0B6FFEA
:105A3000024B1B68184644F053F83AE068D500243E
:105A400098080124F84C0708D0CC0608BCD50024DF
:105A5000B0640024F8CC060820CD060838CD06082E
:105A600050CD060874CD06089CCD0608BCCD0608AE
:105A7000D8CD0608A64B1B6841F28831184643F082
:105A8000E4FFA44AA449A54862F052FFA348FAF7EC
:105A900031FC03469CB2A148FAF72CFC034622468F
:105AA0009E499F483FF07AFF994B1B68184644F087
:105AB00017F8974B1B6841F28831184643F0C5FF31
:105AC000984B9B79934A9849944862F031FF9348E8
:105AD000FAF710FC03469CB29048FAF70BFC034619
