:020000040800F2
:1000000000000824751B0108FD190108FF190108EB
:10001000011A0108031A0108051A0108000000006E
:10002000000000000000000000000000016902085C
:10003000071A010800000000916902082361020804
:10004000C91B0108C91B0108C91B0108C91B0108FC
:10005000C91B0108C91B0108C91B0108C91B0108EC
:10006000091A0108C91B0108C91B0108C91B01089D
:10007000C91B0108C91B0108C91B0108C91B0108CC
:10008000C91B0108C91B0108C91B0108C91B0108BC
:10009000C91B0108C91B0108C91B0108C91B0108AC
:1000A000C91B0108C91B0108C91B0108C91B01089C
:1000B000C91B0108C91B0108C91B0108C91B01088C
:1000C000C91B0108C91B0108C91B0108C91B01087C
:1000D000C91B0108111A01081D1A0108C91B0108D2
:1000E000C91B0108C91B010800000000C91B010849
:1000F000C91B0108C91B0108C91B0108C91B01084C
:10010000C91B0108C91B0108C91B0108C91B01083B
:10011000C91B0108C91B0108291A0108C91B0108CC
:10012000C91B0108C91B0108C91B0108C91B01081B
:10013000C91B0108C91B0108C91B0108C91B01080B
:10014000C91B0108C91B01080000000000000000D5
:10015000C91B0108C91B0108C91B0108C91B0108EB
:10016000C91B0108C91B0108C91B0108C91B0108DB
:10017000C91B0108C91B0108C91B010800000000B8
:10018000C91B0108C91B0108C91B0108C91B0108BB
:10019000C91B0108C91B0108C91B0108C91B0108AB
:1001A000351A0108C91B0108411A0108C91B0108B9
:1001B0004D1A0108C91B0108C91B0108C91B010808
:1001C000C91B0108C91B0108C91B0108C91B01087B
:1001D000C91B0108C91B0108C91B0108C91B01086B
:1001E000C91B0108C91B0108C91B0108C91B01085B
:1001F000C91B0108C91B0108C91B0108C91B01084B
:10020000C91B0108C91B0108C91B0108C91B01083A
:10021000C91B0108C91B0108C91B0108C91B01082A
:10022000C91B0108591A0108651A010800000000DD
:10023000C91B0108C91B0108C91B0108C91B01080A
:10024000C91B0108C91B0108C91B0108C91B0108FA
:10025000C91B0108C91B0108C91B0108C91B0108EA
:10026000C91B0108C91B0108C91B0108C91B0108DA
:10027000C91B0108C91B0108C91B0108C91B0108CA
:10028000C91B0108C91B0108C91B010800000000A7
:08029000C91B0108C91B01088C
:1002A00010B5054C237833B9044B13B10448AFF3B0
:1002B00000800123237010BDE00200240000000034
:1002C0000499040808B5034B1BB103490348AFF375
:1002D000008008BD00000000E40200240499040826
:1002E00010F8012B11F8013B012A28BF9A42F7D0E0
:1002F000D01A7047034613F8012B002AFBD1181AB5
:1003000001387047000000000000000000000000FD
:1003100001F0FF01102A2BDB10F0070F08D010F8B6
:10032000013B013A8B422DD010F0070F42B3F6D1BA
:10033000F0B441EA012141EA014122F007047FF0D3
:1003400000070023F0E80256083C85EA010586EA2A
:10035000010685FA47F5A3FA87F586FA47F6A5FA66
:1003600087F68EB9EED1F0BC01F0FF0102F0070272
:1003700032B110F8013B013A83EA010313B1F8D11D
:100380000020704701387047002D06BF35460338FE
:10039000073815F0010F07D1013015F4807F02BF37
:1003A000013015F4C03F0130F0BC0138704700BF88
:1003B00081F0004102E000BF83F0004330B54FEA16
:1003C00041044FEA430594EA050F08BF90EA020F83
:1003D0001FBF54EA000C55EA020C7FEA645C7FEA16
:1003E000655C00F0E2804FEA5454D4EB5555B8BF39
:1003F0006D420CDD2C4480EA020281EA030382EAAA
:10040000000083EA010180EA020281EA0303362D3B
:1004100088BF30BD11F0004F4FEA01314FF4801C0E
:100420004CEA113102D0404261EB410113F0004F20
:100430004FEA03334CEA133302D0524263EB4303D7
:1004400094EA050F00F0A780A4F10104D5F1200E75
:100450000DDB02FA0EFC22FA05F2801841F10001D0
:1004600003FA0EF2801843FA05F359410EE0A5F1A4
:1004700020050EF1200E012A03FA0EFC28BF4CF0D5
:10048000020C43FA05F3C01851EBE37101F000458B
:1004900007D54FF0000EDCF1000C7EEB00006EEB98
:1004A0000101B1F5801F1BD3B1F5001F0CD3490822
:1004B0005FEA30004FEA3C0C04F101044FEA445279
:1004C00012F5800F80F09A80BCF1004F08BF5FEA00
:1004D000500C50F1000041EB045141EA050130BDE0
:1004E0005FEA4C0C404141EB0101013C28BFB1F5F2
:1004F000801FE9D291F0000F04BF01460020B1FA3D
:1005000081F308BF2033A3F10B03B3F120020CDA0F
:100510000C3208DD02F1140CC2F10C0201FA0CF0ED
:1005200021FA02F10CE002F11402D8BFC2F1200C52
:1005300001FA02F120FA0CFCDCBF41EA0C01904008
:10054000E41AA2BF01EB0451294330BD6FEA040451
:100550001F3C1CDA0C340EDC04F11404C4F120023C
:1005600020FA04F001FA02F340EA030021FA04F34E
:1005700045EA030130BDC4F10C04C4F1200220FAA5
:1005800002F001FA04F340EA0300294630BD21FAE3
:1005900004F0294630BD94F0000F83F4801306BFA9
:1005A00081F480110134013D4EE77FEA645C18BF9D
:1005B0007FEA655C29D094EA050F08BF90EA020F34
:1005C00005D054EA000C04BF1946104630BD91EA2C
:1005D000030F1EBF0021002030BD5FEA545C05D12F
:1005E0004000494128BF41F0004130BD14F580046E
:1005F0003CBF01F5801130BD01F0004545F0FE41E2
:1006000041F470014FF0000030BD7FEA645C1ABF16
:10061000194610467FEA655C1CBF0B46024650EA4D
:10062000013406BF52EA033591EA030F41F4002179
:1006300030BD00BF90F0000F04BF0021704730B5FF
:100640004FF4806404F132044FF000054FF00001D4
:1006500050E700BF90F0000F04BF0021704730B595
:100660004FF4806404F1320410F0004548BF40426A
:100670004FF000013EE700BF42004FEAE2014FEABF
:1006800031014FEA02701FBF12F07F4393F07F4F9A
:1006900081F06051704732F07F4208BF704793F09D
:1006A0007F4F04BF41F40021704730B54FF46074B0
:1006B00001F0004521F000411CE700BF50EA0102B3
:1006C00008BF704730B54FF000050AE050EA01025C
:1006D00008BF704730B511F0004502D5404261EBCC
:1006E00041014FF4806404F132045FEA915C3FF40D
:1006F000D8AE4FF003025FEADC0C18BF03325FEAAA
:10070000DC0C18BF033202EBDC02C2F1200300FA5A
:1007100003FC20FA02F001FA03FE40EA0E0021FA7F
:1007200002F11444BDE600BF7BB972B90029BEBF17
:1007300000204FF0004106E008BF00281CBF6FF00A
:1007400000414FF0FF3000F0D3B9ADF1080C6DE976
:1007500004CE002909DB002B1ADB00F04DF8DDF890
:1007600004E0DDE9022304B07047404261EB41013F
:10077000002B1BDB00F040F8DDF804E0DDE902238C
:1007800004B0404261EB4101524263EB43037047C6
:10079000524263EB430300F02FF8DDF804E0DDE99B
:1007A000022304B0404261EB41017047524263EBC7
:1007B000430300F021F8DDF804E0DDE9022304B092
:1007C000524263EB4303704753B94AB9002908BF4B
:1007D00000281CBF4FF0FF314FF0FF3000F088B908
:1007E000ADF1080C6DE904CE00F006F8DDF804E088
:1007F000DDE9022304B070472DE9F047089D0F465C
:1008000004468C46002B48D18A42164661D9B2FA7A
:1008100082F34BB1C3F1200201FA03FC20FA02F289
:100820009E4042EA0C0C9C404FEA164EB7B2BCFB0D
:10083000FEF1220C0EFB11CC42EA0C4201FB07F048
:10084000904209D9B21801F1FF3C80F0EE8090424D
:1008500040F2EB8002393244121AA4B2B2FBFEF02D
:100860000EFB102244EA024400FB07F7A74209D915
:10087000341900F1FF3280F0DA80A74240F2D780CD
:100880003444023840EA0140E41B00211DB1DC4041
:100890000023C5E90043BDE8F0878B4206D90DB1BE
:1008A000C5E9000100210846BDE8F087B3FA83F1ED
:1008B000002948D1BB4202D3824200F20781841A48
:1008C00067EB030201209446002DE4D0C5E9004CFB
:1008D000E1E7002A00F09280B2FA82F3002B40F0A8
:1008E000A8808A1A4FEA164E1FFA86FC0121200CB6
:1008F000B2FBFEF70EFB172240EA02420CFB07F0A8
:10090000904207D9B21807F1FF3802D2904200F2A4
:10091000E2804746121AA4B2B2FBFEF00EFB102290
:1009200044EA02440CFB00FCA44507D9341900F149
:10093000FF3202D2A44500F2CB801046A4EB0C0497
:1009400040EA0740A2E7C1F120068B4022FA06FCEC
:100950004CEA030C07FA01F420FA06F3F7404FEAD9
:100960001C49234300FA01F81FFA8CFEB7FBF9F08B
:100970001C0C09FB107744EA074400FB0EF7A74262
:1009800002FA01F20AD91CEB040400F1FF3A80F0EC
:100990009B80A74240F2988002386444E41B9FB2D7
:1009A000B4FBF9F309FB134447EA044403FB0EFECE
:1009B000A64509D91CEB040403F1FF3780F08280BF
:1009C000A6457FD9023B644443EA0040A4EB0E04F1
:1009D000A0FB02E7BC427346B94663D360D05DB169
:1009E000B8EB030264EB090404FA06F622FA01F3F9
:1009F0001E43CC40C5E9006400214CE7620848086A
:100A000042EAC1710B0C43EA00438AB242EA034254
:100A1000B3FBF6F1E407B4463746B6461F23B0FBF6
:100A2000F6F0D21B41EA004161E7614614E7104647
:100A300028E7C3F1200120FA01F29E4027FA01F1D4
:100A40009F403A434FEA164E1FFA86FCB1FBFEF771
:100A50000EFB1710110C41EA004107FB0CF888450A
:100A600004FA03F43AD9711807F1FF3001D288452E
:100A70001FD8A1EB0801B1FBFEF808FB0CF70EFB39
:100A8000181192B242EA0142BA422FD2B21808F1CA
:100A9000FF31C6D2BA42C4D2A8F102013244C0E743
:100AA000F0459CD2BEEB020367EB0C070138B94658
:100AB00095E7A6EB08084144B81EB1FBFEF808FB19
:100AC0000CF7DCE73B467FE7504667E70846FBE666
:100AD0003444023832E7023F32441BE7A1EB0801FD
:100AE0003846B1FBFEF808FB0CF7C8E7414698E72B
:100AF000704700BF2DE9F743924C41F28831924D87
:100B0000206825F0CFFB2B7E904A9149914846F012
:100B100071FD9048FFF7EEFB8E49034682B28E4886
:100B200024F018FB206825F0E0FB41F288312068B2
:100B300025F0B8FB6B7E854A8849864846F05AFD09
:100B40008448FFF7D7FB8349034682B2824824F0EA
:100B500001FB206825F0C9FB2B7E206841F288311B
:100B6000DB0740F1DB8025F09DFB784A7C49794822
:100B700046F040FD7748FFF7BDFB7649034682B259
:100B8000754824F0E7FA206825F0AFFB2B7E20683B
:100B900041F288319F0740F1C68025F083FB6B4A04
:100BA00070496C4846F026FD6A48FFF7A3FB694987
:100BB000034682B2684824F0CDFA206825F095FB00
:100BC0002B7E206841F288315E0740F1B18025F02C
:100BD00069FB5E4A64495F4846F00CFD5D48FFF7DB
:100BE00089FB5C49034682B25B4824F0B3FA206873
:100BF00025F07BFB2B7E206841F288311A0740F1FB
:100C00009C8025F04FFB514A5849524846F0F2FC6F
:100C10005048FFF76FFB4F49034682B24E4824F01D
:100C200099FA206825F061FB41F28831206825F0AF
:100C300039FBAB7E454A4E49464846F0DBFC454809
:100C4000FFF758FB4349034682B2434824F082FA37
:100C5000206825F04AFB41F28831206825F022FB0C
:100C60003A4A44493B4846F0C5FC3A48FFF742FB44
:100C70003849034682B2384824F06CFA206825F0DF
:100C800034FBAB7E53B1DFF80C810026AB7E4FEA1C
:100C9000C6092068B3425FFA89F97DDC41F28831E8
:100CA000206825F0FFFAAB7E284A2B4432492948B8
:100CB000DB7E46F09FFC2748FFF71CFB25490346D7
:100CC00082B2254824F046FA206825F00EFB41F256
:100CD0008831206825F0E6FAAB7E1C4A2B44274970
:100CE0001C481B7F46F086FC1A48FFF703FB194996
:100CF000034682B2184824F02DFA206825F0F5FA50
:100D0000AB7E20681D44EB7E082B00F0868041F20C
:100D1000883125F0C7FA0D4A194988E025F0C2FA52
:100D20000A4A184923E725F0BDFA084A164938E768
:100D300025F0B8FA054A15494DE725F0B3FA034AFC
:100D4000134962E7AC4F0024C41B0024506D050812
:100D50006C9904085C470024A8C0002492990408F8
:100D6000B8990408E79904082F9A0408679A0408B8
:100D70009F9A0408C59A0408EF9A0408159B040872
:100D8000B59B0408CF990408099A04084C9A0408F2
:100D9000819A0408DF1B002441F28831002725F0E6
:100DA00081FA98F800302B4A2B49009333462B48A0
:100DB00046F020FC2948FFF79DFA2849034682B2F5
:100DC000274824F0C7F9206825F08FFA98F80030FA
:100DD0003B41DB071AD541F28831206825F062FAE1
:100DE00009F101031B4A3B441E491C48DBB2009336
:100DF00046F000FC1948FFF77DFA1849034682B215
:100E0000174824F0A7F9206825F06FFA0137082F5A
:100E1000DCD1013608F1010838E72B7F002B7FF485
:100E200076AF41F2883125F03DFA0A4A0E490B4867
:100E300046F0E0FB0948FFF75DFA0849034682B235
:100E4000074824F087F9206803B0BDE8F04325F097
:100E50004CBA00BF506D05083B9B04085C4700245A
:100E6000A8C00024609B0408849B040838B5564C35
:100E700041F28831554D206825F014FA2B7E544AF2
:100E80005449554846F0B6FB5348FFF733FA5249E8
:100E900082B20346514824F05DF9206825F025FA16
:100EA0002D7EEA0715D541F28831206825F0FAF940
:100EB000474A4B49484846F09DFB4748FFF71AFA16
:100EC0004549034682B2454824F044F9206825F09C
:100ED0000CFAAB0715D541F28831206825F0E2F90C
:100EE0003B4A40493C4846F085FB3B48FFF702FA45
:100EF0003949034682B2394824F02CF9206825F09C
:100F0000F4F9680715D541F28831206825F0CAF94F
:100F10002F4A3549304846F06DFB2F48FFF7EAF974
:100F20002D49034682B22D4824F014F9206825F09B
:100F3000DCF9290715D541F28831206825F0B2F98E
:100F4000234A2A49244846F055FB2348FFF7D2F9A3
:100F50002149034682B2214824F0FCF8206825F09C
:100F6000C4F9EA0615D541F28831206825F09AF9CE
:100F7000174A1F49184846F03DFB1748FFF7BAF9D2
:100F80001549034682B2154824F0E4F8206825F09C
:100F9000ACF9AB0617D541F28831206825F082F90B
:100FA0000B4A14490C4846F025FB0B48FFF7A2F901
:100FB0000949034682B2094824F0CCF82068BDE80C
:100FC000384025F092B938BDAC4F0024C41B002432
:100FD000206D0508079C04085C470024A8C0002475
:100FE0001F9C04083F9C0408639C04088F9C040811
:100FF000B29C0408CC9C04082DE9F341804C41F2DA
:101000008831804D0026206825F04CF92B7E7E4AE1
:101010007E497F4846F0EEFA7D48FFF76BF97C4940
:10102000034682B27B4824F095F8206825F05DF9EC
:1010300041F28831206825F035F96B7E724A764995
:10104000734846F0D7FA7248FFF754F970490346DF
:1010500082B2704824F07EF8206825F046F941F20B
:101060008831206825F01EF9AB7E674A6B496848D5
:1010700046F0C0FA6648FFF73DF96549034682B27B
:10108000644824F067F8206825F02FF941F2883190
:10109000206825F007F9EB7E5B4A61495C4846F021
:1010A000A9FA5B48FFF726F95949034682B2594825
:1010B00024F050F8206825F018F941F288312068B2
:1010C00025F0F0F82B7F504A5649514846F092FAE5
:1010D0004F48FFF70FF94E49034682B24D4824F0BE
:1010E00039F8206825F001F941F28831206825F0AF
:1010F000D9F86B7F444A4C49454846F07BFA44484E
:10110000FFF7F8F84249034682B2424824F022F839
:10111000206825F0EAF841F28831206825F0C2F80D
:10112000AB7F394A41493A4846F064FA3848FFF7FC
:10113000E1F83749034682B2364824F00BF82068BC
:1011400025F0D3F841F28831206825F0ABF815F886
:101150001F3F2D4A36492E4846F04CFA2C48FFF7DF
:10116000C9F82B49034682B22A4823F0F3FF2068CE
:1011700025F0BBF841F28831206825F093F815F886
:10118000013F214A4FEAC6082A4900270093334607
:101190001F485FFA88F846F02DFA1D48FFF7AAF8B5
:1011A0001B49034682B21B4823F0D4FF206825F078
:1011B0009CF82B783B41DB0719D541F28831206838
:1011C00025F070F808F101030F4A3B441A49104812
:1011D000DBB246F00FFA0E48FFF78CF80C490346D5
:1011E00082B20C4823F0B6FF206825F07EF8013764
:1011F000082FDED10136202EBCD102B0BDE8F0812F
:10120000AC4F0024C41B0024F36C0508E69C0408C2
:101210005C470024A8C000241C9D0408529D0408BB
:10122000889D0408BE9D0408F49D04082A9E0408B5
:10123000609E0408969E0408C49E04082DE9F743A6
:10124000294C41F28831294D206825F02BF82B7E5E
:10125000274A2849284846F0CDF92748FFF74AF899
:101260002549034682B2254823F074FF206825F003
:101270003CF82B7E2068202B24D8202B28D8DFE8B0
:1012800013F0410082018901D701AD01DE01270081
:101290002700B40127002700270027002700270088
:1012A0002700BB01E501EC01F3012700FA0101026F
:1012B00027002700270027002700270027002700F6
:1012C0002700C201402B00F0A581802B00F0A981EE
:1012D00041F2883124F0E6FF2B7E054A0849064892
:1012E00046F088F917E000BFAC4F0024C41B00246F
:1012F000AD6C0508009F04085C470024A8C00024CA
:1013000030A2040841F2883124F0CCFFA54AA64956
:10131000A64846F06FF9A548FEF7ECFFA34903463F
:1013200082B2A34823F016FF206824F0DEFF2B7E54
:10133000012B00F0AE812B7E032B30D141F288319E
:10134000206824F0AFFF6B7E964A9A49974846F092
:1013500051F99648FEF7CEFF9449034682B294486D
:1013600023F0F8FE206824F0C0FF6B7E206841F275
:101370008831002B00F0ED8124F094FF894A8E49DA
:101380008A4846F037F98948FEF7B4FF8749034693
:1013900082B2874823F0DEFE206824F0A6FF2B7E71
:1013A000052B1BD16B7E41F28831AE7E206806EBA7
:1013B000032624F077FF7B4AB6B280497B48334648
:1013C00046F018F97948FEF795FF7849034682B24E
:1013D000774823F0BFFE206824F087FF2B7E102B78
:1013E00017D16E7E41F28831206824F05BFF3346CE
:1013F0006C4A73496D4846F0FDF86C48FEF77AFF79
:101400006A49034682B26A4823F0A4FE206824F0A9
:101410006CFF2B7E112B17D16E7E41F28831206834
:1014200024F040FF33465F4A6649604846F0E2F8E0
:101430005E48FEF75FFF5D49034682B25C4823F0D9
:1014400089FE206824F051FF2B7E122B30D141F20F
:101450008831206824F026FF6B7E524A5549534854
:1014600046F0C8F85148FEF745FF5049034682B29E
:101470004F4823F06FFE206824F037FF6B7E206812
:1014800041F28831002B00F0698124F00BFF454ABE
:101490004D49464846F0AEF84448FEF72BFF434915
:1014A000034682B2424823F055FE206824F01DFF17
:1014B0002B7E132B37D16B7E41F28831AF7E2E7F8E
:1014C00007EB0327EB7E2068BFB206EB032624F070
:1014D000E9FE3B46334AB6B23C49344846F08AF806
:1014E0003248FEF707FF3149034682B2304823F005
:1014F00031FE206824F0F9FE41F28831206824F0A2
:10150000D1FE3346274A3249284846F073F8274827
:10151000FEF7F0FE2549034682B2254823F01AFE65
:10152000206824F0E2FE2B7E202B40F040816E7E6E
:101530002068212E00F21781212E00F21A81DFE8A7
:1015400016F02001A201AA01ED01180105020D0209
:1015500015021D02F5011801FD01180118011801FD
:1015600018011801180118011801180118011801B3
:1015700018011801180118011801180118011801A3
:10158000180125022D0241F2883124F08BFE054A14
:101590001049BDE641F2883124F084FE014A0E492B
:1015A000B6E600BFAD6C0508279F04085C47002421
:1015B000A8C00024EDA2040814A304089DA30408F5
:1015C000B6A30408D8A30408FDA3040870A4040863
:1015D0009AA40408519F0408799F040841F28831B5
:1015E00024F060FEB04AB14992E641F2883124F01D
:1015F00059FEAD4AAE498BE641F2883124F052FEE5
:10160000A94AAC4984E641F2883124F04BFEA64A4F
:10161000A9497DE641F2883124F044FEA24AA74957
:1016200076E641F2883124F03DFE9F4AA4496FE6F8
:1016300041F2883124F036FE9B4AA24968E641F225
:10164000883124F02FFE984A9F4961E641F28831A3
:1016500024F028FE944A9D495AE641F2883124F04C
:1016600021FE914A9A4953E641F2883124F01AFE4C
:101670008D4A98494CE641F2883124F013FE8A4A9B
:10168000954945E641F2883124F00CFE864A93499B
:101690003EE641F28831206824F004FE6B7E824AE7
:1016A00000268F498F4845F0A5FF8E48FEF722FEA1
:1016B000DFF86482034682B28A498B4823F04AFDF0
:1016C000206824F012FE41F28831206824F0EAFDFF
:1016D00018F8013F744A4FEAC6098449002700936D
:1016E000334680485FFA89F945F084FF7D48FEF76C
:1016F00001FE7C49034682B27B4823F02BFD206823
:1017000024F0F3FD98F800303B41DB071AD541F295
:101710008831206824F0C6FD09F10103624A3B4488
:1017200073497048DBB2009345F064FF6D48FEF7E3
:10173000E1FD6C49034682B26B4823F00BFD206843
:1017400024F0D3FD0137082FDCD10136112EBAD198
:10175000F1E524F0A7FD544A664911E624F0A2FD04
:10176000514A654995E6FE2E00F02081FF2E00F0DB
:10177000258141F2883124F095FD33464A4A5F497C
:1017800006E041F2883124F08DFD0023464A5C4991
:10179000544845F02FFF5348FEF7ACFD514903462E
:1017A00082B2514823F0D6FC206824F09EFD2B7EA7
:1017B000402B30D141F28831206824F073FD6B7EDC
:1017C000394A5049474845F015FF4648FEF792FD13
:1017D0004449034682B2444823F0BCFC206824F00C
:1017E00084FD6B7E206841F28831002B00F0EE8092
:1017F00024F058FD2C4A44493A4845F0FBFE39484C
:10180000FEF778FD3749034682B2374823F0A2FC41
:10181000206824F06AFD2B7E802B40F0E18041F2AD
:101820008831206824F03EFD6B7E1F4A35492D48E3
:1018300045F0E0FE2B48FEF75DFD2A49034682B2E3
:10184000294823F087FC206824F04FFD6B7E206838
:1018500041F28831002B00F0BE8024F023FD124AB3
:101860002A49204845F0C6FE1E48FEF743FD1D49A3
:10187000034682B21C4823F06DFC206803B0BDE82B
:10188000F04324F032BD41F2883124F00BFD0123F6
:10189000054A1F497CE741F2883124F003FD022309
:1018A000014A1C4974E700BFAD6C0508A89F0408F5
:1018B000D89F040808A004083EA004086AA00408F1
:1018C00096A00408C8A00408F8A0040828A10408E9
:1018D00061A1040898A10408CFA1040802A2040889
:1018E00073A204085C470024A8C0002493A2040843
:1018F000BBA2040852A3040830A40408D1A604081B
:10190000C4A40408EDA20408F5A6040856A7040818
:10191000E3A4040803A50408DD1B002441F2883178
:1019200024F0C0FC0323304A304931E741F28831CA
:1019300024F0B8FC09232C4A2D4929E741F28831CB
:1019400024F0B0FC0B23284A2A4921E741F28831D0
:1019500024F0A8FC0523244A274919E741F28831DD
:1019600024F0A0FC0623204A244911E741F28831E3
:1019700024F098FC07231C4A214909E741F28831E9
:1019800024F090FC0823184A1E4901E741F28831EF
:1019900024F088FC2023144A1B49F9E641F28831DF
:1019A00024F080FC2123104A1849F1E641F28831E5
:1019B00024F078FC33460C4A1549E9E641F28831B7
:1019C00024F070FC3346084A1249E1E624F06AFC30
:1019D000054A114910E724F065FC034A0F4940E726
:1019E00003B0BDE8F08300BFAD6C050835A5040861
:1019F0005BA5040888A50408B4A50408D6A50408B6
:101A0000F9A504081CA604083EA6040860A604085C
:101A100082A60408A8A6040825A704088CA7040821
:101A200070B55C4D41F288315B4CAB7D2068012B79
:101A30005A4E49D124F036FC3388594A59495A48FC
:101A400045F0D8FD5848FEF755FC5749034682B289
:101A5000564823F07FFB206824F047FC41F2883190
:101A6000206824F01FFC2B7E4D4A51494E4845F01A
:101A7000C1FD4D48FEF73EFC4B49034682B24B4840
:101A800023F068FB206824F030FC2B7E206841F2B4
:101A90008831A3B124F006FC414A4649424845F04A
:101AA000A9FD4148FEF726FC3F49034682B23F4864
:101AB00023F050FB2068BDE8704024F016BC24F0F1
:101AC000F1FB374A3C49E9E724F0ECFB3388344A20
:101AD0003A49354845F08EFD3348FEF70BFC324954
:101AE000034682B2314823F035FB206824F0FDFB29
:101AF00041F28831206824F0D5FB2B7E284A3049FA
:101B0000294845F077FD2848FEF7F4FB26490346AF
:101B100082B2264823F01EFB206824F0E6FB41F247
:101B20008831206824F0BEFB6B7E1D4A25491E4883
:101B300045F060FD1C48FEF7DDFB1B49034682B201
:101B40001A4823F007FB206824F0CFFB6B7E206847
:101B500041F28831032B17D8DFE803F002070C119C
:101B600024F0A0FB0E4A184998E724F09BFB0C4A8E
:101B7000164993E724F096FB094A15498EE724F0AD
:101B800091FB074A134989E724F08CFB044A124968
:101B900084E700BFC41B0024AC4F0024840E002443
:101BA000836C0508E0A704085C470024A8C0002453
:101BB000FCA7040818A8040850A8040875A804087D
:101BC0008EA80408A7A80408C0A80408D5A804087B
:101BD000FFA8040836A9040861A9040838B5364CE2
:101BE00041F28831354D206824F05CFB344B354A96
:101BF0003549364845F0FEFC3448FEF77BFB334957
:101C0000034682B2324823F0A5FA206824F06DFB27
:101C100041F28831206824F045FB2948FEF76AFB31
:101C20002844284A437E2B49284845F0E3FC2748AE
:101C3000FEF760FB2549034682B2254823F08AFA65
:101C4000206824F052FB05F11800FEF753FB2844EE
:101C5000437E2068032B11D0072B26D041F2883118
:101C600024F020FB05F11800FEF744FB0544154A5B
:101C70006B7E1949154845F0BDFC08E041F28831FA
:101C800024F010FB0F4A1549104845F0B3FC0F48EB
:101C9000FEF730FB0D49034682B20D4823F05AFA95
:101CA0002068BDE8384024F020BB41F2883124F0A0
:101CB000F9FA044A0A49E7E7AC4F0024C41B0024A0
:101CC000DC1B0024456C050891A904085C4700242E
:101CD000A8C00024AFA904080AAA0408CDA90408D2
:101CE000E9A9040810B50D4C41F28831206824F0B0
:101CF000D9FA0B4B0B4A1B7E0B490C4845F07AFC7A
:101D00000A48FEF7F7FA0949034682B2084823F069
:101D100021FA2068BDE8104024F0E7BAAC4F002457
:101D2000C41B00248C6B050850AA04085C470024DF
:101D3000A8C0002438B5444D41F28831434CAB7DF6
:101D40002068012B32D124F0ADFA2B7E404A414964
:101D5000414845F04FFC4048FEF7CCFA3E49034667
:101D600082B23E4823F0F6F9206824F0BEFA2B7EBA
:101D7000206841F28831A3B124F094FA344A3849FA
:101D8000354845F037FC3448FEF7B4FA324903468B
:101D900082B2324823F0DEF92068BDE8384024F0F2
:101DA000A4BA24F07FFA2A4A2E49E9E724F07AFA05
:101DB0002B7E274A2C49284845F01CFC2648FEF774
:101DC00099FA2549034682B2244823F0C3F92068D2
:101DD00024F08BFA41F28831206824F063FA6B7E9C
:101DE0001B4A22491C4845F005FC1B48FEF782FAB5
:101DF0001949034682B2194823F0ACF9206824F04F
:101E000074FA6B7E206841F28831032B17D8DFE823
:101E100003F002070C1124F045FA0D4A1449AFE70C
:101E200024F040FA0A4A1349AAE724F03BFA084A88
:101E30001149A5E724F036FA054A1049A0E724F035
:101E400031FA034A0E499BE7C41B0024AC4F00241F
:101E5000646B0508FCA704085C470024A8C00024A4
:101E600018A8040850A804086AAA040885AA040847
:101E7000C0A80408D5A80408FFA8040836A90408C7
:101E800061A9040838B5444D41F28831434CAB7D1B
:101E90002068012B32D124F005FA2B7E404A4149BB
:101EA000414845F0A7FB4048FEF724FA3E49034667
:101EB00082B23E4823F04EF9206824F016FA2B7EB9
:101EC000206841F28831A3B124F0ECF9344A384952
:101ED000354845F08FFB3448FEF70CFA324903468B
:101EE00082B2324823F036F92068BDE8384024F049
:101EF000FCB924F0D7F92A4A2E49E9E724F0D2F9AF
:101F00002B7E274A2C49284845F074FB2648FEF7CB
:101F1000F1F92549034682B2244823F01BF92068D1
:101F200024F0E3F941F28831206824F0BBF96B7E9C
:101F30001B4A22491C4845F05DFB1B48FEF7DAF9B5
:101F40001949034682B2194823F004F9206824F0A5
:101F5000CCF96B7E206841F28831032B17D8DFE87B
:101F600003F002070C1124F09DF90D4A1449AFE764
:101F700024F098F90A4A1349AAE724F093F9084A89
:101F80001149A5E724F08EF9054A1049A0E724F08D
:101F900089F9034A0E499BE7C41B0024AC4F002477
:101FA0003C6B0508FCA704085C470024A8C000247B
:101FB00018A8040850A804086AAA040885AA0408F6
:101FC000C0A80408D5A80408FFA8040836A9040876
:101FD00061A9040838B51C4C41F288311B4D2068BA
:101FE00024F060F96B7E1A4A1A491B4845F002FB3F
:101FF0001948FEF77FF91849034682B2174823F0C3
:10200000A9F8206824F071F92B7E206841F288310C
:10201000A3B124F047F90E4A11490F4845F0EAFAF6
:102020000D48FEF767F90C49034682B20B4823F0CE
:1020300091F82068BDE8384024F057B924F032F90F
:10204000034A0849E9E700BFAC4F0024C41B002441
:102050009D6A0508A0AA04085C470024A8C00024C3
:10206000C6AA0408F5AA040838B5444D41F28831DF
:10207000434CAB7D2068012B32D124F013F92B7E29
:10208000404A4149414845F0B5FA4048FEF732F927
:102090003E49034682B23E4823F05CF8206824F0B3
:1020A00024F92B7E206841F28831A3B124F0FAF89C
:1020B000344A3849354845F09DFA3448FEF71AF954
:1020C0003249034682B2324823F044F82068BDE822
:1020D000384024F00AB924F0E5F82A4A2E49E9E705
:1020E00024F0E0F82B7E274A2C49284845F082FA54
:1020F0002648FEF7FFF82549034682B2244823F01C
:1021000029F8206824F0F1F841F28831206824F0A1
:10211000C9F86B7E1B4A22491C4845F06BFA1B48E4
:10212000FEF7E8F81949034682B2194823F012F87D
:10213000206824F0DAF86B7E206841F28831032BA6
:1021400017D8DFE803F002070C1124F0ABF80D4AB2
:102150001449AFE724F0A6F80A4A1349AAE724F085
:10216000A1F8084A1149A5E724F09CF8054A10494E
:10217000A0E724F097F8034A0E499BE7C41B00240C
:10218000AC4F0024716A0508FCA704085C470024D2
:10219000A8C0002432AB040861AB040850AA0408AC
:1021A000A8AB0408C0A80408D5A80408FFA8040820
:1021B00036A9040861A9040838B5404D41F28831B8
:1021C0003F4CAB7D2068012B32D124F06BF82B7E85
:1021D0003C4A3D493D4845F00DFA3C48FEF78AF837
:1021E0003A49034682B23A4822F0B4FF206824F00C
:1021F0007CF82B7E206841F28831A3B124F052F89C
:10220000304A3449314845F0F5F93048FEF772F864
:102210002E49034682B22E4822F09CFF2068BDE87A
:10222000384024F062B824F03DF8264A2A49E9E70C
:1022300024F038F82B7E234A2849244845F0DAF95F
:102240002248FEF757F82149034682B2204822F07F
:1022500081FF206824F049F841F28831206824F099
:1022600021F86B7E174A1E49184845F0C3F91748F4
:10227000FEF740F81549034682B2154822F06AFF7E
:10228000206824F032F86B7E2068052B08D0062BDE
:102290000DD041F2883124F005F80A4A1149B1E71E
:1022A00041F2883123F0FEFF064A0F49AAE741F2C6
:1022B000883123F0F7FF034A0C49A3E7C41B00242D
:1022C000AC4F00244E6A0508FCA704085C470024B4
:1022D000A8C00024C2AB0408E4AB040820AC040886
:1022E0003EAC040888AC04085CAC040870AC04087C
:1022F00038B5444D41F28831434CAB7D2068012B09
:1023000032D123F0CFFF2B7E404A4149414845F06E
:1023100071F94048FDF7EEFF3E49034682B23E4860
:1023200022F018FF206823F0E0FF2B7E206841F2A6
:102330008831A3B123F0B6FF344A3849354845F017
:1023400059F93448FDF7D6FF3249034682B2324884
:1023500022F000FF2068BDE8384023F0C6BF23F01C
:10236000A1FF2A4A2E49E9E723F09CFF2B7E274A4A
:102370002C49284845F03EF92648FDF7BBFF254982
:10238000034682B2244822F0E5FE206823F0ADFF28
:1023900041F28831206823F085FF6B7E1B4A224979
:1023A0001C4845F027F91B48FDF7A4FF19490346CF
:1023B00082B2194822F0CEFE206823F096FF6B7E91
:1023C000206841F28831032B17D8DFE803F00207B9
:1023D0000C1123F067FF0D4A1449AFE723F062FFA9
:1023E0000A4A1349AAE723F05DFF084A1149A5E705
:1023F00023F058FF054A1049A0E723F053FF034A92
:102400000E499BE7C41B0024AC4F0024226A050838
:10241000FCA704085C470024A8C00024B7AC04084B
:10242000E6AC040850AA0408A8AB0408C0A8040835
:10243000D5A80408FFA8040836A9040861A904085F
:10244000F8B5774D774CAB7D2068012B764F40F087
:102450008680764E41F288312B7E337023F022FF46
:102460003B88734A7349744845F0C4F87248FDF7D5
:1024700041FF7149034682B2704822F06BFE20682A
:1024800023F033FF41F28831206823F00BFF3378CB
:10249000674A6B49684845F0ADF86748FDF72AFF81
:1024A0006549034682B2654822F054FE206823F055
:1024B0001CFF33782068082B08D8082B0AD8DFE8DF
:1024C00003F021092B09320909093900102B38D0F2
:1024D000202B3DD041F2883123F0E4FE3378544A7A
:1024E0005849554845F086F85348FDF703FF5249CF
:1024F000034682B2514822F02DFE2068BDE8F84024
:1025000023F0F3BE41F2883123F0CCFE484A4E4915
:10251000494845F06FF8E7E741F2883123F0C2FE01
:10252000434A4A49F4E741F2883123F0BBFE404A6E
:102530004749EDE741F2883123F0B4FE3C4A454972
:10254000E6E741F2883123F0ADFE394A4249DFE740
:1025500041F2883123F0A6FE354A4049D8E741F2DE
:10256000883123F09FFE3B88314A3D49324845F08F
:1025700041F83148FDF7BEFE2F49034682B22F488D
:1025800022F0E8FD206823F0B0FE41F28831206897
:1025900023F088FE2B7E264A3249274845F02AF848
:1025A0002548FDF7A7FE2449034682B2234822F0BE
:1025B000D1FD206823F099FE41F28831206823F094
:1025C00071FE6B7E1A4A28491B4845F013F81A48D9
:1025D000FDF790FE1849034682B2184822F0BAFD72
:1025E000206823F082FE6B7E206841F28831012B47
:1025F00007D0022B0AD073B923F054FE0C4A1B49B2
:1026000086E723F04FFE0A4A194981E723F04AFE84
:10261000074A18497CE723F045FE054A164977E743
:10262000C41B0024AC4F0024840E00240A0600249E
:10263000B1690508E0A704085C470024A8C000248D
:10264000FCA704080AAE04082DAD040854AD040824
:1026500077AD040898AD0408BAAD0408E6AD0408E7
:1026600046AE040879AE0408ACAE0408DFAE040838
:1026700035AF04088BAF0408EAAF040838B5124B35
:1026800041F28831114C1B7E2068114DABB123F013
:1026900009FE2B880F4A1049104844F0ABFF0F4841
:1026A000FDF728FE0D49034682B20D4822F052FD87
:1026B0002068BDE8384023F018BE23F0F3FD2B88D6
:1026C000044A0849E8E700BFC41B0024AC4F0024BB
:1026D000840E00248E6905082FB004085C4700248E
:1026E000A8C000248BB0040838B51C4C41F28831D6
:1026F0001B4D206823F0D6FD2B7E1A4A1A491B4831
:1027000044F078FF1948FDF7F5FD1849034682B2F9
:10271000174822F01FFD206823F0E7FD2B7E20687C
:1027200041F28831A3B123F0BDFD0E4A11490F4893
:1027300044F060FF0D48FDF7DDFD0C49034682B211
:102740000B4822F007FD2068BDE8384023F0CDBDDE
:1027500023F0A8FD034A0849E9E700BFAC4F002475
:10276000C41B00246A690508D4B004085C4700242F
:10277000A8C00024F6B004081CB1040838B5234CE6
:1027800041F28831224D206823F08CFD2B7E214AB6
:102790002149224844F02EFF2048FDF7ABFD1F4998
:1027A000034682B21E4822F0D5FC206823F09DFD2E
:1027B0002B7E206841F28831012B17D0022B1AD0D2
:1027C000F3B923F06FFD134A1649144844F012FF81
:1027D0001248FDF78FFD1149034682B2104822F0DE
:1027E000B9FC2068BDE8384023F07FBD23F05AFDD6
:1027F000084A0D49E9E723F055FD064A0B49E4E78D
:1028000023F050FD034A0A49DFE700BFAC4F002424
:10281000C41B0024C768050846B104085C470024AF
:10282000A8C0002469B1040877B1040887B104087E
:10283000A0B1040838B51C4C41F288311B4D20680A
:1028400023F030FD6B7E1A4A1A491B4844F0D2FE31
:102850001948FDF74FFD1849034682B2174822F088
:1028600079FC206823F041FD2B7E206841F28831FD
:10287000A3B123F017FD0E4A11490F4844F0BAFEE8
:102880000D48FDF737FD0C49034682B20B4822F094
:1028900061FC2068BDE8384023F027BD23F002FD2D
:1028A000034A0849E9E700BFAC4F0024C41B0024D9
:1028B000A6680508C6B104085C470024A8C0002427
:1028C000EDB104081DB2040838B51C4C41F2883142
:1028D0001B4D206823F0E6FC2B7E1A4A1A491B4840
:1028E00044F088FE1948FDF705FD1849034682B2F9
:1028F000174822F02FFC206823F0F7FC2B7E20687D
:1029000041F28831A3B123F0CDFC0E4A11490F48A2
:1029100044F070FE0D48FDF7EDFC0C49034682B211
:102920000B4822F017FC2068BDE8384023F0DDBCDE
:1029300023F0B8FC034A0849E9E700BFAC4F002484
:10294000C41B00248768050853B204085C470024B0
:10295000A8C0002473B2040893B2040838B5A44C8C
:1029600041F28831A34D206823F09CFC2B68A24AD9
:102970001B78A249A24844F03DFEA148FDF7BAFCED
:102980009F49034682B29F4822F0E4FB206823F06F
:10299000ACFC41F28831206823F084FC964A9A49C5
:1029A000974844F027FE9648FDF7A4FC9449034657
:1029B00082B2944822F0CEFB206823F096FC41F2CC
:1029C0008831206823F06EFC2B688B4A5B788F4936
:1029D0008B4844F00FFE8A48FDF78CFC884903467B
:1029E00082B2884822F0B6FB206823F07EFC2B6878
:1029F000206841F288315B78013B042B72D8DFE814
:102A000003F0035D62676C0023F04CFC7A4A804956
:102A10007B4844F0EFFD7A48FDF76CFC78490346AB
:102A200082B2784822F096FB206823F05EFC2B6887
:102A30005B78012B17D141F28831206823F032FCFA
:102A40002B686D4A9B7873496D4844F0D3FD6C4800
:102A5000FDF750FC6A49034682B26A4822F07AFBCD
:102A6000206823F042FC2B685B78032B40F08A80BF
:102A700041F28831206823F015FC2B685E4A9B7870
:102A800065495F4844F0B6FD5D48FDF733FC5C499D
:102A9000034682B25B4822F05DFB206823F025FCF0
:102AA0002B6820689B7813BB41F2883123F0FAFB36
:102AB000514A5A49524844F09DFD27E023F0F2FB69
:102AC0004D4A5749A4E723F0EDFB4B4A55499FE790
:102AD00023F0E8FB484A54499AE723F0E3FB464ACF
:102AE000524995E723F0DEFB434A514990E75A1ECD
:102AF00041F28831622A00F2A78023F0D3FB2B68D1
:102B00003D4A9B784B493E4844F074FD3C48FDF7F4
:102B1000F1FB3B49034682B23A4822F01BFB206896
:102B200023F0E3FB41F28831206823F0BBFB2B68E4
:102B3000314ADB784049324844F05CFD3048FDF7CB
:102B4000D9FB2F49034682B22E4822F003FB2068AE
:102B500023F0CBFB41F28831206823F0A3FB2B68E4
:102B6000254A1B793549264844F044FD2448FDF7A1
:102B7000C1FB2349034682B2224822F0EBFA2068C7
:102B800023F0B3FB2B685B78042B69D141F28831C9
:102B9000206823F087FB2B68174ADB782849184800
:102BA00044F028FD1648FDF7A5FB1549034682B2FF
:102BB000144822F0CFFA206823F097FB41F28831C5
:102BC000206823F06FFB2B680B4A1B791D490C48CA
:102BD00044F010FD0A48FDF78DFB0949034682B217
:102BE000084822F0B7FA2068BDE8384023F07DBBE2
:102BF000AC4F00240C13002463680508B4B2040829
:102C00005C470024A8C00024D4B2040800B3040820
:102C100020B3040816B4040836B4040856B40408F3
:102C20003FB304085EB3040880B30408AEB30408DD
:102C3000DBB3040863B40408CBB40408EBB40408A1
:102C40000BB504082BB50408FF2B04D123F02AFB95
:102C5000044A05492EE723F025FB024A034929E7E8
:102C600038BD00BF6368050878B40408A3B404083D
:102C700010B50E4C41F28831206823F013FB0C4B49
:102C80000C4A1B680C491B780C4844F0B3FC0B48F9
:102C9000FDF730FB0949034682B2094822F05AFA8F
:102CA0002068BDE8104023F020BB00BFAC4F0024DB
:102CB0000C1300242B6805084BB504085C4700245E
:102CC000A8C0002410B50D4C41F28831206823F0D3
:102CD000E9FA0B4B0B4ADB7D0B490C4844F08AFCAC
:102CE0000A48FDF707FB0949034682B2084822F06B
:102CF00031FA2068BDE8104023F0F7BAAC4F002449
:102D0000C41B00240E6805088EB504085C47002427
:102D1000A8C000240C4C41F2883108B5206823F08B
:102D2000C1FA0A4A0A490B4844F064FC0948FDF715
:102D3000E1FA0849034682B2074822F00BFA2068FC
:102D400023F0D3FA72B6FEE7AC4F0024FD6305080A
:102D5000D6B504085C470024A8C0002438B5104B41
:102D600041F288310F4D1A7E5C7E286804EB022404
:102D700023F098FA0C4AA4B20C490D48234644F0BB
:102D800039FC0B48FDF7B6FA0949034682B20948F7
:102D900022F0E0F92868BDE8384023F0A6BA00BF69
:102DA000C41B0024AC4F0024FE69050820B60408AB
:102DB0005C470024A8C000240D4C41F2883108B5BE
:102DC000206823F06FFA0B4A0B490C4844F012FCC0
:102DD0000A48FDF78FFA0949034682B2084822F0F3
:102DE000B9F9206823F081FA642023F017FAFBE791
:102DF000AC4F0024386405083AB604085C47002448
:102E0000A8C000240E4C41F2883108B5206823F098
:102E100049FA0C4A0C490D4844F0ECFB0B48FDF70D
:102E200069FA0A49034682B2094822F093F92068F8
:102E300023F05BFA4FF4FA7023F0F0F9FAE700BFE1
:102E4000AC4F0024216405083AB604085C4700240E
:102E5000A8C000240E4C41F2883108B5206823F048
:102E600021FA0C4A0C490D4844F0C4FB0B48FDF70D
:102E700041FA0A49034682B2094822F06BF92068F8
:102E800023F033FA4FF4FA7023F0C8F9FAE700BFE1
:102E9000AC4F0024156405083AB604085C470024CA
:102EA000A8C0002410B5114C41F28831206823F0ED
:102EB000F9F90F4A0F49104844F09CFB0E48FDF702
:102EC00019FA0D49034682B20C4822F043F92068F2
:102ED000002423F00AFA6434FA2C03D900240120D8
:102EE00019F060FA642023F099F9F4E7AC4F00245C
:102EF0002D6405083AB604085C470024A8C00024E5
:102F0000104B41F2883110B50F4C1B7E2068A3B1E5
:102F100023F0C8F90D4A0E490E4844F06BFB0D48EA
:102F2000FDF7E8F90B49034682B20B4822F012F98B
:102F30002068BDE8104023F0D8B923F0B3F9034A64
:102F40000649E9E7C41B0024AC4F0024D8690508F2
:102F500050B604085C470024A8C0002481B60408C9
:102F600070B59CB04C22002109A844F066FC2022D8
:102F7000002101A844F061FC04201DF06FFB002338
:102F800000932C4BDA6A22F00102DA62DB6A03F06A
:102F900001030093284B9A6942F440429A619A696E
:102FA00002F440420092009A9A699404FCD51DF004
:102FB0004DFB022419F03AFE204A27210520136F09
:102FC0004025082623F0180313674FF480330D952E
:102FD0001694CDE909130123CDE90B330F93A023F8
:102FE000CDE91403042309A8CDE917340023CDE962
:102FF0001244CDE919631B931EF08AF908B1FFF75B
:1030000089FE3F2203232146CDE901234FF480634B
:10301000CDE9030601A8CDE90555CDE907351EF038
:1030200025FE01460028EAD14FF480221EF0E6FC7E
:103030001CB070BD000400580048025800440258FB
:103040002DE98048A7B010220021012419A844F0DE
:10305000F4FB19F07FFE4FF05040CC4BADF86440CC
:10306000CDE91A03CA4B19A81C9319F091FE4FF031
:10307000104319A88DF865401A931A238DF86C3007
:1030800019F086FE042019F073FEC24B5A6912F43F
:10309000003211D1BFF34F8FBFF36F8FC3F85022AF
:1030A000BFF34F8FBFF36F8F5A6942F400325A61FA
:1030B000BFF34F8FBFF36F8FB64A536913F480335A
:1030C00023D1C2F88430BFF34F8FD2F8803043F65B
:1030D000E074C3F3C900C3F34E335B0103EA040693
:1030E000014646EA81750139C2F86052F9D2203BA7
:1030F00013F1200FF2D1BFF34F8F536943F48033A4
:103100005361BFF34F8FBFF36F8FA34C19F03CFD9A
:10311000FFF726FF1422002119A844F08EFBD4F8F3
:10312000E0300022082143F480639C4800250126FA
:10313000C4F8E0304FF00809D4F8E03002274FF02F
:10314000030B4FF0040A03F480634FF0400802932E
:10315000029BD4F8E03043F04003C4F8E030D4F8E8
:10316000E03003F040030393039BD4F8E03043F0D6
:103170000803C4F8E030D4F8E03003F00803049307
:10318000049BD4F8E03043F00403C4F8E030D4F8F2
:10319000E03003F004030593059BD4F8E03043F4DA
:1031A0008073C4F8E030D4F8E03003F48073069301
:1031B000069BD4F8E03043F01003C4F8E030D4F8B4
:1031C000E03003F010030793079BD4F8E03043F09E
:1031D0000203C4F8E030D4F8E03003F002030893AF
:1031E000089BD4F8E03043F40073C4F8E030D4F81E
:1031F000E03003F400730993099BD4F8E03043F006
:103200000103C4F8E030D4F8E03003F001030A937E
:103210000A9BD4F8E03043F02003C4F8E030D4F83F
:10322000E03003F020030B930B9BD4F8E03043F025
:103230008003C4F8E030D4F8E03003F080030C934E
:103240000C9B1AF009FC01224FF4005154481AF06B
:1032500003FC0022082153481AF0FEFB0022402103
:1032600051481AF0F9FB0122042150481AF0F4FBEE
:1032700019A94A48CDE91996CDE91B551AF06AF902
:103280004FF4807319A948481D95CDE91937CDE948
:103290001B551AF05FF94FF4005319A94048CDE9C6
:1032A0001936CDE91B551AF055F919A93D481B955A
:1032B000CDF870B0CDE919961AF04CF94FF404121C
:1032C00019A938481B95CDE919A21AF043F94FF412
:1032D000406219A93648CDE919270722CDE91B6BB1
:1032E0001D921AF037F919A92F48CDE91B5BCDE9DA
:1032F00019861AF02FF919A92C48CDE91B55CDE9EB
:1033000019A61AF027F92A460521484619F0B2FCF9
:10331000484619F0F3FCD4F8D4302A46052133434B
:103320007A204FF01009C4F8D430D4F8D4303340A8
:103330000193019B19F09EFC7A2019F0DFFC1D4AD5
:103340001D4B4FF400619560C2F80CA01297C2E9C2
:103350000036C2E9049813464FF48072DD619A6129
:103360001A464FF4805310469562C2E908130623AB
:1033700012A9CDE9133ACDE91537CDE9177720F039
:10338000F9FC0546D0B1FFF7C5FC00BF13000003F0
:103390000100010100ED00E000440258000C025859
:1033A0000020025800180258000002580024025859
:1033B00000040258E0BF002440410052C8484FF0CA
:1033C000350A0DF01BFEC74C0DF0A4FD3422294632
:1033D00019A844F032FAC44B4FF0280E40F2152BD6
:1033E00040F2352220462561A58684F83650C4E98E
:1033F00000350923C4E905E30B23C4E907A340F220
:103400001B13C4E909B340F21D13C4E90255C4E912
:103410000B231BF0DBFF02460028B4D14FF4F07100
:1034200019904FF4806C4FF48873ADF89420249376
:103430008DF89620CDE91A10FF20CDE91E02052057
:10344000CDE920C04FF05040CDE9220119A9204616
:10345000CDE91C371CF0DEF80346002893D1A348C1
:10346000A34A838002600662C0E9053319F014FDA7
:103470000346002887D19F484FF440329E4DC0E953
:103480000273C0E9005219F055FF00287FF47BAFAA
:103490009A4A9B4B104613601BF006F9034600281E
:1034A0007FF471AF97481A24974A8361C0F820804F
:1034B000C0E900264FF40072C0E90269C0E9044285
:1034C0001DF006FA054600287FF45DAF8F4C844856
:1034D0000DF07EFD8E498F4B20462562C4E9001316
:1034E000C4E90256C4E90455C4E906551AF050FC73
:1034F000014600287FF447AF20461AF0C3FE01467C
:1035000000287FF440AF20461AF004FF00287FF423
:103510003AAF814A4FF4E137804B0C2610461360D6
:103520000023C2E90173C2E90333C2E90563C2E9BA
:103530000733C2E9093321F0BDFE014600287FF4BC
:1035400022AF754822F05CF8014600287FF41BAFDB
:10355000714822F0AFF800287FF415AF6E4822F0D2
:1035600003F8054600287FF40EAF142201460DA88B
:103570006B4C44F062F96B4B7F222046009525612D
:103580006561C4E90035FF23C4E90655C4E9022397
:1035900020F074F900287FF4F6AEADF83400012273
:1035A0008DF836000DA9CDE91000204620F014FA60
:1035B00000287FF4E8AE5C4B204601226946009368
:1035C00020F00CFB044600287FF4DDAE0EF0AEFACE
:1035D0005648574B84604461C0E900344FF40043BF
:1035E000C0E903341CF0CCFF00287FF4CCAE514C72
:1035F000514BA062C4E90200C4E90406C4E9060014
:10360000C4E908002046C4E9003721F053FE014612
:1036100000287FF4B8AE204621F0F2FF00287FF4A6
:10362000B2AE0021204622F045F800287FF4ABAE70
:10363000204621F099FF034600287FF4A4AE3F48BE
:103640003F4AC0E9002320F01FF8044600287FF419
:103650009AAE0EF0BBFA0EF0B8FA22F06FFD3948C0
:1036600022F0E8FD384B394A02211860402022F050
:1036700002FF374B374A02211860402022F0FBFE40
:10368000354B364A012118604FF4006022F0F3FEFA
:10369000334B344A012118604FF4807022F0EBFE66
:1036A000314B324A02211860402022F0E4FE304BB8
:1036B000304A21461860304822F06CFD2F4B304ACA
:1036C000214618602F4822F065FD2F4B2F4A2146D6
:1036D00018602F4822F05EFD2E4B2F4A21465DE0F8
:1036E000152D000838C4002400100050CCC600245A
:1036F000004C025864C6002400100052B8C50024D3
:1037000000300052ECC300240050005210C60024C8
:10371000001C0058B6349000A8C0002400100140DE
:10372000B4C3002400400058010101003CC1002442
:103730000070005214C0002400440040D8C300248C
:1037400000180248DC700508AC4F00244C710508D5
:10375000D05B002434710508FC5A00241C71050854
:10376000285A002404710508D4510024EC7005087F
:10377000805000243C720508ED550008DCBF002491
:1037800018720508DB1B010830AF0024F47105082E
:10379000B92D00082CAF0024D071050818600E4820
:1037A00022F0F8FC0D4B0E4A214618600D4822F01D
:1037B000F1FC0D4B0D4A214618600D4822F0EAFC41
:1037C0000C4B0D4A214618600C4822F0E3FC0C4BD0
:1037D000186022F0C5FCFEE7A52E0008809E00249C
:1037E000AC710508052E0008D48D002488710508E9
:1037F000552E0008287D0024647105085101010838
:103800007C6C0024F7B5204C07460E461546002177
:103810006FF001021D4826F04CFB0346206098B96A
:10382000394600901022194826F0F4F8014620602D
:1038300050B91022284644F000F810233246294699
:10384000124826F04CFB2060104826F042FB23680B
:10385000BBB10F4D41F28831286822F023FD236867
:103860000C4A0D490D4843F0C5FE0C48FCF742FDDB
:103870000A49034682B20A4821F06CFC286822F00B
:1038800034FD206803B0F0BDF40A0024F80A0024D7
:10389000AC4F0024A5700508C0B604085C4700249E
:1038A000A8C000240378427802EB03228378C07812
:1038B00003EB022300EB03207047000010B5084C17
:1038C00064300139A3609DF8083060612046636070
:1038D0009DF80C30C4E90321236044F0EFF810BDDB
:1038E000D00A002400F1100212F8013D0133DBB2CE
:1038F00013700BB98242F7D1704700002DE9F041F7
:10390000044600F11105324F0E4601342846FFF7F8
:10391000E9FF29462F4A2046FFF774FF3860002848
:103920003CD12C4B2C4A03F1100853F8041B43459F
:1039300042F8041BF9D128462946FFF7D3FF254A50
:103940002046FFF75FFF386040BB244A214B1046FA
:1039500053F8041B434542F8041BF9D1731E1E4A59
:103960001F3613F801CF1178B34281EA0C0102F837
:10397000011BF6D1184B53F8042B834244F8042B57
:10398000F9D1164B294603F1100253F8040B934268
:1039900041F8040BF9D13868BDE8F081104C41F2D0
:1039A0008831206822F07EFC3B680E4A0E490F48A1
:1039B00043F020FE0D48FCF79DFC0C49034682B203
:1039C0000B4821F0C7FB206822F08FFCE3E700BF23
:1039D000740A0024780A0024520A0024620A00248F
:1039E000AC4F002454700508C0B604085C4700249E
:1039F000A8C0002438B504461130174DFFF772FFF8
:103A00000A460146601CFFF7FDFE0146286048B9E2
:103A10002022124843F011FF10492046FFF76EFFA5
:103A20002860B8B10E4C41F28831206822F03AFC8F
:103A30002B680C4A0C490D4843F0DCFD0B48FCF7A1
:103A400059FC0A49034682B2094821F083FB2068E9
:103A500022F04BFC286838BDCC0A0024AC0A0024B4
:103A6000AC4F002483700508C0B604085C470024EE
:103A7000A8C0002410B5044610220021013043F0F4
:103A8000DCFE1022002104F1110043F0D6FE1022CA
:103A9000002104F1210043F0D0FE0023237010BD6B
:103AA0002DE9F0473C4F06463C4D386822F07FFD3B
:103AB00080B22880002840D0394C41F28831DFF8AC
:103AC000FC80206822F0EEFB2B88364A36493748C6
:103AD00043F090FD3548FCF70DFC3449034682B2B3
:103AE000334821F037FB206822F0FFFBDFF8D0904D
:103AF00000233868A8F8003022F059FDB8F80030EB
:103B000018B140F6FD7293421AD941F2883120680B
:103B10002B8022F0C7FB2B88224A2649234843F0FA
:103B200069FD2248FCF7E6FB2049034682B22048A3
:103B300021F010FB206822F0D8FB2888BDE8F08730
:103B40000023DFF880A0494638681A4622F0FFFCBF
:103B5000CAF80000B8B141F28831206822F0A2FB17
:103B6000DAF800300F4A1449104843F043FD0F487B
:103B7000FCF7C0FB0D49034682B20D4821F0EAFA7A
:103B8000206822F0B2FBB8F8003099F80020F25417
:103B900001339BB2ADE700BFD4510024500A00248A
:103BA000AC4F002438700508E9B604085C470024CF
:103BB000A8C0002446B7040811B704084E0A002420
:103BC0004C0A0024480A002438B502680446224BF7
:103BD0009A4210D1214D22492B7822480B700023A4
:103BE00000681A4622F082FC1F4B01222946186009
:103BF0001E4821F071FC22681D4B9A422BD11D4BAF
:103C00001D491B781D480B700023174D1A4600688C
:103C100022F06CFC2860B8B1194C41F28831206860
:103C200022F040FB2B68174A1749184843F0E2FC82
:103C30001648FCF75FFB1549034682B20B4821F09A
:103C400089FA206822F051FB01220A491048BDE898
:103C5000384021F041BC38BD001001402637002417
:103C6000440A0024D4510024400A0024A8C000249F
:103C700000440040273700243C0A0024285A00242E
:103C8000AC4F0024207005086EB704085C47002480
:103C900014C000242DE9F84FDFF8409206460C4688
:103CA00041F28831D9F80000174698467E4D22F03F
:103CB000F9FA002294422A803ED814F00F0335D03E
:103CC0007A4D0F2B2B8040F2C28023070CD4784909
:103CD000784844F08CFC7748FCF70CFB75490346A8
:103CE00082B2754821F036FA7149724844F07FFC7F
:103CF0007048FCF7FFFA6F49034682B26E4821F024
:103D000029FA24F00F036D4F9BB29C422B8000F2E6
:103D1000AF806B49674844F06AFC6648FCF7EAFAF2
:103D20006449034682B2644821F014FAD9F80000CD
:103D3000BDE8F84F22F0D9BA7FB111070DD1424446
:103D400060495C4843F056FC5A48FCF7D3FA59499D
:103D5000034682B2584821F0FDF92B885A49F25C9B
:103D6000544843F047FC5348FCF7C4FA5149034612
:103D700082B2514821F0EEF954494E4844F037FCE4
:103D80004C48FCF7B7FA4B49034682B24A4821F047
:103D9000E1F92B8803F00F03072B0CD14449454868
:103DA00044F025FC4348FCF7A5FA4249034682B299
:103DB000414821F0CFF92B8803F00F030F2B25D1B9
:103DC0003B493C4844F013FC3A48FCF793FA394924
:103DD000034682B2384821F0BDF92B88DFF8CCA029
:103DE0000F3BDFF8D8B09BB22A88AAF800309A427D
:103DF00010D233492F4844F0FAFB2E48FCF77AFAE8
:103E00002C49034682B22C4821F0A4F92A880132B9
:103E100092B24FE7F25C1BF8023013F0970F11D00B
:103E20002B49244843F0E6FB2248FCF763FA21497A
:103E3000034682B2204821F08DF9BAF800300133F0
:103E40009BB2D1E723491B4844F0D1FBECE7224960
:103E5000184844F0CCFB1748FCF74CFA15490346C8
:103E600082B2154821F076F92B8801339BB228E7FE
:103E7000F25CBB5C13F0970F10D015490D4843F06E
:103E8000B9FB0C48FCF736FA0A49034682B20A48E5
:103E900021F060F92B8801339BB236E70D490548C4
:103EA00044F0A5FBEDE700BF3A0A0024380A0024DD
:103EB000BCB704085C470024A8C00024B1BA0508B8
:103EC00064BE0408A5B70408B7B70408C1B704085E
:103ED000C3B70408C6B70408BFB70408AC4F002432
:103EE000F0B5B34C9FB041F28831B24D206822F05A
:103EF000D9F9B14AB149B24843F07CFBB048FCF76C
:103F0000F9F9AF49034682B2AE4821F023F920689F
:103F100022F0EBF9697D0023AB4E033905F118005F
:103F20001A4689B2FFF7B6FE3378232B5AD16B7D40
:103F3000232B40F09C8141F28831206822F0B2F9B5
:103F40009D4AA24905F118079D4843F053FB9C4840
:103F5000FCF7D0F99A49034682B29A4821F0FAF860
:103F6000206822F0C2F941F28831206822F09AF9E3
:103F7000914A9749924843F03DFB9148FCF7BAF9C2
:103F80008F49034682B28F4821F0E4F8206822F07E
:103F9000ACF941F28831206822F084F9864A8B49D5
:103FA000874843F027FB8648FCF7A4F9844982B28E
:103FB0000346844821F0CEF8206822F096F9854A1D
:103FC00005F1380C3B46083203CB634542F8080C38
:103FD00042F8041C1F46F5D1002320217D481A46D3
:103FE000FFF758FE3378432B40F041816B7D232B44
:103FF00040F03D8141F28831206822F053F96E4A49
:1040000075496F4843F0F6FA6D48FCF773F96C494F
:10401000034682B26B4821F09DF8206822F065F9D2
:1040200041F28831206822F03DF9634A6B496448C7
:1040300043F0E0FA6248FCF75DF96149034682B259
:10404000604821F087F8206822F04FF941F288316A
:10405000206822F027F9584A5F49594843F0CAFAC4
:104060005748FCF747F95E4D82B20346544905F1C3
:104070002007544821F06EF8206822F036F9594A9A
:104080002B46083203CBBB4242F8080C42F8041C12
:104090001D46F5D10023202152481A46FFF7FAFDAC
:1040A00009A826F0C3FA0546B0B141F2883120686C
:1040B00022F0F8F82B46404A4B49414843F09AFA1F
:1040C0003F48FCF717F93E49034682B23D4821F0CC
:1040D00041F8206822F009F9002309AA202141486B
:1040E00026F066FA0546B0B141F28831206822F028
:1040F000D9F82B46304A3D49314843F07BFA3048E5
:10410000FCF7F8F82E49034682B22E4821F022F837
:10411000206822F0EAF800236A4601A909A826F0DF
:10412000D4F90546B0B141F28831206822F0BAF8DE
:104130002B46214A2E49224843F05CFA2048FCF7DE
:10414000D9F81F49034682B21E4821F003F82068BF
:1041500022F0CBF809A826F06EFA41F288312068E7
:1041600022F0A0F8144A1949154843F043FA1448BC
:10417000FCF7C0F81249034682B2124820F0EAFF69
:10418000206822F0B2F841F28831206822F08AF8E3
:10419000094A18490A4843F02DFA0948FCF7AAF8D9
:1041A0000749034682B2074820F0D4FF206823E085
:1041B000AC4F0024C41B0024076C0508C8B70408D2
:1041C0005C470024A8C000241B010024E5B70408B4
:1041D0000BB80408580E002431B8040858B8040875
:1041E000DC1B0024380E00247FB80408B7B804088C
:1041F000FCB8040840B9040822F077F841F288318D
:10420000206822F04FF81E4A1E491F4843F0F2F979
:104210001D48FCF76FF81C49034682B21B4820F08A
:1042200099FF206822F061F80023202101A81A4696
:10423000FFF730FD01A92022154843F0D5FA0346C7
:1042400041F288312068B3B922F02CF80C4A1149A8
:104250000D4843F0CFF90C48FCF74CF80A490346E7
:1042600082B20A4820F076FF206822F03EF8FF2351
:1042700033701FB0F0BD22F015F8014A0649E7E798
:10428000076C0508E5B704085C470024A8C00024B3
:10429000580E00246AB904089EB90408F8B5AC4D5C
:1042A00041F28831AB4F6A7EAB7EAB4C03EB02230D
:1042B000EA7EAA4E3B802B7F206803EB02233380EB
:1042C00021F0F0FF2B7EA64AA649A74843F092F9B9
:1042D000A548FCF70FF8A449034682B2A34820F092
:1042E00039FF206822F001F841F28831206821F07E
:1042F000D9FF3B889A4A9E499B4843F07BF99A48EC
:10430000FBF7F8FF9849034682B2984820F022FF55
:10431000206821F0EAFF41F28831206821F0C2FFD5
:1043200033888F4A9349904843F064F98E48FBF7ED
:10433000E1FF8D49034682B28C4820F00BFF2068D4
:1043400021F0D3FF41F28831206821F0ABFF6B7F71
:10435000834A8949844843F04DF98348FBF7CAFFF3
:104360008149034682B2814820F0F4FE206821F0A2
:10437000BCFF6E7F002E3AD041F28831206821F0D8
:1043800091FF7E49784805F11E0744F030F97648E0
:10439000FBF7B0FF7449034682B2744820F0DAFE9E
:1043A000206821F0A2FF0023314638461A46FFF765
:1043B00071FC734BAA7F1F60724B1E70724B53F8D7
:1043C0002230984741F28831206821F06BFF6F4915
:1043D000654844F00CF96448FBF78CFF62490346DA
:1043E00082B2624820F0B6FE206821F07EFFB71D41
:1043F00041F2883120682F4421F054FF584A3B7E17
:104400006349594843F0F6F85748FBF773FF56499C
:10441000034682B2554820F09DFE206821F065FFDA
:104420003F7E002F30D041F28831206821F03AFFE2
:1044300058494D4844F0DBF84B48FBF75BFF4A49CD
:10444000034682B2494820F085FE206821F04DFFE6
:104450000023514839461A463044FFF71BFC41F20D
:104460008831206821F01EFF4C493F4844F0BFF8D6
:104470003D48FBF73FFF3C49034682B23B4820F0F2
:1044800069FE206821F031FF354441F2883120680F
:104490003D4421F007FF324AEB7F4149324843F067
:1044A000A9F83148FBF726FF2F49034682B22F486F
:1044B00020F050FE206821F018FF41F2883120687A
:1044C00021F0F0FE95F82030254A3649264843F081
:1044D00091F82548FBF70EFF2349034682B2234893
:1044E00020F038FE206821F000FF41F2883120687A
:1044F00021F0D8FE95F82130194A2B491A4843F08B
:1045000079F81948FBF7F6FE1749034682B21748B7
:1045100020F020FE206821F0E8FE41F2883120687A
:1045200021F0C0FE95F822300D4A20490E4843F094
:1045300061F80D48FBF7DEFE0B49034682B20B48DB
:1045400020F008FE2068BDE8F84021F0CEBE00BF94
:10455000C41B0024800E0024AC4F0024820E0024D3
:1045600036690508E4B904085C470024A8C00024A3
:104570001ABA040850BA040886BA0408BCBA040877
:104580000C13002409130024C413002402BB0408E4
:1045900048BB04087EBB0408E31B0024D8BB040806
:1045A00032BC040868BC04089EBC0408D4BC0408DF
:1045B0002DE9F04F9A4C85B09A4E41F2883120682F
:1045C000002521F06FFE337E974A9849984843F0C2
:1045D00011F89748FBF78EFE9549034682B295483D
:1045E00020F0B8FD206821F080FE41F2883120687B
:1045F00021F058FE737E8C4A8F498D4842F0FAFFB5
:104600008B48FBF777FE8A49034682B2894820F03F
:10461000A1FD206821F069FE41F28831206821F077
:1046200041FEB37E804A8549814842F0E3FF8048DD
:10463000FBF760FE7E49034682B27E4820F08AFD89
:10464000206821F052FE41F28831206821F02AFED4
:10465000754A7B49764842F0CDFF7548FBF74AFE24
:104660007349034682B2734820F074FD206821F03C
:104670003CFE0023802106F11B001A46DFF8EC8186
:10468000FFF708FB41F28831206896F819B0A8F8C6
:10469000005021F007FE644A4FEACB1B6949644889
:1046A00042F0A8FF6248FBF725FE614982B203464B
:1046B000604820F04FFD206821F017FE2A46B37EA7
:1046C0005FFA85FA534574D8AAB941F28831206857
:1046D00021F0E8FD544A5C49554842F08BFF5448AC
:1046E000FBF708FE5249034682B2524820F032FDE1
:1046F000206821F0FAFD41F28831206821F0D2FDD6
:10470000494A50494A4842F075FF4948FBF7F2FDD3
:104710004749034682B2474820F01CFD206821F03B
:10472000E4FD41F28831206821F0BCFDB8F800308A
:104730003D4A46493E4842F05DFF3D48FBF7DAFD01
:104740003B49034682B23B4820F004FD206821F03B
:10475000CCFD80223E493F4843F051FF3E4BB8F824
:1047600000201B889A4217D141F28831206821F03D
:1047700099FDB8F800302C4A38492D4842F03AFFEC
:104780002B48FBF7B7FD2A49034682B2294820F09F
:10479000E1FC206821F0A9FD0223314A3148138051
:1047A000012300222E49006805B0BDE8F04F21F03A
:1047B0009DBE0AF120074FF000095F44FF00BFB221
:1047C00006EB0A03DB7E43FA09F3DB0721D507EB8F
:1047D000090341F2883120689BB2039321F062FD06
:1047E000039B114A20490093114842F003FF1048EF
:1047F000FBF780FD0E49034682B20E4820F0AAFC6A
:10480000206821F072FDB8F8003001220133A8F8C9
:10481000003009F10109B9F1080FD1D101354EE796
:10482000AC4F0024C41B0024E86805080ABD040836
:104830005C470024A8C0002429BD040848BD040822
:1048400067BD04087DBD0408CDBD0408E4BD0408AF
:10485000DF1B00248A0E0024860E002403BE0408F9
:1048600008060024D05B0024ABBD0408880E002499
:1048700013B54A4C4FF47A71206821F013FD484972
:10488000484843F0B4FE4748FBF734FD454903462A
:1048900082B2454820F05EFC4149424843F0A7FE01
:1048A0004048FBF727FD3F49034682B23E4820F0CF
:1048B00051FC3B493B4843F09AFE3A48FBF71AFD4E
:1048C0003849034682B2384820F044FC374935481D
:1048D00043F08DFE3348FBF70DFD3249034682B2AB
:1048E000314820F037FC32492E4843F080FE2D48F5
:1048F000FBF700FD2B49034682B22B4820F02AFC2F
:104900002C49284843F073FE2648FBF7F3FC254961
:10491000034682B2244820F01DFC4123264901931E
:10492000264B20480093264B1A4642F063FE1D4852
:10493000FBF7E0FC1B49034682B21B4820F00AFC4F
:10494000204A2149174842F055FE1648FBF7D2FC91
:104950001449034682B2144820F0FCFB1B4911485D
:1049600043F045FE0F48FBF7C5FC0E49034682B2F3
:104970000D4820F0EFFB0E490A4843F038FE094885
:10498000FBF7B8FC0749034682B2074820F0E2FB78
:10499000206802B0BDE8104021F0A7BCAC4F002455
:1049A00035BE04085C470024A8C0002460BE04088B
:1049B00067BE0408AFBE0408F7BE04081438050833
:1049C0008E57050825BF040830BF040855BF0408EA
:1049D00000BA704710B5034C034821461EF0BBFED9
:1049E000206810BD340A0024D8C3002410B5002468
:1049F00092B0CDE9020409A902A826F0F1FF00282F
:104A00004FD0214611220DF1130042F016FF0B9BEF
:104A10008DF810300A9B8DF81130099B8DF81230FB
:104A20000E9B643B8DF807300D9B01338DF80530EC
:104A30000C9B8DF806300F9BA34208BF07238DF80F
:104A400004301BF003FE224604A923481EF0C4FFD5
:104A50000446B8B1214C41F28831206821F022FC93
:104A60001F4A2049204842F0C5FD1F48FBF742FC81
:104A70001D49034682B21D4820F06CFB20680124CA
:104A800021F033FC002201A913481FF0A7F800B35E
:104A9000124C41F28831206821F004FC104A14497C
:104AA00007E00E4C41F28831206821F0FBFB0C4AF4
:104AB00010490D4842F09EFD0B48FBF71BFC0A49CC
:104AC000034682B2094820F045FB2068012421F00A
:104AD0000CFC204612B010BDB4C30024AC4F00241F
:104AE0000E700508C6BF04085C470024A8C0002457
:104AF000F6BF04089DBF040870B50024A5B2AB4200
:104B000000D870BD0D5D165D754005550134F5E7A3
:104B100038B5044613482023134DFFF7EDFF014637
:104B20002046FEF7EBFE012328602370B8B10F4C3E
:104B300041F28831206821F0B5FB2B680C4A0D4901
:104B40000D4842F057FD0C48FBF7D4FB0A490346D9
:104B500082B20A4820F0FEFA206821F0C6FB2868DD
:104B600038BD00BF8C0A0024880A0024AC4F002402
:104B700069700508C0B604085C470024A8C000247A
:104B8000F0B5044685B000285CD00134A4B2A4F589
:104B90008075002D2B46B8BFA4F1F903C3F3C704F9
:104BA0006B4205F0070503F0070358BF5D42EDB205
:104BB000230643D5002625E00B5D2B41DA073BD5C4
:104BC000214F41F2883105EBC406386821F06AFBB9
:104BD000012306F580761D4AAB401D491D4800940F
:104BE000CDE90153334642F005FD1A48FBF782FB3D
:104BF0001849034682B2184820F0ACFA386821F010
:104C000074FBB6B9104C41F28831206821F04AFBA0
:104C10000E4A12490F4842F0EDFC0E48FBF76AFBC2
:104C20000C49034682B20C4820F094FA206821F027
:104C30005CFB304605B0F0BD0135EDB2072DBBD9A8
:104C40000134E4B20025B3E7AC4F0024F26F05084D
:104C500026C004085C470024A8C0002480C00408C3
:104C600010B5944C4FF47A71206821F01BFB9249E7
:104C7000924843F0BCFC9148FBF73CFB8F4903464C
:104C800082B28F4820F066FA8E498C4843F0AFFC20
:104C90008A48FBF72FFB8949034682B2884820F0F7
:104CA00059FA8949854843F0A2FC8448FBF722FB66
:104CB0008249034682B2824820F04CFA83497F48F9
:104CC00043F095FC7D48FBF715FB7C49034682B217
:104CD0007B4820F03FFA7E49784843F088FC7748CB
:104CE000FBF708FB7549034682B2754820F032FA9B
:104CF0007849724843F07BFC7048FBF7FBFA6F4938
:104D0000034682B26E4820F025FA73496B4843F09F
:104D10006EFC6A48FBF7EEFA6849034682B26848BF
:104D200020F018FA6D49654843F061FC6348FBF7D1
:104D3000E1FA6249034682B2614820F00BFA684901
:104D40005E4843F054FC5D48FBF7D4FA5B490346E8
:104D500082B25B4820F0FEF96249584843F047FCB4
:104D60005648FBF7C7FA5549034682B2544820F02B
:104D7000F1F95D49514843F03AFC5048FBF7BAFA63
:104D80004E49034682B24E4820F0E4F957494B4859
:104D900043F02DFC4948FBF7ADFA4849034682B27F
:104DA000474820F0D7F95249444843F020FC434893
:104DB000FBF7A0FA4149034682B2414820F0CAF904
:104DC0004C493E4843F013FC3C48FBF793FA3B49FF
:104DD000034682B23A4820F0BDF94749374843F0CC
:104DE00006FC3648FBF786FA3449034682B234485B
:104DF00020F0B0F94149314843F0F9FB2F48FBF767
:104E000079FA2E49034682B22D4820F0A3F93C4995
:104E10002A4843F0ECFB2948FBF76CFA2749034684
:104E200082B2274820F096F93649244843F0DFFB48
:104E30002248FBF75FFA2149034682B2204820F05E
:104E400089F931491D4843F0D2FB1C48FBF752FA5F
:104E50001A49034682B21A4820F07CF92B491748B8
:104E600043F0C5FB1548FBF745FA1449034682B2E7
:104E7000134820F06FF92649104843F0B8FB0F485B
:104E8000FBF738FA0D49034682B20D4820F062F96B
:104E900009490A4843F0ABFB0848FBF72BFA0749DE
:104EA000034682B2064820F055F92068BDE810405C
:104EB00021F01BBAAC4F0024A5C004085C470024B5
:104EC000A8C00024F7C0040849C1040872C104083E
:104ED00093C10408BFC10408EEC1040820C204083D
:104EE0004EC204087CC20408A7C20408CCC204084D
:104EF000EFC2040812C304082FC3040847C3040800
:104F000070C30408A3C30408D2C30408F7C3040889
:104F100011C40408A0F1300370B504464A2B00F216
:104F20006B81DFE813F04B004F00690169016800F5
:104F300071007A006901690169016901690169010A
:104F400069016901690169016901830069016901F8
:104F50009C00A8006901690169016901B100BA00FA
:104F6000EC0069016901FE006901070126012F01BA
:104F7000380169016901410169014A016901690159
:104F8000690169016901690169018C0069016901AF
:104F90009C00A8006901690169016901B100BA00BA
:104FA000F50069016901FE00690107012601690137
:104FB000380169016901410169014A01BDE8704098
:104FC000FFF74EBE974C41F28831206821F06AF914
:104FD000954A9649964842F00DFB9548FBF78AF9A9
:104FE0009349034682B2934820F0B4F82068BDE8A4
:104FF000704021F07AB98B4C41F28831206821F061
:1050000051F9894A8C49E5E7864C41F2883120689C
:1050100021F048F9844A8949DCE7824C41F2883121
:10502000206821F03FF9804A8549D3E77D4C41F261
:105030008831206821F036F97B4A8249CAE7794CE9
:105040004123814D41F2883120682B7021F02AF9EB
:105050002B78754A7D49764842F0CCFABDE7222389
:105060007B4A7B49136000237A481A460068BDE8F2
:10507000704021F03BBA6B4C41F28831206821F03E
:1050800011F9694A7449A5E7664C41F288312068F4
:1050900021F008F9644A71499CE7714C41F288316A
:1050A000604D23782868ABB121F0FCF85E4A6D4969
:1050B0005F4842F09FFA5E48FBF71CF95C490346E3
:1050C00082B25C4820F046F8286821F00EF90023EF
:1050D000237070BD21F0E6F8534A6349544842F00A
:1050E00089FA5348FBF706F95149034682B2514801
:1050F00020F030F8286821F0F8F80123E8E7494C5F
:1051000041F28831206821F0CDF8474A574961E7DC
:10511000444C41F28831206821F0C4F8424A544995
:1051200058E7404C41F28831206821F0BBF83E4AF4
:1051300050494FE73B4C41F28831206821F0B2F8EA
:10514000394A4D493A4842F055FA3948FBF7D2F806
:105150003749034682B237481FF0FCFF206821F030
:10516000C4F8464B1A7812B100221A70B1E7012236
:10517000FBE72C4C41F28831206821F093F82A4A51
:105180003F4927E7274C41F28831206821F08AF80F
:10519000254A3C491EE7234C41F28831206821F022
:1051A00081F8214A384915E71E4C41F288312068C0
:1051B00021F078F81C4A35490CE71A4C41F2883145
:1051C000206821F06FF8184A3149194842F012FA64
:1051D0001748FBF78FF81649034682B215481FF0AF
:1051E000B9FF206821F081F82123194A184913607A
:1051F000002328481A4639E70A4D41F288312868C9
:1052000021F050F822462449094842F0F3F90848B1
:10521000FBF770F80649034682B206481FF09AFF72
:105220002868E4E6AC4F0024D36F05083DC40408A9
:105230005C470024A8C0002458C4040882C40408A1
:10524000ABC40408D7C404081A01002403C5040829
:10525000300A00248050002420C5040835C5040805
:105260002E0A002452C5040866C5040879C504083E
:10527000A2C50408CBC50408DDC504082D0A002416
:1052800000C604082DC6040856C6040880C60408D3
:10529000A3C60408D05B0024C9C604082DE9F74F53
:1052A0000446AB4E032800F27D81DFE810F00400D5
:1052B000230037011F00A74C41F28831206820F0FD
:1052C000F1FFA54AA549A64842F094F9A448FBF786
:1052D00011F8A349034682B2A2481FF03BFF2068A1
:1052E00021F003F80023A04A33701360307803B034
:1052F000BDE8F08F3378DBB9964C41F288312068F5
:1053000020F0D0FF944A9949954842F073F99448A7
:10531000FAF7F0FF9249034682B292481FF01AFF53
:10532000206820F0E2FF01233370FFF799FCDDE7EE
:10533000012BDBD18C4A00218D4813688C4F32330E
:1053400013604FF4805242F078FA8948FEF7A8FBC8
:105350000028CBD07F4C41F28831DFF840822068B2
:1053600020F0A0FF3B467C4A82497D4842F042F94A
:105370007B48FAF7BFFF7A49034682B279481FF0AB
:10538000E9FE206820F0B1FF7B49384642F07EFA02
:10539000C8F8000018B93878FFF7BCFDA6E7774DCC
:1053A00064220021284642F048FA07F10800FAF783
:1053B000A1FF07F108010246284643F020F941F217
:1053C0008831206820F06EFF2B46634A6C496448A0
:1053D00042F010F96248FAF78DFF6149034682B244
:1053E00060481FF0B7FE206820F07FFF2878A0F10A
:1053F0004203DBB2122B00F28E80624A22FA03F3E0
:10540000DA0740F18880DFF898B115F8013F1BF802
:1054100003301B07F9D441F28831206820F042FFA5
:105420002B464D4A58494E4842F0E4F84C48FAF7AA
:1054300061FFDFF848A1034682B2494949481FF09D
:1054400089FE206820F051FF9AF80030422B21D1CC
:1054500095F8009041F2883120681BF8093003F07C
:105460000303022B08BFA9F1200920F01BFF3A4AD1
:105470005FFA89F345493A4842F0BCF83848FAF7F0
:1054800039FF3749034682B236481FF063FE206871
:1054900020F02BFF9AF80030542B36D10A2201A9B4
:1054A000284641F00FFF054641F28831206820F080
:1054B000F9FE2B46284A3649294842F09BF82848ED
:1054C000FAF718FF2649034682B226481FF042FE2B
:1054D000206820F00AFF2846FFF788FAA8B141F2B9
:1054E0008831206820F0DEFE1B4A2A491C4842F021
:1054F00081F81B48FAF7FEFE1949034682B21948A3
:105500001FF028FE206820F0F0FED8F80030002BB5
:105510007FF4ECAE3FE7FFF7FDFCF6E70D4C41F200
:105520008831206820F0BEFE0B4A1B490C4842F02F
:1055300061F80B48FAF7DEFE0949034682B20948D2
:105540001FF008FE206820F0D0FE02233370CDE665
:105550002C0A0024AC4F0024B66F0508F1C60408DD
:105560005C470024A8C00024280A002407C70408B8
:105570005C37002426C704084EC70408C00900246D
:1055800057C70408010804007BC704089BC7040828
:10559000BDC70408E1C7040814C80408240A00248D
:1055A000B1BA05080C4D41F28831286820F07AFE26
:1055B00023460A4A0A490B4842F01CF80948FAF700
:1055C00099FE0849034682B207481FF0C3FD2868C8
:1055D00020F08BFE8AE600BFAC4F0024B66F0508B2
:1055E00034C804085C470024A8C000242DE9F04F0B
:1055F000B44C89B0FFF73CF941F28831206820F0C3
:1056000051FEB14AB149B24841F0F4FFB048B14D42
:10561000FAF770FEAE49034682B2AF481FF09AFD1A
:10562000AE4E206820F061FE00222946AC481EF0F4
:10563000A5FA00223146AA481EF072FBDFF8E88284
:105640006B7841F288312A7888F80030A54B2068C1
:105650001A7020F027FEAB789B4A04936B78A2491E
:1056600003932B789A480293B378A04F01937378F1
:105670000093F37841F0BEFF9548FAF73BFE94495A
:10568000034682B294481FF065FD206820F02DFE8D
:105690000122974990481FF01FFF3870B0B141F2C6
:1056A0008831206820F0FEFD3B78874A9149884880
:1056B00041F0A0FF8648FAF71DFE8549034682B2F5
:1056C00085481FF047FD206820F00FFE26F06AF99C
:1056D00041F28831206820F0E5FD7B4A86497C480C
:1056E00041F088FF7A48FAF705FE7949034682B20D
:1056F00079481FF02FFD206820F0F7FD41F2883136
:10570000206820F0CFFDDFF824A27C4B6E4A7C4954
:105710006F487C4FCDE9003A41F06CFF6C48FAF7D6
:10572000E9FD6B49034682B26B481FF013FD206808
:1057300020F0DBFD0022674969481EF01FFA0022B5
:10574000664967481EF0ECFA6F4AAB7811789942C7
:1057500072D06978DFF8B8B11370F078B278DFF8FA
:10576000D091CDE900132B787178FEF7A7F8DBF81C
:105770000030C9F800000BB3984240F22682C01AEC
:1057800001281BD041F28831206820F08BFDD9F828
:105790000030DBF800205D499A1A00924A4A4C48D2
:1057A00041F028FF4A48FAF7A5FD4949034682B26D
:1057B00049481FF0CFFC206820F097FDD9F8002061
:1057C000534BDFF870911A60D9F80030514A013319
:1057D000C9F800305343B3F1113F08D803234E4AB0
:1057E0004D49138001230022386820F07FFED9F84C
:1057F00000304A4A5343B3F1333F1DD8DFF83891A4
:10580000454AB9F80030DFF834B101334249DBF8DA
:1058100000009BB2332B28BF0123A9F800301423CA
:1058200013800123002220F061FE0123002249465B
:10583000DBF8000020F05AFE6B7898F800209A42BE
:1058400000F09180344A88F800300223DFF8F0B08D
:105850001380012300223049386820F047FE9BF86E
:105860000030012B7FD1DFF8DC90D9F80030002B1D
:1058700079D0013B41F288312068C9F8003020F02E
:1058800011FDD9F80030104A2549114841F0B2FE07
:105890000F48FAF72FFD0E49034682B20E481FF05B
:1058A00059FC206820F021FDD9F80030002B5AD196
:1058B00041F2883120688BF8003020F0F3FC024A76
:1058C000184941E0AC4F0024426405083AB6040888
:1058D0005C47002448370024A8C000244437002433
:1058E000B4C30024120000246EC8040898030024E6
:1058F000263700249FC80408F3C804088E570508FB
:105900000EC90408D05B00241100002442C9040819
:105910003C370024EFEEEEEE96030024CDCCCCCC49
:10592000B8C90408DEC904081300002414380508A7
:10593000403700243837002494030024FC5A002404
:105940002C37002428370024AA4841F053FEA948E8
:10595000FAF7D0FCA749034682B2A7481FF0FAFB2A
:10596000206820F0C2FCA54B2A781978914241D0DA
:105970004FF47A7120681A7020F094FCA0499D4879
:1059800042F035FE9B48FAF7B5FC9A49034682B2CD
:1059900099481FF0DFFB9B49964842F028FE954846
:1059A000FAF7A8FC9349034682B293481FF0D2FB52
:1059B000412395498F48CDE900A3944B1A4641F005
:1059C00019FE8C48FAF796FC8A49034682B28A4847
:1059D0001FF0C0FB8A49874842F009FE8548FAF764
:1059E00089FC8449034682B283481FF0B3FB2068D8
:1059F00020F07BFC864B42F20F721B68934267D803
:105A0000844A1278002A63D1B3B941F28831206800
:105A100020F048FC0A23804A8049764841F0EAFD9C
:105A20007448FAF767FC7349034682B272481FF064
:105A300091FB206820F059FCDFF8D4914FF47A7B79
:105A4000D9F800203232B2FBFBF3C9F800200BFB7F
:105A50001322E2B941F28831206820F023FCD9F802
:105A600000306D4AC3F51C536D496248103393FBF7
:105A7000FBF341F0BFFD5F48FAF73CFC5D4903468C
:105A800082B25D481FF066FB206820F02EFC604B60
:105A90001A6842F20F739A4240F2D48041F2883180
:105AA000206820F0FFFB0A235B4A5E49514841F021
:105AB000A1FD5048FAF71EFC4E49034682B24E48FB
:105AC0001FF048FB206820F010FC0220FFF7E6FBE7
:105AD000554B1878012801D1FFF7E0FB386820F01A
