:020000040800F2
:10000000000008246D4C0108214901082949010814
:10001000314901083949010841490108000000003F
:10002000000000000000000000000000A1EB040838
:100030004949010800000000F1ED040805DC04084E
:10004000C14C0108C14C0108C14C0108C14C010858
:10005000C14C0108C14C0108C14C0108C14C010848
:1000600057490108C14C0108C14C0108C14C0108A5
:10007000C14C0108C14C0108C14C0108C14C010828
:10008000C14C0108C14C0108C14C0108C14C010818
:10009000C14C0108C14C0108C14C0108C14C010808
:1000A000C14C0108C14C0108C14C0108C14C0108F8
:1000B000C14C0108C14C0108C14C0108C14C0108E8
:1000C000C14C0108C14C0108C14C0108C14C0108D8
:1000D000C14C01086549010879490108C14C010872
:1000E000C14C0108C14C010800000000C14C0108CE
:1000F000C14C0108C14C0108C14C0108C14C0108A8
:10010000C14C0108C14C0108C14C0108C14C010897
:10011000C14C0108C14C01088D490108C14C0108BE
:10012000C14C0108C14C0108C14C0108C14C010877
:10013000C14C0108C14C0108C14C0108C14C010867
:10014000C14C0108C14C0108000000000000000083
:10015000C14C0108C14C0108C14C0108C14C010847
:10016000C14C0108C14C0108C14C0108C14C010837
:10017000C14C0108C14C0108C14C0108000000003D
:10018000C14C0108C14C0108C14C0108C14C010817
:10019000C14C0108C14C0108C14C0108C14C010807
:1001A000A1490108C14C0108B5490108C14C010829
:1001B000C9490108C14C0108C14C0108C14C0108E2
:1001C000C14C0108C14C0108C14C0108C14C0108D7
:1001D000C14C0108C14C0108C14C0108C14C0108C7
:1001E000C14C0108C14C0108C14C0108C14C0108B7
:1001F000C14C0108C14C0108C14C0108C14C0108A7
:10020000C14C0108C14C0108C14C0108C14C010896
:10021000C14C0108C14C0108C14C0108C14C010886
:10022000C14C0108DD490108F14901080000000046
:10023000C14C0108C14C0108C14C0108C14C010866
:10024000C14C0108C14C0108C14C0108C14C010856
:10025000C14C0108C14C0108C14C0108C14C010846
:10026000C14C0108C14C0108C14C0108C14C010836
:10027000C14C0108C14C0108C14C0108C14C010826
:10028000C14C0108C14C0108C14C0108000000002C
:08029000C14C0108C14C01083A
:1002A00010B5054C237833B9044B13B10448AFF3B0
:1002B00000800123237010BD005F002400000000B7
:1002C000A0F4060808B5034B1BB103490348AFF37C
:1002D000008008BD00000000045F0024A0F40608B0
:1002E00010F8012B11F8013B012A28BF9A42F7D0E0
:1002F000D01A7047034613F8012B002AFBD1181AB5
:1003000001387047000000000000000000000000FD
:1003100001F0FF01102A2BDB10F0070F08D010F8B6
:10032000013B013A8B422DD010F0070F42B3F6D1BA
:10033000F0B441EA012141EA014122F007047FF0D3
:1003400000070023F0E80256083C85EA010586EA2A
:10035000010685FA47F5A3FA87F586FA47F6A5FA66
:1003600087F68EB9EED1F0BC01F0FF0102F0070272
:1003700032B110F8013B013A83EA010313B1F8D11D
:100380000020704701387047002D06BF35460338FE
:10039000073815F0010F07D1013015F4807F02BF37
:1003A000013015F4C03F0130F0BC0138704700BF88
:1003B00081F0004102E000BF83F0004330B54FEA16
:1003C00041044FEA430594EA050F08BF90EA020F83
:1003D0001FBF54EA000C55EA020C7FEA645C7FEA16
:1003E000655C00F0E2804FEA5454D4EB5555B8BF39
:1003F0006D420CDD2C4480EA020281EA030382EAAA
:10040000000083EA010180EA020281EA0303362D3B
:1004100088BF30BD11F0004F4FEA01314FF4801C0E
:100420004CEA113102D0404261EB410113F0004F20
:100430004FEA03334CEA133302D0524263EB4303D7
:1004400094EA050F00F0A780A4F10104D5F1200E75
:100450000DDB02FA0EFC22FA05F2801841F10001D0
:1004600003FA0EF2801843FA05F359410EE0A5F1A4
:1004700020050EF1200E012A03FA0EFC28BF4CF0D5
:10048000020C43FA05F3C01851EBE37101F000458B
:1004900007D54FF0000EDCF1000C7EEB00006EEB98
:1004A0000101B1F5801F1BD3B1F5001F0CD3490822
:1004B0005FEA30004FEA3C0C04F101044FEA445279
:1004C00012F5800F80F09A80BCF1004F08BF5FEA00
:1004D000500C50F1000041EB045141EA050130BDE0
:1004E0005FEA4C0C404141EB0101013C28BFB1F5F2
:1004F000801FE9D291F0000F04BF01460020B1FA3D
:1005000081F308BF2033A3F10B03B3F120020CDA0F
:100510000C3208DD02F1140CC2F10C0201FA0CF0ED
:1005200021FA02F10CE002F11402D8BFC2F1200C52
:1005300001FA02F120FA0CFCDCBF41EA0C01904008
:10054000E41AA2BF01EB0451294330BD6FEA040451
:100550001F3C1CDA0C340EDC04F11404C4F120023C
:1005600020FA04F001FA02F340EA030021FA04F34E
:1005700045EA030130BDC4F10C04C4F1200220FAA5
:1005800002F001FA04F340EA0300294630BD21FAE3
:1005900004F0294630BD94F0000F83F4801306BFA9
:1005A00081F480110134013D4EE77FEA645C18BF9D
:1005B0007FEA655C29D094EA050F08BF90EA020F34
:1005C00005D054EA000C04BF1946104630BD91EA2C
:1005D000030F1EBF0021002030BD5FEA545C05D12F
:1005E0004000494128BF41F0004130BD14F580046E
:1005F0003CBF01F5801130BD01F0004545F0FE41E2
:1006000041F470014FF0000030BD7FEA645C1ABF16
:10061000194610467FEA655C1CBF0B46024650EA4D
:10062000013406BF52EA033591EA030F41F4002179
:1006300030BD00BF90F0000F04BF0021704730B5FF
:100640004FF4806404F132044FF000054FF00001D4
:1006500050E700BF90F0000F04BF0021704730B595
:100660004FF4806404F1320410F0004548BF40426A
:100670004FF000013EE700BF42004FEAE2014FEABF
:1006800031014FEA02701FBF12F07F4393F07F4F9A
:1006900081F06051704732F07F4208BF704793F09D
:1006A0007F4F04BF41F40021704730B54FF46074B0
:1006B00001F0004521F000411CE700BF50EA0102B3
:1006C00008BF704730B54FF000050AE050EA01025C
:1006D00008BF704730B511F0004502D5404261EBCC
:1006E00041014FF4806404F132045FEA915C3FF40D
:1006F000D8AE4FF003025FEADC0C18BF03325FEAAA
:10070000DC0C18BF033202EBDC02C2F1200300FA5A
:1007100003FC20FA02F001FA03FE40EA0E0021FA7F
:1007200002F11444BDE600BF7BB972B90029BEBF17
:1007300000204FF0004106E008BF00281CBF6FF00A
:1007400000414FF0FF3000F0D3B9ADF1080C6DE976
:1007500004CE002909DB002B1ADB00F04DF8DDF890
:1007600004E0DDE9022304B07047404261EB41013F
:10077000002B1BDB00F040F8DDF804E0DDE902238C
:1007800004B0404261EB4101524263EB43037047C6
:10079000524263EB430300F02FF8DDF804E0DDE99B
:1007A000022304B0404261EB41017047524263EBC7
:1007B000430300F021F8DDF804E0DDE9022304B092
:1007C000524263EB4303704753B94AB9002908BF4B
:1007D00000281CBF4FF0FF314FF0FF3000F088B908
:1007E000ADF1080C6DE904CE00F006F8DDF804E088
:1007F000DDE9022304B070472DE9F047089D8E46DD
:1008000004468846002B4AD18A42174662D9B2FA7A
:1008100082F64EB1C6F1200301FA06F820FA03F37E
:10082000B74043EA0808B4404FEA174E1FFA87FC66
:10083000B8FBFEF1230C0EFB118843EA084301FBD1
:100840000CF29A4209D9FB1801F1FF3080F0EA80DE
:100850009A4240F2E78002393B449A1AA3B2B2FBB3
:10086000FEF00EFB102243EA024300FB0CFC9C4509
:1008700009D9FB1800F1FF3280F0D6809C4540F288
:10088000D3803B44023840EA0140A3EB0C03002133
:100890001DB1F3400022C5E90032BDE8F0878B426C
:1008A00005D90DB1C5E9000100210846F5E7B3FA05
:1008B00083F1002946D1734502D3824200F20581BB
:1008C000841A6EEB030201209046002DE5D0C5E9A5
:1008D0000048E2E7002A00F09080B2FA82F6002E8B
:1008E00040F0A4808A1A030C4FEA174E80B2BCB2C3
:1008F0000121B2FBFEFC0EFB1C2243EA024304FB77
:100900000CF29A4207D9FB180CF1FF3802D29A4236
:1009100000F2E080C4469B1AB3FBFEF20EFB1233DA
:1009200040EA034302FB04F49C4207D9FB1802F19E
:10093000FF3002D29C4200F2CA8002461B1B42EAF0
:100940000C40A5E7C1F120068B4022FA06F71F43B1
:100950000EFA01F420FA06F32EFA06FE4FEA1749C2
:10096000234300FA01F81FFA87FCBEFBF9F01C0CC8
:1009700009FB10EE44EA0E4400FB0CFEA64502FA09
:1009800001F209D93C1900F1FF3A80F09C80A6459C
:1009900040F2998002383C44A4EB0E041FFA83FE17
:1009A000B4FBF9F309FB13444EEA044403FB0CFCCB
:1009B000A44508D93C1903F1FF3E80F08280A4458C
:1009C0007FD9023B3C4443EA0040A4EB0C04A0FB6B
:1009D00002EC64457346E14662D35FD05DB1B8EB8B
:1009E000030264EB090404FA06F622FA01F31E433B
:1009F000CC40C5E9006400214FE7B1FBF2FC010CDB
:100A000041EA0E4180B240EA01423B4638463C464C
:100A1000B846BE462026B1FBF7F1A2EB080241EA38
:100A20000C4166E7014618E710462CE7C6F12002A4
:100A30002EFA02F3B740B14020FA02F24FEA174E05
:100A40000A43B3FBFEF8BCB20EFB1833110C41EAAB
:100A5000034108FB04F9B04089454FEA104380B2D6
:100A60003ED9791808F1FF3C01D289451FD8A1EB86
:100A70000901B1FBFEF909FB04F80EFB191192B252
:100A800042EA0142424529D2BA1809F1FF31C4D2E3
:100A90004245C2D2A9F102013A44BEE7F0459DD2D7
:100AA000BEEB02036CEB070C0138E14696E7A7EBBF
:100AB00009094944A8F1020CB1FBFEF909FB04F84D
:100AC000DBE773467FE7504666E70846FDE63B44B2
:100AD000023A33E7ACF1020C3B441CE749469CE781
:100AE000A1EB0901C446B1FBFEF909FB04F8C4E718
:100AF000704700BF80B584B000AF12F0EBFE774BBB
:100B00005B6903F40033002B1BD1BFF34F8F00BF91
:100B1000BFF36F8F00BF714B0022C3F85022BFF3A9
:100B20004F8F00BFBFF36F8F00BF6C4B5B696B4A89
:100B300043F400335361BFF34F8F00BFBFF36F8F98
:100B400000E000BF654B5B6903F48033002B38D1B4
:100B5000624B0022C3F88420BFF34F8F00BF5F4B6E
:100B6000D3F88030FB60FB685B0BC3F30E03BB6004
:100B7000FB68DB08C3F309037B60BB685A0143F6DB
:100B8000E07313407A68920754491343C1F8603206
:100B90007B685A1E7A60002BEFD1BB685A1EBA6080
:100BA000002BE5D1BFF34F8F00BF4C4B5B694B4A25
:100BB00043F480335361BFF34F8F00BFBFF36F8F98
:100BC00000E000BF3AF0D4FD00F0C8F800F004FCEB
:100BD00000F08CFB00F0AAFB00F0DCF900F046F915
:100BE00000F066F900F0C2F900F058FA00F07EF962
:100BF00000F0E4FA00F096FA13F0CEFF00F0BAFA33
:100C000000F028FB00F078FA14F062F814F059F8BC
:100C10004DF012F832484DF006F90346314A1360A0
:100C2000314A022140204DF02BFB03462F4A13602E
:100C30002F4A022140204DF023FB03462D4A13602A
:100C40002D4A01214FF400604DF01AFB03462B4A58
:100C500013602B4A01214FF480704DF011FB0346C5
:100C6000284A1360284A002128484DF02FF80346EF
:100C7000274A1360274A002127484DF027F80346EA
:100C8000264A1360264A002126484DF01FF80346E5
:100C9000254A1360254A002125484DF017F80346E0
:100CA000244A1360244A002124484DF00FF80346DB
:100CB000234A1360234A002123484DF007F80346D6
:100CC000224A1360224A002122484CF0FFFF0346CB
:100CD000214A13604CF0D4FF00BFFDE700ED00E0B7
:100CE00070A9070888D5002410A9070838CA00246D
:100CF00028A907080CCB002440A90708E0CB002452
:100D000058A9070834D4002414A80708E91C0108CE
:100D10002C66002438A80708E14C0108D876002486
:100D20005CA8070805250108DC76002480A80708D0
:100D30006925010888870024A4A80708E52501087B
:100D400034980024C8A8070849260108E0A8002410
:100D5000ECA80708AD2601088CB9002480B59CB02A
:100D600000AF07F124034C22002118466CF049F92A
:100D70003B1D2022002118466CF043F9042041F06D
:100D8000D3FF00233B60374BDB6A364A23F0010375
:100D9000D362344BDB6A03F001033B60324B9B6947
:100DA000314A43F4404393612F4B9B6903F4404322
:100DB0003B603B6800BF2C4B9B6903F40053B3F5C9
:100DC000005FF8D12B237B624FF48033BB62012399
:100DD0003B6340237B630123BB630123FB6302234B
:100DE000BB640223FB6405233B65A0237B650223D0
:100DF000BB650423FB6502233B6608237B66002357
:100E0000BB660023FB6607F12403184643F070FA23
:100E10000346002B01D012F0A7FD3F237B60032384
:100E2000BB600023FB6008233B6140237B614023C0
:100E3000BB614FF48063FB6140233B623B1D022199
:100E4000184644F005F80346002B01D012F08CFD43
:100E50004FF480220021002044F06AFB00BF70376D
:100E6000BD4680BD000400580048025880B500AF60
:100E70000D4B0E4A1A600C4B00221A710A4B0022CD
:100E80005A71094B00225A61074B00229A61064BA6
:100E900001221A6204483AF0F1FF0346002B01D008
:100EA00012F062FD00BF80BD1C5F0024004C0258A0
:100EB00080B500AF0B4B0C4A1A600A4B4FF440321E
:100EC0005A60084B02229A60064B0022DA600548FD
:100ED0003BF090FE0346002B01D012F045FD00BF11
:100EE00080BD00BF405F00240010005280B500AFFD
:100EF0001B4B1C4A1A601A4B1B4A5A60184B0022A3
:100F00009A60174B0122DA60154B00221A61144BCC
:100F100000225A61124B00229A61114B0022DA61C1
:100F20000F4B00221A620E483CF0D6FC0346002B01
:100F300001D012F019FD002109483DF051FB034694
:100F4000002B01D012F010FD002105483DF0BEFB42
:100F50000346002B01D012F007FD00BF80BD00BF8B
:100F6000A85F0024001C0058B634900080B500AF84
:100F7000064B074A1A6005483DF01CFC0346002B4F
:100F800001D012F0F1FC00BF80BD00BFFC5F002467
:100F90000030005280B58EB000AF12F021FD3B1D35
:100FA0003422002118466CF02CF83A4B3A4A1A6069
:100FB000384B00225A60374B00229A60354B002292
:100FC000DA60344B00221A61324B28225A61314BCD
:100FD00009229A612F4B3522DA612E4B0B221A62BD
:100FE0002C4B40F215225A622A4B40F21B129A6295
:100FF000284B40F23522DA62264B40F21D121A636A
:10100000244B002283F83420224B002283F8352021
:10101000204B002283F836201E483FF023FC034675
:10102000002B01D012F0A0FC00237B604FF4F07382
:10103000BB600023FB604FF488733B6102237B613C
:10104000FF23BB610023FB614FF480633B620523F8
:101050007B624FF05043BB624FF4F073FB624FF47E
:1010600088733B63002387F83430002387F83530DA
:10107000002387F836303B1D0022194605483FF013
:10108000CFFD0346002B01D012F06EFC00BF3837B5
:10109000BD4680BD2C6100240010005080B500AF1B
:1010A000124B134A1A60114B01225A600F4B012256
:1010B0009A600E4B1022DA600C4B1A221A610B4B0D
:1010C0004FF400725A61094B00229A61074B40228B
:1010D0001A62064841F0A4FE0346002B01D012F02C
:1010E00043FC044812F0F0FC00BF80BDD461002432
:1010F000005000526939010880B500AF074B084A1B
:101100001A60064B00225A60044847F01DFE034651
:10111000002B01D012F028FC00BF80BD206200240B
:101120000018024880B500AF104B114A1A600F4BEF
:1011300000225A600D4B7F229A600C4BFF22DA602E
:101140000A4B00221A61094B00229A61074B0022C8
:10115000DA61064B00225A61044847F0C7FE034695
:10116000002B01D012F000FC00BF80BD34620024CF
:101170000040005880B500AF0E4B0F4A1A600D4B6F
:1011800000225A600B4B00229A600A4B4FF4004237
:10119000DA60084B00221A61064B00225A610548AA
:1011A00040F02AFE0346002B01D012F0DDFB00BF09
:1011B00080BD00BF586200240070005280B500AFAF
:1011C000224B234A1A60214B4FF4E1325A601F4BE5
:1011D00000229A601D4B0022DA601C4B00221A612B
:1011E0001A4B0C225A61194B00229A61174B0022AC
:1011F000DA61164B00221A62144B00225A62134B1A
:1012000000229A62114848F06FFD0346002B01D07E
:1012100012F0AAFB00210D484BF052FB0346002BB5
:1012200001D012F0A1FB002108484BF0E3FB03467C
:10123000002B01D012F098FB04484BF0C7FA03468C
:10124000002B01D012F090FB00BF80BDD0640024C1
:101250000010014080B500AF224B234A1A60214B99
:101260004FF4E1325A601F4B00229A601D4B00225E
:10127000DA601C4B00221A611A4B0C225A61194B7E
:1012800000229A61174B0022DA61164B00221A6283
:10129000144B00225A62134B00229A62114848F004
:1012A00023FD0346002B01D012F05EFB00210D4808
:1012B0004BF006FB0346002B01D012F055FB00213A
:1012C00008484BF097FB0346002B01D012F04CFB73
:1012D00004484BF07BFA0346002B01D012F044FB8C
:1012E00000BF80BD646500240044004080B582B02A
:1012F00000AF0D4BD3F8D4300B4A43F00103C2F8D2
:10130000D430094BD3F8D43003F001037B607B6801
:10131000002205217A203AF0A9FB7A203AF0D0FB8E
:1013200000BF0837BD4680BD0044025880B588B074
:1013300000AF3B1D00221A605A609A60DA601A61A1
:101340005A619A61214B224A1A60204B01225A604D
:101350001E4B00229A601D4B0422DA601B4B1022A8
:101360001A611A4B40225A61184B4FF480729A61ED
:10137000164B0022DA61154B4FF400621A62134BD0
:101380004FF480525A62114B00229A6202237B6012
:101390000623BB600423FB6006233B6102237B61C1
:1013A0000223BB610223FB613B1D1946074847F03E
:1013B000FFFF0346002B01D012F0D6FA054812F0C9
:1013C000A4FB00BF2037BD4680BD00BFF8650024E8
:1013D000404100526939010880B590B000AF07F173
:1013E0002C0300221A605A609A60DA601A61A04BDE
:1013F000D3F8E0309E4A43F48063C2F8E0309C4B5F
:10140000D3F8E03003F48063BB62BB6A984BD3F837
:10141000E030974A43F04003C2F8E030944BD3F8F1
:10142000E03003F040037B627B6A914BD3F8E030FD
:101430008F4A43F00803C2F8E0308D4BD3F8E03018
:1014400003F008033B623B6A894BD3F8E030884ADB
:1014500043F00403C2F8E030854BD3F8E03003F0EA
:101460000403FB61FB69824BD3F8E030804A43F40C
:101470008073C2F8E0307E4BD3F8E03003F4807321
:10148000BB61BB697A4BD3F8E030794A43F0100373
:10149000C2F8E030764BD3F8E03003F010037B6104
:1014A0007B69734BD3F8E030714A43F00203C2F812
:1014B000E0306F4BD3F8E03003F002033B613B694F
:1014C0006B4BD3F8E0306A4A43F40073C2F8E03063
:1014D000674BD3F8E03003F40073FB60FB68644BA8
:1014E000D3F8E030624A43F00103C2F8E030604BC9
:1014F000D3F8E03003F00103BB60BB685C4BD3F86A
:10150000E0305B4A43F02003C2F8E030584BD3F898
:10151000E03003F020037B607B68554BD3F8E0306C
:10152000534A43F08003C2F8E030514BD3F8E03027
:1015300003F080033B603B68002208214D483CF0EB
:1015400063F901224FF400514B483CF05DF9002251
:1015500008214A483CF058F90022402148483CF014
:1015600053F90122042147483CF04EF90823FB625D
:1015700001233B6300237B630023BB6307F12C0340
:1015800019463C483BF02AFD4FF48073FB6202236E
:101590003B6300237B630023BB630023FB6307F1F2
:1015A0002C03194636483BF019FD4FF40053FB62FB
:1015B00001233B6300237B630023BB6307F12C0300
:1015C00019462D483BF00AFD0823FB6201233B63CB
:1015D00000237B630323BB6307F12C0319462748D1
:1015E0003BF0FCFC0423FB624FF404133B63002339
:1015F0007B6307F12C03194620483BF0EFFC4FF4C6
:101600004063FB6202233B6301237B630323BB63D1
:101610000723FB6307F12C0319461B483BF0DEFC54
:101620004023FB6201233B6300237B630323BB63F3
:1016300007F12C03194612483BF0D0FC0423FB624F
:1016400001233B6300237B630023BB6307F12C036F
:1016500019460C483BF0C2FC0022052108203AF054
:1016600005FA08203AF02CFA00BF4037BD4680BD8D
:1016700000440258000C025800200258001802587A
:1016800000000258002402580004025890B583B0AC
:1016900000AF0446084611461A462346FB7103462E
:1016A000BB710B467B7113463B71FB796433114A66
:1016B0005361BB79013B0F4A13617B790D4AD360BB
:1016C0003B790C4A93603B7E0A4A53603B7F094A50
:1016D000136008486BF0C2FD02460B460649C1E99B
:1016E0000023054BD3E90023134618460C37BD46AB
:1016F00090BD00BF301301245813012490B583B06E
:1017000000AF7860544B1B6818464CF0EBFE034664
:101710009AB2524B1A80514B1B88002B00F09580D7
:101720004F4B1B6841F2883118464CF002FC4B4B82
:101730001B884C4A4C494D486BF0FCFB4B48FEF76C
:10174000D9FD03469CB24948FEF7D4FD0346224624
:101750004649474848F096FB414B1B6818464CF0F9
:1017600033FC444B00221A803CE03B4B18680023BA
:10177000002241494CF058FE0346404A13603F4B5B
:101780001B68002B20D0364B1B6841F2883118466D
:101790004CF0CFFB394B1B68324A394933486BF068
:1017A000C9FB3248FEF7A6FD03469CB22F48FEF760
:1017B000A1FD034622462D492D4848F063FB284BE6
:1017C0001B6818464CF000FC2A4B1B881A467B68A5
:1017D0001344294A12781A70264B1B8801339AB297
:1017E000244B1A801C4B1B6818464CF07BFE0346AA
:1017F000002B05D01F4B1B8840F6FD729342B4D9D5
:101800001C4B1A88154B1A80154B1B6841F2883106
:1018100018464CF08EFB114B1B88124A194913488D
:101820006BF088FB1148FEF765FD03469CB20F483C
:10183000FEF760FD034622460C490D4848F022FBA6
:10184000074B1B6818464CF0BFFB044B1B8818461F
:101850000C37BD4690BD00BF34D400246013012472
:1018600088D5002480A9070848F50608DCD500249F
:10187000D06400246213012464130124681301243A
:1018800070F50608A8F5060890B583B000AF78603B
:101890007B681B682F4A934216D12F4B1A782F4B27
:1018A0001A702F4B1868002300222C494CF05CFD65
:1018B00003462C4A1360012227492B4848F070FB4D
:1018C00003461A46294B1A707B681B68284A9342C4
:1018D0003BD1284B1A78284B1A70284B18680023E4
:1018E000002225494CF040FD03461E4A13601D4B63
:1018F0001B68002B20D0224B1B6841F28831184610
:101900004CF017FB174B1B681E4A1F491F486BF012
:1019100011FB1E48FEF7EEFC03469CB21B48FEF787
:10192000E9FC0346224619490F4848F0ABFA144B2C
:101930001B6818464CF048FB01220E49144848F039
:101940002FFB03461A46094B1A7000BF0C37BD46E1
:1019500090BD00BF001001400DEE00246C13012467
:1019600034D4002470130124D0640024741301249F
:10197000004400400CEE002475130124E0CB002449
:1019800088D500249CA90708D0F50608DCD50024DA
:101990006465002490B585B000AFF8607B600B46AD
:1019A0007B8113467B727D4B00221A805AE17B7A41
:1019B000002B2AD0794B1B8803F00F039BB2002B1E
:1019C00023D1774B1B6841F2883118464CF0B1FAAD
:1019D000724B1B881A467B6813441A467149724839
:1019E0006BF0A8FA7048FEF785FC03469CB26E487F
:1019F000FEF780FC034622466B496C4848F042FAE9
:101A0000674B1B6818464CF0DFFA654B1B6841F2C8
:101A1000883118464CF08DFA604B1B881A46FB68DB
:101A200013441B781A4662495F486BF083FA5E489C
:101A3000FEF760FC03469CB25B48FEF75BFC034686
:101A400022465949594848F01DFA554B1B6818461B
:101A50004CF0BAFA524B1B6841F2883118464CF0F0
:101A600068FA544950486BF065FA4F48FEF742FC5B
:101A700003469CB24C48FEF73DFC034622464A49C9
:101A80004A4848F0FFF9464B1B6818464CF09CFA50
:101A9000424B1B8803F00F039BB2072B1DD1404B19
:101AA0001B6841F2883118464CF043FA42493E48DF
:101AB0006BF040FA3C48FEF71DFC03469CB23A48E6
:101AC000FEF718FC034622463749384848F0DAF951
:101AD000334B1B6818464CF077FA304B1B8803F0E9
:101AE0000F039BB20F2B40F0B7802D4B1B6841F2C8
:101AF000883118464CF01DFA2F492B486BF01AFA22
:101B00002948FEF7F7FB03469CB22748FEF7F2FB95
:101B1000034622462449254848F0B4F9204B1B6867
:101B200018464CF051FA1D4B1B880F3B9AB2234BC1
:101B30001A806DE0214B1B881A46FB6813441B7802
:101B400001331F4A13441B7803F09703002B3BD04B
:101B5000134B1B6841F2883118464CF0EAF9174BD9
:101B60001B881A46FB6813441B781A4615490E4811
:101B70006BF0E0F90C48FEF7BDFB03469CB20A4847
:101B8000FEF7B8FB034622460749084848F07AF9B1
:101B9000034B1B6818464CF017FA33E07613012408
:101BA00088D5002408F60608DCD50024D06400247B
:101BB0001CF6060824F6060828F606087813012401
:101BC00008E4070830F60608A84B1B6841F2883184
:101BD00018464CF0AEF9A649A6486BF0ABF9A548FB
:101BE000FEF788FB03469CB2A248FEF783FB034640
:101BF0002246A049A04848F045F99C4B1B6818466E
:101C00004CF0E2F99D4B1B8801339AB29B4B1A8032
:101C10009B4B1A88994B1B889A428BD2934B1B681B
:101C200041F2883118464CF084F9964991486BF09E
:101C300081F99048FEF75EFB03469CB28D48FEF7A3
:101C400059FB034622468B498B4848F01BF9874BCA
:101C50001B6818464CF0B8F9894B1B8801339AB2BF
:101C6000874B1A80864B1B887A899A423FF69FAE33
:101C70007B8903F00F039BB2002B00F0D5807B899A
:101C800003F00F039AB27D4B1A8023E0774B1B6859
:101C900041F2883118464CF04CF97B4975486BF09D
:101CA00049F97448FEF726FB03469CB27148FEF7DB
:101CB00021FB034622466F496F4848F0E3F86B4B1F
:101CC0001B6818464CF080F96C4B1B8801339AB2A4
:101CD0006A4B1A80694B1B880F2BD7D97B8903F07D
:101CE00008039BB2002B1DD1604B1B6841F2883169
:101CF00018464CF01EF965495E486BF01BF95D48CB
:101D0000FEF7F8FA03469CB25A48FEF7F3FA034688
:101D100022465849584848F0B5F8544B1B681846B5
:101D20004CF052F9514B1B6841F2883118464CF087
:101D300000F956494F486BF0FDF84E48FEF7DAFAC5
:101D400003469CB24B48FEF7D5FA03462246494962
:101D5000494848F097F8454B1B6818464CF034F951
:101D60007B8923F00F039AB2444B1A8057E0434B10
:101D70001B881A46FB6813441B780133444A1344FA
:101D80001B7803F09703002B25D0384B1B6841F2DA
:101D9000883118464CF0CDF8384B1B881A46FB6842
:101DA00013441B781A463B4932486BF0C3F831485C
:101DB000FEF7A0FA03469CB22E48FEF79BFA0346B4
:101DC00022462C492C4848F05DF8284B1B681846E1
:101DD0004CF0FAF81DE0254B1B6841F2883118469B
:101DE0004CF0A7F8224923486BF0A4F82148FEF7ED
:101DF00081FA03469CB21F48FEF77CFA034622464E
:101E00001C491D4848F03EF8184B1B6818464CF01A
:101E1000DBF81A4B1B8801339AB2184B1A80174B08
:101E20001B887A899A42A2D8104B1B6841F28831EC
:101E300018464CF07EF813490E486BF07BF80D48BD
:101E4000FEF758FA03469CB20A48FEF753FA0346D7
:101E500022460849084848F015F8044B1B68184604
:101E60004CF0B2F800BF1437BD4690BD88D50024B1
:101E700034F60608DCD50024D0640024781301244D
:101E80007613012438F606083CF6060828F60608FC
:101E900008E4070830F6060890B583B002AF654B3A
:101EA0001B684FF47A7118464CF043F86249634856
:101EB0006BF040F86148FEF71DFA03469CB25F489C
:101EC000FEF718FA034622465C495D4847F0DAFF00
:101ED00059495A486BF02EF85848FEF70BFA03465A
:101EE0009CB25648FEF706FA034622465349544828
:101EF00047F0C8FF504951486BF01CF84F48FEF7B7
:101F0000F9F903469CB24D48FEF7F4F90346224620
:101F10004A494B4847F0B6FF4A4948486BF00AF82F
:101F20004648FEF7E7F903469CB24448FEF7E2F95B
:101F3000034622464149424847F0A4FF42493F48F0
:101F40006AF0F8FF3D48FEF7D5F903469CB23B48DE
:101F5000FEF7D0F9034622463849394847F092FF48
:101F60003A4936486AF0E6FF3448FEF7C3F90346BB
:101F70009CB23248FEF7BEF9034622462F4930484C
:101F800047F080FF41230193314B0093314B314A9D
:101F900031492A486AF0CEFF2848FEF7ABF90346DC
:101FA0009CB22648FEF7A6F9034622462349244858
:101FB00047F068FF294A2A4920486AF0BBFF1F48BA
:101FC000FEF798F903469CB21C48FEF793F90346C6
:101FD00022461A491A4847F055FF224917486AF025
:101FE000A9FF1648FEF786F903469CB21348FEF790
:101FF00081F9034622461149114847F043FF12492F
:102000000E486AF097FF0D48FEF774F903469CB23C
:102010000A48FEF76FF9034622460849084847F088
:1020200031FF044B1B6818464BF0CEFF00BF04374E
:10203000BD4690BD88D5002440F60608DCD50024B6
:10204000D06400246CF6060874F60608BCF6060890
:1020500038F7060804F7060808F706083CF70608EC
:1020600048F7060870F7060880B500AF0349044832
:1020700046F0E6FE014B1B68184680BD7C13012428
:102080002062002490B58BB004AF03463960FB801A
:102090000023BB82FB88002B23D0FB88A3F5807331
:1020A000002B00DA0733DB10FB75FB88DBB203F093
:1020B0000703BB75FB8801333B823B8AA3F5807322
:1020C000002B00DA0733DB10FB753B8AA3F5807326
:1020D0005A4203F0070302F0070258BF5342BB7590
:1020E00003E00023FB750023BB75FB7DFB7454E00C
:1020F000BB7DBB7449E0FB7C3A6813441B781A46ED
:10210000BB7C42FA03F303F00103002B3AD0FB7CC3
:1021100020339BB2DB009AB2BB7C9BB21344BB82E0
:10212000FB7CFB73BB7CBB73314B1B6841F288317A
:1021300018464BF0FEFEB88AFB7BBA7BB97B0124C4
:1021400004FA01F10291019200930346294A2A49B7
:102150002A486AF0EFFE2948FEF7CCF803469CB205
:102160002648FEF7C7F8034622462449244847F08C
:1021700089FE1F4B1B6818464BF026FF0823BB74D3
:102180008023FB74BB7C0133BB74BB7C072BB2D9AF
:102190000023BB75FB7C0133FB7497F91330002BD4
:1021A000A6DABB8A002B1ED1114B1B6841F2883185
:1021B00018464BF0BEFE0F4A124910486AF0BAFEAC
:1021C0000E48FEF797F803469CB20C48FEF792F8CB
:1021D0000346224609490A4847F054FE044B1B684F
:1021E00018464BF0F1FEBB8A18461C37BD4690BD21
:1021F00088D50024B4A907086CF80608DCD50024AB
:10220000D0640024C8F8060898B500AF7C4B1B6862
:1022100041F2883118464BF08CFE7A497A486AF0D0
:1022200089FE7948FEF766F803469CB27648FEF7C9
:1022300061F8034622467449744847F023FE704B08
:102240001B6818464BF0C0FE714B181D704B5B7835
:10225000033B99B200230022FFF79CFB684B1B68ED
:1022600041F2883118464BF064FE694B1B79694A8C
:10227000694965486AF05EFE6348FEF73BF803462D
:102280009CB26148FEF736F8034622465E495F4835
:1022900047F0F8FD5A4B1B6818464BF095FE584B1B
:1022A0001B6841F2883118464BF043FE584B5B796E
:1022B000584A5A4954486AF03DFE5348FEF71AF806
:1022C00003469CB25048FEF715F8034622464E4995
:1022D0004E4847F0D7FD4A4B1B6818464BF074FE3A
:1022E0004B4B5B79032B00F2A38001A252F823F041
:1022F000012300084123000881230008C1230008AE
:102300003F4B1B6841F2883118464BF012FE414AA0
:1023100043493D486AF00EFE3B48FDF7EBFF03469C
:102320009CB23948FDF7E6FF034622463649374856
:1023300047F0A8FD324B1B6818464BF045FE97E06E
:102340002F4B1B6841F2883118464BF0F2FD314AA1
:1023500034492D486AF0EEFD2B48FDF7CBFF0346CC
:102360009CB22948FDF7C6FF034622462649274866
:1023700047F088FD224B1B6818464BF025FE77E09E
:102380001F4B1B6841F2883118464BF0D2FD214AA1
:1023900025491D486AF0CEFD1B48FDF7ABFF0346FB
:1023A0009CB21948FDF7A6FF034622461649174876
:1023B00047F068FD124B1B6818464BF005FE57E0CE
:1023C0000F4B1B6841F2883118464BF0B2FD114AA1
:1023D00016490D486AF0AEFD0B48FDF78BFF03462A
:1023E0009CB20948FDF786FF034622460649074886
:1023F00047F048FD024B1B6818464BF0E5FD37E0FF
:1024000088D5002458F90608DCD50024D0640024BF
:10241000BC080124D0A907089CF90608DCF90608C5
:102420001CFA060834FA060860FA060898FA060844
:10243000B24B1B6841F2883118464BF07AFDB04A26
:10244000B049B1486AF076FDAF48FDF753FF034647
:102450009CB2AD48FDF74EFF03462246AA49AB4861
:1024600047F010FDA54B1B6818464BF0ADFD00BFB3
:10247000A24B1B6841F2883118464BF05AFDA44B21
:102480009B791B02A24AD27913449D4AA1499E48D6
:102490006AF050FD9C48FDF72DFF03469CB29A4818
:1024A000FDF728FF034622469749984847F0EAFC83
:1024B000924B1B6818464BF087FD904B1B6841F20E
:1024C000883118464BF035FD914B1B7A8C4A924966
:1024D0008D486AF02FFD8C48FDF70CFF03469CB237
:1024E0008948FDF707FF034622468749874847F09A
:1024F000C9FC824B1B6818464BF066FD7F4B1B687E
:1025000041F2883118464BF014FD814B5B7A7C4ACE
:1025100082497D486AF00EFD7B48FDF7EBFE0346DD
:102520009CB27948FDF7E6FE034622467649774895
:1025300047F0A8FC714B1B6818464BF045FD6F4BEC
:102540001B6841F2883118464BF0F3FC704B9B7AC4
:102550006B4A73496C486AF0EDFC6B48FDF7CAFEA4
:1025600003469CB26848FDF7C5FE0346224666490D
:10257000664847F087FC614B1B6818464BF024FD0A
:102580005E4B1B6841F2883118464BF0D2FC604B21
:10259000DB7A5B4A63495C486AF0CCFC5A48FDF739
:1025A000A9FE03469CB25848FDF7A4FE0346224606
:1025B0005549564847F066FC504B1B6818464BF08F
:1025C00003FD4E4B1B6841F2883118464BF0B1FCBD
:1025D0004F4B1B7B4A4A54494B486AF0ABFC4A4874
:1025E000FDF788FE03469CB24748FDF783FE03468D
:1025F00022464549454847F045FC404B1B68184674
:102600004BF0E2FC3D4B1B6841F2883118464BF021
:1026100090FC3F4B5B7B3A4A44493B486AF08AFC5A
:102620003948FDF767FE03469CB23748FDF762FE66
:10263000034622463449354847F024FC2F4B1B689B
:1026400018464BF0C1FC2D4B1B6841F288311846EF
:102650004BF06FFC2E4B9B7B294A35492A486AF088
:1026600069FC2948FDF746FE03469CB22648FDF763
:1026700041FE034622462449244847F003FC1F4BF1
:102680001B6818464BF0A0FC1C4B1B6841F28831BC
:1026900018464BF04EFC1E4BDB7B194A25491A4865
:1026A0006AF048FC1848FDF725FE03469CB2164820
:1026B000FDF720FE034622461349144847F0E2FB8B
:1026C0000E4B1B6818464BF07FFC0C4B1B6841F20D
:1026D000883118464BF02DFC0D4B1B7C084A1649DF
:1026E00009486AF027FC0848FDF704FE03469CB23F
:1026F0000548FDF7FFFD034622461FE088D500246C
:10270000D0A90708C4FA0608DCD50024D064002448
:10271000BC080124F4FA060834FB060874FB06081A
:10272000B4FB0608F4FB060834FC060874FC060833
:10273000B4FC0608F4FC060834FD0608A549A648C2
:1027400047F0A0FBA54B1B6818464BF03DFCA34B84
:102750001B6841F2883118464BF0EBFBA04B5B7CC9
:10276000A04AA1499B486AF0E5FB9A48FDF7C2FDE3
:1027700003469CB29748FDF7BDFD034622469549A6
:10278000954847F07FFB954B1B6818464BF01CFCA7
:10279000924B1B6841F2883118464BF0CAFB904BB4
:1027A0009B7C904A91498B486AF0C4FB8948FDF7AD
:1027B000A1FD03469CB28748FDF79CFD03462246D7
:1027C0008449854847F05EFB844B1B6818464BF0F4
:1027D000FBFB824B1B6841F2883118464BF0A9FB8A
:1027E0007F4BDB7C7F4A82497A486AF0A3FB7948B9
:1027F000FDF780FD03469CB27648FDF77BFD03465E
:1028000022467449744847F03DFB744B1B681846D8
:102810004BF0DAFB714B1B6841F2883118464BF0E4
:1028200088FB6F4B1B7D6F4A72496A486AF082FBD6
:102830006848FDF75FFD03469CB26648FDF75AFD08
:10284000034622466349644847F01CFB634B1B6800
:1028500018464BF0B9FB614B1B6841F288311846B2
:102860004BF067FB5E4B5B7D5E4A634959486AF0FB
:1028700061FB5848FDF73EFD03469CB25548FDF705
:1028800039FD034622465349534847F0FBFA534B60
:102890001B6818464BF098FB514B5B7D03F04003DF
:1028A000002B1ED04D4B1B6841F2883118464BF06F
:1028B00040FB4C4A514947486AF03CFB4548FDF70C
:1028C00019FD03469CB24348FDF714FD034622461A
:1028D0004049414847F0D6FA404B1B6818464BF038
:1028E00073FB3F4B5B7D03F02003002B1ED03B4B63
:1028F0001B6841F2883118464BF01BFB394A4049AE
:1029000034486AF017FB3348FDF7F4FC03469CB2E9
:102910003048FDF7EFFC034622462E492E4847F08B
:10292000B1FA2E4B1B6818464BF04EFB2C4B5B7DCF
:1029300003F00703013B032B00F2B48001A252F81D
:1029400023F000BF55290008952900080D2A00082A
:102950004D2A0008214B1B6841F2883118464BF084
:10296000E8FA204A27491B486AF0E4FA1948FDF7BB
:10297000C1FC03469CB21748FDF7BCFC0346224647
:102980001449154847F07EFA144B1B6818464BF063
:102990001BFBA7E0114B1B6841F2883118464BF036
:1029A000C8FA104A18490B486AF0C4FA0948FDF7FA
:1029B000A1FC03469CB20748FDF79CFC0346224657
:1029C0000449054847F05EFA044B1B6818464BF073
:1029D000FBFA87E0DCD50024D064002488D50024ED
:1029E000BC080124D0A9070874FD0608B4FD060838
:1029F000F4FD060834FE060874FE0608B4FE060858
:102A0000F0FE06082CFF06084CFF06081F4B1B684B
:102A100041F2883118464BF08CFA1D4A1D491E4878
:102A20006AF088FA1C48FDF765FC03469CB21A4818
:102A3000FDF760FC034622461749184847F022FA82
:102A4000124B1B6818464BF0BFFA4BE00F4B1B684C
:102A500041F2883118464BF06CFA0D4A10490E4885
:102A60006AF068FA0C48FDF745FC03469CB20A4838
:102A7000FDF740FC034622460749084847F002FAA2
:102A8000024B1B6818464BF09FFA2BE088D50024B8
:102A9000D0A907086CFF0608DCD50024D064002408
:102AA0008CFF0608A34B1B6841F2883118464BF097
:102AB00040FAA14AA149A2486AF03CFAA048FDF7B1
:102AC00019FC03469CB29E48FDF714FC03462246BF
:102AD0009B499C4847F0D6F9964B1B6818464BF02B
:102AE00073FA00BF934B1B6841F2883118464BF0D4
:102AF00020FA954B9B7D904A944991486AF01AFAC6
:102B00008F48FDF7F7FB03469CB28D48FDF7F2FBBB
:102B1000034622468A498B4847F0B4F9854B1B6827
:102B200018464BF051FA834B1B6841F28831184626
:102B30004BF0FFF9844BDB7D7F4A854980486AF082
:102B4000F9F97F48FDF7D6FB03469CB27C48FDF7B8
:102B5000D1FB034622467A497A4847F093F9754BF0
:102B60001B6818464BF030FA724B1B6841F28831F3
:102B700018464BF0DEF9744B1B7E6F4A754970485E
:102B80006AF0D8F96E48FDF7B5FB03469CB26C4875
:102B9000FDF7B0FB0346224669496A4847F072F9DF
:102BA000644B1B6818464BF00FFA624B1B6841F2EE
:102BB000883118464BF0BDF9634B5B7E5E4A66492F
:102BC0005F486AF0B7F95E48FDF794FB03469CB294
:102BD0005B48FDF78FFB034622465949594847F0A9
:102BE00051F9544B1B6818464BF0EEF9514B1B68DA
:102BF00041F2883118464BF09CF9534B9B7E4E4A6C
:102C000056494F486AF096F94D48FDF773FB034665
:102C10009CB24B48FDF76EFB0346224648494948A3
:102C200047F030F9434B1B6818464BF0CDF9414B48
:102C30001B6841F2883118464BF07BF9424BDB7E32
:102C40003D4A47493E486AF075F93D48FDF752FB59
:102C500003469CB23A48FDF74DFB034622463849ED
:102C6000384847F00FF9334B1B6818464BF0ACF966
:102C7000304B1B6841F2883118464BF05AF9324B01
:102C80001B7F2D4A37492E486AF054F92C48FDF72E
:102C900031FB03469CB22A48FDF72CFB0346224633
:102CA0002749284847F0EEF8224B1B6818464BF09E
:102CB0008BF9204B1B6841F2883118464BF039F9EB
:102CC000214B5B7F1C4A28491D486AF033F91C4898
:102CD000FDF710FB03469CB21948FDF70BFB0346BA
:102CE00022461749174847F0CDF8124B1B68184683
:102CF0004BF06AF90F4B1B6841F2883118464BF0D4
:102D000018F91A490E486AF015F90D48FDF7F2FA5C
:102D100003469CB20A48FDF7EDFA034622460849ED
:102D2000084847F0AFF8034B1B6818464BF04CF9C6
:102D300000BF98BD88D50024D0A90708B0FF0608B9
:102D4000DCD50024D0640024BC080124F8FF060868
:102D50003800070878000708B8000708F8000708D7
:102D60003801070878010708B8010708F8010708C3
:102D700090B585B000AF03463960FB710123FB734A
:102D8000FB79042B6BD8FA79484913465B0013444E
:102D9000DB000B4408331B7863F03F03DAB23B6877
:102DA0001A70FA793B68591C404813465B0013447B
:102DB000DB00034409331B780B70FA793B68991CDC
:102DC0003A4813465B001344DB0003440A331B7884
:102DD0000B70FA79354913465B001344DB000B4452
:102DE0000B331A783B68033322F00102D2B21A7017
:102DF000FA792E4913465B001344DB000B440C3375
:102E00001A783B68043362F03F02D2B21A70FA7942
:102E10003B68591D254813465B001344DB000344FF
:102E20000D331B780B70FA793B68991D1F481346C8
:102E30005B001344DB0003440E331B780B70FA79FC
:102E40001A4913465B001344DB000B440F331A7816
:102E50003B68073322F00102D2B21A7021E0144B12
:102E60001B6841F2883118464BF063F8FB79114A30
:102E7000114912486AF05EF81048FDF73BFA034624
:102E80009CB20E48FDF736FA034622460B490C4821
:102E900046F0F8FF064B1B6818464BF095F80023E8
:102EA000FB73FB7B18461437BD4690BD30120124DE
:102EB00088D50024E8A907083C020708DCD50024CF
:102EC000D064002490B583B000AFFF23FB710023D2
:102ED0007B7141E00123BB7100233B7110E07A79E3
:102EE0003979214813465B001344DB0003440B444B
:102EF0001B78002B01D00023BB713B7901333B7160
:102F00003B790F2BEBD9BB79002B22D0174B1B68D9
:102F100041F2883118464BF00CF87B79144A154978
:102F200015486AF007F81448FDF7E4F903469CB227
:102F30001148FDF7DFF9034622460F490F4846F0D6
:102F4000A1FF0A4B1B6818464BF03EF87B79FB71DA
:102F500005E07B7901337B717B79042BBAD9FB794E
:102F600018460C37BD4690BD3012012488D5002488
:102F700008AA070890020708DCD50024D0640024C2
:102F800080B483B000AF0023FB7100233B6026E0D8
:102F900018493A6813465B001344DB000B441533B1
:102FA0001B78002B18D013493A6813465B00134472
:102FB000DB000B4415331B78012B0DD00D493A680B
:102FC00013465B001344DB000B4415331B78062BC0
:102FD00002D00123FB7105E03B6801333B603B6895
:102FE000042BD5DDFB7918460C37BD465DF8047B14
:102FF000704700BF3012012490B585B000AF034682
:10300000FB71FB79042B19D80123FB730023BB73DD
:1030100010E0FA79B97B1D4813465B001344DB00CE
:1030200003440B441B78002B01D00023FB73BB7BB4
:103030000133BB73BB7B0F2BEBD921E0144B1B6817
:1030400041F2883118464AF074FFFB79114A12495F
:10305000124869F06FFF1148FDF74CF903469CB226
:103060000E48FDF747F9034622460C490C4846F046
:1030700009FF074B1B6818464AF0A6FF0023FB73A5
:10308000FB7B18461437BD4690BD00BF30120124AB
:1030900088D5002420AA0708AC020708DCD5002444
:1030A000D064002490B585B000AF03463960FB7151
:1030B000FB79042B36D8FA792C4913465B0013446C
:1030C000DB000B44103301221A700023FB6011E077
:1030D000FB683A681344FA791878244913465B0070
:1030E0001344DB00CA18FB68134402461A70FB68DD
:1030F0000133FB60FB680F2BEADDFA791B491346AD
:103100005B001344DB000B44143300221A70FA797D
:10311000164913465B001344DB000B4415330122B0
:103120001A701FE0124B1B6841F2883118464AF0B2
:1031300000FFFB790F4A1049104869F0FBFE0F4869
:10314000FDF7D8F803469CB20C48FDF7D3F80346C8
:1031500022460A490A4846F095FE054B1B68184668
:103160004AF032FF00BF1437BD4690BD3012012433
:1031700088D5002438AA0708F4020708DCD5002403
:10318000D064002490B58FB000AF03463960FB7166
:10319000012387F83730012387F83630FB79042B79
:1031A00022D9A14B1B6841F2883118464AF0C1FE72
:1031B000FB799E4A9E499F4869F0BCFE9D48FDF7F9
:1031C00099F803469CB29B48FDF794F803462246C3
:1031D0009849994846F056FE934B1B6818464AF0AA
:1031E000F3FE002387F837308F4B1B6841F288319C
:1031F00018464AF09EFE3B688C4A90498D4869F01B
:1032000099FE8C48FDF776F803469CB28948FDF795
:1032100071F8034622468749874846F033FE824BC1
:103220001B6818464AF0D0FE3868FDF763F803467D
:103230002F2B25D07C4B1B6841F2883118464AF071
:1032400078FE3868FDF756F80346784A7C49794895
:1032500069F070FE7748FDF74DF803469CB275485B
:10326000FDF748F8034622467249734846F00AFEC5
:103270006D4B1B6818464AF0A7FE002387F83630CE
:103280000023BB6276E0BB6A052B11D0BB6A0B2B17
:103290000ED0BB6A112B0BD0BB6A172B08D0BB6AB0
:1032A0001D2B05D0BB6A232B02D0BB6A292B2FD143
:1032B000BB6A3A6813441B780133624A13441B7893
:1032C00003F00403002B52D0574B1B6841F28831A6
:1032D00018464AF02EFEBB6A544A5B49554869F0CD
:1032E00029FE5448FDF706F803469CB25148FDF705
:1032F00001F8034622464F494F4846F0C3FD4A4B6A
:103300001B6818464AF060FE002387F836302EE02E
:10331000BB6A3A6813441B7801334A4A13441B784A
:1033200003F00403002B22D13F4B1B6841F288318C
:1033300018464AF0FEFDBB6A3C4A44493D4869F0E4
:10334000F9FD3C48FCF7D6FF03469CB23948FCF730
:10335000D1FF034622463749374846F093FD324BAA
:103360001B6818464AF030FE002387F83630BB6AE7
:103370000133BB62BB6A2E2B85DD97F83630002BFC
:1033800020D0294B1B6841F2883118464AF0D1FD04
:103390003B68264A2E49274869F0CCFD2548FCF7B2
:1033A000A9FF03469CB22348FCF7A4FF034622462C
:1033B0002049214846F066FD1B4B1B6818464AF021
:1033C00003FE1FE0184B1B6841F2883118464AF093
:1033D000B0FD3B68154A1F49164869F0ABFD15481A
:1033E000FCF788FF03469CB21248FCF783FF0346B4
:1033F00022461049104846F045FD0B4B1B68184605
:103400004AF0E2FD97F83730002B03D097F83630BA
:1034100087F837303B683B63002387F82F3097F8F5
:103420003630002B72D06DE088D5002448AA0708FA
:10343000F4020708DCD50024D06400243403070814
:103440004C03070808E4070890030708D803070897
:103450001C0407083404070807F10C0306220021A6
:10346000184669F0CEFD07F10C030522396B1846AA
:103470006AF093FC07F10C03184669F031FB034630
:103480007B627B6AB3F5803F22D33D4B1B6841F2E0
:10349000883118464AF04DFD7B6A3A4A3A493B4822
:1034A00069F048FD3948FCF725FF03469CB23748D0
:1034B000FCF720FF034622463449354846F0E2FC3B
:1034C0002F4B1B6818464AF07FFD002387F83630E3
:1034D0007B6A1A0A97F82F30D2B238333B4403F88C
:1034E000242C97F82F3001337A6AD2B238333B4418
:1034F00003F8242C3B6B06333B6397F82F300233E1
:1035000087F82F3097F82F300F2BA5D997F8373041
:10351000002B0FD097F83630002B0BD097F83630B1
:1035200087F8373007F11402FB7911461846FFF788
:10353000B9FD1EE0124B1B6841F2883118464AF073
:10354000F8FC104A1349114869F0F4FC0F48FCF7E5
:10355000D1FE03469CB20D48FCF7CCFE0346224642
:103560000A490B4846F08EFC054B1B6818464AF08A
:103570002BFD97F8373018463C37BD4690BD00BF4D
:1035800088D5002448AA07086C040708DCD5002465
:10359000D0640024A004070890B585B000AF0346AE
:1035A000FB71FB79042B5DD8404B1B6841F28831DD
:1035B00018464AF0BEFCFB793D4A3E493E4869F058
:1035C000B9FC3D48FCF796FE03469CB23A48FCF72E
:1035D00091FE034622463849384846F053FC334BA7
:1035E0001B6818464AF0F0FCFA79354913465B002F
:1035F0001344DB000B44103300221A700023FB60DD
:103600000DE0FA792E4913465B001344DB00CA181B
:10361000FB68134400221A70FB680133FB60FB68EF
:103620000F2BEEDDFA79264913465B001344DB00CD
:103630000B44143301221A70FA79214913465B00B6
:103640001344DB000B44153300221A70FA791C492D
:1036500013465B001344DB000B4416334FF6FF7236
:103660001A801FE0114B1B6841F2883118464AF05E
:1036700060FCFB790E4A13490F4869F05BFC0E4869
:10368000FCF738FE03469CB20B48FCF733FE0346BA
:1036900022460949094846F0F5FB044B1B681846C9
:1036A0004AF092FC00BF1437BD4690BD88D5002477
:1036B00064AA0708CC040708DCD50024D0640024E1
:1036C00030120124E404070890B587B002AF034626
:1036D0003960FB711346BB71594B9B781F2B00F26D
:1036E0008880574B9B781D2B24D9564B1B6841F281
:1036F000883118464AF01DFC514B9B781A4620230E
:1037000000931346504A5149514869F013FC504800
:10371000FCF7F0FD03469CB24D48FCF7EBFD034679
:1037200022464B494B4846F0ADFB464B1B681846BA
:103730004AF04AFC434B1B6841F2883118464AF074
:10374000F8FBFB79404A4449414869F0F3FB4048A3
:10375000FCF7D0FD03469CB23D48FCF7CBFD034689
:1037600022463B493B4846F08DFB364B1B681846CA
:103770004AF02AFC324B9B780133DAB2304B9A7014
:103780002F4B5B7819462E4AAA2301FB03F31344FF
:103790000333FA791A70BB79A82B01D9A823BB711E
:1037A000274B5B781946264AAA2301FB03F31344EF
:1037B0000433BA791A70224B5B781A46AA2302FBAB
:1037C00003F31F4A13440533BA79396818466AF07F
:1037D000E4FA1B4B5B780133DAB2194B5A70184B81
:1037E0005B781F2B02D9164B00225A700123FB7302
:1037F00021E0144B1B6841F2883118464AF099FBCE
:10380000FB79114A1549124869F094FB1048FCF7FE
:1038100071FD03469CB20E48FCF76CFD0346224640
:103820000B490C4846F02EFB064B1B6818464AF025
:10383000CBFB0023FB73FB7B18461437BD4690BDC2
:1038400010EE002488D5002478AA07082805070868
:10385000DCD50024D06400247C050708A8050708EF
:1038600090B587B002AF03463960FB711346BB7158
:10387000594B9B78072B00F28880574B9B78052B80
:1038800024D9564B1B6841F2883118464AF051FB47
:10389000514B9B781A46082300931346504A5149CE
:1038A000514869F047FB5048FCF724FD03469CB2A1
:1038B0004D48FCF71FFD034622464B494B4846F056
:1038C000E1FA464B1B6818464AF07EFB434B1B68E7
:1038D00041F2883118464AF02CFBFB79404A4449B2
:1038E000414869F027FB4048FCF704FD03469CB2C1
:1038F0003D48FCF7FFFC034622463B493B4846F067
:10390000C1FA364B1B6818464AF05EFB324B9B7877
:103910000133DAB2304B9A702F4B5B7819462E4A3E
:10392000AA2301FB03F313440333FA791A70BB791A
:10393000A82B01D9A823BB71274B5B781946264ACF
:10394000AA2301FB03F313440433BA791A70224B00
:103950005B781A46AA2302FB03F31F4A134405337C
:10396000BA79396818466AF018FA1B4B5B7801334C
:10397000DAB2194B5A70184B5B78072B02D9164BE9
:1039800000225A700123FB7321E0144B1B6841F2A3
:10399000883118464AF0CDFAFB79114A1549124888
:1039A00069F0C8FA1048FCF7A5FC03469CB20E4823
:1039B000FCF7A0FC034622460B490C4846F062FA8D
:1039C000064B1B6818464AF0FFFA0023FB73FB7B8B
:1039D00018461437BD4690BD5403012488D50024F1
:1039E00090AA0708F0050708DCD50024D06400245D
:1039F000440607087006070890B585B000AF034677
:103A00000A46FB711346BB71974B1B6841F2883124
:103A100018464AF08EFAFB79944A9549954869F020
:103A200089FA9448FCF766FC03469CB29148FCF77F
:103A300061FC034622468F498F4846F023FA8A4BA1
:103A40001B6818464AF0C0FA8C4B00221A728B4B46
:103A50000022DA60894B002283F8C820884B0022BC
:103A60001A70884B18221A70BB79002B1BD0864B1A
:103A70000133854A52781946FF200EF013F90346A8
:103A8000FB73FA79FB7B9A4201D1012200E0032209
:103A90007B4B1A70FA79FB7B9A4201D1062200E037
:103AA0001522784B1A70704B1B6841F2883118460A
:103AB0004AF03FFA75496F4869F03CFA6D48FCF7E7
:103AC00019FC03469CB26B48FCF714FC03462246E3
:103AD0006849694846F0D6F9634B1B6818464AF0B6
:103AE00073FA664BDB7C1946002300226648FDF71B
:103AF00051FF5D4B1B6841F2883118464AF019FAB4
:103B000063495C4869F016FA5A48FCF7F3FB034630
:103B10009CB25848FCF7EEFB0346224655495648EE
:103B200046F0B0F9504B1B6818464AF04DFA534B1B
:103B300000221A74012301225249564846F0A2F984
:103B4000504B1B78182B46D0182B64DC062B02D068
:103B5000152B20D05FE0444B1B6841F2883118469A
:103B60004AF0E7F9414A4C49424869F0E3F94148D3
:103B7000FCF7C0FB03469CB23E48FCF7BBFB034688
:103B800022463C493C4846F07DF9374B1B681846B5
:103B90004AF01AFA61E0344B1B6841F2883118464A
:103BA0004AF0C7F9314A3D49324869F0C3F9314812
:103BB000FCF7A0FB03469CB22E48FCF79BFB034698
:103BC00022462C492C4846F05DF9274B1B681846C5
:103BD0004AF0FAF941E0244B1B6841F2883118465B
:103BE0004AF0A7F9214A2E49224869F0A3F9214851
:103BF000FCF780FB03469CB21E48FCF77BFB0346A8
:103C000022461C491C4846F03DF9174B1B681846D4
:103C10004AF0DAF921E0144B1B6841F2883118466A
:103C20004AF087F9174B1B78104A1E49114869F072
:103C300081F91048FCF75EFB03469CB20D48FCF787
:103C400059FB034622460B490B4846F01BF9064B2D
:103C50001B6818464AF0B8F900BF094B1B78184694
:103C60001437BD4690BD00BF88D50024B4AA07080C
:103C7000B4060708DCD50024D0640024A808012479
:103C80008013012481130124BC080124D4060708F1
:103C9000340707086465002494070708D00707085D
:103CA000200807089808070880B483B000AF0346CF
:103CB000FB71144BDB7C1A46124B1344FA791A75CC
:103CC000104BDB7C0133DAB20E4BDA740E4B5B78AF
:103CD000032B0AD90C4B5B78033BDAB2094B83F810
:103CE000C920084B04221A7406E0064B012283F80F
:103CF000C920044B05221A7400BF0C37BD465DF87D
:103D0000047B7047A8080124BC08012480B483B058
:103D100000AF0346FB71144B93F8C930013BDAB294
:103D2000114B83F8C920104BDB7C1A460E4B134411
:103D3000FA791A750C4BDB7C0133DAB20A4BDA7470
:103D4000094BDB7CB32B05D8074BDA7C074B5B7840
:103D50009A4202D9044B05221A7400BF0C37BD46A3
:103D60005DF8047B704700BFA8080124BC0801244B
:103D700098B500AF194B1B6841F2883118464AF0DC
:103D8000D8F8174A1749184869F0D4F81648FCF7CC
:103D9000B1FA03469CB21448FCF7ACFA034622463B
:103DA0001149124846F06EF80C4B1B6818464AF051
:103DB0000BF90F4B00221A740D4B002283F8C82018
:103DC0000B4B00221A700A4B00221A72084B002279
:103DD0005A60074B0022DA6000BF98BD88D50024E6
:103DE000CCAA0708E0080708DCD50024D06400242A
:103DF000A808012490B583B000AF0346FB71FB799E
:103E0000022B02D9FB79B42B2DD9214B1B6841F22F
:103E1000883118464AF08DF8FB791E4A1E491F4822
:103E200069F088F81D48FCF765FA03469CB21B4808
:103E3000FCF760FA034622461849194846F022F872
:103E4000134B1B6818464AF0BFF8164B00221A7431
:103E5000144B002283F8C820124B00221A72114B17
:103E60000022DA6010E00F4B02221A740D4BDB7C4B
:103E70001A460C4B1344FA791A750A4BDB7C013352
:103E8000DAB2084BDA7400BF00BF0C37BD4690BDF4
:103E900088D50024E4AA0708FC080708DCD500241C
:103EA000D0640024A808012490B585B002AF034671
:103EB000FB719F4B00221A70FB79012B39D19D4B6E
:103EC0001B6841F2883118464AF033F89A4A9B49F8
:103ED0009B4869F02FF89A48FCF70CFA03469CB20D
:103EE0009748FCF707FA034622469549954845F05E
:103EF000C9FF904B1B6818464AF066F8924B0122A6
:103F00001A74914B0022DA748F4B012283F8C82077
:103F10008D4BDB7C1A468C4B1344FA791A758A4B0D
:103F2000DB7C0133DAB2884BDA74874B00221A72D9
:103F3000F9E1854B9B7C002B00F03781FB79062B48
:103F400002D0FB79152B0ED17F4B00229A747E4B49
:103F500000221A707C4B00221A727B4B00225A609E
:103F6000794B0022DA60FB79062B22D1714B1B685A
:103F700041F28831184649F0DCFF6F4A73497048B6
:103F800068F0D8FF6E48FCF7B5F903469CB26C4860
:103F9000FCF7B0F90346224669496A4845F072FFCA
:103FA000644B1B6818464AF00FF8614B02221A70E6
:103FB000B9E1FB79152B22D15E4B1B6841F28831A8
:103FC000184649F0B6FF5C4A61495D4868F0B2FFA7
:103FD0005B48FCF78FF903469CB25948FCF78AF915
:103FE000034622465649574845F04CFF514B1B6843
:103FF000184649F0E9FF4E4B05221A7093E1FB7910
:104000000133544A13441B7803F09703002B23D049
:10401000484B1B6841F28831184649F08AFFFA790B
:10402000FB7900931346444A4B49454868F082FFA8
:104030004348FCF75FF903469CB24148FCF75AF944
:10404000034622463E493F4845F01CFF394B1B685A
:10405000184649F0B9FF66E1FB79182B47D0182BB9
:1040600000F38280062B02D0152B20D07CE0314B50
:104070001B6841F28831184649F05BFF2E4A3749E8
:104080002F4868F057FF2E48FCF734F903469CB2DE
:104090002B48FCF72FF9034622462949294845F0C9
:1040A000F1FE244B1B68184649F08EFF3BE1214B83
:1040B0001B6841F28831184649F03BFF1E4A2849E7
:1040C0001F4868F037FF1E48FCF714F903469CB2FE
:1040D0001B48FCF70FF9034622461949194845F0D9
:1040E000D1FE144B1B68184649F06EFF1BE1114BC3
:1040F0001B6841F28831184649F01BFF0E4A1949E6
:104100000F4868F017FF0E48FCF7F4F803469CB21E
:104110000B48FCF7EFF8034622460949094845F0E9
:10412000B1FE044B1B68184649F04EFFFBE000BF90
:104130008213012488D50024F8AA0708300907084B
:10414000DCD50024D0640024A8080124480907080D
:104150006009070808E4070878090708A80907089C
:10416000CC090708F0090708724B1B6841F2883137
:10417000184649F0DEFEFB796F4A7049704868F0D6
:10418000D9FE6F48FCF7B6F803469CB26C48FCF7C2
:10419000B1F8034622466A496A4845F073FE654B0A
:1041A0001B68184649F010FFBDE0FB790133664AF1
:1041B00013441B7803F09703002B23D05D4B1B683F
:1041C00041F28831184649F0B4FEFA79FB79009340
:1041D0001346594A5D495A4868F0ACFE5848FCF706
:1041E00089F803469CB25648FCF784F803462246F9
:1041F0005349544845F046FE4E4B1B68184649F05B
:10420000E3FE8AE0FB79182B46D0182B64DC062BE2
:1042100002D0152B20D05FE0464B1B6841F288315D
:10422000184649F086FE444A4949454868F082FEEE
:104230004348FCF75FF803469CB24148FCF75AF844
:10424000034622463E493F4845F01CFE394B1B6859
:10425000184649F0B9FE60E0364B1B6841F28831E0
:10426000184649F066FE344A3A49354868F062FE1D
:104270003348FCF73FF803469CB23148FCF73AF864
:10428000034622462E492F4845F0FCFD294B1B686A
:10429000184649F099FE40E0264B1B6841F28831F0
:1042A000184649F046FE244A2B49254868F042FE4C
:1042B0002348FCF71FF803469CB22148FCF71AF884
:1042C000034622461E491F4845F0DCFD194B1B687A
:1042D000184649F079FE20E0164B1B6841F2883100
:1042E000184649F026FEFB79134A1449144868F031
:1042F00021FE1348FBF7FEFF03469CB21048FBF774
:10430000F9FF034622460E490E4845F0BBFD094B16
:104310001B68184649F058FE00BF104B00221A7067
:104320000E4B00225A600E4B1B7818460C37BD46C8
:1043300090BD00BF88D50024F8AA0708140A070812
:10434000DCD50024D064002408E4070878090708B5
:10435000A8090708CC090708F0090708A8080124DC
:104360008213012490B583B000AF0346FB71FB7943
:10437000012B4CD9514B1B6841F28831184649F04A
:10438000D8FDFB794E4A4F494F4868F0D3FD4E485F
:10439000FBF7B0FF03469CB24B48FBF7ABFF03466D
:1043A00022464949494845F06DFD444B1B68184673
:1043B00049F00AFE414B1B6841F28831184649F02A
:1043C000B8FD3F4A4249404868F0B4FD3E48FBF71B
:1043D00091FF03469CB23C48FBF78CFF0346224604
:1043E00039493A4845F04EFD344B1B68184649F0B0
:1043F000EBFD384B00221A74364B002283F8C8209C
:10440000344B00221A72334B0022DA6051E0FB7900
:10441000002B1FD1294B1B6841F28831184649F007
:1044200088FD274A2C49284868F084FD2648FBF778
:1044300061FF03469CB22448FBF75CFF034622461B
:104440002149224845F01EFD1C4B1B68184649F0C7
:10445000BBFD1EE0194B1B6841F28831184649F03C
:1044600068FD174A1D49184868F064FD1648FBF7B7
:1044700041FF03469CB21448FBF73CFF034622462B
:104480001149124845F0FEFC0C4B1B68184649F0D8
:104490009BFD104B03221A740E4BDB7C1A460D4B0E
:1044A0001344FA791A750B4BDB7C0133DAB2094BF2
:1044B000DA7400BF0C37BD4690BD00BF88D500241C
:1044C0000CAB0708400A0708DCD50024D0640024A0
:1044D0009C0A0708A8080124C40A0708E40A070878
:1044E00090B583B000AF0346FB71FB79013B032B12
:1044F00000F28C8001A252F823F000BF0D450008A5
:10450000CD4500088D4500084D450008524B1B68FD
:1045100041F28831184649F00CFD504A5049514843
:1045200068F008FD4F48FBF7E5FE03469CB24D4896
:10453000FBF7E0FE034622464A494B4845F0A2FC01
:10454000454B1B68184649F03FFD80E0424B1B6815
:1045500041F28831184649F0ECFC404A4349414851
:1045600068F0E8FC3F48FBF7C5FE03469CB23D48B7
:10457000FBF7C0FE034622463A493B4845F082FC21
:10458000354B1B68184649F01FFD60E0324B1B6835
:1045900041F28831184649F0CCFC304A3449314860
:1045A00068F0C8FC2F48FBF7A5FE03469CB22D48D7
:1045B000FBF7A0FE034622462A492B4845F062FC41
:1045C000254B1B68184649F0FFFC40E0224B1B6856
:1045D00041F28831184649F0ACFC204A254921486F
:1045E00068F0A8FC1F48FBF785FE03469CB21D48F7
:1045F000FBF780FE034622461A491B4845F042FC61
:10460000154B1B68184649F0DFFC20E0124B1B6875
:1046100041F28831184649F08CFCFB790F4A164963
:10462000104868F087FC0F48FBF764FE03469CB215
:104630000C48FBF75FFE034622460A490A4845F04C
:1046400021FC054B1B68184649F0BEFC00BF00BFAB
:104650000C37BD4690BD00BF88D5002420AB0708AD
:10466000040B0708DCD50024D06400242C0B0708B9
:10467000640B0708840B0708AC0B070890B583B0E0
:1046800000AF0346FB71FB79A12B00F34D81002B9A
:1046900040F3CA84013BA02B00F2C68401A252F869
:1046A00023F000BFF1490008AD4C00083149000873
:1046B00071490008694F0008A94F0008E94F000838
:1046C000ED4D00086D4E00082950000829500008E3
:1046D000295000082950000829500008F14A000814
:1046E000ED4C00082D4D00086D4D0008AD4D000843
:1046F00029500008AD4E00082D4E0008314B00082F
:10470000294F0008295000082950000829500008A6
:104710002950000829500008295000082950000895
:104720002D4C00086D4C0008295000082950000845
:104730002950000829500008295000082950000875
:104740002950000829500008295000082950000865
:104750002950000829500008295000082950000855
:10476000714A0008314A0008295000082950000801
:104770002950000829500008295000082950000835
:104780002950000829500008295000082950000825
:104790002950000829500008295000082950000815
:1047A000B149000829500008295000082950000884
:1047B00029500008295000082950000829500008F5
:1047C00029500008295000082950000829500008E5
:1047D00029500008295000082950000829500008D5
:1047E000714B000829500008295000082950000882
:1047F00029500008295000082950000829500008B5
:1048000029500008295000082950000829500008A4
:104810002950000829500008295000082950000894
:104820002950000829500008295000082950000884
:104830002950000829500008295000082950000874
:104840002950000829500008295000082950000864
:104850002950000829500008295000082950000854
:104860002950000829500008295000082950000844
:104870002950000829500008295000082950000834
:104880002950000829500008295000082950000824
:104890002950000829500008295000082950000814
:1048A0002950000829500008295000082950000804
:1048B00029500008295000082950000829500008F4
:1048C00029500008295000082950000829500008E4
:1048D00029500008295000082950000829500008D4
:1048E00029500008295000082950000829500008C4
:1048F00029500008295000082950000829500008B4
:1049000029500008295000082950000829500008A3
:104910002950000829500008295000082950000893
:1049200029500008B14B0008FF2B00F0C1807BE349
:10493000AF4B1B6841F28831184649F0FAFAAD4A8C
:10494000AD49AE4868F0F6FAAC48FBF7D3FC034635
:104950009CB2AA48FBF7CEFC03462246A749A848CA
:1049600045F090FAA24B1B68184649F02DFB7CE3FA
:104970009F4B1B6841F28831184649F0DAFA9D4A8C
:10498000A0499E4868F0D6FA9C48FBF7B3FC034662
:104990009CB29A48FBF7AEFC0346224697499848DA
:1049A00045F070FA924B1B68184649F00DFB5CE32A
:1049B0008F4B1B6841F28831184649F0BAFA8D4A8C
:1049C00091498E4868F0B6FA8C48FBF793FC034691
:1049D0009CB28A48FBF78EFC0346224687498848EA
:1049E00045F050FA824B1B68184649F0EDFA3CE35B
:1049F0007F4B1B6841F28831184649F09AFA7D4A8C
:104A000082497E4868F096FA7C48FBF773FC0346BF
:104A10009CB27A48FBF76EFC0346224677497848F9
:104A200045F030FA724B1B68184649F0CDFA1CE38A
:104A30006F4B1B6841F28831184649F07AFA6D4A8B
:104A400073496E4868F076FA6C48FBF753FC0346EE
:104A50009CB26A48FBF74EFC034622466749684809
:104A600045F010FA624B1B68184649F0ADFAFCE2BB
:104A70005F4B1B6841F28831184649F05AFA5D4A8B
:104A800064495E4868F056FA5C48FBF733FC03461D
:104A90009CB25A48FBF72EFC034622465749584819
:104AA00045F0F0F9524B1B68184649F08DFADCE2EC
:104AB0004F4B1B6841F28831184649F03AFA4D4A8B
:104AC00055494E4868F036FA4C48FBF713FC03464C
:104AD0009CB24A48FBF70EFC034622464749484829
:104AE00045F0D0F9424B1B68184649F06DFABCE21C
:104AF0003F4B1B6841F28831184649F01AFA3D4A8B
:104B000046493E4868F016FA3C48FBF7F3FB03467B
:104B10009CB23A48FBF7EEFB034622463749384839
:104B200045F0B0F9324B1B68184649F04DFA9CE24B
:104B30002F4B1B6841F28831184649F0FAF92D4A8B
:104B400037492E4868F0F6F92C48FBF7D3FB0346AB
:104B50009CB22A48FBF7CEFB034622462749284849
:104B600045F090F9224B1B68184649F02DFA7CE27B
:104B70001F4B1B6841F28831184649F0DAF91D4A8B
:104B800028491E4868F0D6F91C48FBF7B3FB0346DA
:104B90009CB21A48FBF7AEFB034622461749184859
:104BA00045F070F9124B1B68184649F00DFA5CE2AB
:104BB0000F4B1B6841F28831184649F0BAF90D4A8B
:104BC00019490E4868F0B6F90C48FBF793FB034609
:104BD0009CB20A48FBF78EFB034622460749084869
:104BE00045F050F9024B1B68184649F0EDF93CE2DC
:104BF00088D5002444AB0708E80B0708DCD500245F
:104C0000D0640024040C0708180C0708300C0708AF
:104C10004C0C07085C0C0708740C0708900C07087C
:104C2000AC0C0708C40C0708E00C0708AF4B1B6866
:104C300041F28831184649F07CF9AD4AAD49AE4899
:104C400068F078F9AC48FBF755FB03469CB2AA48DC
:104C5000FBF750FB03462246A749A84845F012F946
:104C6000A24B1B68184649F0AFF9FEE19F4B1B6849
:104C700041F28831184649F05CF99D4AA0499E48A6
:104C800068F058F99C48FBF735FB03469CB29A48FC
:104C9000FBF730FB034622469749984845F0F2F867
:104CA000924B1B68184649F08FF9DEE18F4B1B6869
:104CB00041F28831184649F03CF98D4A91498E48B5
:104CC00068F038F98C48FBF715FB03469CB28A481C
:104CD000FBF710FB034622468749884845F0D2F887
:104CE000824B1B68184649F06FF9BEE17F4B1B6889
:104CF00041F28831184649F01CF97D4A82497E48C4
:104D000068F018F97C48FBF7F5FA03469CB27A483C
:104D1000FBF7F0FA034622467749784845F0B2F8A7
:104D2000724B1B68184649F04FF99EE16F4B1B68A8
:104D300041F28831184649F0FCF86D4A73496E48D3
:104D400068F0F8F86C48FBF7D5FA03469CB26A485D
:104D5000FBF7D0FA034622466749684845F092F8C7
:104D6000624B1B68184649F02FF97EE15F4B1B68C8
:104D700041F28831184649F0DCF85D4A64495E48E2
:104D800068F0D8F85C48FBF7B5FA03469CB25A487D
:104D9000FBF7B0FA034622465749584845F072F8E7
:104DA000524B1B68184649F00FF95EE14F4B1B68E8
:104DB00041F28831184649F0BCF84D4A55494E48F1
:104DC00068F0B8F84C48FBF795FA03469CB24A489D
:104DD000FBF790FA034622464749484845F052F807
:104DE000424B1B68184649F0EFF83EE13F4B1B6809
:104DF00041F28831184649F09CF83D4A46493E4800
:104E000068F098F83C48FBF775FA03469CB23A48BC
:104E1000FBF770FA034622463749384845F032F826
:104E2000324B1B68184649F0CFF81EE12F4B1B6828
:104E300041F28831184649F07CF82D4A37492E480E
:104E400068F078F82C48FBF755FA03469CB22A48DC
:104E5000FBF750FA034622462749284845F012F846
:104E6000224B1B68184649F0AFF8FEE01F4B1B6849
:104E700041F28831184649F05CF81D4A28491E481D
:104E800068F058F81C48FBF735FA03469CB21A48FC
:104E9000FBF730FA034622461749184844F0F2FF60
:104EA000124B1B68184649F08FF8DEE00F4B1B6869
:104EB00041F28831184649F03CF80D4A19490E482C
:104EC00068F038F80C48FBF715FA03469CB20A481C
:104ED000FBF710FA034622460749084844F0D2FF80
:104EE000024B1B68184649F06FF8BEE088D50024D5
:104EF00044AB0708F80C0708DCD50024D064002474
:104F0000100D07082C0D0708480D0708600D07084D
:104F10007C0D0708940D0708AC0D0708C00D0708A5
:104F2000D80D0708F40D0708524B1B6841F2883171
:104F3000184648F0FEFF504A5049514867F0FAFFC2
:104F40004F48FBF7D7F903469CB24D48FBF7D2F91F
:104F5000034622464A494B4844F094FF454B1B68A0
:104F6000184649F031F880E0424B1B6841F2883125
:104F7000184648F0DEFF404A4349414867F0DAFFEF
:104F80003F48FBF7B7F903469CB23D48FBF7B2F93F
:104F9000034622463A493B4844F074FF354B1B68B0
:104FA000184649F011F860E0324B1B6841F2883135
:104FB000184648F0BEFF304A3449314867F0BAFF1E
:104FC0002F48FBF797F903469CB22D48FBF792F95F
:104FD000034622462A492B4844F054FF254B1B68C0
:104FE000184648F0F1FF40E0224B1B6841F288313F
:104FF000184648F09EFF204A2549214867F09AFF4D
:105000001F48FBF777F903469CB21D48FBF772F97E
:10501000034622461A491B4844F034FF154B1B68CF
:10502000184648F0D1FF20E0124B1B6841F288314E
:10503000184648F07EFFFB790F4A1649104867F082
:1050400079FF0F48FBF756F903469CB20C48FBF773
:1050500051F9034622460A490A4844F013FF054B1A
:105060001B68184648F0B0FF00BF00BF0C37BD46B4
:1050700090BD00BF88D5002444AB0708080E070880
:10508000DCD50024D0640024240E0708400E070855
:10509000540E0708740E070890B583B000AF03469E
:1050A0000A46FB711346BB71FB79402B40F0B4817B
:1050B000BB79013B0A2B00F28F8101A252F823F049
:1050C000ED5000082D5100086D510008AD51000849
:1050D000ED5100082D5200086D520008AD52000835
:1050E000ED5200082D5300086D530008AF4B1B68AC
:1050F00041F28831184648F01CFFAD4AAD49AE4830
:1051000067F018FFAC48FBF7F5F803469CB2AA48D5
:10511000FBF7F0F803462246A749A84844F0B2FE40
:10512000A24B1B68184648F04FFF75E19F4B1B6868
:1051300041F28831184648F0FCFE9D4AA0499E483D
:1051400067F0F8FE9C48FBF7D5F803469CB29A48F6
:10515000FBF7D0F8034622469749984844F092FE60
:10516000924B1B68184648F02FFF55E18F4B1B6888
:1051700041F28831184648F0DCFE8D4A91498E484C
:1051800067F0D8FE8C48FBF7B5F803469CB28A4816
:10519000FBF7B0F8034622468749884844F072FE80
:1051A000824B1B68184648F00FFF35E17F4B1B68A8
:1051B00041F28831184648F0BCFE7D4A82497E485B
:1051C00067F0B8FE7C48FBF795F803469CB27A4836
:1051D000FBF790F8034622467749784844F052FEA0
:1051E000724B1B68184648F0EFFE15E16F4B1B68C9
:1051F00041F28831184648F09CFE6D4A73496E486A
:1052000067F098FE6C48FBF775F803469CB26A4855
:10521000FBF770F8034622466749684844F032FEBF
:10522000624B1B68184648F0CFFEF5E05F4B1B68E9
:1052300041F28831184648F07CFE5D4A63495E4879
:1052400067F078FE5C48FBF755F803469CB25A4875
:10525000FBF750F8034622465749584844F012FEDF
:10526000524B1B68184648F0AFFED5E04F4B1B6809
:1052700041F28831184648F05CFE4D4A53494E4889
:1052800067F058FE4C48FBF735F803469CB24A4895
:10529000FBF730F8034622464749484844F0F2FD00
:1052A000424B1B68184648F08FFEB5E03F4B1B6829
:1052B00041F28831184648F03CFE3D4A43493E4899
:1052C00067F038FE3C48FBF715F803469CB23A48B5
:1052D000FBF710F8034622463749384844F0D2FD20
:1052E000324B1B68184648F06FFE95E02F4B1B6849
:1052F00041F28831184648F01CFE2D4A33492E48A9
:1053000067F018FE2C48FAF7F5FF03469CB22A48CE
:10531000FAF7F0FF034622462749284844F0B2FD39
:10532000224B1B68184648F04FFE75E01F4B1B6868
:1053300041F28831184648F0FCFD1D4A24491E48B8
:1053400067F0F8FD1C48FAF7D5FF03469CB21A48EF
:10535000FAF7D0FF034622461749184844F092FD59
:10536000124B1B68184648F02FFE55E00F4B1B6888
:1053700041F28831184648F0DCFD0D4A15490E48C7
:1053800067F0D8FD0C48FAF7B5FF03469CB20A480F
:10539000FAF7B0FF034622460749084844F072FD79
:1053A000024B1B68184648F00FFE35E088D50024F4
:1053B00068AB0708B00E0708DCD50024D0640024D1
:1053C000C40E0708E00E0708100F0708440F07086F
:1053D000740F07089C0F0708B24B1B6841F2883115
:1053E000184648F0A6FDB04AB049B14867F0A2FDA2
:1053F000AF48FAF77FFF03469CB2AD48FAF77AFF51
:1054000003462246AA49AB4844F03CFDA54B1B6825
:10541000184648F0D9FD00BFFB79012B40F0D4803D
:10542000BB79013B052B00F2AF8001A252F823F0BB
:105430004954000889540008C95400080955000857
:105440008955000849550008964B1B6841F2883180
:10545000184648F06EFD944A9749954867F06AFDF2
:105460009348FAF747FF03469CB29148FAF742FF88
:10547000034622468E498F4844F004FD894B1B6841
:10548000184648F0A1FD9FE0864B1B6841F2883129
:10549000184648F04EFD844A8849854867F04AFD21
:1054A0008348FAF727FF03469CB28148FAF722FFA8
:1054B000034622467E497F4844F0E4FC794B1B6852
:1054C000184648F081FD7FE0764B1B6841F2883139
:1054D000184648F02EFD744A7949754867F02AFD50
:1054E0007348FAF707FF03469CB27148FAF702FFC8
:1054F000034622466E496F4844F0C4FC694B1B6862
:10550000184648F061FD5FE0664B1B6841F2883148
:10551000184648F00EFD644A6A49654867F00AFD7E
:105520006348FAF7E7FE03469CB26148FAF7E2FEE9
:10553000034622465E495F4844F0A4FC594B1B6871
:10554000184648F041FD3FE0564B1B6841F2883158
:10555000184648F0EEFC544A5B49554867F0EAFCAF
:105560005348FAF7C7FE03469CB25148FAF7C2FE09
:10557000034622464E494F4844F084FC494B1B6881
:10558000184648F021FD1FE0464B1B6841F2883168
:10559000184648F0CEFC444A4449454867F0CAFCE6
:1055A0004348FAF7A7FE03469CB24148FAF7A2FE29
:1055B000034622463E493F4844F064FC394B1B6891
:1055C000184648F001FD00BFFB79312B40F0A48064
:1055D000BB79032B46D0032B7EDC012B02D0022BA0
:1055E00020D079E02F4B1B6841F28831184648F0F3
:1055F000A0FC2D4A35492E4867F09CFC2C48FAF750
:1056000079FE03469CB22A48FAF774FE0346224606
:105610002749284844F036FC224B1B68184648F0BE
:10562000D3FC79E01F4B1B6841F28831184648F0E3
:1056300080FC1D4A26491E4867F07CFC1C48FAF78E
:1056400059FE03469CB21A48FAF754FE0346224616
:105650001749184844F016FC124B1B68184648F0CE
:10566000B3FC59E00F4B1B6841F28831184648F0F3
:1056700060FC0D4A17490E4867F05CFC0C48FAF7CD
:1056800039FE03469CB20A48FAF734FE0346224626
:105690000749084844F0F6FB024B1B68184648F0DF
:1056A00093FC39E088D5002468AB0708C40F0708CD
:1056B000DCD50024D0640024F80F07082010070868
:1056C000441007087410070894100708B81007085A
:1056D000D410070800110708B04B1B6841F288314D
:1056E000184648F026FCAE4AAE49AF4867F022FCA7
:1056F000AD48FAF7FFFD03469CB2AB48FAF7FAFD56
:1057000003462246A849A94844F0BCFBA34B1B68AA
:10571000184648F059FC00BFFB79A12B40F0BA8134
:10572000BB79013B0A2B00F2958101A252F823F0CC
:10573000DD570008DD5800085D5800085D59000875
:105740005D5700081D5800081D5900089D580008A5
:10575000D55900089D570008155A00088F4B1B6843
:1057600041F28831184648F0E4FB8D4A90498E4852
:1057700067F0E0FB8C48FAF7BDFD03469CB28A480F
:10578000FAF7B8FD034622468749884844F07AFB79
:10579000824B1B68184648F017FC7BE17F4B1B6867
:1057A00041F28831184648F0C4FB7D4A81497E4861
:1057B00067F0C0FB7C48FAF79DFD03469CB27A482F
:1057C000FAF798FD034622467749784844F05AFB99
:1057D000724B1B68184648F0F7FB5BE16F4B1B6888
:1057E00041F28831184648F0A4FB6D4A72496E4870
:1057F00067F0A0FB6C48FAF77DFD03469CB26A484F
:10580000FAF778FD034622466749684844F03AFBB8
:10581000624B1B68184648F0D7FB3BE15F4B1B68A7
:1058200041F28831184648F084FB5D4A63495E487E
:1058300067F080FB5C48FAF75DFD03469CB25A486E
:10584000FAF758FD034622465749584844F01AFBD8
:10585000524B1B68184648F0B7FB1BE14F4B1B68C7
:1058600041F28831184648F064FB4D4A54494E488D
:1058700067F060FB4C48FAF73DFD03469CB24A488E
:10588000FAF738FD034622464749484844F0FAFAF9
:10589000424B1B68184648F097FBFBE03F4B1B68E8
:1058A00041F28831184648F044FB3D4A45493E489C
:1058B00067F040FB3C48FAF71DFD03469CB23A48AE
:1058C000FAF718FD034622463749384844F0DAFA19
:1058D000324B1B68184648F077FBDBE02F4B1B6808
:1058E00041F28831184648F024FB2D4A36492E48AB
:1058F00067F020FB2C48FAF7FDFC03469CB22A48CF
:10590000FAF7F8FC034622462749284844F0BAFA39
:10591000224B1B68184648F057FBBBE01F4B1B6827
:1059200041F28831184648F004FB1D4A27491E48B9
:1059300067F000FB1C48FAF7DDFC03469CB21A48EE
:10594000FAF7D8FC034622461749184844F09AFA59
:10595000124B1B68184648F037FB9BE00F4B1B6847
:1059600041F28831184648F0E4FA0D4A18490E48C9
:1059700067F0E0FA0C48FAF7BDFC03469CB20A480F
:10598000FAF7B8FC034622460749084844F07AFA79
:10599000024B1B68184648F017FB7BE088D50024B3
:1059A00068AB0708C40F0708DCD50024D0640024C6
:1059B00024110708581107088C110708C01107089F
:1059C000F41107082C120708641207089012070840
:1059D000BC120708B14B1B6841F28831184648F0E9
:1059E000A8FAAF4AAF49B04867F0A4FAAE48FAF750
:1059F00081FC03469CB2AC48FAF77CFC0346224685
:105A0000A949AA4844F03EFAA44B1B68184648F03E
:105A1000DBFA3FE0A14B1B6841F28831184648F0A1
:105A200088FA9F4AA249A04867F084FA9E48FAF78C
:105A300061FC03469CB29C48FAF75CFC0346224694
:105A400099499A4844F01EFA944B1B68184648F04E
:105A5000BBFA1FE0914B1B6841F28831184648F0B1
:105A600068FA8F4A9349904867F064FA8E48FAF7CB
:105A700041FC03469CB28C48FAF73CFC03462246A4
:105A800089498A4844F0FEF9844B1B68184648F05F
:105A90009BFA00BFFB79212B65D1BB79012B02D08A
:105AA000022B20D03FE07D4B1B6841F28831184625
:105AB00048F03FFA7A4A80497B4867F03BFA7A48D7
:105AC000FAF718FC03469CB27748FAF713FC034632
:105AD00022467549754844F0D5F9704B1B68184645
