:020000040800F2
:10000000000008244DB0000801AD000809AD00084B
:1000100011AD000819AD000821AD00080000000076
:10002000000000000000000000000000D14D0408A6
:1000300029AD00080000000021500408413E0408DA
:10004000A1B00008A1B00008A1B00008A1B000084C
:10005000A1B00008A1B00008A1B00008A1B000083C
:1000600037AD0008A1B00008A1B00008A1B0000899
:10007000A1B00008A1B00008A1B00008A1B000081C
:10008000A1B00008A1B00008A1B00008A1B000080C
:10009000A1B00008A1B00008A1B00008A1B00008FC
:1000A000A1B00008A1B00008A1B00008A1B00008EC
:1000B000A1B00008A1B00008A1B00008A1B00008DC
:1000C000A1B00008A1B00008A1B00008A1B00008CC
:1000D000A1B0000845AD000859AD0008A1B0000866
:1000E000A1B00008A1B0000800000000A1B0000805
:1000F000A1B00008A1B00008A1B00008A1B000089C
:10010000A1B00008A1B00008A1B00008A1B000088B
:10011000A1B00008A1B000086DAD0008A1B00008B2
:10012000A1B00008A1B00008A1B00008A1B000086B
:10013000A1B00008A1B00008A1B00008A1B000085B
:10014000A1B00008A1B000080000000000000000FD
:10015000A1B00008A1B00008A1B00008A1B000083B
:10016000A1B00008A1B00008A1B00008A1B000082B
:10017000A1B00008A1B00008A1B000080000000074
:10018000A1B00008A1B00008A1B00008A1B000080B
:10019000A1B00008A1B00008A1B00008A1B00008FB
:1001A00081AD0008A1B0000895AD0008A1B000081D
:1001B000A9AD0008A1B00008A1B00008A1B00008D6
:1001C000A1B00008A1B00008A1B00008A1B00008CB
:1001D000A1B00008A1B00008A1B00008A1B00008BB
:1001E000A1B00008A1B00008A1B00008A1B00008AB
:1001F000A1B00008A1B00008A1B00008A1B000089B
:10020000A1B00008A1B00008A1B00008A1B000088A
:10021000A1B00008A1B00008A1B00008A1B000087A
:10022000A1B00008BDAD0008D1AD0008000000007D
:10023000A1B00008A1B00008A1B00008A1B000085A
:10024000A1B00008A1B00008A1B00008A1B000084A
:10025000A1B00008A1B00008A1B00008A1B000083A
:10026000A1B00008A1B00008A1B00008A1B000082A
:10027000A1B00008A1B00008A1B00008A1B000081A
:10028000A1B00008A1B00008A1B000080000000063
:08029000A1B00008A1B00008B4
:1002A00010B5054C237833B9044B13B10448AFF3B0
:1002B00000800123237010BDE05E002400000000D8
:1002C0009856060808B5034B1BB103490348AFF322
:1002D000008008BD00000000E45E00249856060877
:1002E00010F8012B11F8013B012A28BF9A42F7D0E0
:1002F000D01A7047034613F8012B002AFBD1181AB5
:1003000001387047000000000000000000000000FD
:1003100001F0FF01102A2BDB10F0070F08D010F8B6
:10032000013B013A8B422DD010F0070F42B3F6D1BA
:10033000F0B441EA012141EA014122F007047FF0D3
:1003400000070023F0E80256083C85EA010586EA2A
:10035000010685FA47F5A3FA87F586FA47F6A5FA66
:1003600087F68EB9EED1F0BC01F0FF0102F0070272
:1003700032B110F8013B013A83EA010313B1F8D11D
:100380000020704701387047002D06BF35460338FE
:10039000073815F0010F07D1013015F4807F02BF37
:1003A000013015F4C03F0130F0BC0138704700BF88
:1003B00081F0004102E000BF83F0004330B54FEA16
:1003C00041044FEA430594EA050F08BF90EA020F83
:1003D0001FBF54EA000C55EA020C7FEA645C7FEA16
:1003E000655C00F0E2804FEA5454D4EB5555B8BF39
:1003F0006D420CDD2C4480EA020281EA030382EAAA
:10040000000083EA010180EA020281EA0303362D3B
:1004100088BF30BD11F0004F4FEA01314FF4801C0E
:100420004CEA113102D0404261EB410113F0004F20
:100430004FEA03334CEA133302D0524263EB4303D7
:1004400094EA050F00F0A780A4F10104D5F1200E75
:100450000DDB02FA0EFC22FA05F2801841F10001D0
:1004600003FA0EF2801843FA05F359410EE0A5F1A4
:1004700020050EF1200E012A03FA0EFC28BF4CF0D5
:10048000020C43FA05F3C01851EBE37101F000458B
:1004900007D54FF0000EDCF1000C7EEB00006EEB98
:1004A0000101B1F5801F1BD3B1F5001F0CD3490822
:1004B0005FEA30004FEA3C0C04F101044FEA445279
:1004C00012F5800F80F09A80BCF1004F08BF5FEA00
:1004D000500C50F1000041EB045141EA050130BDE0
:1004E0005FEA4C0C404141EB0101013C28BFB1F5F2
:1004F000801FE9D291F0000F04BF01460020B1FA3D
:1005000081F308BF2033A3F10B03B3F120020CDA0F
:100510000C3208DD02F1140CC2F10C0201FA0CF0ED
:1005200021FA02F10CE002F11402D8BFC2F1200C52
:1005300001FA02F120FA0CFCDCBF41EA0C01904008
:10054000E41AA2BF01EB0451294330BD6FEA040451
:100550001F3C1CDA0C340EDC04F11404C4F120023C
:1005600020FA04F001FA02F340EA030021FA04F34E
:1005700045EA030130BDC4F10C04C4F1200220FAA5
:1005800002F001FA04F340EA0300294630BD21FAE3
:1005900004F0294630BD94F0000F83F4801306BFA9
:1005A00081F480110134013D4EE77FEA645C18BF9D
:1005B0007FEA655C29D094EA050F08BF90EA020F34
:1005C00005D054EA000C04BF1946104630BD91EA2C
:1005D000030F1EBF0021002030BD5FEA545C05D12F
:1005E0004000494128BF41F0004130BD14F580046E
:1005F0003CBF01F5801130BD01F0004545F0FE41E2
:1006000041F470014FF0000030BD7FEA645C1ABF16
:10061000194610467FEA655C1CBF0B46024650EA4D
:10062000013406BF52EA033591EA030F41F4002179
:1006300030BD00BF90F0000F04BF0021704730B5FF
:100640004FF4806404F132044FF000054FF00001D4
:1006500050E700BF90F0000F04BF0021704730B595
:100660004FF4806404F1320410F0004548BF40426A
:100670004FF000013EE700BF42004FEAE2014FEABF
:1006800031014FEA02701FBF12F07F4393F07F4F9A
:1006900081F06051704732F07F4208BF704793F09D
:1006A0007F4F04BF41F40021704730B54FF46074B0
:1006B00001F0004521F000411CE700BF50EA0102B3
:1006C00008BF704730B54FF000050AE050EA01025C
:1006D00008BF704730B511F0004502D5404261EBCC
:1006E00041014FF4806404F132045FEA915C3FF40D
:1006F000D8AE4FF003025FEADC0C18BF03325FEAAA
:10070000DC0C18BF033202EBDC02C2F1200300FA5A
:1007100003FC20FA02F001FA03FE40EA0E0021FA7F
:1007200002F11444BDE600BF7BB972B90029BEBF17
:1007300000204FF0004106E008BF00281CBF6FF00A
:1007400000414FF0FF3000F0D3B9ADF1080C6DE976
:1007500004CE002909DB002B1ADB00F04DF8DDF890
:1007600004E0DDE9022304B07047404261EB41013F
:10077000002B1BDB00F040F8DDF804E0DDE902238C
:1007800004B0404261EB4101524263EB43037047C6
:10079000524263EB430300F02FF8DDF804E0DDE99B
:1007A000022304B0404261EB41017047524263EBC7
:1007B000430300F021F8DDF804E0DDE9022304B092
:1007C000524263EB4303704753B94AB9002908BF4B
:1007D00000281CBF4FF0FF314FF0FF3000F088B908
:1007E000ADF1080C6DE904CE00F006F8DDF804E088
:1007F000DDE9022304B070472DE9F047089D8E46DD
:1008000004468846002B4AD18A42174662D9B2FA7A
:1008100082F64EB1C6F1200301FA06F820FA03F37E
:10082000B74043EA0808B4404FEA174E1FFA87FC66
:10083000B8FBFEF1230C0EFB118843EA084301FBD1
:100840000CF29A4209D9FB1801F1FF3080F0EA80DE
:100850009A4240F2E78002393B449A1AA3B2B2FBB3
:10086000FEF00EFB102243EA024300FB0CFC9C4509
:1008700009D9FB1800F1FF3280F0D6809C4540F288
:10088000D3803B44023840EA0140A3EB0C03002133
:100890001DB1F3400022C5E90032BDE8F0878B426C
:1008A00005D90DB1C5E9000100210846F5E7B3FA05
:1008B00083F1002946D1734502D3824200F20581BB
:1008C000841A6EEB030201209046002DE5D0C5E9A5
:1008D0000048E2E7002A00F09080B2FA82F6002E8B
:1008E00040F0A4808A1A030C4FEA174E80B2BCB2C3
:1008F0000121B2FBFEFC0EFB1C2243EA024304FB77
:100900000CF29A4207D9FB180CF1FF3802D29A4236
:1009100000F2E080C4469B1AB3FBFEF20EFB1233DA
:1009200040EA034302FB04F49C4207D9FB1802F19E
:10093000FF3002D29C4200F2CA8002461B1B42EAF0
:100940000C40A5E7C1F120068B4022FA06F71F43B1
:100950000EFA01F420FA06F32EFA06FE4FEA1749C2
:10096000234300FA01F81FFA87FCBEFBF9F01C0CC8
:1009700009FB10EE44EA0E4400FB0CFEA64502FA09
:1009800001F209D93C1900F1FF3A80F09C80A6459C
:1009900040F2998002383C44A4EB0E041FFA83FE17
:1009A000B4FBF9F309FB13444EEA044403FB0CFCCB
:1009B000A44508D93C1903F1FF3E80F08280A4458C
:1009C0007FD9023B3C4443EA0040A4EB0C04A0FB6B
:1009D00002EC64457346E14662D35FD05DB1B8EB8B
:1009E000030264EB090404FA06F622FA01F31E433B
:1009F000CC40C5E9006400214FE7B1FBF2FC010CDB
:100A000041EA0E4180B240EA01423B4638463C464C
:100A1000B846BE462026B1FBF7F1A2EB080241EA38
:100A20000C4166E7014618E710462CE7C6F12002A4
:100A30002EFA02F3B740B14020FA02F24FEA174E05
:100A40000A43B3FBFEF8BCB20EFB1833110C41EAAB
:100A5000034108FB04F9B04089454FEA104380B2D6
:100A60003ED9791808F1FF3C01D289451FD8A1EB86
:100A70000901B1FBFEF909FB04F80EFB191192B252
:100A800042EA0142424529D2BA1809F1FF31C4D2E3
:100A90004245C2D2A9F102013A44BEE7F0459DD2D7
:100AA000BEEB02036CEB070C0138E14696E7A7EBBF
:100AB00009094944A8F1020CB1FBFEF909FB04F84D
:100AC000DBE773467FE7504666E70846FDE63B44B2
:100AD000023A33E7ACF1020C3B441CE749469CE781
:100AE000A1EB0901C446B1FBFEF909FB04F8C4E718
:100AF000704700BF80B584B000AF09F015F9764BA0
:100B00005B6903F40033002B1BD1BFF34F8F00BF91
:100B1000BFF36F8F00BF704B0022C3F85022BFF3AA
:100B20004F8F00BFBFF36F8F00BF6B4B5B696A4A8B
:100B300043F400335361BFF34F8F00BFBFF36F8F98
:100B400000E000BF644B5B6903F48033002B38D1B5
:100B5000614B0022C3F88420BFF34F8F00BF5E4B70
:100B6000D3F88030FB60FB685B0BC3F30E03BB6004
:100B7000FB68DB08C3F309037B60BB685A0143F6DB
:100B8000E07313407A68920753491343C1F8603207
:100B90007B685A1E7A60002BEFD1BB685A1EBA6080
:100BA000002BE5D1BFF34F8F00BF4B4B5B694A4A27
:100BB00043F480335361BFF34F8F00BFBFF36F8F98
:100BC00000E000BF30F0C4FF00F0C6F800F0EAFB20
:100BD00000F072FB00F090FB00F0D8F900F042F951
:100BE00000F062F900F0BEF900F054FA00F07AF972
:100BF00000F0CAFA00F07CFA0AF0BEF900F0A0FAA0
:100C000000F00EFB0AF054FA0AF04BFA43F032F906
:100C1000324843F026FA0346314A1360314A022132
:100C2000402043F04BFC03462F4A13602F4A022119
:100C3000402043F043FC03462D4A13602D4A012116
:100C40004FF4806043F03AFC03462B4A13602B4A72
:100C500001214FF4807043F031FC0346284A1360B1
:100C6000284A0021284843F04FF90346274A1360D9
:100C7000274A0021274843F047F90346264A1360D4
:100C8000264A0021264843F03FF90346254A1360CF
:100C9000254A0021254843F037F90346244A1360CA
:100CA000244A0021244843F02FF90346234A1360C5
:100CB000234A0021234843F027F90346224A1360C0
:100CC000224A0021224843F01FF90346214A1360BB
:100CD00043F0F4F800BFFDE700ED00E0C8C80608E7
:100CE00054D1002468C8060804CA002480C8060835
:100CF000D8CA002498C80608ACCB0024B0C806089F
:100D000000D000246CC7060891900008F865002404
:100D100090C70608C1B00008A4760024B4C706082E
:100D2000A1980008A8760024D8C7060805990008ED
:100D300054870024FCC70608819900080098002405
:100D400020C80608E5990008ACA8002444C8060895
:100D5000499A000858B9002480B59CB000AF07F14B
:100D600024034C220021184662F0D9F93B1D2022B1
:100D70000021184662F0D3F9042038F0C5F90023A9
:100D80003B60364BDB6A354A23F00103D362334BB9
:100D9000DB6A03F001033B60314B9B69304A43F44B
:100DA000404393612E4B9B6903F440433B603B6897
:100DB00000BF2B4B9B6903F40053B3F5005FF8D1E0
:100DC0000B237B624FF48033BB6201233B634023E0
:100DD0007B630123BB630223BB640223FB64052303
:100DE0003B65A0237B650223BB650423FB650223CF
:100DF0003B6608237B660023BB660023FB6607F186
:100E00002403184639F064FC0346002B01D008F097
:100E1000D5FF3F237B600323BB600023FB600823D7
:100E20003B6140237B614023BB614FF48063FB61E6
:100E300040233B623B1D022118463AF0F9F9034674
:100E4000002B01D008F0BAFF4FF4802200210020CF
:100E50003AF05EFD00BF7037BD4680BD000400580B
:100E60000048025880B500AF0D4B0E4A1A600C4B7B
:100E700000221A710A4B00225A71094B00225A6152
:100E8000074B00229A61064B01221A62044831F096
:100E9000E5F90346002B01D008F090FF00BF80BDAC
:100EA000FC5E0024004C025880B500AF0B4B0C4A8E
:100EB0001A600A4B4FF440325A60084B02229A6083
:100EC000064B0022DA60054832F084F80346002B16
:100ED00001D008F073FF00BF80BD00BF205F002479
:100EE0000010005280B500AF1B4B1C4A1A601A4B11
:100EF0001B4A5A60184B00229A60174B0122DA6095
:100F0000154B00221A61144B00225A61124B002229
:100F10009A61114B0022DA610F4B00221A620E48CF
:100F200032F0CAFE0346002B01D008F047FF002133
:100F3000094833F045FD0346002B01D008F03EFF81
:100F40000021054833F0B2FD0346002B01D008F024
:100F500035FF00BF80BD00BF885F0024001C005823
:100F6000B634900080B500AF064B074A1A600548BA
:100F700033F010FE0346002B01D008F01FFF00BF26
:100F800080BD00BFDC5F00240030005280B58EB011
:100F900000AF08F04FFF3B1D34220021184662F0DD
:100FA000BEF83A4B3A4A1A60384B00225A60374B27
:100FB00000229A60354B0022DA60344B00221A611D
:100FC000324B28225A61314B09229A612F4B35222C
:100FD000DA612E4B0B221A622C4B40F215225A6218
:100FE0002A4B40F21B129A62284B40F23522DA62F9
:100FF000264B40F21D121A63244B002283F8342042
:10100000224B002283F83520204B002283F8362023
:101010001E4835F017FE0346002B01D008F0CEFE27
:1010200000237B604FF4F073BB600023FB604FF440
:1010300088733B6102237B61FF23BB610023FB615B
:101040004FF480633B6205237B624FF05043BB62E9
:101050004FF4F073FB624FF488733B63002387F80F
:101060003430002387F83530002387F836303B1DB5
:1010700000221946054835F0C3FF0346002B01D076
:1010800008F09CFE00BF3837BD4680BD0C610024CF
:101090000010005080B500AF124B134A1A60114B7C
:1010A00001225A600F4B01229A600E4B1022DA6027
:1010B0000C4B1A221A610B4B4FF400725A61094B08
:1010C00000229A61074B40221A62064838F098F8CD
:1010D0000346002B01D008F071FE044808F01EFF03
:1010E00000BF80BDB461002400500052BD9D0008C7
:1010F00080B500AF104B114A1A600F4B00225A60A6
:101100000D4B7F229A600C4BFF22DA600A4B0022C3
:101110001A61094B00229A61074B0022DA61064BE3
:1011200000225A6104483DF0FFFF0346002B01D026
:1011300008F044FE00BF80BD00620024004000585B
:1011400080B500AF0E4B0F4A1A600D4B00225A605B
:101150000B4B00229A600A4B4FF40042DA60084BB6
:1011600000221A61064B00225A61054837F034F814
:101170000346002B01D008F021FE00BF80BD00BF58
:10118000246200240070005280B500AF224B234A35
:101190001A60214B4FF4E1325A601F4B00229A60D3
:1011A0001D4B0022DA601C4B00221A611A4B0C22E4
:1011B0005A61194B00229A61174B0022DA61164BD3
:1011C00000221A62144B00225A62134B00229A62C8
:1011D00011483EF0A7FE0346002B01D008F0EEFDBB
:1011E00000210D4841F08AFC0346002B01D008F095
:1011F000E5FD0021084841F01BFD0346002B01D00E
:1012000008F0DCFD044841F0FFFB0346002B01D051
:1012100008F0D4FD00BF80BD9C6400240010014094
:1012200080B500AF224B234A1A60214B4FF4E132C4
:101230005A601F4B00229A601D4B0022DA601C4B43
:1012400000221A611A4B0C225A61194B00229A6132
:10125000174B0022DA61164B00221A62144B00224F
:101260005A62134B00229A6211483EF05BFE03461D
:10127000002B01D008F0A2FD00210D4841F03EFCFA
:101280000346002B01D008F099FD0021084841F0E9
:10129000CFFC0346002B01D008F090FD044841F03C
:1012A000B3FB0346002B01D008F088FD00BF80BDD2
:1012B000306500240044004080B582B000AF0D4B83
:1012C000D3F8D4300B4A43F00103C2F8D430094BB1
:1012D000D3F8D43003F001037B607B680022052142
:1012E0007A2030F0B3FD7A2030F0DAFD00BF083705
:1012F000BD4680BD0044025880B588B000AF3B1D9C
:1013000000221A605A609A60DA601A615A619A6122
:10131000214B224A1A60204B01225A601E4B0022A8
:101320009A601D4B0422DA601B4B10221A611A4B83
:1013300040225A61184B4FF480729A61164B00227A
:10134000DA61154B4FF400621A62134B4FF480526E
:101350005A62114B00229A6202237B600623BB6013
:101360000423FB6006233B6102237B610223BB61F4
:101370000223FB613B1D194607483EF037F903463F
:10138000002B01D008F01AFD054808F0E8FD00BF69
:101390002037BD4680BD00BFC465002440410052D7
:1013A000BD9D000880B590B000AF07F12C0300226E
:1013B0001A605A609A60DA601A61A04BD3F8E03084
:1013C0009E4A43F48063C2F8E0309C4BD3F8E0308F
:1013D00003F48063BB62BB6A984BD3F8E030974A52
:1013E00043F04003C2F8E030944BD3F8E03003F010
:1013F00040037B627B6A914BD3F8E0308F4A43F025
:101400000803C2F8E0308D4BD3F8E03003F0080356
:101410003B623B6A894BD3F8E030884A43F00403CF
:10142000C2F8E030854BD3F8E03003F00403FB61F1
:10143000FB69824BD3F8E030804A43F48073C2F8F2
:10144000E0307E4BD3F8E03003F48073BB61BB69BE
:101450007A4BD3F8E030794A43F01003C2F8E03019
:10146000764BD3F8E03003F010037B617B69734B5C
:10147000D3F8E030714A43F00203C2F8E0306F4B1A
:10148000D3F8E03003F002033B613B696B4BD3F8C8
:10149000E0306A4A43F40073C2F8E030674BD3F897
:1014A000E03003F40073FB60FB68644BD3F8E0307A
:1014B000624A43F00103C2F8E030604BD3F8E030F9
:1014C00003F00103BB60BB685C4BD3F8E0305B4AC0
:1014D00043F02003C2F8E030584BD3F8E03003F07B
:1014E00020037B607B68554BD3F8E030534A43F0D0
:1014F0008003C2F8E030514BD3F8E03003F08003B2
:101500003B603B68002208214D4832F06DFB012210
:101510004FF400514B4832F067FB002208214A4843
:1015200032F062FB00224021484832F05DFB01228C
:101530000421474832F058FB0823FB6201233B6338
:1015400000237B630023BB6307F12C0319463C484F
:1015500031F034FF4FF48073FB6202233B630023BE
:101560007B630023BB630023FB6307F12C03194655
:10157000364831F023FF4FF40053FB6201233B63F5
:1015800000237B630023BB6307F12C0319462D481E
:1015900031F014FF0823FB6201233B6300237B63CC
:1015A0000323BB6307F12C031946274831F006FFDC
:1015B0000423FB624FF404133B6300237B6307F1B6
:1015C0002C031946204831F0F9FE4FF44063FB62CA
:1015D00002233B6301237B630323BB630723FB637A
:1015E00007F12C0319461B4831F0E8FE4023FB624B
:1015F00001233B6300237B630323BB6307F12C03BD
:101600001946124831F0DAFE0423FB6201233B63E2
:1016100000237B630023BB6307F12C0319460C48AE
:1016200031F0CCFE00220521082030F00FFC08200C
:1016300030F036FC00BF4037BD4680BD0044025844
:10164000000C0258002002580018025800000258EE
:10165000002402580004025890B583B000AF04463D
:10166000084611461A462346FB710346BB710B46DA
:101670007B7113463B71FB796433114A5361BB792B
:10168000013B0F4A13617B790D4AD3603B790C4AC9
:1016900093603B7E0A4A53603B7F094A13600848C7
:1016A00061F05CFE02460B460649C1E90023054B8A
:1016B000D3E90023134618460C37BD4690BD00BF42
:1016C000F0090124180A012490B583B000AF7860B6
:1016D000544B1B68184643F023F803469AB2524B0A
:1016E0001A80514B1B88002B00F095804F4B1B68D4
:1016F00041F28831184642F03AFD4B4B1B884C4A68
:101700004C494D4861F0A4FC4B48FEF7F3FD0346FD
:101710009CB24948FEF7EEFD03462246464947483B
:101720003EF0CEFC414B1B68184642F06BFD444B2B
:1017300000221A803CE03B4B1868002300224149FC
:1017400042F090FF0346404A13603F4B1B68002B5A
:1017500020D0364B1B6841F28831184642F007FD15
:10176000394B1B68324A3949334861F071FC3248C1
:10177000FEF7C0FD03469CB22F48FEF7BBFD0346B3
:1017800022462D492D483EF09BFC284B1B681846ED
:1017900042F038FD2A4B1B881A467B681344294ABD
:1017A00012781A70264B1B8801339AB2244B1A8088
:1017B0001C4B1B68184642F0B3FF0346002B05D0B4
:1017C0001F4B1B8840F6FD729342B4D91C4B1A88FC
:1017D000154B1A80154B1B6841F28831184642F0B0
:1017E000C6FC114B1B88124A1949134861F030FCA2
:1017F0001148FEF77FFD03469CB20F48FEF77AFDC5
:10180000034622460C490D483EF05AFC074B1B6824
:10181000184642F0F7FC044B1B8818460C37BD46AF
:1018200090BD00BF00D00024200A012454D1002420
:10183000D8C8060840570608A8D100249C64002494
:10184000220A0124240A0124280A012468570608D0
:10185000A057060890B583B000AF78607B681B681E
:101860002F4A934216D12F4B1A782F4B1A702F4BB9
:101870001868002300222C4942F094FE03462C4AAB
:101880001360012227492B483EF0A8FC03461A4664
:10189000294B1A707B681B68284A93423BD1284B1E
:1018A0001A78284B1A70284B186800230022254903
:1018B00042F078FE03461E4A13601D4B1B68002B46
:1018C00020D0224B1B6841F28831184642F04FFC71
:1018D000174B1B681E4A1F491F4861F0B9FB1E4881
:1018E000FEF708FD03469CB21B48FEF703FD0346C6
:1018F000224619490F483EF0E3FB144B1B6818467B
:1019000042F080FC01220E4914483EF067FC034679
:101910001A46094B1A7000BF0C37BD4690BD00BF78
:1019200000100140D5E900242C0A012400D0002435
:10193000300A01249C640024340A0124004400403D
:10194000D4E90024350A0124ACCB002454D100246E
:10195000F4C80608C8570608A8D10024306500243A
:1019600090B585B000AFF8607B600B467B81134675
:101970007B727D4B00221A805AE17B7A002B2AD0A1
:10198000794B1B8803F00F039BB2002B23D1774BBD
:101990001B6841F28831184642F0E9FB724B1B8804
:1019A0001A467B6813441A467149724861F050FB2D
:1019B0007048FEF79FFC03469CB26E48FEF79AFC07
:1019C000034622466B496C483EF07AFB674B1B6826
:1019D000184642F017FC654B1B6841F288311846E7
:1019E00042F0C5FB604B1B881A46FB6813441B780A
:1019F0001A4662495F4861F02BFB5E48FEF77AFCAD
:101A000003469CB25B48FEF775FC034622465949E3
:101A100059483EF055FB554B1B68184642F0F2FB07
:101A2000524B1B6841F28831184642F0A0FB5449E2
:101A3000504861F00DFB4F48FEF75CFC03469CB23A
:101A40004C48FEF757FC034622464A494A483EF0B6
:101A500037FB464B1B68184642F0D4FB424B1B88B1
:101A600003F00F039BB2072B1DD1404B1B6841F2C3
:101A70008831184642F07BFB42493E4861F0E8FA63
:101A80003C48FEF737FC03469CB23A48FEF732FC6E
:101A900003462246374938483EF012FB334B1B6859
:101AA000184642F0AFFB304B1B8803F00F039BB28C
:101AB0000F2B40F0B7802D4B1B6841F28831184640
:101AC00042F055FB2F492B4861F0C2FA2948FEF736
:101AD00011FC03469CB22748FEF70CFC0346224645
:101AE000244925483EF0ECFA204B1B68184642F08A
:101AF00089FB1D4B1B880F3B9AB2234B1A806DE06C
:101B0000214B1B881A46FB6813441B7801331F4A7C
:101B100013441B7803F09703002B3BD0134B1B6837
:101B200041F28831184642F022FB174B1B881A46B7
:101B3000FB6813441B781A4615490E4861F088FA71
:101B40000C48FEF7D7FB03469CB20A48FEF7D2FBCF
:101B500003462246074908483EF0B2FA034B1B6889
:101B6000184642F04FFB33E0360A012454D10024DA
:101B700000580608A8D100249C64002414580608C4
:101B80001C58060820580608380A0124A0FD06083B
:101B900028580608A84B1B6841F28831184642F0C5
:101BA000E6FAA649A64861F053FAA548FEF7A2FB5B
:101BB00003469CB2A248FEF79DFB03462246A0497D
:101BC000A0483EF07DFA9C4B1B68184642F01AFB79
:101BD0009D4B1B8801339AB29B4B1A809B4B1A88F2
:101BE000994B1B889A428BD2934B1B6841F28831E8
:101BF000184642F0BCFA9649914861F029FA90489B
:101C0000FEF778FB03469CB28D48FEF773FB034654
:101C100022468B498B483EF053FA874B1B68184687
:101C200042F0F0FA894B1B8801339AB2874B1A8035
:101C3000864B1B887A899A423FF69FAE7B8903F0D8
:101C40000F039BB2002B00F0D5807B8903F00F03BC
:101C50009AB27D4B1A8023E0774B1B6841F28831A2
:101C6000184642F084FA7B49754861F0F1F97448EE
:101C7000FEF740FB03469CB27148FEF73BFB034670
:101C800022466F496F483EF01BFA6B4B1B681846A3
:101C900042F0B8FA6C4B1B8801339AB26A4B1A8037
:101CA000694B1B880F2BD7D97B8903F008039BB2A4
:101CB000002B1DD1604B1B6841F28831184642F061
:101CC00056FA65495E4861F0C3F95D48FEF712FBBC
:101CD00003469CB25A48FEF70DFB0346224658497C
:101CE00058483EF0EDF9544B1B68184642F08AFA0A
:101CF000514B1B6841F28831184642F038FA564978
:101D00004F4861F0A5F94E48FEF7F4FA03469CB23D
:101D10004B48FEF7EFFA03462246494949483EF050
:101D2000CFF9454B1B68184642F06CFA7B8923F0CB
:101D30000F039AB2444B1A8057E0434B1B881A4654
:101D4000FB6813441B780133444A13441B7803F0A7
:101D50009703002B25D0384B1B6841F28831184679
:101D600042F005FA384B1B881A46FB6813441B786F
:101D70001A463B49324861F06BF93148FEF7BAFA2E
:101D800003469CB22E48FEF7B5FA034622462C497C
:101D90002C483EF095F9284B1B68184642F032FA61
:101DA0001DE0254B1B6841F28831184642F0DFF9EF
:101DB0002249234861F04CF92148FEF79BFA03467B
:101DC0009CB21F48FEF796FA034622461C491D485E
:101DD0003EF076F9184B1B68184642F013FA1A4B7E
:101DE0001B8801339AB2184B1A80174B1B887A89CB
:101DF0009A42A2D8104B1B6841F28831184642F033
:101E0000B6F913490E4861F023F90D48FEF772FA4E
:101E100003469CB20A48FEF76DFA0346224608497B
:101E200008483EF04DF9044B1B68184642F0EAF9A9
:101E300000BF1437BD4690BD54D100242C5806086D
:101E4000A8D100249C640024380A0124360A012405
:101E5000305806083458060820580608A0FD060821
:101E60002858060890B583B002AF654B1B684FF445
:101E70007A71184642F07BF96249634861F0E8F8EC
:101E80006148FEF737FA03469CB25F48FEF732FA24
:101E9000034622465C495D483EF012F959495A48CA
:101EA00061F0D6F85848FEF725FA03469CB256482A
:101EB000FEF720FA03462246534954483EF000F903
:101EC0005049514861F0C4F84F48FEF713FA0346F1
:101ED0009CB24D48FEF70EFA034622464A494B484B
:101EE0003EF0EEF84A49484861F0B2F84648FEF73D
:101EF00001FA03469CB24448FEF7FCF90346224629
:101F0000414942483EF0DCF842493F4861F0A0F8C0
:101F10003D48FEF7EFF903469CB23B48FEF7EAF96D
:101F200003462246384939483EF0CAF83A4936480D
:101F300061F08EF83448FEF7DDF903469CB2324872
:101F4000FEF7D8F9034622462F4930483EF0B8F84C
:101F500041230193314B0093314B314A31492A4897
:101F600061F076F82848FEF7C5F903469CB226488A
:101F7000FEF7C0F903462246234924483EF0A0F864
:101F8000294A2A49204861F063F81F48FEF7B2F950
:101F900003469CB21C48FEF7ADF9034622461A4997
:101FA0001A483EF08DF82249174861F051F816485A
:101FB000FEF7A0F903469CB21348FEF79BF90346CF
:101FC0002246114911483EF07BF812490E4861F053
:101FD0003FF80D48FEF78EF903469CB20A48FEF71B
:101FE00089F903462246084908483EF069F8044B3F
:101FF0001B68184642F006F900BF0437BD4690BD85
:1020000054D1002438580608A8D100249C64002428
:10201000645806086C580608B45806083059060873
:10202000FC580608005906083459060840590608A5
:102030006859060890B587B002AF03463960FB7156
:102040001346BB71594B9B781F2B00F28880574B6E
:102050009B781D2B24D9564B1B6841F288311846BA
:1020600042F085F8514B9B781A4620230093134683
:10207000504A5149514860F0EBFF5048FEF73AF999
:1020800003469CB24D48FEF735F9034622464B49BC
:102090004B483EF015F8464B1B68184642F0B2F824
:1020A000434B1B6841F28831184642F060F8FB79D7
:1020B000404A4449414860F0CBFF4048FEF71AF9D6
:1020C00003469CB23D48FEF715F9034622463B49BC
:1020D0003B483DF0F5FF364B1B68184642F092F83E
:1020E000324B9B780133DAB2304B9A702F4B5B78CE
:1020F00019462E4AAA2301FB03F313440333FA794A
:102100001A70BB79A82B01D9A823BB71274B5B7828
:102110001946264AAA2301FB03F313440433BA7970
:102120001A70224B5B781A46AA2302FB03F31F4A5C
:1021300013440533BA793968184661F0AEFE1B4B7B
:102140005B780133DAB2194B5A70184B5B781F2B4E
:1021500002D9164B00225A700123FB7321E0144B65
:102160001B6841F28831184642F001F8FB79114AA8
:102170001549124860F06CFF1048FEF7BBF80346A3
:102180009CB20E48FEF7B6F8034622460B490C48AF
:102190003DF096FF064B1B68184642F033F80023CB
:1021A000FB73FB7B18461437BD4690BDD8E900246D
:1021B00054D100240CC90608185A0608A8D10024D6
:1021C0009C6400246C5A0608985A060890B587B09B
:1021D00002AF03463960FB711346BB71594B9B78C4
:1021E000072B00F28880574B9B78052B24D9564B40
:1021F0001B6841F28831184641F0B9FF514B9B787A
:102200001A46082300931346504A5149514860F03A
:102210001FFF5048FEF76EF803469CB24D48FEF78C
:1022200069F8034622464B494B483DF049FF464B6F
:102230001B68184641F0E6FF434B1B6841F28831AA
:10224000184641F094FFFB79404A4449414860F008
:10225000FFFE4048FEF74EF803469CB23D48FEF7AD
:1022600049F8034622463B493B483DF029FF364B9F
:102270001B68184641F0C6FF324B9B780133DAB237
:10228000304B9A702F4B5B7819462E4AAA2301FBDC
:1022900003F313440333FA791A70BB79A82B01D9DD
:1022A000A823BB71274B5B781946264AAA2301FB5A
:1022B00003F313440433BA791A70224B5B781A463D
:1022C000AA2302FB03F31F4A13440533BA79396882
:1022D000184661F0E2FD1B4B5B780133DAB2194B13
:1022E0005A70184B5B78072B02D9164B00225A7094
:1022F0000123FB7321E0144B1B6841F2883118461F
:1023000041F035FFFB79114A1549124860F0A0FEF3
:102310001048FDF7EFFF03469CB20E48FDF7EAFFB9
:10232000034622460B490C483DF0CAFE064B1B688B
:10233000184641F067FF0023FB73FB7B18461437F8
:10234000BD4690BD1CFF002454D1002424C90608BA
:10235000E05A0608A8D100249C640024345B0608D7
:10236000605B060890B585B000AF03460A46FB7176
:102370001346BB71974B1B6841F28831184641F0F8
:10238000F6FEFB79944A9549954860F061FE9448C1
:10239000FDF7B0FF03469CB29148FDF7ABFF034643
:1023A00022468F498F483DF08BFE8A4B1B681846AA
:1023B00041F028FF8C4B00221A728B4B0022DA600E
:1023C000894B002283F8C820884B00221A70884B62
:1023D00018221A70BB79002B1BD0864B0133854A1B
:1023E00052781946FF2006F031FE0346FB73FA7956
:1023F000FB7B9A4201D1012200E003227B4B1A7041
:10240000FA79FB7B9A4201D1062200E01522784B33
:102410001A70704B1B6841F28831184641F0A7FED4
:1024200075496F4860F014FE6D48FDF763FF034681
:102430009CB26B48FDF75EFF034622466849694837
:102440003DF03EFE634B1B68184641F0DBFE664BD9
:10245000DB7C1946002300226648FFF781FA5D4BBA
:102460001B6841F28831184641F081FE63495C489F
:1024700060F0EEFD5A48FDF73DFF03469CB2584818
:10248000FDF738FF03462246554956483DF018FEF1
:10249000504B1B68184641F0B5FE534B00221A748E
:1024A00001230122524956483DF00AFE504B1B7849
:1024B000182B46D0182B64DC062B02D0152B20D00D
:1024C0005FE0444B1B6841F28831184641F04FFEF3
:1024D000414A4C49424860F0BBFD4148FDF70AFFC4
:1024E00003469CB23E48FDF705FF034622463C49A1
:1024F0003C483DF0E5FD374B1B68184641F082FE35
:1025000061E0344B1B6841F28831184641F02FFEE0
:10251000314A3D49324860F09BFD3148FDF7EAFE03
:1025200003469CB22E48FDF7E5FE034622462C49A1
:102530002C483DF0C5FD274B1B68184641F062FE54
:1025400041E0244B1B6841F28831184641F00FFEF0
:10255000214A2E49224860F07BFD2148FDF7CAFE42
:1025600003469CB21E48FDF7C5FE034622461C49A1
:102570001C483DF0A5FD174B1B68184641F042FE74
:1025800021E0144B1B6841F28831184641F0EFFD01
:10259000174B1B78104A1E49114860F059FD10482E
:1025A000FDF7A8FE03469CB20D48FDF7A3FE0346C7
:1025B00022460B490B483DF083FD064B1B6818462D
:1025C00041F020FE00BF094B1B7818461437BD466A
:1025D00090BD00BF54D1002448C90608A45B06087A
:1025E000A8D100249C640024700401243A0A012428
:1025F0003B0A012484040124C45B0608245C060809
:1026000030650024845C0608C05C0608105D06087E
:10261000885D060890B583B000AF0346FB71234B7D
:102620001B6841F28831184641F0A1FDFB79204A30
:102630002049214860F00CFD1F48FDF75BFE034672
:102640009CB21D48FDF756FE034622461A491B4818
:102650003DF036FD154B1B68184641F0D3FD184B75
:10266000DB7C1A46164B1344FA791A75144BDB7C43
:102670000133DAB2124BDA74124B5B78032B0AD9AE
:10268000104B5B78033BDAB20D4B83F8C9200C4B3F
:1026900004221A7406E00A4B012283F8C920084B71
:1026A00005221A7400BF0C37BD4690BD54D10024DA
:1026B00060C90608D05D0608A8D100249C640024E7
:1026C000700401248404012480B483B000AF034665
:1026D000FB71144B93F8C930013BDAB2114B83F80C
:1026E000C920104BDB7C1A460E4B1344FA791A753D
:1026F0000C4BDB7C0133DAB20A4BDA74094BDB7C1E
:10270000B32B05D8074BDA7C074B5B789A4202D98A
:10271000044B05221A7400BF0C37BD465DF8047BDC
:10272000704700BF700401248404012498B500AFF1
:10273000194B1B6841F28831184641F018FD174AC1
:102740001749184860F084FC1648FDF7D3FD03468E
:102750009CB21448FDF7CEFD0346224611491248AB
:102760003DF0AEFC0C4B1B68184641F04BFD0F4B87
:1027700000221A740D4B002283F8C8200B4B002254
:102780001A700A4B00221A72084B00225A60074B3B
:102790000022DA6000BF98BD54D1002474C9060835
:1027A000EC5D0608A8D100249C6400247004012478
:1027B00090B583B000AF0346FB71FB79022B02D9C1
:1027C000FB79B42B2DD9214B1B6841F28831184677
:1027D00041F0CDFCFB791E4A1E491F4860F038FCD1
:1027E0001D48FDF787FD03469CB21B48FDF782FD9F
:1027F00003462246184919483DF062FC134B1B68FA
:10280000184641F0FFFC164B00221A74144B0022AC
:1028100083F8C820124B00221A72114B0022DA6092
:1028200010E00F4B02221A740D4BDB7C1A460C4B46
:102830001344FA791A750A4BDB7C0133DAB2084B80
:10284000DA7400BF00BF0C37BD4690BD54D10024E0
:102850008CC90608085E0608A8D100249C640024E0
:102860007004012490B585B002AF0346FB719F4B05
:1028700000221A70FB79012B39D19D4B1B6841F264
:102880008831184641F073FC9A4A9B499B4860F096
:10289000DFFB9A48FDF72EFD03469CB29748FDF7F3
:1028A00029FD03462246954995483DF009FC904B89
:1028B0001B68184641F0A6FC924B01221A74914BFA
:1028C0000022DA748F4B012283F8C8208D4BDB7C09
:1028D0001A468C4B1344FA791A758A4BDB7C013308
:1028E000DAB2884BDA74874B00221A72F9E1854B11
:1028F0009B7C002B00F03781FB79062B02D0FB7903
:10290000152B0ED17F4B00229A747E4B00221A7039
:102910007C4B00221A727B4B00225A60794B0022BA
:10292000DA60FB79062B22D1714B1B6841F28831AA
:10293000184641F01CFC6F4A7349704860F088FBF0
:102940006E48FDF7D7FC03469CB26C48FDF7D2FCFD
:102950000346224669496A483DF0B2FB644B1B6856
:10296000184641F04FFC614B02221A70B9E1FB7925
:10297000152B22D15E4B1B6841F28831184641F07D
:10298000F6FB5C4A61495D4860F062FB5B48FDF71D
:10299000B1FC03469CB25948FDF7ACFC0346224605
:1029A000564957483DF08CFB514B1B68184641F087
:1029B00029FC4E4B05221A7093E1FB790133544AEE
:1029C00013441B7803F09703002B23D0484B1B685C
:1029D00041F28831184641F0CAFBFA79FB7900933D
:1029E0001346444A4B49454860F032FB4348FDF7E3
:1029F00081FC03469CB24148FDF77CFC034622461D
:102A00003E493F483DF05CFB394B1B68184641F09E
:102A1000F9FB66E1FB79182B47D0182B00F3828075
:102A2000062B02D0152B20D07CE0314B1B6841F2E5
:102A30008831184641F09BFB2E4A37492F4860F0F9
:102A400007FB2E48FDF756FC03469CB22B48FDF7CA
:102A500051FC03462246294929483DF031FB244BCD
:102A60001B68184641F0CEFB3BE1214B1B6841F24D
:102A70008831184641F07BFB1E4A28491F4860F008
:102A8000E7FA1E48FDF736FC03469CB21B48FDF7EB
:102A900031FC03462246194919483DF011FB144BFD
:102AA0001B68184641F0AEFB1BE1114B1B6841F25D
:102AB0008831184641F05BFB0E4A19490F4860F017
:102AC000C7FA0E48FDF716FC03469CB20B48FDF70B
:102AD00011FC03462246094909483DF0F1FA044B2E
:102AE0001B68184641F08EFBFBE000BF3C0A012446
:102AF00054D10024A0C906083C5E0608A8D10024D1
:102B00009C64002470040124545E06086C5E060870
:102B1000A0FD0608845E0608B45E0608D85E0608B6
:102B2000FC5E0608724B1B6841F28831184641F082
:102B30001EFBFB796F4A7049704860F089FA6F4854
:102B4000FDF7D8FB03469CB26C48FDF7D3FB034668
:102B500022466A496A483DF0B3FA654B1B6818463D
:102B600041F050FBBDE0FB790133664A13441B780A
:102B700003F09703002B23D05D4B1B6841F2883193
:102B8000184641F0F4FAFA79FB7900931346594A52
:102B90005D495A4860F05CFA5848FDF7ABFB0346C4
:102BA0009CB25648FDF7A6FB0346224653495448BB
:102BB0003DF086FA4E4B1B68184641F023FB8AE035
:102BC000FB79182B46D0182B64DC062B02D0152B72
:102BD00020D05FE0464B1B6841F28831184641F037
:102BE000C6FA444A4949454860F032FA4348FDF77D
:102BF00081FB03469CB24148FDF77CFB034622461D
:102C00003E493F483DF05CFA394B1B68184641F09D
:102C1000F9FA60E0364B1B6841F28831184641F002
:102C2000A6FA344A3A49354860F012FA3348FDF7BB
:102C300061FB03469CB23148FDF75CFB034622462C
:102C40002E492F483DF03CFA294B1B68184641F0AD
:102C5000D9FA40E0264B1B6841F28831184641F012
:102C600086FA244A2B49254860F0F2F92348FDF7FB
:102C700041FB03469CB22148FDF73CFB034622463C
:102C80001E491F483DF01CFA194B1B68184641F0BD
:102C9000B9FA20E0164B1B6841F28831184641F022
:102CA00066FAFB79134A1449144860F0D1F91348C5
:102CB000FDF720FB03469CB21048FDF71BFB0346C3
:102CC00022460E490E483DF0FBF9094B1B68184699
:102CD00041F098FA00BF104B00221A700E4B0022F0
:102CE0005A600E4B1B7818460C37BD4690BD00BF8E
:102CF00054D10024A0C90608205F0608A8D10024EA
:102D00009C640024A0FD0608845E0608B45E0608E4
:102D1000D85E0608FC5E0608700401243C0A012403
:102D200090B583B000AF0346FB71FB79012B4CD902
:102D3000514B1B6841F28831184641F018FAFB7973
:102D40004E4A4F494F4860F083F94E48FDF7D2FA9A
:102D500003469CB24B48FDF7CDFA0346224649494B
:102D600049483DF0ADF9444B1B68184641F04AFA1A
:102D7000414B1B6841F28831184641F0F8F93F4A4F
:102D80004249404860F064F93E48FDF7B3FA034613
:102D90009CB23C48FDF7AEFA0346224639493A4810
:102DA0003DF08EF9344B1B68184641F02BFA384B36
:102DB00000221A74364B002283F8C820344B0022BC
:102DC0001A72334B0022DA6051E0FB79002B1FD1DD
:102DD000294B1B6841F28831184641F0C8F9274A4F
:102DE0002C49284860F034F92648FDF783FA034659
:102DF0009CB22448FDF77EFA034622462149224828
:102E00003DF05EF91C4B1B68184641F0FBF91EE0D3
:102E1000194B1B6841F28831184641F0A8F9174A4E
:102E20001D49184860F014F91648FDF763FA034687
:102E30009CB21448FDF75EFA034622461149124837
:102E40003DF03EF90C4B1B68184641F0DBF9104B86
:102E500003221A740E4BDB7C1A460D4B1344FA798D
:102E60001A750B4BDB7C0133DAB2094BDA7400BF05
:102E70000C37BD4690BD00BF54D10024B4C906082C
:102E80004C5F0608A8D100249C640024A85F0608B3
:102E900070040124D05F0608F05F060890B585B085
:102EA00000AF0346FB710023BB730023FB736AE092
:102EB000524B186807F10E010023002241F0D2FBAB
:102EC00003464F4A13604E4B1B68002B20D04D4BDE
:102ED0001B6841F28831184641F049F9484B1B689C
:102EE000494A4A494A4860F0B3F84948FDF702FAAE
:102EF00003469CB24648FDF7FDF903462246444985
:102F000044483DF0DDF83F4B1B68184641F07AF924
:102F1000414B1B7C052B33D801A252F823F000BF94
:102F2000392F0008472F0008512F00085B2F000899
:102F3000652F00086F2F0008BB7B1846FFF792FC37
:102F40000346FB731FE0BB7B1846FFF731FC1AE01A
:102F5000BB7B1846FFF7E4FE15E0BB7B1846FFF786
:102F600059FB10E0BB7B1846FFF7AEFB0BE0BB7BC9
:102F7000FA7911461846FFF7F5F90346FB7302E0AC
:102F8000FFF7D4FB00BFFB7B002B07D11B4B1B685B
:102F9000184641F0C5FB0346002B89D1FB7B002B73
:102FA00027D11D4B93F8C830002B0FD01A4B1B7A3A
:102FB000002B0BD0184B00221A72174B00221A74E8
:102FC000154B002283F8C8200423FB73124B9B7C13
:102FD000002B0ED0104B1B78002B0AD00E4B00227A
:102FE0001A700D4B00221A740B4B00229A740523A1
:102FF000FB73FB7B18461437BD4690BDACCB002459
:10300000400A012454D10024C8C9060810600608EB
:10301000A8D100249C6400247004012480B400AF73
:10302000104B9B78002B13D00E4B9B78013BDAB2F0
:103030000C4B9A700B4B1B780133DAB2094B1A70A8
:10304000084B1B781F2B07D9064B00221A7003E090
:10305000044B5A78034B1A7000BFBD465DF8047BE1
:10306000704700BFD8E9002480B400AF104B9B78B4
:10307000002B13D00E4B9B78013BDAB20C4B9A70AD
:103080000B4B1B780133DAB2094B1A70084B1B78D3
:10309000072B07D9064B00221A7003E0044B5A781D
:1030A000034B1A7000BFBD465DF8047B704700BF3C
:1030B0001CFF002490B585B002AF9B4B1B6841F20A
:1030C0008831184641F053F8984B1B79984A994932
:1030D00099485FF0BDFF9848FDF70CF903469CB294
:1030E0009548FDF707F903462246934993483CF07B
:1030F000E7FF8D4B1B68184641F084F88A4B1B682C
:1031000041F28831184641F032F8884B5B79884AA1
:103110008B4989485FF09CFF8748FDF7EBF8034631
:103120009CB28548FDF7E6F803462246824983486B
:103130003CF0C6FF7C4B1B68184641F063F87B4BA4
:103140001B7903F00103002B1FD0774B1B6841F262
:103150008831184641F00BF8754A7A4976485FF095
:1031600077FF7548FDF7C6F803469CB27248FDF735
:10317000C1F803462246704970483CF0A1FF6A4BF3
:103180001B68184641F03EF81EE0674B1B6841F291
:103190008831184640F0EBFF654A6B4966485FF09E
:1031A00057FF6548FDF7A6F803469CB26248FDF755
:1031B000A1F803462246604960483CF081FF5A4B23
:1031C0001B68184641F01EF8584B1B7903F00203A8
:1031D000002B1FD0544B1B6841F28831184640F039
:1031E000C6FF534A594954485FF032FF5248FDF731
:1031F00081F803469CB25048FDF77CF8034622460E
:103200004D494E483CF05CFF474B1B68184640F068
:10321000F9FF1EE0444B1B6841F28831184640F02C
:10322000A6FF434A4A4944485FF012FF4248FDF76F
:1032300061F803469CB24048FDF75CF8034622461D
:103240003D493E483CF03CFF374B1B68184640F078
:10325000D9FF364B1B7903F00403002B1FD0324BF0
:103260001B6841F28831184640F081FF304A3949E5
:1032700031485FF0EDFE3048FDF73CF803469CB264
:103280002D48FDF737F8034622462B492B483CF0E2
:1032900017FF254B1B68184640F0B4FF1EE0224B79
:1032A0001B6841F28831184640F061FF204A2A49E4
:1032B00021485FF0CDFE2048FDF71CF803469CB284
:1032C0001D48FDF717F8034622461B491B483CF0F2
:1032D000F7FE154B1B68184640F094FF134B1B7903
:1032E00003F00803002B3BD00F4B1B6841F28831E1
:1032F000184640F03CFF0E4A18490F485FF0A8FE00
:103300000D48FCF7F7FF03469CB20B48FCF7F2FFB1
:1033100003462246084909483CF0D2FE024B1B688E
:10332000184640F06FFF3AE054D100248404012491
:10333000DCC9060888600608A8D100249C64002423
:10334000B0600608D8600608F06006080861060844
:103350002C6106085461060874610608906106082D
:10336000994B1B6841F28831184640F000FF974A9C
:10337000974998485FF06CFE9648FCF7BBFF034600
:103380009CB29448FCF7B6FF034622469149924806
:103390003CF096FE8C4B1B68184640F033FF8A4B7E
:1033A0001B6841F28831184640F0E1FE8B4B9B7957
:1033B000864A8B4987485FF04BFE8648FCF79AFFA8
:1033C00003469CB28348FCF795FF03462246814999
:1033D00081483CF075FE7C4B1B68184640F012FF9C
:1033E000794B1B6841F28831184640F0C0FE774A9D
:1033F0007C4978485FF02CFE7648FCF77BFF03465B
:103400009CB27448FCF776FF034622467149724825
:103410003CF056FE6C4B1B68184640F0F3FE6F4BB9
:103420009B79002B31D000237B6028E0664B1B6822
:1034300041F28831184640F09AFE684A7B680333AF
:1034400013441B7900937B68604A674961485FF0C9
:10345000FFFD6048FCF74EFF03469CB25D48FCF759
:1034600049FF034622465B495B483CF029FE564B28
:103470001B68184640F0C6FE7B6801337B60574BE3
:103480009B791A467B689342D0DB4F4B1B6841F215
:103490008831184640F06BFE504A504B9B790333FD
:1034A00013441B79494A51494A485FF0D1FD4948C4
:1034B000FCF720FF03469CB24648FCF71BFF03467F
:1034C0002246444944483CF0FBFD3F4B1B681846EC
:1034D00040F098FE3C4B1B6841F28831184640F0A2
:1034E00046FE3E4A3D4B9B79043313441B79374AD1
:1034F0003F4938485FF0ACFD3648FCF7FBFE034619
:103500009CB23448FCF7F6FE034622463149324865
:103510003CF0D6FD2C4B1B68184640F073FE2F4A3A
:103520002E4B9B79033313441B79082B27D12B4A4D
:103530002A4B9B79043313441B79002B1FD1224B58
:103540001B6841F28831184640F011FE1F4A294994
:1035500020485FF07DFD1F48FCF7CCFE03469CB27F
:103560001C48FCF7C7FE034622461A491A483CF09D
:10357000A7FD154B1B68184640F044FE1FE0124B98
:103580001B6841F28831184640F0F1FD0F4A1A4994
:1035900010485FF05DFD0F48FCF7ACFE03469CB29F
:1035A0000C48FCF7A7FE034622460A490A483CF0AD
:1035B00087FD054B1B68184640F024FE00BF00BF86
:1035C0000C37BD4690BD00BF54D10024DCC90608AD
:1035D000AC610608A8D100249C6400248404012462
:1035E000CC610608F46106082062060848620608F5
:1035F0007062060898620608CC62060890B583B02F
:1036000000AF834B1B6841F28831184640F0AFFD94
:10361000804B1B79804A814981485FF019FD8048C1
:10362000FCF768FE03469CB27D48FCF763FE034648
:1036300022467B497B483CF043FD754B1B6818468E
:1036400040F0E0FD734B04331B783B713B7903F092
:103650000103DBB2002B1ED06D4B1B6841F2883199
:10366000184640F084FD6C4A6F496D485FF0F0FCED
:103670006B48FCF73FFE03469CB26948FCF73AFEF4
:1036800003462246664967483CF01AFD604B1B68BA
:10369000184640F0B7FD3B7903F00203DBB2002B84
:1036A0001ED05B4B1B6841F28831184640F05FFD2D
:1036B000594A5E495A485FF0CBFC5948FCF71AFE5C
:1036C00003469CB25648FCF715FE03462246544971
:1036D00054483CF0F5FC4E4B1B68184640F092FDF8
:1036E0003B7903F00403DBB2002B1ED0484B1B6870
:1036F00041F28831184640F03AFD474A4C49484863
:103700005FF0A6FC4648FCF7F5FD03469CB2444832
:10371000FCF7F0FD03462246414942483CF0D0FC0C
:103720003B4B1B68184640F06DFD3B7903F00803E6
:10373000DBB2002B1ED0364B1B6841F28831184695
:1037400040F015FD344A3B4935485FF081FC344870
:10375000FCF7D0FD03469CB23148FCF7CBFD034695
:1037600022462F492F483CF0ABFC294B1B681846DA
:1037700040F048FD3B7903F01003DBB2002B1ED074
:10378000234B1B6841F28831184640F0F0FC224A76
:10379000294923485FF05CFC2148FCF7ABFD034658
:1037A0009CB21F48FCF7A6FD034622461C491D4853
:1037B0003CF086FC164B1B68184640F023FD3B7915
:1037C00003F02003DBB2002B1ED0114B1B6841F22B
:1037D0008831184640F0CBFC0F4A184910485FF07A
:1037E00037FC0F48FCF786FD03469CB20C48FCF7FB
:1037F00081FD034622460A490A483CF061FC044B1D
:103800001B68184640F0FEFC00BF0C37BD4690BD5B
:1038100054D1002484040124FCC90608206306084E
:10382000A8D100249C640024386306085863060865
:103830007C630608A8630608CC630608E8630608EC
:1038400090B587B002AF9B4B1B6841F28831184698
:1038500040F08DFC984B1B79984A994999485FF044
:10386000F7FB9848FCF746FD03469CB29548FCF7E9
:1038700041FD03462246934993483CF021FC8D4B81
:103880001B68184640F0BEFC8A4B1B6841F2883129
:10389000184640F06CFC884B5B79884A8B49894814
:1038A0005FF0D6FB8748FCF725FD03469CB28548B0
:1038B000FCF720FD03462246824983483CF000FC89
:1038C0007C4B1B68184640F09DFC7A4B1B6841F20C
:1038D0008831184640F04BFC774B9B79774A7C49FE
:1038E00078485FF0B5FB7748FCF704FD03469CB2CF
:1038F0007448FCF7FFFC03462246724972483CF0CC
:10390000DFFB6C4B1B68184640F07CFC694B1B6866
:1039100041F28831184640F02AFC674BDB79674A50
:103920006C4968485FF094FB6648FCF7E3FC03468B
:103930009CB26448FCF7DEFC0346224661496248BB
:103940003CF0BEFB5B4B1B68184640F05BFC594BE0
:103950001B6841F28831184640F009FC564B1B7A2F
:10396000564A5D4957485FF073FB5648FCF7C2FC66
:1039700003469CB25348FCF7BDFC0346224651491E
:1039800051483CF09DFB4B4B1B68184640F03AFCFD
:10399000484B1B6841F28831184640F0E8FB464B23
:1039A0005B7A464A4D4947485FF052FB4548FCF771
:1039B000A1FC03469CB24348FCF79CFC034622460C
:1039C000404941483CF07CFB3A4B1B68184640F0AC
:1039D00019FC384B1B6841F28831184640F0C7FB90
:1039E000354B9B7A354A3E4936485FF031FB3548C6
:1039F000FCF780FC03469CB23248FCF77BFC034694
:103A00002246304930483CF05BFB2A4B1B68184685
:103A100040F0F8FB274B1B6841F28831184640F014
:103A2000A6FB254BDB7A254A2E4926485FF010FB82
:103A30002448FCF75FFC03469CB22248FCF75AFC82
:103A4000034622461F4920483CF03AFB194B1B68AD
:103A5000184640F0D7FB0023FB730023BB607EE0D9
:103A6000144B1B6841F28831184640F080FB124A23
:103A7000BB68083313441B790093BB680F4A1A498B
:103A800010485FF0E5FA0F48FCF734FC03469CB29F
:103A90000C48FCF72FFC034622460A490A483CF032
:103AA0000FFB044B1B68184640F0ACFB00237B6007
:103AB0004FE000BF54D10024840401242CCA06081E
:103AC00004640608A8D100249C6400243C64060811
:103AD00074640608AC640608E46406081C650608FD
:103AE000546506088C650608C4650608FB7B01332F
:103AF000FB731F4ABB68083313441B791A467B6863
:103B000042FA03F303F00103002B1FD0194B1B688B
:103B100041F28831184640F02AFBFB7B164A1749D0
:103B200017485FF095FA1648FCF7E4FB03469CB291
:103B30001348FCF7DFFB03462246114911483CF0CD
:103B4000BFFA0C4B1B68184640F05CFB7B680133E6
:103B50007B607B68072BC9DDBB680133BB60BB683A
:103B60001F2B7FF77DAF00BF00BF1437BD4690BD50
:103B70008404012454D100242CCA0608F4650608E4
:103B8000A8D100249C64002490B583B000AFB44B4E
:103B90001B6841F28831184640F0E9FAB14B1B79B5
:103BA000B14AB249B2485FF053FAB148FCF7A2FB00
:103BB00003469CB2AE48FCF79DFB03462246AC4947
:103BC000AC483CF07DFAA64B1B68184640F01AFB47
:103BD000A44B1B790A2B1FDC002BC0F25F810A2B40
:103BE00000F25C8101A252F823F000BF213C0008E2
:103BF000613C00089D3E0008A13C0008E13C000833
:103C0000213D00089D3E0008613D00089D3E0008E2
:103C1000A13D0008E13D0008FF2B00F001813DE1DE
:103C20008F4B1B6841F28831184640F0A0FA8E4A4B
:103C300091498F485FF00CFA8D48FCF75BFB034617
:103C40009CB28B48FCF756FB0346224688498948BC
:103C50003CF036FA824B1B68184640F0D3FA3FE13D
:103C60007F4B1B6841F28831184640F080FA7E4A4B
:103C700082497F485FF0ECF97D48FCF73BFB034647
:103C80009CB27B48FCF736FB0346224678497948CC
:103C90003CF016FA724B1B68184640F0B3FA1FE16D
:103CA0006F4B1B6841F28831184640F060FA6E4A4B
:103CB00073496F485FF0CCF96D48FCF71BFB034676
:103CC0009CB26B48FCF716FB0346224668496948DC
:103CD0003CF0F6F9624B1B68184640F093FAFFE09F
:103CE0005F4B1B6841F28831184640F040FA5E4A4B
:103CF00064495F485FF0ACF95D48FCF7FBFA0346A6
:103D00009CB25B48FCF7F6FA0346224658495948EC
:103D10003CF0D6F9524B1B68184640F073FADFE0CE
:103D20004F4B1B6841F28831184640F020FA4E4A4A
:103D300055494F485FF08CF94D48FCF7DBFA0346D4
:103D40009CB24B48FCF7D6FA0346224648494948FC
:103D50003CF0B6F9424B1B68184640F053FABFE0FE
:103D60003F4B1B6841F28831184640F000FA3E4A4A
:103D700046493F485FF06CF93D48FCF7BBFA034603
:103D80009CB23B48FCF7B6FA03462246384939480C
:103D90003CF096F9324B1B68184640F033FA9FE02E
:103DA0002F4B1B6841F28831184640F0E0F92E4A4B
:103DB00037492F485FF04CF92D48FCF79BFA034632
:103DC0009CB22B48FCF796FA03462246284929481C
:103DD0003CF076F9224B1B68184640F013FA7FE05E
:103DE0001F4B1B6841F28831184640F0C0F91E4A4B
:103DF00028491F485FF02CF91D48FCF77BFA034661
:103E00009CB21B48FCF776FA03462246184919482B
:103E10003CF056F9124B1B68184640F0F3F95FE08E
:103E20000F4B1B6841F28831184640F0A0F90E4A4A
:103E300019490F485FF00CF90D48FCF75BFA03468F
:103E40009CB20B48FCF756FA03462246084909483B
:103E50003CF036F9024B1B68184640F0D3F93FE0BE
:103E600054D10024840401245CCA0608286606088C
:103E7000A8D100249C640024546606087C660608C9
:103E8000C0660608E8660608346706085C67060828
:103E900084670608B4670608E46706089B4B1B683E
:103EA00041F28831184640F062F9994B1B79994AE2
:103EB00099499A485FF0CCF89848FCF71BFA0346FA
:103EC0009CB29648FCF716FA03462246934994485A
:103ED0003CF0F6F88D4B1B68184640F093F900BF94
:103EE0008A4B1B6841F28831184640F040F9884BF4
:103EF0005B79884A8B4989485FF0AAF88748FCF7C4
:103F0000F9F903469CB28548FCF7F4F903462246CA
:103F1000824983483CF0D4F87C4B1B68184640F03B
:103F200071F97B4B5B79002B1FD0784B1B6841F2FA
:103F30008831184640F01BF9764A7B4977485FF094
:103F400087F87648FCF7D6F903469CB27348FCF72D
:103F5000D1F903462246714971483CF0B1F86B4BE8
:103F60001B68184640F04EF91EE0684B1B6841F292
:103F70008831184640F0FBF8664A6C4967485FF0A4
:103F800067F86648FCF7B6F903469CB26348FCF74D
:103F9000B1F903462246614961483CF091F85B4B18
:103FA0001B68184640F02EF9584B1B6841F28831C7
:103FB000184640F0DCF8564B9B79564A5C49574806
:103FC0005FF046F85548FCF795F903469CB2534814
:103FD000FCF790F903462246504951483CF070F8EE
:103FE0004A4B1B68184640F00DF9494B9B79202B32
:103FF0006CD0202B00F3A680102B47D0102B00F3A1
:10400000A180002B02D0012B20D09BE03F4B1B68EE
:1040100041F28831184640F0AAF83E4A45493F48E7
:104020005FF016F83D48FCF765F903469CB23B4843
:10403000FCF760F903462246384939483CF040F81D
:10404000324B1B68184640F0DDF89DE02F4B1B6893
:1040500041F28831184640F08AF82E4A36492F48F6
:104060005EF0F6FF2D48FCF745F903469CB22B485D
:10407000FCF740F903462246284929483CF020F83D
:10408000224B1B68184640F0BDF87DE01F4B1B68B3
:1040900041F28831184640F06AF81E4A27491F4805
:1040A0005EF0D6FF1D48FCF725F903469CB21B487D
:1040B000FCF720F903462246184919483CF000F85D
:1040C000124B1B68184640F09DF85DE00F4B1B68D3
:1040D00041F28831184640F04AF80E4A18490F4814
:1040E0005EF0B6FF0D48FCF705F903469CB20B489D
:1040F000FCF700F903462246084909483BF0E0FF77
:10410000024B1B68184640F07DF83DE054D1002476
:10411000840401245CCA060810680608A8D100249B
:104120009C6400244C68060878680608CC68060879
:10413000086906083469060888690608CC69060813
:10414000246A0608DB4B1B6841F28831184640F0B0
:104150000EF8D94B9B79D94AD949DA485EF078FFF5
:10416000D848FCF7C7F803469CB2D648FCF7C2F81B
:1041700003462246D349D4483BF0A2FFCD4B1B68EF
:10418000184640F03FF800BFCA4B1B6841F2883127
:1041900018463FF0ECFFC84BDB79C84ACB49C94809
:1041A0005EF056FFC748FCF7A5F803469CB2C54829
:1041B000FCF7A0F803462246C249C3483BF080FF03
:1041C000BC4B1B68184640F01DF8BB4BDB79A12B9C
:1041D00000F34C81002B40F3D984013BA02B00F26B
:1041E000D58401A252F823F0554500081148000873
:1041F00075440008D5440008CD4A00080D4B00085E
:104200004D4B000851490008D14900088D4B00086A
:104210008D4B00088D4B00088D4B00088D4B00081E
:10422000554600085148000891480008D148000848
:10423000114900088D4B0008114A000891490008F7
:1042400095460008514A00088D4B00088D4B000828
:104250008D4B00088D4B00088D4B00088D4B0008DE
:104260008D4B000855470008D14700088D4B0008CA
:104270008D4B00088D4B00088D4B00088D4B0008BE
:104280008D4B00088D4B00088D4B00088D4B0008AE
:104290008D4B00088D4B00088D4B00088D4B00089E
:1042A0008D4B0008D5450008954500088D4B00084A
:1042B0008D4B00088D4B00088D4B00088D4B00087E
:1042C0008D4B00088D4B00088D4B00088D4B00086E
:1042D0008D4B00088D4B00088D4B00088D4B00085E
:1042E0008D4B0008154500088D4B00088D4B0008CC
:1042F0008D4B00088D4B00088D4B00088D4B00083E
:104300008D4B00088D4B00088D4B00088D4B00082D
:104310008D4B00088D4B00088D4B00088D4B00081D
:104320008D4B0008D54600088D4B00088D4B0008CA
:104330008D4B00088D4B00088D4B00088D4B0008FD
:104340008D4B00088D4B00088D4B00088D4B0008ED
:104350008D4B00088D4B00088D4B00088D4B0008DD
:104360008D4B00088D4B00088D4B00088D4B0008CD
:104370008D4B00088D4B00088D4B00088D4B0008BD
:104380008D4B00088D4B00088D4B00088D4B0008AD
:104390008D4B00088D4B00088D4B00088D4B00089D
:1043A0008D4B00088D4B00088D4B00088D4B00088D
:1043B0008D4B00088D4B00088D4B00088D4B00087D
:1043C0008D4B00088D4B00088D4B00088D4B00086D
:1043D0008D4B00088D4B00088D4B00088D4B00085D
:1043E0008D4B00088D4B00088D4B00088D4B00084D
:1043F0008D4B00088D4B00088D4B00088D4B00083D
:104400008D4B00088D4B00088D4B00088D4B00082C
:104410008D4B00088D4B00088D4B00088D4B00081C
:104420008D4B00088D4B00088D4B00088D4B00080C
:104430008D4B00088D4B00088D4B00088D4B0008FC
:104440008D4B00088D4B00088D4B00088D4B0008EC
:104450008D4B00088D4B00088D4B00088D4B0008DC
:104460008D4B00088D4B000815470008FF2B00F00E
:10447000D1808BE30F4B1B6841F2883118463FF027
:1044800076FE0E4A12490F485EF0E2FD0D48FBF73A
:1044900031FF03469CB20B48FBF72CFF0346224634
:1044A000084909483BF00CFE024B1B6818463FF0D8
:1044B000A9FE8DE354D10024840401245CCA0608BB
:1044C0007C6A0608A8D100249C640024BC6A060803
:1044D000E86A0608AF4B1B6841F2883118463FF086
:1044E00046FEAD4AAD49AE485EF0B2FDAC48FBF7C2
:1044F00001FF03469CB2AA48FBF7FCFE0346224696
:10450000A749A8483BF0DCFDA24B1B6818463FF0CA
:1045100079FE5DE39F4B1B6841F2883118463FF0FE
:1045200026FE9D4AA0499E485EF092FD9C48FBF7FE
:10453000E1FE03469CB29A48FBF7DCFE03462246A6
:10454000974998483BF0BCFD924B1B6818463FF0DA
:1045500059FE3DE38F4B1B6841F2883118463FF00E
:1045600006FE8D4A91498E485EF072FD8C48FBF73D
:10457000C1FE03469CB28A48FBF7BCFE03462246B6
:10458000874988483BF09CFD824B1B6818463FF0EA
:1045900039FE1DE37F4B1B6841F2883118463FF01E
:1045A000E6FD7D4A82497E485EF052FD7C48FBF77D
:1045B000A1FE03469CB27A48FBF79CFE03462246C6
:1045C000774978483BF07CFD724B1B6818463FF0FA
:1045D00019FEFDE26F4B1B6841F2883118463FF02F
:1045E000C6FD6D4A73496E485EF032FD6C48FBF7BC
:1045F00081FE03469CB26A48FBF77CFE03462246D6
:10460000674968483BF05CFD624B1B6818463FF009
:10461000F9FDDDE25F4B1B6841F2883118463FF03F
:10462000A6FD5D4A64495E485EF012FD5C48FBF7FA
:1046300061FE03469CB25A48FBF75CFE03462246E5
:10464000574958483BF03CFD524B1B6818463FF019
:10465000D9FDBDE24F4B1B6841F2883118463FF04F
:1046600086FD4D4A55494E485EF0F2FC4C48FBF73A
:1046700041FE03469CB24A48FBF73CFE03462246F5
:10468000474948483BF01CFD424B1B6818463FF029
:10469000B9FD9DE23F4B1B6841F2883118463FF05F
:1046A00066FD3D4A46493E485EF0D2FC3C48FBF779
:1046B00021FE03469CB23A48FBF71CFE0346224605
:1046C000374938483BF0FCFC324B1B6818463FF03A
:1046D00099FD7DE22F4B1B6841F2883118463FF06F
:1046E00046FD2D4A37492E485EF0B2FC2C48FBF7B8
:1046F00001FE03469CB22A48FBF7FCFD0346224616
:10470000274928483BF0DCFC224B1B6818463FF049
:1047100079FD5DE21F4B1B6841F2883118463FF07E
:1047200026FD1D4A28491E485EF092FC1C48FBF7F6
:10473000E1FD03469CB21A48FBF7DCFD0346224626
:10474000174918483BF0BCFC124B1B6818463FF059
:1047500059FD3DE20F4B1B6841F2883118463FF08E
:1047600006FD0D4A19490E485EF072FC0C48FBF735
:10477000C1FD03469CB20A48FBF7BCFD0346224636
:10478000074908483BF09CFC024B1B6818463FF069
:1047900039FD1DE254D100245CCA0608046B0608EA
:1047A000A8D100249C640024186B0608306B06080E
:1047B0004C6B06085C6B0608746B0608906B060869
:1047C000AC6B0608C46B0608E06B0608F86B0608BD
:1047D000AF4B1B6841F2883118463FF0C8FCAD4A28
:1047E000AD49AE485EF034FCAC48FBF783FD0346B0
:1047F0009CB2AA48FBF77EFD03462246A749A8487B
:104800003BF05EFCA24B1B6818463FF0FBFCDFE16F
:104810009F4B1B6841F2883118463FF0A8FC9D4A27
:10482000A0499E485EF014FC9C48FBF763FD0346DC
:104830009CB29A48FBF75EFD03462246974998488A
:104840003BF03EFC924B1B6818463FF0DBFCBFE19F
:104850008F4B1B6841F2883118463FF088FC8D4A27
:1048600091498E485EF0F4FB8C48FBF743FD03460C
:104870009CB28A48FBF73EFD03462246874988489A
:104880003BF01EFC824B1B6818463FF0BBFC9FE1CF
:104890007F4B1B6841F2883118463FF068FC7D4A27
:1048A00082497E485EF0D4FB7C48FBF723FD03463B
:1048B0009CB27A48FBF71EFD0346224677497848AA
:1048C0003BF0FEFB724B1B6818463FF09BFC7FE100
:1048D0006F4B1B6841F2883118463FF048FC6D4A27
:1048E00073496E485EF0B4FB6C48FBF703FD03466A
:1048F0009CB26A48FBF7FEFC0346224667496848BB
:104900003BF0DEFB624B1B6818463FF07BFC5FE12F
:104910005F4B1B6841F2883118463FF028FC5D4A26
:1049200064495E485EF094FB5C48FBF7E3FC034699
:104930009CB25A48FBF7DEFC0346224657495848CA
:104940003BF0BEFB524B1B6818463FF05BFC3FE15F
:104950004F4B1B6841F2883118463FF008FC4D4A26
:1049600055494E485EF074FB4C48FBF7C3FC0346C8
:104970009CB24A48FBF7BEFC0346224647494848DA
:104980003BF09EFB424B1B6818463FF03BFC1FE18F
:104990003F4B1B6841F2883118463FF0E8FB3D4A27
:1049A00046493E485EF054FB3C48FBF7A3FC0346F7
:1049B0009CB23A48FBF79EFC0346224637493848EA
:1049C0003BF07EFB324B1B6818463FF01BFCFFE0C0
:1049D0002F4B1B6841F2883118463FF0C8FB2D4A27
:1049E00037492E485EF034FB2C48FBF783FC034626
:1049F0009CB22A48FBF77EFC0346224627492848FA
:104A00003BF05EFB224B1B6818463FF0FBFBDFE0F0
:104A10001F4B1B6841F2883118463FF0A8FB1D4A26
:104A200028491E485EF014FB1C48FBF763FC034654
:104A30009CB21A48FBF75EFC034622461749184809
:104A40003BF03EFB124B1B6818463FF0DBFBBFE020
:104A50000F4B1B6841F2883118463FF088FB0D4A26
:104A600019490E485EF0F4FA0C48FBF743FC034684
:104A70009CB20A48FBF73EFC034622460749084819
:104A80003BF01EFB024B1B6818463FF0BBFB9FE050
:104A900054D100245CCA0608106C0608A8D1002472
:104AA0009C6400242C6C0608486C0608606C0608A0
:104AB0007C6C0608946C0608AC6C0608C06C060892
:104AC000D86C0608F46C0608086D0608AF4B1B6826
:104AD00041F2883118463FF04AFBAD4AAD49AE4835
:104AE0005EF0B6FAAC48FBF705FC03469CB2AA4858
:104AF000FBF700FC03462246A749A8483BF0E0FA32
:104B0000A24B1B6818463FF07DFB61E09F4B1B6882
:104B100041F2883118463FF02AFB9D4AA0499E4841
:104B20005EF096FA9C48FBF7E5FB03469CB29A4878
:104B3000FBF7E0FB03462246974998483BF0C0FA52
:104B4000924B1B6818463FF05DFB41E08F4B1B68A2
:104B500041F2883118463FF00AFB8D4A91498E4850
:104B60005EF076FA8C48FBF7C5FB03469CB28A4898
:104B7000FBF7C0FB03462246874988483BF0A0FA72
:104B8000824B1B6818463FF03DFB21E07F4B1B68C2
:104B900041F2883118463FF0EAFA834BDB797C4AD0
:104BA00082497D485EF054FA7B48FBF7A3FB03463D
:104BB0009CB27948FBF79EFB03462246764977482C
:104BC0003BF07EFA714B1B6818463FF01BFB00BFA1
:104BD0006E4B1B6841F2883118463FF0C8FA724BA1
:104BE0001B7A6B4A72496C485EF032FA6A48FBF7EE
:104BF00081FB03469CB26848FBF77CFB03462246D8
:104C0000654966483BF05CFA604B1B6818463FF00C
:104C1000F9FA654BDB79022B40F05881624B1B7A25
:104C2000072B00F2318101A252F823F04D4C00080D
:104C30008D4C0008CD4C00080D4D00084D4D00086E
:104C4000C94D0008094E0008494E00084F4B1B682B
:104C500041F2883118463FF08AFA4D4A55494E488C
:104C60005EF0F6F94C48FBF745FB03469CB24A4818
:104C7000FBF740FB03462246474948483BF020FAF1
:104C8000424B1B6818463FF0BDFA1FE13F4B1B68C3
:104C900041F2883118463FF06AFA3D4A46493E489B
:104CA0005EF0D6F93C48FBF725FB03469CB23A4838
:104CB000FBF720FB03462246374938483BF000FA11
:104CC000324B1B6818463FF09DFAFFE02F4B1B68E4
:104CD00041F2883118463FF04AFA2D4A37492E48AA
:104CE0005EF0B6F92C48FBF705FB03469CB22A4858
:104CF000FBF700FB03462246274928483BF0E0F932
:104D0000224B1B6818463FF07DFADFE01F4B1B6803
:104D100041F2883118463FF02AFA1D4A28491E48B8
:104D20005EF096F91C48FBF7E5FA03469CB21A4878
:104D3000FBF7E0FA03462246174918483BF0C0F952
:104D4000124B1B6818463FF05DFABFE00F4B1B6823
:104D500041F2883118463FF00AFA0D4A19490E48C7
:104D60005EF076F90C48FBF7C5FA03469CB20A4898
:104D7000FBF7C0FA03462246074908483BF0A0F972
:104D8000024B1B6818463FF03DFA9FE054D10024C7
:104D90005CCA0608246D0608A8D100249C6400247F
:104DA000406D0608546D060884040124746D0608DD
:104DB000B06D0608DC6D0608046E06082C6E060849
:104DC000486E0608686E0608934B1B6841F28831EE
:104DD00018463FF0CCF9914A914992485EF038F973
:104DE0009048FBF787FA03469CB28E48FBF782FA9D
:104DF000034622468B498C483BF062F9864B1B6880
:104E000018463FF0FFF961E0834B1B6841F288319F
:104E100018463FF0ACF9814A844982485EF018F99F
:104E20008048FBF767FA03469CB27E48FBF762FABC
:104E3000034622467B497C483BF042F9764B1B688F
:104E400018463FF0DFF941E0734B1B6841F28831AF
:104E500018463FF08CF9714A754972485EF0F8F8CF
:104E60007048FBF747FA03469CB26E48FBF742FADC
:104E7000034622466B496C483BF022F9664B1B689F
:104E800018463FF0BFF921E0634B1B6841F28831BF
:104E900018463FF06CF9674B1B7A604A66496148D7
:104EA0005EF0D6F85F48FBF725FA03469CB25D48F2
:104EB000FBF720FA034622465A495B483BF000F9CB
:104EC000554B1B6818463FF09DF900BF524B1B68BD
:104ED00041F2883118463FF04AF9564B5B7A4F4A07
:104EE000564950485EF0B4F84E48FBF703FA0346C3
:104EF0009CB24C48FBF7FEF90346224649494A4812
:104F00003BF0DEF8444B1B6818463FF07BF9494BF9
:104F10005B7B7B60474A7B68063313441B791B022B
:104F200044497A6807320A44127913441B02414902
:104F30007A6808320A44127913441B023D497A68A0
:104F400009320A44127913443B60334B1B6841F227
:104F5000883118463FF00BF93B68304A38493148F0
:104F60005EF076F82F48FBF7C5F903469CB22D4852
:104F7000FBF7C0F9034622462A492B483BF0A0F82C
:104F8000254B1B6818463FF03DF900220021802088
:104F900002F02AFF03F032F902F0BEFE03F000FA3D
:104FA00002F052FE02F084FE03F0C6F903F030FA7C
:104FB00003F062FA00220921402002F015FF0522C9
:104FC000C821122002F010FF0022C821032002F0A5
:104FD0000BFF00220021012002F006FF0022002129
:104FE000132002F001FF00220021052002F0FCFE48
:104FF00000220021202002F0F7FE002200211020D4
:1050000002F0F2FE00220021112002F0EDFE00BFAE
:105010000C37BD4690BD00BF54D100245CCA0608C1
:10502000806E0608A8D100249C640024A06E0608A7
:10503000B46E060884040124C86E0608086F0608CA
:10504000346F060890B589B002AFBA4B1B6841F2C5
:10505000883118463FF08BF8B74B1B79B74AB849EF
:10506000B8485DF0F5FFB748FBF744F903469CB23A
:10507000B448FBF73FF903462246B249B2483BF039
:105080001FF8AC4B1B6818463FF0BCF8AA4B1B79C5
:10509000402B00F38B80002BC0F2C082402B00F22B
:1050A000BD8201A252F823F0B5510008F551000865
:1050B0003552000825540008755200086554000850
:1050C0001D5600081D560008B55200081D56000860
:1050D0001D5600081D5600081D5600081D560008E4
:1050E0001D5600081D560008F5520008A55400087A
:1050F000E5540008255500081D56000865550008B0
:10510000A55500081D5600081D5600081D5600082C
:105110001D5600081D5600081D5600081D560008A3
:105120001D5600081D560008655300081D5600084E
:105130001D5600081D5600081D5600081D56000883
:105140001D5600081D5600081D5600081D56000873
:105150001D5600081D5600081D5600081D56000863
:105160001D5600081D5600081D5600081D56000853
:105170001D5600081D5600081D5600081D56000843
:105180001D5600081D5600081D5600081D56000833
:105190001D5600081D5600081D5600081D56000823
:1051A0001D5600081D560008A5530008802B00F06E
:1051B000198133E25F4B1B6841F2883118463EF09B
:1051C000D6FF5E4A61495F485DF042FF5D48FBF7EC
:1051D00091F803469CB25B48FBF78CF803462246E5
:1051E000584959483AF06CFF524B1B6818463FF03B
:1051F00009F835E24F4B1B6841F2883118463EF002
:10520000B6FF4E4A52494F485DF022FF4D48FBF72A
:1052100071F803469CB24B48FBF76CF803462246F4
:10522000484949483AF04CFF424B1B6818463EF04B
:10523000E9FF15E23F4B1B6841F2883118463EF00A
:1052400096FF3E4A43493F485DF002FF3D48FBF769
:1052500051F803469CB23B48FBF74CF80346224604
:10526000384939483AF02CFF324B1B6818463EF05B
:10527000C9FFF5E12F4B1B6841F2883118463EF01B
:1052800076FF2E4A34492F485DF0E2FE2D48FBF7A9
:1052900031F803469CB22B48FBF72CF80346224614
:1052A000284929483AF00CFF224B1B6818463EF06B
:1052B000A9FFD5E11F4B1B6841F2883118463EF02B
:1052C00056FF1E4A25491F485DF0C2FE1D48FBF7E8
:1052D00011F803469CB21B48FBF70CF80346224624
:1052E000184919483AF0ECFE124B1B6818463EF07C
:1052F00089FFB5E10F4B1B6841F2883118463EF03B
:1053000036FF0E4A16490F485DF0A2FE0D48FAF727
:10531000F1FF03469CB20B48FAF7ECFF0346224626
:10532000084909483AF0CCFE024B1B6818463EF08B
:1053300069FF95E154D100248404012480CA060841
:10534000606F0608A8D100249C640024886F0608BA
:10535000B46F0608DC6F06080C7006083C7006087F
:105360006C7006089F4B1B6841F2883118463EF06E
:10537000FEFE9D4A9D499E485DF06AFE9C48FAF7F4
:10538000B9FF03469CB29A48FAF7B4FF0346224697
:10539000974998483AF094FE924B1B6818463EF0A5
:1053A00031FF5DE18F4B1B6841F2883118463EF0BA
:1053B000DEFE8D4A90498E485DF04AFE8C48FAF731
:1053C00099FF03469CB28A48FAF794FF03462246A7
:1053D000874988483AF074FE824B1B6818463EF0B5
:1053E00011FF3DE17F4B1B6841F2883118463EF0CA
:1053F000BEFE7D4A81497E485DF02AFE7C48FAF770
:1054000079FF03469CB27A48FAF774FF03462246B6
:10541000774978483AF054FE724B1B6818463EF0C4
:10542000F1FE1DE16F4B1B6841F2883118463EF0DA
:105430009EFE6D4A72496E485DF00AFE6C48FAF7AE
:1054400059FF03469CB26A48FAF754FF03462246C6
:10545000674968483AF034FE624B1B6818463EF0D4
:10546000D1FEFDE05F4B1B6841F2883118463EF0EB
:105470007EFE5D4A63495E485DF0EAFD5C48FAF7EE
:1054800039FF03469CB25A48FAF734FF03462246D6
:10549000574958483AF014FE524B1B6818463EF0E4
:1054A000B1FEDDE04F4B1B6841F2883118463EF0FB
:1054B0005EFE4D4A54494E485DF0CAFD4C48FAF72D
:1054C00019FF03469CB24A48FAF714FF03462246E6
:1054D000474948483AF0F4FD424B1B6818463EF0F5
:1054E00091FEBDE03F4B1B6841F2883118463EF00B
:1054F0003EFE3D4A45493E485DF0AAFD3C48FAF76C
:10550000F9FE03469CB23A48FAF7F4FE03462246F7
:10551000374938483AF0D4FD324B1B6818463EF004
:1055200071FE9DE02F4B1B6841F2883118463EF01A
:105530001EFE2D4A36492E485DF08AFD2C48FAF7AA
:10554000D9FE03469CB22A48FAF7D4FE0346224607
:10555000274928483AF0B4FD224B1B6818463EF014
:1055600051FE7DE01F4B1B6841F2883118463EF02A
:10557000FEFD1D4A27491E485DF06AFD1C48FAF7EA
:10558000B9FE03469CB21A48FAF7B4FE0346224617
:10559000174918483AF094FD124B1B6818463EF024
:1055A00031FE5DE00F4B1B6841F2883118463EF03A
:1055B000DEFD0D4A18490E485DF04AFD0C48FAF729
:1055C00099FE03469CB20A48FAF794FE0346224627
:1055D000074908483AF074FD024B1B6818463EF034
:1055E00011FE3DE054D1002480CA0608A4700608CC
:1055F000A8D100249C640024D0700608FC70060822
:10560000307106086071060890710608CC710608B2
:10561000047206083C720608707206087E4B1B680E
:1056200041F2883118463EF0A2FD7C4B1B797C4A42
:105630007C497D485DF00CFD7B48FAF75BFE034634
:105640009CB27948FAF756FE0346224676497748D7
:105650003AF036FD704B1B6818463EF0D3FD00BF94
:105660006E4B1B79012B40F08E806B4B1B6841F217
:10567000883118463EF07BFD684B5B79684A6C497F
:1056800069485DF0E5FC6848FAF734FE03469CB2D1
:105690006548FAF72FFE03462246634963483AF00D
:1056A0000FFD5D4B1B6818463EF0ACFD0023FB75FB
:1056B00000233B6164E0584B1B6841F28831184677
:1056C0003EF055FD554A3B69023313441B79009364
:1056D0003B69534A574954485DF0BAFC5248FAF7BF
:1056E00009FE03469CB25048FAF704FE03462246E0
:1056F0004D494E483AF0E4FC474B1B6818463EF0D3
:1057000081FD0023FB6035E0FB7D0133FB75434ADF
:105710003B69023313441B791A46FB6842FA03F3D0
:1057200003F00103002B22D03B4B1B6841F2883170
:1057300018463EF01CFDFA7DFB7D00931346384A67
:105740003D4939485DF084FC3748FAF7D3FD0346FC
:105750009CB23548FAF7CEFD03462246324933481B
:105760003AF0AEFC2C4B1B6818463EF04BFDFB6834
:105770000133FB60FB68072BC6DD3B6901333B61EE
:105780003B69102B97DD254B1B79032B79D1224BDD
:105790001B6841F2883118463EF0E9FC1F4B5B79EB
:1057A0001F4A264920485DF053FC1F48FAF7A2FD26
:1057B00003469CB21C48FAF79DFD034622461A494F
:1057C0001A483AF07DFC144B1B6818463EF01AFD4F
:1057D000124B5B79002B35D00F4B1B6841F288319F
:1057E00018463EF0C4FC0E4A15490F485DF030FCE7
:1057F0000D48FAF77FFD03469CB20B48FAF77AFD95
:1058000003462246084909483AF05AFC024B1B68F5
:1058100018463EF0F7FC34E054D1002484040124FF
:1058200080CA0608A0720608A8D100249C6400243F
:10583000E4720608047306082C73060860730608F1
:1058400088730608704B1B6841F2883118463EF099
:105850008EFC6E4A6E496F485DF0FAFB6D48FAF7B0
:1058600049FD03469CB26B48FAF744FD03462246C5
:10587000684969483AF024FC634B1B6818463EF0BF
:10588000C1FC664B1B79052B27D1644B5B791B024E
:105890009BB2624A927913447B815B4B1B6841F255
:1058A000883118463EF063FC7B89584A5C49594868
:1058B0005DF0CEFB5748FAF71DFD03469CB25548F4
:1058C000FAF718FD03462246524953483AF0F8FBCE
:1058D0004D4B1B6818463EF095FC504B1B79102B26
:1058E00022D14E4B5B797B72474B1B6841F288316A
:1058F00018463EF03CFC7B7A444A4A4945485DF0F4
:10590000A7FB4448FAF7F6FC03469CB24148FAF775
:10591000F1FC034622463F493F483AF0D1FB3A4B5F
:105920001B6818463EF06EFC3C4B1B79112B22D1B4
:105930003A4B5B793B72344B1B6841F28831184615
:105940003EF015FC3B7A314A374932485DF080FB26
:105950003048FAF7CFFC03469CB22E48FAF7CAFC4F
:10596000034622462B492C483AF0AAFB264B1B68DB
:1059700018463EF047FC294B1B79122B79D1224B5C
:105980001B6841F2883118463EF0F1FB234B5B79EE
:105990001E4A26491F485DF05BFB1E48FAF7AAFC29
:1059A00003469CB21B48FAF7A5FC03462246194958
:1059B00019483AF085FB144B1B6818463EF022FC50
:1059C000164B5B79002B35D00F4B1B6841F28831A9
:1059D00018463EF0CCFB0D4A15490E485DF038FBE9
:1059E0000C48FAF787FC03469CB20A48FAF782FC97
:1059F00003462246074908483AF062FB024B1B68FF
:105A000018463EF0FFFB34E054D1002480CA06085B
:105A1000C8730608A8D100249C64002484040124CF
:105A20001474060830740608547406086073060877
:105A30007C740608AC4B1B6841F2883118463EF076
:105A400096FBAA4AAA49AB485DF002FBA948FAF7BF
:105A500051FC03469CB2A748FAF74CFC0346224689
:105A6000A449A5483AF02CFB9F4B1B6818463EF012
:105A7000C9FBA24B1B79132B4FD1A04B5B791B02A7
:105A80009BB29E4A92791344FB809C4BDB791B02AC
:105A90009BB29A4A127A1344BB80934B1B6841F223
:105AA000883118463EF063FBFB88904A9449914840
:105AB0005DF0CEFA8F48FAF71DFC03469CB28D4884
:105AC000FAF718FC034622468A498B483AF0F8FA5E
:105AD000854B1B6818463EF095FB834B1B6841F2D3
