:020000040800F2
:100000000000082461970108159401081D94010857
:10001000259401082D940108359401080000000082
:10002000000000000000000000000000A1370508EB
:100030003D94010800000000F13905080928050871
:10004000B5970108B5970108B5970108B59701085C
:10005000B5970108B5970108B5970108B59701084C
:100060004B940108B5970108B5970108B5970108A9
:10007000B5970108B5970108B5970108B59701082C
:10008000B5970108B5970108B5970108B59701081C
:10009000B5970108B5970108B5970108B59701080C
:1000A000B5970108B5970108B5970108B5970108FC
:1000B000B5970108B5970108B5970108B5970108EC
:1000C000B5970108B5970108B5970108B5970108DC
:1000D000B5970108599401086D940108B597010876
:1000E000B5970108B597010800000000B597010811
:1000F000B5970108B5970108B5970108B5970108AC
:10010000B5970108B5970108B5970108B59701089B
:10011000B5970108B597010881940108B5970108C2
:10012000B5970108B5970108B5970108B59701087B
:10013000B5970108B5970108B5970108B59701086B
:10014000B5970108B5970108000000000000000005
:10015000B5970108B5970108B5970108B59701084B
:10016000B5970108B5970108B5970108B59701083B
:10017000B5970108B5970108B59701080000000080
:10018000B5970108B5970108B5970108B59701081B
:10019000B5970108B5970108B5970108B59701080B
:1001A00095940108B5970108A9940108B59701082D
:1001B000BD940108B5970108B5970108B5970108E6
:1001C000B5970108B5970108B5970108B5970108DB
:1001D000B5970108B5970108B5970108B5970108CB
:1001E000B5970108B5970108B5970108B5970108BB
:1001F000B5970108B5970108B5970108B5970108AB
:10020000B5970108B5970108B5970108B59701089A
:10021000B5970108B5970108B5970108B59701088A
:10022000B5970108D1940108E59401080000000089
:10023000B5970108B5970108B5970108B59701086A
:10024000B5970108B5970108B5970108B59701085A
:10025000B5970108B5970108B5970108B59701084A
:10026000B5970108B5970108B5970108B59701083A
:10027000B5970108B5970108B5970108B59701082A
:10028000B5970108B5970108B5970108000000006F
:08029000B5970108B5970108BC
:1002A00010B5054C237833B9044B13B10448AFF3B0
:1002B00000800123237010BD005F002400000000B7
:1002C000089E070808B5034B1BB103490348AFF369
:1002D000008008BD00000000045F0024089E07089D
:1002E00010F8012B11F8013B012A28BF9A42F7D0E0
:1002F000D01A7047034613F8012B002AFBD1181AB5
:1003000001387047000000000000000000000000FD
:1003100001F0FF01102A2BDB10F0070F08D010F8B6
:10032000013B013A8B422DD010F0070F42B3F6D1BA
:10033000F0B441EA012141EA014122F007047FF0D3
:1003400000070023F0E80256083C85EA010586EA2A
:10035000010685FA47F5A3FA87F586FA47F6A5FA66
:1003600087F68EB9EED1F0BC01F0FF0102F0070272
:1003700032B110F8013B013A83EA010313B1F8D11D
:100380000020704701387047002D06BF35460338FE
:10039000073815F0010F07D1013015F4807F02BF37
:1003A000013015F4C03F0130F0BC0138704700BF88
:1003B00081F0004102E000BF83F0004330B54FEA16
:1003C00041044FEA430594EA050F08BF90EA020F83
:1003D0001FBF54EA000C55EA020C7FEA645C7FEA16
:1003E000655C00F0E2804FEA5454D4EB5555B8BF39
:1003F0006D420CDD2C4480EA020281EA030382EAAA
:10040000000083EA010180EA020281EA0303362D3B
:1004100088BF30BD11F0004F4FEA01314FF4801C0E
:100420004CEA113102D0404261EB410113F0004F20
:100430004FEA03334CEA133302D0524263EB4303D7
:1004400094EA050F00F0A780A4F10104D5F1200E75
:100450000DDB02FA0EFC22FA05F2801841F10001D0
:1004600003FA0EF2801843FA05F359410EE0A5F1A4
:1004700020050EF1200E012A03FA0EFC28BF4CF0D5
:10048000020C43FA05F3C01851EBE37101F000458B
:1004900007D54FF0000EDCF1000C7EEB00006EEB98
:1004A0000101B1F5801F1BD3B1F5001F0CD3490822
:1004B0005FEA30004FEA3C0C04F101044FEA445279
:1004C00012F5800F80F09A80BCF1004F08BF5FEA00
:1004D000500C50F1000041EB045141EA050130BDE0
:1004E0005FEA4C0C404141EB0101013C28BFB1F5F2
:1004F000801FE9D291F0000F04BF01460020B1FA3D
:1005000081F308BF2033A3F10B03B3F120020CDA0F
:100510000C3208DD02F1140CC2F10C0201FA0CF0ED
:1005200021FA02F10CE002F11402D8BFC2F1200C52
:1005300001FA02F120FA0CFCDCBF41EA0C01904008
:10054000E41AA2BF01EB0451294330BD6FEA040451
:100550001F3C1CDA0C340EDC04F11404C4F120023C
:1005600020FA04F001FA02F340EA030021FA04F34E
:1005700045EA030130BDC4F10C04C4F1200220FAA5
:1005800002F001FA04F340EA0300294630BD21FAE3
:1005900004F0294630BD94F0000F83F4801306BFA9
:1005A00081F480110134013D4EE77FEA645C18BF9D
:1005B0007FEA655C29D094EA050F08BF90EA020F34
:1005C00005D054EA000C04BF1946104630BD91EA2C
:1005D000030F1EBF0021002030BD5FEA545C05D12F
:1005E0004000494128BF41F0004130BD14F580046E
:1005F0003CBF01F5801130BD01F0004545F0FE41E2
:1006000041F470014FF0000030BD7FEA645C1ABF16
:10061000194610467FEA655C1CBF0B46024650EA4D
:10062000013406BF52EA033591EA030F41F4002179
:1006300030BD00BF90F0000F04BF0021704730B5FF
:100640004FF4806404F132044FF000054FF00001D4
:1006500050E700BF90F0000F04BF0021704730B595
:100660004FF4806404F1320410F0004548BF40426A
:100670004FF000013EE700BF42004FEAE2014FEABF
:1006800031014FEA02701FBF12F07F4393F07F4F9A
:1006900081F06051704732F07F4208BF704793F09D
:1006A0007F4F04BF41F40021704730B54FF46074B0
:1006B00001F0004521F000411CE700BF50EA0102B3
:1006C00008BF704730B54FF000050AE050EA01025C
:1006D00008BF704730B511F0004502D5404261EBCC
:1006E00041014FF4806404F132045FEA915C3FF40D
:1006F000D8AE4FF003025FEADC0C18BF03325FEAAA
:10070000DC0C18BF033202EBDC02C2F1200300FA5A
:1007100003FC20FA02F001FA03FE40EA0E0021FA7F
:1007200002F11444BDE600BF7BB972B90029BEBF17
:1007300000204FF0004106E008BF00281CBF6FF00A
:1007400000414FF0FF3000F0D3B9ADF1080C6DE976
:1007500004CE002909DB002B1ADB00F04DF8DDF890
:1007600004E0DDE9022304B07047404261EB41013F
:10077000002B1BDB00F040F8DDF804E0DDE902238C
:1007800004B0404261EB4101524263EB43037047C6
:10079000524263EB430300F02FF8DDF804E0DDE99B
:1007A000022304B0404261EB41017047524263EBC7
:1007B000430300F021F8DDF804E0DDE9022304B092
:1007C000524263EB4303704753B94AB9002908BF4B
:1007D00000281CBF4FF0FF314FF0FF3000F088B908
:1007E000ADF1080C6DE904CE00F006F8DDF804E088
:1007F000DDE9022304B070472DE9F047089D0F465C
:1008000004468C46002B48D18A42164661D9B2FA7A
:1008100082F34BB1C3F1200201FA03FC20FA02F289
:100820009E4042EA0C0C9C404FEA164EB7B2BCFB0D
:10083000FEF1220C0EFB11CC42EA0C4201FB07F048
:10084000904209D9B21801F1FF3C80F0EE8090424D
:1008500040F2EB8002393244121AA4B2B2FBFEF02D
:100860000EFB102244EA024400FB07F7A74209D915
:10087000341900F1FF3280F0DA80A74240F2D780CD
:100880003444023840EA0140E41B00211DB1DC4041
:100890000023C5E90043BDE8F0878B4206D90DB1BE
:1008A000C5E9000100210846BDE8F087B3FA83F1ED
:1008B000002948D1BB4202D3824200F20781841A48
:1008C00067EB030201209446002DE4D0C5E9004CFB
:1008D000E1E7002A00F09280B2FA82F3002B40F0A8
:1008E000A8808A1A4FEA164E1FFA86FC0121200CB6
:1008F000B2FBFEF70EFB172240EA02420CFB07F0A8
:10090000904207D9B21807F1FF3802D2904200F2A4
:10091000E2804746121AA4B2B2FBFEF00EFB102290
:1009200044EA02440CFB00FCA44507D9341900F149
:10093000FF3202D2A44500F2CB801046A4EB0C0497
:1009400040EA0740A2E7C1F120068B4022FA06FCEC
:100950004CEA030C07FA01F420FA06F3F7404FEAD9
:100960001C49234300FA01F81FFA8CFEB7FBF9F08B
:100970001C0C09FB107744EA074400FB0EF7A74262
:1009800002FA01F20AD91CEB040400F1FF3A80F0EC
:100990009B80A74240F2988002386444E41B9FB2D7
:1009A000B4FBF9F309FB134447EA044403FB0EFECE
:1009B000A64509D91CEB040403F1FF3780F08280BF
:1009C000A6457FD9023B644443EA0040A4EB0E04F1
:1009D000A0FB02E7BC427346B94663D360D05DB169
:1009E000B8EB030264EB090404FA06F622FA01F3F9
:1009F0001E43CC40C5E9006400214CE7620848086A
:100A000042EAC1710B0C43EA00438AB242EA034254
:100A1000B3FBF6F1E407B4463746B6461F23B0FBF6
:100A2000F6F0D21B41EA004161E7614614E7104647
:100A300028E7C3F1200120FA01F29E4027FA01F1D4
:100A40009F403A434FEA164E1FFA86FCB1FBFEF771
:100A50000EFB1710110C41EA004107FB0CF888450A
:100A600004FA03F43AD9711807F1FF3001D288452E
:100A70001FD8A1EB0801B1FBFEF808FB0CF70EFB39
:100A8000181192B242EA0142BA422FD2B21808F1CA
:100A9000FF31C6D2BA42C4D2A8F102013244C0E743
:100AA000F0459CD2BEEB020367EB0C070138B94658
:100AB00095E7A6EB08084144B81EB1FBFEF808FB19
:100AC0000CF7DCE73B467FE7504667E70846FBE666
:100AD0003444023832E7023F32441BE7A1EB0801FD
:100AE0003846B1FBFEF808FB0CF7C8E7414698E72B
:100AF000704700BF80B584B000AF17F049FC774B5A
:100B00005B6903F40033002B1BD1BFF34F8F00BF91
:100B1000BFF36F8F00BF714B0022C3F85022BFF3A9
:100B20004F8F00BFBFF36F8F00BF6C4B5B696B4A89
:100B300043F400335361BFF34F8F00BFBFF36F8F98
:100B400000E000BF654B5B6903F48033002B38D1B4
:100B5000624B0022C3F88420BFF34F8F00BF5F4B6E
:100B6000D3F88030FB60FB685B0BC3F30E03BB6004
:100B7000FB68DB08C3F309037B60BB685A0143F6DB
:100B8000E07313407A68920754491343C1F8603206
:100B90007B685A1E7A60002BEFD1BB685A1EBA6080
:100BA000002BE5D1BFF34F8F00BF4C4B5B694B4A25
:100BB00043F480335361BFF34F8F00BFBFF36F8F98
:100BC00000E000BF3FF0A0FB00F0C8F800F004FC1C
:100BD00000F08CFB00F0AAFB00F0DCF900F046F915
:100BE00000F066F900F0C2F900F058FA00F07EF962
:100BF00000F0E4FA00F096FA18F048FD00F0BAFAB6
:100C000000F028FB00F078FA18F0DCFD18F0D3FDB6
:100C100051F014FE324851F008FF0346314A136088
:100C2000314A0221402052F02DF903462F4A136029
:100C30002F4A0221402052F025F903462D4A136025
:100C40002D4A01214FF4006052F01CF903462B4A53
:100C500013602B4A01214FF4807052F013F90346C0
:100C6000284A1360284A0021284851F031FE0346E3
:100C7000274A1360274A0021274851F029FE0346DE
:100C8000264A1360264A0021264851F021FE0346D9
:100C9000254A1360254A0021254851F019FE0346D4
:100CA000244A1360244A0021244851F011FE0346CF
:100CB000234A1360234A0021234851F009FE0346CA
:100CC000224A1360224A0021224851F001FE0346C5
:100CD000214A136051F0D6FD00BFFDE700ED00E0B2
:100CE000C068080888D500246068080838CA00244D
:100CF000786808080CCB002490680808E0CB002432
:100D0000A868080834D4002464670808A1650108AD
:100D10002C66002488670808D5970108D876002437
:100D2000AC6708080D6E0108DC760024D06708085F
:100D3000716E010888870024F4670808ED6E0108C9
:100D40003498002418680808516F0108E0A80024AE
:100D50003C680808B56F01088CB9002480B59CB0C8
:100D600000AF07F124034C220021184676F083FFE0
:100D70003B1D20220021184676F07DFF042046F01E
:100D80009FFD00233B60374BDB6A364A23F00103AB
:100D9000D362344BDB6A03F001033B60324B9B6947
:100DA000314A43F4404393612F4B9B6903F4404322
:100DB0003B603B6800BF2C4B9B6903F40053B3F5C9
:100DC000005FF8D12B237B624FF48033BB62012399
:100DD0003B6340237B630123BB630123FB6302234B
:100DE000BB640223FB6405233B65A0237B650223D0
:100DF000BB650423FB6502233B6608237B66002357
:100E0000BB660023FB6607F12403184648F03CF854
:100E10000346002B01D017F005FB3F237B60032323
:100E2000BB600023FB6008233B6140237B614023C0
:100E3000BB614FF48063FB6140233B623B1D022199
:100E4000184648F0D1FD0346002B01D017F0EAFA0E
:100E50004FF480220021002049F036F900BF70379E
:100E6000BD4680BD000400580048025880B500AF60
:100E70000D4B0E4A1A600C4B00221A710A4B0022CD
:100E80005A71094B00225A61074B00229A61064BA6
:100E900001221A6204483FF0BDFD0346002B01D039
:100EA00017F0C0FA00BF80BD1C5F0024004C025840
:100EB00080B500AF0B4B0C4A1A600A4B4FF440321E
:100EC0005A60084B02229A60064B0022DA600548FD
:100ED00040F05CFC0346002B01D017F0A3FA00BFE2
:100EE00080BD00BF405F00240010005280B500AFFD
:100EF0001B4B1C4A1A601A4B1B4A5A60184B0022A3
:100F00009A60174B0122DA60154B00221A61144BCC
:100F100000225A61124B00229A61114B0022DA61C1
:100F20000F4B00221A620E4841F0A2FA0346002B32
:100F300001D017F077FA0021094842F01DF9034665
:100F4000002B01D017F06EFA0021054842F08AF913
:100F50000346002B01D017F065FA00BF80BD00BF2B
:100F6000A85F0024001C0058B634900080B500AF84
:100F7000064B074A1A60054842F0E8F90346002B81
:100F800001D017F04FFA00BF80BD00BFFC5F002406
:100F90000030005280B58EB000AF17F07FFA3B1DD5
:100FA00034220021184676F066FE3A4B3A4A1A601F
:100FB000384B00225A60374B00229A60354B002292
:100FC000DA60344B00221A61324B28225A61314BCD
:100FD00009229A612F4B3522DA612E4B0B221A62BD
:100FE0002C4B40F215225A622A4B40F21B129A6295
:100FF000284B40F23522DA62264B40F21D121A636A
:10100000244B002283F83420224B002283F8352021
:10101000204B002283F836201E4844F0EFF90346A7
:10102000002B01D017F0FEF900237B604FF4F07322
:10103000BB600023FB604FF488733B6102237B613C
:10104000FF23BB610023FB614FF480633B620523F8
:101050007B624FF05043BB624FF4F073FB624FF47E
:1010600088733B63002387F83430002387F83530DA
:10107000002387F836303B1D00221946054844F00E
:101080009BFB0346002B01D017F0CCF900BF38378B
:10109000BD4680BD2C6100240010005080B500AF1B
:1010A000124B134A1A60114B01225A600F4B012256
:1010B0009A600E4B1022DA600C4B1A221A610B4B0D
:1010C0004FF400725A61094B00229A61074B40228B
:1010D0001A62064846F070FC0346002B01D017F058
:1010E000A1F9044817F04EFA00BF80BDD461002476
:1010F000005000522584010880B500AF074B084A14
:101100001A60064B00225A6004484CF0E9FB034683
:10111000002B01D017F086F900BF80BD20620024AB
:101120000018024880B500AF104B114A1A600F4BEF
:1011300000225A600D4B7F229A600C4BFF22DA602E
:101140000A4B00221A61094B00229A61074B0022C8
:10115000DA61064B00225A6104484CF0C5FC034694
:10116000002B01D017F05EF900BF80BD346200246F
:101170000040005880B500AF0E4B0F4A1A600D4B6F
:1011800000225A600B4B00229A600A4B4FF4004237
:10119000DA60084B00221A61064B00225A610548AA
:1011A00045F0F6FB0346002B01D017F03BF900BFDA
:1011B00080BD00BF586200240070005280B500AFAF
:1011C000224B234A1A60214B4FF4E1325A601F4BE5
:1011D00000229A601D4B0022DA601C4B00221A612B
:1011E0001A4B0C225A61194B00229A61174B0022AC
:1011F000DA61164B00221A62144B00225A62134B1A
:1012000000229A6211484DF071FB0346002B01D079
:1012100017F008F900210D4850F054F90346002B4F
:1012200001D017F0FFF80021084850F0E5F9034617
:10123000002B01D017F0F6F8044850F0C9F8034627
:10124000002B01D017F0EEF800BF80BDD064002461
:101250000010014080B500AF224B234A1A60214B99
:101260004FF4E1325A601F4B00229A601D4B00225E
:10127000DA601C4B00221A611A4B0C225A61194B7E
:1012800000229A61174B0022DA61164B00221A6283
:10129000144B00225A62134B00229A6211484DF0FF
:1012A00025FB0346002B01D017F0BCF800210D48A8
:1012B00050F008F90346002B01D017F0B3F80021D5
:1012C000084850F099F90346002B01D017F0AAF80E
:1012D000044850F07DF80346002B01D017F0A2F827
:1012E00000BF80BD646500240044004080B582B02A
:1012F00000AF0D4BD3F8D4300B4A43F00103C2F8D2
:10130000D430094BD3F8D43003F001037B607B6801
:10131000002205217A203FF075F97A203FF09CF9F0
:1013200000BF0837BD4680BD0044025880B588B074
:1013300000AF3B1D00221A605A609A60DA601A61A1
:101340005A619A61214B224A1A60204B01225A604D
:101350001E4B00229A601D4B0422DA601B4B1022A8
:101360001A611A4B40225A61184B4FF480729A61ED
:10137000164B0022DA61154B4FF400621A62134BD0
:101380004FF480525A62114B00229A6202237B6012
:101390000623BB600423FB6006233B6102237B61C1
:1013A0000223BB610223FB613B1D194607484CF039
:1013B000FDFD0346002B01D017F034F8054817F067
:1013C00002F900BF2037BD4680BD00BFF86500248C
:1013D000404100522584010880B590B000AF07F16C
:1013E0002C0300221A605A609A60DA601A61A04BDE
:1013F000D3F8E0309E4A43F48063C2F8E0309C4B5F
:10140000D3F8E03003F48063BB62BB6A984BD3F837
:10141000E030974A43F04003C2F8E030944BD3F8F1
:10142000E03003F040037B627B6A914BD3F8E030FD
:101430008F4A43F00803C2F8E0308D4BD3F8E03018
:1014400003F008033B623B6A894BD3F8E030884ADB
:1014500043F00403C2F8E030854BD3F8E03003F0EA
:101460000403FB61FB69824BD3F8E030804A43F40C
:101470008073C2F8E0307E4BD3F8E03003F4807321
:10148000BB61BB697A4BD3F8E030794A43F0100373
:10149000C2F8E030764BD3F8E03003F010037B6104
:1014A0007B69734BD3F8E030714A43F00203C2F812
:1014B000E0306F4BD3F8E03003F002033B613B694F
:1014C0006B4BD3F8E0306A4A43F40073C2F8E03063
:1014D000674BD3F8E03003F40073FB60FB68644BA8
:1014E000D3F8E030624A43F00103C2F8E030604BC9
:1014F000D3F8E03003F00103BB60BB685C4BD3F86A
:10150000E0305B4A43F02003C2F8E030584BD3F898
:10151000E03003F020037B607B68554BD3F8E0306C
:10152000534A43F08003C2F8E030514BD3F8E03027
:1015300003F080033B603B68002208214D4840F0E7
:101540002FFF01224FF400514B4840F029FF0022A9
:1015500008214A4840F024FF00224021484840F03A
:101560001FFF01220421474840F01AFF0823FB62B5
:1015700001233B6300237B630023BB6307F12C0340
:1015800019463C4840F0F6FA4FF48073FB620223A0
:101590003B6300237B630023BB630023FB6307F1F2
:1015A0002C031946364840F0E5FA4FF40053FB622D
:1015B00001233B6300237B630023BB6307F12C0300
:1015C00019462D4840F0D6FA0823FB6201233B63FD
:1015D00000237B630323BB6307F12C0319462748D1
:1015E00040F0C8FA0423FB624FF404133B6300236A
:1015F0007B6307F12C031946204840F0BBFA4FF4F7
:101600004063FB6202233B6301237B630323BB63D1
:101610000723FB6307F12C0319461B4840F0AAFA85
:101620004023FB6201233B6300237B630323BB63F3
:1016300007F12C031946124840F09CFA0423FB6280
:1016400001233B6300237B630023BB6307F12C036F
:1016500019460C4840F08EFA0022052108203EF081
:10166000D1FF08203EF0F8FF00BF4037BD4680BDE7
:1016700000440258000C025800200258001802587A
:1016800000000258002402580004025890B587B0A8
:1016900002AFF860B9607A606FF0010200212C4857
:1016A00057F0F4FA03462B4A13602A4B1B68002BB1
:1016B0001DD10023009300231022F968244856F01E
:1016C000ADFD0346234A1360224B1B68002B10D14B
:1016D00010220021786876F0CEFA1023BA68796873
:1016E0001B4857F015FB03461A4A136002E000BF7F
:1016F00000E000BF164857F0E6FA164B1B68002BB7
:1017000020D0154B1B6841F28831184651F013FA6E
:10171000104B1B68114A1249124876F089F911489A
:10172000FEF7E8FD03469CB20E48FEF7E3FD0346D4
:1017300022460C490C484DF0A7F9074B1B68184688
:1017400051F044FA034B1B6818461437BD4690BD50
:10175000D01601240818012488D50024006908083F
:10176000B09E0708DCD50024D064002480B483B088
:1017700000AF78607B681B781B029BB27A680132ED
:10178000127813449BB218460C37BD465DF8047BB3
:10179000704780B483B000AF78607B681B781B0211
:1017A0007A680132127813441B027A680232127886
:1017B00013441B027A6803321278134418460C371C
:1017C000BD465DF8047B704790B583B000AF04461A
:1017D000084611461A462346FB710346BB710B4669
:1017E0007B7113463B71FB796433114A5361BB79BA
:1017F000013B0F4A13617B790D4AD3603B790C4A58
:1018000093603B7E0A4A53603B7F094A1360084855
:1018100076F05CFB02460B460649C1E90023054B06
:10182000D3E90023134618460C37BD4690BD00BFD0
:101830000C1801243018012490B583B000AF7860F3
:1018400039607B681133184600F056F87B68581CE5
:101850007B6811333A681946FFF718FF03461F4AA1
:1018600013601E4B1B68002B0CD1202200211C484A
:1018700076F001FA1A49786800F0AEF80346174A84
:10188000136000E000BF154B1B68002B20D0154BE8
:101890001B6841F28831184651F04DF90F4B1B6817
:1018A000114A1249124876F0C3F81148FEF722FD9A
:1018B00003469CB20E48FEF71DFD034622460C4926
:1018C0000C484DF0E1F8074B1B68184651F07EF9C3
:1018D000024B1B6818460C37BD4690BD38180124D2
:1018E0003C18012488D5002418690808B09E070810
:1018F000DCD50024D064002480B485B000AF7860CB
:101900000F23FB600CE0FB687A6813441A780132FD
:10191000D2B21A701B78002B06D1FB68013BFB602A
:10192000FB68002BEFDA00E000BF00BF1437BD46B4
:101930005DF8047B7047000090B585B000AFF8609B
:10194000B9607A6020237A68B9681C4800F060FDAD
:101950001A49F86800F040F80346194A1360FB681A
:1019600001221A70164B1B68002B20D0154B1B68E8
:1019700041F28831184651F0DEF8114B1B68124ACB
:101980001249134876F054F81148FEF7B3FC0346A9
:101990009CB20F48FEF7AEFC034622460C490D48A8
:1019A0004DF072F8074B1B68184651F00FF9044BC5
:1019B0001B6818461437BD4690BD00BF5C18012453
:1019C0007C18012488D500243C690808B09E0708CB
:1019D000DCD50024D0640024B0B584B000AF7860BA
:1019E00039607B6811331846FFF786FF7B68581C07
:1019F0007B681133414A1946FFF748FE0346404AC7
:101A000013603F4B1B68002B49D13E4A3B4B1446A9
:101A10000FCB84E80F007B6811331846FFF76CFF8B
:101A20007B68581C7B681133344A1946FFF72EFE39
:101A30000346334A1360324B1B68002B31D1324AC4
:101A40002E4B14461D460FCD20606160A260E360FE
:101A50000023FB6011E02B4AFB6813441A78FB68F3
:101A600039680B441B785340D9B2264AFB681344AB
:101A70000A461A70FB680133FB60FB681F2BEAD92A
:101A80007B68013310221F49184676F0C0FF7B683F
:101A9000113310221C49184676F0B9FF02E000BF4E
:101AA00000E000BF164B1B68002B20D0174B1B68B3
:101AB00041F28831184651F03EF8114B1B68144A28
:101AC0001449154875F0B4FF1348FEF713FC03469C
:101AD0009CB21148FEF70EFC034622460E490F4801
:101AE0004CF0D2FF094B1B68184651F06FF8044BBD
:101AF0001B6818461037BD46B0BD00BF80180124D2
:101B00009018012494180124A418012488D50024D5
:101B100058690808B09E0708DCD50024D06400246A
:101B200080B582B000AF78607B680133102200215D
:101B3000184676F0A0F87B68113310220021184671
:101B400076F099F87B68213310220021184676F050
:101B500092F87B6800221A7000BF0837BD4680BD2E
:101B600090B583B000AF7860544B1B68184651F0B5
:101B7000BBFA03469AB2524B1A80514B1B88002B7A
:101B800000F095804F4B1B6841F28831184650F0A9
:101B9000D2FF4B4B1B884C4A4C494D4875F048FFCF
:101BA0004B48FEF7A7FB03469CB24948FEF7A2FB51
:101BB00003462246464947484CF066FF414B1B68A6
:101BC000184651F003F8444B00221A803CE03B4B8E
:101BD000186800230022414951F028FA0346404A80
:101BE00013603F4B1B68002B20D0364B1B6841F223
:101BF0008831184650F09FFF394B1B68324A3949EB
:101C0000334875F015FF3248FEF774FB03469CB26B
:101C10002F48FEF76FFB034622462D492D484CF016
:101C200033FF284B1B68184650F0D0FF2A4B1B8807
:101C30001A467B681344294A12781A70264B1B886F
:101C400001339AB2244B1A801C4B1B68184651F082
:101C50004BFA0346002B05D01F4B1B8840F6FD7244
:101C60009342B4D91C4B1A88154B1A80154B1B682C
:101C700041F28831184650F05EFF114B1B88124A22
:101C80001949134875F0D4FE1148FEF733FB03469B
:101C90009CB20F48FEF72EFB034622460C490D4826
:101CA0004CF0F2FE074B1B68184650F08FFF044BB8
:101CB0001B8818460C37BD4690BD00BF34D40024A5
:101CC000B418012488D5002470690808DC9E070830
:101CD000DCD50024D0640024B6180124B8180124EF
:101CE000BC180124049F07083C9F070890B583B0E7
:101CF00000AF78607B681B682F4A934216D12F4B48
:101D00001A782F4B1A702F4B1868002300222C4989
:101D100051F02CF903462C4A1360012227492B4825
:101D20004CF040FF03461A46294B1A707B681B682B
:101D3000284A93423BD1284B1A78284B1A70284BDB
:101D4000186800230022254951F010F903461E4A65
:101D500013601D4B1B68002B20D0224B1B6841F2E7
:101D60008831184650F0E7FE174B1B681E4A1F4982
:101D70001F4875F05DFE1E48FEF7BCFA03469CB294
:101D80001B48FEF7B7FA0346224619490F484CF0A4
:101D90007BFE144B1B68184650F018FF01220E49B9
:101DA00014484CF0FFFE03461A46094B1A7000BF58
:101DB0000C37BD4690BD00BF0010014011EE00245D
:101DC000C018012434D40024C4180124D064002491
:101DD000C81801240044004010EE0024C918012452
:101DE000E0CB002488D500248C690808649F07088C
:101DF000DCD500246465002490B585B000AFF860A0
:101E00007B600B467B8113467B72A84B1B6841F2BB
:101E10008831184650F08FFEA54B00221A80E3E06F
:101E20007B7A002B1ED0A24B1B8803F00F039BB2C2
:101E3000002B17D19E4B1B881A467B6813441A4609
:101E40009C499D4875F0F4FD9B48FEF753FA034604
:101E50009CB29948FEF74EFA0346224696499748A7
:101E60004CF012FE924B1B881A46FB6813441B78F9
:101E70001A469349904875F0DBFD8F48FEF73AFA11
:101E800003469CB28C48FEF735FA034622468A493F
:101E90008A484CF0F9FD8B49874875F0C9FD8648A2
:101EA000FEF728FA03469CB28348FEF723FA03465E
:101EB0002246814981484CF0E7FD7D4B1B8803F0A9
:101EC0000F039BB2072B11D17F497B4875F0B0FD02
:101ED0007948FEF70FFA03469CB27748FEF70AFAF4
:101EE00003462246744975484CF0CEFD704B1B8862
:101EF00003F00F039BB20F2B70D173496E4875F03E
:101F000097FD6D48FEF7F6F903469CB26A48FEF766
:101F1000F1F903462246684968484CF0B5FD644B28
:101F20001B880F3B9AB2694B1A803FE0674B1B88B6
:101F30001A46FB6813441B780133654A13441B7827
:101F400003F09703002B19D0604B1B881A46FB68DF
:101F500013441B781A465F49574875F069FD564887
:101F6000FEF7C8F903469CB25348FEF7C3F903468F
:101F70002246514951484CF087FD11E056494E48E0
:101F800075F056FD4C48FEF7B5F903469CB24A4839
:101F9000FEF7B0F903462246474948484CF074FD25
:101FA0004A4B1B8801339AB2484B1A80404B1A881F
:101FB000464B1B889A42B9D248493F4875F038FDD4
:101FC0003D48FEF797F903469CB23B48FEF792F96D
:101FD00003462246384939484CF056FD344B1B889D
:101FE00001339AB2324B1A80314B1B887A899A425C
:101FF0003FF616AF7B8903F00F039BB2002B00F076
:10200000C8807B8903F00F039AB2304B1A8017E027
:102010003349294875F00CFD2748FEF76BF9034654
:102020009CB22548FEF766F903462246224923481A
:102030004CF02AFD254B1B8801339AB2234B1A80A2
:10204000224B1B880F2BE3D97B8903F008039BB23B
:10205000002B11D11C49184875F0EAFC1648FEF710
:1020600049F903469CB21448FEF744F90346224658
:10207000114912484CF008FD13490F4875F0D8FC7F
:102080000D48FEF737F903469CB20B48FEF732F9CC
:1020900003462246084909484CF0F6FC7B8923F0A8
:1020A0000F039AB2094B1A805CE000BF88D5002468
:1020B000CA1801249C9F0708DCD50024D0640024A2
:1020C000B09F0708B89F0708BC9F0708CC180124D9
:1020D00080C70808C49F0708C89F0708CC9F070847
:1020E000D09F07082F4B1B881A46FB6813441B78A8
:1020F00001332D4A13441B7803F09703002B19D0AA
:10210000284B1B881A46FB6813441B781A4627493C
:10211000274875F08DFC2648FEF7ECF803469CB284
:102120002348FEF7E7F803462246214921484CF0B0
:10213000ABFC11E020491E4875F07AFC1C48FEF704
:10214000D9F803469CB21A48FEF7D4F80346224653
:10215000174918484CF098FC124B1B8801339AB26F
:10216000104B1A800F4B1B887A899A42BAD81349B0
:102170000F4875F05DFC0E48FEF7BCF803469CB2B4
:102180000B48FEF7B7F803462246094909484CF0C8
:102190007BFC0B4B1B68184650F018FD00BF143732
:1021A000BD4690BDCC18012480C70808C49F07080D
:1021B000DCD50024D0640024C89F0708CC9F070802
:1021C00088D5002490B583B002AF654B1B684FF4EF
:1021D0007A71184650F0AFFC6249634875F028FCEC
:1021E0006148FEF787F803469CB25F48FEF782F825
:1021F000034622465C495D484CF046FC59495A4822
:1022000075F016FC5848FEF775F803469CB2564820
:10221000FEF770F803462246534954484CF034FC0C
:102220005049514875F004FC4F48FEF763F80346E7
:102230009CB24D48FEF75EF8034622464A494B4899
:102240004CF022FC4A49484875F0F2FB4648FEF73C
:1022500051F803469CB24448FEF74CF80346224628
:10226000414942484CF010FC42493F4875F0E0FBC0
:102270003D48FEF73FF803469CB23B48FEF73AF86C
:1022800003462246384939484CF0FEFB3A49364865
:1022900075F0CEFB3448FEF72DF803469CB2324869
:1022A000FEF728F8034622462F4930484CF0ECFB55
:1022B00041230193314B0093314B314A31492A4834
:1022C00075F0B6FB2848FEF715F803469CB2264881
:1022D000FEF710F803462246234924484CF0D4FB6D
:1022E000294A2A49204875F0A3FB1F48FEF702F847
:1022F00003469CB21C48FDF7FDFF034622461A49DF
:102300001A484CF0C1FB2249174875F091FB16485A
:10231000FDF7F0FF03469CB21348FDF7EBFF0346C1
:102320002246114911484CF0AFFB12490E4875F096
:102330007FFB0D48FDF7DEFF03469CB20A48FDF720
:10234000D9FF03462246084908484CF09DFB044B40
:102350001B68184650F03AFC00BF0437BD4690BDDC
:1023600088D50024D49F0708DCD50024D06400243D
:1023700000A0070808A0070850A00708CCA007087D
:1023800098A007089CA00708D0A00708DCA00708B1
:1023900004A1070880B483B000AF0346FB80B7F9FF
:1023A00006301B021AB2FB881B0A9BB21BB21343F6
:1023B0001BB29BB218460C37BD465DF8047B7047D4
:1023C00080B483B000AF78607B681A0E7B681B0A0C
:1023D00003F47F431A437B681B0203F47F031A4311
:1023E0007B681B06134318460C37BD465DF8047B1B
:1023F0007047000080B500AF034904484BF01EFB56
:10240000014B1B68184680BDD018012420620024AF
:1024100080B487B000AFF860B9607A607B80002339
:10242000FB8210E0FB8ABA6813441978FB8A7A6849
:1024300013441A78FB8AF86803444A40D2B21A70EF
:10244000FB8A0133FB82FA8A7B889A42EAD300BF77
:1024500000BF1C37BD465DF8047B704790B58BB05C
:1024600004AF03463960FB800023BB82FB88002B4E
:1024700023D0FB88A3F58073002B00DA0733DB1031
:10248000FB75FB88DBB203F00703BB75FB880133E8
:102490003B823B8AA3F58073002B00DA0733DB1005
:1024A000FB753B8AA3F580735A4203F0070302F0E1
:1024B000070258BF5342BB7503E00023FB7500239E
:1024C000BB75FB7DFB7454E0BB7DBB7449E0FB7CBA
:1024D0003A6813441B781A46BB7C42FA03F303F0B4
:1024E0000103002B3AD0FB7C20339BB2DB009AB275
:1024F000BB7C9BB21344BB82FB7CFB73BB7CBB737A
:10250000314B1B6841F28831184650F014FBB88AF1
:10251000FB7BBA7BB97B012404FA01F102910192A1
:1025200000930346294A2A492A4875F081FA294826
:10253000FDF7E0FE03469CB22648FDF7DBFE0346AE
:102540002246244924484CF09FFA1F4B1B6818462A
:1025500050F03CFB0823BB748023FB74BB7C01332D
:10256000BB74BB7C072BB2D90023BB75FB7C01334A
:10257000FB7497F91330002BA6DABB8A002B1ED10F
:10258000114B1B6841F28831184650F0D4FA0F4ABB
:102590001249104875F04CFA0E48FDF7ABFE0346A1
:1025A0009CB20C48FDF7A6FE0346224609490A489C
:1025B0004CF06AFA044B1B68184650F007FBBB8AC4
:1025C00018461C37BD4690BD88D50024A46908086C
:1025D00000A20708DCD50024D06400245CA2070810
:1025E000B0B58EB006AF0346FB71FB79002B45D129
:1025F0009B4B1B6841F28831184650F09CFA994A6F
:1026000099499A4875F014FA9848FDF773FE034605
:102610009CB29648FDF76EFE0346224693499448C5
:102620004CF032FA8E4B1B68184650F0CFFA914BA3
:1026300000221A608A4B1B6841F28831184650F01C
:102640007AFA884A8C49894875F0F2F98748FDF78B
:1026500051FE03469CB28548FDF74CFE03462246D8
:10266000824983484CF010FA7D4B1B68184650F0A5
:10267000ADFA824B00221A7002F036BCFB79012BB6
:1026800042F0D3837E4B9A787E4B1B789A4208D0D7
:102690007B4B9A787B4B1A70764B1B680133754ADB
:1026A0001360744B1B68B3F5967F26D9714B0022DB
:1026B0001A606B4B1B6841F28831184650F03BFAA8
:1026C000714B1B78674A7149684875F0B1F96748E2
:1026D000FDF710FE03469CB26448FDF70BFE03466F
:1026E0002246624962484CF0CFF95D4B1B681846A0
:1026F00050F06CFA614B0B221A70604B1B78002B68
:102700007AD1614B1B781946614A582301FB03F3C8
:10271000134414331B78042B42F0E68312F07CFA46
:1027200003461A465B4B1A70502200215A4875F036
:10273000A2FA594B9F221A70574B04225A70484BE9
:102740001B6841F28831184650F0F5F9454A534963
:10275000464875F06DF94548FDF7CCFD03469CB23F
:102760004248FDF7C7FD03462246404940484CF029
:102770008BF93B4B1B68184650F028FA424B1B78EC
:102780001946434A582301FB03F3134416331888B0
:10279000404B1B78009301233F4A022111F014FCA7
:1027A000344B00221A603E4B00221A702C4B1B68DF
:1027B00041F28831184650F0BEF9334B1B78294A54
:1027C00038492A4875F034F92848FDF793FD034647
:1027D0009CB22648FDF78EFD034622462349244835
:1027E0004CF052F91E4B1B68184650F0EFF9234B82
:1027F00001221A7002F078BB204B1B78012B40F0AD
:10280000DD81274B1B78002B02F06E83264B1B7853
:10281000002B4DD1124B1B6841F28831184650F005
:102820008AF9194B1B780F4A2049104875F000F9B6
:102830000E48FDF75FFD03469CB20C48FDF75AFDBC
:102840000346224609490A484CF01EF9044B1B680E
:10285000184650F0BBF9094B0B221A7002F044BB2A
:1028600088D50024C069080884A20708DCD50024A4
:10287000D0640024D418012498A20708D818012491
:10288000DCED00241600002414000024C8A2070870
:1028900034120124EC130124DC18012418A30708C6
:1028A0007714012430A30708781401246CA30708C7
:1028B000AF4B00221A60AF4B1B78184612F0BEF9DE
:1028C00003461A46AB4B1A7050220021AA4875F0F5
:1028D000D2F9A94B9F221A70A74B06225A70A64B19
:1028E00000229A70A44B0222DA70A34B01221A71C3
:1028F000A24B1B781946A24A582301FB03F3134449
:1029000011331B7803F00403002B22D09D4B1B686E
:1029100041F28831184650F00EF99B4A9B499C4879
:1029200075F086F89A48FDF7E5FC03469CB2984896
:10293000FDF7E0FC03462246954996484CF0A4F882
:10294000904B1B68184650F041F98B4B04225A718A
:1029500083E08A4B1B781946894A582301FB03F30D
:10296000134411331B7803F00203002B22D0854B54
:102970001B6841F28831184650F0DDF8824A8649DA
:10298000834875F055F88248FDF7B4FC03469CB2C5
:102990007F48FDF7AFFC034622467D497D484CF059
:1029A00073F8784B1B68184650F010F9724B0222EE
:1029B0005A7152E0714B1B781946714A582301FB3A
:1029C00003F3134411331B7803F00103002B22D0CF
:1029D0006C4B1B6841F28831184650F0ACF86A4ADB
:1029E0006E496B4875F024F86948FDF783FC03468F
:1029F0009CB26748FDF77EFC034622466449654861
:102A00004CF042F85F4B1B68184650F0DFF85A4B09
:102A100001225A7121E05B4B1B6841F28831184654
:102A200050F089F8584A5E49594875F001F85848FD
:102A3000FDF760FC03469CB25548FDF75BFC03467E
:102A40002246534953484CF01FF84E4B1B6818461A
:102A500050F0BCF8484B00225A714A4B1B6841F2B7
:102A60008831184650F067F8444B1B78464A4D4968
:102A7000474874F0DDFF4648FDF73CFC03469CB236
:102A80004348FDF737FC03462246414941484BF095
:102A9000FBFF3C4B1B68184650F098F8374B1B78EF
:102AA0001846354B5979364A582300FB03F3134433
:102AB00012330A461A70334B1B6841F288311846AC
:102AC00050F039F8304A3849314874F0B1FF304895
:102AD000FDF710FC03469CB22D48FDF70BFC0346A6
:102AE00022462B492B484BF0CFFF264B1B6818463C
:102AF00050F06CF8214B1B781946214A582301FBF2
:102B000003F31344163318881A4B1B7800930123E0
:102B1000194A062111F058FA244B00221A70244B4E
:102B200000221A70174B1B6841F28831184650F08A
:102B300002F8124B1B78144A1E49154874F078FFAE
:102B40001348FDF7D7FB03469CB21148FDF7D2FBB3
:102B5000034622460E490F484BF096FF094B1B686F
:102B6000184650F033F8144B02221A7002F0BCB928
:102B7000D4180124EC130124DC18012414000024CF
:102B80003412012488D50024C0690808ACA30708C2
:102B9000DCD50024D0640024C8A30708E8A30708F4
:102BA0000CA407085CA4070880A407087914012472
:102BB0007A14012498A40708D8180124944B1B7890
:102BC000022B40F04D81934B1B78002B02F08C813F
:102BD000914B1B78002B25D0904B1B6841F288311C
:102BE00018464FF0A8FF8E4B1B788E4A8E498F48AF
:102BF00074F01EFF8D48FDF77DFB03469CB28B48A9
:102C0000FDF778FB03462246884989484BF03CFF94
:102C1000824B1B6818464FF0D9FF7D4B0B221A7070
:102C200002F062B9834B00221A608349834802F0A4
:102C30007DF9F860FB68002B1FD0784B1B6841F2D0
:102C4000883118464FF077FFFB68764A7C49774811
:102C500074F0EEFE7548FDF74DFB03469CB27348D9
:102C6000FDF748FB03462246704971484BF00CFFC4
:102C70006A4B1B6818464FF0A9FF724B1B78184629
:102C800011F0DCFF03461A466E4B1A7050220021E9
:102C90006D4874F0F0FF6C4B9F221A706A4B08224B
:102CA0005A70694B01229A70674B634ADC1C1546C7
:102CB0000FCD20606160A260E3600FCD2061616193
:102CC000A261E361554B1B6841F2883118464FF011
:102CD00032FF544A5D49554874F0AAFE5348FDF747
:102CE00009FB03469CB25148FDF704FB034622460C
:102CF0004E494F484BF0C8FE484B1B6818464FF0F2
:102D000065FF474B1B781946514A582301FB03F3D3
:102D10001344163318884B4B1B78009301234A4AFF
:102D2000232111F051F912F0FFFCB860BB68002BB1
:102D300028D1484B00221A70384B1B6841F2883169
:102D400018464FF0F8FE364B1B78364A4249374852
:102D500074F06EFE3548FDF7CDFA03469CB2334859
:102D6000FDF7C8FA03462246304931484BF08CFE45
:102D70002A4B1B6818464FF029FF254B03221A7077
:102D800002F0B2B8254B1B6841F2883118464FF06B
:102D9000D2FE244A3149254874F04AFE2348FDF703
:102DA000A9FA03469CB22148FDF7A4FA034622463D
:102DB0001E491F484BF068FE184B1B6818464FF021
:102DC00005FF164B1B6841F2883118464FF0B3FEE1
:102DD000134B1B78134A1449144874F029FE134806
:102DE000FDF788FA03469CB21048FDF783FA0346C4
:102DF00022460E490E484BF047FE084B1B6818460A
:102E00004FF0E4FE024B0B221A7002F06DB800BFC7
:102E1000D8180124791401247A14012488D50024B7
:102E200014000024C0690808DCA40708DCD50024CD
:102E3000D0640024D418012480140124A014012497
:102E400020A50708EC130124DC18012464A5070859
:102E5000341201247B140124B8A5070808A607082A
:102E6000B04B1B78032B40F09981AF4B1B78002BA4
:102E700002F03A80AD4B00221A60AD4B1B6841F264
:102E8000883118464FF057FEAA4AAB49AB4874F058
:102E9000CFFDAA48FDF72EFA03469CB2A748FDF7DE
:102EA00029FA03462246A549A5484BF0EDFDA04B63
:102EB0001B6818464FF08AFEA24B1B78184611F08B
:102EC000BDFE03461A469F4B1A70502200219E48B1
:102ED00074F0D1FE9C4B9F221A709B4B02225A70B9
:102EE000984B1A78984B9A70974B0122DA70904B56
:102EF0001B6841F2883118464FF01DFE8D4A9349F8
:102F00008E4874F095FD8D48FDF7F4F903469CB2A8
:102F10008A48FDF7EFF903462246884988484BF076
:102F2000B3FD834B1B6818464FF050FE884857F09E
:102F3000E8FF0346874A1360864B1B68002B20D0AE
:102F40007B4B1B6841F2883118464FF0F4FD814BF2
:102F50001B68784A8049794874F06AFD7748FDF724
:102F6000C9F903469CB27548FDF7C4F903462246E9
:102F7000724973484BF088FD6D4B1B6818464FF043
:102F800025FE10227549724858F026F80346714A0A
:102F90001360704B1B68002B20D0654B1B6841F2FF
:102FA000883118464FF0C7FD6A4B1B68614A6C496F
:102FB000624874F03DFD6148FDF79CF903469CB200
:102FC0005E48FDF797F9034622465C495C484BF0A2
:102FD0005BFD574B1B6818464FF0F8FD544B1B68C0
:102FE00041F2883118464FF0A6FD524A5D495348D8
:102FF00074F01EFD5148FDF77DF903469CB24F4821
:10300000FDF778F9034622464C494D484BF03CFD0C
:10301000474B1B6818464FF0D9FD4B4B4F4A1C1DC0
:1030200013460FCB84E80F00494858F02CF80346AC
:10303000484A1360474B1B68002B20D03C4B1B6851
:1030400041F2883118464FF076FD424B1B68394AF1
:1030500045493A4874F0ECFC3848FDF74BF9034613
:103060009CB23648FDF746F90346224633493448B8
:103070004BF00AFD2E4B1B6818464FF0A7FD2C4B5A
:103080001B6841F2883118464FF055FD294A3749EF
:103090002A4874F0CDFC2948FDF72CF903469CB270
:1030A0002648FDF727F903462246244924484BF0D9
:1030B000EBFC1F4B1B6818464FF088FD00230022D5
:1030C00010212648FEF798FE294B1B781946294AFD
:1030D000582301FB03F3134416331888194B1B784C
:1030E00000930123184A142110F06EFF224B002296
:1030F0001A700F4B1B6841F2883118464FF01BFDC8
:103100001B4B1B780B4A1D490C4874F091FC0B4873
:10311000FDF7F0F803469CB20848FDF7EBF80346CC
:1031200022462DE0D81801247B140124D418012450
:1031300088D50024C06908084CA60708DCD50024FF
:10314000D0640024EC130124DC18012470A60708C5
:10315000C01401242C190124C0A607080815012455
:10316000F8A607083CA7070880A70708B8A707081C
:1031700014000024341201247C140124F8A7070849
:1031800029492A484BF080FC294B1B6818464FF010
:103190001DFD284B04221A7001F0A6BE254B1B789A
:1031A000042B40F0EF85244B1B78002B01F09C860C
:1031B000214B00221A70214B00221A60204B1B78F1
:1031C000002B29D112F0A0FE03461C4A13601B4BB2
:1031D0001B68002B20D0164B1B6841F28831184623
:1031E0004FF0A9FC154B1B68164A17490E4874F09E
:1031F0001FFC0D48FDF77EF803469CB20A48FDF718
:1032000079F803462246084908484BF03DFC084B34
:103210001B6818464FF0DAFC0C4B00221A600123A1
:10322000FB7700F01ABD00BFDCD50024D064002479
:1032300088D50024D81801247C14012430190124D5
:1032400028150124C06908084CA80708341901246E
:10325000FB7F013BFB77B349B348FEF7EDFA03462A
:10326000B24A1360B14B1B68002B20D0B04B1B68D7
:1032700041F2883118464FF05EFCAC4B1B68AD4AFA
:10328000AD49AE4874F0D4FBAC48FDF733F80346C3
:103290009CB2AA48FDF72EF803462246A749A84843
:1032A0004BF0F2FBA24B1B6818464FF08FFCA04B73
:1032B0001B6841F2883118464FF03DFC9D4AA149F8
:1032C0009E4874F0B5FB9D48FDF714F803469CB288
:1032D0009A48FDF70FF803462246984998484BF064
:1032E000D3FB934B1B6818464FF070FC0023002261
:1032F00010218C48FEF780FD6FF0010200219248FA
:1033000055F0C4FC0346914A1360904B1B68002B98
:1033100020D0874B1B6841F2883118464FF00BFCD8
:103320008A4B1B68834A8A49844874F081FB83482E
:10333000FCF7E0FF03469CB28048FCF7DBFF034646
:1033400022467E497E484BF09FFB794B1B6818460E
:103350004FF03CFC10227F497B4854F0BAFF0346F3
:103360007D4A13607C4B1B68002B20D0704B1B6880
:1033700041F2883118464FF0DEFB774B1B686D4AEF
:1033800076496E4874F054FB6C48FCF7B3FF034673
:103390009CB26A48FCF7AEFF03462246674968487C
:1033A0004BF072FB624B1B6818464FF00FFC604BF2
:1033B0001B6841F2883118464FF0BDFB5D4A6849F1
:1033C0005E4874F035FB5D48FCF794FF03469CB201
:1033D0005A48FCF78FFF03462246584958484BF09D
:1033E00053FB534B1B6818464FF0F0FB5D4B1B78AB
:1033F0001946002300225C48FEF7FEFC4C4B1B687C
:1034000041F2883118464FF096FB564B1B78494ADB
:1034100056494A4874F00CFB4848FCF76BFF0346DA
:103420009CB24648FCF766FF03462246434944489F
:103430004BF02AFB3E4B1B6818464FF0C7FB3C4B3A
:103440001B6841F2883118464FF075FB394A4849EC
:103450003A4874F0EDFA3948FCF74CFF03469CB249
:103460003648FCF747FF03462246344934484BF0C0
:103470000BFB2F4B1B6818464FF0A8FB00230022C4
:103480000D212848FEF7B8FC294B1B6841F2883112
:1034900018464FF050FB274A3649284874F0C8FABE
:1034A0002648FCF727FF03469CB22448FCF722FF7E
:1034B00003462246214922484BF0E6FA1C4B1B6882
:1034C00018464FF083FB2C4B1B7819460023002233
:1034D0002A48FEF791FC164B1B6841F288311846CA
:1034E0004FF029FB244B1B78124A2549134874F0EE
:1034F0009FFA1248FCF7FEFE03469CB20F48FCF709
:10350000F9FE034622460D490D484BF0BDFA084B23
:103510001B6818464FF05AFB054B1B6841F2883177
:1035200030E000BF49150124281501243819012471
:1035300088D50024C069080880A80708DCD50024C5
:10354000D0640024B0A807083C190124741A01248F
:10355000E0A80708D8140124781A01240CA9070848
:103560003CA907085C1601245C1501245CA9070826
:1035700088A90708A8A9070868160124601601246D
:10358000C4A9070818464FF0D6FA5F4A5F49604859
:1035900074F04EFA5E48FCF7ADFE03469CB25C4800
:1035A000FCF7A8FE0346224659495A484BF06CFAEC
:1035B000594B1B6818464FF009FB584B1B781946AE
:1035C000002300225648FEF717FC534B1B6841F2BC
:1035D000883118464FF0AFFA504B1B784A4A514990
:1035E0004B4874F025FA4A48FCF784FE03469CB227
:1035F0004748FCF77FFE03462246454945484BF0C5
:1036000043FA454B1B6818464FF0E0FA10220021A0
:10361000454874F030FB454B1B781946444B1B78EA
:103620001A463E4B1B7805933D4B04930392414B46
:1036300002930D230193404B00930B463F4A3A49B6
:103640003F4855F0D9F803463E4A13603D4B1B688E
:10365000002B20D0304B1B6841F2883118464FF0C8
:103660006AFA384B1B68284A3749294874F0E0F950
:103670002748FCF73FFE03469CB22548FCF73AFE7C
:1036800003462246224923484BF0FEF9224B1B6891
:1036900018464FF09BFA204B1B6841F288311846C0
:1036A0004FF049FAFB7F184A2849194874F0C0F9CD
:1036B0001748FCF71FFE03469CB21548FCF71AFE9C
:1036C00003462246124913484BF0DEF9124B1B68A1
:1036D00018464FF07BFA154B1B7819460023002241
:1036E0001148FEF789FB164855F0EDFA184B1B6898
:1036F000002B31D1174B1B68002B2DD1114B1B68B0
:10370000002B29D1012328E0C0690808F0A9070887
:10371000DCD50024D064002488D500248C16012434
:103720006C16012408AA07087C1A01245C160124DF
:103730006816012460160124491501245C15012432
:103740003C1901248C1A012434AA070868AA070826
:10375000741A0124781A01240023B24A1360B14B71
:103760001B68002B00F07982AF4B1B6841F2883157
:1037700018464FF0E0F9AD49AD4874F059F9AC483E
:10378000FCF7B8FD03469CB2A948FCF7B3FD03461D
:103790002246A749A7484BF077F9A34B1B68184668
:1037A0004FF014FAA44BA54A1A60A54B1A78A54B02
:1037B0001A70A14B1B681B781A46A34B53F8223092
:1037C0009847994B1B6841F2883118464FF0B3F97E
:1037D0009E49974874F02CF99548FCF78BFD0346F9
:1037E0009CB29348FCF786FD0346224690499148D7
:1037F0004BF04AF98C4B1B6818464FF0E7F9944B95
:1038000000221A60884B1B6841F2883118464FF03D
:1038100092F9904A9049864874F00AF98448FCF776
:1038200069FD03469CB28248FCF764FD03462246CC
:103830007F4980484BF028F97B4B1B6818464FF0B6
:10384000C5F9864B9B7843F00103DAB2834B9A703B
:10385000754B1B6841F2883118464FF06CF980496E
:10386000734874F0E5F87248FCF744FD03469CB2D7
:103870006F48FCF73FFD034622466D496D484BF00B
:1038800003F9694B1B6818464FF0A0F9002300228A
:1038900006217248FEF7B0FA674B704A1A60694B0E
:1038A00006221A70644B1B681B781A46664B53F845
:1038B000223098475C4B1B6841F2883118464FF024
:1038C0003AF968495A4874F0B3F85948FCF712FDC0
:1038D00003469CB25648FCF70DFD03462246544968
:1038E00054484BF0D1F8504B1B6818464FF06EF916
:1038F0005D4B1B78184611F0A1F903461A465A4B46
:103900001A7050220021594874F0B5F9574B9F2284
:103910001A70564B03225A70534B1A78534B9A70B5
:10392000524B0022DA700623FB75514B04221A70A9
:103930004F4B1A78FB7D1344DBB20833DAB24D4BA0
:103940001A704D494D48FDF777FF03464C4A136006
:103950004B4B1B68002B20D0334B1B6841F2883146
:1039600018464FF0E8F8464B1B683A4A454930483C
:1039700074F05EF82E48FCF7BDFC03469CB22C4860
:10398000FCF7B8FC0346224629492A484BF07CF84C
:10399000254B1B6818464FF019F9234B1B6841F261
:1039A000883118464FF0C7F82A4A3749204874F042
:1039B0003FF81F48FCF79EFC03469CB21C48FCF7EE
:1039C00099FC034622461A491A484BF05DF8164BFB
:1039D0001B6818464FF0FAF80023002210212648F1
:1039E000FEF70AFA20220021284874F044F9284BF7
:1039F0001B881846FEF7CEFC03461A46234B1A8056
:103A0000244B1B781946244A582301FB03F3134423
:103A100016331B881846FEF7BDFC03461A461B4B9F
:103A20005A803BE03419012488D50024C8AA07082D
:103A3000DCD50024D06400242C1201247C1A01243B
:103A40005C16012430120124780D01240CAB070808
:103A5000D4180124C069080850AB0708D014012409
:103A60007CAB0708D4AB0708EC130124DC18012455
:103A7000901A0124911A01244915012428150124C2
:103A80003819012480A80708B0A80708941A01244F
:103A90007414012414000024341201249C4B1B686C
:103AA0001846FEF78DFC03469A4A53609A4B1B78E2
:103AB0001846FEF76FFC03461A46964B1A81974B41
:103AC0009A78944B9A72954BDA78924BDA72944BBF
:103AD0000C221A706FF001020021924855F0D6F8BE
:103AE0000346914A1360102290498E4854F0F1FB2E
:103AF00003468F4A13608F4B1B781A46874BD118A9
:103B0000FA7D8C4B1B781846FB7D034483480344A5
:103B10008348007805907F48049008200390029322
:103B20000D230193844B00931346844A7D4854F03F
:103B300006FD38617B4855F0C6F87B4B1B68002BAF
:103B400006D17B4B1B68002B02D13B69002B26D092
:103B50007B4B1B6841F2883118464EF0ECFF724BEC
:103B60001968734B1B683A69019200930B46754ABA
:103B70007549764873F05CFF7448FCF7BBFB03465D
:103B80009CB27248FCF7B6FB034622466F49704868
:103B90004AF07AFF6A4B1B6818464FF017F8684BDB
:103BA0001B6841F2883118464EF0C5FF654A6949E5
:103BB000664873F03DFF6548FCF79CFB03469CB2EA
:103BC0006248FCF797FB03462246604960484AF08A
:103BD0005BFF5B4B1B6818464EF0F8FF4E4B1B78A3
:103BE0001946002300224D48FEF706F95A4B1B7870
:103BF00019465A4A582301FB03F313441633188815
:103C0000454B1978564B1B7800930123434A10F01B
:103C1000DBF94B4B1B6841F2883118464EF08BFFA5
:103C20004D4B1B78474A4F49484873F001FF4748BE
:103C3000FCF760FB03469CB24448FCF75BFB034681
:103C40002246424942484AF01FFF3D4B1B68184636
:103C50004EF0BCFF444B05221A70444B1B68002BEE
:103C600003D1FB7F002B7FF4F3AA404B1B68002B92
:103C700041F03A81324B1B6841F2883118464EF0D0
:103C80005AFF304A3A49314873F0D2FE2F48FCF7C8
:103C900031FB03469CB22D48FCF72CFB0346224621
:103CA0002A492B484AF0F0FE254B1B6818464EF077
:103CB0008DFF304B00221A602F48FDF731FF2F4B4C
:103CC00001221A701E4B1B6841F2883118464EF0D3
:103CD00032FF214B1B781B4A29491C4873F0A8FE70
:103CE0001A48FCF707FB03469CB21848FCF702FB96
:103CF00003462246154916484AF0C6FE104B1B687B
:103D000018464EF063FF184B03221A7001F0ECB80E
:103D100024120124941A0124911A0124DC1801248C
:103D2000B41A01243C190124741A0124D814012462
:103D3000781A0124901A012449150124D014012471
:103D400088D50024C06908082CAC0708DCD50024FD
:103D5000D064002468AC0708140000243412012445
:103D6000EC1301248CAC0708D81801243419012461
:103D7000E0AC0708D4180124281501247B14012481
:103D800000AD0708B24B1B78052B40F07D86B14B88
:103D90001B78002B01F0A880AE4B00221A70AE49B0
:103DA000AE48FDF749FD0346AD4A1360AC4B1B68B6
:103DB000002B20D0AB4B1B6841F2883118464EF0E7
:103DC000BAFEA74B1B68A84AA849A94873F030FE61
:103DD000A748FCF78FFA03469CB2A548FCF78AFA7D
:103DE00003462246A249A3484AF04EFE9D4B1B685B
:103DF00018464EF0EBFE9B4B1B6841F2883118468B
:103E00004EF099FE984A9C49994873F011FE9848E3
:103E1000FCF770FA03469CB29548FCF76BFA034630
:103E20002246934993484AF02FFE8E4B1B68184652
:103E30004EF0CCFE0023002210218748FDF7DCFF66
:103E40006FF0010200218D4854F020FF03468C4A98
:103E500013608B4B1B68002B20D0824B1B6841F2F8
:103E6000883118464EF067FE854B1B687E4A8549AF
:103E70007F4873F0DDFD7E48FCF73CFA03469CB2B8
:103E80007B48FCF737FA03462246794979484AF0DD
:103E9000FBFD744B1B6818464EF098FE10227A49C1
:103EA000764854F016FA0346784A1360774B1B683D
:103EB000002B20D06B4B1B6841F2883118464EF026
:103EC0003AFE724B1B68684A7149694873F0B0FD4D
:103ED0006748FCF70FFA03469CB26548FCF70AFAFC
:103EE00003462246624963484AF0CEFD5D4B1B689B
:103EF00018464EF06BFE5B4B1B6841F2883118464A
:103F00004EF019FE584A6349594873F091FD5848DC
:103F1000FCF7F0F903469CB25548FCF7EBF9034671
:103F20002246534953484AF0AFFD4E4B1B68184692
:103F30004EF04CFE584B1B78194600230022574880
:103F4000FDF75AFF474B1B6841F2883118464EF087
:103F5000F2FD514B1B78444A5149454873F068FDC6
:103F60004348FCF7C7F903469CB24148FCF7C2F945
:103F7000034622463E493F484AF086FD394B1B68BE
:103F800018464EF023FE374B1B6841F28831184625
:103F90004EF0D1FD344A4349354873F049FD344869
:103FA000FCF7A8F903469CB23148FCF7A3F9034695
:103FB00022462F492F484AF067FD2A4B1B681846B6
:103FC0004EF004FE002300220D212348FDF714FFCC
:103FD000244B1B6841F2883118464EF0ACFD224A52
:103FE0003149234873F024FD2148FCF783F9034647
:103FF0009CB21F48FCF77EF9034622461C491D4827
:104000004AF042FD174B1B6818464EF0DFFD274B68
:104010001B781946002300222548FDF7EDFE114BC1
:104020001B6841F2883118464EF085FD1F4B1B7806
:104030000D4A20490E4873F0FBFC0D48FCF75AF975
:1040400003469CB20A48FCF755F9034634E000BF2A
:10405000D81801247C1401244915012428150124B1
:104060003819012488D50024C069080880A80708E9
:10407000DCD50024D0640024B0A807083C19012432
:10408000741A0124E0A80708D8140124781A01241E
:104090000CA907083CA907085C1601245C1501243B
:1040A0005CA9070888A90708A8A9070868160124B9
:1040B00060160124C4A9070822467C497C484AF0BE
:1040C000E3FC7C4B1B6818464EF080FD794B1B6867
:1040D00041F2883118464EF02EFD774A77497348F1
:1040E00073F0A6FC7148FCF705F903469CB26F48D3
:1040F000FCF700F9034622466C496D484AF0C4FCBF
:104100006C4B1B6818464EF061FD6D4B1B781946D1
:10411000002300226B48FDF76FFE664B1B6841F2DF
:10412000883118464EF007FD654B1B78624A664998
:104130005E4873F07DFC5D48FCF7DCF803469CB2FA
:104140005A48FCF7D7F803462246584958484AF0DF
:104150009BFC584B1B6818464EF038FD032200218B
:104160005A4873F088FD5A4B1B78032B67D1584B84
:104170001B781946574B1B781A46514B1B780593F1
:10418000504B04930392544B02930D230193534BD2
:1041900000930B46524A4D49524854F02DFB0346BA
:1041A000514A1360504B1B68002B20D0414B1B68B9
:1041B00041F2883118464EF0BEFC4B4B1B683E4A1C
:1041C0004A493A4873F034FC3848FCF793F8034600
:1041D0009CB23648FCF78EF80346224633493448F1
:1041E0004AF052FC334B1B6818464EF0EFFC314B43
:1041F0001B6841F2883118464EF09DFC2E4A3C491E
:104200002A4873F015FC2948FCF774F803469CB261
:104210002648FCF76FF803462246244924484AF012
:1042200033FC244B1B6818464EF0D0FC284B1B78FF
:104230001946002300222548FDF7DEFD24E01D4B32
:104240001B6841F2883118464EF075FC204B1B78F4
:104250001A4603232749154873F0EAFB1348FCF775
:1042600049F803469CB21148FCF744F8034622463D
:104270000E490F484AF008FC0E4B1B6818464EF0DA
:10428000A5FC194B00221A60164854F01CFD1A4B6D
:104290001B68002B34D1194B1B68002B30D1124BFB
:1042A0001B68002B2CD101232BE000BFDCD50024A0
:1042B000D064002488D50024C0690808F0A9070844
:1042C0008C1601246C16012408AA0708B81A0124C8
:1042D0005C16012468160124601601244915012486
:1042E0005C1501243C190124BC1A012454AD0708B3
:1042F00090AD0708E0AD0708741A0124781A01246C
:104300000023A04A13609F4B1B68002B00F0EC8534
:104310009D4B00221A609D4B1B6841F28831184664
:104320004EF009FC9A499B4873F082FB9948FBF7D1
:10433000E1FF03469CB29748FBF7DCFF03462246A9
:10434000944995484AF0A0FB904B1B6818464EF0E4
:104350003DFC924B924A1A60924B1A78924B1A701B
:104360008E4B1B681B781A46904B53F822309847A7
:10437000864B1B6841F2883118464EF0DCFB8C49B5
:10438000844873F055FB8348FBF7B4FF03469CB2A7
:104390008048FBF7AFFF034622467E497E484AF03D
:1043A00073FB7A4B1B6818464EF010FC774B1B686A
:1043B00041F2883118464EF0BEFB7E4A7E49754870
:1043C00073F036FB7348FBF795FF03469CB27148C8
:1043D000FBF790FF034622466E496F484AF054FBB4
:1043E0006A4B1B6818464EF0F1FB744B1B7818465D
:1043F00010F024FC03461A46704B1A70502200211C
:104400006F4873F038FC6E4B9F221A706C4B03227E
:104410005A706A4B1A786A4B9A70694B0022DA70AC
:1044200013237B77674B04221A70664B1A787B7FC5
:104430001344DBB20833DAB2634B1A70634B9F222A
:104440001A70624B0A225A70554B9A785F4B9A70D9
:10445000102200215E4873F00EFC514B9B78BB7715
:104460005C4B1B7819465C4A582301FB03F3134449
:1044700012331B78BA7F9A421FD0444B1B6841F21B
:10448000883118464EF057FB5449424873F0D0FA31
:104490004048FBF72FFF03469CB23E48FBF72AFF3C
:1044A000034622463B493C484AF0EEFA374B1B682C
:1044B00018464EF08BFB0023BB77BB7F802B00F0B0
:1044C000C080802B00F3F880042B08D0042B00F36D
:1044D000F380012B00F08C80022B29D0ECE02B4BD9
:1044E0001B6841F2883118464EF025FB314A3C49A1
:1044F000284873F09DFA2748FBF7FCFE03469CB260
:104500002448FBF7F7FE03462246224922484AF098
:10451000BBFA1E4B1B6818464EF058FB2B4B314A1A
:10452000DC1C15460FCD20606160A260E360E3E013
:10453000164B1B6841F2883118464EF0FCFA1D4AB2
:104540002949144873F074FA1248FBF7D3FE034666
:104550009CB21048FBF7CEFE034622460D490E489A
:104560004AF092FA094B1B6818464EF02FFB174B86
:104570001E4ADC1C15460FCD20606160A260E3601E
:10458000BAE000BFC01A0124D418012488D5002441
:1045900044AE0708DCD50024D06400242C1201248A
:1045A000B81A01245C16012430120124780D01246C
:1045B00090AE0708C0690808DCAE0708EC130124B8
:1045C000DC180124901A0124911A0124C41A012430
:1045D000C71A012414000024341201241CAF070858
:1045E00074AF0708901601249CAF0708A016012499
:1045F000284B1B6841F2883118464EF09CFA264A37
:104600002649274873F014FA2548FBF773FE034642
:104610009CB22348FBF76EFE034622462049214800
:104620004AF032FA1B4B1B6818464EF0CFFA1E4B6D
:104630001E4ADC1C15460FCD20606160A260E3605D
:104640005AE0144B1B6841F2883118464EF073FA59
:10465000114A1749124873F0EBF91148FBF74AFE6B
:1046600003469CB20E48FBF745FE034622460C4922
:104670000C484AF009FA074B1B6818464EF0A6FA98
:10468000094B0C4ADC1C15460FCD20606160A2600E
:10469000E36031E088D50024C0690808C4AF07088A
:1046A000DCD50024D0640024C41A0124B0160124EF
:1046B000ECAF0708C0160124AD4B1B6841F28831EE
:1046C00018464EF038FAAB4AAB49AC4873F0B0F933
:1046D000AA48FBF70FFE03469CB2A848FBF70AFE68
:1046E00003462246A549A6484AF0CEF9A04B1B68CE
:1046F00018464EF06BFA00BF9D4B1B6841F28831A3
:1047000018464EF018FA9B4A9E499C4873F090F95F
:104710009A48FBF7EFFD03469CB29848FBF7EAFD89
:1047200003462246954996484AF0AEF9904B1B68DD
:1047300018464EF04BFA0023002213219248FDF751
:104740005BFB92499248FDF777F80346914A136064
:10475000904B1B68002B20D0854B1B6841F28831A1
:1047600018464EF0E8F98B4B1B68824A8A49834809
:1047700073F05EF98148FBF7BDFD03469CB27F48AC
:10478000FBF7B8FD034622467C497D484AF07CF998
:10479000774B1B6818464EF019FA754B1B6841F2AF
:1047A000883118464EF0C7F9724A7C49734873F055
:1047B0003FF97248FBF79EFD03469CB26F48FBF73A
:1047C00099FD034622466D496D484AF05DF9684BF4
:1047D0001B6818464EF0FAF90023002210216B489E
:1047E000FDF70AFB202200216D4873F044FA6D4B5F
:1047F0001B881846FDF7CEFD03461A46684B1A8003
:10480000694B1B781946694A582301FB03F313448B
:1048100016331B881846FDF7BDFD03461A46604B4C
:104820005A80634B1B681846FDF7CAFD03465C4A75
:104830005360604B1B781846FDF7ACFD03461A46E3
:10484000574B1A815C4B9A78554B9A725A4BDA78CF
:10485000534BDA72594B0C221A706FF0010200218F
:10486000574854F013FA0346564A1360102256492B
:10487000534853F02EFD0346544A1360544B1B78A3
:104880001A464D4BD1187A7F514B1B7818467B7FC7
:10489000034449480344494800780590404804903F
:1048A0000820039002930D230193384B0093134685
:1048B000354A434853F043FEB861414854F003FA87
:1048C000404B1B68002B06D1404B1B68002B02D1CC
:1048D000BB69002B26D0264B1B6841F28831184655
:1048E0004EF029F9374B1968384B1B68BA690192A9
:1048F00000930B461F4A3749204873F099F81F4828
:10490000FBF7F8FC03469CB21C48FBF7F3FC03469C
:1049100022461A491A484AF0B7F8154B1B68184640
:104920004EF054F9124B1B6841F2883118464EF094
:1049300002F9104A2849114873F07AF80F48FBF73A
:10494000D9FC03469CB20D48FBF7D4FC0346224633
:104950000A490B484AF098F8054B1B6818464EF078
:1049600035F9144B1B7819460023002236E000BFAE
:1049700088D50024C06908080CB00708DCD50024DD
:10498000D06400243CB00708C41A0124491501244E
:10499000281501243819012480A80708B0A80708A1
:1049A000941A0124741401241400002434120124E4
:1049B00024120124911A0124DC180124B41A0124C0
:1049C0003C190124741A0124D8140124781A0124F2
:1049D000901A012460B00708A4B007081E48FDF72C
:1049E0000BFA1E4B1B7819461D4A582301FB03F393
:1049F0001344163318881B4B19781B4B1B780093F4
:104A00000123154A0FF0E0FA184B00221A70184BD8
:104A10001B6841F2883118464EF08DF80F4B1B7819
:104A2000144A1549154873F003F81448FBF762FC63
:104A300003469CB21148FBF75DFC034622460F4932
:104A40000F484AF021F80A4B1B6818464EF0BEF892
:104A50000C4B06221A7047E2DC18012414000024D3
:104A600034120124911A0124EC1301247B14012433
:104A700088D50024C0690808D0B00708DCD5002418
:104A8000D0640024D8180124B14B1B78062B40F0C9
:104A9000B081B04B1B78002B00F02682AE4B002279
:104AA0001A60AE4B1B6841F2883118464EF043F84D
:104AB000AB4AAC49AC4872F0BBFFAB48FBF71AFC01
:104AC00003469CB2A848FBF715FC03462246A649BC
:104AD000A64849F0D9FFA14B1B6818464EF076F85E
:104AE000A34B1B78184610F0A9F803461A46A04BB2
:104AF0001A70502200219F4873F0BDF89D4B9F22F1
:104B00001A709C4B02225A70994B1A78994B9A70E2
:104B1000984B0122DA70914B1B6841F2883118469C
:104B20004EF009F88E4A94498F4872F081FF8E4802
:104B3000FBF7E0FB03469CB28B48FBF7DBFB03462D
:104B400022468949894849F09FFF844B1B681846D3
:104B50004EF03CF8894856F0D4F90346884A136071
:104B6000874B1B68002B20D07C4B1B6841F288319F
:104B700018464DF0E0FF824B1B68794A81497A481C
:104B800072F056FF7848FBF7B5FB03469CB27648B7
:104B9000FBF7B0FB034622467349744849F074FFA3
:104BA0006E4B1B6818464EF011F8774B1B781A466F
:104BB000582302FB03F33833744A13441022194676
:104BC0006E4856F009FA03466D4A13606C4B1B6839
:104BD000002B20D0614B1B6841F2883118464DF004
:104BE000AAFF674B1B685E4A69495F4872F020FF65
:104BF0005D48FBF77FFB03469CB25B48FBF77AFB03
:104C0000034622465849594849F03EFF534B1B681A
:104C100018464DF0DBFF514B1B6841F288311846B6
:104C20004DF089FF584B1B784D4A5A494E4872F057
:104C3000FFFE4D48FBF75EFB03469CB24A48FBF77C
:104C400059FB034622464849484849F01DFF434B5B
:104C50001B6818464DF0BAFF4B4B1B781A46582379
:104C600002FB03F33833494A1344102219464A48D9
:104C700073F0CDFE414856F006FA0346404A1360F1
:104C80003F4B1B68002B20D0344B1B6841F288310E
:104C900018464DF050FF3A4B1B68314A3F493248A5
:104CA00072F0C6FE3048FBF725FB03469CB22E4847
:104CB000FBF720FB034622462B492C4849F0E4FE33
:104CC000264B1B6818464DF081FF244B1B6841F2B0
:104CD000883118464DF02FFF214A3149224872F0A1
:104CE000A7FE2148FBF706FB03469CB21E48FBF7D4
:104CF00001FB034622461C491C4849F0C5FE174BE0
:104D00001B6818464DF062FF1F4B1B781A4658234C
:104D100002FB03F338331D4A9818002300221021A8
:104D2000FDF76AF8184B1B781946184A582301FBFF
:104D300003F31344163318880D4B1B78009301239B
:104D40000C4A14210FF040F9164B00221A702BE088
:104D5000D81801247B140124D418012488D50024F8
:104D6000C06908084CA60708DCD50024D0640024DC
:104D7000EC130124DC18012470A60708C0140124D8
:104D80002C190124C0A607081400002434120124A1
:104D9000F8A6070828B10708E018012480A707082B
:104DA000B8A707087C140124544B1B6841F28831D2
:104DB00018464DF0C0FE524B1B78524A5249534898
:104DC00072F036FE5148FBF795FA03469CB24F4805
:104DD000FBF790FA034622464C494D4849F054FEF1
:104DE000464B1B6818464DF0F1FE4A4B07221A70DD
:104DF0007AE0484B1B78072B76D0464B1B78082B64
:104E000072D0444B1B78092B6ED0424B1B780A2B77
:104E100003D1414B01221A7066E03E4B1B780B2BED
:104E200062D13E4B01221A705EE0FB79022B5BD00F
:104E3000324B1B6841F2883118464DF07CFE3849F0
:104E4000324872F0F5FD3148FBF754FA03469CB244
:104E50002E48FBF74FFA034622462C492C4849F0CE
:104E600013FE264B1B6818464DF0B0FE234B1B6803
:104E700041F2883118464DF05EFEFB79214A2949FE
:104E8000224872F0D5FD2148FBF734FA03469CB264
:104E90001E48FBF72FFA034622461C491C4849F0DE
:104EA000F3FD164B1B6818464DF090FE134B1B6824
:104EB00041F2883118464DF03EFE1949134872F010
:104EC000B7FD1248FBF716FA03469CB20F48FBF7F2
:104ED00011FA034622460D490D4849F0D5FD074B0E
:104EE0001B6818464DF072FE0A4B1A780E4B1A706A
:104EF000084B1B7818462037BD46B0BD88D5002426
:104F000014000024C069080864B10708DCD5002437
:104F1000D0640024D818012405EE002406EE0024F5
:104F2000B8B1070814B207087614012490B59FB0F1
:104F300000AF7860396000237B672023FB6020236B
:104F4000BB60BB4B1B6841F2883118464DF0F3FD46
:104F5000B84AB949B94872F06BFDB848FBF7CAF9CD
:104F600003469CB2B548FBF7C5F903462246B34950
:104F7000B34849F089FDAE4B1B6818464DF026FE3C
:104F8000AB4B1B6841F2883118464DF0D4FDA94A5D
:104F9000AC49AA4872F04CFDA848FBF7ABF90346B0
:104FA0009CB2A648FBF7A6F903462246A349A448AB
:104FB00049F06AFD9E4B1B6818464DF007FE07F14D
:104FC0006403184655F09DFF78677B6F002B40F017
:104FD0005881974B1B6841F2883118464DF0ABFD64
:104FE000944A9949954872F023FD9448FBF782F959
:104FF00003469CB29148FBF77DF9034622468F4950
:105000008F4849F041FD8A4B1B6818464DF0DEFD84
:1050100007F11003184654F0FFFC78677B6F002BF4
:1050200040F03181824B1B6841F2883118464DF0C7
:1050300082FD804A8549814872F0FAFC7F48FBF77F
:1050400059F903469CB27D48FBF754F903462246C2
:105050007A497B4849F018FD754B1B6818464DF09E
:10506000B5FD07F1100207F164032021184654F042
:105070003BFB78677B6F002B40F007816C4B1B6814
:1050800041F2883118464DF056FD6A4A70496B4826
:1050900072F0CEFC6948FBF72DF903469CB26748D5
:1050A000FBF728F9034622466449654849F0ECFCC1
:1050B0005F4B1B6818464DF089FD5D4B1B6841F244
:1050C000883118464DF037FD5A4A62495B4872F004
:1050D000AFFC5A48FBF70EF903469CB25748FBF762
:1050E00009F9034622465549554849F0CDFC504B35
:1050F0001B6818464DF06AFD4D4B1B6841F2883124
:1051000018464DF018FD4B4A51494C4872F090FC3E
:105110004A48FBF7EFF803469CB24848FBF7EAF829
:10512000034622464549464849F0AEFC404B1B68C1
:1051300018464DF04BFD07F10C0207F1100000235B
:10514000796854F0EBFB786700230022202178680F
:10515000FCF752FE0023002220213F48FCF74CFEC2
:105160007B6F002B40F09380314B1B6841F28831FC
:1051700018464DF0E0FC2F4A3549304872F058FC93
:105180002E48FBF7B7F803469CB22C48FBF7B2F861
:105190000346224629492A4849F076FC244B1B68DD
:1051A00018464DF013FD224B1B6841F2883118461A
:1051B0004DF0C1FC1F4A2949204872F039FC1F48B4
:1051C000FBF798F803469CB21C48FBF793F803469C
:1051D00022461A491A4849F057FC154B1B681846D5
:1051E0004DF0F4FC124B1B6841F2883118464DF02B
:1051F000A2FC104A1649114872F01AFC0F48FBF73E
:1052000079F803469CB20D48FBF774F80346224632
:105210000A490B4849F038FC054B1B6818464DF00D
:10522000D5FC07F1080207F11000002318E000BFC9
:1052300088D50024E069080854B20708DCD50024AA
:10524000D064002464B2070898B20708C0B2070807
:10525000ECB2070814B30708A01401243CB30708F4
:10526000396854F0DFFA786700230022202138687B
:10527000FCF7C2FD0023002220213D48FCF7BCFDC5
:1052800006E000BF04E000BF02E000BF00E000BF96
:10529000384B1B6841F2883118464DF04CFC364AB9
:1052A0003649374872F0C4FB3548FBF723F803460C
:1052B0009CB23348FBF71EF803462246304931487A
:1052C00049F0E2FB2B4B1B6818464DF07FFC07F1C1
:1052D0006403184655F0D7FE07F11003184654F042
:1052E000AAFB7B6F002B1FD0224B1B6841F2883139
:1052F00018464DF020FC7B6F1F4A2349204872F06E
:1053000097FB1F48FAF7F6FF03469CB21C48FAF7D2
:10531000F1FF034622461A491A4849F0B5FB154BDE
:105320001B6818464DF052FC124B1B6841F2883145
:1053300018464DF000FC104A1449114872F078FBF1
:105340000F48FAF7D7FF03469CB20D48FAF7D2FF91
:10535000034622460A490B4849F096FB054B1B6859
:1053600018464DF033FC7B6F18467C37BD4690BD28
:105370008014012488D50024E069080864B3070874
:10538000DCD50024D0640024B09E070878B3070859
:1053900098B500AF1E4B1B6841F2883118464DF09E
:1053A000CAFB1C491C4872F043FB1B48FAF7A2FFDA
:1053B00003469CB21848FAF79DFF03462246164959
:1053C000164849F061FB124B1B6818464DF0FEFB76
:1053D0000F4B1B6841F2883118464DF0ACFB104969
:1053E0000D4872F025FB0C48FAF784FF03469CB287
:1053F0000948FAF77FFF034622460749074849F064
:1054000043FB034B1B6818464DF0E0FB00BF98BD03
:1054100088D50024ECB30708DCD50024D064002430
:1054200030B4070890B585B000AF03463960FB7112
:105430000123FB73FB79042B57D8FB793E4A582193
:1054400001FB03F3134408331A783B681A70FA79A6
:105450003B6801333849582000FB02F20A44093204
:1054600012781A70FA793B6802333349582000FBEE
:1054700002F20A440A3212781A70FA793B6803334E
:105480002D49582000FB02F20A440B3212781A70A0
:10549000FA793B6804332849582000FB02F20A4499
:1054A0000C3212781A70FA793B6805332249582079
:1054B00000FB02F20A440D3212781A70FA793B6846
:1054C00006331D49582000FB02F20A440E321278BE
:1054D0001A70FA793B6807331749582000FB02F22B
:1054E0000A440F3212781A7021E0144B1B6841F203
:1054F000883118464DF01FFBFB79114A11491248BB
:1055000072F096FA1048FAF7F5FE03469CB20E4880
:10551000FAF7F0FE034622460B490C4849F0B4FA6C
:10552000064B1B6818464DF051FB0023FB73FB7BB9
:1055300018461437BD4690BD3412012488D5002486
:10554000006A080874B40708DCD50024D06400247D
:1055500090B583B000AFFF23FB7100237B7140E067
:105560000123BB7100233B710FE07A793B7921491C
:10557000582000FB02F20A4413441B78002B01D090
:105580000023BB713B7901333B713B790F2BECD985
:10559000BB79002B22D0184B1B6841F2883118468A
:1055A0004DF0C9FA7B79154A1549164872F040FA50
:1055B0001448FAF79FFE03469CB21248FAF79AFE87
:1055C000034622460F49104849F05EFA0A4B1B6811
:1055D00018464DF0FBFA7B79FB7105E07B790133CE
:1055E0007B717B79042BBBD9FB7918460C37BD4600
:1055F00090BD00BF3412012488D50024206A080819
:10560000C8B40708DCD50024D064002480B483B07B
:1056100000AF0023FB7100233B6023E0164A3B6888
:10562000582101FB03F3134414331B78002B16D0CD
:10563000114A3B68582101FB03F3134414331B78D0
:10564000012B0CD00C4A3B68582101FB03F3134497
:1056500014331B78052B02D00123FB7105E03B6856
:1056600001333B603B68042BD8DDFB7918460C37CF
:10567000BD465DF8047B70473412012490B585B0B7
:1056800000AF0346FB71FB79042B18D80123FB7391
:105690000023BB730FE0FA79BB7B1C49582000FB49
:1056A00002F20A4413441B78002B01D00023FB7341
:1056B000BB7B0133BB73BB7B0F2BECD921E0144BBD
:1056C0001B6841F2883118464DF035FAFB79114AD2
:1056D0001149124872F0ACF91048FAF70BFE034674
:1056E0009CB20E48FAF706FE034622460B490C48C8
:1056F00049F0CAF9064B1B6818464DF067FA0023BB
:10570000FB73FB7B18461437BD4690BD3412012451
:1057100088D50024386A0808E4B40708DCD50024DA
:10572000D064002490B58BB000AF7860012387F877
:105730002730AF4B1B6841F2883118464DF0FBF91A
:105740007B68AC4AAC49AD4872F072F9AB48FAF7E5
:10575000D1FD03469CB2A948FAF7CCFD0346224688
:10576000A649A74849F090F9A14B1B6818464DF08F
:105770002DFA7868FAF7BEFD03462F2B25D09C4BF7
:105780001B6841F2883118464DF0D5F97868FAF770
:10579000B1FD0346974A9B49984872F049F99748EA
:1057A000FAF7A8FD03469CB29448FAF7A3FD034616
:1057B00022469249924849F067F98D4B1B6818467A
:1057C0004DF004FA002387F827300023BB6176E010
:1057D000BB69052B11D0BB690B2B0ED0BB69112BFC
:1057E0000BD0BB69172B08D0BB691D2B05D0BB693B
:1057F000232B02D0BB69292B2FD1BB697A681344B4
:105800001B780133804A13441B7803F00403002BF8
:1058100052D0774B1B6841F2883118464DF08BF916
:10582000BB69744A7949754872F002F97348FAF70E
:1058300061FD03469CB27148FAF75CFD03462246BF
:105840006E496F4849F020F9694B1B6818464DF0C6
:10585000BDF9002387F827302EE0BB697A6813442E
:105860001B780133684A13441B7803F00403002BB0
:1058700022D15F4B1B6841F2883118464DF05BF92D
:10588000BB695C4A62495D4872F0D2F85B48FAF73E
:1058900031FD03469CB25948FAF72CFD03462246D7
:1058A0005649574849F0F0F8514B1B6818464DF0DF
:1058B0008DF9002387F82730BB690133BB61BB69D1
:1058C0002E2B85DD7B683B620023FB7741E007F1EF
:1058D0000C0306220021184672F0CDF907F10C03E3
:1058E0000522396A184673F092F807F10C0318463E
:1058F00071F09AFD03467B617B69B3F5803F22D34B
:105900003B4B1B6841F2883118464DF014F97B6916
:10591000384A4049394872F08BF83848FAF7EAFCBF
:1059200003469CB23548FAF7E5FC03462246334964
:10593000334849F0A9F82E4B1B6818464DF046F93C
:10594000002387F827303B6A06333B62FB7F023334
:10595000FB77FB7F0F2BBAD997F82730002B20D08D
:10596000234B1B6841F2883118464DF0E4F87B6800
:10597000204A2949214872F05BF82048FAF7BAFC1E
:1059800003469CB21D48FAF7B5FC034622461B4964
:105990001B4849F079F8164B1B6818464DF016F96C
:1059A0001FE0134B1B6841F2883118464DF0C3F8D5
:1059B0007B68104A1949114872F03AF80F48FAF713
:1059C00099FC03469CB20D48FAF794FC0346224624
:1059D0000A490B4849F058F8054B1B6818464DF02A
:1059E000F5F897F8273018462C37BD4690BD00BF14
:1059F00088D50024506A08082CB50708DCD5002497
:105A0000D064002444B5070880C7080888B5070893
:105A1000D0B5070814B6070848B6070860B60708E7
:105A200090B585B000AF03463960FB71FB79042B5C
:105A300032D8FB792A4A582101FB03F3134410336F
:105A400001221A700023FB6010E0FB683A681A44D8
:105A5000FB791078224A582101FB03F31A44FB68B2
:105A6000134402461A70FB680133FB60FB680F2B7E
:105A7000EBDDFB791A4A582101FB03F3134413337E
:105A800000221A70FB79164A582101FB03F31344D4
:105A9000143301221A701FE0124B1B6841F2883147
:105AA00018464DF048F8FB790F4A1049104871F03C
:105AB000BFFF0F48FAF71EFC03469CB20C48FAF7EA
:105AC00019FC034622460A490A4848F0DDFF054B07
:105AD0001B6818464DF07AF800BF1437BD4690BDDC
