:020000040800F2
:10000000000008248D810108417E0108497E010815
:10001000517E0108597E0108617E01080000000040
:100020000000000000000000000000002121050881
:10003000697E010800000000712305088911050888
:10004000E1810108E1810108E1810108E181010804
:10005000E1810108E1810108E1810108E1810108F4
:10006000777E0108E1810108E1810108E181010851
:10007000E1810108E1810108E1810108E1810108D4
:10008000E1810108E1810108E1810108E1810108C4
:10009000E1810108E1810108E1810108E1810108B4
:1000A000E1810108E1810108E1810108E1810108A4
:1000B000E1810108E1810108E1810108E181010894
:1000C000E1810108E1810108E1810108E181010884
:1000D000E1810108857E0108997E0108E18101081E
:1000E000E1810108E181010800000000E1810108CF
:1000F000E1810108E1810108E1810108E181010854
:10010000E1810108E1810108E1810108E181010843
:10011000E1810108E1810108AD7E0108E18101086A
:10012000E1810108E1810108E1810108E181010823
:10013000E1810108E1810108E1810108E181010813
:10014000E1810108E18101080000000000000000D9
:10015000E1810108E1810108E1810108E1810108F3
:10016000E1810108E1810108E1810108E1810108E3
:10017000E1810108E1810108E1810108000000003E
:10018000E1810108E1810108E1810108E1810108C3
:10019000E1810108E1810108E1810108E1810108B3
:1001A000C17E0108E1810108D57E0108E1810108D5
:1001B000E97E0108E1810108E1810108E18101088E
:1001C000E1810108E1810108E1810108E181010883
:1001D000E1810108E1810108E1810108E181010873
:1001E000E1810108E1810108E1810108E181010863
:1001F000E1810108E1810108E1810108E181010853
:10020000E1810108E1810108E1810108E181010842
:10021000E1810108E1810108E1810108E181010832
:10022000E1810108FD7E0108117F01080000000046
:10023000E1810108E1810108E1810108E181010812
:10024000E1810108E1810108E1810108E181010802
:10025000E1810108E1810108E1810108E1810108F2
:10026000E1810108E1810108E1810108E1810108E2
:10027000E1810108E1810108E1810108E1810108D2
:10028000E1810108E1810108E1810108000000002D
:08029000E1810108E181010890
:1002A00010B5054C237833B9044B13B10448AFF3B0
:1002B00000800123237010BD005F002400000000B7
:1002C0003481070808B5034B1BB103490348AFF35A
:1002D000008008BD00000000045F0024348107088E
:1002E00010F8012B11F8013B012A28BF9A42F7D0E0
:1002F000D01A7047034613F8012B002AFBD1181AB5
:1003000001387047000000000000000000000000FD
:1003100001F0FF01102A2BDB10F0070F08D010F8B6
:10032000013B013A8B422DD010F0070F42B3F6D1BA
:10033000F0B441EA012141EA014122F007047FF0D3
:1003400000070023F0E80256083C85EA010586EA2A
:10035000010685FA47F5A3FA87F586FA47F6A5FA66
:1003600087F68EB9EED1F0BC01F0FF0102F0070272
:1003700032B110F8013B013A83EA010313B1F8D11D
:100380000020704701387047002D06BF35460338FE
:10039000073815F0010F07D1013015F4807F02BF37
:1003A000013015F4C03F0130F0BC0138704700BF88
:1003B00081F0004102E000BF83F0004330B54FEA16
:1003C00041044FEA430594EA050F08BF90EA020F83
:1003D0001FBF54EA000C55EA020C7FEA645C7FEA16
:1003E000655C00F0E2804FEA5454D4EB5555B8BF39
:1003F0006D420CDD2C4480EA020281EA030382EAAA
:10040000000083EA010180EA020281EA0303362D3B
:1004100088BF30BD11F0004F4FEA01314FF4801C0E
:100420004CEA113102D0404261EB410113F0004F20
:100430004FEA03334CEA133302D0524263EB4303D7
:1004400094EA050F00F0A780A4F10104D5F1200E75
:100450000DDB02FA0EFC22FA05F2801841F10001D0
:1004600003FA0EF2801843FA05F359410EE0A5F1A4
:1004700020050EF1200E012A03FA0EFC28BF4CF0D5
:10048000020C43FA05F3C01851EBE37101F000458B
:1004900007D54FF0000EDCF1000C7EEB00006EEB98
:1004A0000101B1F5801F1BD3B1F5001F0CD3490822
:1004B0005FEA30004FEA3C0C04F101044FEA445279
:1004C00012F5800F80F09A80BCF1004F08BF5FEA00
:1004D000500C50F1000041EB045141EA050130BDE0
:1004E0005FEA4C0C404141EB0101013C28BFB1F5F2
:1004F000801FE9D291F0000F04BF01460020B1FA3D
:1005000081F308BF2033A3F10B03B3F120020CDA0F
:100510000C3208DD02F1140CC2F10C0201FA0CF0ED
:1005200021FA02F10CE002F11402D8BFC2F1200C52
:1005300001FA02F120FA0CFCDCBF41EA0C01904008
:10054000E41AA2BF01EB0451294330BD6FEA040451
:100550001F3C1CDA0C340EDC04F11404C4F120023C
:1005600020FA04F001FA02F340EA030021FA04F34E
:1005700045EA030130BDC4F10C04C4F1200220FAA5
:1005800002F001FA04F340EA0300294630BD21FAE3
:1005900004F0294630BD94F0000F83F4801306BFA9
:1005A00081F480110134013D4EE77FEA645C18BF9D
:1005B0007FEA655C29D094EA050F08BF90EA020F34
:1005C00005D054EA000C04BF1946104630BD91EA2C
:1005D000030F1EBF0021002030BD5FEA545C05D12F
:1005E0004000494128BF41F0004130BD14F580046E
:1005F0003CBF01F5801130BD01F0004545F0FE41E2
:1006000041F470014FF0000030BD7FEA645C1ABF16
:10061000194610467FEA655C1CBF0B46024650EA4D
:10062000013406BF52EA033591EA030F41F4002179
:1006300030BD00BF90F0000F04BF0021704730B5FF
:100640004FF4806404F132044FF000054FF00001D4
:1006500050E700BF90F0000F04BF0021704730B595
:100660004FF4806404F1320410F0004548BF40426A
:100670004FF000013EE700BF42004FEAE2014FEABF
:1006800031014FEA02701FBF12F07F4393F07F4F9A
:1006900081F06051704732F07F4208BF704793F09D
:1006A0007F4F04BF41F40021704730B54FF46074B0
:1006B00001F0004521F000411CE700BF50EA0102B3
:1006C00008BF704730B54FF000050AE050EA01025C
:1006D00008BF704730B511F0004502D5404261EBCC
:1006E00041014FF4806404F132045FEA915C3FF40D
:1006F000D8AE4FF003025FEADC0C18BF03325FEAAA
:10070000DC0C18BF033202EBDC02C2F1200300FA5A
:1007100003FC20FA02F001FA03FE40EA0E0021FA7F
:1007200002F11444BDE600BF7BB972B90029BEBF17
:1007300000204FF0004106E008BF00281CBF6FF00A
:1007400000414FF0FF3000F0D3B9ADF1080C6DE976
:1007500004CE002909DB002B1ADB00F04DF8DDF890
:1007600004E0DDE9022304B07047404261EB41013F
:10077000002B1BDB00F040F8DDF804E0DDE902238C
:1007800004B0404261EB4101524263EB43037047C6
:10079000524263EB430300F02FF8DDF804E0DDE99B
:1007A000022304B0404261EB41017047524263EBC7
:1007B000430300F021F8DDF804E0DDE9022304B092
:1007C000524263EB4303704753B94AB9002908BF4B
:1007D00000281CBF4FF0FF314FF0FF3000F088B908
:1007E000ADF1080C6DE904CE00F006F8DDF804E088
:1007F000DDE9022304B070472DE9F047089D8E46DD
:1008000004468846002B4AD18A42174662D9B2FA7A
:1008100082F64EB1C6F1200301FA06F820FA03F37E
:10082000B74043EA0808B4404FEA174E1FFA87FC66
:10083000B8FBFEF1230C0EFB118843EA084301FBD1
:100840000CF29A4209D9FB1801F1FF3080F0EA80DE
:100850009A4240F2E78002393B449A1AA3B2B2FBB3
:10086000FEF00EFB102243EA024300FB0CFC9C4509
:1008700009D9FB1800F1FF3280F0D6809C4540F288
:10088000D3803B44023840EA0140A3EB0C03002133
:100890001DB1F3400022C5E90032BDE8F0878B426C
:1008A00005D90DB1C5E9000100210846F5E7B3FA05
:1008B00083F1002946D1734502D3824200F20581BB
:1008C000841A6EEB030201209046002DE5D0C5E9A5
:1008D0000048E2E7002A00F09080B2FA82F6002E8B
:1008E00040F0A4808A1A030C4FEA174E80B2BCB2C3
:1008F0000121B2FBFEFC0EFB1C2243EA024304FB77
:100900000CF29A4207D9FB180CF1FF3802D29A4236
:1009100000F2E080C4469B1AB3FBFEF20EFB1233DA
:1009200040EA034302FB04F49C4207D9FB1802F19E
:10093000FF3002D29C4200F2CA8002461B1B42EAF0
:100940000C40A5E7C1F120068B4022FA06F71F43B1
:100950000EFA01F420FA06F32EFA06FE4FEA1749C2
:10096000234300FA01F81FFA87FCBEFBF9F01C0CC8
:1009700009FB10EE44EA0E4400FB0CFEA64502FA09
:1009800001F209D93C1900F1FF3A80F09C80A6459C
:1009900040F2998002383C44A4EB0E041FFA83FE17
:1009A000B4FBF9F309FB13444EEA044403FB0CFCCB
:1009B000A44508D93C1903F1FF3E80F08280A4458C
:1009C0007FD9023B3C4443EA0040A4EB0C04A0FB6B
:1009D00002EC64457346E14662D35FD05DB1B8EB8B
:1009E000030264EB090404FA06F622FA01F31E433B
:1009F000CC40C5E9006400214FE7B1FBF2FC010CDB
:100A000041EA0E4180B240EA01423B4638463C464C
:100A1000B846BE462026B1FBF7F1A2EB080241EA38
:100A20000C4166E7014618E710462CE7C6F12002A4
:100A30002EFA02F3B740B14020FA02F24FEA174E05
:100A40000A43B3FBFEF8BCB20EFB1833110C41EAAB
:100A5000034108FB04F9B04089454FEA104380B2D6
:100A60003ED9791808F1FF3C01D289451FD8A1EB86
:100A70000901B1FBFEF909FB04F80EFB191192B252
:100A800042EA0142424529D2BA1809F1FF31C4D2E3
:100A90004245C2D2A9F102013A44BEE7F0459DD2D7
:100AA000BEEB02036CEB070C0138E14696E7A7EBBF
:100AB00009094944A8F1020CB1FBFEF909FB04F84D
:100AC000DBE773467FE7504666E70846FDE63B44B2
:100AD000023A33E7ACF1020C3B441CE749469CE781
:100AE000A1EB0901C446B1FBFEF909FB04F8C4E718
:100AF000704700BF80B584B000AF16F05FF9774B48
:100B00005B6903F40033002B1BD1BFF34F8F00BF91
:100B1000BFF36F8F00BF714B0022C3F85022BFF3A9
:100B20004F8F00BFBFF36F8F00BF6C4B5B696B4A89
:100B300043F400335361BFF34F8F00BFBFF36F8F98
:100B400000E000BF654B5B6903F48033002B38D1B4
:100B5000624B0022C3F88420BFF34F8F00BF5F4B6E
:100B6000D3F88030FB60FB685B0BC3F30E03BB6004
:100B7000FB68DB08C3F309037B60BB685A0143F6DB
:100B8000E07313407A68920754491343C1F8603206
:100B90007B685A1E7A60002BEFD1BB685A1EBA6080
:100BA000002BE5D1BFF34F8F00BF4C4B5B694B4A25
:100BB00043F480335361BFF34F8F00BFBFF36F8F98
:100BC00000E000BF3EF064F800F0C8F800F004FC5C
:100BD00000F08CFB00F0AAFB00F0DCF900F046F915
:100BE00000F066F900F0C2F900F058FA00F07EF962
:100BF00000F0E4FA00F096FA17F05EFA00F0BAFAA4
:100C000000F028FB00F078FA17F0F2FA17F0E9FA92
:100C100050F0D4FA324850F0C8FB0346314A136012
:100C2000314A0221402050F0EDFD03462F4A136067
:100C30002F4A0221402050F0E5FD03462D4A136063
:100C40002D4A01214FF4006050F0DCFD03462B4A91
:100C500013602B4A01214FF4807050F0D3FD0346FE
:100C6000284A1360284A0021284850F0F1FA034628
:100C7000274A1360274A0021274850F0E9FA034623
:100C8000264A1360264A0021264850F0E1FA03461E
:100C9000254A1360254A0021254850F0D9FA034619
:100CA000244A1360244A0021244850F0D1FA034614
:100CB000234A1360234A0021234850F0C9FA03460F
:100CC000224A1360224A0021224850F0C1FA03460A
:100CD000214A136050F096FA00BFFDE700ED00E0F6
:100CE0001C48080888D50024BC47080838CA0024D6
:100CF000D44708080CCB0024EC470808E0CB0024BC
:100D00000448080834D40024C04608082D520108BD
:100D10002C660024E446080801820108D8760024E5
:100D200008470808995A0108DC7600242C4708086F
:100D3000FD5A01088887002450470808795B01089C
:100D40003498002474470808DD5B0108E0A80024FB
:100D500098470808415C01088CB9002480B59CB014
:100D600000AF07F124034C220021184675F01AF950
:100D70003B1D20220021184675F014F9042045F08F
:100D800063FA00233B60374BDB6A364A23F00103EA
:100D9000D362344BDB6A03F001033B60324B9B6947
:100DA000314A43F4404393612F4B9B6903F4404322
:100DB0003B603B6800BF2C4B9B6903F40053B3F5C9
:100DC000005FF8D12B237B624FF48033BB62012399
:100DD0003B6340237B630123BB630123FB6302234B
:100DE000BB640223FB6405233B65A0237B650223D0
:100DF000BB650423FB6502233B6608237B66002357
:100E0000BB660023FB6607F12403184646F000FD8D
:100E10000346002B01D016F01BF83F237B60032311
:100E2000BB600023FB6008233B6140237B614023C0
:100E3000BB614FF48063FB6140233B623B1D022199
:100E4000184647F095FA0346002B01D016F000F83B
:100E50004FF480220021002047F0FAFD00BF7037D8
:100E6000BD4680BD000400580048025880B500AF60
:100E70000D4B0E4A1A600C4B00221A710A4B0022CD
:100E80005A71094B00225A61074B00229A61064BA6
:100E900001221A6204483EF081FA0346002B01D079
:100EA00015F0D6FF00BF80BD1C5F0024004C025827
:100EB00080B500AF0B4B0C4A1A600A4B4FF440321E
:100EC0005A60084B02229A60064B0022DA600548FD
:100ED0003FF020F90346002B01D015F0B9FF00BF09
:100EE00080BD00BF405F00240010005280B500AFFD
:100EF0001B4B1C4A1A601A4B1B4A5A60184B0022A3
:100F00009A60174B0122DA60154B00221A61144BCC
:100F100000225A61124B00229A61114B0022DA61C1
:100F20000F4B00221A620E483FF066FF0346002B6B
:100F300001D015F08DFF0021094840F0E1FD034686
:100F4000002B01D015F084FF0021054840F04EFE33
:100F50000346002B01D015F07BFF00BF80BD00BF12
:100F6000A85F0024001C0058B634900080B500AF84
:100F7000064B074A1A60054840F0ACFE0346002BBA
:100F800001D015F065FF00BF80BD00BFFC5F0024ED
:100F90000030005280B58EB000AF15F095FF3B1DBC
:100FA00034220021184674F0FDFF3A4B3A4A1A6089
:100FB000384B00225A60374B00229A60354B002292
:100FC000DA60344B00221A61324B28225A61314BCD
:100FD00009229A612F4B3522DA612E4B0B221A62BD
:100FE0002C4B40F215225A622A4B40F21B129A6295
:100FF000284B40F23522DA62264B40F21D121A636A
:10100000244B002283F83420224B002283F8352021
:10101000204B002283F836201E4842F0B3FE0346E0
:10102000002B01D015F014FF00237B604FF4F07308
:10103000BB600023FB604FF488733B6102237B613C
:10104000FF23BB610023FB614FF480633B620523F8
:101050007B624FF05043BB624FF4F073FB624FF47E
:1010600088733B63002387F83430002387F83530DA
:10107000002387F836303B1D00221946054843F00F
:101080005FF80346002B01D015F0E2FE00BF3837B1
:10109000BD4680BD2C6100240010005080B500AF1B
:1010A000124B134A1A60114B01225A600F4B012256
:1010B0009A600E4B1022DA600C4B1A221A610B4B0D
:1010C0004FF400725A61094B00229A61074B40228B
:1010D0001A62064845F034F90346002B01D015F09A
:1010E000B7FE044815F064FF00BF80BDD461002442
:1010F00000500052516E010880B500AF074B084AFE
:101100001A60064B00225A6004484BF0ADF80346C3
:10111000002B01D015F09CFE00BF80BD2062002492
:101120000018024880B500AF104B114A1A600F4BEF
:1011300000225A600D4B7F229A600C4BFF22DA602E
:101140000A4B00221A61094B00229A61074B0022C8
:10115000DA61064B00225A6104484BF089F90346D4
:10116000002B01D015F074FE00BF80BD3462002456
:101170000040005880B500AF0E4B0F4A1A600D4B6F
:1011800000225A600B4B00229A600A4B4FF4004237
:10119000DA60084B00221A61064B00225A610548AA
:1011A00044F0BAF80346002B01D015F051FE00BF01
:1011B00080BD00BF586200240070005280B500AFAF
:1011C000224B234A1A60214B4FF4E1325A601F4BE5
:1011D00000229A601D4B0022DA601C4B00221A612B
:1011E0001A4B0C225A61194B00229A61174B0022AC
:1011F000DA61164B00221A62144B00225A62134B1A
:1012000000229A6211484CF031F80346002B01D0BD
:1012100015F01EFE00210D484EF014FE0346002B73
:1012200001D015F015FE002108484EF0A5FE03463A
:10123000002B01D015F00CFE04484EF089FD03464A
:10124000002B01D015F004FE00BF80BDD064002447
:101250000010014080B500AF224B234A1A60214B99
:101260004FF4E1325A601F4B00229A601D4B00225E
:10127000DA601C4B00221A611A4B0C225A61194B7E
:1012800000229A61174B0022DA61164B00221A6283
:10129000144B00225A62134B00229A6211484BF001
:1012A000E5FF0346002B01D015F0D2FD00210D48CB
:1012B0004EF0C8FD0346002B01D015F0C9FD0021FA
:1012C00008484EF059FE0346002B01D015F0C0FD32
:1012D00004484EF03DFD0346002B01D015F0B8FD4B
:1012E00000BF80BD646500240044004080B582B02A
:1012F00000AF0D4BD3F8D4300B4A43F00103C2F8D2
:10130000D430094BD3F8D43003F001037B607B6801
:10131000002205217A203DF039FE7A203DF060FE62
:1013200000BF0837BD4680BD0044025880B588B074
:1013300000AF3B1D00221A605A609A60DA601A61A1
:101340005A619A61214B224A1A60204B01225A604D
:101350001E4B00229A601D4B0422DA601B4B1022A8
:101360001A611A4B40225A61184B4FF480729A61ED
:10137000164B0022DA61154B4FF400621A62134BD0
:101380004FF480525A62114B00229A6202237B6012
:101390000623BB600423FB6006233B6102237B61C1
:1013A0000223BB610223FB613B1D194607484BF03A
:1013B000C1FA0346002B01D015F04AFD054815F08F
:1013C00018FE00BF2037BD4680BD00BFF865002471
:1013D00040410052516E010880B590B000AF07F156
:1013E0002C0300221A605A609A60DA601A61A04BDE
:1013F000D3F8E0309E4A43F48063C2F8E0309C4B5F
:10140000D3F8E03003F48063BB62BB6A984BD3F837
:10141000E030974A43F04003C2F8E030944BD3F8F1
:10142000E03003F040037B627B6A914BD3F8E030FD
:101430008F4A43F00803C2F8E0308D4BD3F8E03018
:1014400003F008033B623B6A894BD3F8E030884ADB
:1014500043F00403C2F8E030854BD3F8E03003F0EA
:101460000403FB61FB69824BD3F8E030804A43F40C
:101470008073C2F8E0307E4BD3F8E03003F4807321
:10148000BB61BB697A4BD3F8E030794A43F0100373
:10149000C2F8E030764BD3F8E03003F010037B6104
:1014A0007B69734BD3F8E030714A43F00203C2F812
:1014B000E0306F4BD3F8E03003F002033B613B694F
:1014C0006B4BD3F8E0306A4A43F40073C2F8E03063
:1014D000674BD3F8E03003F40073FB60FB68644BA8
:1014E000D3F8E030624A43F00103C2F8E030604BC9
:1014F000D3F8E03003F00103BB60BB685C4BD3F86A
:10150000E0305B4A43F02003C2F8E030584BD3F898
:10151000E03003F020037B607B68554BD3F8E0306C
:10152000534A43F08003C2F8E030514BD3F8E03027
:1015300003F080033B603B68002208214D483FF0E8
:10154000F3FB01224FF400514B483FF0EDFB00222A
:1015500008214A483FF0E8FB0022402148483FF07C
:10156000E3FB0122042147483FF0DEFB0823FB6236
:1015700001233B6300237B630023BB6307F12C0340
:1015800019463C483EF0BAFF4FF48073FB620223D9
:101590003B6300237B630023BB630023FB6307F1F2
:1015A0002C03194636483EF0A9FF4FF40053FB6266
:1015B00001233B6300237B630023BB6307F12C0300
:1015C00019462D483EF09AFF0823FB6201233B6336
:1015D00000237B630323BB6307F12C0319462748D1
:1015E0003EF08CFF0423FB624FF404133B630023A3
:1015F0007B6307F12C03194620483EF07FFF4FF430
:101600004063FB6202233B6301237B630323BB63D1
:101610000723FB6307F12C0319461B483EF06EFFBE
:101620004023FB6201233B6300237B630323BB63F3
:1016300007F12C03194612483EF060FF0423FB62B9
:1016400001233B6300237B630023BB6307F12C036F
:1016500019460C483EF052FF0022052108203DF0BB
:1016600095FC08203DF0BCFC00BF4037BD4680BD66
:1016700000440258000C025800200258001802587A
:1016800000000258002402580004025890B587B0A8
:1016900002AFF860B9607A606FF0010200212A4859
:1016A00055F016FE0346294A1360284B1B68002B91
:1016B00018D10023009300231022F968224855F026
:1016C0006DFA0346214A1360204B1B68002B0BD197
:1016D0001023BA6879681C4855F03CFE03461B4A43
:1016E000136002E000BF00E000BF174855F00DFE98
:1016F000164B1B68002B20D0154B1B6841F288311C
:1017000018464FF0D8FE114B1B68124A1249134875
:1017100074F032FB1148FEF7EDFD03469CB20F4812
:10172000FEF7E8FD034622460C490D484BF06CFEDF
:10173000074B1B6818464FF009FF044B1B681846FF
:101740001437BD4690BD00BF88160124C017012480
:1017500088D500245C480808E0810708DCD500240F
:10176000D064002480B483B000AF78607B681B78BD
:101770001B029BB27A680132127813449BB218465E
:101780000C37BD465DF8047B704780B483B000AF72
:1017900078607B681B781B027A68013212781344E8
:1017A0001B027A680232127813441B027A680332F1
:1017B0001278134418460C37BD465DF8047B704719
:1017C00090B583B000AF0446084611461A4623463A
:1017D000FB710346BB710B467B7113463B71FB7972
:1017E0006433114A5361BB79013B0F4A13617B7922
:1017F0000D4AD3603B790C4A93603B7E0A4A5360A2
:101800003B7F094A1360084874F0FAFC02460B4615
:101810000649C1E90023054BD3E9002313461846C6
:101820000C37BD4690BD00BFC4170124E817012442
:1018300090B583B000AF78603960584B1B6841F2B7
:10184000883118464FF037FE554A5649564874F0CD
:1018500093FA5548FEF74EFD03469CB25248FEF7F8
:1018600049FD03462246504950484BF0CDFD4B4BB5
:101870001B6818464FF06AFE7B681133184600F06B
:10188000A1F87B68581C7B6811333A681946FFF74A
:10189000FDFE0346464A1360454B1B68002B31D1C1
:1018A0003E4B1B6841F2883118464FF004FE3C4A1B
:1018B00040493D4874F060FA3B48FEF71BFD034683
:1018C0009CB23948FEF716FD034622463649374892
:1018D0004BF09AFD314B1B6818464FF037FE002342
:1018E00000221021386800F077FD202200213248C4
:1018F00074F058FB3049786800F0D2F903462C4A5E
:10190000136000E000BF2A4B1B68002B20D0234B44
:101910001B6841F2883118464FF0CDFD244B1B68FF
:101920001F4A2649204874F027FA1F48FEF7E2FCB8
:1019300003469CB21C48FEF7DDFC034622461A49CA
:101940001A484BF061FD154B1B6818464FF0FEFD21
:10195000124B1B6841F2883118464FF0ACFD104A1B
:101960001749114874F008FA0F48FEF7C3FC034604
:101970009CB20D48FEF7BEFC034622460A490B48BE
:101980004BF042FD054B1B6818464FF0DFFD084B3E
:101990001B6818460C37BD4690BD00BF88D5002493
:1019A000744808080C820708DCD50024D0640024A1
:1019B000F01701241C820708F4170124E0810708AE
:1019C0003C82070890B585B000AF78602B4B1B6850
:1019D00041F2883118464FF06EFD294A29492A48BC
:1019E00074F0CAF92848FEF785FC03469CB22648E5
:1019F000FEF780FC03462246234924484BF004FDB1
:101A00001E4B1B6818464FF0A1FD0F23FB600CE036
:101A1000FB687A6813441A780132D2B21A701B78C4
:101A2000002B06D1FB68013BFB60FB68002BEFDA63
:101A300000E000BF114B1B6841F2883118464FF09F
:101A40003AFD0F4A1249104874F096F90E48FEF715
:101A500051FC03469CB20C48FEF74CFC0346224660
:101A600009490A484BF0D0FC044B1B6818464FF05C
:101A70006DFD00BF1437BD4690BD00BF88D5002462
:101A8000984808080C820708DCD50024D06400249C
:101A90003C82070890B585B000AFF860B9607A6005
:101AA000734B1B6841F2883118464FF004FD714AB0
:101AB0007149724874F060F97048FEF71BFC0346E8
:101AC0009CB26E48FEF716FC034622466B496C48F2
:101AD0004BF09AFC664B1B6818464FF037FD2023ED
:101AE0007A68B968674800F07DFF614B1B6841F276
:101AF000883118464FF0DFFC5E4A63495F4874F056
:101B00003BF95E48FEF7F6FB03469CB25B48FEF7E6
:101B1000F1FB03462246594959484BF075FC544B9A
:101B20001B6818464FF012FD002300222021B868E0
:101B300000F052FC4E4B1B6841F2883118464FF0C2
:101B4000BAFC4C4A51494D4874F016F94B48FEF71F
:101B5000D1FB03469CB24948FEF7CCFB0346224624
:101B6000464947484BF050FC414B1B6818464FF024
:101B7000EDFC002300222021786800F02DFC3C4B76
:101B80001B6841F2883118464FF095FC394A4049AC
:101B90003A4874F0F1F83948FEF7ACFB03469CB2C2
:101BA0003648FEF7A7FB03462246344934484BF03B
:101BB0002BFC2F4B1B6818464FF0C8FC002300225B
:101BC0002021304800F008FC2E49F86800F068F841
:101BD0000346304A1360FB6801221A702D4B1B68C4
:101BE000002B20D0224B1B6841F2883118464FF061
:101BF00062FC284B1B681F4A2749204874F0BCF838
:101C00001E48FEF777FB03469CB21C48FEF772FBAA
:101C10000346224619491A484BF0F6FB144B1B6841
:101C200018464FF093FC124B1B6841F2883118465E
:101C30004FF041FC0F4A1949104874F09DF80F48C5
:101C4000FEF758FB03469CB20C48FEF753FB0346D5
:101C500022460A490A484BF0D7FB054B1B68184639
:101C60004FF074FC0B4B1B6818461437BD4690BDF3
:101C700088D50024B04808080C820708DCD5002469
:101C8000D0640024141801244882070858820708E9
:101C90007482070834180124E08107083C82070891
:101CA000B0B584B000AF78603960B44B1B6841F2C6
:101CB000883118464FF0FFFBB14AB249B24874F080
:101CC0005BF8B148FEF716FB03469CB2AE48FEF740
:101CD00011FB03462246AC49AC484BF095FBA74BA1
:101CE0001B6818464FF032FCA44B1B6841F2883148
:101CF00018464FF0E0FBA24AA549A34874F03CF80F
:101D0000A148FEF7F7FA03469CB29F48FEF7F2FAA5
:101D1000034622469C499D484BF076FB974B1B6837
:101D200018464FF013FC7B6803F1110000230022DA
:101D3000102100F051FB7B6811331846FFF742FE7B
:101D40008E4B1B6841F2883118464FF0B4FB8C4A29
:101D500090498D4874F010F88B48FEF7CBFA034693
:101D60009CB28948FEF7C6FA034622468649874850
:101D70004BF04AFB814B1B6818464FF0E7FB7B6832
:101D800003F1110000230022102100F025FB7B68E5
:101D9000581C7B681133804A1946FFF777FC0346CD
:101DA0007E4A13607D4B1B68002B40F0E4807C4A28
:101DB000794B14460FCB84E80F007B68113318462B
:101DC000FFF700FE6D4B1B6841F2883118464FF05B
:101DD00072FB6B4A73496C4873F0CEFF6A48FEF79A
:101DE00089FA03469CB26848FEF784FA0346224605
:101DF000654966484BF008FB604B1B6818464FF07E
:101E0000A5FB7B6803F1110000230022102100F0E4
:101E1000E3FA7B68581C7B6811335F4A1946FFF769
:101E200035FC03465D4A13605C4B1B68002B40F099
:101E3000C3805D4A584B14461D460FCD206061603B
:101E4000A260E3600023FB6011E0554AFB68134485
:101E50001A78FB6839680B441B785340D9B2504A52
:101E6000FB6813440A461A70FB680133FB60FB6889
:101E70001F2BEAD9414B1B6841F2883118464FF0BD
:101E80001AFB3F4A4949404873F076FF3E48FEF747
:101E900031FA03469CB23C48FEF72CFA0346224630
:101EA00039493A484BF0B0FA344B1B6818464FF0AA
:101EB0004DFB002300222021394800F08DFA7B6879
:101EC000013310223649184674F039FF7B6811330C
:101ED00010223549184674F032FF284B1B6841F236
:101EE000883118464FF0E7FA254A3149264873F001
:101EF00043FF2548FEF7FEF903469CB22248FEF751
:101F0000F9F903462246204920484BF07DFA1B4B45
:101F10001B6818464FF01AFB7B68581C00230022F0
:101F2000102100F059FA154B1B6841F28831184610
:101F30004FF0C1FA124A1F49134873F01DFF1248AF
:101F4000FEF7D8F903469CB20F48FEF7D3F90346D3
:101F500022460D490D484BF057FA084B1B681846AE
:101F60004FF0F4FA7B6803F11100002300221021E6
:101F700000F032FA21E000BF1FE000BF88D5002446
:101F8000CC4808080C820708DCD50024D064002463
:101F9000A4820708B88207083818012448180124C9
:101FA0004C180124CC8207085C180124E082070841
:101FB000108307082083070800BF254B1B68002BF0
:101FC00020D0244B1B6841F2883118464FF073FA39
:101FD0001F4B1B68204A2149214873F0CDFE204841
:101FE000FEF788F903469CB21D48FEF783F90346C5
:101FF00022461B491B484BF007FA164B1B68184634
:102000004FF0A4FA134B1B6841F2883118464FF089
:1020100052FA114A1449124873F0AEFE1048FEF706
:1020200069F903469CB20E48FEF764F9034622465E
:102030000B490C484BF0E8F9064B1B6818464FF06B
:1020400085FA034B1B6818461037BD46B0BD00BF6C
:102050004818012488D50024CC480808E0810708E6
:10206000DCD50024D06400243C82070890B583B0FE
:1020700000AF78602C4B1B6841F2883118464FF056
:102080001AFA2A4A2A492B4873F076FE2948FEF7A5
:1020900031F903469CB22748FEF72CF90346224645
:1020A000244925484BF0B0F91F4B1B6818464FF0E8
:1020B0004DFA7B68013310220021184673F072FF3D
:1020C0007B68113310220021184673F06BFF7B6888
:1020D000213310220021184673F064FF7B68002230
:1020E0001A70114B1B6841F2883118464FF0E3F922
:1020F0000E4A12490F4873F03FFE0E48FEF7FAF8F9
:1021000003469CB20B48FEF7F5F803462246094900
:1021100009484BF079F9044B1B6818464FF016FA42
:1021200000BF0C37BD4690BD88D50024E4480808A0
:102130000C820708DCD50024D06400243C82070808
:1021400090B583B000AF7860544B1B6818464FF0D1
:102150008BFC03469AB2524B1A80514B1B88002BC2
:1021600000F095804F4B1B6841F2883118464FF0C4
:10217000A2F94B4B1B884C4A4C494D4873F0FCFD6F
:102180004B48FEF7B7F803469CB24948FEF7B2F851
:1021900003462246464947484BF036F9414B1B68F7
:1021A00018464FF0D3F9444B00221A803CE03B4BD9
:1021B00018680023002241494FF0F8FB0346404ACB
:1021C00013603F4B1B68002B20D0364B1B6841F23D
:1021D000883118464FF06FF9394B1B68324A39493C
:1021E000334873F0C9FD3248FEF784F803469CB2C9
:1021F0002F48FEF77FF8034622462D492D484BF025
:1022000003F9284B1B6818464FF0A0F92A4B1B888E
:102210001A467B681344294A12781A70264B1B8889
:1022200001339AB2244B1A801C4B1B6818464FF09E
:102230001BFC0346002B05D01F4B1B8840F6FD728C
:102240009342B4D91C4B1A88154B1A80154B1B6846
:1022500041F2883118464FF02EF9114B1B88124A73
:102260001949134873F088FD1148FEF743F80346F7
:102270009CB20F48FEF73EF8034622460C490D4833
:102280004BF0C2F8074B1B6818464FF05FF9044B40
:102290001B8818460C37BD4690BD00BF34D40024BF
:1022A0006C18012488D50024FC4808082C830708F2
:1022B000DCD50024D06400246E1801247018012499
:1022C00074180124548307088C83070890B583B0E1
:1022D00000AF78607B681B682F4A934216D12F4B62
:1022E0001A782F4B1A702F4B1868002300222C49A4
:1022F0004FF0FCFA03462C4A1360012227492B4871
:102300004BF010F903461A46294B1A707B681B687C
:10231000284A93423BD1284B1A78284B1A70284BF5
:1023200018680023002225494FF0E0FA03461E4AB0
:1023300013601D4B1B68002B20D0224B1B6841F201
:10234000883118464FF0B7F8174B1B681E4A1F49D3
:102350001F4873F011FD1E48FDF7CCFF03469CB2E9
:102360001B48FDF7C7FF0346224619490F484BF0AB
:102370004BF8144B1B6818464FF0E8F801220E4941
:1023800014484BF0CFF803461A46094B1A7000BFA9
:102390000C37BD4690BD00BF0010014011EE002477
:1023A0007818012434D400247C180124D06400243B
:1023B000801801240044004010EE002481180124FC
:1023C000E0CB002488D5002418490808B483070806
:1023D000DCD500246465002490B585B000AFF860BA
:1023E0007B600B467B8113467B72A84B1B6841F2D6
:1023F000883118464FF05FF8A54B00221A80E3E0C1
:102400007B7A002B1ED0A24B1B8803F00F039BB2DC
:10241000002B17D19E4B1B881A467B6813441A4623
:102420009C499D4873F0A8FC9B48FDF763FF034659
:102430009CB29948FDF75EFF0346224696499748AD
:102440004AF0E2FF924B1B881A46FB6813441B7844
:102450001A469349904873F08FFC8F48FDF74AFF66
:1024600003469CB28C48FDF745FF034622468A4945
:102470008A484AF0C9FF8B49874873F07DFC86483B
:10248000FDF738FF03469CB28348FDF733FF034650
:102490002246814981484AF0B7FF7D4B1B8803F0F3
:1024A0000F039BB2072B11D17F497B4873F064FC6B
:1024B0007948FDF71FFF03469CB27748FDF71AFFE6
:1024C00003462246744975484AF09EFF704B1B88AC
:1024D00003F00F039BB20F2B70D173496E4873F05A
:1024E0004BFC6D48FDF706FF03469CB26A48FDF7BA
:1024F00001FF03462246684968484AF085FF644B5D
:102500001B880F3B9AB2694B1A803FE0674B1B88D0
:102510001A46FB6813441B780133654A13441B7841
:1025200003F09703002B19D0604B1B881A46FB68F9
:1025300013441B781A465F49574873F01DFC5648F0
:10254000FDF7D8FE03469CB25348FDF7D3FE034681
:102550002246514951484AF057FF11E056494E482A
:1025600073F00AFC4C48FDF7C5FE03469CB24A488E
:10257000FDF7C0FE03462246474948484AF044FF5B
:102580004A4B1B8801339AB2484B1A80404B1A8839
:10259000464B1B889A42B9D248493F4873F0ECFB3E
:1025A0003D48FDF7A7FE03469CB23B48FDF7A2FE5F
:1025B00003462246384939484AF026FF344B1B88E7
:1025C00001339AB2324B1A80314B1B887A899A4276
:1025D0003FF616AF7B8903F00F039BB2002B00F090
:1025E000C8807B8903F00F039AB2304B1A8017E042
:1025F0003349294873F0C0FB2748FDF77BFE0346AB
:102600009CB22548FDF776FE034622462249234820
:102610004AF0FAFE254B1B8801339AB2234B1A80ED
:10262000224B1B880F2BE3D97B8903F008039BB255
:10263000002B11D11C49184873F09EFB1648FDF77A
:1026400059FE03469CB21448FDF754FE0346224649
:10265000114912484AF0D8FE13490F4873F08CFB19
:102660000D48FDF747FE03469CB20B48FDF742FEBE
:1026700003462246084909484AF0C6FE7B8923F0F2
:102680000F039AB2094B1A805CE000BF88D5002482
:1026900082180124EC830708DCD50024D0640024D0
:1026A00000840708088407080C840708841801249C
:1026B00008A7080814840708188407081C8407085A
:1026C000208407082F4B1B881A46FB6813441B788D
:1026D00001332D4A13441B7803F09703002B19D0C4
:1026E000284B1B881A46FB6813441B781A46274957
:1026F000274873F041FB2648FDF7FCFD03469CB2DA
:102700002348FDF7F7FD03462246214921484AF0B8
:102710007BFE11E020491E4873F02EFB1C48FDF79C
:10272000E9FD03469CB21A48FDF7E4FD0346224644
:10273000174918484AF068FE124B1B8801339AB2B9
:10274000104B1A800F4B1B887A899A42BAD81349CA
:102750000F4873F011FB0E48FDF7CCFD03469CB209
:102760000B48FDF7C7FD03462246094909484AF0D0
:102770004BFE0B4B1B6818464EF0E8FE00BF1437AB
:10278000BD4690BD8418012408A7080814840708D2
:10279000DCD50024D0640024188407081C840708B2
:1027A00088D5002490B583B002AF654B1B684FF409
:1027B0007A7118464EF07FFE6249634873F0DCFA86
:1027C0006148FDF797FD03469CB25F48FDF792FD17
:1027D000034622465C495D484AF016FE59495A486C
:1027E00073F0CAFA5848FDF785FD03469CB2564877
:1027F000FDF780FD03462246534954484AF004FE43
:102800005049514873F0B8FA4F48FDF773FD03463D
:102810009CB24D48FDF76EFD034622464A494B489F
:102820004AF0F2FD4A49484873F0A6FA4648FDF7D7
:1028300061FD03469CB24448FDF75CFD0346224619
:10284000414942484AF0E0FD42493F4873F094FA5A
:102850003D48FDF74FFD03469CB23B48FDF74AFD5E
:1028600003462246384939484AF0CEFD3A493648AF
:1028700073F082FA3448FDF73DFD03469CB23248BE
:10288000FDF738FD034622462F4930484AF0BCFD8B
:1028900041230193314B0093314B314A31492A484E
:1028A00073F06AFA2848FDF725FD03469CB22648D6
:1028B000FDF720FD03462246234924484AF0A4FDA3
:1028C000294A2A49204873F057FA1F48FDF712FD9C
:1028D00003469CB21C48FDF70DFD034622461A49EB
:1028E0001A484AF091FD2249174873F045FA1648F4
:1028F000FDF700FD03469CB21348FDF7FBFC0346C1
:102900002246114911484AF07FFD12490E4873F0E2
:1029100033FA0D48FDF7EEFC03469CB20A48FDF77A
:10292000E9FC03462246084908484AF06DFD044B7D
:102930001B6818464EF00AFE00BF0437BD4690BD26
:1029400088D5002424840708DCD50024D064002422
:102950005084070858840708A08407081C850708C6
:10296000E8840708EC840708208507082C850708F9
:102970005485070880B483B000AF0346FB80FB8812
:102980001B02FA88120A92B2134318460C37BD464E
:102990005DF8047B704780B483B000AF78607B68DB
:1029A0001A0E7B681B0A03F47F431A437B681B02E1
:1029B00003F47F031A437B681B06134318460C3746
:1029C000BD465DF8047B704780B500AF03490448FD
:1029D00049F0F8FC014B1B68184680BD881801249B
:1029E0002062002480B487B000AFF860B9607A60DC
:1029F0007B800023FB8210E0FB8ABA6813441978BD
:102A0000FB8A7A6813441A78FB8AF86803444A40C0
:102A1000D2B21A70FB8A0133FB82FA8A7B889A420F
:102A2000EAD300BF00BF1C37BD465DF8047B70478A
:102A300090B58BB004AF03463960FB800023BB82A6
:102A4000FB88002B23D0FB88A3F58073002B00DAD2
:102A50000733DB10FB75FB88DBB203F00703BB75A4
:102A6000FB8801333B823B8AA3F58073002B00DA9D
:102A70000733DB10FB753B8AA3F580735A4203F0E2
:102A8000070302F0070258BF5342BB7503E000235F
:102A9000FB750023BB75FB7DFB7454E0BB7DBB74F1
:102AA00049E0FB7C3A6813441B781A46BB7C42FA27
:102AB00003F303F00103002B3AD0FB7C20339BB2DD
:102AC000DB009AB2BB7C9BB21344BB82FB7CFB73E2
:102AD000BB7CBB73314B1B6841F2883118464EF00A
:102AE000EAFCB88AFB7BBA7BB97B012404FA01F1CA
:102AF0000291019200930346294A2A492A4873F019
:102B00003BF92948FDF7F6FB03469CB22648FDF742
:102B1000F1FB03462246244924484AF075FC1F4B2A
:102B20001B6818464EF012FD0823BB748023FB740B
:102B3000BB7C0133BB74BB7C072BB2D90023BB75B4
:102B4000FB7C0133FB7497F91330002BA6DABB8AA8
:102B5000002B1ED1114B1B6841F2883118464EF0F4
:102B6000AAFC0F4A1249104873F006F90E48FDF707
:102B7000C1FB03469CB20C48FDF7BCFB0346224652
:102B800009490A484AF040FC044B1B6818464EF0BD
:102B9000DDFCBB8A18461C37BD4690BD88D5002495
:102BA0003049080850860708DCD50024D06400248A
:102BB000AC860708B0B58CB006AF0346FB71FB7955
:102BC000002B45D18C4B1B6841F2883118464EF0E2
:102BD00072FC8A4A8A498B4873F0CEF88948FDF71F
:102BE00089FB03469CB28748FDF784FB03462246D7
:102BF000844985484AF008FC7F4B1B6818464EF014
:102C0000A5FC824B00221A607B4B1B6841F2883185
:102C100018464EF050FC794A7D497A4873F0ACF87A
:102C20007848FDF767FB03469CB27648FDF762FBE8
:102C300003462246734974484AF0E6FB6E4B1B6814
:102C400018464EF083FC734B00221A7001F0E3B873
:102C5000FB79012B41F080806F4B9A786F4B1B788A
:102C60009A4208D06C4B9A786C4B1A70674B1B6871
:102C70000133664A1360654B1B68B3F5967F26D90E
:102C8000624B00221A605C4B1B6841F28831184687
:102C90004EF011FC624B1B78584A6249594873F058
:102CA0006BF85848FDF726FB03469CB25548FDF7E4
:102CB00021FB03462246534953484AF0A5FB4E4B9D
:102CC0001B6818464EF042FC524B0B221A70514BB7
:102CD0001B78002B5BD1524B1B781946524A582364
:102CE00001FB03F3134414331B78052B41F093804D
:102CF00010F0A8FD03461A464C4B1A7050220021D2
:102D00004B4873F04FF94A4B9F221A70484B0422EC
:102D10005A70434B1B781946434A582301FB03F36F
:102D2000134416331888414B1B7800930123404A03
:102D300002210FF01DFF354B00221A603D4B00228F
:102D40001A702D4B1B6841F2883118464EF0B3FBC8
:102D5000334B1B78294A38492A4873F00DF8294823
:102D6000FDF7C8FA03469CB22648FDF7C3FA0346AE
:102D70002246244924484AF047FB1F4B1B6818464B
:102D80004EF0E4FB234B01221A7001F044B8214BB2
:102D90001B78012B40F0B881264B1B78002B01F0EB
:102DA0003A80264B1B78002B4CD1134B1B6841F209
:102DB000883118464EF07FFB194B1B780F4A20498B
:102DC000104872F0D9FF0F48FDF794FA03469CB201
:102DD0000C48FDF78FFA034622460A490A484AF092
:102DE00013FB054B1B6818464EF0B0FB094B0B223A
:102DF0001A7001F010B800BF88D500244C490808AB
:102E0000D4860708DCD50024D06400248C18012463
:102E1000E886070890180124DCED00241600002441
:102E2000140000241887070834120124EC1301242D
:102E30009418012477140124688707087814012462
:102E4000A48707089E4B00221A6010F0FBFC034683
:102E50001A469C4B1A70502200219B4873F0A2F82E
:102E6000994B9F221A70984B06225A70964B00225B
:102E70009A70954B0222DA70934B01221A71934B90
:102E80001B781946924A582301FB03F3134411336C
:102E90001B7803F00403002B22D08E4B1B6841F2F9
:102EA000883118464EF007FB8B4A8C498C4872F0EB
:102EB00063FF8B48FDF71EFA03469CB28848FDF776
:102EC00019FA03462246864986484AF09DFA814B04
:102ED0001B6818464EF03AFB7B4B04225A7183E084
:102EE0007A4B1B7819467A4A582301FB03F31344A3
:102EF00011331B7803F00203002B22D0754B1B68A3
:102F000041F2883118464EF0D6FA734A7649744831
:102F100072F032FF7248FDF7EDF903469CB270483B
:102F2000FDF7E8F9034622466D496E484AF06CFA0F
:102F3000684B1B6818464EF009FB634B02225A711E
:102F400052E0624B1B781946614A582301FB03F398
:102F5000134411331B7803F00103002B22D05D4B87
:102F60001B6841F2883118464EF0A5FA5A4A5F496B
:102F70005B4872F001FF5A48FDF7BCF903469CB26A
:102F80005748FDF7B7F903462246554955484AF0D8
:102F90003BFA504B1B6818464EF0D8FA4A4B0122B8
:102FA0005A7121E04B4B1B6841F2883118464EF0B4
:102FB00082FA494A4E494A4872F0DEFE4848FDF717
:102FC00099F903469CB24648FDF794F90346224618
:102FD000434944484AF018FA3E4B1B6818464EF0E5
:102FE000B5FA394B00225A713A4B1B6841F28831CD
:102FF00018464EF060FA354B1B78374A3D49384841
:1030000072F0BAFE3648FDF775F903469CB23448B3
:10301000FDF770F903462246314932484AF0F4F987
:103020002C4B1B6818464EF091FA284B1B7818461B
:10303000254B5979264A582300FB03F313441233D6
:103040000A461A70214B1B781946214A582301FB66
:1030500003F31344163318881A4B1B78009301238B
:10306000194A06210FF084FD234B00221A70234BCE
:1030700000221A70174B1B6841F2883118464EF037
:103080001AFA124B1B78144A1D49154872F074FE47
:103090001348FDF72FF903469CB21148FDF72AF9B2
:1030A000034622460E490F484AF0AEF9094B1B6809
:1030B00018464EF04BFA134B02221A7000F0ABBECA
:1030C0008C180124EC13012494180124140000240A
:1030D0003412012488D500244C490808E4870708E5
:1030E000DCD50024D0640024008807082088070865
:1030F0004488070894880708791401247A14012465
:10310000B8880708901801246F4B1B78022B40F0F9
:10311000FD806E4B1B78002B00F07D866C4B1B787E
:10312000002B25D06B4B1B6841F2883118464EF0BE
:10313000C2F9694B1B78694A69496A4872F01CFEFA
:103140006848FDF7D7F803469CB26648FDF7D2F809
:1031500003462246634964484AF056F95D4B1B68B2
:1031600018464EF0F3F9584B0B221A7000F053BE7C
:103170005E4B00221A6010F065FB03461A465C4B5A
:103180001A70502200215B4872F00CFF594B9F22AD
:103190001A70584B08225A70564B01229A70554BA0
:1031A000554ADC1C15460FCD20606160A260E360CB
:1031B0000FCD20616161A261E361474B1B78194625
:1031C0004E4A582301FB03F3134416331888484B27
:1031D0001B7800930123474A23210FF0C9FC11F00B
:1031E000A5F8F860FB68002B28D1454B00221A7027
:1031F000384B1B6841F2883118464EF05CF9364B6B
:103200001B78364A3F49374872F0B6FD3548FDF71E
:1032100071F803469CB23348FDF76CF8034622462A
:10322000304931484AF0F0F82A4B1B6818464EF0F6
:103230008DF9254B03221A7000F0EDBD254B1B685C
:1032400041F2883118464EF036F9244A2E49254875
:1032500072F092FD2348FDF74DF803469CB22148D9
:10326000FDF748F8034622461E491F484AF0CCF8AD
:10327000184B1B6818464EF069F9164B1B6841F253
:10328000883118464EF017F9134B1B78134A14492E
:10329000144872F071FD1348FDF72CF803469CB2F8
:1032A0001048FDF727F8034622460E490E484AF01B
:1032B000ABF8084B1B6818464EF048F9024B0B223E
:1032C0001A7000F0A8BD00BF9018012479140124E1
:1032D0007A14012488D50024140000244C490808DD
:1032E000FC880708DCD50024D06400248C18012455
:1032F000EC130124941801248014012434120124B5
:103300007B1401244089070890890708AF4B1B787C
:10331000032B40F08781AE4B1B78002B00F07B85A0
:10332000AC4B00221A60AC4B1B6841F28831184646
:103330004EF0C1F8A94AAA49AA4872F01DFDA94851
:10334000FCF7D8FF03469CB2A648FCF7D3FF034620
:103350002246A449A4484AF057F89F4B1B681846D8
:103360004EF0F4F810F06EFA03461A469F4B1A70AE
:10337000502200219E4872F015FE9D4B9F221A702C
:103380009B4B02225A70994B1A78994B9A70984B22
:103390000122DA70904B1B6841F2883118464EF0DA
:1033A0008AF88E4A93498F4872F0E6FC8D48FCF704
:1033B000A1FF03469CB28B48FCF79CFF03462246C4
:1033C000884989484AF020F8834B1B6818464EF01C
:1033D000BDF8894855F08BFF38613B69002B1FD041
:1033E0007D4B1B6841F2883118464EF064F83B690A
:1033F0007A4A82497B4872F0BFFC7A48FCF77AFF30
:1034000003469CB27748FCF775FF03462246754990
:10341000754849F0F9FF704B1B6818464EF096F856
:1034200010227749744855F0CDFF38613B69002B75
:103430001FD0694B1B6841F2883118464EF03BF8AB
:103440003B69664A6F49674872F096FC6548FCF72D
:1034500051FF03469CB26348FCF74CFF03462246EB
:103460006049614849F0D0FF5B4B1B6818464EF03D
:103470006DF8594B1B6841F2883118464EF01BF825
:10348000564A6149574872F077FC5648FCF732FFBC
:1034900003469CB25348FCF72DFF03462246514990
:1034A000514849F0B1FF4C4B1B6818464EF04EF89E
:1034B0004F4B534A1C1D13460FCB84E80F004E4858
:1034C00055F0D7FF38613B69002B1FD0424B1B687A
:1034D00041F2883118464DF0EEFF3B693F4A4B49B7
:1034E000404872F049FC3F48FCF704FF03469CB299
:1034F0003C48FCF7FFFE034622463A493A4849F069
:1035000083FF354B1B6818464EF020F8324B1B6882
:1035100041F2883118464DF0CEFF304A3C493148DF
:1035200072F02AFC2F48FCF7E5FE03469CB22D48BA
:10353000FCF7E0FE034622462A492B4849F064FF87
:10354000254B1B6818464EF001F80023002210217D
:103550002B48FEF741FF2F4B1B7819462E4A582364
:1035600001FB03F3134416331888204B1B78009398
:1035700001231F4A14210FF0FBFA284B00221A7076
:10358000154B1B6841F2883118464DF094FF214BD2
:103590001B78124A2249134872F0EEFB1148FCF7DF
:1035A000A9FE03469CB20F48FCF7A4FE0346224640
:1035B0000C490D4849F028FF074B1B6818464DF091
:1035C000C5FF024B04221A7000F025BC901801249C
:1035D0007B1401248C18012488D500244C49080848
:1035E000D4890708DCD50024D0640024EC1301241E
:1035F00094180124F8890708C0140124488A070890
:1036000000150124808A0708C48A0708088B070868
:10361000408B070814000024341201247C14012478
:10362000808B0708214B1B78042B40F07183204BC3
:103630001B78002B00F0EF831D4B00221A701D4BEE
:1036400000221A601C4B1B78002B29D111F03AFA8A
:103650000346184A1360174B1B68002B20D0174BEA
:103660001B6841F2883118464DF025FF114B1B684D
:10367000134A1449144872F07FFB1348FCF73AFED2
:1036800003469CB21048FCF735FE034622460E491D
:103690000E4849F0B9FE094B1B6818464DF056FF1D
:1036A0000B4B00221A600123FB759DE29018012448
:1036B0007C140124E41801242015012488D5002459
:1036C0004C490808D48B0708DCD50024D0640024BA
:1036D000E8180124FB7D013BFB75B349B348FEF7B5
:1036E000A7F80346B24A1360B14B1B68002B20D0E9
:1036F000B04B1B6841F2883118464DF0DCFEAC4BF4
:103700001B68AD4AAD49AE4872F036FBAC48FCF7D9
:10371000F1FD03469CB2AA48FCF7ECFD03462246A5
:10372000A749A84849F070FEA24B1B6818464DF007
:103730000DFFA04B1B6841F2883118464DF0BBFECF
:103740009D4AA1499E4872F017FB9D48FCF7D2FDA7
:1037500003469CB29A48FCF7CDFD034622469849A1
:10376000984849F051FE934B1B6818464DF0EEFE09
:103770000023002210218C48FEF72EFE6FF001027C
:103780000021924853F0A4FD0346914A1360904BE8
:103790001B68002B20D0874B1B6841F288311846EC
:1037A0004DF089FE8A4B1B68834A8A49844872F02F
:1037B000E3FA8348FCF79EFD03469CB28048FCF781
:1037C00099FD034622467E497E4849F01DFE794B0D
:1037D0001B6818464DF0BAFE10227F497B4853F013
:1037E00038FA03467D4A13607C4B1B68002B20D0BF
:1037F000704B1B6841F2883118464DF05CFE774BE8
:103800001B686D4A76496E4872F0B6FA6C48FCF750
:1038100071FD03469CB26A48FCF76CFD03462246E4
:103820006749684849F0F0FD624B1B6818464DF047
:103830008DFE604B1B6841F2883118464DF03BFE0F
:103840005D4A68495E4872F097FA5D48FCF752FDA0
:1038500003469CB25A48FCF74DFD034622465849A0
:10386000584849F0D1FD534B1B6818464DF06EFE89
:103870005D4B1B781946002300225C48FEF7ACFD27
:103880004C4B1B6841F2883118464DF014FE564BE4
:103890001B78494A56494A4872F06EFA4848FCF784
:1038A00029FD03469CB24648FCF724FD0346224608
:1038B0004349444849F0A8FD3E4B1B6818464DF06B
:1038C00045FE3C4B1B6841F2883118464DF0F3FD34
:1038D000394A48493A4872F04FFA3948FCF70AFD2C
:1038E00003469CB23648FCF705FD034622463449A0
:1038F000344849F089FD2F4B1B6818464DF026FED1
:10390000002300220D212848FEF766FD294B1B6885
:1039100041F2883118464DF0CEFD274A36492848F5
:1039200072F02AFA2648FCF7E5FC03469CB22448CC
:10393000FCF7E0FC034622462149224849F064FD99
:103940001C4B1B6818464DF001FE2C4B1B7819468A
:10395000002300222A48FEF73FFD164B1B6841F268
:10396000883118464DF0A7FD244B1B78124A254993
:10397000134872F001FA1248FCF7BCFC03469CB2F3
:103980000F48FCF7B7FC034622460D490D4849F0A5
:103990003BFD084B1B6818464DF0D8FD054B1B68D6
:1039A00041F2883130E000BF411501242015012487
:1039B000EC18012488D500244C490808088C070815
:1039C000DCD50024D0640024388C0708F0180124CA
:1039D000281A0124688C0708211501242C1A0124B7
:1039E000948C0708C48C070854160124541501242C
:1039F000E48C0708108D0708308D07086016012435
:103A0000581601244C8D070818464DF054FDA34A62
:103A1000A349A44872F0B0F9A248FCF76BFC034636
:103A20009CB2A048FCF766FC034622469D499E488E
:103A300049F0EAFC9D4B1B6818464DF087FD9C4BF6
:103A40001B781946002300229A48FEF7C5FC974BC5
:103A50001B6841F2883118464DF02DFD944B1B78C0
:103A60008E4A95498F4872F087F98E48FCF742FCE0
:103A700003469CB28B48FCF73DFC0346224689492D
:103A8000894849F0C1FC894B1B6818464DF05EFD22
:103A90000A220021894872F085FA894B1B78194661
:103AA000884B1B781A46824B1B780593814B0493F5
:103AB0000392854B02930D230193844B00930B4695
:103AC000834A7E49834853F0FBF90346824A1360D8
:103AD000814B1B68002B20D0744B1B6841F288314E
:103AE00018464DF0E8FC7C4B1B686C4A7B496D48DE
:103AF00072F042F96B48FCF7FDFB03469CB2694843
:103B0000FCF7F8FB034622466649674849F07CFC0F
:103B1000664B1B6818464DF019FD644B1B6841F25B
:103B2000883118464DF0C7FCFB7D5C4A6C495D4806
:103B300072F022F95B48FCF7DDFB03469CB2594862
:103B4000FCF7D8FB034622465649574849F05CFC2F
:103B5000564B1B6818464DF0F9FC594B1B7819461B
:103B6000002300225548FEF737FC5A4853F0CDFB9E
:103B70005C4B1B68002B09D15B4B1B68002B05D1EC
:103B8000554B1B68002B01D1012300E00023574A4D
:103B90001360564B1B68002B26D0554B00221A6031
:103BA000424B1B6841F2883118464DF084FC514B62
:103BB0001B783A4A50493B4872F0DEF83948FCF726
:103BC00099FB03469CB23748FCF794FB0346224618
:103BD0003449354849F018FC344B1B6818464DF001
:103BE000B5FC464B05221A70404B1B68002B03D1D5
:103BF000FB7D002B7FF46EAD3C4B1B68002B40F02F
:103C00000A812A4B1B6841F2883118464DF053FC5B
:103C1000224A3B49234872F0AFF82248FCF76AFB7E
:103C200003469CB21F48FCF765FB034622461D492C
:103C30001D4849F0E9FB1D4B1B6818464DF086FCFA
:103C40002B4B00221A602F48FEF710FA2E4B012250
:103C50001A70164B1B6841F2883118464DF02BFC48
:103C6000244B1B780D4A29490E4872F085F80D48FF
:103C7000FCF740FB03469CB20A48FCF73BFB0346BB
:103C800022460849084849F0BFFB084B1B68184604
:103C90004DF05CFC194B03221A70BCE04C4908083B
:103CA000788D0708DCD50024D064002488D5002452
:103CB0008416012464160124908D0708301A01240B
:103CC00054160124601601245816012441150124BC
:103CD00054150124F01801243C1A0124BC8D070856
:103CE000F48D0708281A01242C1A0124E81801244D
:103CF0008C18012414000024588E07089018012401
:103D0000AC8E0708201501247B140124D08E0708EF
:103D1000464B1B78052B7ED0444B1B78062B7AD064
:103D2000424B1B78072B76D0404B1B78082B72D068
:103D30003E4B1B78092B6ED03C4B1B780A2B03D1D2
:103D40003B4B01221A7066E0384B1B780B2B62D17B
:103D5000384B01221A705EE0FB79022B5BD0364BA8
:103D60001B6841F2883118464DF0A5FB33493448B1
:103D700072F002F83248FCF7BDFA03469CB23048B4
:103D8000FCF7B8FA034622462D492E4849F03CFB81
:103D9000294B1B6818464DF0D9FB274B1B6841F295
:103DA000883118464DF087FBFB79274A274924487C
:103DB00071F0E2FF2248FCF79DFA03469CB22048CE
:103DC000FCF798FA034622461D491E4849F01CFBA1
:103DD000194B1B6818464DF0B9FB174B1B6841F295
:103DE000883118464DF067FB1449154871F0C4FF3F
:103DF0001348FCF77FFA03469CB21148FCF77AFAA5
:103E0000034622460E490F4849F0FEFA0A4B1B684A
:103E100018464DF09BFB054B1A780D4B1A70034B5F
:103E20001B7818461837BD46B0BD00BF9018012456
:103E300005EE002406EE002488D50024248F070810
:103E4000DCD50024D06400244C490808808F070882
:103E50007614012498B500AF7C4B1B6841F2883181
:103E600018464DF028FB7A497A4871F085FF794869
:103E7000FCF740FA03469CB27648FCF73BFA03464F
:103E800022467449744849F0BFFA704B1B681846C3
:103E90004DF05CFB714B181D704B5B78033B99B286
:103EA00000230022FEF798FA684B1B6841F2883124
:103EB00018464DF000FB694B1B79694A6949654812
:103EC00071F05AFF6348FCF715FA03469CB261484B
:103ED000FCF710FA034622465E495F4849F094FA1F
:103EE0005A4B1B6818464DF031FB584B1B6841F28A
:103EF000883118464DF0DFFA584B5B79584A5A49D9
:103F0000544871F039FF5348FCF7F4F903469CB26A
:103F10005048FCF7EFF9034622464E494E4849F017
:103F200073FA4A4B1B6818464DF010FB4B4B5B79FC
:103F3000032B00F2A38001A252F823F04D3F0008AA
:103F40008D3F0008CD3F00080D4000083F4B1B6827
:103F500041F2883118464DF0AEFA414A43493D4896
:103F600071F00AFF3B48FCF7C5F903469CB239489B
:103F7000FCF7C0F9034622463649374849F044FA6F
:103F8000324B1B6818464DF0E1FA97E02F4B1B6847
:103F900041F2883118464DF08EFA314A34492D48A5
:103FA00071F0EAFE2B48FCF7A5F903469CB22948BC
:103FB000FCF7A0F9034622462649274849F024FA8F
:103FC000224B1B6818464DF0C1FA77E01F4B1B6867
:103FD00041F2883118464DF06EFA214A25491D48B4
:103FE00071F0CAFE1B48FCF785F903469CB21948DC
:103FF000FCF780F9034622461649174849F004FAAF
:10400000124B1B6818464DF0A1FA57E00F4B1B6886
:1040100041F2883118464DF04EFA114A16490D48C2
:1040200071F0AAFE0B48FCF765F903469CB20948FB
:10403000FCF760F9034622460649074849F0E4F9CF
:10404000024B1B6818464DF081FA37E088D50024F2
:1040500028900708DCD50024D0640024C00801247F
:104060006C4908086C900708AC900708EC900708AA
:10407000049107083091070868910708B24B1B6844
:1040800041F2883118464DF016FAB04AB049B148AD
:1040900071F072FEAF48FCF72DF903469CB2AD48B3
:1040A000FCF728F903462246AA49AB4849F0ACF987
:1040B000A54B1B6818464DF049FA00BFA24B1B6880
:1040C00041F2883118464DF0F6F9A44B9B791B025A
:1040D000A24AD27913449D4AA1499E4871F04CFEF0
:1040E0009C48FCF707F903469CB29A48FCF702F992
:1040F000034622469749984849F086F9924B1B6837
:1041000018464DF023FA904B1B6841F2883118464F
:104110004DF0D1F9914B1B7A8C4A92498D4871F040
:104120002BFE8C48FCF7E6F803469CB28948FCF766
:10413000E1F8034622468749874849F065F9824BF2
:104140001B6818464DF002FA7F4B1B6841F288311C
:1041500018464DF0B0F9814B5B7A7C4A82497D4824
:1041600071F00AFE7B48FCF7C5F803469CB279481B
:10417000FCF7C0F8034622467649774849F044F9EF
:10418000714B1B6818464DF0E1F96F4B1B6841F20B
:10419000883118464DF08FF9704B9B7A6B4A734902
:1041A0006C4871F0E9FD6B48FCF7A4F803469CB23B
:1041B0006848FCF79FF8034622466649664849F07E
:1041C00023F9614B1B6818464DF0C0F95E4B1B6824
:1041D00041F2883118464DF06EF9604BDB7A5B4A4C
:1041E00063495C4871F0C8FD5A48FCF783F8034600
:1041F0009CB25848FCF77EF803462246554956487B
:1042000049F002F9504B1B6818464DF09FF94E4B90
:104210001B6841F2883118464DF04DF94F4B1B7B1E
:104220004A4A54494B4871F0A7FD4A48FCF762F8E6
:1042300003469CB24748FCF75DF8034622464549D1
:10424000454849F0E1F8404B1B6818464DF07EF9AF
:104250003D4B1B6841F2883118464DF02CF93F4B1D
:104260005B7B3A4A44493B4871F086FD3948FCF78C
:1042700041F803469CB23748FCF73CF80346224617
:104280003449354849F0C0F82F4B1B6818464DF0AB
:104290005DF92D4B1B6841F2883118464DF00BF942
:1042A0002E4B9B7B294A35492A4871F065FD2948E8
:1042B000FCF720F803469CB22648FCF71BF803469F
:1042C00022462449244849F09FF81F4B1B68184692
:1042D0004DF03CF91C4B1B6841F2883118464DF0FB
:1042E000EAF81E4BDB7B194A25491A4871F044FD58
:1042F0001848FBF7FFFF03469CB21648FBF7FAFF8E
:10430000034622461349144849F07EF80E4B1B68B9
:1043100018464DF01BF90C4B1B6841F288311846CA
:104320004DF0C9F80D4B1B7C084A1649094871F03D
:1043300023FD0848FBF7DEFF03469CB20548FBF768
:10434000D9FF034622461FE088D500246C4908089F
:1043500094910708DCD50024D0640024C00801240F
:10436000C49107080492070844920708849207083A
:10437000C492070804930708449307088493070826
:10438000C493070804940708A549A64849F03CF8D7
:10439000A54B1B6818464DF0D9F8A34B1B6841F29A
:1043A000883118464DF087F8A04B5B7CA04AA149A4
:1043B0009B4871F0E1FC9A48FBF79CFF03469CB2D6
:1043C0009748FBF797FF034622469549954849F0E1
:1043D0001BF8954B1B6818464DF0B8F8924B1B68BC
:1043E00041F2883118464DF066F8904B9B7C904A1C
:1043F00091498B4871F0C0FC8948FBF77BFF03466D
:104400009CB28748FBF776FF0346224684498548DD
:1044100048F0FAFF844B1B6818464DF097F8824B22
:104420001B6841F2883118464DF045F87F4BDB7C24
:104430007F4A82497A4871F09FFC7948FBF75AFF1E
:1044400003469CB27648FBF755FF03462246744963
:10445000744848F0D9FF744B1B6818464DF076F845
:10446000714B1B6841F2883118464DF024F86F4BB0
:104470001B7D6F4A72496A4871F07EFC6848FBF701
:1044800039FF03469CB26648FBF734FF03462246D9
:104490006349644848F0B8FF634B1B6818464DF009
:1044A00055F8614B1B6841F2883118464DF003F80E
:1044B0005E4B5B7D5E4A6349594871F05DFC58482C
:1044C000FBF718FF03469CB25548FBF713FF034662
:1044D00022465349534848F097FF534B1B681846F0
:1044E0004DF034F8514B5B7D03F04003002B1ED0A0
:1044F0004D4B1B6841F2883118464CF0DCFF4C4AAA
:104500005149474871F038FC4548FBF7F3FE034634
:104510009CB24348FBF7EEFE034622464049414821
:1045200048F072FF404B1B6818464DF00FF83F4BA8
:104530005B7D03F02003002B1ED03B4B1B6841F238
:10454000883118464CF0B7FF394A4049344871F079
:1045500013FC3348FBF7CEFE03469CB23048FBF712
:10456000C9FE034622462E492E4848F04DFF2E4BE9
:104570001B6818464CF0EAFF2C4B5B7D03F00703E9
:10458000013B032B00F2B48001A252F823F000BFDC
:10459000A1450008E1450008594600089946000871
:1045A000214B1B6841F2883118464CF084FF204AA9
:1045B00027491B4871F0E0FB1948FBF79BFE0346B7
:1045C0009CB21748FBF796FE03462246144915484D
:1045D00048F01AFF144B1B6818464CF0B7FFA7E0D1
:1045E000114B1B6841F2883118464CF064FF104AA9
:1045F00018490B4871F0C0FB0948FBF77BFE0346E6
:104600009CB20748FBF776FE03462246044905485C
:1046100048F0FAFE044B1B6818464CF097FF87E001
:10462000DCD50024D064002488D50024C0080124EF
:104630006C4908084494070884940708C494070840
:10464000049507084495070884950708C09507084E
:10465000FC9507081C9607081F4B1B6841F2883120
:1046600018464CF028FF1D4A1D491E4871F084FB76
:104670001C48FBF73FFE03469CB21A48FBF73AFE84
:10468000034622461749184848F0BEFE124B1B68E5
:1046900018464CF05BFF4BE00F4B1B6841F2883132
:1046A00018464CF008FF0D4A10490E4871F064FBA3
:1046B0000C48FBF71FFE03469CB20A48FBF71AFEA4
:1046C000034622460749084848F09EFE024B1B68F5
:1046D00018464CF03BFF2BE088D500246C490808B5
:1046E0003C960708DCD50024D06400245C960708BB
:1046F000A34B1B6841F2883118464CF0DCFEA14AFE
:10470000A149A24871F038FBA048FBF7F3FD03462E
:104710009CB29E48FBF7EEFD034622469B499C480F
:1047200048F072FE964B1B6818464CF00FFF00BF16
:10473000934B1B6841F2883118464CF0BCFE954BF8
:104740009B7D904A9449914871F016FB8F48FBF786
:10475000D1FD03469CB28D48FBF7CCFD03462246B3
:104760008A498B4848F050FE854B1B6818464CF030
:10477000EDFE834B1B6841F2883118464CF09BFEDE
:10478000844BDB7D7F4A8549804871F0F5FA7F488C
:10479000FBF7B0FD03469CB27C48FBF7ABFD03463C
:1047A00022467A497A4848F02FFE754B1B68184616
:1047B0004CF0CCFE724B1B6841F2883118464CF02D
:1047C0007AFE744B1B7E6F4A7549704871F0D4FABB
:1047D0006E48FBF78FFD03469CB26C48FBF78AFDE1
:1047E0000346224669496A4848F00EFE644B1B683E
:1047F00018464CF0ABFE624B1B6841F288311846FC
:104800004CF059FE634B5B7E5E4A66495F4871F02F
:10481000B3FA5E48FBF76EFD03469CB25B48FBF7BC
:1048200069FD034622465949594848F0EDFD544B6D
:104830001B6818464CF08AFE514B1B6841F28831C8
:1048400018464CF038FE534B9B7E4E4A56494F4813
:1048500071F092FA4D48FBF74DFD03469CB24B4870
:10486000FBF748FD034622464849494848F0CCFD3D
:10487000434B1B6818464CF069FE414B1B6841F2E4
:10488000883118464CF017FE424BDB7E3D4A4749C3
:104890003E4871F071FA3D48FBF72CFD03469CB28F
:1048A0003A48FBF727FD034622463849384848F086
:1048B000ABFD334B1B6818464CF048FE304B1B6871
:1048C00041F2883118464CF0F6FD324B1B7F2D4AE1
:1048D00037492E4871F050FA2C48FBF70BFD034680
:1048E0009CB22A48FBF706FD034622462749284882
:1048F00048F08AFD224B1B6818464CF027FE204BDF
:104900001B6841F2883118464CF0D5FD214B5B7F86
:104910001C4A28491D4871F02FFA1C48FBF7EAFC95
:1049200003469CB21948FBF7E5FC034622461749AB
:10493000174848F069FD124B1B6818464CF006FEFC
:104940000F4B1B6841F2883118464CF0B4FD1A49F0
:104950000E4871F011FA0D48FBF7CCFC03469CB2EF
:104960000A48FBF7C7FC034622460849084848F0B6
:104970004BFD034B1B6818464CF0E8FD00BF98BD8B
:1049800088D500246C49080880960708DCD50024E7
:10499000D0640024C0080124C896070808970708B7
:1049A0004897070888970708C897070808980708CE
:1049B0004898070888980708C898070890B585B0F0
:1049C00000AF03463960FB710123FB73FB79042BB5
:1049D00057D8FB793E4A582101FB03F313440833AF
:1049E0001A783B681A70FA793B68013338495820C5
:1049F00000FB02F20A44093212781A70FA793B6815
:104A000002333349582000FB02F20A440A3212787A
:104A10001A70FA793B6803332D49582000FB02F2E3
:104A20000A440B3212781A70FA793B680433284929
:104A3000582000FB02F20A440C3212781A70FA79FC
:104A40003B6805332249582000FB02F20A440D322C
:104A500012781A70FA793B6806331D49582000FB1A
:104A600002F20A440E3212781A70FA793B68073360
:104A70001749582000FB02F20A440F3212781A70CC
:104A800021E0144B1B6841F2883118464CF013FDAD
:104A9000FB79114A1149124871F06EF91048FBF781
:104AA00029FC03469CB20E48FBF724FC0346224631
:104AB0000B490C4848F0A8FC064B1B6818464CF004
:104AC00045FD0023FB73FB7B18461437BD4690BDA4
:104AD0003412012488D50024844908080C99070859
:104AE000DCD50024D064002490B583B000AFFF2350
:104AF000FB7100237B7140E00123BB7100233B71FC
:104B00000FE07A793B792149582000FB02F20A44F0
:104B100013441B78002B01D00023BB713B79013378
:104B20003B713B790F2BECD9BB79002B22D0184B72
:104B30001B6841F2883118464CF0BDFC7B79154A60
:104B40001549164871F018F91448FBF7D3FB0346D2
:104B50009CB21248FBF7CEFB034622460F49104891
:104B600048F052FC0A4B1B6818464CF0EFFC7B796E
:104B7000FB7105E07B7901337B717B79042BBBD919
:104B8000FB7918460C37BD4690BD00BF3412012496
:104B900088D50024A449080860990708DCD50024BA
:104BA000D064002480B483B000AF0023FB710023E5
:104BB0003B6023E0164A3B68582101FB03F3134492
:104BC00014331B78002B16D0114A3B68582101FB87
:104BD00003F3134414331B78012B0CD00C4A3B68AD
:104BE000582101FB03F3134414331B78062B02D026
:104BF0000123FB7105E03B6801333B603B68042BFC
:104C0000D8DDFB7918460C37BD465DF8047B70474C
:104C10003412012490B585B000AF0346FB71FB79D7
:104C2000042B18D80123FB730023BB730FE0FA7920
:104C3000BB7B1C49582000FB02F20A4413441B783A
:104C4000002B01D00023FB73BB7B0133BB73BB7B09
:104C50000F2BECD921E0144B1B6841F28831184628
:104C60004CF029FCFB79114A1149124871F084F883
:104C70001048FBF73FFB03469CB20E48FBF73AFB9C
:104C8000034622460B490C4848F0BEFB064B1B6806
:104C900018464CF05BFC0023FB73FB7B1846143773
:104CA000BD4690BD3412012488D50024BC490808B3
:104CB0007C990708DCD50024D064002490B58BB023
:104CC00000AF7860012387F82730AF4B1B6841F2B3
:104CD000883118464CF0EFFB7B68AC4AAC49AD48D4
:104CE00071F04AF8AB48FBF705FB03469CB2A948B4
:104CF000FBF700FB03462246A649A74848F084FB81
:104D0000A14B1B6818464CF021FC7868FBF7F2FABF
:104D100003462F2B25D09C4B1B6841F28831184647
:104D20004CF0C9FB7868FBF7E5FA0346974A9B49C4
:104D3000984871F021F89748FBF7DCFA03469CB2DB
:104D40009448FBF7D7FA034622469249924848F026
:104D50005BFB8D4B1B6818464CF0F8FB002387F873
:104D600027300023BB6176E0BB69052B11D0BB69FE
:104D70000B2B0ED0BB69112B0BD0BB69172B08D0A6
:104D8000BB691D2B05D0BB69232B02D0BB69292B26
:104D90002FD1BB697A6813441B780133804A1344CE
:104DA0001B7803F00403002B52D0774B1B6841F2B1
:104DB000883118464CF07FFBBB69744A79497548C5
:104DC00070F0DAFF7348FBF795FA03469CB271481E
:104DD000FBF790FA034622466E496F4848F014FBF1
:104DE000694B1B6818464CF0B1FB002387F827304D
:104DF0002EE0BB697A6813441B780133684A134478
:104E00001B7803F00403002B22D15F4B1B6841F297
:104E1000883118464CF04FFBBB695C4A62495D48DB
:104E200070F0AAFF5B48FBF765FA03469CB259484D
:104E3000FBF760FA034622465649574848F0E4FA21
:104E4000514B1B6818464CF081FB002387F8273034
:104E5000BB690133BB61BB692E2B85DD7B683B627F
:104E60000023FB7741E007F10C03062200211846DE
:104E700071F098F807F10C030522396A184671F0B1
:104E80005EFF07F10C03184670F072FC03467B616D
:104E90007B69B3F5803F22D33B4B1B6841F28831DD
:104EA00018464CF008FB7B69384A4049394870F095
:104EB00063FF3848FBF71EFA03469CB23548FBF700
:104EC00019FA034622463349334848F09DFA2E4BDF
:104ED0001B6818464CF03AFB002387F827303B6AE2
:104EE00006333B62FB7F0233FB77FB7F0F2BBAD984
:104EF00097F82730002B20D0234B1B6841F28831D4
:104F000018464CF0D8FA7B68204A2949214870F0AD
:104F100033FF2048FBF7EEF903469CB21D48FBF730
:104F2000E9F9034622461B491B4848F06DFA164B27
:104F30001B6818464CF00AFB1FE0134B1B6841F23C
:104F4000883118464CF0B7FA7B68104A1949114865
:104F500070F012FF0F48FBF7CDF903469CB20D48E5
:104F6000FBF7C8F9034622460A490B4848F04CFAB9
:104F7000054B1B6818464CF0E9FA97F8273018469D
:104F80002C37BD4690BD00BF88D50024D449080801
:104F9000C4990708DCD50024D0640024DC990708F4
:104FA00008A70808209A0708689A0708AC9A070813
:104FB000E09A0708F89A070890B585B000AF034655
:104FC0003960FB71FB79042B32D8FB792A4A5821CE
:104FD00001FB03F31344103301221A700023FB601A
:104FE00010E0FB683A681A44FB791078224A58218D
:104FF00001FB03F31A44FB68134402461A70FB6872
:105000000133FB60FB680F2BEBDDFB791A4A58215B
:1050100001FB03F31344133300221A70FB79164A81
:10502000582101FB03F31344143301221A701FE0CB
:10503000124B1B6841F2883118464CF03CFAFB7960
:105040000F4A1049104870F097FE0F48FBF752F9CD
:1050500003469CB20C48FBF74DF9034622460A4929
:105060000A4848F0D1F9054B1B6818464CF06EFA17
:1050700000BF1437BD4690BD3412012488D50024EA
:10508000F0490808309B0708DCD50024D0640024D0
:1050900090B583B000AF03463960FB716A4B0122C3
:1050A0001A706A4B01221A70FB79042B22D9684BC3
:1050B0001B6841F2883118464CF0FDF9FB79654ACE
:1050C0006549664870F058FE6448FBF713F90346DB
:1050D0009CB26248FBF70EF9034622465F496048DE
:1050E00048F092F95A4B1B6818464CF02FFA564B71
:1050F00000221A703868FFF7E1FD03461A46534B49
:105100001A70514B1B78002B03D0504B1A784E4B22
:105110001A70544A3B681360534B00221A704B4B71
:105120001B78002B5CD057E0062200214F4870F01E
:1051300039FF4C4B1B68052219464C4871F0FFFDA6
:105140004A4870F015FB03461A46494B1A60484B13
:105150001B68B3F5803F23D33D4B1B6841F2883178
:1051600018464CF0A8F9424B1B683A4A41493B4863
:1051700070F002FE3948FBF7BDF803469CB2374891
:10518000FBF7B8F8034622463449354848F03CF965
:105190002F4B1B6818464CF0D9F92C4B00221A7083
:1051A000334B1B68190A304B1B781A46C9B2324B75
:1051B00099542F4B1A682C4B1B780133D1B22E4ACD
:1051C000D154284B1B680633264A1360264B1B78A4
:1051D0000233DAB2244B1A70234B1B780F2BA3D95E
:1051E000194B1B78002B09D0184B1B78002B05D0CE
:1051F000FB7921491846FFF7DFFE1EE0144B1B68C0
:1052000041F2883118464CF056F9124A1B491348AE
:1052100070F0B2FD1148FBF76DF803469CB20F48E1
:10522000FBF768F8034622460C490D4848F0ECF8B5
:10523000074B1B6818464CF089F9034B1B7818463E
:105240000C37BD4690BD00BF401A0124411A01240D
:1052500088D50024004A0808709B0708DCD5002484
:10526000D0640024441A0124481A01244C1A012451
:10527000541A01249C9B0708581A0124E89B07082C
:1052800090B585B000AF03463960FB713C22002128
:10529000284870F087FE0023FB603AE0FB79264A3D
:1052A000582101FB03F31A44FB6813441B781B02CB
:1052B0009BB2F979FA6801321F48582404FB01F1C6
:1052C00001440A44127813449AB21C4B1A800A22F1
:1052D00000211B4870F066FE184B1B881A461949BE
:1052E000174870F049FD1649124870F063FEFB68DC
:1052F0000D2B0BDC0F48FAF7FDFF03461A460D4B4A
:10530000134411491A460B461B881380FB6802336D
:10531000FB60FB680F2BC1DD0648FAF7EBFF034685
:105320001A460449386871F00AFD00BF1437BD46BB
:1053300090BD00BF681A012434120124A41A01246C
:10534000A81A0124149C07081C9C070890B583B078
:1053500000AF0346FB71FB79042B00F28780554BAD
:105360001B6841F2883118464CF0A5F8FB79524A87
:105370005249534870F000FD5148FAF7BBFF03460D
:105380009CB24F48FAF7B6FF034622464C494D48B7
:1053900048F03AF8474B1B6818464CF0D7F8FB79B1
:1053A000494A582101FB03F31344103300221A70B9
:1053B000FB79582202FB03F3434A134410220021D5
:1053C000184670F0EFFDFB793F4A582101FB03F3CB
:1053D0001344113300221A70FB793B4A582101FB18
:1053E00003F31344123300221A70FB79364A582112
:1053F00001FB03F31344133301221A70FB79324A81
:10540000582101FB03F31344143300221A70FB7973
:105410002D4A582101FB03F3134416334FF6FF7254
:105420001A80FB79582202FB03F31833264A1344EF
:1054300020220021184670F0B5FDFB79582202FBAE
:1054400003F33833204A134410220021184670F029
:10545000A9FDFB79582202FB03F348331A4A13448F
:1054600010220021184670F09DFD1FE0114B1B68B3
:1054700041F2883118464CF01EF8FB790E4A134968
:105480000F4870F079FC0E48FAF734FF03469CB2DF
:105490000B48FAF72FFF034622460949094847F00F
:1054A000B3FF044B1B6818464CF050F800BF0C3794
:1054B000BD4690BD88D500241C4A0808209C0708DA
:1054C000DCD50024D064002434120124389C070861
:1054D00090B587B002AF03463960FB711346BB71CC
:1054E000594B9B781F2B00F28880574B9B781D2BC4
:1054F00024D9564B1B6841F2883118464BF0DBFF2C
:10550000514B9B781A46202300931346504A514929
:10551000514870F031FC5048FAF7ECFE03469CB25B
:105520004D48FAF7E7FE034622464B494B4847F001
:105530006BFF464B1B6818464CF008F8434B1B6842
:1055400041F2883118464BF0B6FFFB79404A444996
:10555000414870F011FC4048FAF7CCFE03469CB27B
:105560003D48FAF7C7FE034622463B493B4847F011
:105570004BFF364B1B6818464BF0E8FF324B9B78CD
:105580000133DAB2304B9A702F4B5B7819462E4AB2
:10559000AA2301FB03F313440333FA791A70BB798E
:1055A000A82B01D9A823BB71274B5B781946264A43
:1055B000AA2301FB03F313440433BA791A70224B74
:1055C0005B781A46AA2302FB03F31F4A13440533F0
:1055D000BA793968184671F0B2FB1B4B5B7801331E
:1055E000DAB2194B5A70184B5B781F2B02D9164B45
:1055F00000225A700123FB7321E0144B1B6841F217
:10560000883118464BF057FFFB79114A154912486B
:1056100070F0B2FB1048FAF76DFE03469CB20E48DC
:10562000FAF768FE034622460B490C4847F0ECFEA9
:10563000064B1B6818464BF089FF0023FB73FB7B6E
:1056400018461437BD4690BD14EE002488D50024BA
:10565000304A08087C9C0708DCD50024D06400246C
:10566000D09C0708FC9C070890B587B002AF0346A2
:105670003960FB711346BB71594B9B78072B00F2C5
:105680008880574B9B78052B24D9564B1B6841F2D9
:10569000883118464BF00FFF514B9B781A46082370
:1056A00000931346504A5149514870F065FB5048E9
:1056B000FAF720FE03469CB24D48FAF71BFE03465C
:1056C00022464B494B4847F09FFE464B1B68184605
:1056D0004BF03CFF434B1B6841F2883118464BF0BE
:1056E000EAFEFB79404A4449414870F045FB404896
:1056F000FAF700FE03469CB23D48FAF7FBFD03466D
:1057000022463B493B4847F07FFE364B1B68184614
:105710004BF01CFF324B9B780133DAB2304B9A705E
:105720002F4B5B7819462E4AAA2301FB03F313443F
:105730000333FA791A70BB79A82B01D9A823BB715E
:10574000274B5B781946264AAA2301FB03F313442F
:105750000433BA791A70224B5B781A46AA2302FBEB
:1057600003F31F4A13440533BA793968184671F0B8
:10577000E6FA1B4B5B780133DAB2194B5A70184BBF
:105780005B78072B02D9164B00225A700123FB735A
:1057900021E0144B1B6841F2883118464BF08BFE18
:1057A000FB79114A1549124870F0E6FA1048FAF7E9
:1057B000A1FD03469CB20E48FAF79CFD0346224623
:1057C0000B490C4847F020FE064B1B6818464BF06F
:1057D000BDFE0023FB73FB7B18461437BD4690BD0E
:1057E0005803012488D50024484A0808449D070826
:1057F000DCD50024D0640024989D0708C49D0708C8
:1058000090B585B000AF03460A46FB711346BB71E5
:10581000974B1B6841F2883118464BF04CFEFB79E0
:10582000944A9549954870F0A7FA9448FAF762FDB2
:1058300003469CB29148FAF75DFD034622468F4924
:105840008F4847F0E1FD8A4B1B6818464BF07EFEFF
:105850008C4B00221A728B4B0022DA60894B00229B
:1058600083F8C820884B00221A70884B18221A70BF
:10587000BB79002B1BD0864B0133854A52781946E1
:10588000FF200FF0B1FC0346FB73FA79FB7B9A42D1
:1058900001D1012200E003227B4B1A70FA79FB7BD5
:1058A0009A4201D1062200E01522784B1A70704B03
:1058B0001B6841F2883118464BF0FDFD75496F4871
:1058C00070F05AFA6D48FAF715FD03469CB26B4822
:1058D000FAF710FD034622466849694847F094FDEF
:1058E000634B1B6818464BF031FE664BDB7C194658
:1058F000002300226648FCF76FFD5D4B1B6841F2F8
:10590000883118464BF0D7FD63495C4870F034FA93
:105910005A48FAF7EFFC03469CB25848FAF7EAFCFB
:10592000034622465549564847F06EFD504B1B68CA
:1059300018464BF00BFE534B00221A740123012230
:105940005249564847F060FD504B1B78182B46D003
:10595000182B64DC062B02D0152B20D05FE0444BC3
:105960001B6841F2883118464BF0A5FD414A4C496D
:10597000424870F001FA4148FAF7BCFC03469CB279
:105980003E48FAF7B7FC034622463C493C4847F0FC
:105990003BFD374B1B6818464BF0D8FD61E0344B9C
:1059A0001B6841F2883118464BF085FD314A3D496C
:1059B000324870F0E1F93148FAF79CFC03469CB29A
:1059C0002E48FAF797FC034622462C492C4847F00C
:1059D0001BFD274B1B6818464BF0B8FD41E0244BDC
:1059E0001B6841F2883118464BF065FD214A2E496B
:1059F000224870F0C1F92148FAF77CFC03469CB2BA
:105A00001E48FAF777FC034622461C491C4847F01B
:105A1000FBFC174B1B6818464BF098FD21E0144B1C
:105A20001B6841F2883118464BF045FD174B1B7837
:105A3000104A1E49114870F09FF91048FAF75AFCB5
:105A400003469CB20D48FAF755FC034622460B4923
:105A50000B4847F0D9FC064B1B6818464BF076FD07
:105A600000BF094B1B7818461437BD4690BD00BFD8
:105A700088D500246C4A0808089E0708DCD5002455
:105A8000D0640024AC080124B21A0124B31A012402
:105A9000C0080124289E0708889E07086465002422
:105AA000E89E0708249F0708749F0708EC9F0708D3
:105AB00080B483B000AF0346FB71144BDB7C1A4605
:105AC000124B1344FA791A75104BDB7C0133DAB2AE
:105AD0000E4BDA740E4B5B78032B0AD90C4B5B78B8
