:020000040800F2
:1000000000000824C96F01087D6C0108856C010897
:100010008D6C0108956C01089D6C010800000000C2
:10002000000000000000000000000000610F050853
:10003000A56C010800000000B1110508C5FF040807
:100040001D7001081D7001081D7001081D70010858
:100050001D7001081D7001081D7001081D70010848
:10006000B36C01081D7001081D7001081D700108A6
:100070001D7001081D7001081D7001081D70010828
:100080001D7001081D7001081D7001081D70010818
:100090001D7001081D7001081D7001081D70010808
:1000A0001D7001081D7001081D7001081D700108F8
:1000B0001D7001081D7001081D7001081D700108E8
:1000C0001D7001081D7001081D7001081D700108D8
:1000D0001D700108C16C0108D56C01081D70010874
:1000E0001D7001081D700108000000001D7001084E
:1000F0001D7001081D7001081D7001081D700108A8
:100100001D7001081D7001081D7001081D70010897
:100110001D7001081D700108E96C01081D700108BF
:100120001D7001081D7001081D7001081D70010877
:100130001D7001081D7001081D7001081D70010867
:100140001D7001081D700108000000000000000083
:100150001D7001081D7001081D7001081D70010847
:100160001D7001081D7001081D7001081D70010837
:100170001D7001081D7001081D70010800000000BD
:100180001D7001081D7001081D7001081D70010817
:100190001D7001081D7001081D7001081D70010807
:1001A000FD6C01081D700108116D01081D7001082A
:1001B000256D01081D7001081D7001081D700108E2
:1001C0001D7001081D7001081D7001081D700108D7
:1001D0001D7001081D7001081D7001081D700108C7
:1001E0001D7001081D7001081D7001081D700108B7
:1001F0001D7001081D7001081D7001081D700108A7
:100200001D7001081D7001081D7001081D70010896
:100210001D7001081D7001081D7001081D70010886
:100220001D700108396D01084D6D010800000000C6
:100230001D7001081D7001081D7001081D70010866
:100240001D7001081D7001081D7001081D70010856
:100250001D7001081D7001081D7001081D70010846
:100260001D7001081D7001081D7001081D70010836
:100270001D7001081D7001081D7001081D70010826
:100280001D7001081D7001081D70010800000000AC
:080290001D7001081D7001083A
:1002A00010B5054C237833B9044B13B10448AFF3B0
:1002B00000800123237010BD005F002400000000B7
:1002C000B466070808B5034B1BB103490348AFF3F5
:1002D000008008BD00000000045F0024B466070829
:1002E00010F8012B11F8013B012A28BF9A42F7D0E0
:1002F000D01A7047034613F8012B002AFBD1181AB5
:1003000001387047000000000000000000000000FD
:1003100001F0FF01102A2BDB10F0070F08D010F8B6
:10032000013B013A8B422DD010F0070F42B3F6D1BA
:10033000F0B441EA012141EA014122F007047FF0D3
:1003400000070023F0E80256083C85EA010586EA2A
:10035000010685FA47F5A3FA87F586FA47F6A5FA66
:1003600087F68EB9EED1F0BC01F0FF0102F0070272
:1003700032B110F8013B013A83EA010313B1F8D11D
:100380000020704701387047002D06BF35460338FE
:10039000073815F0010F07D1013015F4807F02BF37
:1003A000013015F4C03F0130F0BC0138704700BF88
:1003B00081F0004102E000BF83F0004330B54FEA16
:1003C00041044FEA430594EA050F08BF90EA020F83
:1003D0001FBF54EA000C55EA020C7FEA645C7FEA16
:1003E000655C00F0E2804FEA5454D4EB5555B8BF39
:1003F0006D420CDD2C4480EA020281EA030382EAAA
:10040000000083EA010180EA020281EA0303362D3B
:1004100088BF30BD11F0004F4FEA01314FF4801C0E
:100420004CEA113102D0404261EB410113F0004F20
:100430004FEA03334CEA133302D0524263EB4303D7
:1004400094EA050F00F0A780A4F10104D5F1200E75
:100450000DDB02FA0EFC22FA05F2801841F10001D0
:1004600003FA0EF2801843FA05F359410EE0A5F1A4
:1004700020050EF1200E012A03FA0EFC28BF4CF0D5
:10048000020C43FA05F3C01851EBE37101F000458B
:1004900007D54FF0000EDCF1000C7EEB00006EEB98
:1004A0000101B1F5801F1BD3B1F5001F0CD3490822
:1004B0005FEA30004FEA3C0C04F101044FEA445279
:1004C00012F5800F80F09A80BCF1004F08BF5FEA00
:1004D000500C50F1000041EB045141EA050130BDE0
:1004E0005FEA4C0C404141EB0101013C28BFB1F5F2
:1004F000801FE9D291F0000F04BF01460020B1FA3D
:1005000081F308BF2033A3F10B03B3F120020CDA0F
:100510000C3208DD02F1140CC2F10C0201FA0CF0ED
:1005200021FA02F10CE002F11402D8BFC2F1200C52
:1005300001FA02F120FA0CFCDCBF41EA0C01904008
:10054000E41AA2BF01EB0451294330BD6FEA040451
:100550001F3C1CDA0C340EDC04F11404C4F120023C
:1005600020FA04F001FA02F340EA030021FA04F34E
:1005700045EA030130BDC4F10C04C4F1200220FAA5
:1005800002F001FA04F340EA0300294630BD21FAE3
:1005900004F0294630BD94F0000F83F4801306BFA9
:1005A00081F480110134013D4EE77FEA645C18BF9D
:1005B0007FEA655C29D094EA050F08BF90EA020F34
:1005C00005D054EA000C04BF1946104630BD91EA2C
:1005D000030F1EBF0021002030BD5FEA545C05D12F
:1005E0004000494128BF41F0004130BD14F580046E
:1005F0003CBF01F5801130BD01F0004545F0FE41E2
:1006000041F470014FF0000030BD7FEA645C1ABF16
:10061000194610467FEA655C1CBF0B46024650EA4D
:10062000013406BF52EA033591EA030F41F4002179
:1006300030BD00BF90F0000F04BF0021704730B5FF
:100640004FF4806404F132044FF000054FF00001D4
:1006500050E700BF90F0000F04BF0021704730B595
:100660004FF4806404F1320410F0004548BF40426A
:100670004FF000013EE700BF42004FEAE2014FEABF
:1006800031014FEA02701FBF12F07F4393F07F4F9A
:1006900081F06051704732F07F4208BF704793F09D
:1006A0007F4F04BF41F40021704730B54FF46074B0
:1006B00001F0004521F000411CE700BF50EA0102B3
:1006C00008BF704730B54FF000050AE050EA01025C
:1006D00008BF704730B511F0004502D5404261EBCC
:1006E00041014FF4806404F132045FEA915C3FF40D
:1006F000D8AE4FF003025FEADC0C18BF03325FEAAA
:10070000DC0C18BF033202EBDC02C2F1200300FA5A
:1007100003FC20FA02F001FA03FE40EA0E0021FA7F
:1007200002F11444BDE600BF7BB972B90029BEBF17
:1007300000204FF0004106E008BF00281CBF6FF00A
:1007400000414FF0FF3000F0D3B9ADF1080C6DE976
:1007500004CE002909DB002B1ADB00F04DF8DDF890
:1007600004E0DDE9022304B07047404261EB41013F
:10077000002B1BDB00F040F8DDF804E0DDE902238C
:1007800004B0404261EB4101524263EB43037047C6
:10079000524263EB430300F02FF8DDF804E0DDE99B
:1007A000022304B0404261EB41017047524263EBC7
:1007B000430300F021F8DDF804E0DDE9022304B092
:1007C000524263EB4303704753B94AB9002908BF4B
:1007D00000281CBF4FF0FF314FF0FF3000F088B908
:1007E000ADF1080C6DE904CE00F006F8DDF804E088
:1007F000DDE9022304B070472DE9F047089D8E46DD
:1008000004468846002B4AD18A42174662D9B2FA7A
:1008100082F64EB1C6F1200301FA06F820FA03F37E
:10082000B74043EA0808B4404FEA174E1FFA87FC66
:10083000B8FBFEF1230C0EFB118843EA084301FBD1
:100840000CF29A4209D9FB1801F1FF3080F0EA80DE
:100850009A4240F2E78002393B449A1AA3B2B2FBB3
:10086000FEF00EFB102243EA024300FB0CFC9C4509
:1008700009D9FB1800F1FF3280F0D6809C4540F288
:10088000D3803B44023840EA0140A3EB0C03002133
:100890001DB1F3400022C5E90032BDE8F0878B426C
:1008A00005D90DB1C5E9000100210846F5E7B3FA05
:1008B00083F1002946D1734502D3824200F20581BB
:1008C000841A6EEB030201209046002DE5D0C5E9A5
:1008D0000048E2E7002A00F09080B2FA82F6002E8B
:1008E00040F0A4808A1A030C4FEA174E80B2BCB2C3
:1008F0000121B2FBFEFC0EFB1C2243EA024304FB77
:100900000CF29A4207D9FB180CF1FF3802D29A4236
:1009100000F2E080C4469B1AB3FBFEF20EFB1233DA
:1009200040EA034302FB04F49C4207D9FB1802F19E
:10093000FF3002D29C4200F2CA8002461B1B42EAF0
:100940000C40A5E7C1F120068B4022FA06F71F43B1
:100950000EFA01F420FA06F32EFA06FE4FEA1749C2
:10096000234300FA01F81FFA87FCBEFBF9F01C0CC8
:1009700009FB10EE44EA0E4400FB0CFEA64502FA09
:1009800001F209D93C1900F1FF3A80F09C80A6459C
:1009900040F2998002383C44A4EB0E041FFA83FE17
:1009A000B4FBF9F309FB13444EEA044403FB0CFCCB
:1009B000A44508D93C1903F1FF3E80F08280A4458C
:1009C0007FD9023B3C4443EA0040A4EB0C04A0FB6B
:1009D00002EC64457346E14662D35FD05DB1B8EB8B
:1009E000030264EB090404FA06F622FA01F31E433B
:1009F000CC40C5E9006400214FE7B1FBF2FC010CDB
:100A000041EA0E4180B240EA01423B4638463C464C
:100A1000B846BE462026B1FBF7F1A2EB080241EA38
:100A20000C4166E7014618E710462CE7C6F12002A4
:100A30002EFA02F3B740B14020FA02F24FEA174E05
:100A40000A43B3FBFEF8BCB20EFB1833110C41EAAB
:100A5000034108FB04F9B04089454FEA104380B2D6
:100A60003ED9791808F1FF3C01D289451FD8A1EB86
:100A70000901B1FBFEF909FB04F80EFB191192B252
:100A800042EA0142424529D2BA1809F1FF31C4D2E3
:100A90004245C2D2A9F102013A44BEE7F0459DD2D7
:100AA000BEEB02036CEB070C0138E14696E7A7EBBF
:100AB00009094944A8F1020CB1FBFEF909FB04F84D
:100AC000DBE773467FE7504666E70846FDE63B44B2
:100AD000023A33E7ACF1020C3B441CE749469CE781
:100AE000A1EB0901C446B1FBFEF909FB04F8C4E718
:100AF000704700BF80B584B000AF15F07DF8774B2C
:100B00005B6903F40033002B1BD1BFF34F8F00BF91
:100B1000BFF36F8F00BF714B0022C3F85022BFF3A9
:100B20004F8F00BFBFF36F8F00BF6C4B5B696B4A89
:100B300043F400335361BFF34F8F00BFBFF36F8F98
:100B400000E000BF654B5B6903F48033002B38D1B4
:100B5000624B0022C3F88420BFF34F8F00BF5F4B6E
:100B6000D3F88030FB60FB685B0BC3F30E03BB6004
:100B7000FB68DB08C3F309037B60BB685A0143F6DB
:100B8000E07313407A68920754491343C1F8603206
:100B90007B685A1E7A60002BEFD1BB685A1EBA6080
:100BA000002BE5D1BFF34F8F00BF4C4B5B694B4A25
:100BB00043F480335361BFF34F8F00BFBFF36F8F98
:100BC00000E000BF3CF082FF00F0C8F800F004FC39
:100BD00000F08CFB00F0AAFB00F0DCF900F046F915
:100BE00000F066F900F0C2F900F058FA00F07EF962
:100BF00000F0E4FA00F096FA16F07CF900F0BAFA88
:100C000000F028FB00F078FA16F010FA16F007FA58
:100C10004FF0F2F932484FF0E6FA0346314A1360DA
:100C2000314A022140204FF00BFD03462F4A13604A
:100C30002F4A022140204FF003FD03462D4A136046
:100C40002D4A01214FF400604FF0FAFC03462B4A75
:100C500013602B4A01214FF480704FF0F1FC0346E2
:100C6000284A1360284A002128484FF00FFA03460B
:100C7000274A1360274A002127484FF007FA034606
:100C8000264A1360264A002126484FF0FFF9034602
:100C9000254A1360254A002125484FF0F7F90346FD
:100CA000244A1360244A002124484FF0EFF90346F8
:100CB000234A1360234A002123484FF0E7F90346F3
:100CC000224A1360224A002122484FF0DFF90346EE
:100CD000214A13604FF0B4F900BFFDE700ED00E0DA
:100CE0009828080888D500243828080838CA00241D
:100CF000502808080CCB002468280808E0CB002402
:100D00008028080834D400243C27080859400108EA
:100D10002C660024602708083D700108D87600245E
:100D200084270808C5480108DC760024A82708089D
:100D30002949010888870024CC270808A54901080B
:100D400034980024F0270808094A0108E0A8002484
:100D5000142808086D4A01088CB9002480B59CB09D
:100D600000AF07F124034C220021184673F0DAFB90
:100D70003B1D20220021184673F0D4FB042044F0D0
:100D800081F900233B60374BDB6A364A23F00103CD
:100D9000D362344BDB6A03F001033B60324B9B6947
:100DA000314A43F4404393612F4B9B6903F4404322
:100DB0003B603B6800BF2C4B9B6903F40053B3F5C9
:100DC000005FF8D12B237B624FF48033BB62012399
:100DD0003B6340237B630123BB630123FB6302234B
:100DE000BB640223FB6405233B65A0237B650223D0
:100DF000BB650423FB6502233B6608237B66002357
:100E0000BB660023FB6607F12403184645F01EFC71
:100E10000346002B01D014F039FF3F237B600323EE
:100E2000BB600023FB6008233B6140237B614023C0
:100E3000BB614FF48063FB6140233B623B1D022199
:100E4000184646F0B3F90346002B01D014F01EFFFC
:100E50004FF480220021002046F018FD00BF7037BB
:100E6000BD4680BD000400580048025880B500AF60
:100E70000D4B0E4A1A600C4B00221A710A4B0022CD
:100E80005A71094B00225A61074B00229A61064BA6
:100E900001221A6204483DF09FF90346002B01D05D
:100EA00014F0F4FE00BF80BD1C5F0024004C02580B
:100EB00080B500AF0B4B0C4A1A600A4B4FF440321E
:100EC0005A60084B02229A60064B0022DA600548FD
:100ED0003EF03EF80346002B01D014F0D7FE00BFD1
:100EE00080BD00BF405F00240010005280B500AFFD
:100EF0001B4B1C4A1A601A4B1B4A5A60184B0022A3
:100F00009A60174B0122DA60154B00221A61144BCC
:100F100000225A61124B00229A61114B0022DA61C1
:100F20000F4B00221A620E483EF084FE0346002B4F
:100F300001D014F0ABFE002109483FF0FFFC03464E
:100F4000002B01D014F0A2FE002105483FF06CFDFB
:100F50000346002B01D014F099FE00BF80BD00BFF6
:100F6000A85F0024001C0058B634900080B500AF84
:100F7000064B074A1A6005483FF0CAFD0346002B9E
:100F800001D014F083FE00BF80BD00BFFC5F0024D1
:100F90000030005280B58EB000AF14F0B3FE3B1DA0
:100FA00034220021184673F0BDFA3A4B3A4A1A60CF
:100FB000384B00225A60374B00229A60354B002292
:100FC000DA60344B00221A61324B28225A61314BCD
:100FD00009229A612F4B3522DA612E4B0B221A62BD
:100FE0002C4B40F215225A622A4B40F21B129A6295
:100FF000284B40F23522DA62264B40F21D121A636A
:10100000244B002283F83420224B002283F8352021
:10101000204B002283F836201E4841F0D1FD0346C4
:10102000002B01D014F032FE00237B604FF4F073EC
:10103000BB600023FB604FF488733B6102237B613C
:10104000FF23BB610023FB614FF480633B620523F8
:101050007B624FF05043BB624FF4F073FB624FF47E
:1010600088733B63002387F83430002387F83530DA
:10107000002387F836303B1D00221946054841F011
:101080007DFF0346002B01D014F000FE00BF38376F
:10109000BD4680BD2C6100240010005080B500AF1B
:1010A000124B134A1A60114B01225A600F4B012256
:1010B0009A600E4B1022DA600C4B1A221A610B4B0D
:1010C0004FF400725A61094B00229A61074B40228B
:1010D0001A62064844F052F80346002B01D014F07F
:1010E000D5FD044814F082FE00BF80BDD461002409
:1010F000005000528D5C010880B500AF074B084AD4
:101100001A60064B00225A60044849F0CBFF0346A0
:10111000002B01D014F0BAFD00BF80BD2062002476
:101120000018024880B500AF104B114A1A600F4BEF
:1011300000225A600D4B7F229A600C4BFF22DA602E
:101140000A4B00221A61094B00229A61074B0022C8
:10115000DA61064B00225A6104484AF0A7F80346B8
:10116000002B01D014F092FD00BF80BD346200243A
:101170000040005880B500AF0E4B0F4A1A600D4B6F
:1011800000225A600B4B00229A600A4B4FF4004237
:10119000DA60084B00221A61064B00225A610548AA
:1011A00042F0D8FF0346002B01D014F06FFD00BFC2
:1011B00080BD00BF586200240070005280B500AFAF
:1011C000224B234A1A60214B4FF4E1325A601F4BE5
:1011D00000229A601D4B0022DA601C4B00221A612B
:1011E0001A4B0C225A61194B00229A61174B0022AC
:1011F000DA61164B00221A62144B00225A62134B1A
:1012000000229A6211484AF04FFF0346002B01D09A
:1012100014F03CFD00210D484DF032FD0346002B3B
:1012200001D014F033FD002108484DF0C3FD034602
:10123000002B01D014F02AFD04484DF0A7FC034612
:10124000002B01D014F022FD00BF80BDD06400242B
:101250000010014080B500AF224B234A1A60214B99
:101260004FF4E1325A601F4B00229A601D4B00225E
:10127000DA601C4B00221A611A4B0C225A61194B7E
:1012800000229A61174B0022DA61164B00221A6283
:10129000144B00225A62134B00229A6211484AF002
:1012A00003FF0346002B01D014F0F0FC00210D4891
:1012B0004DF0E6FC0346002B01D014F0E7FC0021C2
:1012C00008484DF077FD0346002B01D014F0DEFCFA
:1012D00004484DF05BFC0346002B01D014F0D6FC13
:1012E00000BF80BD646500240044004080B582B02A
:1012F00000AF0D4BD3F8D4300B4A43F00103C2F8D2
:10130000D430094BD3F8D43003F001037B607B6801
:10131000002205217A203CF057FD7A203CF07EFD2A
:1013200000BF0837BD4680BD0044025880B588B074
:1013300000AF3B1D00221A605A609A60DA601A61A1
:101340005A619A61214B224A1A60204B01225A604D
:101350001E4B00229A601D4B0422DA601B4B1022A8
:101360001A611A4B40225A61184B4FF480729A61ED
:10137000164B0022DA61154B4FF400621A62134BD0
:101380004FF480525A62114B00229A6202237B6012
:101390000623BB600423FB6006233B6102237B61C1
:1013A0000223BB610223FB613B1D194607484AF03B
:1013B000DFF90346002B01D014F068FC054814F057
:1013C00036FD00BF2037BD4680BD00BFF865002454
:1013D000404100528D5C010880B590B000AF07F12C
:1013E0002C0300221A605A609A60DA601A61A04BDE
:1013F000D3F8E0309E4A43F48063C2F8E0309C4B5F
:10140000D3F8E03003F48063BB62BB6A984BD3F837
:10141000E030974A43F04003C2F8E030944BD3F8F1
:10142000E03003F040037B627B6A914BD3F8E030FD
:101430008F4A43F00803C2F8E0308D4BD3F8E03018
:1014400003F008033B623B6A894BD3F8E030884ADB
:1014500043F00403C2F8E030854BD3F8E03003F0EA
:101460000403FB61FB69824BD3F8E030804A43F40C
:101470008073C2F8E0307E4BD3F8E03003F4807321
:10148000BB61BB697A4BD3F8E030794A43F0100373
:10149000C2F8E030764BD3F8E03003F010037B6104
:1014A0007B69734BD3F8E030714A43F00203C2F812
:1014B000E0306F4BD3F8E03003F002033B613B694F
:1014C0006B4BD3F8E0306A4A43F40073C2F8E03063
:1014D000674BD3F8E03003F40073FB60FB68644BA8
:1014E000D3F8E030624A43F00103C2F8E030604BC9
:1014F000D3F8E03003F00103BB60BB685C4BD3F86A
:10150000E0305B4A43F02003C2F8E030584BD3F898
:10151000E03003F020037B607B68554BD3F8E0306C
:10152000534A43F08003C2F8E030514BD3F8E03027
:1015300003F080033B603B68002208214D483EF0E9
:1015400011FB01224FF400514B483EF00BFB0022EF
:1015500008214A483EF006FB0022402148483EF060
:1015600001FB0122042147483EF0FCFA0823FB62FC
:1015700001233B6300237B630023BB6307F12C0340
:1015800019463C483DF0D8FE4FF48073FB620223BD
:101590003B6300237B630023BB630023FB6307F1F2
:1015A0002C03194636483DF0C7FE4FF40053FB624A
:1015B00001233B6300237B630023BB6307F12C0300
:1015C00019462D483DF0B8FE0823FB6201233B631A
:1015D00000237B630323BB6307F12C0319462748D1
:1015E0003DF0AAFE0423FB624FF404133B63002387
:1015F0007B6307F12C03194620483DF09DFE4FF414
:101600004063FB6202233B6301237B630323BB63D1
:101610000723FB6307F12C0319461B483DF08CFEA2
:101620004023FB6201233B6300237B630323BB63F3
:1016300007F12C03194612483DF07EFE0423FB629D
:1016400001233B6300237B630023BB6307F12C036F
:1016500019460C483DF070FE0022052108203CF0A0
:10166000B3FB08203CF0DAFB00BF4037BD4680BD2D
:1016700000440258000C025800200258001802587A
:1016800000000258002402580004025890B583B0AC
:1016900000AF0446084611461A462346FB7103462E
:1016A000BB710B467B7113463B71FB796433114A66
:1016B0005361BB79013B0F4A13617B790D4AD360BB
:1016C0003B790C4A93603B7E0A4A53603B7F094A50
:1016D0001360084873F054F802460B460649C1E906
:1016E0000023054BD3E90023134618460C37BD46AB
:1016F00090BD00BF4C1501247015012490B583B036
:1017000000AF7860544B1B6818464FF0CBF8034687
:101710009AB2524B1A80514B1B88002B00F09580D7
:101720004F4B1B6841F2883118464EF0E2FD4B4B9F
:101730001B884C4A4C494D4872F0DEFD4B48FEF781
:10174000D9FD03469CB24948FEF7D4FD0346224624
:10175000464947484AF076FD414B1B6818464EF013
:1017600013FE444B00221A803CE03B4B18680023D8
:10177000002241494FF038F80346404A13603F4B7E
:101780001B68002B20D0364B1B6841F2883118466D
:101790004EF0AFFD394B1B68324A3949334872F07D
:1017A000ABFD3248FEF7A6FD03469CB22F48FEF77C
:1017B000A1FD034622462D492D484AF043FD284B02
:1017C0001B6818464EF0E0FD2A4B1B881A467B68C2
:1017D0001344294A12781A70264B1B8801339AB297
:1017E000244B1A801C4B1B6818464FF05BF80346CD
:1017F000002B05D01F4B1B8840F6FD729342B4D9D5
:101800001C4B1A88154B1A80154B1B6841F2883106
:1018100018464EF06EFD114B1B88124A19491348A9
:1018200072F06AFD1148FEF765FD03469CB20F4851
:10183000FEF760FD034622460C490D484AF002FDC2
:10184000074B1B6818464EF09FFD044B1B8818463B
:101850000C37BD4690BD00BF34D400247815012458
:1018600088D50024D828080860670708DCD500243C
:10187000D06400247A1501247C15012480150124EC
:1018800088670708C067070890B583B000AF786025
:101890007B681B682F4A934216D12F4B1A782F4B27
:1018A0001A702F4B1868002300222C494EF03CFF81
:1018B00003462C4A1360012227492B484AF050FD69
:1018C00003461A46294B1A707B681B68284A9342C4
:1018D0003BD1284B1A78284B1A70284B18680023E4
:1018E000002225494EF020FF03461E4A13601D4B7F
:1018F0001B68002B20D0224B1B6841F28831184610
:101900004EF0F7FC174B1B681E4A1F491F4872F028
:10191000F3FC1E48FEF7EEFC03469CB21B48FEF7A4
:10192000E9FC0346224619490F484AF08BFC144B48
:101930001B6818464EF028FD01220E4914484AF053
:101940000FFD03461A46094B1A7000BF0C37BD46FF
:1019500090BD00BF0010014011EE00248415012449
:1019600034D4002488150124D06400248C1501246B
:101970000044004010EE00248D150124E0CB00242B
:1019800088D50024F4280808E8670708DCD5002477
:101990006465002490B585B000AFF8607B600B46AD
:1019A0007B8113467B727D4B00221A805AE17B7A41
:1019B000002B2AD0794B1B8803F00F039BB2002B1E
:1019C00023D1774B1B6841F2883118464EF091FCC9
:1019D000724B1B881A467B6813441A467149724839
:1019E00072F08AFC7048FEF785FC03469CB26E4894
:1019F000FEF780FC034622466B496C484AF022FC05
:101A0000674B1B6818464EF0BFFC654B1B6841F2E4
:101A1000883118464EF06DFC604B1B881A46FB68F7
:101A200013441B781A4662495F4872F065FC5E48B1
:101A3000FEF760FC03469CB25B48FEF75BFC034686
:101A40002246594959484AF0FDFB554B1B68184638
:101A50004EF09AFC524B1B6841F2883118464EF00A
:101A600048FC5449504872F047FC4F48FEF742FC8E
:101A700003469CB24C48FEF73DFC034622464A49C9
:101A80004A484AF0DFFB464B1B6818464EF07CFC88
:101A9000424B1B8803F00F039BB2072B1DD1404B19
:101AA0001B6841F2883118464EF023FC42493E48FB
:101AB00072F022FC3C48FEF71DFC03469CB23A48FB
:101AC000FEF718FC03462246374938484AF0BAFB6D
:101AD000334B1B6818464EF057FC304B1B8803F005
:101AE0000F039BB20F2B40F0B7802D4B1B6841F2C8
:101AF000883118464EF0FDFB2F492B4872F0FCFB55
:101B00002948FEF7F7FB03469CB22748FEF7F2FB95
:101B100003462246244925484AF094FB204B1B6883
:101B200018464EF031FC1D4B1B880F3B9AB2234BDD
:101B30001A806DE0214B1B881A46FB6813441B7802
:101B400001331F4A13441B7803F09703002B3BD04B
:101B5000134B1B6841F2883118464EF0CAFB174BF5
:101B60001B881A46FB6813441B781A4615490E4811
:101B700072F0C2FB0C48FEF7BDFB03469CB20A485C
:101B8000FEF7B8FB03462246074908484AF05AFBCD
:101B9000034B1B6818464EF0F7FB33E08E1501240B
:101BA00088D5002420680708DCD50024D0640024F0
:101BB000346807083C680708406807089015012446
:101BC000D086080848680708A84B1B6841F288318E
:101BD00018464EF08EFBA649A64872F08DFBA5482C
:101BE000FEF788FB03469CB2A248FEF783FB034640
:101BF0002246A049A0484AF025FB9C4B1B6818468A
:101C00004EF0C2FB9D4B1B8801339AB29B4B1A804E
:101C10009B4B1A88994B1B889A428BD2934B1B681B
:101C200041F2883118464EF064FB9649914872F0B3
:101C300063FB9048FEF75EFB03469CB28D48FEF7BF
:101C400059FB034622468B498B484AF0FBFA874BE7
:101C50001B6818464EF098FB894B1B8801339AB2DB
:101C6000874B1A80864B1B887A899A423FF69FAE33
:101C70007B8903F00F039BB2002B00F0F3807B897C
:101C800003F00F039AB27D4B1A8023E0774B1B6859
:101C900041F2883118464EF02CFB7B49754872F0B2
:101CA0002BFB7448FEF726FB03469CB27148FEF7F7
:101CB00021FB034622466F496F484AF0C3FA6B4B3B
:101CC0001B6818464EF060FB6C4B1B8801339AB2C0
:101CD0006A4B1A80694B1B880F2BD7D97B8903F07D
:101CE00008039BB2002B1DD1604B1B6841F2883169
:101CF00018464EF0FEFA65495E4872F0FDFA5D48FE
:101D0000FEF7F8FA03469CB25A48FEF7F3FA034688
:101D10002246584958484AF095FA544B1B681846D1
:101D20004EF032FB514B1B6841F2883118464EF0A1
:101D3000E0FA56494F4872F0DFFA4E48FEF7DAFAF9
:101D400003469CB24B48FEF7D5FA03462246494962
:101D500049484AF077FA454B1B6818464EF014FB89
:101D60007B8923F00F039AB2444B1A8057E0434B10
:101D70001B881A46FB6813441B780133444A1344FA
:101D80001B7803F09703002B25D0384B1B6841F2DA
:101D9000883118464EF0ADFA384B1B881A46FB685E
:101DA00013441B781A463B49324872F0A5FA314871
:101DB000FEF7A0FA03469CB22E48FEF79BFA0346B4
:101DC00022462C492C484AF03DFA284B1B681846FD
:101DD0004EF0DAFA1DE0254B1B6841F288311846B7
:101DE0004EF087FA2249234872F086FA2148FEF71E
:101DF00081FA03469CB21F48FEF77CFA034622464E
:101E00001C491D484AF01EFA184B1B6818464EF034
:101E1000BBFA1A4B1B8801339AB2184B1A80174B26
:101E20001B887A899A42A2D8104B1B6841F28831EC
:101E300018464EF05EFA13490E4872F05DFA0D48EE
:101E4000FEF758FA03469CB20A48FEF753FA0346D7
:101E50002246084908484AF0F5F9044B1B68184621
:101E60004EF092FA00BF1437BD4690BD88D50024CD
:101E70004C680708DCD50024D064002490150124A8
:101E80008E15012450680708546807084068070841
:101E9000D08608084868070890B583B002AF654B44
:101EA0001B684FF47A7118464EF023FA6249634872
:101EB00072F022FA6148FEF71DFA03469CB25F48B1
:101EC000FEF718FA034622465C495D484AF0BAF923
:101ED00059495A4872F010FA5848FEF70BFA03466F
:101EE0009CB25648FEF706FA034622465349544828
:101EF0004AF0A8F95049514872F0FEF94F48FEF7F0
:101F0000F9F903469CB24D48FEF7F4F90346224620
:101F10004A494B484AF096F94A49484872F0ECF968
:101F20004648FEF7E7F903469CB24448FEF7E2F95B
:101F300003462246414942484AF084F942493F4813
:101F400072F0DAF93D48FEF7D5F903469CB23B48FA
:101F5000FEF7D0F903462246384939484AF072F96B
:101F60003A49364872F0C8F93448FEF7C3F90346D7
:101F70009CB23248FEF7BEF9034622462F4930484C
:101F80004AF060F941230193314B0093314B314AC0
:101F900031492A4872F0B0F92848FEF7ABF90346F8
:101FA0009CB22648FEF7A6F9034622462349244858
:101FB0004AF048F9294A2A49204872F09DF91F48F9
:101FC000FEF798F903469CB21C48FEF793F90346C6
:101FD00022461A491A484AF035F92249174872F040
:101FE0008BF91648FEF786F903469CB21348FEF7B4
:101FF00081F903462246114911484AF023F9124952
:102000000E4872F079F90D48FEF774F903469CB258
:102010000A48FEF76FF903462246084908484AF085
:1020200011F9044B1B6818464EF0AEF900BF043797
:10203000BD4690BD88D5002458680708DCD500242B
:10204000D0640024846807088C680708D4680708EF
:10205000506907081C6907082069070854690708C0
:10206000606907088869070880B500AF034904481C
:1020700049F0C6F8014B1B68184680BD9415012431
:102080002062002490B58BB004AF03463960FB801A
:102090000023BB82FB88002B23D0FB88A3F5807331
:1020A000002B00DA0733DB10FB75FB88DBB203F093
:1020B0000703BB75FB8801333B823B8AA3F5807322
:1020C000002B00DA0733DB10FB753B8AA3F5807326
:1020D0005A4203F0070302F0070258BF5342BB7590
:1020E00003E00023FB750023BB75FB7DFB7454E00C
:1020F000BB7DBB7449E0FB7C3A6813441B781A46ED
:10210000BB7C42FA03F303F00103002B3AD0FB7CC3
:1021100020339BB2DB009AB2BB7C9BB21344BB82E0
:10212000FB7CFB73BB7CBB73314B1B6841F288317A
:1021300018464EF0DEF8B88AFB7BBA7BB97B0124E7
:1021400004FA01F10291019200930346294A2A49B7
:102150002A4872F0D1F82948FEF7CCF803469CB221
:102160002648FEF7C7F803462246244924484AF089
:1021700069F81F4B1B6818464EF006F90823BB741C
:102180008023FB74BB7C0133BB74BB7C072BB2D9AF
:102190000023BB75FB7C0133FB7497F91330002BD4
:1021A000A6DABB8A002B1ED1114B1B6841F2883185
:1021B00018464EF09EF80F4A1249104872F09CF8EB
:1021C0000E48FEF797F803469CB20C48FEF792F8CB
:1021D0000346224609490A484AF034F8044B1B6872
:1021E00018464EF0D1F8BB8A18461C37BD4690BD44
:1021F00088D500240C290808846A0708DCD5002447
:10220000D0640024E06A0708B0B588B002AF034686
:10221000FB71FB79002B45D18B4B1B6841F2883158
:1022200018464EF066F8894A89498A4872F064F87F
:102230008848FEF75FF803469CB28648FEF75AF8D6
:10224000034622468349844849F0FCFF7E4B1B68C5
:1022500018464EF099F8814B00221A607A4B1B68A1
:1022600041F2883118464EF044F8784A7C49794862
:1022700072F042F87748FEF73DF803469CB2754885
:10228000FEF738F8034622467249734849F0DAFFF0
:102290006D4B1B6818464EF077F8724B00221A708F
:1022A00000F09FBDFB79012B40F03C856E4B9A7886
:1022B0006E4B1B789A4208D06B4B9A786B4B1A7016
:1022C000664B1B680133654A1360644B1B683C2BEB
:1022D00026D9624B00221A605B4B1B6841F28831A1
:1022E00018464EF006F8624B1B78584A6149594827
:1022F00072F002F85748FDF7FDFF03469CB25548BF
:10230000FDF7F8FF034622465249534849F09AFF29
:102310004D4B1B6818464EF037F8524B0B221A7083
:10232000504B1B78002B5BD1514B1B781946524AFE
:10233000582301FB03F3134414331B78052B40F09F
:10234000508510F07BFA03461A464C4B1A70502207
:1023500000214B4872F0E6F8494B9F221A70484B17
:1023600004225A70424B1B781946434A582301FBFA
:1023700003F3134416331888404B1B780093012352
:102380003F4A02210FF07CFA344B00221A603D4B89
:1023900000221A702C4B1B6841F2883118464DF010
:1023A000A8FF334B1B78294A37492A4871F0A4FF0C
:1023B0002848FDF79FFF03469CB22648FDF79AFF89
:1023C000034622462349244849F03CFF1E4B1B6824
:1023D00018464DF0D9FF234B01221A7000F001BDC1
:1023E000204B1B78012B40F0B781264B1B78002B2C
:1023F00000F0F784254B1B78002B4BD1124B1B6848
:1024000041F2883118464DF074FF194B1B780F4A82
:102410001F49104871F070FF0E48FDF76BFF03462F
:102420009CB20C48FDF766FF0346224609490A485C
:1024300049F008FF044B1B6818464DF0A5FF094BF7
:102440000B221A7000F0CDBC88D50024282908087A
:10245000086B0708DCD50024D064002498150124FB
:102460001C6B07089C150124DCED002416000024D9
:10247000140000244C6B070834120124EC130124CF
:10248000A0150124731401249C6B07087414012403
:10249000D86B07089E4B00221A6010F0CFF9034654
:1024A0001A469C4B1A70502200219B4872F03AF851
:1024B000994B9F221A70984B06225A70964B002215
:1024C0009A70954B0222DA70934B01221A71934B4A
:1024D0001B781946924A582301FB03F31344113326
:1024E0001B7803F00403002B22D08E4B1B6841F2B3
:1024F000883118464DF0FDFE8B4A8C498C4871F0AE
:10250000FBFE8B48FDF7F6FE03469CB28848FDF7BC
:10251000F1FE034622468649864849F093FE814BE8
:102520001B6818464DF030FF7B4B04225A7183E044
:102530007A4B1B7819467A4A582301FB03F313445C
:1025400011331B7803F00203002B22D0754B1B685C
:1025500041F2883118464DF0CCFE734A76497448F2
:1025600071F0CAFE7248FDF7C5FE03469CB2704882
:10257000FDF7C0FE034622466D496E4849F062FEF3
:10258000684B1B6818464DF0FFFE634B02225A71E0
:1025900052E0624B1B781946614A582301FB03F352
:1025A000134411331B7803F00103002B22D05D4B41
:1025B0001B6841F2883118464DF09BFE5A4A5F492C
:1025C0005B4871F099FE5A48FDF794FE03469CB2B1
:1025D0005748FDF78FFE034622465549554849F0B6
:1025E00031FE504B1B6818464DF0CEFE4A4B01227F
:1025F0005A7121E04B4B1B6841F2883118464DF06F
:1026000078FE494A4E494A4871F076FE4848FDF73F
:1026100071FE03469CB24648FDF76CFE0346224617
:102620004349444849F00EFE3E4B1B6818464DF0A6
:10263000ABFE394B00225A713A4B1B6841F288318C
:1026400018464DF056FE354B1B78374A3D49384801
:1026500071F052FE3648FDF74DFE03469CB23448F9
:10266000FDF748FE034622463149324849F0EAFD6B
:102670002C4B1B6818464DF087FE284B1B781846DC
:10268000254B5979264A582300FB03F31344123390
:102690000A461A70214B1B781946214A582301FB20
:1026A00003F31344163318881A4B1B780093012345
:1026B000194A06210FF0E4F8234B00221A70234B2D
:1026C00000221A70174B1B6841F2883118464DF0F2
:1026D00010FE124B1B78144A1D49154871F00CFE70
:1026E0001348FDF707FE03469CB21148FDF702FEB2
:1026F000034622460E490F4849F0A4FD094B1B68CA
:1027000018464DF041FE134B02221A7069E300BFD8
:1027100098150124EC130124A015012414000024B1
:102720003412012488D5002428290808186C0708C9
:10273000DCD50024D0640024346C0708546C0708EE
:10274000786C0708C86C07087514012476140124F6
:10275000EC6C07089C1501246D4B1B78022B40F094
:10276000F9806C4B1B78002B00F03B836A4B1B7885
:10277000002B24D0694B1B6841F2883118464DF07C
:10278000B8FD674B1B78674A6749684871F0B4FD2C
:102790006648FDF7AFFD03469CB26448FDF7AAFD0D
:1027A000034622466149624849F04CFD5B4B1B6879
:1027B00018464DF0E9FD564B0B221A7011E35D4BA4
:1027C00000221A6010F03AF803461A465A4B1A7063
:1027D00050220021594871F0A5FE584B9F221A70D3
:1027E000564B08225A70554B01229A70534B544A4B
:1027F000DC1C15460FCD20606160A260E3600FCD48
:1028000020616161A261E361454B1B7819464D4A25
:10281000582301FB03F3134416331888464B1B78E7
:1028200000930123454A23210FF02AF8464B00224A
:102830001A703A4B1B6841F2883118464DF059FD29
:10284000374B1B78374A4149384871F055FD3748B6
:10285000FDF750FD03469CB23448FDF74BFD03469F
:1028600022463249324849F0EDFC2C4B1B68184691
:102870004DF08AFD264B03221A7010F053FDF860CC
:10288000FB68002B00F0AD82244B1B6841F28831BD
:1028900018464DF02EFD234A2D49244871F02CFD99
:1028A0002248FDF727FD03469CB22048FDF722FD94
:1028B000034622461D491E4849F0C4FC174B1B68BD
:1028C00018464DF061FD154B1B6841F288311846E2
:1028D0004DF00FFD124B1B78124A1349134871F04B
:1028E0000BFD1248FDF706FD03469CB20F48FDF7AD
:1028F00001FD034622460D490D4849F0A3FC074B54
:102900001B6818464DF040FD014B0B221A7068E21F
:102910009C150124751401247614012488D5002403
:102920001400002428290808306D0708DCD500248D
:10293000D064002498150124EC130124A01501246F
:102940007C1401243412012477140124746D0708C7
:10295000C46D0708904B1B78032B40F045818F4BCB
:102960001B78002B00F03D828D4B00221A600FF087
:1029700065FF03461A468B4B1A70502200218A4885
:1029800071F0D0FD884B9F221A70874B02225A703B
:10299000844B1A78844B9A70834B0122DA708348F7
:1029A00054F065FF38613B69002B1FD0804B1B68DA
:1029B00041F2883118464DF09CFC3B697D4A7E49C6
:1029C0007E4871F099FC7D48FDF794FC03469CB26B
:1029D0007A48FDF78FFC034622467849784849F04B
:1029E00031FC734B1B6818464DF0CEFC1022754924
:1029F0006E4854F0A7FF38613B69002B1FD06C4B29
:102A00001B6841F2883118464DF073FC3B69694AF6
:102A10006D496A4871F070FC6848FDF76BFC03462D
:102A20009CB26648FDF766FC03462246634964484B
:102A300049F008FC5E4B1B6818464DF0A5FC5C4B4A
:102A40001B6841F2883118464DF053FC594A5F49E2
:102A50005A4871F051FC5948FDF74CFC03469CB2B2
:102A60005648FDF747FC034622465449544849F06E
:102A7000E9FB4F4B1B6818464DF086FC4A4B514A08
:102A80001C1D13460FCB84E80F00484854F0B1FFDB
:102A900038613B69002B1FD0454B1B6841F28831E0
:102AA00018464DF026FC3B69424A4949434871F0BB
:102AB00023FC4248FDF71EFC03469CB23F48FDF74D
:102AC00019FC034622463D493D4849F0BBFB384BC3
:102AD0001B6818464DF058FC354B1B6841F2883195
:102AE00018464DF006FC334A3A49344871F004FC6C
:102AF0003248FDF7FFFB03469CB23048FDF7FAFB76
:102B0000034622462D492E4849F09CFB284B1B6862
:102B100018464DF039FC0023002210212948FEF709
:102B200039FF2D4B1B7819462C4A582301FB03F320
:102B30001344163318881B4B1B78009301231A4A41
:102B400014210EF09DFE264B00221A70184B1B68B4
:102B500041F2883118464DF0CCFB1F4B1B78154ACB
:102B60002049164871F0C8FB1448FDF7C3FB034623
:102B70009CB21248FDF7BEFB034622460F4910489F
:102B800049F060FB0A4B1B6818464DF0FDFB024BF9
:102B900004221A7025E100BF9C150124771401243A
:102BA00098150124EC130124A0150124BC14012460
:102BB00088D5002428290808086E0708DCD50024D9
:102BC000D0640024FC140124406E0708846E0708BA
:102BD000C86E0708006F070814000024341201248F
:102BE00078140124406F0708834B1B78042B75D1A0
:102BF000824B1B78002B00F0F480814B00221A607E
:102C000010F0C0FE78617F4B1B6841F28831184696
:102C10004DF06FFB7C4B1B787C4A7D497D4871F001
:102C20006BFB7C48FDF766FB03469CB27948FDF7D9
:102C300061FB034622467749774849F003FB714B15
:102C40001B6818464DF0A0FB6B4B05221A707B6980
:102C5000002B00F0C6806B4B1B6841F28831184690
:102C60004DF047FB6D496B4871F046FB6948FDF735
:102C700041FB03469CB26748FDF73CFB03462246F6
:102C80006449654849F0DEFA5E4B1B6818464DF012
:102C90007BFB5C4B1B6841F2883118464DF029FBE9
:102CA000594B1B78594A5E495A4871F025FB5948DF
:102CB000FDF720FB03469CB25648FDF71BFB03467D
:102CC00022465449544849F0BDFA4E4B1B681846F9
:102CD0004DF05AFB484B0B221A7082E0464B1B7892
:102CE000052B7ED0444B1B78062B7AD0424B1B78A9
:102CF000072B76D0404B1B78082B72D03E4B1B78AD
:102D0000092B6ED03C4B1B780A2B03D1454B01227B
:102D10001A7066E0384B1B780B2B62D1424B0122B4
:102D20001A705EE0FB79022B5BD0364B1B6841F2D8
:102D3000883118464DF0DDFA3C49364871F0DCFA2E
:102D40003448FDF7D7FA03469CB23248FDF7D2FA71
:102D5000034622462F49304849F074FA294B1B6834
:102D600018464DF011FB274B1B6841F2883118467D
:102D70004DF0BFFAFB79254A2D49264871F0BCFA7F
:102D80002448FDF7B7FA03469CB22248FDF7B2FA91
:102D9000034622461F49204849F054FA194B1B6844
:102DA00018464DF0F1FA174B1B6841F2883118466E
:102DB0004DF09FFA1D49174871F09EFA1548FDF72E
:102DC00099FA03469CB21348FDF794FA034622464B
:102DD0001049114849F036FA0A4B1B6818464DF065
:102DE000D3FA054B1A78134B1A70034B1B7818460D
:102DF0001837BD46B0BD00BF9C15012478140124CE
:102E00009815012488D500241400002428290808D6
:102E1000946F0708DCD50024D0640024E86F07080D
:102E20002870070805EE002406EE002470700708DD
:102E3000CC7007087214012498B500AF7C4B1B6856
:102E400041F2883118464DF054FA7A497A4871F0C7
:102E500053FA7948FDF74EFA03469CB27648FDF7DF
:102E600049FA034622467449744849F0EBF9704B1D
:102E70001B6818464DF088FA714B181D704B5B7833
:102E8000033B99B200230022FEF784FD684B1B68C8
:102E900041F2883118464DF02CFA694B1B79694A8A
:102EA0006949654871F028FA6348FDF723FA03463B
:102EB0009CB26148FDF71EFA034622465E495F4810
:102EC00049F0C0F95A4B1B6818464DF05DFA584B53
:102ED0001B6841F2883118464DF00BFA584B5B796C
:102EE000584A5A49544871F007FA5348FDF702FA14
:102EF00003469CB25048FDF7FDF9034622464E4971
:102F00004E4849F09FF94A4B1B6818464DF03CFA71
:102F10004B4B5B79032B00F2A38001A252F823F004
:102F2000312F0008712F0008B12F0008F12F000881
:102F30003F4B1B6841F2883118464DF0DAF9414A9F
:102F400043493D4871F0D8F93B48FDF7D3F90346B2
:102F50009CB23948FDF7CEF9034622463649374838
:102F600049F070F9324B1B6818464DF00DFA97E0A6
:102F70002F4B1B6841F2883118464DF0BAF9314A9F
:102F800034492D4871F0B8F92B48FDF7B3F90346E1
:102F90009CB22948FDF7AEF9034622462649274848
:102FA00049F050F9224B1B6818464DF0EDF977E0D7
:102FB0001F4B1B6841F2883118464DF09AF9214A9F
:102FC00025491D4871F098F91B48FDF793F9034610
:102FD0009CB21948FDF78EF9034622461649174858
:102FE00049F030F9124B1B6818464DF0CDF957E007
:102FF0000F4B1B6841F2883118464DF07AF9114A9F
:1030000016490D4871F078F90B48FDF773F903463E
:103010009CB20948FDF76EF9034622460649074867
:1030200049F010F9024B1B6818464DF0ADF937E036
:1030300088D5002474710708DCD50024D0640024EE
:10304000C008012448290808B8710708F871070862
:1030500038720708507207087C720708B4720708B4
:10306000B24B1B6841F2883118464DF042F9B04A24
:10307000B049B14871F040F9AF48FDF73BF903465C
:103080009CB2AD48FDF736F903462246AA49AB4843
:1030900049F0D8F8A54B1B6818464DF075F900BFEC
:1030A000A24B1B6841F2883118464DF022F9A44B1F
:1030B0009B791B02A24AD27913449D4AA1499E489A
:1030C00071F01AF99C48FDF715F903469CB29A482D
:1030D000FDF710F9034622469749984849F0B2F89F
:1030E000924B1B6818464DF04FF9904B1B6841F20C
:1030F000883118464DF0FDF8914B1B7A8C4A924965
:103100008D4871F0F9F88C48FDF7F4F803469CB24D
:103110008948FDF7EFF8034622468749874849F07A
:1031200091F8824B1B6818464DF02EF97F4B1B68B7
:1031300041F2883118464DF0DCF8814B5B7A7C4ACD
:1031400082497D4871F0D8F87B48FDF7D3F80346F3
:103150009CB27948FDF7CEF8034622467649774877
:1031600049F070F8714B1B6818464DF00DF96F4B24
:103170001B6841F2883118464DF0BBF8704B9B7AC2
:103180006B4A73496C4871F0B7F86B48FDF7B2F8B9
:1031900003469CB26848FDF7ADF8034622466649EF
:1031A000664849F04FF8614B1B6818464DF0ECF843
:1031B0005E4B1B6841F2883118464DF09AF8604B1F
:1031C000DB7A5B4A63495C4871F096F85A48FDF730
:1031D00091F803469CB25848FDF78CF80346224606
:1031E0005549564849F02EF8504B1B6818464DF08B
:1031F000CBF84E4B1B6841F2883118464DF079F8F8
:103200004F4B1B7B4A4A54494B4871F075F84A486A
:10321000FDF770F803469CB24748FDF76BF803468C
:1032200022464549454849F00DF8404B1B68184671
:103230004DF0AAF83D4B1B6841F2883118464DF01D
:1032400058F83F4B5B7B3A4A44493B4871F054F88D
:103250003948FDF74FF803469CB23748FDF74AF866
:10326000034622463449354848F0ECFF2F4B1B6893
:1032700018464DF089F82D4B1B6841F288311846ED
:103280004DF037F82E4B9B7B294A35492A4871F07F
:1032900033F82948FDF72EF803469CB22648FDF77F
:1032A00029F8034622462449244848F0CBFF1F4B07
:1032B0001B6818464DF068F81C4B1B6841F28831BA
:1032C00018464DF016F81E4BDB7B194A25491A4863
:1032D00071F012F81848FDF70DF803469CB2164835
:1032E000FDF708F8034622461349144848F0AAFFA0
:1032F0000E4B1B6818464DF047F80C4B1B6841F20B
:10330000883118464CF0F5FF0D4B1B7C084A1649D6
:10331000094870F0F1FF0848FCF7ECFF03469CB247
:103320000548FCF7E7FF034622461FE088D5002446
:1033300048290808E0720708DCD50024D06400247E
:10334000C00801241073070850730708907307081A
:10335000D0730708107407085074070890740708A2
:10336000D07407081075070850750708A549A648C6
:1033700048F068FFA54B1B6818464DF005F8A34BB5
:103380001B6841F2883118464CF0B3FFA04B5B7CC0
:10339000A04AA1499B4870F0AFFF9A48FCF7AAFFEA
:1033A00003469CB29748FCF7A5FF03462246954981
:1033B000954848F047FF954B1B6818464CF0E4FFD2
:1033C000924B1B6841F2883118464CF092FF904BAB
:1033D0009B7C904A91498B4870F08EFF8948FCF79E
:1033E00089FF03469CB28748FCF784FF03462246C8
:1033F0008449854848F026FF844B1B6818464CF0EA
:10340000C3FF824B1B6841F2883118464CF071FFB4
:103410007F4BDB7C7F4A82497A4870F06DFF7948A8
:10342000FCF768FF03469CB27648FCF763FF03464F
:1034300022467449744848F005FF744B1B681846CF
:103440004CF0A2FF714B1B6841F2883118464CF0DA
:1034500050FF6F4B1B7D6F4A72496A4870F04CFFFA
:103460006848FCF747FF03469CB26648FCF742FFFA
:10347000034622466349644848F0E4FE634B1B68F8
:1034800018464CF081FF614B1B6841F288311846A9
:103490004CF02FFF5E4B5B7D5E4A6349594870F0EC
:1034A0002BFF5848FCF726FF03469CB25548FCF713
:1034B00021FF034622465349534848F0C3FE534B6D
:1034C0001B6818464CF060FF514B5B7D03F04003D6
:1034D000002B1ED04D4B1B6841F2883118464CF032
:1034E00008FF4C4A5149474870F006FF4548FCF731
:1034F00001FF03469CB24348FCF7FCFE034622460C
:103500004049414848F09EFE404B1B6818464CF02D
:103510003BFF3F4B5B7D03F02003002B1ED03B4B5A
:103520001B6841F2883118464CF0E3FE394A4049A5
:10353000344870F0E1FE3348FCF7DCFE03469CB2F1
:103540003048FCF7D7FE034622462E492E4848F065
:1035500079FE2E4B1B6818464CF016FF2C4B5B7DFA
:1035600003F00703013B032B00F2B48001A252F8E1
:1035700023F000BF85350008C53500083D3600083A
:103580007D360008214B1B6841F2883118464CF00B
:10359000B0FE204A27491B4870F0AEFE1948FCF7E0
:1035A000A9FE03469CB21748FCF7A4FE0346224638
:1035B0001449154848F046FE144B1B6818464CF059
:1035C000E3FEA7E0114B1B6841F2883118464CF02E
:1035D00090FE104A18490B4870F08EFE0948FCF71F
:1035E00089FE03469CB20748FCF784FE0346224648
:1035F0000449054848F026FE044B1B6818464CF069
:10360000C3FE87E0DCD50024D064002488D50024E4
:10361000C00801244829080890750708D0750708D4
:10362000107607085076070890760708D0760708C6
:103630000C77070848770708687707081F4B1B684F
:1036400041F2883118464CF054FE1D4A1D491E486F
:1036500070F052FE1C48FCF74DFE03469CB21A481F
:10366000FCF748FE034622461749184848F0EAFD91
:10367000124B1B6818464CF087FE4BE00F4B1B6843
:1036800041F2883118464CF034FE0D4A10490E487C
:1036900070F032FE0C48FCF72DFE03469CB20A483F
:1036A000FCF728FE034622460749084848F0CAFDB1
:1036B000024B1B6818464CF067FE2BE088D50024AF
:1036C0004829080888770708DCD50024D06400243E
:1036D000A8770708A34B1B6841F2883118464CF0C5
:1036E00008FEA14AA149A24870F006FEA048FCF7D6
:1036F00001FE03469CB29E48FCF7FCFD03462246B1
:103700009B499C4848F09EFD964B1B6818464CF020
:103710003BFE00BF934B1B6841F2883118464CF0CA
:10372000E8FD954B9B7D904A9449914870F0E4FDEB
:103730008F48FCF7DFFD03469CB28D48FCF7DAFDAD
:10374000034622468A498B4848F07CFD854B1B681E
:1037500018464CF019FE834B1B6841F2883118461D
:103760004CF0C7FD844BDB7D7F4A8549804870F073
:10377000C3FD7F48FCF7BEFD03469CB27C48FCF7C6
:10378000B9FD034622467A497A4848F05BFD754BFD
:103790001B6818464CF0F8FD724B1B6841F28831EB
:1037A00018464CF0A6FD744B1B7E6F4A7549704855
:1037B00070F0A2FD6E48FCF79DFD03469CB26C487C
:1037C000FCF798FD0346224669496A4848F03AFDED
:1037D000644B1B6818464CF0D7FD624B1B6841F2E6
:1037E000883118464CF085FD634B5B7E5E4A664926
:1037F0005F4870F081FD5E48FCF77CFD03469CB29B
:103800005B48FCF777FD034622465949594848F082
:1038100019FD544B1B6818464CF0B6FD514B1B6804
:1038200041F2883118464CF064FD534B9B7E4E4A62
:1038300056494F4870F060FD4D48FCF75BFD03466C
:103840009CB24B48FCF756FD03462246484949487E
:1038500048F0F8FC434B1B6818464CF095FD414B73
:103860001B6841F2883118464CF043FD424BDB7E29
:103870003D4A47493E4870F03FFD3D48FCF73AFD60
:1038800003469CB23A48FCF735FD034622463849C8
:10389000384848F0D7FC334B1B6818464CF074FD91
:1038A000304B1B6841F2883118464CF022FD324BF8
:1038B0001B7F2D4A37492E4870F01EFD2C48FCF71F
:1038C00019FD03469CB22A48FCF714FD0346224624
:1038D0002749284848F0B6FC224B1B6818464CF094
:1038E00053FD204B1B6841F2883118464CF001FD16
:1038F000214B5B7F1C4A28491D4870F0FDFC1C4889
:10390000FCF7F8FC03469CB21948FCF7F3FC0346AD
:1039100022461749174848F095FC124B1B68184679
:103920004CF032FD0F4B1B6841F2883118464CF0C9
:10393000E0FC1A490E4870F0DFFC0D48FCF7DAFC99
:1039400003469CB20A48FCF7D5FC034622460849C8
:10395000084848F077FC034B1B6818464CF014FDF0
:1039600000BF98BD88D5002448290808CC770708EF
:10397000DCD50024D0640024C00801241478070892
:103980005478070894780708D4780708147907084A
:103990005479070894790708D4790708147A070836
:1039A00090B585B000AF03463960FB710123FB730E
:1039B000FB79042B63D8FB79444A582101FB03F3BC
:1039C000134408331B7863F03F03DAB23B681A7084
:1039D000FA793B6801333D49582000FB02F20A4462
:1039E000093212781A70FA793B6802333749582045
:1039F00000FB02F20A440A3212781A70FB79334A49
:103A0000582101FB03F313440B331A783B6803334B
:103A100022F00102D2B21A70FB792C4A582101FB24
:103A200003F313440C331A783B68043362F03F020B
:103A3000D2B21A70FA793B6805332449582000FB4A
:103A400002F20A440D3212781A70FA793B68063392
:103A50001E49582000FB02F20A440E3212781A70F6
:103A6000FB791A4A582101FB03F313440F331A78E8
:103A70003B68073322F00102D2B21A7021E0144BE6
:103A80001B6841F2883118464CF033FCFB79114A2F
:103A90001149124870F030FC1048FCF72BFC03462B
:103AA0009CB20E48FCF726FC034622460B490C4804
:103AB00048F0C8FB064B1B6818464CF065FC002319
:103AC000FB73FB7B18461437BD4690BD34120124AE
:103AD00088D5002460290808587A0708DCD5002416
:103AE000D064002490B583B000AFFF23FB710023A6
:103AF0007B7140E00123BB7100233B710FE07A79B9
:103B00003B792149582000FB02F20A4413441B78F8
:103B1000002B01D00023BB713B7901333B713B7912
:103B20000F2BECD9BB79002B22D0184B1B6841F22C
:103B3000883118464CF0DDFB7B79154A154916484B
:103B400070F0DAFB1448FCF7D5FB03469CB2124830
:103B5000FCF7D0FB034622460F49104848F072FBA1
:103B60000A4B1B6818464CF00FFC7B79FB7105E093
:103B70007B7901337B717B79042BBBD9FB791846A8
:103B80000C37BD4690BD00BF3412012488D50024F7
:103B900080290808AC7A0708DCD50024D06400240A
:103BA00080B483B000AF0023FB7100233B6023E0AF
:103BB000164A3B68582101FB03F3134414331B7866
:103BC000002B16D0114A3B68582101FB03F3134424
:103BD00014331B78012B0CD00C4A3B68582101FB95
:103BE00003F3134414331B78062B02D00123FB711B
:103BF00005E03B6801333B603B68042BD8DDFB7973
:103C000018460C37BD465DF8047B7047341201241A
:103C100090B585B000AF0346FB71FB79042B18D833
:103C20000123FB730023BB730FE0FA79BB7B1C49B4
:103C3000582000FB02F20A4413441B78002B01D0E9
:103C40000023FB73BB7B0133BB73BB7B0F2BECD916
:103C500021E0144B1B6841F2883118464CF049FBB7
:103C6000FB79114A1149124870F046FB1048FCF7E5
:103C700041FB03469CB20E48FCF73CFB0346224640
:103C80000B490C4848F0DEFA064B1B6818464CF00E
:103C90007BFB0023FB73FB7B18461437BD4690BDAE
:103CA0003412012488D5002498290808C87A070806
:103CB000DCD50024D064002490B58BB000AF7860D0
:103CC000012387F82730AF4B1B6841F28831184633
:103CD0004CF00FFB7B68AC4AAC49AD4870F00CFB74
:103CE000AB48FCF707FB03469CB2A948FCF702FB74
:103CF00003462246A649A74848F0A4FAA14B1B68F0
:103D000018464CF041FB7868FCF7F4FA03462F2B79
:103D100025D09C4B1B6841F2883118464CF0E9FADB
:103D20007868FCF7E7FA0346974A9B49984870F091
:103D3000E3FA9748FCF7DEFA03469CB29448FCF796
:103D4000D9FA034622469249924848F07BFA8D4BB5
:103D50001B6818464CF018FB002387F82730002317
:103D6000BB6176E0BB69052B11D0BB690B2B0ED074
:103D7000BB69112B0BD0BB69172B08D0BB691D2B5E
:103D800005D0BB69232B02D0BB69292B2FD1BB697E
:103D90007A6813441B780133804A13441B7803F07C
:103DA0000403002B52D0774B1B6841F28831184630
:103DB0004CF09FFABB69744A7949754870F09CFAD7
:103DC0007348FCF797FA03469CB27148FCF792FAE5
:103DD000034622466E496F4848F034FA694B1B6827
:103DE00018464CF0D1FA002387F827302EE0BB6943
:103DF0007A6813441B780133684A13441B7803F034
:103E00000403002B22D15F4B1B6841F28831184616
:103E10004CF06FFABB695C4A62495D4870F06CFA1D
:103E20005B48FCF767FA03469CB25948FCF762FA14
:103E3000034622465649574848F004FA514B1B683E
:103E400018464CF0A1FA002387F82730BB690133EC
:103E5000BB61BB692E2B85DD7B683B620023FB7752
:103E600041E007F10C0306220021184670F05AFBCE
:103E700007F10C030522396A184671F020FA07F1A0
:103E80000C0318466FF034FF03467B617B69B3F582
:103E9000803F22D33B4B1B6841F2883118464CF0DF
:103EA00028FA7B69384A4049394870F025FA384881
:103EB000FCF720FA03469CB23548FCF71BFA034690
:103EC00022463349334848F0BDF92E4B1B6818464B
:103ED0004CF05AFA002387F827303B6A06333B62DE
:103EE000FB7F0233FB77FB7F0F2BBAD997F8273084
:103EF000002B20D0234B1B6841F2883118464CF030
:103F0000F8F97B68204A2949214870F0F5F92048E2
:103F1000FCF7F0F903469CB21D48FCF7EBF90346A9
:103F200022461B491B4848F08DF9164B1B68184662
:103F30004CF02AFA1FE0134B1B6841F288311846F7
:103F40004CF0D7F97B68104A1949114870F0D4F940
:103F50000F48FCF7CFF903469CB20D48FCF7CAF9AD
:103F6000034622460A490B4848F06CF9054B1B688A
:103F700018464CF009FA97F8273018462C37BD46FA
:103F800090BD00BF88D50024B0290808107B070821
:103F9000DCD50024D0640024287B0708D0860808DC
:103FA0006C7B0708B47B0708F87B07082C7C0708A4
:103FB000447C070890B585B000AF03463960FB71BB
:103FC000FB79042B32D8FB792A4A582101FB03F3F1
:103FD0001344103301221A700023FB6010E0FB68C9
:103FE0003A681A44FB791078224A582101FB03F3FE
:103FF0001A44FB68134402461A70FB680133FB60E5
:10400000FB680F2BEBDDFB791A4A582101FB03F308
:104010001344133300221A70FB79164A582101FB0E
:1040200003F31344143301221A701FE0124B1B6870
:1040300041F2883118464CF05CF9FB790F4A10497F
:10404000104870F059F90F48FCF754F903469CB238
:104050000C48FCF74FF9034622460A490A4848F043
:10406000F1F8054B1B6818464CF08EF900BF143769
:10407000BD4690BD3412012488D50024CC290808FF
:104080007C7C0708DCD50024D064002490B58DB07A
:1040900000AF03463960FB71012387F82F300123FD
:1040A00087F82E30FB79042B22D9654B1B6841F22F
:1040B000883118464CF01DF9FB79624A6249634821
:1040C00070F01AF96148FCF715F903469CB25F4895
:1040D000FCF710F9034622465C495D4848F0B2F807
:1040E000574B1B6818464CF04FF9002387F82F30C8
:1040F0003868FFF7E1FD034687F82E3097F82F3038
:10410000002B03D097F82E3087F82F303B68BB6226
:10411000002387F8273097F82E30002B5AD055E02F
:1041200007F1080306220021184670F0FBF907F199
:1041300008030522B96A184671F0C1F807F10803AF
:1041400018466FF0D5FD03463B623B6AB3F5803FEE
:1041500022D33B4B1B6841F2883118464CF0C9F81A
:104160003B6A384A3B49394870F0C6F83748FCF793
:10417000C1F803469CB23548FCF7BCF8034622461A
:104180003249334848F05EF82D4B1B6818464CF016
:10419000FBF8002387F82E303B6A1A0A97F827307D
:1041A000D2B230333B4403F8202C97F82730013348
:1041B0003A6AD2B230333B4403F8202CBB6A063350
:1041C000BB6297F82730023387F8273097F82730FB
:1041D0000F2BA5D997F82F30002B0BD097F82E3046
:1041E000002B07D007F11002FB7911461846FFF7A4
:1041F000E1FE1EE0124B1B6841F2883118464CF07C
:1042000078F8104A1449114870F076F80F48FCF716
:1042100071F803469CB20D48FCF76CF80346224641
:104220000A490B4848F00EF8054B1B6818464CF03D
:10423000ABF897F82F3018463437BD4690BD00BF15
:1042400088D50024DC290808BC7C0708DCD50024BC
:10425000D0640024F87B0708E87C070890B585B097
:1042600000AF03463960FB713C220021284870F002
:1042700059F90023FB603AE0FB79264A582101FBFB
:1042800003F31A44FB6813441B781B029BB2F979B1
:10429000FA6801321F48582404FB01F101440A4422
:1042A000127813449AB21C4B1A800A2200211B4830
:1042B00070F038F9184B1B881A461949174870F0E6
:1042C0001BF81649124870F035F9FB680D2B0BDC12
:1042D0000F48FCF70FF803461A460D4B13441149DB
:1042E0001A460B461B881380FB680233FB60FB6891
:1042F0000F2BC1DD0648FBF7FDFF03461A460449B4
:10430000386870F0DCFF00BF1437BD4690BD00BFB9
:10431000F0150124341201242C1601243016012436
:10432000147D07081C7D070890B583B000AF0346D5
:10433000FB71FB79042B6ED8494B1B6841F2883125
:1043400018464BF0D6FFFB79464A474947486FF07D
:10435000D3FF4648FBF7CEFF03469CB24348FBF72A
:10436000C9FF034622464149414847F06BFF3C4B99
:104370001B6818464CF008F8FB793E4A582101FBAF
:1043800003F31344103300221A70FB79582202FB06
:1043900003F3384A134410220021184670F0C2F883
:1043A000FB79344A582101FB03F3134411330022F3
:1043B0001A70FB792F4A582101FB03F3134412337F
:1043C00000221A70FB792B4A582101FB03F3134496
:1043D000133301221A70FB79264A582101FB03F39B
:1043E0001344143300221A70FB79224A582101FB2E
:1043F00003F3134416334FF6FF721A80FB795822E9
:1044000002FB03F318331B4A1344202200211846F1
:1044100070F088F81FE0124B1B6841F28831184693
:104420004BF067FFFB790F4A134910486FF064FFA8
:104430000E48FBF75FFF03469CB20C48FBF75AFFA0
:104440000346224609490A4847F0FCFE044B1B6814
:1044500018464BF099FF00BF0C37BD4690BD00BF1A
:1044600088D50024F8290808207D0708DCD5002419
:10447000D064002434120124387D070890B587B039
:1044800002AF03463960FB711346BB71594B9B78F1
:104490001F2B00F28880574B9B781D2B24D9564B3D
:1044A0001B6841F2883118464BF023FF514B9B7833
:1044B0001A46202300931346504A514951486FF041
:1044C0001BFF5048FBF716FF03469CB24D48FBF715
:1044D00011FF034622464B494B4847F0B3FE464B7B
:1044E0001B6818464BF050FF434B1B6841F2883164
:1044F00018464BF0FEFEFB79404A444941486FF0B4
:10450000FBFE4048FBF7F6FE03469CB23D48FBF736
:10451000F1FE034622463B493B4847F093FE364BAB
:104520001B6818464BF030FF324B9B780133DAB2F0
:10453000304B9A702F4B5B7819462E4AAA2301FB09
:1045400003F313440333FA791A70BB79A82B01D90A
:10455000A823BB71274B5B781946264AAA2301FB87
:1045600003F313440433BA791A70224B5B781A466A
:10457000AA2302FB03F31F4A13440533BA793968AF
:10458000184670F09CFE1B4B5B780133DAB2194B76
:104590005A70184B5B781F2B02D9164B00225A70A9
:1045A0000123FB7321E0144B1B6841F2883118464C
:1045B0004BF09FFEFB79114A154912486FF09CFEA3
:1045C0001048FBF797FE03469CB20E48FBF792FE9D
:1045D000034622460B490C4847F034FE064B1B6845
:1045E00018464BF0D1FE0023FB73FB7B18461437B3
:1045F000BD4690BD14EE002488D500240C2A08087E
:104600007C7D0708DCD50024D0640024D07D070819
:10461000FC7D070890B587B002AF03463960FB7197
:104620001346BB71594B9B78072B00F28880574B80
:104630009B78052B24D9564B1B6841F288311846CC
:104640004BF057FE514B9B781A46082300931346B4
:10465000504A514951486FF04FFE5048FBF74AFE0F
:1046600003469CB24D48FBF745FE034622464B49A4
:104670004B4847F0E7FD464B1B6818464BF084FE5D
:10468000434B1B6841F2883118464BF032FEFB79F0
:10469000404A444941486FF02FFE4048FBF72AFE4C
:1046A00003469CB23D48FBF725FE034622463B49A4
:1046B0003B4847F0C7FD364B1B6818464BF064FE7D
:1046C000324B9B780133DAB2304B9A702F4B5B78C8
:1046D00019462E4AAA2301FB03F313440333FA7944
:1046E0001A70BB79A82B01D9A823BB71274B5B7823
:1046F0001946264AAA2301FB03F313440433BA796B
:104700001A70224B5B781A46AA2302FB03F31F4A56
:1047100013440533BA793968184670F0D0FD1B4B45
:104720005B780133DAB2194B5A70184B5B78072B60
:1047300002D9164B00225A700123FB7321E0144B5F
:104740001B6841F2883118464BF0D3FDFB79114AC2
:10475000154912486FF0D0FD1048FBF7CBFD03461A
:104760009CB20E48FBF7C6FD034622460B490C4897
:1047700047F068FD064B1B6818464BF005FE00230A
:10478000FB73FB7B18461437BD4690BD58030124CC
:1047900088D50024242A0808447E0708DCD5002494
:1047A000D0640024987E0708C47E070890B585B0C1
:1047B00000AF03460A46FB711346BB71974B1B685B
:1047C00041F2883118464BF094FDFB79944A9549A3
:1047D00095486FF091FD9448FBF78CFD03469CB221
:1047E0009148FBF787FD034622468F498F4847F0E3
:1047F00029FD8A4B1B6818464BF0C6FD8C4B0022E6
:104800001A728B4B0022DA60894B002283F8C82091
:10481000884B00221A70884B18221A70BB79002B23
:104820001BD0864B0133854A52781946FF200FF082
:10483000F1FB0346FB73FA79FB7B9A4201D101221B
:1048400000E003227B4B1A70FA79FB7B9A4201D17C
:10485000062200E01522784B1A70704B1B6841F25B
:10486000883118464BF045FD75496F486FF044FD9F
:104870006D48FBF73FFD03469CB26B48FBF73AFDE2
:10488000034622466849694847F0DCFC634B1B68D5
:1048900018464BF079FD664BDB7C1946002300225D
:1048A0006648FDF777F85D4B1B6841F28831184682
:1048B0004BF01FFD63495C486FF01EFD5A48FBF743
:1048C00019FD03469CB25848FBF714FD03462246E7
:1048D0005549564847F0B6FC504B1B6818464BF0FC
:1048E00053FD534B00221A740123012252495648AA
:1048F00047F0A8FC504B1B78182B46D0182B64DCD3
:10490000062B02D0152B20D05FE0444B1B6841F2F0
:10491000883118464BF0EDFC414A4C4942486FF053
:10492000EBFC4148FBF7E6FC03469CB23E48FBF734
:10493000E1FC034622463C493C4847F083FC374BA8
:104940001B6818464BF020FD61E0344B1B6841F2B8
:10495000883118464BF0CDFC314A3D4932486FF062
:10496000CBFC3148FBF7C6FC03469CB22E48FBF754
:10497000C1FC034622462C492C4847F063FC274BD8
:104980001B6818464BF000FD41E0244B1B6841F2C8
:10499000883118464BF0ADFC214A2E4922486FF071
:1049A000ABFC2148FBF7A6FC03469CB21E48FBF774
:1049B000A1FC034622461C491C4847F043FC174B08
:1049C0001B6818464BF0E0FC21E0144B1B6841F2D9
:1049D000883118464BF08DFC174B1B78104A1E4946
:1049E00011486FF089FC1048FBF784FC03469CB229
:1049F0000D48FBF77FFC034622460B490B4847F066
:104A000021FC064B1B6818464BF0BEFC00BF094B4F
:104A10001B7818461437BD4690BD00BF88D50024CA
:104A2000482A0808087F0708DCD50024D064002441
:104A3000AC0801243A1601243B160124C0080124C5
:104A4000287F0708887F070864650024E87F070837
:104A50002480070874800708EC80070880B483B0BE
:104A600000AF0346FB71144BDB7C1A46124B134418
:104A7000FA791A75104BDB7C0133DAB20E4BDA741B
:104A80000E4B5B78032B0AD90C4B5B78033BDAB2F5
:104A9000094B83F8C920084B04221A7406E0064B20
:104AA000012283F8C920044B05221A7400BF0C3779
:104AB000BD465DF8047B7047AC080124C0080124A2
:104AC00080B483B000AF0346FB71144B93F8C93038
:104AD000013BDAB2114B83F8C920104BDB7C1A463C
:104AE0000E4B1344FA791A750C4BDB7C0133DAB2A6
:104AF0000A4BDA74094BDB7CB32B05D8074BDA7C05
:104B0000074B5B789A4202D9044B05221A7400BF06
:104B10000C37BD465DF8047B704700BFAC0801242C
:104B2000C008012498B500AF194B1B6841F28831C9
:104B300018464BF0DEFB174A174918486FF0DCFBAC
:104B40001648FBF7D7FB03469CB21448FBF7D2FB91
:104B5000034622461149124847F074FB0C4B1B6870
:104B600018464BF011FC0F4B00221A740D4B00221B
:104B700083F8C8200B4B00221A700A4B00221A72CD
:104B8000084B00225A60074B0022DA6000BF98BD34
:104B900088D50024602A080834810708DCD5002461
:104BA000D0640024AC08012490B583B000AF034664
:104BB000FB71FB79022B02D9FB79B42B2DD9214B48
:104BC0001B6841F2883118464BF093FBFB791E4A73
:104BD0001E491F486FF090FB1D48FBF78BFB0346F7
:104BE0009CB21B48FBF786FB03462246184919482E
:104BF00047F028FB134B1B6818464BF0C5FB164BC0
:104C000000221A74144B002283F8C820124B002291
:104C10001A72114B0022DA6010E00F4B02221A7454
:104C20000D4BDB7C1A460C4B1344FA791A750A4B70
:104C3000DB7C0133DAB2084BDA7400BF00BF0C37FB
:104C4000BD4690BD88D50024782A08085081070801
:104C5000DCD50024D0640024AC08012490B585B0D4
:104C600002AF0346FB719F4B00221A70FB79012BA8
:104C700039D19D4B1B6841F2883118464BF039FB06
:104C80009A4A9B499B486FF037FB9A48FBF732FBE7
:104C900003469CB29748FBF72DFB034622469549F5
:104CA000954847F0CFFA904B1B6818464BF06CFBC9
:104CB000924B01221A74914B0022DA748F4B01221D
:104CC00083F8C8208D4BDB7C1A468C4B1344FA7951
:104CD0001A758A4BDB7C0133DAB2884BDA74874B66
:104CE00000221A72F9E1854B9B7C002B00F0378182
:104CF000FB79062B02D0FB79152B0ED17F4B0022BE
:104D00009A747E4B00221A707C4B00221A727B4BE5
:104D100000225A60794B0022DA60FB79062B22D1FF
:104D2000714B1B6841F2883118464BF0E2FA6F4A2A
:104D3000734970486FF0E0FA6E48FBF7DBFA034600
:104D40009CB26C48FBF7D6FA0346224669496A488A
:104D500047F078FA644B1B6818464BF015FB614B23
:104D600002221A70B9E1FB79152B22D15E4B1B6828
:104D700041F2883118464BF0BCFA5C4A61495D4803
:104D80006FF0BAFA5B48FBF7B5FA03469CB2594894
:104D9000FBF7B0FA034622465649574847F052FA05
:104DA000514B1B6818464BF0EFFA4E4B05221A7018
:104DB00093E1FB790133544A13441B7803F09703C2
:104DC000002B23D0484B1B6841F2883118464BF02A
:104DD00090FAFA79FB7900931346444A4B494548C7
:104DE0006FF08AFA4348FBF785FA03469CB24148C4
:104DF000FBF780FA034622463E493F4847F022FA35
:104E0000394B1B6818464BF0BFFA66E1FB79182B4B
:104E100047D0182B00F38280062B02D0152B20D010
:104E20007CE0314B1B6841F2883118464BF061FA47
:104E30002E4A37492F486FF05FFA2E48FBF75AFA8F
:104E400003469CB22B48FBF755FA034622462949F4
:104E5000294847F0F7F9244B1B6818464BF094FAA1
:104E60003BE1214B1B6841F2883118464BF041FA77
:104E70001E4A28491F486FF03FFA1E48FBF73AFACE
:104E800003469CB21B48FBF735FA034622461949F4
:104E9000194847F0D7F9144B1B6818464BF074FAC1
:104EA0001BE1114B1B6841F2883118464BF021FA87
:104EB0000E4A19490F486FF01FFA0E48FBF71AFA0D
:104EC00003469CB20B48FBF715FA034622460949F4
:104ED000094847F0B7F9044B1B6818464BF054FAE1
:104EE000FBE000BF3C16012488D500248C2A08086A
:104EF00084810708DCD50024D0640024AC08012498
:104F00009C810708B4810708D0860808CC8107086F
:104F1000FC8107082082070844820708724B1B683F
:104F200041F2883118464BF0E4F9FB796F4A704939
:104F300070486FF0E1F96F48FBF7DCF903469CB26B
:104F40006C48FBF7D7F9034622466A496A4847F09E
:104F500079F9654B1B6818464BF016FABDE0FB79F2
:104F60000133664A13441B7803F09703002B23D0C8
:104F70005D4B1B6841F2883118464BF0BAF9FA795B
:104F8000FB7900931346594A5D495A486FF0B4F9CA
:104F90005848FBF7AFF903469CB25648FBF7AAF90D
:104FA000034622465349544847F04CF94E4B1B6880
:104FB00018464BF0E9F98AE0FB79182B46D0182BFC
:104FC00064DC062B02D0152B20D05FE0464B1B681B
:104FD00041F2883118464BF08CF9444A494945481A
:104FE0006FF08AF94348FBF785F903469CB24148C4
:104FF000FBF780F9034622463E493F4847F022F935
:10500000394B1B6818464BF0BFF960E0364B1B6804
:1050100041F2883118464BF06CF9344A3A49354828
:105020006FF06AF93348FBF765F903469CB23148E3
:10503000FBF760F9034622462E492F4847F002F954
:10504000294B1B6818464BF09FF940E0264B1B6824
:1050500041F2883118464BF04CF9244A2B49254837
:105060006FF04AF92348FBF745F903469CB2214803
:10507000FBF740F9034622461E491F4847F0E2F875
:10508000194B1B6818464BF07FF920E0164B1B6844
:1050900041F2883118464BF02CF9FB79134A144938
:1050A00014486FF029F91348FBF724F903469CB222
:1050B0001048FBF71FF9034622460E490E4847F0F9
:1050C000C1F8094B1B6818464BF05EF900BF104B46
:1050D00000221A700E4B00225A600E4B1B781846A5
:1050E0000C37BD4690BD00BF88D500248C2A080827
:1050F00068820708DCD50024D0640024D086080824
:10510000CC810708FC810708208207084482070831
:10511000AC0801243C16012490B583B000AF0346CF
:10512000FB71FB79012B4CD9514B1B6841F2883143
:1051300018464BF0DEF8FB794E4A4F494F486FF066
:10514000DBF84E48FBF7D6F803469CB24B48FBF71A
:10515000D1F8034622464949494847F073F8444B81
:105160001B6818464BF010F9414B1B6841F288311F
:1051700018464BF0BEF83F4A424940486FF0BCF831
:105180003E48FBF7B7F803469CB23C48FBF7B2F841
:105190000346224639493A4847F054F8344B1B68D5
:1051A00018464BF0F1F8384B00221A74364B0022A7
:1051B00083F8C820344B00221A72334B0022DA6085
:1051C00051E0FB79002B1FD1294B1B6841F288313C
:1051D00018464BF08EF8274A2C4928486FF08CF877
:1051E0002648FBF787F803469CB22448FBF782F871
:1051F000034622462149224847F024F81C4B1B68ED
:1052000018464BF0C1F81EE0194B1B6841F288317B
:1052100018464BF06EF8174A1D4918486FF06CF8A5
:105220001648FBF767F803469CB21448FBF762F890
:10523000034622461149124847F004F80C4B1B68FC
:1052400018464BF0A1F8104B03221A740E4BDB7C6E
:105250001A460D4B1344FA791A750B4BDB7C01335C
:10526000DAB2094BDA7400BF0C37BD4690BD00BFFF
:1052700088D50024A02A080894820708DCD50024D9
:10528000D0640024F0820708AC08012418830708C2
:105290003883070890B583B000AF0346FB71FB79F4
:1052A000013B032B00F28C8001A252F823F000BFD7
:1052B000C1520008815300084153000801530008FF
:1052C000524B1B6841F2883118464BF012F8504A95
:1052D000504951486FF010F84F48FBF70BF8034660
:1052E0009CB24D48FBF706F8034622464A494B4814
:1052F00046F0A8FF454B1B6818464BF045F880E088
:10530000424B1B6841F2883118464AF0F2FF404A8E
:10531000434941486EF0F0FF3F48FAF7EBFF034680
:105320009CB23D48FAF7E6FF034622463A493B481D
:1053300046F088FF354B1B6818464BF025F860E0B7
:10534000324B1B6841F2883118464AF0D2FF304A8E
:10535000344931486EF0D0FF2F48FAF7CBFF0346AF
:105360009CB22D48FAF7C6FF034622462A492B482D
:1053700046F068FF254B1B6818464BF005F840E0E7
:10538000224B1B6841F2883118464AF0B2FF204A8E
:10539000254921486EF0B0FF1F48FAF7ABFF0346DE
:1053A0009CB21D48FAF7A6FF034622461A491B483D
:1053B00046F048FF154B1B6818464AF0E5FF20E011
:1053C000124B1B6841F2883118464AF092FFFB7974
:1053D0000F4A164910486EF08FFF0F48FAF78AFF00
:1053E00003469CB20C48FAF785FF034622460A4959
:1053F0000A4846F027FF054B1B6818464AF0C4FFD1
:1054000000BF00BF0C37BD4690BD00BF88D500244B
:10541000B42A080858830708DCD50024D064002487
:1054200080830708B8830708D88307080084070823
:1054300090B583B000AF0346FB71FB79A12B00F35D
:105440004D81002B40F3CA84013BA02B00F2C6849F
:1054500001A252F823F000BFA5570008615A0008C6
:10546000E5560008255700081D5D00085D5D000831
:105470009D5D0008A15B0008215C0008DD5D00085F
:10548000DD5D0008DD5D0008DD5D0008DD5D000814
:10549000A5580008A15A0008E15A0008215B00083D
:1054A000615B0008DD5D0008615C0008E15B0008ED
:1054B000E5580008DD5C0008DD5D0008DD5D0008E2
:1054C000DD5D0008DD5D0008DD5D0008DD5D0008D4
:1054D000DD5D0008E1590008215A0008DD5D000883
:1054E000DD5D0008DD5D0008DD5D0008DD5D0008B4
:1054F000DD5D0008DD5D0008DD5D0008DD5D0008A4
:10550000DD5D0008DD5D0008DD5D0008DD5D000893
:10551000DD5D000825580008E5570008DD5D00083E
:10552000DD5D0008DD5D0008DD5D0008DD5D000873
:10553000DD5D0008DD5D0008DD5D0008DD5D000863
:10554000DD5D0008DD5D0008DD5D0008DD5D000853
:10555000DD5D000865570008DD5D0008DD5D0008C1
:10556000DD5D0008DD5D0008DD5D0008DD5D000833
:10557000DD5D0008DD5D0008DD5D0008DD5D000823
:10558000DD5D0008DD5D0008DD5D0008DD5D000813
:10559000DD5D000825590008DD5D0008DD5D0008BF
:1055A000DD5D0008DD5D0008DD5D0008DD5D0008F3
:1055B000DD5D0008DD5D0008DD5D0008DD5D0008E3
:1055C000DD5D0008DD5D0008DD5D0008DD5D0008D3
:1055D000DD5D0008DD5D0008DD5D0008DD5D0008C3
:1055E000DD5D0008DD5D0008DD5D0008DD5D0008B3
:1055F000DD5D0008DD5D0008DD5D0008DD5D0008A3
:10560000DD5D0008DD5D0008DD5D0008DD5D000892
:10561000DD5D0008DD5D0008DD5D0008DD5D000882
:10562000DD5D0008DD5D0008DD5D0008DD5D000872
:10563000DD5D0008DD5D0008DD5D0008DD5D000862
:10564000DD5D0008DD5D0008DD5D0008DD5D000852
:10565000DD5D0008DD5D0008DD5D0008DD5D000842
:10566000DD5D0008DD5D0008DD5D0008DD5D000832
:10567000DD5D0008DD5D0008DD5D0008DD5D000822
:10568000DD5D0008DD5D0008DD5D0008DD5D000812
:10569000DD5D0008DD5D0008DD5D0008DD5D000802
:1056A000DD5D0008DD5D0008DD5D0008DD5D0008F2
:1056B000DD5D0008DD5D0008DD5D0008DD5D0008E2
:1056C000DD5D0008DD5D0008DD5D0008DD5D0008D2
:1056D000DD5D0008DD5D000865590008FF2B00F066
:1056E000C1807BE3AF4B1B6841F2883118464AF01A
:1056F00000FEAD4AAD49AE486EF0FEFDAC48FAF78B
:10570000F9FD03469CB2AA48FAF7F4FD0346224687
:10571000A749A84846F096FDA24B1B6818464AF0D8
:1057200033FE7CE39F4B1B6841F2883118464AF0F8
:10573000E0FD9D4AA0499E486EF0DEFD9C48FAF7C8
:10574000D9FD03469CB29A48FAF7D4FD0346224697
:105750009749984846F076FD924B1B6818464AF0E8
:1057600013FE5CE38F4B1B6841F2883118464AF008
:10577000C0FD8D4A91498E486EF0BEFD8C48FAF707
:10578000B9FD03469CB28A48FAF7B4FD03462246A7
:105790008749884846F056FD824B1B6818464AF0F8
:1057A000F3FD3CE37F4B1B6841F2883118464AF019
:1057B000A0FD7D4A82497E486EF09EFD7C48FAF746
:1057C00099FD03469CB27A48FAF794FD03462246B7
:1057D0007749784846F036FD724B1B6818464AF008
:1057E000D3FD1CE36F4B1B6841F2883118464AF029
:1057F00080FD6D4A73496E486EF07EFD6C48FAF785
:1058000079FD03469CB26A48FAF774FD03462246C6
:105810006749684846F016FD624B1B6818464AF017
:10582000B3FDFCE25F4B1B6841F2883118464AF039
:1058300060FD5D4A64495E486EF05EFD5C48FAF7C3
:1058400059FD03469CB25A48FAF754FD03462246D6
:105850005749584846F0F6FC524B1B6818464AF028
:1058600093FDDCE24F4B1B6841F2883118464AF049
:1058700040FD4D4A55494E486EF03EFD4C48FAF702
:1058800039FD03469CB24A48FAF734FD03462246E6
:105890004749484846F0D6FC424B1B6818464AF038
:1058A00073FDBCE23F4B1B6841F2883118464AF059
:1058B00020FD3D4A46493E486EF01EFD3C48FAF741
:1058C00019FD03469CB23A48FAF714FD03462246F6
:1058D0003749384846F0B6FC324B1B6818464AF048
:1058E00053FD9CE22F4B1B6841F2883118464AF069
:1058F00000FD2D4A37492E486EF0FEFC2C48FAF781
:10590000F9FC03469CB22A48FAF7F4FC0346224607
:105910002749284846F096FC224B1B6818464AF057
:1059200033FD7CE21F4B1B6841F2883118464AF078
:10593000E0FC1D4A28491E486EF0DEFC1C48FAF7C0
:10594000D9FC03469CB21A48FAF7D4FC0346224617
:105950001749184846F076FC124B1B6818464AF067
:1059600013FD5CE20F4B1B6841F2883118464AF088
:10597000C0FC0D4A19490E486EF0BEFC0C48FAF7FF
:10598000B9FC03469CB20A48FAF7B4FC0346224627
:105990000749084846F056FC024B1B6818464AF077
:1059A000F3FC3CE288D50024D82A08083C84070888
:1059B000DCD50024D0640024588407086C840708D0
:1059C00084840708A0840708B0840708C8840708EF
:1059D000E484070800850708188507083485070848
:1059E000AF4B1B6841F2883118464AF082FCAD4A41
:1059F000AD49AE486EF080FCAC48FAF77BFC03463C
:105A00009CB2AA48FAF776FC03462246A749A84862
:105A100046F018FCA24B1B6818464AF0B5FCFEE1A4
:105A20009F4B1B6841F2883118464AF062FC9D4A40
:105A3000A0499E486EF060FC9C48FAF75BFC034668
:105A40009CB29A48FAF756FC034622469749984872
:105A500046F0F8FB924B1B6818464AF095FCDEE1D5
:105A60008F4B1B6841F2883118464AF042FC8D4A40
:105A700091498E486EF040FC8C48FAF73BFC034697
:105A80009CB28A48FAF736FC034622468749884882
:105A900046F0D8FB824B1B6818464AF075FCBEE105
:105AA0007F4B1B6841F2883118464AF022FC7D4A40
:105AB00082497E486EF020FC7C48FAF71BFC0346C6
:105AC0009CB27A48FAF716FC034622467749784892
:105AD00046F0B8FB724B1B6818464AF055FC9EE135
