:020000040800F2
:100000000000082415EC0008C9E80008D1E8000841
:10001000D9E80008E1E80008E9E80008000000006D
:10002000000000000000000000000000A18904089A
:10003000F1E8000800000000F18B0408097A0408C8
:1000400069EC000869EC000869EC000869EC00083C
:1000500069EC000869EC000869EC000869EC00082C
:10006000FFE8000869EC000869EC000869EC00088A
:1000700069EC000869EC000869EC000869EC00080C
:1000800069EC000869EC000869EC000869EC0008FC
:1000900069EC000869EC000869EC000869EC0008EC
:1000A00069EC000869EC000869EC000869EC0008DC
:1000B00069EC000869EC000869EC000869EC0008CC
:1000C00069EC000869EC000869EC000869EC0008BC
:1000D00069EC00080DE9000821E9000869EC000856
:1000E00069EC000869EC00080000000069EC0008F9
:1000F00069EC000869EC000869EC000869EC00088C
:1001000069EC000869EC000869EC000869EC00087B
:1001100069EC000869EC000835E9000869EC0008A2
:1001200069EC000869EC000869EC000869EC00085B
:1001300069EC000869EC000869EC000869EC00084B
:1001400069EC000869EC00080000000000000000F5
:1001500069EC000869EC000869EC000869EC00082B
:1001600069EC000869EC000869EC000869EC00081B
:1001700069EC000869EC000869EC00080000000068
:1001800069EC000869EC000869EC000869EC0008FB
:1001900069EC000869EC000869EC000869EC0008EB
:1001A00049E9000869EC00085DE9000869EC00080D
:1001B00071E9000869EC000869EC000869EC0008C6
:1001C00069EC000869EC000869EC000869EC0008BB
:1001D00069EC000869EC000869EC000869EC0008AB
:1001E00069EC000869EC000869EC000869EC00089B
:1001F00069EC000869EC000869EC000869EC00088B
:1002000069EC000869EC000869EC000869EC00087A
:1002100069EC000869EC000869EC000869EC00086A
:1002200069EC000885E9000899E900080000000071
:1002300069EC000869EC000869EC000869EC00084A
:1002400069EC000869EC000869EC000869EC00083A
:1002500069EC000869EC000869EC000869EC00082A
:1002600069EC000869EC000869EC000869EC00081A
:1002700069EC000869EC000869EC000869EC00080A
:1002800069EC000869EC000869EC00080000000057
:0802900069EC000869EC0008AC
:1002A00010B5054C237833B9044B13B10448AFF3B0
:1002B00000800123237010BDE05E002400000000D8
:1002C0006892060808B5034B1BB103490348AFF316
:1002D000008008BD00000000E45E0024689206086B
:1002E00010F8012B11F8013B012A28BF9A42F7D0E0
:1002F000D01A7047034613F8012B002AFBD1181AB5
:1003000001387047000000000000000000000000FD
:1003100001F0FF01102A2BDB10F0070F08D010F8B6
:10032000013B013A8B422DD010F0070F42B3F6D1BA
:10033000F0B441EA012141EA014122F007047FF0D3
:1003400000070023F0E80256083C85EA010586EA2A
:10035000010685FA47F5A3FA87F586FA47F6A5FA66
:1003600087F68EB9EED1F0BC01F0FF0102F0070272
:1003700032B110F8013B013A83EA010313B1F8D11D
:100380000020704701387047002D06BF35460338FE
:10039000073815F0010F07D1013015F4807F02BF37
:1003A000013015F4C03F0130F0BC0138704700BF88
:1003B00081F0004102E000BF83F0004330B54FEA16
:1003C00041044FEA430594EA050F08BF90EA020F83
:1003D0001FBF54EA000C55EA020C7FEA645C7FEA16
:1003E000655C00F0E2804FEA5454D4EB5555B8BF39
:1003F0006D420CDD2C4480EA020281EA030382EAAA
:10040000000083EA010180EA020281EA0303362D3B
:1004100088BF30BD11F0004F4FEA01314FF4801C0E
:100420004CEA113102D0404261EB410113F0004F20
:100430004FEA03334CEA133302D0524263EB4303D7
:1004400094EA050F00F0A780A4F10104D5F1200E75
:100450000DDB02FA0EFC22FA05F2801841F10001D0
:1004600003FA0EF2801843FA05F359410EE0A5F1A4
:1004700020050EF1200E012A03FA0EFC28BF4CF0D5
:10048000020C43FA05F3C01851EBE37101F000458B
:1004900007D54FF0000EDCF1000C7EEB00006EEB98
:1004A0000101B1F5801F1BD3B1F5001F0CD3490822
:1004B0005FEA30004FEA3C0C04F101044FEA445279
:1004C00012F5800F80F09A80BCF1004F08BF5FEA00
:1004D000500C50F1000041EB045141EA050130BDE0
:1004E0005FEA4C0C404141EB0101013C28BFB1F5F2
:1004F000801FE9D291F0000F04BF01460020B1FA3D
:1005000081F308BF2033A3F10B03B3F120020CDA0F
:100510000C3208DD02F1140CC2F10C0201FA0CF0ED
:1005200021FA02F10CE002F11402D8BFC2F1200C52
:1005300001FA02F120FA0CFCDCBF41EA0C01904008
:10054000E41AA2BF01EB0451294330BD6FEA040451
:100550001F3C1CDA0C340EDC04F11404C4F120023C
:1005600020FA04F001FA02F340EA030021FA04F34E
:1005700045EA030130BDC4F10C04C4F1200220FAA5
:1005800002F001FA04F340EA0300294630BD21FAE3
:1005900004F0294630BD94F0000F83F4801306BFA9
:1005A00081F480110134013D4EE77FEA645C18BF9D
:1005B0007FEA655C29D094EA050F08BF90EA020F34
:1005C00005D054EA000C04BF1946104630BD91EA2C
:1005D000030F1EBF0021002030BD5FEA545C05D12F
:1005E0004000494128BF41F0004130BD14F580046E
:1005F0003CBF01F5801130BD01F0004545F0FE41E2
:1006000041F470014FF0000030BD7FEA645C1ABF16
:10061000194610467FEA655C1CBF0B46024650EA4D
:10062000013406BF52EA033591EA030F41F4002179
:1006300030BD00BF90F0000F04BF0021704730B5FF
:100640004FF4806404F132044FF000054FF00001D4
:1006500050E700BF90F0000F04BF0021704730B595
:100660004FF4806404F1320410F0004548BF40426A
:100670004FF000013EE700BF42004FEAE2014FEABF
:1006800031014FEA02701FBF12F07F4393F07F4F9A
:1006900081F06051704732F07F4208BF704793F09D
:1006A0007F4F04BF41F40021704730B54FF46074B0
:1006B00001F0004521F000411CE700BF50EA0102B3
:1006C00008BF704730B54FF000050AE050EA01025C
:1006D00008BF704730B511F0004502D5404261EBCC
:1006E00041014FF4806404F132045FEA915C3FF40D
:1006F000D8AE4FF003025FEADC0C18BF03325FEAAA
:10070000DC0C18BF033202EBDC02C2F1200300FA5A
:1007100003FC20FA02F001FA03FE40EA0E0021FA7F
:1007200002F11444BDE600BF7BB972B90029BEBF17
:1007300000204FF0004106E008BF00281CBF6FF00A
:1007400000414FF0FF3000F0D3B9ADF1080C6DE976
:1007500004CE002909DB002B1ADB00F04DF8DDF890
:1007600004E0DDE9022304B07047404261EB41013F
:10077000002B1BDB00F040F8DDF804E0DDE902238C
:1007800004B0404261EB4101524263EB43037047C6
:10079000524263EB430300F02FF8DDF804E0DDE99B
:1007A000022304B0404261EB41017047524263EBC7
:1007B000430300F021F8DDF804E0DDE9022304B092
:1007C000524263EB4303704753B94AB9002908BF4B
:1007D00000281CBF4FF0FF314FF0FF3000F088B908
:1007E000ADF1080C6DE904CE00F006F8DDF804E088
:1007F000DDE9022304B070472DE9F047089D8E46DD
:1008000004468846002B4AD18A42174662D9B2FA7A
:1008100082F64EB1C6F1200301FA06F820FA03F37E
:10082000B74043EA0808B4404FEA174E1FFA87FC66
:10083000B8FBFEF1230C0EFB118843EA084301FBD1
:100840000CF29A4209D9FB1801F1FF3080F0EA80DE
:100850009A4240F2E78002393B449A1AA3B2B2FBB3
:10086000FEF00EFB102243EA024300FB0CFC9C4509
:1008700009D9FB1800F1FF3280F0D6809C4540F288
:10088000D3803B44023840EA0140A3EB0C03002133
:100890001DB1F3400022C5E90032BDE8F0878B426C
:1008A00005D90DB1C5E9000100210846F5E7B3FA05
:1008B00083F1002946D1734502D3824200F20581BB
:1008C000841A6EEB030201209046002DE5D0C5E9A5
:1008D0000048E2E7002A00F09080B2FA82F6002E8B
:1008E00040F0A4808A1A030C4FEA174E80B2BCB2C3
:1008F0000121B2FBFEFC0EFB1C2243EA024304FB77
:100900000CF29A4207D9FB180CF1FF3802D29A4236
:1009100000F2E080C4469B1AB3FBFEF20EFB1233DA
:1009200040EA034302FB04F49C4207D9FB1802F19E
:10093000FF3002D29C4200F2CA8002461B1B42EAF0
:100940000C40A5E7C1F120068B4022FA06F71F43B1
:100950000EFA01F420FA06F32EFA06FE4FEA1749C2
:10096000234300FA01F81FFA87FCBEFBF9F01C0CC8
:1009700009FB10EE44EA0E4400FB0CFEA64502FA09
:1009800001F209D93C1900F1FF3A80F09C80A6459C
:1009900040F2998002383C44A4EB0E041FFA83FE17
:1009A000B4FBF9F309FB13444EEA044403FB0CFCCB
:1009B000A44508D93C1903F1FF3E80F08280A4458C
:1009C0007FD9023B3C4443EA0040A4EB0C04A0FB6B
:1009D00002EC64457346E14662D35FD05DB1B8EB8B
:1009E000030264EB090404FA06F622FA01F31E433B
:1009F000CC40C5E9006400214FE7B1FBF2FC010CDB
:100A000041EA0E4180B240EA01423B4638463C464C
:100A1000B846BE462026B1FBF7F1A2EB080241EA38
:100A20000C4166E7014618E710462CE7C6F12002A4
:100A30002EFA02F3B740B14020FA02F24FEA174E05
:100A40000A43B3FBFEF8BCB20EFB1833110C41EAAB
:100A5000034108FB04F9B04089454FEA104380B2D6
:100A60003ED9791808F1FF3C01D289451FD8A1EB86
:100A70000901B1FBFEF909FB04F80EFB191192B252
:100A800042EA0142424529D2BA1809F1FF31C4D2E3
:100A90004245C2D2A9F102013A44BEE7F0459DD2D7
:100AA000BEEB02036CEB070C0138E14696E7A7EBBF
:100AB00009094944A8F1020CB1FBFEF909FB04F84D
:100AC000DBE773467FE7504666E70846FDE63B44B2
:100AD000023A33E7ACF1020C3B441CE749469CE781
:100AE000A1EB0901C446B1FBFEF909FB04F8C4E718
:100AF000704700BF80B584B000AF0CF0F9FE764BB4
:100B00005B6903F40033002B1BD1BFF34F8F00BF91
:100B1000BFF36F8F00BF704B0022C3F85022BFF3AA
:100B20004F8F00BFBFF36F8F00BF6B4B5B696A4A8B
:100B300043F400335361BFF34F8F00BFBFF36F8F98
:100B400000E000BF644B5B6903F48033002B38D1B5
:100B5000614B0022C3F88420BFF34F8F00BF5E4B70
:100B6000D3F88030FB60FB685B0BC3F30E03BB6004
:100B7000FB68DB08C3F309037B60BB685A0143F6DB
:100B8000E07313407A68920753491343C1F8603207
:100B90007B685A1E7A60002BEFD1BB685A1EBA6080
:100BA000002BE5D1BFF34F8F00BF4B4B5B694A4A27
:100BB00043F480335361BFF34F8F00BFBFF36F8F98
:100BC00000E000BF34F0A8FD00F0C6F800F0EAFB3A
:100BD00000F072FB00F090FB00F0D8F900F042F951
:100BE00000F062F900F0BEF900F054FA00F07AF972
:100BF00000F0CAFA00F07CFA0DF0A2FF00F0A0FAB3
:100C000000F00EFB0EF038F80EF02FF846F016FF4D
:100C1000324847F00AF80346314A1360314A02214C
:100C2000402047F02FFA03462F4A13602F4A022133
:100C3000402047F027FA03462D4A13602D4A012130
:100C40004FF4006047F01EFA03462B4A13602B4A0C
:100C500001214FF4807047F015FA0346284A1360CB
:100C6000284A0021284846F033FF0346274A1360EC
:100C7000274A0021274846F02BFF0346264A1360E7
:100C8000264A0021264846F023FF0346254A1360E2
:100C9000254A0021254846F01BFF0346244A1360DD
:100CA000244A0021244846F013FF0346234A1360D8
:100CB000234A0021234846F00BFF0346224A1360D3
:100CC000224A0021224846F003FF0346214A1360CE
:100CD00046F0D8FE00BFFDE700ED00E080240708E5
:100CE00054D500242024070804CA00243824070807
:100CF000D8CA002450240708ACCB00246824070875
:100D000000D4002424230708A1CB0008F8650024A0
:100D10004823070889EC0008A47600246C23070800
:100D2000B1D30008A87600249023070815D4000842
:100D300054870024B423070891D4000800980024A5
:100D4000D8230708F5D40008ACA80024FC23070822
:100D500059D5000858B9002480B59CB000AF07F100
:100D600024034C220021184665F0C1FF3B1D2022C0
:100D70000021184665F0BBFF04203BF0A9FF0023CB
:100D80003B60364BDB6A354A23F00103D362334BB9
:100D9000DB6A03F001033B60314B9B69304A43F44B
:100DA000404393612E4B9B6903F440433B603B6897
:100DB00000BF2B4B9B6903F40053B3F5005FF8D1E0
:100DC0000B237B624FF48033BB6201233B634023E0
:100DD0007B630123BB630223BB640223FB64052303
:100DE0003B65A0237B650223BB650423FB650223CF
:100DF0003B6608237B660023BB660023FB6607F186
:100E0000240318463DF048FA0346002B01D00CF0AD
:100E1000B9FD3F237B600323BB600023FB600823F5
:100E20003B6140237B614023BB614FF48063FB61E6
:100E300040233B623B1D022118463DF0DDFF034687
:100E4000002B01D00CF09EFD4FF4802200210020E9
:100E50003EF042FB00BF7037BD4680BD0004005825
:100E60000048025880B500AF0D4B0E4A1A600C4B7B
:100E700000221A710A4B00225A71094B00225A6152
:100E8000074B00229A61064B01221A62044834F093
:100E9000C9FF0346002B01D00CF074FD00BF80BDDC
:100EA000FC5E0024004C025880B500AF0B4B0C4A8E
:100EB0001A600A4B4FF440325A60084B02229A6083
:100EC000064B0022DA60054835F068FE0346002B29
:100ED00001D00CF057FD00BF80BD00BF205F002493
:100EE0000010005280B500AF1B4B1C4A1A601A4B11
:100EF0001B4A5A60184B00229A60174B0122DA6095
:100F0000154B00221A61144B00225A61124B002229
:100F10009A61114B0022DA610F4B00221A620E48CF
:100F200036F0AEFC0346002B01D00CF02BFD002167
:100F3000094837F029FB0346002B01D00CF022FDB5
:100F40000021054837F096FB0346002B01D00CF03A
:100F500019FD00BF80BD00BF885F0024001C005841
:100F6000B634900080B500AF064B074A1A600548BA
:100F700037F0F4FB0346002B01D00CF003FD00BF5B
:100F800080BD00BFDC5F00240030005280B58EB011
:100F900000AF0CF033FD3B1D34220021184665F0F4
:100FA000A6FE3A4B3A4A1A60384B00225A60374B39
:100FB00000229A60354B0022DA60344B00221A611D
:100FC000324B28225A61314B09229A612F4B35222C
:100FD000DA612E4B0B221A622C4B40F215225A6218
:100FE0002A4B40F21B129A62284B40F23522DA62F9
:100FF000264B40F21D121A63244B002283F8342042
:10100000224B002283F83520204B002283F8362023
:101010001E4839F0FBFB0346002B01D00CF0B2FC5C
:1010200000237B604FF4F073BB600023FB604FF440
:1010300088733B6102237B61FF23BB610023FB615B
:101040004FF480633B6205237B624FF05043BB62E9
:101050004FF4F073FB624FF488733B63002387F80F
:101060003430002387F83530002387F836303B1DB5
:1010700000221946054839F0A7FD0346002B01D090
:101080000CF080FC00BF3837BD4680BD0C610024E9
:101090000010005080B500AF124B134A1A60114B7C
:1010A00001225A600F4B01229A600E4B1022DA6027
:1010B0000C4B1A221A610B4B4FF400725A61094B08
:1010C00000229A61074B40221A6206483BF07CFEE0
:1010D0000346002B01D00CF055FC04480CF002FD37
:1010E00000BF80BDB46100240050005285D90008C3
:1010F00080B500AF104B114A1A600F4B00225A60A6
:101100000D4B7F229A600C4BFF22DA600A4B0022C3
:101110001A61094B00229A61074B0022DA61064BE3
:1011200000225A61044841F0E3FD0346002B01D040
:101130000CF028FC00BF80BD006200240040005875
:1011400080B500AF0E4B0F4A1A600D4B00225A605B
:101150000B4B00229A600A4B4FF40042DA60084BB6
:1011600000221A61064B00225A6105483AF018FE27
:101170000346002B01D00CF005FC00BF80BD00BF72
:10118000246200240070005280B500AF224B234A35
:101190001A60214B4FF4E1325A601F4B00229A60D3
:1011A0001D4B0022DA601C4B00221A611A4B0C22E4
:1011B0005A61194B00229A61174B0022DA61164BD3
:1011C00000221A62144B00225A62134B00229A62C8
:1011D000114842F08BFC0346002B01D00CF0D2FBEF
:1011E00000210D4845F06EFA0346002B01D00CF0AB
:1011F000C9FB0021084845F0FFFA0346002B01D047
:101200000CF0C0FB044845F0E3F90346002B01D085
:101210000CF0B8FB00BF80BD9C64002400100140AE
:1012200080B500AF224B234A1A60214B4FF4E132C4
:101230005A601F4B00229A601D4B0022DA601C4B43
:1012400000221A611A4B0C225A61194B00229A6132
:10125000174B0022DA61164B00221A62144B00224F
:101260005A62134B00229A62114842F03FFC034637
:10127000002B01D00CF086FB00210D4845F022FA2E
:101280000346002B01D00CF07DFB0021084845F0FF
:10129000B3FA0346002B01D00CF074FB044845F070
:1012A00097F90346002B01D00CF06CFB00BF80BD0A
:1012B000306500240044004080B582B000AF0D4B83
:1012C000D3F8D4300B4A43F00103C2F8D430094BB1
:1012D000D3F8D43003F001037B607B680022052142
:1012E0007A2034F097FB7A2034F0BEFB00BF083739
:1012F000BD4680BD0044025880B588B000AF3B1D9C
:1013000000221A605A609A60DA601A615A619A6122
:10131000214B224A1A60204B01225A601E4B0022A8
:101320009A601D4B0422DA601B4B10221A611A4B83
:1013300040225A61184B4FF480729A61164B00227A
:10134000DA61154B4FF400621A62134B4FF480526E
:101350005A62114B00229A6202237B600623BB6013
:101360000423FB6006233B6102237B610223BB61F4
:101370000223FB613B1D1946074841F01BFF034652
:10138000002B01D00CF0FEFA05480CF0CCFB00BF9E
:101390002037BD4680BD00BFC465002440410052D7
:1013A00085D9000880B590B000AF07F12C0300226A
:1013B0001A605A609A60DA601A61A04BD3F8E03084
:1013C0009E4A43F48063C2F8E0309C4BD3F8E0308F
:1013D00003F48063BB62BB6A984BD3F8E030974A52
:1013E00043F04003C2F8E030944BD3F8E03003F010
:1013F00040037B627B6A914BD3F8E0308F4A43F025
:101400000803C2F8E0308D4BD3F8E03003F0080356
:101410003B623B6A894BD3F8E030884A43F00403CF
:10142000C2F8E030854BD3F8E03003F00403FB61F1
:10143000FB69824BD3F8E030804A43F48073C2F8F2
:10144000E0307E4BD3F8E03003F48073BB61BB69BE
:101450007A4BD3F8E030794A43F01003C2F8E03019
:10146000764BD3F8E03003F010037B617B69734B5C
:10147000D3F8E030714A43F00203C2F8E0306F4B1A
:10148000D3F8E03003F002033B613B696B4BD3F8C8
:10149000E0306A4A43F40073C2F8E030674BD3F897
:1014A000E03003F40073FB60FB68644BD3F8E0307A
:1014B000624A43F00103C2F8E030604BD3F8E030F9
:1014C00003F00103BB60BB685C4BD3F8E0305B4AC0
:1014D00043F02003C2F8E030584BD3F8E03003F07B
:1014E00020037B607B68554BD3F8E030534A43F0D0
:1014F0008003C2F8E030514BD3F8E03003F08003B2
:101500003B603B68002208214D4836F051F901222A
:101510004FF400514B4836F04BF9002208214A485D
:1015200036F046F900224021484836F041F90122C0
:101530000421474836F03CF90823FB6201233B6352
:1015400000237B630023BB6307F12C0319463C484F
:1015500035F018FD4FF48073FB6202233B630023D8
:101560007B630023BB630023FB6307F12C03194655
:10157000364835F007FD4FF40053FB6201233B630F
:1015800000237B630023BB6307F12C0319462D481E
:1015900035F0F8FC0823FB6201233B6300237B63E7
:1015A0000323BB6307F12C031946274835F0EAFCF7
:1015B0000423FB624FF404133B6300237B6307F1B6
:1015C0002C031946204835F0DDFC4FF44063FB62E4
:1015D00002233B6301237B630323BB630723FB637A
:1015E00007F12C0319461B4835F0CCFC4023FB6265
:1015F00001233B6300237B630323BB6307F12C03BD
:101600001946124835F0BEFC0423FB6201233B63FC
:1016100000237B630023BB6307F12C0319460C48AE
:1016200035F0B0FC00220521082034F0F3F9082041
:1016300034F01AFA00BF4037BD4680BD004402585E
:10164000000C0258002002580018025800000258EE
:10165000002402580004025890B583B000AF04463D
:10166000084611461A462346FB710346BB710B46DA
:101670007B7113463B71FB796433114A5361BB792B
:10168000013B0F4A13617B790D4AD3603B790C4AC9
:1016900093603B7E0A4A53603B7F094A13600848C7
:1016A00065F044FC02460B460649C1E90023054BA0
:1016B000D3E90023134618460C37BD4690BD00BF42
:1016C000501101247811012490B583B000AF7860E7
:1016D000544B1B68184646F007FE03469AB2524B1D
:1016E0001A80514B1B88002B00F095804F4B1B68D4
:1016F00041F28831184646F01EFB4B4B1B884C4A82
:101700004C494D4865F08CFA4B48FEF7F3FD034613
:101710009CB24948FEF7EEFD03462246464947483B
:1017200042F0B2FA414B1B68184646F04FFB444B5F
:1017300000221A803CE03B4B1868002300224149FC
:1017400046F074FD0346404A13603F4B1B68002B74
:1017500020D0364B1B6841F28831184646F0EBFA30
:10176000394B1B68324A3949334865F059FA3248D7
:10177000FEF7C0FD03469CB22F48FEF7BBFD0346B3
:1017800022462D492D4842F07FFA284B1B68184607
:1017900046F01CFB2A4B1B881A467B681344294AD7
:1017A00012781A70264B1B8801339AB2244B1A8088
:1017B0001C4B1B68184646F097FD0346002B05D0CE
:1017C0001F4B1B8840F6FD729342B4D91C4B1A88FC
:1017D000154B1A80154B1B6841F28831184646F0AC
:1017E000AAFA114B1B88124A1949134865F018FAD6
:1017F0001148FEF77FFD03469CB20F48FEF77AFDC5
:10180000034622460C490D4842F03EFA074B1B683E
:10181000184646F0DBFA044B1B8818460C37BD46C9
:1018200090BD00BF00D400248011012454D50024B1
:101830009024070810930608A8D500249C6400246F
:10184000821101248411012488110124389306088F
:101850007093060890B583B000AF78607B681B6812
:101860002F4A934216D12F4B1A782F4B1A702F4BB9
:101870001868002300222C4946F078FC03462C4AC5
:101880001360012227492B4842F08CFA03461A467E
:10189000294B1A707B681B68284A93423BD1284B1E
:1018A0001A78284B1A70284B186800230022254903
:1018B00046F05CFC03461E4A13601D4B1B68002B60
:1018C00020D0224B1B6841F28831184646F033FA8B
:1018D000174B1B681E4A1F491F4865F0A1F91E4897
:1018E000FEF708FD03469CB21B48FEF703FD0346C6
:1018F000224619490F4842F0C7F9144B1B68184695
:1019000046F064FA01220E49144842F04BFA0346AD
:101910001A46094B1A7000BF0C37BD4690BD00BF78
:1019200000100140D5ED00248C11012400D40024C6
:10193000901101249C64002494110124004400406F
:10194000D4ED002495110124ACCB002454D50024FF
:10195000AC24070898930608A8D500243065002415
:1019600090B585B000AFF8607B600B467B81134675
:101970007B727D4B00221A805AE17B7A002B2AD0A1
:10198000794B1B8803F00F039BB2002B23D1774BBD
:101990001B6841F28831184646F0CDF9724B1B881E
:1019A0001A467B6813441A467149724865F038F943
:1019B0007048FEF79FFC03469CB26E48FEF79AFC07
:1019C000034622466B496C4842F05EF9674B1B6840
:1019D000184646F0FBF9654B1B6841F28831184602
:1019E00046F0A9F9604B1B881A46FB6813441B7824
:1019F0001A4662495F4865F013F95E48FEF77AFCC3
:101A000003469CB25B48FEF775FC034622465949E3
:101A1000594842F039F9554B1B68184646F0D6F93B
:101A2000524B1B6841F28831184646F084F95449FC
:101A3000504865F0F5F84F48FEF75CFC03469CB251
:101A40004C48FEF757FC034622464A494A4842F0B2
:101A50001BF9464B1B68184646F0B8F9424B1B88E9
:101A600003F00F039BB2072B1DD1404B1B6841F2C3
:101A70008831184646F05FF942493E4865F0D0F893
:101A80003C48FEF737FC03469CB23A48FEF732FC6E
:101A9000034622463749384842F0F6F8334B1B6874
:101AA000184646F093F9304B1B8803F00F039BB2A6
:101AB0000F2B40F0B7802D4B1B6841F28831184640
:101AC00046F039F92F492B4865F0AAF82948FEF766
:101AD00011FC03469CB22748FEF70CFC0346224645
:101AE0002449254842F0D0F8204B1B68184646F0A0
:101AF0006DF91D4B1B880F3B9AB2234B1A806DE08A
:101B0000214B1B881A46FB6813441B7801331F4A7C
:101B100013441B7803F09703002B3BD0134B1B6837
:101B200041F28831184646F006F9174B1B881A46D1
:101B3000FB6813441B781A4615490E4865F070F887
:101B40000C48FEF7D7FB03469CB20A48FEF7D2FBCF
:101B5000034622460749084842F096F8034B1B68A3
:101B6000184646F033F933E09611012454D5002489
:101B7000D0930608A8D500249C640024E4930608AA
:101B8000EC930608F093060898110124C059070841
:101B9000F8930608A84B1B6841F28831184646F0B6
:101BA000CAF8A649A64865F03BF8A548FEF7A2FB8F
:101BB00003469CB2A248FEF79DFB03462246A0497D
:101BC000A04842F061F89C4B1B68184646F0FEF8AE
:101BD0009D4B1B8801339AB29B4B1A809B4B1A88F2
:101BE000994B1B889A428BD2934B1B6841F28831E8
:101BF000184646F0A0F89649914865F011F89048CB
:101C0000FEF778FB03469CB28D48FEF773FB034654
:101C100022468B498B4842F037F8874B1B681846A1
:101C200046F0D4F8894B1B8801339AB2874B1A804F
:101C3000864B1B887A899A423FF69FAE7B8903F0D8
:101C40000F039BB2002B00F0D5807B8903F00F03BC
:101C50009AB27D4B1A8023E0774B1B6841F28831A2
:101C6000184646F068F87B49754864F0D9FF744817
:101C7000FEF740FB03469CB27148FEF73BFB034670
:101C800022466F496F4841F0FFFF6B4B1B681846B7
:101C900046F09CF86C4B1B8801339AB26A4B1A8051
:101CA000694B1B880F2BD7D97B8903F008039BB2A4
:101CB000002B1DD1604B1B6841F28831184646F05D
:101CC0003AF865495E4864F0ABFF5D48FEF712FBE9
:101CD00003469CB25A48FEF70DFB0346224658497C
:101CE000584841F0D1FF544B1B68184646F06EF837
:101CF000514B1B6841F28831184646F01CF8564992
:101D00004F4864F08DFF4E48FEF7F4FA03469CB24C
:101D10004B48FEF7EFFA034622464949494841F04D
:101D2000B3FF454B1B68184646F050F87B8923F0FB
:101D30000F039AB2444B1A8057E0434B1B881A4654
:101D4000FB6813441B780133444A13441B7803F0A7
:101D50009703002B25D0384B1B6841F28831184679
:101D600045F0E9FF384B1B881A46FB6813441B7883
:101D70001A463B49324864F053FF3148FEF7BAFA3D
:101D800003469CB22E48FEF7B5FA034622462C497C
:101D90002C4841F079FF284B1B68184646F016F88E
:101DA0001DE0254B1B6841F28831184645F0C3FF02
:101DB0002249234864F034FF2148FEF79BFA03468A
:101DC0009CB21F48FEF796FA034622461C491D485E
:101DD00041F05AFF184B1B68184645F0F7FF1A4BA5
:101DE0001B8801339AB2184B1A80174B1B887A89CB
:101DF0009A42A2D8104B1B6841F28831184645F030
:101E00009AFF13490E4864F00BFF0D48FEF772FA73
:101E100003469CB20A48FEF76DFA0346224608497B
:101E2000084841F031FF044B1B68184645F0CEFFCF
:101E300000BF1437BD4690BD54D50024FC9306085E
:101E4000A8D500249C640024981101249611012433
:101E50000094060804940608F0930608C059070881
:101E6000F893060890B583B002AF654B1B684FF43A
:101E70007A71184645F05FFF6249634864F0D0FE0E
:101E80006148FEF737FA03469CB25F48FEF732FA24
:101E9000034622465C495D4841F0F6FE59495A48DE
:101EA00064F0BEFE5848FEF725FA03469CB2564839
:101EB000FEF720FA034622465349544841F0E4FE17
:101EC0005049514864F0ACFE4F48FEF713FA034600
:101ED0009CB24D48FEF70EFA034622464A494B484B
:101EE00041F0D2FE4A49484864F09AFE4648FEF75F
:101EF00001FA03469CB24448FEF7FCF90346224629
:101F00004149424841F0C0FE42493F4864F088FEE2
:101F10003D48FEF7EFF903469CB23B48FEF7EAF96D
:101F2000034622463849394841F0AEFE3A49364820
:101F300064F076FE3448FEF7DDF903469CB2324881
:101F4000FEF7D8F9034622462F49304841F09CFE5F
:101F500041230193314B0093314B314A31492A4897
:101F600064F05EFE2848FEF7C5F903469CB2264899
:101F7000FEF7C0F9034622462349244841F084FE77
:101F8000294A2A49204864F04BFE1F48FEF7B2F95F
:101F900003469CB21C48FEF7ADF9034622461A4997
:101FA0001A4841F071FE2249174864F039FE16487C
:101FB000FEF7A0F903469CB21348FEF79BF90346CF
:101FC00022461149114841F05FFE12490E4864F063
:101FD00027FE0D48FEF78EF903469CB20A48FEF72D
:101FE00089F9034622460849084841F04DFE044B52
:101FF0001B68184645F0EAFE00BF0437BD4690BD99
:1020000054D5002408940608A8D500249C64002414
:10201000349406083C940608849406080095060843
:10202000CC940608D0940608049506081095060876
:102030003895060890B585B000AF03460A46FB7197
:102040001346BB714D4B1B6841F28831184645F071
:1020500072FEFB794A4A4B494B4864F0E1FD4A481D
:10206000FEF748F903469CB24748FEF743F903469A
:1020700022464549454841F007FE404B1B6818463B
:1020800045F0A4FE424B00221A72414B0022DA6056
:102090003F4B002283F8C8203E4B00221A703E4B73
:1020A00018221A70BB79002B1BD03C4B01333B4AE2
:1020B00052781946FF200AF051FD0346FB73FA7966
:1020C000FB7B9A4201D1012200E00322314B1A70BE
:1020D000FA79FB7B9A4201D1062200E015222E4BB1
:1020E0001A70264B1B6841F28831184645F023FED2
:1020F0002B49254864F094FD2348FEF7FBF803467E
:102100009CB22148FEF7F6F8034622461E491F48B6
:1021100041F0BAFD194B1B68184645F057FE1C4BA1
:10212000DB7C1946002300221C48FFF719FC134BE7
:102130001B6841F28831184645F0FDFD19491248E7
:1021400064F06EFD1048FEF7D5F803469CB20E48C9
:10215000FEF7D0F8034622460B490C4841F094FDA7
:10216000064B1B68184645F031FE094B00221A74D5
:10217000084B1B7818461437BD4690BD54D5002433
:10218000C424070874970608A8D500249C6400247A
:10219000700801249A1101249B1101248408012450
:1021A00094970608F497060880B483B000AF0346FE
:1021B000FB71144BDB7C1A46124B1344FA791A75E7
:1021C000104BDB7C0133DAB20E4BDA740E4B5B78CA
:1021D000032B0AD90C4B5B78033BDAB2094B83F82B
:1021E000C920084B04221A7406E0064B012283F82A
:1021F000C920044B05221A7400BF0C37BD465DF898
:10220000047B7047700801248408012480B483B0E3
:1022100000AF0346FB71144B93F8C930013BDAB2AF
:10222000114B83F8C920104BDB7C1A460E4B13442C
:10223000FA791A750C4BDB7C0133DAB20A4BDA748B
:10224000094BDB7CB32B05D8074BDA7C074B5B785B
:102250009A4202D9044B05221A7400BF0C37BD46BE
:102260005DF8047B704700BF7008012484080124D6
:1022700098B500AF194B1B6841F28831184645F0FC
:102280005AFD174A1749184864F0CAFC1648FEF769
:1022900031F803469CB21448FEF72CF80346224658
:1022A0001149124841F0F0FC0C4B1B68184645F0F0
:1022B0008DFD0F4B00221A740D4B002283F8C820AD
:1022C0000B4B00221A700A4B00221A72084B002294
:1022D0005A60074B0022DA6000BF98BD54D5002435
:1022E000DC24070854980608A8D500249C64002420
:1022F0007008012490B583B000AF0346FB71FB79F1
:10230000022B02D9FB79B42B2DD9214B1B6841F24A
:102310008831184645F00FFDFB791E4A1E491F48BB
:1023200064F07EFC1D48FDF7E5FF03469CB21B48A8
:10233000FDF7E0FF034622461849194841F0A4FC86
:10234000134B1B68184645F041FD164B00221A74CA
:10235000144B002283F8C820124B00221A72114B32
:102360000022DA6010E00F4B02221A740D4BDB7C66
:102370001A460C4B1344FA791A750A4BDB7C01336D
:10238000DAB2084BDA7400BF00BF0C37BD4690BD0F
:1023900054D50024F424070870980608A8D5002412
:1023A0009C6400247008012490B585B002AF0346F8
:1023B000FB719F4B00221A70FB79012B39D19D4B89
:1023C0001B6841F28831184645F0B5FC9A4A9B4992
:1023D0009B4864F025FC9A48FDF78CFF03469CB2AD
:1023E0009748FDF787FF034622469549954841F0F7
:1023F0004BFC904B1B68184645F0E8FC924B0122C1
:102400001A74914B0022DA748F4B012283F8C82092
:102410008D4BDB7C1A468C4B1344FA791A758A4B28
:10242000DB7C0133DAB2884BDA74874B00221A72F4
:10243000F9E1854B9B7C002B00F03781FB79062B63
:1024400002D0FB79152B0ED17F4B00229A747E4B64
:1024500000221A707C4B00221A727B4B00225A60B9
:10246000794B0022DA60FB79062B22D1714B1B6875
:1024700041F28831184645F05EFC6F4A7349704856
:1024800064F0CEFB6E48FDF735FF03469CB26C4806
:10249000FDF730FF0346224669496A4841F0F4FBE4
:1024A000644B1B68184645F091FC614B02221A7080
:1024B000B9E1FB79152B22D15E4B1B6841F28831C3
:1024C000184645F038FC5C4A61495D4864F0A8FB59
:1024D0005B48FDF70FFF03469CB25948FDF70AFF22
:1024E000034622465649574841F0CEFB514B1B68E4
:1024F000184645F06BFC4E4B05221A7093E1FB79B0
:102500000133544A13441B7803F09703002B23D064
:10251000484B1B6841F28831184645F00CFCFA79AB
:10252000FB7900931346444A4B49454864F078FBD5
:102530004348FDF7DFFE03469CB24148FDF7DAFE53
:10254000034622463E493F4841F09EFB394B1B68FB
:10255000184645F03BFC66E1FB79182B47D0182B59
:1025600000F38280062B02D0152B20D07CE0314B6B
:102570001B6841F28831184645F0DDFB2E4A374989
:102580002F4864F04DFB2E48FDF7B4FE03469CB285
:102590002B48FDF7AFFE034622462949294841F062
:1025A00073FB244B1B68184645F010FC3BE1214BA4
:1025B0001B6841F28831184645F0BDFB1E4A284988
:1025C0001F4864F02DFB1E48FDF794FE03469CB2A5
:1025D0001B48FDF78FFE034622461949194841F072
:1025E00053FB144B1B68184645F0F0FB1BE1114BE5
:1025F0001B6841F28831184645F09DFB0E4A194987
:102600000F4864F00DFB0E48FDF774FE03469CB2C4
:102610000B48FDF76FFE034622460949094841F081
:1026200033FB044B1B68184645F0D0FBFBE000BFB2
:102630009C11012454D5002408250708A4980608F5
:10264000A8D500249C64002470080124BC980608C6
:10265000D4980608C0590708EC9806081C99060883
:102660004099060864990608724B1B6841F288314C
:10267000184645F060FBFB796F4A7049704864F07A
:10268000CFFA6F48FDF736FE03469CB26C48FDF763
:1026900031FE034622466A496A4841F0F5FA654B25
:1026A0001B68184645F092FBBDE0FB790133664A92
:1026B00013441B7803F09703002B23D05D4B1B685A
:1026C00041F28831184645F036FBFA79FB790093E0
:1026D0001346594A5D495A4864F0A2FA5848FDF732
:1026E00009FE03469CB25648FDF704FE0346224607
:1026F0005349544841F0C8FA4E4B1B68184645F000
:1027000065FB8AE0FB79182B46D0182B64DC062B7E
:1027100002D0152B20D05FE0464B1B6841F2883178
:10272000184645F008FB444A4949454864F078FAA0
:102730004348FDF7DFFD03469CB24148FDF7DAFD53
:10274000034622463E493F4841F09EFA394B1B68FA
:10275000184645F03BFB60E0364B1B6841F2883180
:10276000184645F0E8FA344A3A49354864F058FAD0
:102770003348FDF7BFFD03469CB23148FDF7BAFD73
:10278000034622462E492F4841F07EFA294B1B680A
:10279000184645F01BFB40E0264B1B6841F2883190
:1027A000184645F0C8FA244A2B49254864F038FAFF
:1027B0002348FDF79FFD03469CB22148FDF79AFD93
:1027C000034622461E491F4841F05EFA194B1B681A
:1027D000184645F0FBFA20E0164B1B6841F28831A1
:1027E000184645F0A8FAFB79134A1449144864F0D6
:1027F00017FA1348FDF77EFD03469CB21048FDF71B
:1028000079FD034622460E490E4841F03DFA094B38
:102810001B68184645F0DAFA00BF104B00221A7008
:102820000E4B00225A600E4B1B7818460C37BD46E3
:1028300090BD00BF54D500240825070888990608D4
:10284000A8D500249C640024C0590708EC98060809
:102850001C99060840990608649906087008012426
:102860009C11012490B583B000AF0346FB71FB7946
:10287000012B4CD9514B1B6841F28831184645F069
:102880005AFAFB794E4A4F494F4864F0C9F94E480D
:10289000FDF730FD03469CB24B48FDF72BFD034688
:1028A00022464949494841F0EFF9444B1B68184614
:1028B00045F08CFA414B1B6841F28831184645F0CF
:1028C0003AFA3F4A4249404864F0AAF93E48FDF7C7
:1028D00011FD03469CB23C48FDF70CFD0346224621
:1028E00039493A4841F0D0F9344B1B68184645F055
:1028F0006DFA384B00221A74364B002283F8C82038
:10290000344B00221A72334B0022DA6051E0FB791B
:10291000002B1FD1294B1B6841F28831184645F026
:102920000AFA274A2C49284864F07AF92648FDF724
:10293000E1FC03469CB22448FDF7DCFC034622463A
:102940002149224841F0A0F91C4B1B68184645F06C
:102950003DFA1EE0194B1B6841F28831184645F0DC
:10296000EAF9174A1D49184864F05AF91648FDF764
:10297000C1FC03469CB21448FDF7BCFC034622464A
:102980001149124841F080F90C4B1B68184645F07C
:102990001DFA104B03221A740E4BDB7C1A460D4BAA
:1029A0001344FA791A750B4BDB7C0133DAB2094B0D
:1029B000DA7400BF0C37BD4690BD00BF54D500246B
:1029C0001C250708B4990608A8D500249C64002497
:1029D000109A060870080124389A0608589A0608C2
:1029E00090B583B000AF0346FB71FB79013B032B2D
:1029F00000F28C8001A252F823F000BF0D2A0008DB
:102A0000CD2A00088D2A00084D2A0008524B1B6869
:102A100041F28831184645F08EF9504A50495148E4
:102A200064F0FEF84F48FDF765FC03469CB24D4844
:102A3000FDF760FC034622464A494B4841F024F921
:102A4000454B1B68184645F0C1F980E0424B1B68B6
:102A500041F28831184645F06EF9404A43494148F1
:102A600064F0DEF83F48FDF745FC03469CB23D4864
:102A7000FDF740FC034622463A493B4841F004F941
:102A8000354B1B68184645F0A1F960E0324B1B68D6
:102A900041F28831184645F04EF9304A3449314800
:102AA00064F0BEF82F48FDF725FC03469CB22D4884
:102AB000FDF720FC034622462A492B4841F0E4F862
:102AC000254B1B68184645F081F940E0224B1B68F6
:102AD00041F28831184645F02EF9204A254921480F
:102AE00064F09EF81F48FDF705FC03469CB21D48A4
:102AF000FDF700FC034622461A491B4841F0C4F882
:102B0000154B1B68184645F061F920E0124B1B6815
:102B100041F28831184645F00EF9FB790F4A164903
:102B2000104864F07DF80F48FDF7E4FB03469CB2C3
:102B30000C48FDF7DFFB034622460A490A4841F0EC
:102B4000A3F8054B1B68184645F040F900BF00BFCD
:102B50000C37BD4690BD00BF54D500243025070872
:102B6000789A0608A8D500249C640024A09A060838
:102B7000D89A0608F89A0608209B060890B583B0F4
:102B800000AF0346FB71FB79A12B00F34D81002BB5
:102B900040F3CA84013BA02B00F2C68401A252F884
:102BA00023F000BFF12E0008AD310008312E0008DF
:102BB000712E000869340008A9340008E9340008BF
:102BC000ED3200086D33000829350008293500086A
:102BD000293500082935000829350008F12F00089B
:102BE000ED3100082D3200086D320008AD320008CA
:102BF00029350008AD3300082D33000831300008B6
:102C0000293400082935000829350008293500082D
:102C1000293500082935000829350008293500081C
:102C20002D3100086D3100082935000829350008CC
:102C300029350008293500082935000829350008FC
:102C400029350008293500082935000829350008EC
:102C500029350008293500082935000829350008DC
:102C6000712F0008312F0008293500082935000888
:102C700029350008293500082935000829350008BC
:102C800029350008293500082935000829350008AC
:102C9000293500082935000829350008293500089C
:102CA000B12E00082935000829350008293500080B
:102CB000293500082935000829350008293500087C
:102CC000293500082935000829350008293500086C
:102CD000293500082935000829350008293500085C
:102CE0007130000829350008293500082935000809
:102CF000293500082935000829350008293500083C
:102D0000293500082935000829350008293500082B
:102D1000293500082935000829350008293500081B
:102D2000293500082935000829350008293500080B
:102D300029350008293500082935000829350008FB
:102D400029350008293500082935000829350008EB
:102D500029350008293500082935000829350008DB
:102D600029350008293500082935000829350008CB
:102D700029350008293500082935000829350008BB
:102D800029350008293500082935000829350008AB
:102D9000293500082935000829350008293500089B
:102DA000293500082935000829350008293500088B
:102DB000293500082935000829350008293500087B
:102DC000293500082935000829350008293500086B
:102DD000293500082935000829350008293500085B
:102DE000293500082935000829350008293500084B
:102DF000293500082935000829350008293500083B
:102E0000293500082935000829350008293500082A
:102E1000293500082935000829350008293500081A
:102E200029350008B1300008FF2B00F0C1807BE39A
:102E3000AF4B1B6841F28831184644F07CFFAD4A25
:102E4000AD49AE4863F0ECFEAC48FDF753FA0346DB
:102E50009CB2AA48FDF74EFA03462246A749A84865
:102E600040F012FFA24B1B68184644F0AFFF7CE312
:102E70009F4B1B6841F28831184644F05CFF9D4A25
:102E8000A0499E4863F0CCFE9C48FDF733FA034608
:102E90009CB29A48FDF72EFA034622469749984875
:102EA00040F0F2FE924B1B68184644F08FFF5CE343
:102EB0008F4B1B6841F28831184644F03CFF8D4A25
:102EC00091498E4863F0ACFE8C48FDF713FA034637
:102ED0009CB28A48FDF70EFA034622468749884885
:102EE00040F0D2FE824B1B68184644F06FFF3CE373
:102EF0007F4B1B6841F28831184644F01CFF7D4A25
:102F000082497E4863F08CFE7C48FDF7F3F9034666
:102F10009CB27A48FDF7EEF9034622467749784895
:102F200040F0B2FE724B1B68184644F04FFF1CE3A2
:102F30006F4B1B6841F28831184644F0FCFE6D4A25
:102F400073496E4863F06CFE6C48FDF7D3F9034695
:102F50009CB26A48FDF7CEF90346224667496848A5
:102F600040F092FE624B1B68184644F02FFFFCE2D3
:102F70005F4B1B6841F28831184644F0DCFE5D4A25
:102F800064495E4863F04CFE5C48FDF7B3F90346C4
:102F90009CB25A48FDF7AEF90346224657495848B5
:102FA00040F072FE524B1B68184644F00FFFDCE203
:102FB0004F4B1B6841F28831184644F0BCFE4D4A25
:102FC00055494E4863F02CFE4C48FDF793F90346F3
:102FD0009CB24A48FDF78EF90346224647494848C5
:102FE00040F052FE424B1B68184644F0EFFEBCE234
:102FF0003F4B1B6841F28831184644F09CFE3D4A25
:1030000046493E4863F00CFE3C48FDF773F9034621
:103010009CB23A48FDF76EF90346224637493848D4
:1030200040F032FE324B1B68184644F0CFFE9CE263
:103030002F4B1B6841F28831184644F07CFE2D4A24
:1030400037492E4863F0ECFD2C48FDF753F9034651
:103050009CB22A48FDF74EF90346224627492848E4
:1030600040F012FE224B1B68184644F0AFFE7CE293
:103070001F4B1B6841F28831184644F05CFE1D4A24
:1030800028491E4863F0CCFD1C48FDF733F9034680
:103090009CB21A48FDF72EF90346224617491848F4
:1030A00040F0F2FD124B1B68184644F08FFE5CE2C4
:1030B0000F4B1B6841F28831184644F03CFE0D4A24
:1030C00019490E4863F0ACFD0C48FDF713F90346AF
:1030D0009CB20A48FDF70EF9034622460749084804
:1030E00040F0D2FD024B1B68184644F06FFE3CE2F4
:1030F00054D50024542507085C9B0608A8D5002455
:103100009C640024789B06088C9B0608A49B0608F8
:10311000C09B0608D09B0608E89B0608049C06088E
:10312000209C0608389C0608549C0608AF4B1B6878
:1031300041F28831184644F0FEFDAD4AAD49AE4833
:1031400063F06EFDAC48FDF7D5F803469CB2AA4883
:10315000FDF7D0F803462246A749A84840F094FD61
:10316000A24B1B68184644F031FEFEE19F4B1B68E2
:1031700041F28831184644F0DEFD9D4AA0499E4840
:1031800063F04EFD9C48FDF7B5F803469CB29A48A3
:10319000FDF7B0F8034622469749984840F074FD81
:1031A000924B1B68184644F011FEDEE18F4B1B6802
:1031B00041F28831184644F0BEFD8D4A91498E484F
:1031C00063F02EFD8C48FDF795F803469CB28A48C3
:1031D000FDF790F8034622468749884840F054FDA1
:1031E000824B1B68184644F0F1FDBEE17F4B1B6823
:1031F00041F28831184644F09EFD7D4A82497E485E
:1032000063F00EFD7C48FDF775F803469CB27A48E2
:10321000FDF770F8034622467749784840F034FDC0
:10322000724B1B68184644F0D1FD9EE16F4B1B6842
:1032300041F28831184644F07EFD6D4A73496E486C
:1032400063F0EEFC6C48FDF755F803469CB26A4803
:10325000FDF750F8034622466749684840F014FDE0
:10326000624B1B68184644F0B1FD7EE15F4B1B6862
:1032700041F28831184644F05EFD5D4A64495E487B
:1032800063F0CEFC5C48FDF735F803469CB25A4823
:10329000FDF730F8034622465749584840F0F4FC01
:1032A000524B1B68184644F091FD5EE14F4B1B6882
:1032B00041F28831184644F03EFD4D4A55494E488A
:1032C00063F0AEFC4C48FDF715F803469CB24A4843
:1032D000FDF710F8034622464749484840F0D4FC21
:1032E000424B1B68184644F071FD3EE13F4B1B68A2
:1032F00041F28831184644F01EFD3D4A46493E4899
:1033000063F08EFC3C48FCF7F5FF03469CB23A485C
:10331000FCF7F0FF034622463749384840F0B4FC3A
:10332000324B1B68184644F051FD1EE12F4B1B68C1
:1033300041F28831184644F0FEFC2D4A37492E48A8
:1033400063F06EFC2C48FCF7D5FF03469CB22A487C
:10335000FCF7D0FF034622462749284840F094FC5A
:10336000224B1B68184644F031FDFEE01F4B1B68E2
:1033700041F28831184644F0DEFC1D4A28491E48B7
:1033800063F04EFC1C48FCF7B5FF03469CB21A489C
:10339000FCF7B0FF034622461749184840F074FC7A
:1033A000124B1B68184644F011FDDEE00F4B1B6802
:1033B00041F28831184644F0BEFC0D4A19490E48C6
:1033C00063F02EFC0C48FCF795FF03469CB20A48BC
:1033D000FCF790FF034622460749084840F054FC9A
:1033E000024B1B68184644F0F1FCBEE054D50024A3
:1033F000542507086C9C0608A8D500249C6400246A
:10340000849C0608A09C0608BC9C0608D49C060860
:10341000F09C0608089D0608209D0608349D0608B5
:103420004C9D0608689D0608524B1B6841F2883186
:10343000184644F080FC504A5049514863F0F0FB74
:103440004F48FCF757FF03469CB24D48FCF752FF2C
:10345000034622464A494B4840F016FC454B1B6840
:10346000184644F0B3FC80E0424B1B6841F28831BF
:10347000184644F060FC404A4349414863F0D0FBA1
:103480003F48FCF737FF03469CB23D48FCF732FF4C
:10349000034622463A493B4840F0F6FB354B1B6851
:1034A000184644F093FC60E0324B1B6841F28831CF
:1034B000184644F040FC304A3449314863F0B0FBD0
:1034C0002F48FCF717FF03469CB22D48FCF712FF6C
:1034D000034622462A492B4840F0D6FB254B1B6861
:1034E000184644F073FC40E0224B1B6841F28831DF
:1034F000184644F020FC204A2549214863F090FBFF
:103500001F48FCF7F7FE03469CB21D48FCF7F2FE8D
:10351000034622461A491B4840F0B6FB154B1B6870
:10352000184644F053FC20E0124B1B6841F28831EE
:10353000184644F000FCFB790F4A1649104863F026
:103540006FFB0F48FCF7D6FE03469CB20C48FCF715
:10355000D1FE034622460A490A4840F095FB054B36
:103560001B68184644F032FC00BF00BF0C37BD4654
:1035700090BD00BF54D50024542507087C9D060843
:10358000A8D500249C640024989D0608B49D0608D4
:10359000C89D0608E89D060890B583B000AF0346B5
:1035A0000A46FB711346BB71FB79402B40F0B48196
:1035B000BB79013B0A2B00F28F8101A252F823F064
:1035C000ED3500082D3600086D360008AD360008D0
:1035D000ED3600082D3700086D370008AD370008BC
:1035E000ED3700082D3800086D380008AF4B1B6818
:1035F00041F28831184644F09EFBAD4AAD49AE48D1
:1036000063F00EFBAC48FCF775FE03469CB2AA487B
:10361000FCF770FE03462246A749A84840F034FB59
:10362000A24B1B68184644F0D1FB75E19F4B1B6809
:1036300041F28831184644F07EFB9D4AA0499E48DD
:1036400063F0EEFA9C48FCF755FE03469CB29A489C
:10365000FCF750FE034622469749984840F014FB79
:10366000924B1B68184644F0B1FB55E18F4B1B6829
:1036700041F28831184644F05EFB8D4A91498E48EC
:1036800063F0CEFA8C48FCF735FE03469CB28A48BC
:10369000FCF730FE034622468749884840F0F4FA9A
:1036A000824B1B68184644F091FB35E17F4B1B6849
:1036B00041F28831184644F03EFB7D4A82497E48FB
:1036C00063F0AEFA7C48FCF715FE03469CB27A48DC
:1036D000FCF710FE034622467749784840F0D4FABA
:1036E000724B1B68184644F071FB15E16F4B1B6869
:1036F00041F28831184644F01EFB6D4A73496E480A
:1037000063F08EFA6C48FCF7F5FD03469CB26A48FC
:10371000FCF7F0FD034622466749684840F0B4FADA
:10372000624B1B68184644F051FBF5E05F4B1B6889
:1037300041F28831184644F0FEFA5D4A63495E481A
:1037400063F06EFA5C48FCF7D5FD03469CB25A481C
:10375000FCF7D0FD034622465749584840F094FAFA
:10376000524B1B68184644F031FBD5E04F4B1B68A9
:1037700041F28831184644F0DEFA4D4A53494E482A
:1037800063F04EFA4C48FCF7B5FD03469CB24A483C
:10379000FCF7B0FD034622464749484840F074FA1A
:1037A000424B1B68184644F011FBB5E03F4B1B68C9
:1037B00041F28831184644F0BEFA3D4A43493E483A
:1037C00063F02EFA3C48FCF795FD03469CB23A485C
:1037D000FCF790FD034622463749384840F054FA3A
:1037E000324B1B68184644F0F1FA95E02F4B1B68EA
:1037F00041F28831184644F09EFA2D4A33492E484A
:1038000063F00EFA2C48FCF775FD03469CB22A487B
:10381000FCF770FD034622462749284840F034FA59
:10382000224B1B68184644F0D1FA75E01F4B1B6809
:1038300041F28831184644F07EFA1D4A24491E4858
:1038400063F0EEF91C48FCF755FD03469CB21A489C
:10385000FCF750FD034622461749184840F014FA79
:10386000124B1B68184644F0B1FA55E00F4B1B6829
:1038700041F28831184644F05EFA0D4A15490E4867
:1038800063F0CEF90C48FCF735FD03469CB20A48BC
:10389000FCF730FD034622460749084840F0F4F99A
:1038A000024B1B68184644F091FA35E054D50024C9
:1038B00078250708249E0608A8D500249C640024C7
:1038C000389E0608549E0608849E0608B89E060880
:1038D000E89E0608109F0608B24B1B6841F288312B
:1038E000184644F028FAB04AB049B14863F098F954
:1038F000AF48FCF7FFFC03469CB2AD48FCF7FAFC6E
:1039000003462246AA49AB4840F0BEF9A54B1B68C6
:10391000184644F05BFA00BFFB79012B40F0D480DD
:10392000BB79013B052B00F2AF8001A252F823F0D6
:103930004939000889390008C9390008093A0008DE
:10394000893A0008493A0008964B1B6841F28831D1
:10395000184644F0F0F9944A9749954863F060F9A5
:103960009348FCF7C7FC03469CB29148FCF7C2FCA5
:10397000034622468E498F4840F086F9894B1B68E2
:10398000184644F023FA9FE0864B1B6841F28831C9
:10399000184644F0D0F9844A8849854863F040F9D4
:1039A0008348FCF7A7FC03469CB28148FCF7A2FCC5
:1039B000034622467E497F4840F066F9794B1B68F2
:1039C000184644F003FA7FE0764B1B6841F28831D9
:1039D000184644F0B0F9744A7949754863F020F903
:1039E0007348FCF787FC03469CB27148FCF782FCE5
:1039F000034622466E496F4840F046F9694B1B6802
:103A0000184644F0E3F95FE0664B1B6841F28831E9
:103A1000184644F090F9644A6A49654863F000F931
:103A20006348FCF767FC03469CB26148FCF762FC04
:103A3000034622465E495F4840F026F9594B1B6811
:103A4000184644F0C3F93FE0564B1B6841F28831F9
:103A5000184644F070F9544A5B49554863F0E0F861
:103A60005348FCF747FC03469CB25148FCF742FC24
:103A7000034622464E494F4840F006F9494B1B6821
:103A8000184644F0A3F91FE0464B1B6841F2883109
:103A9000184644F050F9444A4449454863F0C0F898
:103AA0004348FCF727FC03469CB24148FCF722FC44
:103AB000034622463E493F4840F0E6F8394B1B6832
:103AC000184644F083F900BFFB79312B40F0A48005
:103AD000BB79032B46D0032B7EDC012B02D0022BBB
:103AE00020D079E02F4B1B6841F28831184644F012
:103AF00022F92D4A35492E4863F092F82C48FCF7FC
:103B0000F9FB03469CB22A48FCF7F4FB0346224625
:103B10002749284840F0B8F8224B1B68184644F063
:103B200055F979E01F4B1B6841F28831184644F083
:103B300002F91D4A26491E4863F072F81C48FCF73A
:103B4000D9FB03469CB21A48FCF7D4FB0346224635
:103B50001749184840F098F8124B1B68184644F073
:103B600035F959E00F4B1B6841F28831184644F093
:103B7000E2F80D4A17490E4863F052F80C48FCF77A
:103B8000B9FB03469CB20A48FCF7B4FB0346224645
:103B90000749084840F078F8024B1B68184644F083
:103BA00015F939E054D5002478250708389F060810
:103BB000A8D500249C6400246C9F0608949F0608E6
:103BC000B89F0608E89F060808A006082CA006086B
:103BD00048A0060874A00608B04B1B6841F2883163
:103BE000184644F0A8F8AE4AAE49AF4863F018F85A
:103BF000AD48FCF77FFB03469CB2AB48FCF77AFB71
:103C000003462246A849A94840F03EF8A34B1B684A
:103C1000184644F0DBF800BFFB79A12B40F0BA81D5
:103C2000BB79013B0A2B00F2958101A252F823F0E7
:103C3000DD3C0008DD3D00085D3D00085D3E0008FC
:103C40005D3C00081D3D00081D3E00089D3D00082C
:103C5000D53E00089D3C0008153F00088F4B1B68AF
:103C600041F28831184644F066F88D4A90498E48F2
:103C700062F0D6FF8C48FCF73DFB03469CB28A48B5
:103C8000FCF738FB03462246874988483FF0FCFF93
:103C9000824B1B68184644F099F87BE17F4B1B6808
:103CA00041F28831184644F046F87D4A81497E4801
:103CB00062F0B6FF7C48FCF71DFB03469CB27A48D5
:103CC000FCF718FB03462246774978483FF0DCFFB3
:103CD000724B1B68184644F079F85BE16F4B1B6828
:103CE00041F28831184644F026F86D4A72496E4810
:103CF00062F096FF6C48FCF7FDFA03469CB26A48F6
:103D0000FCF7F8FA03462246674968483FF0BCFFD3
:103D1000624B1B68184644F059F83BE15F4B1B6847
:103D200041F28831184644F006F85D4A63495E481E
:103D300062F076FF5C48FCF7DDFA03469CB25A4815
:103D4000FCF7D8FA03462246574958483FF09CFFF3
:103D5000524B1B68184644F039F81BE14F4B1B6867
:103D600041F28831184643F0E6FF4D4A54494E4827
:103D700062F056FF4C48FCF7BDFA03469CB24A4835
:103D8000FCF7B8FA03462246474948483FF07CFF13
:103D9000424B1B68184644F019F8FBE03F4B1B6888
:103DA00041F28831184643F0C6FF3D4A45493E4836
:103DB00062F036FF3C48FCF79DFA03469CB23A4855
:103DC000FCF798FA03462246374938483FF05CFF33
:103DD000324B1B68184643F0F9FFDBE02F4B1B68A2
:103DE00041F28831184643F0A6FF2D4A36492E4845
:103DF00062F016FF2C48FCF77DFA03469CB22A4875
:103E0000FCF778FA03462246274928483FF03CFF52
:103E1000224B1B68184643F0D9FFBBE01F4B1B68C1
:103E200041F28831184643F086FF1D4A27491E4853
:103E300062F0F6FE1C48FCF75DFA03469CB21A4895
:103E4000FCF758FA03462246174918483FF01CFF72
:103E5000124B1B68184643F0B9FF9BE00F4B1B68E1
:103E600041F28831184643F066FF0D4A18490E4862
:103E700062F0D6FE0C48FCF73DFA03469CB20A48B5
:103E8000FCF738FA03462246074908483FF0FCFE93
:103E9000024B1B68184643F099FF7BE054D5002481
:103EA00078250708389F0608A8D500249C640024BC
:103EB00098A00608CCA0060800A1060834A10608B0
:103EC00068A10608A0A10608D8A1060804A2060851
:103ED00030A20608B14B1B6841F28831184643F006
:103EE0002AFFAF4AAF49B04862F09AFEAE48FCF7ED
:103EF00001FA03469CB2AC48FCF7FCF903462246A3
:103F0000A949AA483FF0C0FEA44B1B68184643F0DD
:103F10005DFF3FE0A14B1B6841F28831184643F03A
:103F20000AFF9F4AA249A04862F07AFE9E48FCF729
:103F3000E1F903469CB29C48FCF7DCF903462246B3
:103F400099499A483FF0A0FE944B1B68184643F0ED
:103F50003DFF1FE0914B1B6841F28831184643F04A
:103F6000EAFE8F4A9349904862F05AFE8E48FCF769
:103F7000C1F903469CB28C48FCF7BCF903462246C3
:103F800089498A483FF080FE844B1B68184643F0FD
:103F90001DFF00BFFB79212B65D1BB79012B02D01E
:103FA000022B20D03FE07D4B1B6841F28831184640
:103FB00043F0C1FE7A4A80497B4862F031FE7A487C
:103FC000FCF798F903469CB27748FCF793F903464F
:103FD0002246754975483FF057FE704B1B681846DE
:103FE00043F0F4FE3FE06D4B1B6841F28831184608
:103FF00043F0A1FE6A4A71496B4862F011FE6A48BB
:10400000FCF778F903469CB26748FCF773F903465E
:104010002246654965483FF037FE604B1B681846ED
:1040200043F0D4FE1FE05D4B1B6841F28831184617
:1040300043F081FE5A4A5F495B4862F0F1FD5A48FD
:10404000FCF758F903469CB25748FCF753F903466E
:104050002246554955483FF017FE504B1B681846FD
:1040600043F0B4FE00BFFB79022B40F03181BB79F5
:10407000013B062B00F20C8101A252F823F000BF95
:104080009D400008DD4000081D4100085D4100081A
:10409000D141000811420008514200083F4B1B6803
:1040A00041F28831184643F046FE3D4A44493E48B5
:1040B00062F0B6FD3C48FCF71DF903469CB23A4855
:1040C000FCF718F903462246374938483FF0DCFD33
:1040D000324B1B68184643F079FEF9E02F4B1B6802
:1040E00041F28831184643F026FE2D4A35492E48C4
:1040F00062F096FD2C48FCF7FDF803469CB22A4876
:10410000FCF7F8F803462246274928483FF0BCFD53
:10411000224B1B68184643F059FED9E01F4B1B6821
:1041200041F28831184643F006FE1D4A26491E48D2
:1041300062F076FD1C48FCF7DDF803469CB21A4895
:10414000FCF7D8F803462246174918483FF09CFD73
:10415000124B1B68184643F039FEB9E00F4B1B6841
:1041600041F28831184643F0E6FD0D4A17490E48E2
:1041700062F056FD0C48FCF7BDF803469CB20A48B5
:10418000FCF7B8F803462246074908483FF07CFD93
:10419000024B1B68184643F019FE99E054D50024E1
:1041A0007825070860A20608A8D500249C6400248E
:1041B00090A20608389F0608B4A20608E8A20608DE
:1041C0000CA3060828A3060844A3060874A306083F
:1041D000AC4B1B6841F28831184643F0ACFDAA4A4B
:1041E000AA49AB4862F01CFDA948FCF783F80346D6
:1041F0009CB2A748FCF77EF803462246A449A5488E
:104200003FF042FD9F4B1B68184643F0DFFD5FE027
:104210009C4B1B6841F28831184643F08CFD9A4A4A
:104220009D499B4862F0FCFC9948FCF763F8034603
:104230009CB29748FCF75EF803462246944995489D
:104240003FF022FD8F4B1B68184643F0BFFD3FE057
:104250008C4B1B6841F28831184643F06CFD8A4A4A
:104260008E498B4862F0DCFC8948FCF743F8034632
:104270009CB28748FCF73EF80346224684498548AD
:104280003FF002FD7F4B1B68184643F09FFD1FE087
:104290007C4B1B6841F28831184643F04CFD7A4A4A
:1042A0007F497B4862F0BCFC7948FCF723F8034661
:1042B0009CB27748FCF71EF80346224674497548BD
:1042C0003FF0E2FC6F4B1B68184643F07FFD00BFD8
:1042D000FB79102B40F03281BB79013B062B00F2B9
:1042E0000D8101A252F823F005430008454400085F
:1042F0004543000885430008C543000805440008FD
:10430000BD4400085F4B1B6841F28831184643F0FA
:1043100012FD5D4A63495E4862F082FC5C48FBF72F
:10432000E9FF03469CB25A48FBF7E4FF03462246E6
:10433000574958483FF0A8FC524B1B68184643F0B9
:1043400045FDFBE04F4B1B6841F28831184643F0B6
:10435000F2FC4D4A54494E4862F062FC4C48FBF76F
:10436000C9FF03469CB24A48FBF7C4FF03462246F6
:10437000474948483FF088FC424B1B68184643F0C9
:1043800025FDDBE03F4B1B6841F28831184643F0C6
:10439000D2FC3D4A45493E4862F042FC3C48FBF7AE
:1043A000A9FF03469CB23A48FBF7A4FF0346224606
:1043B000374938483FF068FC324B1B68184643F0D9
:1043C00005FDBBE02F4B1B6841F28831184643F0D6
:1043D000B2FC2D4A36492E4862F022FC2C48FBF7ED
:1043E00089FF03469CB22A48FBF784FF0346224616
:1043F000274928483FF048FC224B1B68184643F0E9
:10440000E5FC9BE01F4B1B6841F28831184643F0E6
:1044100092FC1D4A27491E4862F002FC1C48FBF72B
:1044200069FF03469CB21A48FBF764FF0346224625
:10443000174918483FF028FC124B1B68184643F0F8
:10444000C5FC7BE00F4B1B6841F28831184643F0F6
:1044500072FC0D4A18490E4862F0E2FB0C48FBF76B
:1044600049FF03469CB20A48FBF744FF0346224635
:10447000074908483FF008FC024B1B68184643F008
:10448000A5FC5BE054D50024782507088CA306081A
:10449000A8D500249C640024ACA30608B8A3060891
:1044A000389F0608CCA30608ECA3060804A4060857
:1044B0001CA406082CA406084CA40608AD4B1B68D7
:1044C00041F28831184643F036FCAB4AAB49AC4860
:1044D00062F0A6FBAA48FBF70DFF03469CB2A84872
:1044E000FBF708FF03462246A549A6483FF0CCFB50
:1044F000A04B1B68184643F069FC1FE09D4B1B68EE
:1045000041F28831184643F016FC9B4A9E499C486C
:1045100062F086FB9A48FBF7EDFE03469CB2984892
:10452000FBF7E8FE03462246954996483FF0ACFB70
:10453000904B1B68184643F049FC00BFFB79112BD8
:1045400040F05481BB79013B072B00F22F8101A27F
:1045500052F823F075460008354700083546000834
:10456000B546000875450008B5450008F545000842
:10457000F54600087F4B1B6841F28831184643F02E
:10458000DAFB7D4A81497E4862F04AFB7C48FBF7B2
:10459000B1FE03469CB27A48FBF7ACFE03462246C6
:1045A000774978483FF070FB724B1B68184643F020
:1045B0000DFC1BE16F4B1B6841F28831184643F03C
:1045C000BAFB6D4A72496E4862F02AFB6C48FBF7F1
:1045D00091FE03469CB26A48FBF78CFE03462246D6
:1045E000674968483FF050FB624B1B68184643F030
:1045F000EDFBFBE05F4B1B6841F28831184643F04E
:104600009AFB5D4A63495E4862F00AFB5C48FBF72F
:1046100071FE03469CB25A48FBF76CFE03462246E5
:10462000574958483FF030FB524B1B68184643F03F
:10463000CDFBDBE04F4B1B6841F28831184643F05D
:104640007AFB4D4A54494E4862F0EAFA4C48FBF76F
:1046500051FE03469CB24A48FBF74CFE03462246F5
:10466000474948483FF010FB424B1B68184643F04F
:10467000ADFBBBE03F4B1B6841F28831184643F06D
:104680005AFB3D4A45493E4862F0CAFA3C48FBF7AE
:1046900031FE03469CB23A48FBF72CFE0346224605
:1046A000374938483FF0F0FA324B1B68184643F060
:1046B0008DFB9BE02F4B1B6841F28831184643F07D
:1046C0003AFB2D4A36492E4862F0AAFA2C48FBF7ED
:1046D00011FE03469CB22A48FBF70CFE0346224615
:1046E000274928483FF0D0FA224B1B68184643F070
:1046F0006DFB7BE01F4B1B6841F28831184643F08D
:104700001AFB1D4A27491E4862F08AFA1C48FBF72B
:10471000F1FD03469CB21A48FBF7ECFD0346224626
:10472000174918483FF0B0FA124B1B68184643F07F
:104730004DFB5BE00F4B1B6841F28831184643F09C
:10474000FAFA0D4A18490E4862F06AFA0C48FBF76B
:10475000D1FD03469CB20A48FBF7CCFD0346224636
:10476000074908483FF090FA024B1B68184643F08F
:104770002DFB3BE054D500247825070878A40608D3
:10478000A8D500249C640024389F0608A8A4060825
:10479000D8A4060800A5060834A5060854A50608EE
:1047A00074A5060898A50608ACA50608B54B1B68B5
:1047B00041F28831184643F0BEFAB34AB349B448CF
:1047C00062F02EFAB248FBF795FD03469CB2B04862
:1047D000FBF790FD03462246AD49AE483FF054FA40
:1047E000A84B1B68184643F0F1FA00BFFB79122B67
:1047F00040F0B080BB79013B032B00F28B8001A21B
:1048000052F823F01548000855480008954800085C
:10481000D54800089B4B1B6841F28831184643F08D
:104820008AFA994A9C499A4862F0FAF99848FBF743
:1048300061FD03469CB29648FBF75CFD03462246A9
:10484000934994483FF020FA8E4B1B68184643F07A
:10485000BDFA7FE08B4B1B6841F28831184643F06C
:104860006AFA894A8D498A4862F0DAF98848FBF782
:1048700041FD03469CB28648FBF73CFD03462246B9
:10488000834984483FF000FA7E4B1B68184643F08A
:104890009DFA5FE07B4B1B6841F28831184643F07C
:1048A0004AFA794A7E497A4862F0BAF97848FBF7C1
:1048B00021FD03469CB27648FBF71CFD03462246C9
:1048C000734974483FF0E0F96E4B1B68184643F09B
:1048D0007DFA3FE06B4B1B6841F28831184643F08C
:1048E0002AFA694A6F496A4862F09AF96848FBF700
:1048F00001FD03469CB26648FBF7FCFC03462246DA
:10490000634964483FF0C0F95E4B1B68184643F0AA
:104910005DFA1FE05B4B1B6841F28831184643F09B
:104920000AFA594A59495A4862F07AF95848FBF745
:10493000E1FC03469CB25648FBF7DCFC03462246EA
:10494000534954483FF0A0F94E4B1B68184643F0BA
:104950003DFA00BFFB79082B40F00E81BB79013B8B
:10496000052B00F2E98001A252F823F0F94A000871
:10497000454A000885490008054A0008C54900085D
:10498000B94A00083F4B1B6841F28831184643F092
:10499000D2F93D4A44493E4862F042F93C48FBF7AF
:1049A000A9FC03469CB23A48FBF7A4FC0346224606
:1049B000374938483FF068F9324B1B68184643F0D6
:1049C00005FAD9E02F4B1B6841F28831184643F0B5
:1049D000B2F92D4A35492E4862F022F92C48FBF7EE
:1049E00089FC03469CB22A48FBF784FC0346224616
:1049F000274928483FF048F9224B1B68184643F0E6
:104A0000E5F9B9E01F4B1B6841F28831184643F0C5
:104A100092F91D4A26491E4862F002F91C48FBF72C
:104A200069FC03469CB21A48FBF764FC0346224625
:104A3000174918483FF028F9124B1B68184643F0F5
:104A4000C5F999E00F4B1B6841F28831184643F0D5
:104A500072F90D4A17490E4862F0E2F80C48FBF76C
:104A600049FC03469CB20A48FBF744FC0346224635
:104A7000074908483FF008F9024B1B68184643F005
:104A8000A5F979E054D5002478250708389F060851
:104A9000A8D500249C640024DCA50608FCA5060813
:104AA00020A6060848A6060874A606089CA60608BE
:104AB000BCA60608E8A60608314B1B6841F28831FF
:104AC000184643F038F92F4A2F49304862F0A8F8C9
:104AD0002E48FBF70FFC03469CB22C48FBF70AFC60
:104AE0000346224629492A483FF0CEF8244B1B684A
:104AF000184643F06BF93FE0214B1B6841F28831C7
:104B0000184643F018F91F4A2249204862F088F8F5
:104B10001E48FBF7EFFB03469CB21C48FBF7EAFB81
:104B20000346224619491A483FF0AEF8144B1B6859
:104B3000184643F04BF91FE0114B1B6841F28831D6
:104B4000184643F0F8F80F4A1349104862F068F825
:104B50000E48FBF7CFFB03469CB20C48FBF7CAFBA1
:104B60000346224609490A483FF08EF8044B1B6869
:104B7000184643F02BF900BF00BF0C37BD4690BD6F
:104B800054D500247825070804A70608A8D50024D2
:104B90009C64002420A70608389F060890B585B0BD
:104BA00000AF0346FB710023BB730023FB736AE075
:104BB000524B186807F10E010023002243F036FB28
:104BC00003464F4A13604E4B1B68002B20D04D4BC1
:104BD0001B6841F28831184643F0ADF8484B1B681A
:104BE000494A4A494A4862F01BF84948FBF782FBA8
:104BF00003469CB24648FBF77DFB034622464449E8
:104C000044483FF041F83F4B1B68184643F0DEF83C
:104C1000414B1B7C052B33D801A252F823F000BF77
:104C2000394C0008474C0008514C00085B4C000808
:104C3000654C00086F4C0008BB7B1846FDF7B4FBC1
:104C40000346FB731FE0BB7B1846FDF753FB1AE0DE
:104C5000BB7B1846FDF706FE15E0BB7B1846FDF74B
:104C6000A3FA10E0BB7B1846FDF7D0FA0BE0BB7B44
:104C7000FA7911461846FDF7DDF90346FB7302E0A9
:104C8000FDF7F6FA00BFFB7B002B07D11B4B1B681F
:104C9000184643F029FB0346002B89D1FB7B002BF0
:104CA00027D11D4B93F8C830002B0FD01A4B1B7A1D
:104CB000002B0BD0184B00221A72174B00221A74CB
:104CC000154B002283F8C8200423FB73124B9B7CF6
:104CD000002B0ED0104B1B78002B0AD00E4B00225D
:104CE0001A700D4B00221A740B4B00229A74052384
:104CF000FB73FB7B18461437BD4690BDACCB00243C
:104D0000A011012454D500249C2507083CA70608BF
:104D1000A8D500249C6400247008012480B400AF4E
:104D2000104B9B78002B13D00E4B9B78013BDAB2D3
:104D30000C4B9A700B4B1B780133DAB2094B1A708B
:104D4000084B1B781F2B07D9064B00221A7003E073
:104D5000044B5A78034B1A7000BFBD465DF8047BC4
:104D6000704700BFD8ED002480B400AF104B9B7893
:104D7000002B13D00E4B9B78013BDAB20C4B9A7090
:104D80000B4B1B780133DAB2094B1A70084B1B78B6
:104D9000072B07D9064B00221A7003E0044B5A7800
:104DA000034B1A7000BFBD465DF8047B704700BF1F
:104DB0001C03012490B587B002AF9B4B1B6841F2E6
:104DC0008831184642F0B7FF984B1B79984A9949A9
:104DD000994861F025FF9848FBF78CFA03469CB28E
:104DE0009548FBF787FA03462246934993483EF0DD
:104DF0004BFF8D4B1B68184642F0E8FF8A4B1B683F
:104E000041F28831184642F096FF884B5B79884A18
:104E10008B49894861F004FF8748FBF76BFA03462A
:104E20009CB28548FBF766FA0346224682498348CE
:104E30003EF02AFF7C4B1B68184642F0C7FF7B4BB5
:104E40001B7903F00103002B1FD0774B1B6841F245
:104E50008831184642F06FFF754A7A49764861F00A
:104E6000DFFE7548FBF746FA03469CB27248FBF733
:104E700041FA03462246704970483EF005FF6A4BEE
:104E80001B68184642F0A2FF1EE0674B1B6841F208
:104E90008831184642F04FFF654A6B49664861F019
:104EA000BFFE6548FBF726FA03469CB26248FBF753
:104EB00021FA03462246604960483EF0E5FE5A4B1F
:104EC0001B68184642F082FF584B1B7903F002031F
:104ED000002B1FD0544B1B6841F28831184642F01A
:104EE0002AFF534A5949544861F09AFE5248FBF749
:104EF00001FA03469CB25048FBF7FCF903462246F0
:104F00004D494E483EF0C0FE474B1B68184642F0E4
:104F10005DFF1EE0444B1B6841F28831184642F0A9
:104F20000AFF434A4A49444861F07AFE4248FBF787
:104F3000E1F903469CB24048FBF7DCF90346224600
:104F40003D493E483EF0A0FE374B1B68184642F0F4
:104F50003DFF364B1B7903F00403002B1FD0324B6F
:104F60001B6841F28831184642F0E5FE304A394963
:104F7000314861F055FE3048FBF7BCF903469CB25E
:104F80002D48FBF7B7F9034622462B492B483EF044
:104F90007BFE254B1B68184642F018FF1EE0224B93
:104FA0001B6841F28831184642F0C5FE204A2A4962
:104FB000214861F035FE2048FBF79CF903469CB27E
:104FC0001D48FBF797F9034622461B491B483EF054
:104FD0005BFE154B1B68184642F0F8FE134B1B791D
:104FE00003F00803002B3BD00F4B1B6841F28831C4
:104FF000184642F0A0FE0E4A18490F4861F010FE14
:105000000D48FBF777F903469CB20B48FBF772F9A2
:1050100003462246084909483EF036FE024B1B680B
:10502000184642F0D3FE3AE054D500248408012407
:10503000B0250708B4A70608A8D500249C6400245E
:10504000DCA7060804A806081CA8060834A8060859
:1050500058A8060880A80608A0A80608BCA8060844
:10506000A64B1B6841F28831184642F064FEA44A00
:10507000A449A54861F0D4FDA348FBF73BF90346DA
:105080009CB2A148FBF736F9034622469E499F4849
:105090003EF0FAFD994B1B68184642F097FE974B7D
:1050A0001B6841F28831184642F045FE984B9B79C7
:1050B000934A9849944861F0B3FD9348FBF71AF975
:1050C00003469CB29048FBF715F9034622468E49E9
:1050D0008E483EF0D9FD894B1B68184642F076FE9B
:1050E000864B1B6841F28831184642F024FE844A00
:1050F0008949854861F094FD8348FBF7FBF8034636
:105100009CB28148FBF7F6F8034622467E497F4869
:105110003EF0BAFD794B1B68184642F057FE7C4BB7
:105120009B79002B6FD00023FB730023BB6064E0EE
:10513000724B1B6841F28831184642F0FCFD744AFC
:10514000BB68033313441B790093BB686C4A7349F3
:105150006D4861F065FD6C48FBF7CCF803469CB2E6
:105160006948FBF7C7F803462246674967483EF09F
:105170008BFD624B1B68184642F028FE00237B60C3
:1051800035E0FB7B0133FB73614ABB680333134497
:105190001B791A467B6842FA03F303F00103002BE4
:1051A00022D0564B1B6841F28831184642F0C3FDAD
:1051B000FA7BFB7B00931346514A5949524861F0F0
:1051C0002FFD5148FBF796F803469CB24E48FBF77B
:1051D00091F8034622464C494C483EF055FD474B5A
:1051E0001B68184642F0F2FD7B6801337B607B68E8
:1051F000072BC6DDBB680133BB60454B9B791A4664
:10520000BB68934294DB3D4B1B6841F288311846E2
:1052100042F091FD3E4A3E4B9B79033313441B7988
:10522000374A4049384861F0FBFC3748FBF762F8E1
:1052300003469CB23448FBF75DF8034622463249E8
:1052400032483EF021FD2D4B1B68184642F0BEFD52
:105250002A4B1B6841F28831184642F06CFD2C4AFB
:105260002B4B9B79043313441B79254A2E4926483E
:1052700061F0D6FC2448FBF73DF803469CB2224877
:10528000FBF738F8034622461F4920483EF0FCFC55
:105290001A4B1B68184642F099FD1D4A1C4B9B791E
:1052A000033313441B79082B42D1194A184B9B79BD
:1052B000043313441B79002B3AD1104B1B6841F285
:1052C0008831184642F037FD0D4A18490E4861F002
:1052D000A7FC0D48FBF70EF803469CB20A48FBF703
:1052E00009F803462246084908483EF0CDFC034B26
:1052F0001B68184642F06AFD3AE000BF54D500240E
:10530000B0250708D8A80608A8D500249C64002466
:1053100084080124F8A8060820A906084CA9060854
:1053200074A9060898A90608C0A90608E8A90608ED
:10533000114B1B6841F28831184642F0FCFC0F4AC1
:105340000F49104861F06CFC0E48FAF7D3FF034692
:105350009CB20C48FAF7CEFF0346224609490A4898
:105360003EF092FC044B1B68184642F02FFD00BF34
:1053700000BF1437BD4690BD54D50024B0250708A2
:105380001CAA0608A8D500249C64002490B583B00C
:1053900000AF834B1B6841F28831184642F0CBFCCA
:1053A000804B1B79804A8149814861F039FC8048F3
:1053B000FAF7A0FF03469CB27D48FAF79BFF03462D
:1053C00022467B497B483EF05FFC754B1B681846C4
:1053D00042F0FCFC734B04331B783B713B7903F0C8
:1053E0000103DBB2002B1ED06D4B1B6841F28831EC
:1053F000184642F0A0FC6C4A6F496D4861F010FC01
:105400006B48FAF777FF03469CB26948FAF772FFD8
:1054100003462246664967483EF036FC604B1B68EF
:10542000184642F0D3FC3B7903F00203DBB2002BB9
:105430001ED05B4B1B6841F28831184642F07BFC62
:10544000594A5E495A4861F0EBFB5948FAF752FF56
:1054500003469CB25648FAF74DFF0346224654498C
:1054600054483EF011FC4E4B1B68184642F0AEFC0F
:105470003B7903F00403DBB2002B1ED0484B1B68C2
:1054800041F28831184642F056FC474A4C49484898
:1054900061F0C6FB4648FAF72DFF03469CB244482C
:1054A000FAF728FF03462246414942483EF0ECFB0A
:1054B0003B4B1B68184642F089FC3B7903F008031C
:1054C000DBB2002B1ED0364B1B6841F288311846E8
:1054D00042F031FC344A3B49354861F0A1FB344885
:1054E000FAF708FF03469CB23148FAF703FF034678
:1054F00022462F492F483EF0C7FB294B1B68184610
:1055000042F064FC3B7903F01003DBB2002B1ED0A9
:10551000234B1B6841F28831184642F00CFC224AAA
:105520002949234861F07CFB2148FAF7E3FE034652
:105530009CB21F48FAF7DEFE034622461C491D486E
:105540003EF0A2FB164B1B68184642F03FFC3B792D
:1055500003F02003DBB2002B1ED0114B1B6841F27D
:105560008831184642F0E7FB0F4A1849104861F0AD
:1055700057FB0F48FAF7BEFE03469CB20C48FAF7F9
:10558000B9FE034622460A490A483EF07DFB044B19
:105590001B68184642F01AFC00BF0C37BD4690BD90
:1055A00054D5002484080124D025070870AA0608D1
:1055B000A8D500249C64002488AA0608A8AA060886
:1055C000CCAA0608F8AA06081CAB060838AB0608E1
:1055D00090B587B002AF9B4B1B6841F288311846EB
:1055E00042F0A9FB984B1B79984A9949994861F078
:1055F00017FB9848FAF77EFE03469CB29548FAF7E7
:1056000079FE03462246934993483EF03DFB8D4B7D
:105610001B68184642F0DAFB8A4B1B6841F288315E
:10562000184642F088FB884B5B79884A8B49894849
:1056300061F0F6FA8748FAF75DFE03469CB28548AA
:10564000FAF758FE03462246824983483EF01CFB87
:105650007C4B1B68184642F0B9FB7A4B1B6841F241
:105660008831184642F067FB774B9B79774A7C4933
:10567000784861F0D5FA7748FAF73CFE03469CB2C9
:105680007448FAF737FE03462246724972483EF0E4
:10569000FBFA6C4B1B68184642F098FB694B1B6881
:1056A00041F28831184642F046FB674BDB79674A86
:1056B0006C49684861F0B4FA6648FAF71BFE034685
:1056C0009CB26448FAF716FE0346224661496248D6
:1056D0003EF0DAFA5B4B1B68184642F077FB594BF9
:1056E0001B6841F28831184642F025FB564B1B7A65
:1056F000564A5D49574861F093FA5648FAF7FAFD61
:1057000003469CB25348FAF7F5FD03462246514939
:1057100051483EF0B9FA4B4B1B68184642F056FB15
:10572000484B1B6841F28831184642F004FB464B57
:105730005B7A464A4D49474861F072FA4548FAF7A4
:10574000D9FD03469CB24348FAF7D4FD03462246EE
:10575000404941483EF098FA3A4B1B68184642F0DF
:1057600035FB384B1B6841F28831184642F0E3FAAA
:10577000354B9B7A354A3E49364861F051FA3548F7
:10578000FAF7B8FD03469CB23248FAF7B3FD034678
:105790002246304930483EF077FA2A4B1B681846BB
:1057A00042F014FB274B1B6841F28831184642F047
:1057B000C2FA254BDB7A254A2E49264861F030FA99
:1057C0002448FAF797FD03469CB22248FAF792FD67
:1057D000034622461F4920483EF056FA194B1B68E3
:1057E000184642F0F3FA0023FB730023BB607EE00F
:1057F000144B1B6841F28831184642F09CFA124A59
:10580000BB68083313441B790093BB680F4A1A49DD
:10581000104861F005FA0F48FAF76CFD03469CB298
:105820000C48FAF767FD034622460A490A483EF04B
:105830002BFA044B1B68184642F0C8FA00237B6021
:105840004FE000BF54D50024840801240026070837
:1058500054AB0608A8D500249C6400248CAB060831
:10586000C4AB0608FCAB060834AC06086CAC0608F2
:10587000A4AC0608DCAC060814AD0608FB7B0133BB
:10588000FB731F4ABB68083313441B791A467B68B5
:1058900042FA03F303F00103002B1FD0194B1B68DE
:1058A00041F28831184642F046FAFB7B164A174906
:1058B000174861F0B5F91648FAF71CFD03469CB28B
:1058C0001348FAF717FD03462246114911483EF0E6
:1058D000DBF90C4B1B68184642F078FA7B68013301
:1058E0007B607B68072BC9DDBB680133BB60BB688D
:1058F0001F2B7FF77DAF00BF00BF1437BD4690BDA3
:105900008408012454D500240026070844AD060865
:10591000A8D500249C64002490B583B000AFB44B9C
:105920001B6841F28831184642F005FAB14B1B79E9
:10593000B14AB249B24861F073F9B148FAF7DAFCFA
:1059400003469CB2AE48FAF7D5FC03462246AC4962
:10595000AC483EF099F9A64B1B68184642F036FA5F
:10596000A44B1B790A2B1FDC002BC0F25F810A2B92
:1059700000F25C8101A252F823F000BFB159000887
:10598000F15900082D5C0008315A0008715A0008CE
:10599000B15A00082D5C0008F15A00082D5C00087F
:1059A000315B0008715B0008FF2B00F001813DE1D5
:1059B0008F4B1B6841F28831184642F0BCF98E4A81
:1059C00091498F4861F02CF98D48FAF793FC034612
:1059D0009CB28B48FAF78EFC0346224688498948D8
:1059E0003EF052F9824B1B68184642F0EFF93FE156
:1059F0007F4B1B6841F28831184642F09CF97E4A81
:105A000082497F4861F00CF97D48FAF773FC034640
:105A10009CB27B48FAF76EFC0346224678497948E7
:105A20003EF032F9724B1B68184642F0CFF91FE185
:105A30006F4B1B6841F28831184642F07CF96E4A80
:105A400073496F4861F0ECF86D48FAF753FC034670
:105A50009CB26B48FAF74EFC0346224668496948F7
:105A60003EF012F9624B1B68184642F0AFF9FFE0B6
:105A70005F4B1B6841F28831184642F05CF95E4A80
:105A800064495F4861F0CCF85D48FAF733FC03469F
:105A90009CB25B48FAF72EFC034622465849594807
:105AA0003EF0F2F8524B1B68184642F08FF9DFE0E7
:105AB0004F4B1B6841F28831184642F03CF94E4A80
:105AC00055494F4861F0ACF84D48FAF713FC0346CE
:105AD0009CB24B48FAF70EFC034622464849494817
