:020000040800F2
:1000000000000824F1770108A5740108AD74010807
:10001000B5740108BD740108C57401080000000032
:10002000000000000000000000000000811705082B
:10003000CD74010800000000D1190508ED0705087E
:100040004578010845780108457801084578010898
:100050004578010845780108457801084578010888
:10006000DB740108457801084578010845780108E6
:100070004578010845780108457801084578010868
:100080004578010845780108457801084578010858
:100090004578010845780108457801084578010848
:1000A0004578010845780108457801084578010838
:1000B0004578010845780108457801084578010828
:1000C0004578010845780108457801084578010818
:1000D00045780108E9740108FD74010845780108B4
:1000E00045780108457801080000000045780108BE
:1000F00045780108457801084578010845780108E8
:1001000045780108457801084578010845780108D7
:1001100045780108457801081175010845780108FE
:1001200045780108457801084578010845780108B7
:1001300045780108457801084578010845780108A7
:100140004578010845780108000000000000000023
:100150004578010845780108457801084578010887
:100160004578010845780108457801084578010877
:10017000457801084578010845780108000000002D
:100180004578010845780108457801084578010857
:100190004578010845780108457801084578010847
:1001A0002575010845780108397501084578010869
:1001B0004D75010845780108457801084578010822
:1001C0004578010845780108457801084578010817
:1001D0004578010845780108457801084578010807
:1001E00045780108457801084578010845780108F7
:1001F00045780108457801084578010845780108E7
:1002000045780108457801084578010845780108D6
:1002100045780108457801084578010845780108C6
:100220004578010861750108757501080000000036
:1002300045780108457801084578010845780108A6
:100240004578010845780108457801084578010896
:100250004578010845780108457801084578010886
:100260004578010845780108457801084578010876
:100270004578010845780108457801084578010866
:10028000457801084578010845780108000000001C
:080290004578010845780108DA
:1002A00010B5054C237833B9044B13B10448AFF3B0
:1002B00000800123237010BD005F002400000000B7
:1002C0008C6F070808B5034B1BB103490348AFF314
:1002D000008008BD00000000045F00248C6F070848
:1002E00010F8012B11F8013B012A28BF9A42F7D0E0
:1002F000D01A7047034613F8012B002AFBD1181AB5
:1003000001387047000000000000000000000000FD
:1003100001F0FF01102A2BDB10F0070F08D010F8B6
:10032000013B013A8B422DD010F0070F42B3F6D1BA
:10033000F0B441EA012141EA014122F007047FF0D3
:1003400000070023F0E80256083C85EA010586EA2A
:10035000010685FA47F5A3FA87F586FA47F6A5FA66
:1003600087F68EB9EED1F0BC01F0FF0102F0070272
:1003700032B110F8013B013A83EA010313B1F8D11D
:100380000020704701387047002D06BF35460338FE
:10039000073815F0010F07D1013015F4807F02BF37
:1003A000013015F4C03F0130F0BC0138704700BF88
:1003B00081F0004102E000BF83F0004330B54FEA16
:1003C00041044FEA430594EA050F08BF90EA020F83
:1003D0001FBF54EA000C55EA020C7FEA645C7FEA16
:1003E000655C00F0E2804FEA5454D4EB5555B8BF39
:1003F0006D420CDD2C4480EA020281EA030382EAAA
:10040000000083EA010180EA020281EA0303362D3B
:1004100088BF30BD11F0004F4FEA01314FF4801C0E
:100420004CEA113102D0404261EB410113F0004F20
:100430004FEA03334CEA133302D0524263EB4303D7
:1004400094EA050F00F0A780A4F10104D5F1200E75
:100450000DDB02FA0EFC22FA05F2801841F10001D0
:1004600003FA0EF2801843FA05F359410EE0A5F1A4
:1004700020050EF1200E012A03FA0EFC28BF4CF0D5
:10048000020C43FA05F3C01851EBE37101F000458B
:1004900007D54FF0000EDCF1000C7EEB00006EEB98
:1004A0000101B1F5801F1BD3B1F5001F0CD3490822
:1004B0005FEA30004FEA3C0C04F101044FEA445279
:1004C00012F5800F80F09A80BCF1004F08BF5FEA00
:1004D000500C50F1000041EB045141EA050130BDE0
:1004E0005FEA4C0C404141EB0101013C28BFB1F5F2
:1004F000801FE9D291F0000F04BF01460020B1FA3D
:1005000081F308BF2033A3F10B03B3F120020CDA0F
:100510000C3208DD02F1140CC2F10C0201FA0CF0ED
:1005200021FA02F10CE002F11402D8BFC2F1200C52
:1005300001FA02F120FA0CFCDCBF41EA0C01904008
:10054000E41AA2BF01EB0451294330BD6FEA040451
:100550001F3C1CDA0C340EDC04F11404C4F120023C
:1005600020FA04F001FA02F340EA030021FA04F34E
:1005700045EA030130BDC4F10C04C4F1200220FAA5
:1005800002F001FA04F340EA0300294630BD21FAE3
:1005900004F0294630BD94F0000F83F4801306BFA9
:1005A00081F480110134013D4EE77FEA645C18BF9D
:1005B0007FEA655C29D094EA050F08BF90EA020F34
:1005C00005D054EA000C04BF1946104630BD91EA2C
:1005D000030F1EBF0021002030BD5FEA545C05D12F
:1005E0004000494128BF41F0004130BD14F580046E
:1005F0003CBF01F5801130BD01F0004545F0FE41E2
:1006000041F470014FF0000030BD7FEA645C1ABF16
:10061000194610467FEA655C1CBF0B46024650EA4D
:10062000013406BF52EA033591EA030F41F4002179
:1006300030BD00BF90F0000F04BF0021704730B5FF
:100640004FF4806404F132044FF000054FF00001D4
:1006500050E700BF90F0000F04BF0021704730B595
:100660004FF4806404F1320410F0004548BF40426A
:100670004FF000013EE700BF42004FEAE2014FEABF
:1006800031014FEA02701FBF12F07F4393F07F4F9A
:1006900081F06051704732F07F4208BF704793F09D
:1006A0007F4F04BF41F40021704730B54FF46074B0
:1006B00001F0004521F000411CE700BF50EA0102B3
:1006C00008BF704730B54FF000050AE050EA01025C
:1006D00008BF704730B511F0004502D5404261EBCC
:1006E00041014FF4806404F132045FEA915C3FF40D
:1006F000D8AE4FF003025FEADC0C18BF03325FEAAA
:10070000DC0C18BF033202EBDC02C2F1200300FA5A
:1007100003FC20FA02F001FA03FE40EA0E0021FA7F
:1007200002F11444BDE600BF7BB972B90029BEBF17
:1007300000204FF0004106E008BF00281CBF6FF00A
:1007400000414FF0FF3000F0D3B9ADF1080C6DE976
:1007500004CE002909DB002B1ADB00F04DF8DDF890
:1007600004E0DDE9022304B07047404261EB41013F
:10077000002B1BDB00F040F8DDF804E0DDE902238C
:1007800004B0404261EB4101524263EB43037047C6
:10079000524263EB430300F02FF8DDF804E0DDE99B
:1007A000022304B0404261EB41017047524263EBC7
:1007B000430300F021F8DDF804E0DDE9022304B092
:1007C000524263EB4303704753B94AB9002908BF4B
:1007D00000281CBF4FF0FF314FF0FF3000F088B908
:1007E000ADF1080C6DE904CE00F006F8DDF804E088
:1007F000DDE9022304B070472DE9F047089D8E46DD
:1008000004468846002B4AD18A42174662D9B2FA7A
:1008100082F64EB1C6F1200301FA06F820FA03F37E
:10082000B74043EA0808B4404FEA174E1FFA87FC66
:10083000B8FBFEF1230C0EFB118843EA084301FBD1
:100840000CF29A4209D9FB1801F1FF3080F0EA80DE
:100850009A4240F2E78002393B449A1AA3B2B2FBB3
:10086000FEF00EFB102243EA024300FB0CFC9C4509
:1008700009D9FB1800F1FF3280F0D6809C4540F288
:10088000D3803B44023840EA0140A3EB0C03002133
:100890001DB1F3400022C5E90032BDE8F0878B426C
:1008A00005D90DB1C5E9000100210846F5E7B3FA05
:1008B00083F1002946D1734502D3824200F20581BB
:1008C000841A6EEB030201209046002DE5D0C5E9A5
:1008D0000048E2E7002A00F09080B2FA82F6002E8B
:1008E00040F0A4808A1A030C4FEA174E80B2BCB2C3
:1008F0000121B2FBFEFC0EFB1C2243EA024304FB77
:100900000CF29A4207D9FB180CF1FF3802D29A4236
:1009100000F2E080C4469B1AB3FBFEF20EFB1233DA
:1009200040EA034302FB04F49C4207D9FB1802F19E
:10093000FF3002D29C4200F2CA8002461B1B42EAF0
:100940000C40A5E7C1F120068B4022FA06F71F43B1
:100950000EFA01F420FA06F32EFA06FE4FEA1749C2
:10096000234300FA01F81FFA87FCBEFBF9F01C0CC8
:1009700009FB10EE44EA0E4400FB0CFEA64502FA09
:1009800001F209D93C1900F1FF3A80F09C80A6459C
:1009900040F2998002383C44A4EB0E041FFA83FE17
:1009A000B4FBF9F309FB13444EEA044403FB0CFCCB
:1009B000A44508D93C1903F1FF3E80F08280A4458C
:1009C0007FD9023B3C4443EA0040A4EB0C04A0FB6B
:1009D00002EC64457346E14662D35FD05DB1B8EB8B
:1009E000030264EB090404FA06F622FA01F31E433B
:1009F000CC40C5E9006400214FE7B1FBF2FC010CDB
:100A000041EA0E4180B240EA01423B4638463C464C
:100A1000B846BE462026B1FBF7F1A2EB080241EA38
:100A20000C4166E7014618E710462CE7C6F12002A4
:100A30002EFA02F3B740B14020FA02F24FEA174E05
:100A40000A43B3FBFEF8BCB20EFB1833110C41EAAB
:100A5000034108FB04F9B04089454FEA104380B2D6
:100A60003ED9791808F1FF3C01D289451FD8A1EB86
:100A70000901B1FBFEF909FB04F80EFB191192B252
:100A800042EA0142424529D2BA1809F1FF31C4D2E3
:100A90004245C2D2A9F102013A44BEE7F0459DD2D7
:100AA000BEEB02036CEB070C0138E14696E7A7EBBF
:100AB00009094944A8F1020CB1FBFEF909FB04F84D
:100AC000DBE773467FE7504666E70846FDE63B44B2
:100AD000023A33E7ACF1020C3B441CE749469CE781
:100AE000A1EB0901C446B1FBFEF909FB04F8C4E718
:100AF000704700BF80B584B000AF15F091FC774B14
:100B00005B6903F40033002B1BD1BFF34F8F00BF91
:100B1000BFF36F8F00BF714B0022C3F85022BFF3A9
:100B20004F8F00BFBFF36F8F00BF6C4B5B696B4A89
:100B300043F400335361BFF34F8F00BFBFF36F8F98
:100B400000E000BF654B5B6903F48033002B38D1B4
:100B5000624B0022C3F88420BFF34F8F00BF5F4B6E
:100B6000D3F88030FB60FB685B0BC3F30E03BB6004
:100B7000FB68DB08C3F309037B60BB685A0143F6DB
:100B8000E07313407A68920754491343C1F8603206
:100B90007B685A1E7A60002BEFD1BB685A1EBA6080
:100BA000002BE5D1BFF34F8F00BF4C4B5B694B4A25
:100BB00043F480335361BFF34F8F00BFBFF36F8F98
:100BC00000E000BF3DF096FB00F0C8F800F004FC28
:100BD00000F08CFB00F0AAFB00F0DCF900F046F915
:100BE00000F066F900F0C2F900F058FA00F07EF962
:100BF00000F0E4FA00F096FA16F090FD00F0BAFA70
:100C000000F028FB00F078FA16F024FE16F01BFE28
:100C10004FF006FE32484FF0FAFE0346314A1360A9
:100C2000314A0221402050F01FF903462F4A136039
:100C30002F4A0221402050F017F903462D4A136035
:100C40002D4A01214FF4006050F00EF903462B4A63
:100C500013602B4A01214FF4807050F005F90346D0
:100C6000284A1360284A002128484FF023FE0346F3
:100C7000274A1360274A002127484FF01BFE0346EE
:100C8000264A1360264A002126484FF013FE0346E9
:100C9000254A1360254A002125484FF00BFE0346E4
:100CA000244A1360244A002124484FF003FE0346DF
:100CB000234A1360234A002123484FF0FBFD0346DB
:100CC000224A1360224A002122484FF0F3FD0346D6
:100CD000214A13604FF0C8FD00BFFDE700ED00E0C2
:100CE0009032080888D500243032080838CA002419
:100CF000483208080CCB002460320808E0CB0024FE
:100D00007832080834D400243431080881480108B6
:100D10002C6600245831080865780108D87600242C
:100D20007C310808ED500108DC760024A031080869
:100D30005151010888870024C4310808CD510108A9
:100D400034980024E831080831520108E0A8002452
:100D50000C320808955201088CB9002480B59CB06B
:100D600000AF07F124034C220021184674F046F826
:100D70003B1D20220021184674F040F8042044F066
:100D800095FD00233B60374BDB6A364A23F00103B5
:100D9000D362344BDB6A03F001033B60324B9B6947
:100DA000314A43F4404393612F4B9B6903F4404322
:100DB0003B603B6800BF2C4B9B6903F40053B3F5C9
:100DC000005FF8D12B237B624FF48033BB62012399
:100DD0003B6340237B630123BB630123FB6302234B
:100DE000BB640223FB6405233B65A0237B650223D0
:100DF000BB650423FB6502233B6608237B66002357
:100E0000BB660023FB6607F12403184646F032F860
:100E10000346002B01D015F04DFB3F237B600323DD
:100E2000BB600023FB6008233B6140237B614023C0
:100E3000BB614FF48063FB6140233B623B1D022199
:100E4000184646F0C7FD0346002B01D015F032FBD3
:100E50004FF480220021002047F02CF900BF7037AA
:100E6000BD4680BD000400580048025880B500AF60
:100E70000D4B0E4A1A600C4B00221A710A4B0022CD
:100E80005A71094B00225A61074B00229A61064BA6
:100E900001221A6204483DF0B3FD0346002B01D045
:100EA00015F008FB00BF80BD1C5F0024004C0258F9
:100EB00080B500AF0B4B0C4A1A600A4B4FF440321E
:100EC0005A60084B02229A60064B0022DA600548FD
:100ED0003EF052FC0346002B01D015F0EBFA00BFA8
:100EE00080BD00BF405F00240010005280B500AFFD
:100EF0001B4B1C4A1A601A4B1B4A5A60184B0022A3
:100F00009A60174B0122DA60154B00221A61144BCC
:100F100000225A61124B00229A61114B0022DA61C1
:100F20000F4B00221A620E483FF098FA0346002B3E
:100F300001D015F0BFFA0021094840F013F903462B
:100F4000002B01D015F0B6FA0021054840F080F9D9
:100F50000346002B01D015F0ADFA00BF80BD00BFE5
:100F6000A85F0024001C0058B634900080B500AF84
:100F7000064B074A1A60054840F0DEF90346002B8D
:100F800001D015F097FA00BF80BD00BFFC5F0024C0
:100F90000030005280B58EB000AF15F0C7FA3B1D8F
:100FA00034220021184673F029FF3A4B3A4A1A605E
:100FB000384B00225A60374B00229A60354B002292
:100FC000DA60344B00221A61324B28225A61314BCD
:100FD00009229A612F4B3522DA612E4B0B221A62BD
:100FE0002C4B40F215225A622A4B40F21B129A6295
:100FF000284B40F23522DA62264B40F21D121A636A
:10100000244B002283F83420224B002283F8352021
:10101000204B002283F836201E4842F0E5F90346B3
:10102000002B01D015F046FA00237B604FF4F073DB
:10103000BB600023FB604FF488733B6102237B613C
:10104000FF23BB610023FB614FF480633B620523F8
:101050007B624FF05043BB624FF4F073FB624FF47E
:1010600088733B63002387F83430002387F83530DA
:10107000002387F836303B1D00221946054842F010
:1010800091FB0346002B01D015F014FA00BF38374E
:10109000BD4680BD2C6100240010005080B500AF1B
:1010A000124B134A1A60114B01225A600F4B012256
:1010B0009A600E4B1022DA600C4B1A221A610B4B0D
:1010C0004FF400725A61094B00229A61074B40228B
:1010D0001A62064844F066FC0346002B01D015F066
:1010E000E9F9044815F096FA00BF80BDD4610024E8
:1010F00000500052B564010880B500AF074B084AA4
:101100001A60064B00225A6004484AF0DFFB03468F
:10111000002B01D015F0CEF900BF80BD2062002465
:101120000018024880B500AF104B114A1A600F4BEF
:1011300000225A600D4B7F229A600C4BFF22DA602E
:101140000A4B00221A61094B00229A61074B0022C8
:10115000DA61064B00225A6104484AF0BBFC0346A0
:10116000002B01D015F0A6F900BF80BD3462002429
:101170000040005880B500AF0E4B0F4A1A600D4B6F
:1011800000225A600B4B00229A600A4B4FF4004237
:10119000DA60084B00221A61064B00225A610548AA
:1011A00043F0ECFB0346002B01D015F083F900BFA0
:1011B00080BD00BF586200240070005280B500AFAF
:1011C000224B234A1A60214B4FF4E1325A601F4BE5
:1011D00000229A601D4B0022DA601C4B00221A612B
:1011E0001A4B0C225A61194B00229A61174B0022AC
:1011F000DA61164B00221A62144B00225A62134B1A
:1012000000229A6211484BF063FB0346002B01D089
:1012100015F050F900210D484EF046F90346002B19
:1012200001D015F047F9002108484EF0D7F90346E0
:10123000002B01D015F03EF904484EF0BBF80346F0
:10124000002B01D015F036F900BF80BDD06400241A
:101250000010014080B500AF224B234A1A60214B99
:101260004FF4E1325A601F4B00229A601D4B00225E
:10127000DA601C4B00221A611A4B0C225A61194B7E
:1012800000229A61174B0022DA61164B00221A6283
:10129000144B00225A62134B00229A6211484BF001
:1012A00017FB0346002B01D015F004F900210D486F
:1012B0004EF0FAF80346002B01D015F0FBF80021A0
:1012C00008484EF08BF90346002B01D015F0F2F8D8
:1012D00004484EF06FF80346002B01D015F0EAF8F1
:1012E00000BF80BD646500240044004080B582B02A
:1012F00000AF0D4BD3F8D4300B4A43F00103C2F8D2
:10130000D430094BD3F8D43003F001037B607B6801
:10131000002205217A203DF06BF97A203DF092F908
:1013200000BF0837BD4680BD0044025880B588B074
:1013300000AF3B1D00221A605A609A60DA601A61A1
:101340005A619A61214B224A1A60204B01225A604D
:101350001E4B00229A601D4B0422DA601B4B1022A8
:101360001A611A4B40225A61184B4FF480729A61ED
:10137000164B0022DA61154B4FF400621A62134BD0
:101380004FF480525A62114B00229A6202237B6012
:101390000623BB600423FB6006233B6102237B61C1
:1013A0000223BB610223FB613B1D194607484AF03B
:1013B000F3FD0346002B01D015F07CF8054815F02D
:1013C0004AF900BF2037BD4680BD00BFF865002444
:1013D00040410052B564010880B590B000AF07F1FC
:1013E0002C0300221A605A609A60DA601A61A04BDE
:1013F000D3F8E0309E4A43F48063C2F8E0309C4B5F
:10140000D3F8E03003F48063BB62BB6A984BD3F837
:10141000E030974A43F04003C2F8E030944BD3F8F1
:10142000E03003F040037B627B6A914BD3F8E030FD
:101430008F4A43F00803C2F8E0308D4BD3F8E03018
:1014400003F008033B623B6A894BD3F8E030884ADB
:1014500043F00403C2F8E030854BD3F8E03003F0EA
:101460000403FB61FB69824BD3F8E030804A43F40C
:101470008073C2F8E0307E4BD3F8E03003F4807321
:10148000BB61BB697A4BD3F8E030794A43F0100373
:10149000C2F8E030764BD3F8E03003F010037B6104
:1014A0007B69734BD3F8E030714A43F00203C2F812
:1014B000E0306F4BD3F8E03003F002033B613B694F
:1014C0006B4BD3F8E0306A4A43F40073C2F8E03063
:1014D000674BD3F8E03003F40073FB60FB68644BA8
:1014E000D3F8E030624A43F00103C2F8E030604BC9
:1014F000D3F8E03003F00103BB60BB685C4BD3F86A
:10150000E0305B4A43F02003C2F8E030584BD3F898
:10151000E03003F020037B607B68554BD3F8E0306C
:10152000534A43F08003C2F8E030514BD3F8E03027
:1015300003F080033B603B68002208214D483EF0E9
:1015400025FF01224FF400514B483EF01FFF0022BF
:1015500008214A483EF01AFF0022402148483EF048
:1015600015FF0122042147483EF010FF0823FB62CB
:1015700001233B6300237B630023BB6307F12C0340
:1015800019463C483EF0ECFA4FF48073FB620223AC
:101590003B6300237B630023BB630023FB6307F1F2
:1015A0002C03194636483EF0DBFA4FF40053FB6239
:1015B00001233B6300237B630023BB6307F12C0300
:1015C00019462D483EF0CCFA0823FB6201233B6309
:1015D00000237B630323BB6307F12C0319462748D1
:1015E0003EF0BEFA0423FB624FF404133B63002376
:1015F0007B6307F12C03194620483EF0B1FA4FF403
:101600004063FB6202233B6301237B630323BB63D1
:101610000723FB6307F12C0319461B483EF0A0FA91
:101620004023FB6201233B6300237B630323BB63F3
:1016300007F12C03194612483EF092FA0423FB628C
:1016400001233B6300237B630023BB6307F12C036F
:1016500019460C483EF084FA0022052108203CF08F
:10166000C7FF08203CF0EEFF00BF4037BD4680BDFD
:1016700000440258000C025800200258001802587A
:1016800000000258002402580004025890B587B0A8
:1016900002AFF860B9607A606FF0010200212A4859
:1016A00054F045FD0346294A1360284B1B68002B64
:1016B00018D10023009300231022F968224854F027
:1016C000DBFC0346214A1360204B1B68002B0BD127
:1016D0001023BA6879681C4854F06BFD03461B4A16
:1016E000136002E000BF00E000BF174854F03CFD6B
:1016F000164B1B68002B20D0154B1B6841F288311C
:1017000018464FF00AFA114B1B68124A1249134847
:1017100073F05EFA1148FEF7EDFD03469CB20F48E8
:10172000FEF7E8FD034622460C490D484BF09EF9B2
:10173000074B1B6818464FF03BFA044B1B681846D2
:101740001437BD4690BD00BF74160124AC170124A8
:1017500088D50024D032080838700708DCD500246A
:10176000D064002490B583B000AF0446084611460B
:101770001A462346FB710346BB710B467B71134629
:101780003B71FB796433114A5361BB79013B0F4ACA
:1017900013617B790D4AD3603B790C4A93603B7EA1
:1017A0000A4A53603B7F094A1360084873F054FCAF
:1017B00002460B460649C1E90023054BD3E9002345
:1017C000134618460C37BD4690BD00BFB017012424
:1017D000D817012480B485B000AF78600F23FB6078
:1017E0000CE0FB687A6813441A780132D2B21A709E
:1017F0001B78002B06D1FB68013BFB60FB68002BCC
:10180000EFDA00E000BF00BF1437BD465DF8047B8F
:101810007047000090B585B000AFF860B9607A609D
:10182000FB6810220021184673F0E8FAFB681033B9
:1018300010220021184673F0E1FA20237A68B96873
:10184000514800F0DDFE514B1B6841F288311846CB
:101850004FF063F94E4A4F494F4873F0B9F94E487B
:10186000FEF748FD03469CB24B48FEF743FD034696
:101870002246494949484BF0F9F8444B1B68184641
:101880004FF096F9002300222021B86800F016FBE3
:101890003E4B1B6841F2883118464FF03EF93C4AF6
:1018A0003F493D4873F094F93B48FEF723FD03465A
:1018B0009CB23948FEF71EFD03462246364937489A
:1018C0004BF0D4F8314B1B6818464FF071F90023E8
:1018D00000222021786800F0F1FA2C4B1B6841F2BD
:1018E000883118464FF019F9294A2E492A4873F0D1
:1018F0006FF92948FEF7FEFC03469CB22648FEF726
:10190000F9FC03462246244924484BF0AFF81F4B0C
:101910001B6818464FF04CF90023002220211A487A
:1019200000F0CCFA1849F86800F042F803461E4A65
:1019300013601D4B1B68002B20D0144B1B6841F219
:10194000883118464FF0E9F8174B1B68104A1749C1
:10195000114873F03DF91048FEF7CCFC03469CB2E9
:101960000D48FEF7C7FC034622460B490B484BF0D7
:101970007DF8064B1B6818464FF01AF90A4B1B6896
:1019800018461437BD4690BDE017012488D50024C1
:10199000E832080864700708DCD50024D06400240D
:1019A0007470070890700708001801243870070841
:1019B000B0B584B000AF786039608D4B1B6841F2E0
:1019C000883118464FF0A9F88A4A8B498B4873F042
:1019D000FFF88A48FEF78EFC03469CB28748FEF764
:1019E00089FC03462246854985484BF03FF8804BE9
:1019F0001B6818464FF0DCF87B6810331846FFF779
:101A0000E9FE78687B6810337E4A1946FFF73EFE90
:101A100003467D4A13607C4B1B68002B40F0BA8064
:101A20007A4A784B14460FCB84E80F007B6810335A
:101A30001846FFF7CFFE78687B681033714A194665
:101A4000FFF724FE0346704A13606F4B1B68002BA0
:101A500040F0A2806E4A6B4B14461D460FCD2060AD
:101A60006160A260E3600023FB6011E0674AFB68ED
:101A700013441A78FB6839680B441B785340D9B279
:101A8000624AFB6813440A461A70FB680133FB6024
:101A9000FB681F2BEAD9564B1B6841F28831184668
:101AA0004FF03BF8534A5B49544873F091F8534860
:101AB000FEF720FC03469CB25048FEF71BFC034691
:101AC00022464E494E484AF0D1FF494B1B68184602
:101AD0004FF06EF80023002220214C4800F0EEF970
:101AE0007B6810224949184674F055F87B6810331A
:101AF00010224749184674F04EF83D4B1B6841F2DE
:101B0000883118464FF009F83A4A43493B4873F088
:101B10005FF83A48FEF7EEFB03469CB23748FEF703
:101B2000E9FB03462246354935484AF09FFF304BD2
:101B30001B6818464FF03CF87868002300221021FB
:101B400000F0BCF92A4B1B6841F2883118464EF070
:101B5000E4FF284A3149294873F03AF82748FEF74C
:101B6000C9FB03469CB22548FEF7C4FB0346224648
:101B7000224923484AF07AFF1D4B1B6818464FF054
:101B800017F87B6803F1100000230022102100F0F9
:101B900095F902E000BF00E000BF1B4B1B68002B63
:101BA00020D0134B1B6841F2883118464EF0B5FF28
:101BB000154B1B680F4A1A49104873F009F80F4873
:101BC000FEF798FB03469CB20C48FEF793FB0346D6
:101BD00022460A490A484AF049FF054B1B68184645
:101BE0004EF0E6FF084B1B6818461037BD46B0BDE7
:101BF00088D5002404330808A0700708DCD5002429
:101C0000D064002404180124141801241818012495
:101C100028180124B8700708E4700708F470070852
:101C20003870070890B583B000AF7860544B1B68DC
:101C300018464FF04BFA03469AB2524B1A80514B5A
:101C40001B88002B00F095804F4B1B6841F28831B8
:101C500018464EF062FF4B4B1B884C4A4C494D488E
:101C600072F0B6FF4B48FEF745FB03469CB249486D
:101C7000FEF740FB03462246464947484AF0F6FE37
:101C8000414B1B6818464EF093FF444B00221A80CC
:101C90003CE03B4B18680023002241494FF0B8F963
:101CA0000346404A13603F4B1B68002B20D0364B45
:101CB0001B6841F2883118464EF02FFF394B1B68E4
:101CC000324A3949334872F083FF3248FEF712FB3B
:101CD00003469CB22F48FEF70DFB034622462D49D2
:101CE0002D484AF0C3FE284B1B6818464EF060FF93
:101CF0002A4B1B881A467B681344294A12781A70AB
:101D0000264B1B8801339AB2244B1A801C4B1B684C
:101D100018464FF0DBF90346002B05D01F4B1B88FC
:101D200040F6FD729342B4D91C4B1A88154B1A80A9
:101D3000154B1B6841F2883118464EF0EEFE114BF0
:101D40001B88124A1949134872F042FF1148FEF7E6
:101D5000D1FA03469CB20F48FEF7CCFA034622465E
:101D60000C490D484AF082FE074B1B6818464EF09E
:101D70001FFF044B1B8818460C37BD4690BD00BFA3
:101D800034D400243818012488D500241C330808D2
:101D900000710708DCD50024D06400243A1801241F
:101DA0003C180124401801242871070860710708B5
:101DB00090B583B000AF78607B681B682F4A934270
:101DC00016D12F4B1A782F4B1A702F4B18680023FF
:101DD00000222C494FF0BCF803462C4A1360012224
:101DE00027492B484AF0D0FE03461A46294B1A7061
:101DF0007B681B68284A93423BD1284B1A78284BB2
:101E00001A70284B18680023002225494FF0A0F8CB
:101E100003461E4A13601D4B1B68002B20D0224B2B
:101E20001B6841F2883118464EF077FE174B1B684D
:101E30001E4A1F491F4872F0CBFE1E48FEF75AFA91
:101E400003469CB21B48FEF755FA03462246194941
:101E50000F484AF00BFE144B1B6818464EF0A8FEC4
:101E600001220E4914484AF08FFE03461A46094BD8
:101E70001A7000BF0C37BD4690BD00BF0010014076
:101E800011EE00244418012434D4002448180124FD
:101E9000D06400244C1801240044004010EE0024BB
:101EA0004D180124E0CB002488D5002438330808DD
:101EB00088710708DCD500246465002490B585B0DE
:101EC00000AFF8607B600B467B8113467B727D4BD5
:101ED00000221A805AE17B7A002B2AD0794B1B888A
:101EE00003F00F039BB2002B23D1774B1B6841F209
:101EF000883118464EF011FE724B1B881A467B68DB
:101F000013441A467149724872F062FE7048FEF737
:101F1000F1F903469CB26E48FEF7ECF903462246FF
:101F20006B496C484AF0A2FD674B1B6818464EF09F
:101F30003FFE654B1B6841F2883118464EF0EDFDBF
:101F4000604B1B881A46FB6813441B781A4662498B
:101F50005F4872F03DFE5E48FEF7CCF903469CB246
:101F60005B48FEF7C7F903462246594959484AF0EB
:101F70007DFD554B1B6818464EF01AFE524B1B68F0
:101F800041F2883118464EF0C8FD5449504872F06D
:101F90001FFE4F48FEF7AEF903469CB24C48FEF7D1
:101FA000A9F9034622464A494A484AF05FFD464B92
:101FB0001B6818464EF0FCFD424B1B8803F00F03D4
:101FC0009BB2072B1DD1404B1B6841F2883118464C
:101FD0004EF0A3FD42493E4872F0FAFD3C48FEF740
:101FE00089F903469CB23A48FEF784F90346224633
:101FF000374938484AF03AFD334B1B6818464EF0D3
:10200000D7FD304B1B8803F00F039BB20F2B40F022
:10201000B7802D4B1B6841F2883118464EF07DFD8C
:102020002F492B4872F0D4FD2948FEF763F9034687
:102030009CB22748FEF75EF903462246244925480C
:102040004AF014FD204B1B6818464EF0B1FD1D4BA5
:102050001B880F3B9AB2234B1A806DE0214B1B88E3
:102060001A46FB6813441B7801331F4A13441B783C
:1020700003F09703002B3BD0134B1B6841F28831D0
:1020800018464EF04AFD174B1B881A46FB6813444E
:102090001B781A4615490E4872F09AFD0C48FEF757
:1020A00029F903469CB20A48FEF724F90346224662
:1020B000074908484AF0DAFC034B1B6818464EF003
:1020C00077FD33E04E18012488D50024C07107083D
:1020D000DCD50024D0640024D4710708DC71070823
:1020E000E07107085018012410910808E8710708EA
:1020F000A84B1B6841F2883118464EF00EFDA649E8
:10210000A64872F065FDA548FEF7F4F803469CB2B8
:10211000A248FEF7EFF803462246A049A0484AF03D
:10212000A5FC9C4B1B6818464EF042FD9D4B1B883E
:1021300001339AB29B4B1A809B4B1A88994B1B8890
:102140009A428BD2934B1B6841F2883118464EF06D
:10215000E4FC9649914872F03BFD9048FEF7CAF8BE
:1021600003469CB28D48FEF7C5F8034622468B49CC
:102170008B484AF07BFC874B1B6818464EF018FDD5
:10218000894B1B8801339AB2874B1A80864B1B8878
:102190007A899A423FF69FAE7B8903F00F039BB288
:1021A000002B00F0F3807B8903F00F039AB27D4B84
:1021B0001A8023E0774B1B6841F2883118464EF0B5
:1021C000ACFC7B49754872F003FD7448FEF792F849
:1021D00003469CB27148FEF78DF8034622466F49CC
:1021E0006F484AF043FC6B4B1B6818464EF0E0FC0E
:1021F0006C4B1B8801339AB26A4B1A80694B1B885F
:102200000F2BD7D97B8903F008039BB2002B1DD17C
:10221000604B1B6841F2883118464EF07EFC6549E0
:102220005E4872F0D5FC5D48FEF764F803469CB248
:102230005A48FEF75FF803462246584958484AF084
:1022400015FC544B1B6818464EF0B2FC514B1B68F2
:1022500041F2883118464EF060FC56494F4872F002
:10226000B7FC4E48FEF746F803469CB24B48FEF7D3
:1022700041F803462246494949484AF0F7FB454B95
:102280001B6818464EF094FC7B8923F00F039AB22A
:10229000444B1A8057E0434B1B881A46FB68134493
:1022A0001B780133444A13441B7803F09703002B37
:1022B00025D0384B1B6841F2883118464EF02DFC72
:1022C000384B1B881A46FB6813441B781A463B4957
:1022D000324872F07DFC3148FEF70CF803469CB2A0
:1022E0002E48FEF707F8034622462C492C484AF0B0
:1022F000BDFB284B1B6818464EF05AFC1DE0254BD1
:102300001B6841F2883118464EF007FC22492348E9
:1023100072F05EFC2148FDF7EDFF03469CB21F48BA
:10232000FDF7E8FF034622461C491D484AF09EFB84
:10233000184B1B6818464EF03BFC1A4B1B880133A8
:102340009AB2184B1A80174B1B887A899A42A2D8E6
:10235000104B1B6841F2883118464EF0DEFB1349E2
:102360000E4872F035FC0D48FDF7C4FF03469CB2E1
:102370000A48FDF7BFFF03462246084908484AF0CD
:1023800075FB044B1B6818464EF012FC00BF143757
:10239000BD4690BD88D50024EC710708DCD500242B
:1023A000D0640024501801244E180124F07107084D
:1023B000F4710708E071070810910808E871070830
:1023C00090B583B002AF654B1B684FF47A71184625
:1023D0004EF0A3FB6249634872F0FAFB6148FDF7D7
:1023E00089FF03469CB25F48FDF784FF03462246FF
:1023F0005C495D484AF03AFB59495A4872F0E8FB9B
:102400005848FDF777FF03469CB25648FDF772FF28
:1024100003462246534954484AF028FB5049514844
:1024200072F0D6FB4F48FDF765FF03469CB24D485E
:10243000FDF760FF034622464A494B484AF016FB27
:102440004A49484872F0C4FB4648FDF753FF03462B
:102450009CB24448FDF74EFF03462246414942489C
:102460004AF004FB42493F4872F0B2FB3D48FDF799
:1024700041FF03469CB23B48FDF73CFF0346224622
:10248000384939484AF0F2FA3A49364872F0A0FB26
:102490003448FDF72FFF03469CB23248FDF72AFF70
:1024A000034622462F4930484AF0E0FA412301937F
:1024B000314B0093314B314A31492A4872F088FB45
:1024C0002848FDF717FF03469CB22648FDF712FF88
:1024D00003462246234924484AF0C8FA294A2A4991
:1024E000204872F075FB1F48FDF704FF03469CB2BD
:1024F0001C48FDF7FFFE034622461A491A484AF0D7
:10250000B5FA2249174872F063FB1648FDF7F2FE50
:1025100003469CB21348FDF7EDFE034622461149DF
:1025200011484AF0A3FA12490E4872F051FB0D48C7
:10253000FDF7E0FE03469CB20A48FDF7DBFE0346CA
:102540002246084908484AF091FA044B1B6818468D
:102550004EF02EFB00BF0437BD4690BD88D5002449
:10256000F8710708DCD50024D06400242472070821
:102570002C72070874720708F0720708BC7207080B
:10258000C0720708F4720708007307082873070869
:1025900080B483B000AF0346FB80FB881B02FA883F
:1025A000120A92B2134318460C37BD465DF8047BFD
:1025B000704780B483B000AF78607B681A0E7B6888
:1025C0001B0A03F47F431A437B681B0203F47F0357
:1025D0001A437B681B06134318460C37BD465DF84B
:1025E000047B704780B500AF0349044849F01CFAEA
:1025F000014B1B68184680BD54180124206200243A
:1026000080B487B000AFF860B9607A607B80002347
:10261000FB8210E0FB8ABA6813441978FB8A7A6857
:1026200013441A78FB8AF86803444A40D2B21A70FD
:10263000FB8A0133FB82FA8A7B889A42EAD300BF85
:1026400000BF1C37BD465DF8047B704790B58BB06A
:1026500004AF03463960FB800023BB82FB88002B5C
:1026600023D0FB88A3F58073002B00DA0733DB103F
:10267000FB75FB88DBB203F00703BB75FB880133F6
:102680003B823B8AA3F58073002B00DA0733DB1013
:10269000FB753B8AA3F580735A4203F0070302F0EF
:1026A000070258BF5342BB7503E00023FB750023AC
:1026B000BB75FB7DFB7454E0BB7DBB7449E0FB7CC8
:1026C0003A6813441B781A46BB7C42FA03F303F0C2
:1026D0000103002B3AD0FB7C20339BB2DB009AB283
:1026E000BB7C9BB21344BB82FB7CFB73BB7CBB7388
:1026F000314B1B6841F2883118464EF00EFAB88A09
:10270000FB7BBA7BB97B012404FA01F102910192AF
:1027100000930346294A2A492A4872F059FA29485F
:10272000FDF7E8FD03469CB22648FDF7E3FD0346AE
:102730002246244924484AF099F91F4B1B68184641
:102740004EF036FA0823BB748023FB74BB7C013344
:10275000BB74BB7C072BB2D90023BB75FB7C013358
:10276000FB7497F91330002BA6DABB8A002B1ED11D
:10277000114B1B6841F2883118464EF0CEF90F4AD2
:102780001249104872F024FA0E48FDF7B3FD0346D3
:102790009CB20C48FDF7AEFD0346224609490A48A3
:1027A0004AF064F9044B1B6818464EF001FABB8AE4
:1027B00018461C37BD4690BD88D500245033080804
:1027C00024740708DCD50024D06400248074070832
:1027D000B0B588B002AF0346FB71FB79002B45D141
:1027E0008B4B1B6841F2883118464EF096F9894AA6
:1027F00089498A4872F0ECF98848FDF77BFD034669
:102800009CB28648FDF776FD0346224683498448FC
:102810004AF02CF97E4B1B6818464EF0C9F9814BE3
:1028200000221A607A4B1B6841F2883118464EF03C
:1028300074F9784A7C49794872F0CAF97748FDF70B
:1028400059FD03469CB27548FDF754FD03462246E8
:10285000724973484AF00AF96D4B1B6818464EF0EE
:10286000A7F9724B00221A7000F09FBDFB79012B73
:1028700040F03C856E4B9A786E4B1B789A4208D09C
:102880006B4B9A786B4B1A70664B1B680133654A29
:102890001360644B1B683C2B26D9624B00221A60E4
:1028A0005B4B1B6841F2883118464EF036F9624B9B
:1028B0001B78584A6149594872F08AF95748FDF720
:1028C00019FD03469CB25548FDF714FD0346224608
:1028D000524953484AF0CAF84D4B1B6818464EF00F
:1028E00067F9524B0B221A70504B1B78002B5BD1AF
:1028F000514B1B781946524A582301FB03F31344EA
:1029000014331B78052B40F0508510F0B1FB0346C3
:102910001A464C4B1A70502200214B4872F06EFA46
:10292000494B9F221A70484B04225A70424B1B7825
:102930001946434A582301FB03F3134416331888FE
:10294000404B1B78009301233F4A02210FF0B2FB5A
:10295000344B00221A603D4B00221A702C4B1B682E
:1029600041F2883118464EF0D8F8334B1B78294A8B
:1029700037492A4872F02CF92848FDF7BBFC03467A
:102980009CB22648FDF7B6FC03462246234924485C
:102990004AF06CF81E4B1B6818464EF009F9234BA1
:1029A00001221A7000F001BD204B1B78012B40F072
:1029B000B781264B1B78002B00F0F784254B1B7842
:1029C000002B4BD1124B1B6841F2883118464EF058
:1029D000A4F8194B1B780F4A1F49104872F0F8F8F9
:1029E0000E48FDF787FC03469CB20C48FDF782FCBD
:1029F0000346224609490A484AF038F8044B1B6846
:102A000018464EF0D5F8094B0B221A7000F0CDBCD9
:102A100088D500246C330808A8740708DCD5002486
:102A2000D064002458180124BC7407085C180124E1
:102A3000DCED00241600002414000024EC740708C8
:102A400034120124EC1301246018012477140124AA
:102A50003C75070878140124787507089E4B0022FE
:102A60001A6010F005FB03461A469C4B1A70502260
:102A700000219B4872F0C2F9994B9F221A70984B23
:102A800006225A70964B00229A70954B0222DA70F9
:102A9000934B01221A71934B1B781946924A582383
:102AA00001FB03F3134411331B7803F00403002BE1
:102AB00022D08E4B1B6841F2883118464EF02DF81B
:102AC0008B4A8C498C4872F083F88B48FDF712FCD6
:102AD00003469CB28848FDF70DFC03462246864912
:102AE000864849F0C3FF814B1B6818464EF060F8DA
:102AF0007B4B04225A7183E07A4B1B7819467A4A41
:102B0000582301FB03F3134411331B7803F0020332
:102B1000002B22D0754B1B6841F2883118464DF0CE
:102B2000FCFF734A7649744872F052F87248FDF718
:102B3000E1FB03469CB27048FDF7DCFB03462246EE
:102B40006D496E4849F092FF684B1B6818464EF07D
:102B50002FF8634B02225A7152E0624B1B781946E0
:102B6000614A582301FB03F3134411331B7803F02C
:102B70000103002B22D05D4B1B6841F288311846BF
:102B80004DF0CBFF5A4A5F495B4872F021F85A4832
:102B9000FDF7B0FB03469CB25748FDF7ABFB03467D
:102BA00022465549554849F061FF504B1B6818466D
:102BB0004DF0FEFF4A4B01225A7121E04B4B1B683E
:102BC00041F2883118464DF0A8FF494A4E494A481B
:102BD00071F0FEFF4848FDF78DFB03469CB2464866
:102BE000FDF788FB034622464349444849F03EFF2F
:102BF0003E4B1B6818464DF0DBFF394B00225A71E3
:102C00003A4B1B6841F2883118464DF086FF354B30
:102C10001B78374A3D49384871F0DAFF3648FDF7EE
:102C200069FB03469CB23448FDF764FB0346224629
:102C30003149324849F01AFF2C4B1B6818464DF0B9
:102C4000B7FF284B1B781846254B5979264A58233D
:102C500000FB03F3134412330A461A70214B1B780E
:102C60001946214A582301FB03F3134416331888ED
:102C70001A4B1B7800930123194A06210FF01AFA08
:102C8000234B00221A70234B00221A70174B1B682B
:102C900041F2883118464DF040FF124B1B78144A20
:102CA0001D49154871F094FF1348FDF723FB0346B7
:102CB0009CB21148FDF71EFB034622460E490F4801
:102CC00049F0D4FE094B1B6818464DF071FF134BB9
:102CD00002221A7069E300BF58180124EC13012482
:102CE00060180124140000243412012488D5002423
:102CF0006C330808B8750708DCD50024D0640024BC
:102D0000D4750708F4750708187607086876070869
:102D1000791401247A1401248C7607085C180124A4
:102D20006D4B1B78022B40F0F9806C4B1B78002B0D
:102D300000F03B836A4B1B78002B24D0694B1B6847
:102D400041F2883118464DF0E8FE674B1B78674A20
:102D50006749684871F03CFF6648FDF7CBFA0346C7
:102D60009CB26448FDF7C6FA0346224661496248B0
:102D700049F07CFE5B4B1B6818464DF019FF564B23
:102D80000B221A7011E35D4B00221A6010F070F9EB
:102D900003461A465A4B1A7050220021594872F0C5
:102DA0002DF8584B9F221A70564B08225A70554BDB
:102DB00001229A70534B544ADC1C15460FCD2060FB
:102DC0006160A260E3600FCD20616161A261E36197
:102DD000454B1B7819464D4A582301FB03F3134416
:102DE00016331888464B1B7800930123454A23214C
:102DF0000FF060F9464B00221A703A4B1B6841F203
:102E0000883118464DF089FE374B1B78374A4149C7
:102E1000384871F0DDFE3748FDF76CFA03469CB286
:102E20003448FDF767FA034622463249324849F0F2
:102E30001DFE2C4B1B6818464DF0BAFE264B032294
:102E40001A7010F089FEF860FB68002B00F0AD826C
:102E5000244B1B6841F2883118464DF05EFE234A30
:102E60002D49244871F0B4FE2248FDF743FA034689
:102E70009CB22048FDF73EFA034622461D491E48F3
:102E800049F0F4FD174B1B6818464DF091FE154BA9
:102E90001B6841F2883118464DF03FFE124B1B78FB
:102EA000124A1349134871F093FE1248FDF722FAB3
:102EB00003469CB20F48FDF71DFA034622460D4912
:102EC0000D4849F0D3FD074B1B6818464DF070FEC6
:102ED000014B0B221A7068E25C180124791401245A
:102EE0007A14012488D50024140000246C330808C7
:102EF000D0760708DCD50024D064002458180124BB
:102F0000EC130124601801248014012434120124DC
:102F10007B1401241477070864770708904B1B780B
:102F2000032B40F045818F4B1B78002B00F03D8236
:102F30008D4B00221A6010F09BF803461A468B4B0B
:102F40001A70502200218A4871F058FF884B9F2246
:102F50001A70874B02225A70844B1A78844B9A70ED
:102F6000834B0122DA70834855F0EFF838613B69F2
:102F7000002B1FD0804B1B6841F2883118464DF062
:102F8000CCFD3B697D4A7E497E4871F021FE7D483B
:102F9000FDF7B0F903469CB27A48FDF7ABF903465A
:102FA00022467849784849F061FD734B1B68184602
:102FB0004DF0FEFD102275496E4855F031F938612B
:102FC0003B69002B1FD06C4B1B6841F288311846BF
:102FD0004DF0A3FD3B69694A6D496A4871F0F8FDFF
:102FE0006848FDF787F903469CB26648FDF782F909
:102FF000034622466349644849F038FD5E4B1B682E
:1030000018464DF0D5FD5C4B1B6841F288311846DF
:103010004DF083FD594A5F495A4871F0D9FD59482E
:10302000FDF768F903469CB25648FDF763F903467D
:1030300022465449544849F019FD4F4B1B68184625
:103040004DF0B6FD4A4B514A1C1D13460FCB84E888
:103050000F00484855F03BF938613B69002B1FD001
:10306000454B1B6841F2883118464DF056FD3B69CF
:10307000424A4949434871F0ABFD4248FDF73AF9ED
:1030800003469CB23F48FDF735F9034622463D49C9
:103090003D4849F0EBFC384B1B6818464DF088FD65
:1030A000354B1B6841F2883118464DF036FD334AE6
:1030B0003A49344871F08CFD3248FDF71BF903465C
:1030C0009CB23048FDF716F9034622462D492E489A
:1030D00049F0CCFC284B1B6818464DF069FD0023D5
:1030E000002210212948FEF7E9FE2D4B1B781946D6
:1030F0002C4A582301FB03F31344163318881B4B47
:103100001B78009301231A4A14210EF0D3FF264B9B
:1031100000221A70184B1B6841F2883118464DF096
:10312000FCFC1F4B1B78154A2049164871F050FDD6
:103130001448FDF7DFF803469CB21248FDF7DAF8B1
:10314000034622460F49104849F090FC0A4B1B6881
:1031500018464DF02DFD024B04221A7025E100BFE8
:103160005C1801247B14012458180124EC13012459
:1031700060180124C014012488D500246C33080889
:10318000A8770708DCD50024D064002400150124AA
:10319000E07707082478070868780708A078070808
:1031A00014000024341201247C140124E078070860
:1031B000834B1B78042B75D1824B1B78002B00F0BE
:1031C000F480814B00221A6010F0F6FF78617F4B8B
:1031D0001B6841F2883118464DF09FFC7C4B1B78F0
:1031E0007C4A7D497D4871F0F3FC7C48FDF782F80C
:1031F00003469CB27948FDF77DF80346224677499D
:10320000774849F033FC714B1B6818464DF0D0FCF1
:103210006B4B05221A707B69002B00F0C6806B4B4C
:103220001B6841F2883118464DF077FC6D496B48B8
:1032300071F0CEFC6948FDF75DF803469CB2674823
:10324000FDF758F8034622466449654849F00EFCEC
:103250005E4B1B6818464DF0ABFC5C4B1B6841F2A3
:10326000883118464DF059FC594B1B78594A5E4934
:103270005A4871F0ADFC5948FDF73CF803469CB242
:103280005648FDF737F8034622465449544849F05A
:10329000EDFB4E4B1B6818464DF08AFC484B0B2249
:1032A0001A7082E0464B1B78052B7ED0444B1B786E
:1032B000062B7AD0424B1B78072B76D0404B1B78DD
:1032C000082B72D03E4B1B78092B6ED03C4B1B78E1
:1032D0000A2B03D1454B01221A7066E0384B1B784C
:1032E0000B2B62D1424B01221A705EE0FB79022B5C
:1032F0005BD0364B1B6841F2883118464DF00DFC0F
:103300003C49364871F064FC3448FCF7F3FF03464F
:103310009CB23248FCF7EEFF034622462F49304864
:1033200049F0A4FB294B1B6818464DF041FC274B84
:103330001B6841F2883118464DF0EFFBFB79254AB6
:103340002D49264871F044FC2448FCF7D3FF03467E
:103350009CB22248FCF7CEFF034622461F49204874
:1033600049F084FB194B1B6818464DF021FC174BA4
:103370001B6841F2883118464DF0CFFB1D491748B4
:1033800071F026FC1548FCF7B5FF03469CB21348C4
:10339000FCF7B0FF034622461049114849F066FB8E
:1033A0000A4B1B6818464DF003FC054B1A78134B6B
:1033B0001A70034B1B7818461837BD46B0BD00BFC6
:1033C0005C1801247C1401245818012488D5002499
:1033D000140000246C33080834790708DCD5002475
:1033E000D064002488790708C879070805EE00240E
:1033F00006EE0024107A07086C7A07087614012478
:1034000098B500AF7C4B1B6841F2883118464DF0EF
:1034100084FB7A497A4871F0DBFB7948FCF76AFF54
:1034200003469CB27648FCF765FF03462246744982
:10343000744849F01BFB704B1B6818464DF0B8FBF5
:10344000714B181D704B5B78033B99B2002300222F
:10345000FEF734FD684B1B6841F2883118464DF089
:103460005CFB694B1B79694A6949654871F0B0FB9F
:103470006348FCF73FFF03469CB26148FCF73AFF04
:10348000034622465E495F4849F0F0FA5A4B1B68F2
:1034900018464DF08DFB584B1B6841F28831184699
:1034A0004DF03BFB584B5B79584A5A49544871F0F0
:1034B0008FFB5348FCF71EFF03469CB25048FCF7B5
:1034C00019FF034622464E494E4849F0CFFA4A4B6F
:1034D0001B6818464DF06CFB4B4B5B79032B00F2DD
:1034E000A38001A252F823F0F9340008393500080E
:1034F00079350008B93500083F4B1B6841F2883127
:1035000018464DF00AFB414A43493D4871F060FBC3
:103510003B48FCF7EFFE03469CB23948FCF7EAFE55
:10352000034622463649374849F0A0FA324B1B6819
:1035300018464DF03DFB97E02F4B1B6841F2883158
:1035400018464DF0EAFA314A34492D4871F040FBF3
:103550002B48FCF7CFFE03469CB22948FCF7CAFE75
:10356000034622462649274849F080FA224B1B6829
:1035700018464DF01DFB77E01F4B1B6841F2883168
:1035800018464DF0CAFA214A25491D4871F020FB22
:103590001B48FCF7AFFE03469CB21948FCF7AAFE95
:1035A000034622461649174849F060FA124B1B6839
:1035B00018464DF0FDFA57E00F4B1B6841F2883179
:1035C00018464DF0AAFA114A16490D4871F000FB51
:1035D0000B48FCF78FFE03469CB20948FCF78AFEB5
:1035E000034622460649074849F040FA024B1B6849
:1035F00018464DF0DDFA37E088D50024147B070823
:10360000DCD50024D0640024C00801248C330808D1
:10361000587B0708987B0708D87B0708F07B0708CA
:103620001C7C0708547C0708B24B1B6841F28831A8
:1036300018464DF072FAB04AB049B14871F0C8FA74
:10364000AF48FCF757FE03469CB2AD48FCF752FE6C
:1036500003462246AA49AB4849F008FAA54B1B6825
:1036600018464DF0A5FA00BFA24B1B6841F2883105
:1036700018464DF052FAA44B9B791B02A24AD2790C
:1036800013449D4AA1499E4871F0A2FA9C48FCF758
:1036900031FE03469CB29A48FCF72CFE03462246B4
:1036A0009749984849F0E2F9924B1B6818464DF04B
:1036B0007FFA904B1B6841F2883118464DF02DFA85
:1036C000914B1B7A8C4A92498D4871F081FA8C4853
:1036D000FCF710FE03469CB28948FCF70BFE03463C
:1036E00022468749874849F0C1F9824B1B68184632
:1036F0004DF05EFA7F4B1B6841F2883118464DF061
:103700000CFA814B5B7A7C4A82497D4871F060FA01
:103710007B48FCF7EFFD03469CB27948FCF7EAFDD5
:10372000034622467649774849F0A0F9714B1B6859
:1037300018464DF03DFA6F4B1B6841F28831184630
:103740004DF0EBF9704B9B7A6B4A73496C4871F002
:103750003FFA6B48FCF7CEFD03469CB26848FCF785
:10376000C9FD034622466649664849F07FF9614B28
:103770001B6818464DF01CFA5E4B1B6841F28831FD
:1037800018464DF0CAF9604BDB7A5B4A63495C48E6
:1037900071F01EFA5A48FCF7ADFD03469CB258483A
:1037A000FCF7A8FD034622465549564849F05EF904
:1037B000504B1B6818464DF0FBF94E4B1B6841F20D
:1037C000883118464DF0A9F94F4B1B7B4A4A5449A2
:1037D0004B4871F0FDF94A48FCF78CFD03469CB25A
:1037E0004748FCF787FD034622464549454849F0CE
:1037F0003DF9404B1B6818464DF0DAF93D4B1B680C
:1038000041F2883118464DF088F93F4B5B7B3A4ACC
:1038100044493B4871F0DCF93948FCF76BFD03463D
:103820009CB23748FCF766FD0346224634493548CA
:1038300049F01CF92F4B1B6818464DF0B9F92D4B78
:103840001B6841F2883118464DF067F92E4B9B7B7F
:10385000294A35492A4871F0BBF92948FCF74AFD45
:1038600003469CB22648FCF745FD03462246244900
:10387000244849F0FBF81F4B1B6818464DF098F997
:103880001C4B1B6841F2883118464DF046F91E4B1F
:10389000DB7B194A25491A4871F09AF91848FCF758
:1038A00029FD03469CB21648FCF724FD0346224638
:1038B0001349144849F0DAF80E4B1B6818464DF0CE
:1038C00077F90C4B1B6841F2883118464DF025F909
:1038D0000D4B1B7C084A1649094871F079F90848D4
:1038E000FCF708FD03469CB20548FCF703FD0346C0
:1038F00022461FE088D500248C330808807C070806
:10390000DCD50024D0640024C0080124B07C070862
:10391000F07C0708307D0708707D0708B07D070838
:10392000F07D0708307E0708707E0708B07E070824
:10393000F07E0708A549A64849F098F8A54B1B68F2
:1039400018464DF035F9A34B1B6841F288311846F3
:103950004DF0E3F8A04B5B7CA04AA1499B4871F075
:1039600037F99A48FCF7C6FC03469CB29748FCF727
:10397000C1FC034622469549954849F077F8954B96
:103980001B6818464DF014F9924B1B6841F28831C0
:1039900018464DF0C2F8904B9B7C904A91498B4859
:1039A00071F016F98948FCF7A5FC03469CB28748DC
:1039B000FCF7A0FC034622468449854849F056F8A6
:1039C000844B1B6818464DF0F3F8824B1B6841F29C
:1039D000883118464DF0A1F87F4BDB7C7F4A824945
:1039E0007A4871F0F5F87948FCF784FC03469CB2FC
:1039F0007648FCF77FFC034622467449744849F038
:103A000035F8744B1B6818464DF0D2F8714B1B68A3
:103A100041F2883118464DF080F86F4B1B7D6F4A9C
:103A200072496A4871F0D4F86848FCF763FC0346B1
:103A30009CB26648FCF75EFC034622466349644834
:103A400049F014F8634B1B6818464DF0B1F8614B10
:103A50001B6841F2883118464DF05FF85E4B5B7D84
:103A60005E4A6349594871F0B3F85848FCF742FC84
:103A700003469CB25548FCF73DFC03462246534999
:103A8000534848F0F3FF534B1B6818464DF090F82D
:103A9000514B5B7D03F04003002B1ED04D4B1B6848
:103AA00041F2883118464DF038F84C4A51494748A0
:103AB00071F08EF84548FCF71DFC03469CB2434864
:103AC000FCF718FC034622464049414848F0CEFF27
:103AD000404B1B6818464DF06BF83F4B5B7D03F085
:103AE0002003002B1ED03B4B1B6841F28831184647
:103AF0004DF013F8394A4049344871F069F83348B9
:103B0000FCF7F8FB03469CB23048FCF7F3FB034696
:103B100022462E492E4848F0A9FF2E4B1B68184616
:103B20004DF046F82C4B5B7D03F00703013B032B64
:103B300000F2B48001A252F823F000BF4D3B000810
:103B40008D3B0008053C0008453C0008214B1B68E4
:103B500041F2883118464CF0E0FF204A27491B48C3
:103B600071F036F81948FCF7C5FB03469CB21748BC
:103B7000FCF7C0FB034622461449154848F076FF7F
:103B8000144B1B6818464DF013F8A7E0114B1B6847
:103B900041F2883118464CF0C0FF104A18490B48D2
:103BA00071F016F80948FCF7A5FB03469CB20748DC
:103BB000FCF7A0FB034622460449054848F056FF9F
:103BC000044B1B6818464CF0F3FF87E0DCD500245B
:103BD000D064002488D50024C00801248C33080850
:103BE000307F0708707F0708B07F0708F07F07085D
:103BF0003080070870800708AC800708E880070855
:103C0000088107081F4B1B6841F2883118464CF0A9
:103C100084FF1D4A1D491E4870F0DAFF1C48FCF75E
:103C200069FB03469CB21A48FCF764FB0346224634
:103C30001749184848F01AFF124B1B6818464CF0F9
:103C4000B7FF4BE00F4B1B6841F2883118464CF030
:103C500064FF0D4A10490E4870F0BAFF0C48FCF79B
:103C600049FB03469CB20A48FCF744FB0346224644
:103C70000749084848F0FAFE024B1B6818464CF00A
:103C800097FF2BE088D500248C330808288107088B
:103C9000DCD50024D064002448810708A34B1B68AE
:103CA00041F2883118464CF038FFA14AA149A24898
:103CB00070F08EFFA048FCF71DFB03469CB29E48A7
:103CC000FCF718FB034622469B499C4848F0CEFE71
:103CD000964B1B6818464CF06BFF00BF934B1B685C
:103CE00041F2883118464CF018FF954B9B7D904A65
:103CF0009449914870F06CFF8F48FCF7FBFA03463B
:103D00009CB28D48FCF7F6FA034622468A498B4856
:103D100048F0ACFE854B1B6818464CF049FF834BBE
:103D20001B6841F2883118464CF0F7FE844BDB7D6E
:103D30007F4A8549804870F04BFF7F48FCF7DAFAEC
:103D400003469CB27C48FCF7D5FA034622467A49E2
:103D50007A4848F08BFE754B1B6818464CF028FFDC
:103D6000724B1B6841F2883118464CF0D6FE744BFA
:103D70001B7E6F4A7549704870F02AFF6E48FCF749
:103D8000B9FA03469CB26C48FCF7B4FA03462246E3
:103D900069496A4848F06AFE644B1B6818464CF053
:103DA00007FF624B1B6841F2883118464CF0B5FEA4
:103DB000634B5B7E5E4A66495F4870F009FF5E4870
:103DC000FCF798FA03469CB25B48FCF793FA03466B
:103DD00022465949594848F049FE544B1B68184639
:103DE0004CF0E6FE514B1B6841F2883118464CF00E
:103DF00094FE534B9B7E4E4A56494F4870F0E8FE66
:103E00004D48FCF777FA03469CB24B48FCF772FA30
:103E1000034622464849494848F028FE434B1B6860
:103E200018464CF0C5FE414B1B6841F288311846DC
:103E30004CF073FE424BDB7E3D4A47493E4870F0F2
:103E4000C7FE3D48FCF756FA03469CB23A48FCF7D9
:103E500051FA034622463849384848F007FE334BAA
:103E60001B6818464CF0A4FE304B1B6841F28831A9
:103E700018464CF052FE324B1B7F2D4A37492E48D4
:103E800070F0A6FE2C48FCF735FA03469CB22A488F
:103E9000FCF730FA034622462749284848F0E6FD59
:103EA000224B1B6818464CF083FE204B1B6841F2E6
:103EB000883118464CF031FE214B5B7F1C4A284963
:103EC0001D4870F085FE1C48FCF714FA03469CB2AE
:103ED0001948FCF70FFA034622461749174848F0DD
:103EE000C5FD124B1B6818464CF062FE0F4B1B6859
:103EF00041F2883118464CF010FE1A490E4870F015
:103F000067FE0D48FCF7F6F903469CB20A48FCF739
:103F1000F1F9034622460849084848F0A7FD034B3B
:103F20001B6818464CF044FE00BF98BD88D500249D
:103F30008C3308086C810708DCD50024D064002489
:103F4000C0080124B4810708F481070834820708F7
:103F500074820708B4820708F482070834830708CC
:103F600074830708B483070890B585B000AF034693
:103F70003960FB710123FB73FB79042B63D8FB7958
:103F8000444A582101FB03F3134408331B7863F0C0
:103F90003F03DAB23B681A70FA793B6801333D4956
:103FA000582000FB02F20A44093212781A70FA799A
:103FB0003B6802333749582000FB02F20A440A32B8
:103FC00012781A70FB79334A582101FB03F313442A
:103FD0000B331A783B68033322F00102D2B21A7015
:103FE000FB792C4A582101FB03F313440C331A7854
:103FF0003B68043362F03F02D2B21A70FA793B6830
:1040000005332449582000FB02F20A440D3212788D
:104010001A70FA793B6806331E49582000FB02F2F9
:104020000A440E3212781A70FB791A4A582101FBA1
:1040300003F313440F331A783B68073322F001026D
:10404000D2B21A7021E0144B1B6841F28831184635
:104050004CF063FDFB79114A1149124870F0B8FD2C
:104060001048FCF747F903469CB20E48FCF742F9AA
:10407000034622460B490C4848F0F8FC064B1B68E7
:1040800018464CF095FD0023FB73FB7B1846143754
:10409000BD4690BD3412012488D50024A4330808FD
:1040A000F8830708DCD50024D064002490B583B0E1
:1040B00000AFFF23FB7100237B7140E00123BB7144
:1040C00000233B710FE07A793B792149582000FBAE
:1040D00002F20A4413441B78002B01D00023BB7169
:1040E0003B7901333B713B790F2BECD9BB79002B2A
:1040F00022D0184B1B6841F2883118464CF00DFD58
:104100007B79154A1549164870F062FD1448FCF792
:10411000F1F803469CB21248FCF7ECF8034622463D
:104120000F49104848F0A2FC0A4B1B6818464CF097
:104130003FFD7B79FB7105E07B7901337B717B79F6
:10414000042BBBD9FB7918460C37BD4690BD00BF88
:104150003412012488D50024C43308084C8407088D
:10416000DCD50024D064002480B483B000AF0023E9
:10417000FB7100233B6023E0164A3B68582101FB9A
:1041800003F3134414331B78002B16D0114A3B68F9
:10419000582101FB03F3134414331B78012B0CD07B
:1041A0000C4A3B68582101FB03F3134414331B787A
:1041B000062B02D00123FB7105E03B6801333B6015
:1041C0003B68042BD8DDFB7918460C37BD465DF8FB
:1041D000047B70473412012490B585B000AF0346CC
:1041E000FB71FB79042B18D80123FB730023BB73ED
:1041F0000FE0FA79BB7B1C49582000FB02F20A440D
:1042000013441B78002B01D00023FB73BB7B0133CD
:10421000BB73BB7B0F2BECD921E0144B1B6841F225
:10422000883118464CF079FCFB79114A1149124843
:1042300070F0CEFC1048FCF75DF803469CB20E48C7
:10424000FCF758F8034622460B490C4848F00EFC90
:10425000064B1B6818464CF0ABFC0023FB73FB7B42
:1042600018461437BD4690BD3412012488D5002469
:10427000DC33080868840708DCD50024D0640024F7
:1042800090B58BB000AF7860012387F82730AF4B33
:104290001B6841F2883118464CF03FFC7B68AC4A01
:1042A000AC49AD4870F094FCAB48FCF723F80346EA
:1042B0009CB2A948FCF71EF803462246A649A74827
:1042C00048F0D4FBA14B1B6818464CF071FC786891
:1042D000FCF710F803462F2B25D09C4B1B6841F2AE
:1042E000883118464CF019FC7868FCF703F803464F
:1042F000974A9B49984870F06BFC9748FBF7FAFF88
:1043000003469CB29448FBF7F5FF034622469249C8
:10431000924848F0ABFB8D4B1B6818464CF048FCAC
:10432000002387F827300023BB6176E0BB69052BAB
:1043300011D0BB690B2B0ED0BB69112B0BD0BB6905
:10434000172B08D0BB691D2B05D0BB69232B02D0CE
:10435000BB69292B2FD1BB697A6813441B780133C1
:10436000804A13441B7803F00403002B52D0774B90
:104370001B6841F2883118464CF0CFFBBB69744A88
:104380007949754870F024FC7348FBF7B3FF034686
:104390009CB27148FBF7AEFF034622466E496F4858
:1043A00048F064FB694B1B6818464CF001FC002385
:1043B00087F827302EE0BB697A6813441B780133F5
:1043C000684A13441B7803F00403002B22D15F4B8F
:1043D0001B6841F2883118464CF09FFBBB695C4A70
:1043E00062495D4870F0F4FB5B48FBF783FF0346CE
:1043F0009CB25948FBF77EFF034622465649574870
:1044000048F034FB514B1B6818464CF0D1FB00239D
:1044100087F82730BB690133BB61BB692E2B85DD73
:104420007B683B620023FB7741E007F10C03062227
:104430000021184670F0E2FC07F10C030522396AEE
:10444000184671F0A8FB07F10C03184670F0BCF891
:1044500003467B617B69B3F5803F22D33B4B1B68EE
:1044600041F2883118464CF058FB7B69384A404984
:10447000394870F0ADFB3848FBF73CFF03469CB26F
:104480003548FBF737FF034622463349334848F0A7
:10449000EDFA2E4B1B6818464CF08AFB002387F878
:1044A00027303B6A06333B62FB7F0233FB77FB7F9F
:1044B0000F2BBAD997F82730002B20D0234B1B683D
:1044C00041F2883118464CF028FB7B68204A294984
:1044D000214870F07DFB2048FBF70CFF03469CB29F
:1044E0001D48FBF707FF034622461B491B4848F0BF
:1044F000BDFA164B1B6818464CF05AFB1FE0134BD5
:104500001B6841F2883118464CF007FB7B68104A63
:104510001949114870F05CFB0F48FBF7EBFE0346AE
:104520009CB20D48FBF7E6FE034622460A490B48BB
:1045300048F09CFA054B1B6818464CF039FB97F87D
:10454000273018462C37BD4690BD00BF88D50024C3
:10455000F4330808B0840708DCD50024D0640024B4
:10456000C8840708109108080C85070854850708B7
:1045700098850708CC850708E485070890B585B0BD
:1045800000AF03463960FB71FB79042B32D8FB790D
:104590002A4A582101FB03F31344103301221A70F5
:1045A0000023FB6010E0FB683A681A44FB7910783E
:1045B000224A582101FB03F31A44FB6813440246C4
:1045C0001A70FB680133FB60FB680F2BEBDDFB7996
:1045D0001A4A582101FB03F31344133300221A70C3
:1045E000FB79164A582101FB03F3134414330122CB
:1045F0001A701FE0124B1B6841F2883118464CF0CC
:104600008CFAFB790F4A1049104870F0E1FA0F4814
:10461000FBF770FE03469CB20C48FBF76BFE0346AB
:1046200022460A490A4848F021FA054B1B681846F9
:104630004CF0BEFA00BF1437BD4690BD34120124C1
:1046400088D50024103408081C860708DCD500240F
:10465000D064002490B58DB000AF03463960FB7183
:10466000012387F82F30012387F82E30FB79042BA4
:1046700022D9654B1B6841F2883118464CF04DFA3F
:10468000FB79624A6249634870F0A2FA6148FBF71D
:1046900031FE03469CB25F48FBF72CFE03462246E0
:1046A0005C495D4848F0E2F9574B1B6818464CF0EE
:1046B0007FFA002387F82F303868FFF7E1FD0346C3
:1046C00087F82E3097F82F30002B03D097F82E3034
:1046D00087F82F303B68BB62002387F8273097F8B4
:1046E0002E30002B5AD055E007F108030622002196
:1046F000184670F083FB07F108030522B96A1846D3
:1047000071F049FA07F1080318466FF05DFF0346A0
:104710003B623B6AB3F5803F22D33B4B1B6841F2BF
:10472000883118464CF0F9F93B6A384A3B49394818
:1047300070F04EFA3748FBF7DDFD03469CB2354872
:10474000FBF7D8FD034622463249334848F08EF93C
:104750002D4B1B6818464CF02BFA002387F82E309F
:104760003B6A1A0A97F82730D2B230333B4403F839
:10477000202C97F8273001333A6AD2B230333B44C9
:1047800003F8202CBB6A0633BB6297F8273002334C
:1047900087F8273097F827300F2BA5D997F82F30B7
:1047A000002B0BD097F82E30002B07D007F110020A
:1047B000FB7911461846FFF7E1FE1EE0124B1B681D
:1047C00041F2883118464CF0A8F9104A14491148B2
:1047D00070F0FEF90F48FBF78DFD03469CB20D48C3
:1047E000FBF788FD034622460A490B4848F03EF98C
:1047F000054B1B6818464CF0DBF997F82F3018462C
:104800003437BD4690BD00BF88D500242034080849
:104810005C860708DCD50024D0640024988507084E
:104820008886070890B585B000AF03463960FB71F4
:104830003C220021284870F0E1FA0023FB603AE0B6
:10484000FB79264A582101FB03F31A44FB68134401
:104850001B781B029BB2F979FA6801321F48582471
:1048600004FB01F101440A44127813449AB21C4B30
:104870001A800A2200211B4870F0C0FA184B1B88CE
:104880001A461949174870F0A3F91649124870F0F2
:10489000BDFAFB680D2B0BDC0F48FBF72BFD034625
:1048A0001A460D4B134411491A460B461B881380B8
:1048B000FB680233FB60FB680F2BC1DD0648FBF78A
:1048C00019FD03461A460449386871F064F900BFBF
:1048D0001437BD4690BD00BFB01801243412012426
:1048E000EC180124F0180124B4860708BC860708D8
:1048F00090B583B000AF0346FB71FB79042B6ED8F3
:10490000494B1B6841F2883118464CF006F9FB7997
:10491000464A4749474870F05BF94648FBF7EAFCCE
:1049200003469CB24348FBF7E5FC03462246414957
:10493000414848F09BF83C4B1B6818464CF038F94E
:10494000FB793E4A582101FB03F313441033002244
:104950001A70FB79582202FB03F3384A13441022E1
:104960000021184670F04AFAFB79344A582101FBBD
:1049700003F31344113300221A70FB792F4A582194
:1049800001FB03F31344123300221A70FB792B4A04
:10499000582101FB03F31344133301221A70FB79EE
:1049A000264A582101FB03F31344143300221A70E2
:1049B000FB79224A582101FB03F3134416334FF6C7
:1049C000FF721A80FB79582202FB03F318331B4A4B
:1049D000134420220021184670F010FA1FE0124BF9
:1049E0001B6841F2883118464CF097F8FB790F4A62
:1049F0001349104870F0ECF80E48FBF77BFC0346B7
:104A00009CB20C48FBF776FC0346224609490A484B
:104A100048F02CF8044B1B6818464CF0C9F800BF4E
:104A20000C37BD4690BD00BF88D500243C34080833
:104A3000C0860708DCD50024D06400243412012489
:104A4000D886070890B587B002AF03463960FB717E
:104A50001346BB71594B9B781F2B00F28880574B34
:104A60009B781D2B24D9564B1B6841F28831184680
:104A70004CF053F8514B9B781A4620230093134671
:104A8000504A5149514870F0A3F85048FBF732FCA6
:104A900003469CB24D48FBF72DFC034622464B498A
:104AA0004B4847F0E3FF464B1B6818464CF080F834
:104AB000434B1B6841F2883118464CF02EF8FB79C5
:104AC000404A4449414870F083F84048FBF712FCE3
:104AD00003469CB23D48FBF70DFC034622463B498A
:104AE0003B4847F0C3FF364B1B6818464CF060F854
:104AF000324B9B780133DAB2304B9A702F4B5B7894
:104B000019462E4AAA2301FB03F313440333FA790F
:104B10001A70BB79A82B01D9A823BB71274B5B78EE
:104B20001946264AAA2301FB03F313440433BA7936
:104B30001A70224B5B781A46AA2302FB03F31F4A22
:104B400013440533BA793968184671F024F81B4BC1
:104B50005B780133DAB2194B5A70184B5B781F2B14
:104B600002D9164B00225A700123FB7321E0144B2B
:104B70001B6841F2883118464BF0CFFFFB79114A90
:104B80001549124870F024F81048FBF7B3FB0346B0
:104B90009CB20E48FBF7AEFB034622460B490C487D
:104BA00047F064FF064B1B6818464CF001F80023E1
:104BB000FB73FB7B18461437BD4690BD14EE0024F2
:104BC00088D50024503408081C870708DCD5002449
:104BD000D0640024708707089C87070890B587B0C9
:104BE00002AF03463960FB711346BB71594B9B788A
:104BF000072B00F28880574B9B78052B24D9564B06
:104C00001B6841F2883118464BF087FF514B9B7867
:104C10001A46082300931346504A514951486FF0F1
:104C2000D7FF5048FBF766FB03469CB24D48FBF7A5
:104C300061FB034622464B494B4847F017FF464B62
:104C40001B6818464BF0B4FF434B1B6841F2883198
:104C500018464BF062FFFB79404A444941486FF0E7
:104C6000B7FF4048FBF746FB03469CB23D48FBF7C5
:104C700041FB034622463B493B4847F0F7FE364B93
:104C80001B6818464BF094FF324B9B780133DAB225
:104C9000304B9A702F4B5B7819462E4AAA2301FBA2
:104CA00003F313440333FA791A70BB79A82B01D9A3
:104CB000A823BB71274B5B781946264AAA2301FB20
:104CC00003F313440433BA791A70224B5B781A4603
:104CD000AA2302FB03F31F4A13440533BA79396848
:104CE000184670F058FF1B4B5B780133DAB2194B52
:104CF0005A70184B5B78072B02D9164B00225A705A
:104D00000123FB7321E0144B1B6841F288311846E4
:104D10004BF003FFFB79114A154912486FF058FF19
:104D20001048FBF7E7FA03469CB20E48FBF7E2FA9D
:104D3000034622460B490C4847F098FE064B1B6879
:104D400018464BF035FF0023FB73FB7B18461437E6
:104D5000BD4690BD5803012488D500246834080856
:104D6000E4870708DCD50024D064002438880708CD
:104D70006488070890B585B000AF03460A46FB710A
:104D80001346BB71974B1B6841F2883118464BF0B4
:104D9000C4FEFB79944A954995486FF019FF9448F1
:104DA000FBF7A8FA03469CB29148FBF7A3FA034627
:104DB00022468F498F4847F059FE8A4B1B68184698
:104DC0004BF0F6FE8C4B00221A728B4B0022DA60FD
:104DD000894B002283F8C820884B00221A70884B28
:104DE00018221A70BB79002B1BD0864B0133854AE1
:104DF00052781946FF200FF021FD0346FB73FA7924
:104E0000FB7B9A4201D1012200E003227B4B1A7006
:104E1000FA79FB7B9A4201D1062200E01522784BF9
:104E20001A70704B1B6841F2883118464BF075FEC2
:104E300075496F486FF0CCFE6D48FBF75BFA03468F
:104E40009CB26B48FBF756FA03462246684969480C
:104E500047F00CFE634B1B6818464BF0A9FE664BEF
:104E6000DB7C1946002300226648FDF727F85D4BDE
:104E70001B6841F2883118464BF04FFE63495C488D
:104E80006FF0A6FE5A48FBF735FA03469CB2584825
:104E9000FBF730FA034622465549564847F0E6FDEF
:104EA000504B1B6818464BF083FE534B00221A747C
:104EB000012301225249564847F0D8FD504B1B7838
:104EC000182B46D0182B64DC062B02D0152B20D0D3
:104ED0005FE0444B1B6841F2883118464BF01DFEE1
:104EE000414A4C4942486FF073FE4148FBF702FAD1
:104EF00003469CB23E48FBF7FDF9034622463C4977
:104F00003C4847F0B3FD374B1B6818464BF050FE4A
:104F100061E0344B1B6841F2883118464BF0FDFDCF
:104F2000314A3D4932486FF053FE3148FBF7E2F910
:104F300003469CB22E48FBF7DDF9034622462C4976
:104F40002C4847F093FD274B1B6818464BF030FE6A
:104F500041E0244B1B6841F2883118464BF0DDFDDF
:104F6000214A2E4922486FF033FE2148FBF7C2F94F
:104F700003469CB21E48FBF7BDF9034622461C4976
:104F80001C4847F073FD174B1B6818464BF010FE8A
:104F900021E0144B1B6841F2883118464BF0BDFDEF
:104FA000174B1B78104A1E4911486FF011FE10482C
:104FB000FBF7A0F903469CB20D48FBF79BF90346AB
:104FC00022460B490B4847F051FD064B1B6818461B
:104FD0004BF0EEFD00BF094B1B7818461437BD4659
:104FE00090BD00BF88D500248C340808A888070825
:104FF000DCD50024D0640024AC080124FA18012474
:10500000FB180124C0080124C8880708288907085C
:105010006465002488890708C4890708148A07087A
:105020008C8A070880B483B000AF0346FB71144B31
:10503000DB7C1A46124B1344FA791A75104BDB7C51
:105040000133DAB20E4BDA740E4B5B78032B0AD9BC
:105050000C4B5B78033BDAB2094B83F8C920084B51
:1050600004221A7406E0064B012283F8C920044B7F
:1050700005221A7400BF0C37BD465DF8047B7047EB
:10508000AC080124C008012480B483B000AF0346FB
:10509000FB71144B93F8C930013BDAB2114B83F822
:1050A000C920104BDB7C1A460E4B1344FA791A7553
:1050B0000C4BDB7C0133DAB20A4BDA74094BDB7C34
:1050C000B32B05D8074BDA7C074B5B789A4202D9A1
:1050D000044B05221A7400BF0C37BD465DF8047BF3
:1050E000704700BFAC080124C008012498B500AF88
:1050F000194B1B6841F2883118464BF00EFD174AD8
:10510000174918486FF064FD1648FBF7F3F803469B
:105110009CB21448FBF7EEF80346224611491248A8
:1051200047F0A4FC0C4B1B6818464BF041FD0F4B9D
:1051300000221A740D4B002283F8C8200B4B00226A
:105140001A700A4B00221A72084B00225A60074B51
:105150000022DA6000BF98BD88D50024A434080876
:10516000D48A0708DCD50024D0640024AC080124CC
:1051700090B583B000AF0346FB71FB79022B02D9D7
:10518000FB79B42B2DD9214B1B6841F2883118468D
:105190004BF0C3FCFB791E4A1E491F486FF018FDF7
:1051A0001D48FBF7A7F803469CB21B48FBF7A2F883
:1051B000034622461849194847F058FC134B1B6810
:1051C00018464BF0F5FC164B00221A74144B0022C3
:1051D00083F8C820124B00221A72114B0022DA60A9
:1051E00010E00F4B02221A740D4BDB7C1A460C4B5D
:1051F0001344FA791A750A4BDB7C0133DAB2084B97
:10520000DA7400BF00BF0C37BD4690BD88D50024BE
:10521000BC340808F08A0708DCD50024D0640024D8
:10522000AC08012490B585B002AF0346FB719F4BDB
:1052300000221A70FB79012B39D19D4B1B6841F27A
:10524000883118464BF069FC9A4A9B499B486FF09D
:10525000BFFC9A48FBF74EF803469CB29748FBF711
:1052600049F8034622469549954847F0FFFB904B85
:105270001B6818464BF09CFC924B01221A74914B10
:105280000022DA748F4B012283F8C8208D4BDB7C1F
:105290001A468C4B1344FA791A758A4BDB7C01331E
:1052A000DAB2884BDA74874B00221A72F9E1854B27
:1052B0009B7C002B00F03781FB79062B02D0FB7919
:1052C000152B0ED17F4B00229A747E4B00221A7050
:1052D0007C4B00221A727B4B00225A60794B0022D1
:1052E000DA60FB79062B22D1714B1B6841F28831C1
:1052F00018464BF012FC6F4A734970486FF068FC17
:105300006E48FAF7F7FF03469CB26C48FAF7F2FFD3
:105310000346224669496A4847F0A8FB644B1B686C
:1053200018464BF045FC614B02221A70B9E1FB793B
:10533000152B22D15E4B1B6841F2883118464BF089
:10534000ECFB5C4A61495D486FF042FC5B48FAF750
:10535000D1FF03469CB25948FAF7CCFF03462246D8
:105360005649574847F082FB514B1B6818464BF093
:105370001FFC4E4B05221A7093E1FB790133544A0E
:1053800013441B7803F09703002B23D0484B1B6872
:1053900041F2883118464BF0C0FBFA79FB79009353
:1053A0001346444A4B4945486FF012FC4348FAF70C
:1053B000A1FF03469CB24148FAF79CFF03462246F0
:1053C0003E493F4847F052FB394B1B6818464BF0AB
:1053D000EFFB66E1FB79182B47D0182B00F3828096
:1053E000062B02D0152B20D07CE0314B1B6841F2FC
:1053F000883118464BF091FB2E4A37492F486FF001
:10540000E7FB2E48FAF776FF03469CB22B48FAF7E3
:1054100071FF034622462949294847F027FB244BC0
:105420001B6818464BF0C4FB3BE1214B1B6841F263
:10543000883118464BF071FB1E4A28491F486FF00F
:10544000C7FB1E48FAF756FF03469CB21B48FAF703
:1054500051FF034622461949194847F007FB144BF0
:105460001B6818464BF0A4FB1BE1114B1B6841F273
:10547000883118464BF051FB0E4A19490F486FF01E
:10548000A7FB0E48FAF736FF03469CB20B48FAF723
:1054900031FF034622460949094847F0E7FA044B21
:1054A0001B6818464BF084FBFBE000BFFC1801248E
:1054B00088D50024D0340808248B0708DCD50024C4
:1054C000D0640024AC0801243C8B0708548B0708E7
:1054D000109108086C8B07089C8B0708C08B070885
:1054E000E48B0708724B1B6841F2883118464BF079
:1054F00014FBFB796F4A704970486FF069FB6F4885
:10550000FAF7F8FE03469CB26C48FAF7F3FE03463E
:1055100022466A496A4847F0A9FA654B1B68184653
:105520004BF046FBBDE0FB790133664A13441B7820
:1055300003F09703002B23D05D4B1B6841F28831A9
:1055400018464BF0EAFAFA79FB7900931346594A68
:105550005D495A486FF03CFB5848FAF7CBFE0346CA
:105560009CB25648FAF7C6FE0346224653495448B1
:1055700047F07CFA4E4B1B6818464BF019FB8AE04B
:10558000FB79182B46D0182B64DC062B02D0152B88
:1055900020D05FE0464B1B6841F2883118464BF043
:1055A000BCFA444A494945486FF012FB4348FAF7B0
:1055B000A1FE03469CB24148FAF79CFE03462246F0
:1055C0003E493F4847F052FA394B1B6818464BF0AA
:1055D000EFFA60E0364B1B6841F2883118464BF019
:1055E0009CFA344A3A4935486FF0F2FA3348FAF7F0
:1055F00081FE03469CB23148FAF77CFE0346224600
:105600002E492F4847F032FA294B1B6818464BF0B9
:10561000CFFA40E0264B1B6841F2883118464BF028
:105620007CFA244A2B4925486FF0D2FA2348FAF72E
:1056300061FE03469CB22148FAF75CFE034622460F
:105640001E491F4847F012FA194B1B6818464BF0C9
:10565000AFFA20E0164B1B6841F2883118464BF038
:105660005CFAFB79134A144914486FF0B1FA1348F5
:10567000FAF740FE03469CB21048FAF73BFE034699
:1056800022460E490E4847F0F1F9094B1B681846AF
:105690004BF08EFA00BF104B00221A700E4B002206
:1056A0005A600E4B1B7818460C37BD4690BD00BFA4
:1056B00088D50024D0340808088C0708DCD50024DD
:1056C000D0640024109108086C8B07089C8B070895
:1056D000C08B0708E48B0708AC080124FC180124E0
:1056E00090B583B000AF0346FB71FB79012B4CD919
:1056F000514B1B6841F2883118464BF00EFAFB798A
:105700004E4A4F494F486FF063FA4E48FAF7F2FDA0
:1057100003469CB24B48FAF7EDFD03462246494941
:10572000494847F0A3F9444B1B6818464BF040FA30
:10573000414B1B6841F2883118464BF0EEF93F4A65
:10574000424940486FF044FA3E48FAF7D3FD034619
:105750009CB23C48FAF7CEFD0346224639493A4806
:1057600047F084F9344B1B6818464BF021FA384B4C
:1057700000221A74364B002283F8C820344B0022D2
:105780001A72334B0022DA6051E0FB79002B1FD1F3
:10579000294B1B6841F2883118464BF0BEF9274A65
:1057A0002C4928486FF014FA2648FAF7A3FD03465F
:1057B0009CB22448FAF79EFD03462246214922481E
:1057C00047F054F91C4B1B6818464BF0F1F91EE0EA
:1057D000194B1B6841F2883118464BF09EF9174A65
:1057E0001D4918486FF0F4F91648FAF783FD03468F
:1057F0009CB21448FAF77EFD03462246114912482E
:1058000047F034F90C4B1B6818464BF0D1F9104B9C
:1058100003221A740E4BDB7C1A460D4B1344FA79A3
:105820001A750B4BDB7C0133DAB2094BDA7400BF1B
:105830000C37BD4690BD00BF88D50024E43408086D
:10584000348C0708DCD50024D0640024908C070831
:10585000AC080124B88C0708D88C070890B583B031
:1058600000AF0346FB71FB79013B032B00F28C80F8
:1058700001A252F823F000BF8958000849590008D6
:1058800009590008C9580008524B1B6841F2883179
:1058900018464BF042F9504A504951486FF098F978
:1058A0004F48FAF727FD03469CB24D48FAF722FD10
:1058B000034622464A494B4847F0D8F8454B1B68F7
:1058C00018464BF075F980E0424B1B6841F2883175
:1058D00018464BF022F9404A434941486FF078F9A5
:1058E0003F48FAF707FD03469CB23D48FAF702FD30
:1058F000034622463A493B4847F0B8F8354B1B6807
:1059000018464BF055F960E0324B1B6841F2883184
:1059100018464BF002F9304A344931486FF058F9D3
:105920002F48FAF7E7FC03469CB22D48FAF7E2FC51
:10593000034622462A492B4847F098F8254B1B6816
:1059400018464BF035F940E0224B1B6841F2883194
:1059500018464BF0E2F8204A254921486FF038F903
:105960001F48FAF7C7FC03469CB21D48FAF7C2FC71
:10597000034622461A491B4847F078F8154B1B6826
:1059800018464BF015F920E0124B1B6841F28831A4
:1059900018464BF0C2F8FB790F4A164910486FF0D1
:1059A00017F90F48FAF7A6FC03469CB20C48FAF721
:1059B000A1FC034622460A490A4847F057F8054B1E
:1059C0001B6818464BF0F4F800BF00BF0C37BD460B
:1059D00090BD00BF88D50024F8340808F88C07086B
:1059E000DCD50024D0640024208D0708588D0708DA
:1059F000788D0708A08D070890B583B000AF0346E7
:105A0000FB71FB79A12B00F34D81002B40F3CA847D
:105A1000013BA02B00F2C68401A252F823F000BF84
:105A20006D5D000829600008AD5C0008ED5C0008B1
:105A3000E5620008256300086563000869610008E5
:105A4000E9610008A5630008A5630008A5630008D4
:105A5000A5630008A56300086D5E00086960000882
:105A6000A9600008E960000829610008A563000832
:105A700029620008A9610008AD5E0008A56200085F
:105A8000A5630008A5630008A5630008A5630008D6
:105A9000A5630008A5630008A5630008A95F0008C6
:105AA000E95F0008A5630008A5630008A563000876
:105AB000A5630008A5630008A5630008A5630008A6
:105AC000A5630008A5630008A5630008A563000896
:105AD000A5630008A5630008A5630008ED5D000844
