:020000040800F2
:10000000000008240D1D0108951B0108971B01081D
:10001000991B01089B1B01089D1B010800000000A3
:10002000000000000000000000000000A16A0208BB
:100030009F1B010800000000316B0208BB62020830
:10004000611D0108611D0108611D0108611D010894
:10005000611D0108611D0108611D0108611D010884
:10006000A11B0108611D0108611D0108611D010836
:10007000611D0108611D0108611D0108611D010864
:10008000611D0108611D0108611D0108611D010854
:10009000611D0108611D0108611D0108611D010844
:1000A000611D0108611D0108611D0108611D010834
:1000B000611D0108611D0108611D0108611D010824
:1000C000611D0108611D0108611D0108611D010814
:1000D000611D0108A91B0108B51B0108611D01086C
:1000E000611D0108611D010800000000611D01087B
:1000F000611D0108611D0108611D0108611D0108E4
:10010000611D0108611D0108611D0108611D0108D3
:10011000611D0108611D0108C11B0108611D010865
:10012000611D0108611D0108611D0108611D0108B3
:10013000611D0108611D0108611D0108611D0108A3
:10014000611D0108611D01080000000000000000A1
:10015000611D0108611D0108611D0108611D010883
:10016000611D0108611D0108611D0108611D010873
:10017000611D0108611D0108611D010800000000EA
:10018000611D0108611D0108611D0108611D010853
:10019000611D0108611D0108611D0108611D010843
:1001A000CD1B0108611D0108D91B0108611D010853
:1001B000E51B0108611D0108611D0108611D0108A1
:1001C000611D0108611D0108611D0108611D010813
:1001D000611D0108611D0108611D0108611D010803
:1001E000611D0108611D0108611D0108611D0108F3
:1001F000611D0108611D0108611D0108611D0108E3
:10020000611D0108611D0108611D0108611D0108D2
:10021000611D0108611D0108611D0108611D0108C2
:10022000611D0108F11B0108FD1B01080000000011
:10023000611D0108611D0108611D0108611D0108A2
:10024000611D0108611D0108611D0108611D010892
:10025000611D0108611D0108611D0108611D010882
:10026000611D0108611D0108611D0108611D010872
:10027000611D0108611D0108611D0108611D010862
:10028000611D0108611D0108611D010800000000D9
:08029000611D0108611D010858
:1002A00010B5054C237833B9044B13B10448AFF3B0
:1002B00000800123237010BDE00200240000000034
:1002C000A49A040808B5034B1BB103490348AFF3D4
:1002D000008008BD00000000E4020024A49A040885
:1002E00010F8012B11F8013B012A28BF9A42F7D0E0
:1002F000D01A7047034613F8012B002AFBD1181AB5
:1003000001387047000000000000000000000000FD
:1003100001F0FF01102A2BDB10F0070F08D010F8B6
:10032000013B013A8B422DD010F0070F42B3F6D1BA
:10033000F0B441EA012141EA014122F007047FF0D3
:1003400000070023F0E80256083C85EA010586EA2A
:10035000010685FA47F5A3FA87F586FA47F6A5FA66
:1003600087F68EB9EED1F0BC01F0FF0102F0070272
:1003700032B110F8013B013A83EA010313B1F8D11D
:100380000020704701387047002D06BF35460338FE
:10039000073815F0010F07D1013015F4807F02BF37
:1003A000013015F4C03F0130F0BC0138704700BF88
:1003B00081F0004102E000BF83F0004330B54FEA16
:1003C00041044FEA430594EA050F08BF90EA020F83
:1003D0001FBF54EA000C55EA020C7FEA645C7FEA16
:1003E000655C00F0E2804FEA5454D4EB5555B8BF39
:1003F0006D420CDD2C4480EA020281EA030382EAAA
:10040000000083EA010180EA020281EA0303362D3B
:1004100088BF30BD11F0004F4FEA01314FF4801C0E
:100420004CEA113102D0404261EB410113F0004F20
:100430004FEA03334CEA133302D0524263EB4303D7
:1004400094EA050F00F0A780A4F10104D5F1200E75
:100450000DDB02FA0EFC22FA05F2801841F10001D0
:1004600003FA0EF2801843FA05F359410EE0A5F1A4
:1004700020050EF1200E012A03FA0EFC28BF4CF0D5
:10048000020C43FA05F3C01851EBE37101F000458B
:1004900007D54FF0000EDCF1000C7EEB00006EEB98
:1004A0000101B1F5801F1BD3B1F5001F0CD3490822
:1004B0005FEA30004FEA3C0C04F101044FEA445279
:1004C00012F5800F80F09A80BCF1004F08BF5FEA00
:1004D000500C50F1000041EB045141EA050130BDE0
:1004E0005FEA4C0C404141EB0101013C28BFB1F5F2
:1004F000801FE9D291F0000F04BF01460020B1FA3D
:1005000081F308BF2033A3F10B03B3F120020CDA0F
:100510000C3208DD02F1140CC2F10C0201FA0CF0ED
:1005200021FA02F10CE002F11402D8BFC2F1200C52
:1005300001FA02F120FA0CFCDCBF41EA0C01904008
:10054000E41AA2BF01EB0451294330BD6FEA040451
:100550001F3C1CDA0C340EDC04F11404C4F120023C
:1005600020FA04F001FA02F340EA030021FA04F34E
:1005700045EA030130BDC4F10C04C4F1200220FAA5
:1005800002F001FA04F340EA0300294630BD21FAE3
:1005900004F0294630BD94F0000F83F4801306BFA9
:1005A00081F480110134013D4EE77FEA645C18BF9D
:1005B0007FEA655C29D094EA050F08BF90EA020F34
:1005C00005D054EA000C04BF1946104630BD91EA2C
:1005D000030F1EBF0021002030BD5FEA545C05D12F
:1005E0004000494128BF41F0004130BD14F580046E
:1005F0003CBF01F5801130BD01F0004545F0FE41E2
:1006000041F470014FF0000030BD7FEA645C1ABF16
:10061000194610467FEA655C1CBF0B46024650EA4D
:10062000013406BF52EA033591EA030F41F4002179
:1006300030BD00BF90F0000F04BF0021704730B5FF
:100640004FF4806404F132044FF000054FF00001D4
:1006500050E700BF90F0000F04BF0021704730B595
:100660004FF4806404F1320410F0004548BF40426A
:100670004FF000013EE700BF42004FEAE2014FEABF
:1006800031014FEA02701FBF12F07F4393F07F4F9A
:1006900081F06051704732F07F4208BF704793F09D
:1006A0007F4F04BF41F40021704730B54FF46074B0
:1006B00001F0004521F000411CE700BF50EA0102B3
:1006C00008BF704730B54FF000050AE050EA01025C
:1006D00008BF704730B511F0004502D5404261EBCC
:1006E00041014FF4806404F132045FEA915C3FF40D
:1006F000D8AE4FF003025FEADC0C18BF03325FEAAA
:10070000DC0C18BF033202EBDC02C2F1200300FA5A
:1007100003FC20FA02F001FA03FE40EA0E0021FA7F
:1007200002F11444BDE600BF7BB972B90029BEBF17
:1007300000204FF0004106E008BF00281CBF6FF00A
:1007400000414FF0FF3000F0D3B9ADF1080C6DE976
:1007500004CE002909DB002B1ADB00F04DF8DDF890
:1007600004E0DDE9022304B07047404261EB41013F
:10077000002B1BDB00F040F8DDF804E0DDE902238C
:1007800004B0404261EB4101524263EB43037047C6
:10079000524263EB430300F02FF8DDF804E0DDE99B
:1007A000022304B0404261EB41017047524263EBC7
:1007B000430300F021F8DDF804E0DDE9022304B092
:1007C000524263EB4303704753B94AB9002908BF4B
:1007D00000281CBF4FF0FF314FF0FF3000F088B908
:1007E000ADF1080C6DE904CE00F006F8DDF804E088
:1007F000DDE9022304B070472DE9F047089D0F465C
:1008000004468C46002B48D18A42164661D9B2FA7A
:1008100082F34BB1C3F1200201FA03FC20FA02F289
:100820009E4042EA0C0C9C404FEA164EB7B2BCFB0D
:10083000FEF1220C0EFB11CC42EA0C4201FB07F048
:10084000904209D9B21801F1FF3C80F0EE8090424D
:1008500040F2EB8002393244121AA4B2B2FBFEF02D
:100860000EFB102244EA024400FB07F7A74209D915
:10087000341900F1FF3280F0DA80A74240F2D780CD
:100880003444023840EA0140E41B00211DB1DC4041
:100890000023C5E90043BDE8F0878B4206D90DB1BE
:1008A000C5E9000100210846BDE8F087B3FA83F1ED
:1008B000002948D1BB4202D3824200F20781841A48
:1008C00067EB030201209446002DE4D0C5E9004CFB
:1008D000E1E7002A00F09280B2FA82F3002B40F0A8
:1008E000A8808A1A4FEA164E1FFA86FC0121200CB6
:1008F000B2FBFEF70EFB172240EA02420CFB07F0A8
:10090000904207D9B21807F1FF3802D2904200F2A4
:10091000E2804746121AA4B2B2FBFEF00EFB102290
:1009200044EA02440CFB00FCA44507D9341900F149
:10093000FF3202D2A44500F2CB801046A4EB0C0497
:1009400040EA0740A2E7C1F120068B4022FA06FCEC
:100950004CEA030C07FA01F420FA06F3F7404FEAD9
:100960001C49234300FA01F81FFA8CFEB7FBF9F08B
:100970001C0C09FB107744EA074400FB0EF7A74262
:1009800002FA01F20AD91CEB040400F1FF3A80F0EC
:100990009B80A74240F2988002386444E41B9FB2D7
:1009A000B4FBF9F309FB134447EA044403FB0EFECE
:1009B000A64509D91CEB040403F1FF3780F08280BF
:1009C000A6457FD9023B644443EA0040A4EB0E04F1
:1009D000A0FB02E7BC427346B94663D360D05DB169
:1009E000B8EB030264EB090404FA06F622FA01F3F9
:1009F0001E43CC40C5E9006400214CE7620848086A
:100A000042EAC1710B0C43EA00438AB242EA034254
:100A1000B3FBF6F1E407B4463746B6461F23B0FBF6
:100A2000F6F0D21B41EA004161E7614614E7104647
:100A300028E7C3F1200120FA01F29E4027FA01F1D4
:100A40009F403A434FEA164E1FFA86FCB1FBFEF771
:100A50000EFB1710110C41EA004107FB0CF888450A
:100A600004FA03F43AD9711807F1FF3001D288452E
:100A70001FD8A1EB0801B1FBFEF808FB0CF70EFB39
:100A8000181192B242EA0142BA422FD2B21808F1CA
:100A9000FF31C6D2BA42C4D2A8F102013244C0E743
:100AA000F0459CD2BEEB020367EB0C070138B94658
:100AB00095E7A6EB08084144B81EB1FBFEF808FB19
:100AC0000CF7DCE73B467FE7504667E70846FBE666
:100AD0003444023832E7023F32441BE7A1EB0801FD
:100AE0003846B1FBFEF808FB0CF7C8E7414698E72B
:100AF000704700BF2DE9F743924C41F28831924D87
:100B0000206825F09BFC2B7E904A9149914846F045
:100B100041FE9048FFF7EEFB8E49034682B28E48B5
:100B200024F0E4FB206825F0ACFC41F28831206819
:100B300025F084FC6B7E854A8849864846F02AFE6B
:100B40008448FFF7D7FB8349034682B2824824F0EA
:100B5000CDFB206825F095FC2B7E206841F2883182
:100B6000DB0740F1DB8025F069FC784A7C49794855
:100B700046F010FE7748FFF7BDFB7649034682B288
:100B8000754824F0B3FB206825F07BFC2B7E2068A1
:100B900041F288319F0740F1C68025F04FFC6B4A37
:100BA00070496C4846F0F6FD6A48FFF7A3FB6949B7
:100BB000034682B2684824F099FB206825F061FC66
:100BC0002B7E206841F288315E0740F1B18025F02C
:100BD00035FC5E4A64495F4846F0DCFD5D48FFF73E
:100BE00089FB5C49034682B25B4824F07FFB2068A6
:100BF00025F047FC2B7E206841F288311A0740F12E
:100C00009C8025F01BFC514A5849524846F0C2FDD1
:100C10005048FFF76FFB4F49034682B24E4824F01D
:100C200065FB206825F02DFC41F28831206825F015
:100C300005FCAB7E454A4E49464846F0ABFD45486B
:100C4000FFF758FB4349034682B2434824F04EFB6A
:100C5000206825F016FC41F28831206825F0EEFB73
:100C60003A4A44493B4846F095FD3A48FFF742FB73
:100C70003849034682B2384824F038FB206825F012
:100C800000FCAB7E53B1DFF80C810026AB7E4FEA4F
:100C9000C6092068B3425FFA89F97DDC41F28831E8
:100CA000206825F0CBFBAB7E284A2B4432492948EB
:100CB000DB7E46F06FFD2748FFF71CFB2549034606
:100CC00082B2254824F012FB206825F0DAFB41F2BD
:100CD0008831206825F0B2FBAB7E1C4A2B442749A3
:100CE0001C481B7F46F056FD1A48FFF703FB1949C5
:100CF000034682B2184824F0F9FA206825F0C1FBB7
:100D0000AB7E20681D44EB7E082B00F0868041F20C
:100D1000883125F093FB0D4A194988E025F08EFBB8
:100D20000A4A184923E725F089FB084A164938E79B
:100D300025F084FB054A15494DE725F07FFB034A62
:100D4000134962E768500024801C00240F6F0508D7
:100D50000C9B04081848002464C10024329B04083A
:100D6000589B0408879B0408CF9B0408079C040831
:100D70003F9C0408659C04088F9C0408B59C0408EB
:100D8000559D04086F9B0408A99B0408EC9B04086C
:100D9000219C04089B1C002441F28831002725F087
:100DA0004DFB98F800302B4A2B49009333462B48D3
:100DB00046F0F0FC2948FFF79DFA2849034682B225
:100DC000274824F093FA206825F05BFB98F8003060
:100DD0003B41DB071AD541F28831206825F02EFB14
:100DE00009F101031B4A3B441E491C48DBB2009336
:100DF00046F0D0FC1948FFF77DFA1849034682B245
:100E0000174824F073FA206825F03BFB0137082FC0
:100E1000DCD1013608F1010838E72B7F002B7FF485
:100E200076AF41F2883125F009FB0A4A0E490B489A
:100E300046F0B0FC0948FFF75DFA0849034682B264
:100E4000074824F053FA206803B0BDE8F04325F0CA
:100E500018BB00BF0F6F0508DB9C0408184800246E
:100E600064C10024009D0408249D040838B5564C34
:100E700041F28831554D206825F0E0FA2B7E544A26
:100E80005449554846F086FC5348FFF733FA524917
:100E900082B20346514824F029FA206825F0F1FA7D
:100EA0002D7EEA0715D541F28831206825F0C6FA73
:100EB000474A4B49484846F06DFC4748FFF71AFA45
:100EC0004549034682B2454824F010FA206825F0CF
:100ED000D8FAAB0715D541F28831206825F0AEFA73
:100EE0003B4A40493C4846F055FC3B48FFF702FA74
:100EF0003949034682B2394824F0F8F9206825F0D0
:100F0000C0FA680715D541F28831206825F096FAB5
:100F10002F4A3549304846F03DFC2F48FFF7EAF9A3
:100F20002D49034682B22D4824F0E0F9206825F0CF
:100F3000A8FA290715D541F28831206825F07EFAF4
:100F4000234A2A49244846F025FC2348FFF7D2F9D2
:100F50002149034682B2214824F0C8F9206825F0CF
:100F600090FAEA0615D541F28831206825F066FA34
:100F7000174A1F49184846F00DFC1748FFF7BAF901
:100F80001549034682B2154824F0B0F9206825F0CF
:100F900078FAAB0617D541F28831206825F04EFA71
:100FA0000B4A14490C4846F0F5FB0B48FFF7A2F931
:100FB0000949034682B2094824F098F92068BDE83F
:100FC000384025F05EBA38BD68500024801C0024EB
:100FD000DF6E0508A79D04081848002464C100249A
:100FE000BF9D0408DF9D0408039E04082F9E04088B
:100FF000529E04086C9E04082DE9F341804C41F296
:101000008831804D0026206825F018FA2B7E7E4A14
:101010007E497F4846F0BEFB7D48FFF76BF97C496F
:10102000034682B27B4824F061F9206825F029FA52
:1010300041F28831206825F001FA6B7E724A7649C8
:10104000734846F0A7FB7248FFF754F9704903460E
:1010500082B2704824F04AF9206825F012FA41F271
:101060008831206825F0EAF9AB7E674A6B49684809
:1010700046F090FB6648FFF73DF96549034682B2AA
:10108000644824F033F9206825F0FBF941F28831F7
:10109000206825F0D3F9EB7E5B4A61495C4846F055
:1010A00079FB5B48FFF726F95949034682B2594854
:1010B00024F01CF9206825F0E4F941F28831206819
:1010C00025F0BCF92B7F504A5649514846F062FB47
:1010D0004F48FFF70FF94E49034682B24D4824F0BE
:1010E00005F9206825F0CDF941F28831206825F016
:1010F000A5F96B7F444A4C49454846F04BFB4448B0
:10110000FFF7F8F84249034682B2424824F0EEF86D
:10111000206825F0B6F941F28831206825F08EF973
:10112000AB7F394A41493A4846F034FB3848FFF72B
:10113000E1F83749034682B2364824F0D7F82068F0
:1011400025F09FF941F28831206825F077F915F8EC
:101150001F3F2D4A36492E4846F01CFB2C48FFF70E
:10116000C9F82B49034682B22A4824F0BFF8206808
:1011700025F087F941F28831206825F05FF915F8EC
:10118000013F214A4FEAC6082A4900270093334607
:101190001F485FFA88F846F0FDFA1D48FFF7AAF8E5
:1011A0001B49034682B21B4824F0A0F8206825F0B2
:1011B00068F92B783B41DB0719D541F2883120686B
:1011C00025F03CF908F101030F4A3B441A49104845
:1011D000DBB246F0DFFA0E48FFF78CF80C49034605
:1011E00082B20C4824F082F8206825F04AF90137D1
:1011F000082FDED10136202EBCD102B0BDE8F0812F
:1012000068500024801C0024B26E0508869E0408E5
:101210001848002464C10024BC9E0408F29E0408FF
:10122000289F04085E9F0408949F0408CA9F04082E
:1012300000A0040836A0040864A004082DE9F743C0
:10124000294C41F28831294D206825F0F7F82B7E92
:10125000274A2849284846F09DFA2748FFF74AF8C8
:101260002549034682B2254824F040F8206825F03D
:1012700008F92B7E2068202B24D8202B28D8DFE8E3
:1012800013F0410082018901D701AD01DE01270081
:101290002700B40127002700270027002700270088
:1012A0002700BB01E501EC01F3012700FA0101026F
:1012B00027002700270027002700270027002700F6
:1012C0002700C201402B00F0A581802B00F0A981EE
:1012D00041F2883125F0B2F82B7E054A08490648CC
:1012E00046F058FA17E000BF68500024801C002424
:1012F0006C6E0508A0A004081848002464C10024EE
:10130000D0A3040841F2883125F098F8A54AA649EF
:10131000A64846F03FFAA548FEF7ECFFA34903466E
:1013200082B2A34823F0E2FF206825F0AAF82B7EC2
:10133000012B00F0AE812B7E032B30D141F288319E
:10134000206825F07BF86B7E964A9A49974846F0CC
:1013500021FA9648FEF7CEFF9449034682B294489C
:1013600023F0C4FF206825F08CF86B7E206841F2E2
:101370008831002B00F0ED8125F060F8894A8E4914
:101380008A4846F007FA8948FEF7B4FF87490346C2
:1013900082B2874823F0AAFF206825F072F82B7EDE
:1013A000052B1BD16B7E41F28831AE7E206806EBA7
:1013B000032625F043F87B4AB6B280497B48334682
:1013C00046F0E8F97948FEF795FF7849034682B27E
:1013D000774823F08BFF206825F053F82B7E102BE5
:1013E00017D16E7E41F28831206825F027F8334608
:1013F0006C4A73496D4846F0CDF96C48FEF77AFFA8
:101400006A49034682B26A4823F070FF206825F0DB
:1014100038F82B7E112B17D16E7E41F2883120686F
:1014200025F00CF833465F4A6649604846F0B2F949
:101430005E48FEF75FFF5D49034682B25C4823F0D9
:1014400055FF206825F01DF82B7E122B30D141F27C
:101450008831206824F0F2FF6B7E524A5549534888
:1014600046F098F95148FEF745FF5049034682B2CD
:101470004F4823F03BFF206825F003F86B7E20687F
:1014800041F28831002B00F0698124F0D7FF454AF2
:101490004D49464846F07EF94448FEF72BFF434944
:1014A000034682B2424823F021FF206824F0E9FF7E
:1014B0002B7E132B37D16B7E41F28831AF7E2E7F8E
:1014C00007EB0327EB7E2068BFB206EB032624F070
:1014D000B5FF3B46334AB6B23C49344846F05AF968
:1014E0003248FEF707FF3149034682B2304823F005
:1014F000FDFE206824F0C5FF41F28831206824F009
:101500009DFF3346274A3249284846F043F9274889
:10151000FEF7F0FE2549034682B2254823F0E6FE99
:10152000206824F0AEFF2B7E202B40F040816E7EA1
:101530002068212E00F21781212E00F21A81DFE8A7
:1015400016F02001A201AA01ED01180105020D0209
:1015500015021D02F5011801FD01180118011801FD
:1015600018011801180118011801180118011801B3
:1015700018011801180118011801180118011801A3
:10158000180125022D0241F2883124F057FF054A47
:101590001049BDE641F2883124F050FF014A0E495E
:1015A000B6E600BF6C6E0508C7A004081848002402
:1015B00064C100248DA40408B4A404083DA5040853
:1015C00056A5040878A504089DA5040810A60408DB
:1015D0003AA60408F1A0040819A1040841F28831D0
:1015E00024F02CFFB04AB14992E641F2883124F050
:1015F00025FFAD4AAE498BE641F2883124F01EFF4B
:10160000A94AAC4984E641F2883124F017FFA64A82
:10161000A9497DE641F2883124F010FFA24AA7498A
:1016200076E641F2883124F009FF9F4AA4496FE62B
:1016300041F2883124F002FF9B4AA24968E641F258
:10164000883124F0FBFE984A9F4961E641F28831D7
:1016500024F0F4FE944A9D495AE641F2883124F080
:10166000EDFE914A9A4953E641F2883124F0E6FEB4
:101670008D4A98494CE641F2883124F0DFFE8A4ACF
:10168000954945E641F2883124F0D8FE864A9349CF
:101690003EE641F28831206824F0D0FE6B7E824A1B
:1016A00000268F498F4846F075F88E48FEF722FED7
:1016B000DFF86482034682B28A498B4823F016FE23
:1016C000206824F0DEFE41F28831206824F0B6FE66
:1016D00018F8013F744A4FEAC6098449002700936D
:1016E000334680485FFA89F946F054F87D48FEF7A2
:1016F00001FE7C49034682B27B4823F0F7FD206857
:1017000024F0BFFE98F800303B41DB071AD541F2C8
:101710008831206824F092FE09F10103624A3B44BB
:1017200073497048DBB2009346F034F86D48FEF719
:10173000E1FD6C49034682B26B4823F0D7FD206877
:1017400024F09FFE0137082FDCD10136112EBAD1CB
:10175000F1E524F073FE544A664911E624F06EFE6A
:10176000514A654995E6FE2E00F02081FF2E00F0DB
:10177000258141F2883124F061FE33464A4A5F49AF
:1017800006E041F2883124F059FE0023464A5C49C4
:10179000544845F0FFFF5348FEF7ACFD514903465E
:1017A00082B2514823F0A2FD206824F06AFE2B7E0D
:1017B000402B30D141F28831206824F03FFE6B7E0F
:1017C000394A5049474845F0E5FF4648FEF792FD43
:1017D0004449034682B2444823F088FD206824F03F
:1017E00050FE6B7E206841F28831002B00F0EE80C5
:1017F00024F024FE2C4A44493A4845F0CBFF3948AE
:10180000FEF778FD3749034682B2374823F06EFD74
:10181000206824F036FE2B7E802B40F0E18041F2E0
:101820008831206824F00AFE6B7E1F4A35492D4816
:1018300045F0B0FF2B48FEF75DFD2A49034682B212
:10184000294823F053FD206824F01BFE6B7E20689E
:1018500041F28831002B00F0BE8024F0EFFD124AE7
:101860002A49204845F096FF1E48FEF743FD1D49D2
:10187000034682B21C4823F039FD206803B0BDE85E
:10188000F04324F0FEBD41F2883124F0D7FD01235E
:10189000054A1F497CE741F2883124F0CFFD02233D
:1018A000014A1C4974E700BF6C6E050848A1040892
:1018B00078A10408A8A10408DEA104080AA204086B
:1018C00036A2040868A2040898A20408C8A2040862
:1018D00001A3040838A304086FA30408A2A3040802
:1018E00013A404081848002464C1002433A4040885
:1018F0005BA40408F2A40408D0A5040871A8040895
:1019000064A604088DA4040895A80408F6A8040891
:1019100083A60408A3A60408991C002441F2883178
:1019200024F08CFD0323304A304931E741F28831FD
:1019300024F084FD09232C4A2D4929E741F28831FE
:1019400024F07CFD0B23284A2A4921E741F2883103
:1019500024F074FD0523244A274919E741F2883110
:1019600024F06CFD0623204A244911E741F2883116
:1019700024F064FD07231C4A214909E741F288311C
:1019800024F05CFD0823184A1E4901E741F2883122
:1019900024F054FD2023144A1B49F9E641F2883112
:1019A00024F04CFD2123104A1849F1E641F2883118
:1019B00024F044FD33460C4A1549E9E641F28831EA
:1019C00024F03CFD3346084A1249E1E624F036FD96
:1019D000054A114910E724F031FD034A0F4940E759
:1019E00003B0BDE8F08300BF6C6E0508D5A60408FF
:1019F000FBA6040828A7040854A7040876A704082F
:101A000099A70408BCA70408DEA7040800A80408D6
:101A100022A8040848A80408C5A804082CA904089A
:101A200070B55C4D41F288315B4CAB7D2068012B79
:101A30005A4E49D124F002FD3388594A59495A482F
:101A400045F0A8FE5848FEF755FC5749034682B2B8
:101A5000564823F04BFC206824F013FD41F28831F6
:101A6000206824F0EBFC2B7E4D4A51494E4845F04E
:101A700091FE4D48FEF73EFC4B49034682B24B486F
:101A800023F034FC206824F0FCFC2B7E206841F21B
:101A90008831A3B124F0D2FC414A4649424845F07E
:101AA00079FE4148FEF726FC3F49034682B23F4893
:101AB00023F01CFC2068BDE8704024F0E2BC24F058
:101AC000BDFC374A3C49E9E724F0B8FC3388344A86
:101AD0003A49354845F05EFE3348FEF70BFC324983
:101AE000034682B2314823F001FC206824F0C9FC8F
:101AF00041F28831206824F0A1FC2B7E284A30492D
:101B0000294845F047FE2848FEF7F4FB26490346DE
:101B100082B2264823F0EAFB206824F0B2FC41F2AE
:101B20008831206824F08AFC6B7E1D4A25491E48B6
:101B300045F030FE1C48FEF7DDFB1B49034682B230
:101B40001A4823F0D3FB206824F09BFC6B7E2068AE
:101B500041F28831032B17D8DFE803F002070C119C
:101B600024F06CFC0E4A184998E724F067FC0C4AF4
:101B7000164993E724F062FC094A15498EE724F0E0
:101B80005DFC074A134989E724F058FC044A1249CE
:101B900084E700BF801C0024685000248C0E0024C1
:101BA000426E050880A904081848002464C1002476
:101BB0009CA90408B8A90408F0A9040815AA0408F7
:101BC0002EAA040847AA040860AA040875AA0408F3
:101BD0009FAA0408D6AA040801AB040838B5364CFD
:101BE00041F28831354D206824F028FC344B354AC9
:101BF0003549364845F0CEFD3448FEF77BFB334986
:101C0000034682B2324823F071FB206824F039FC8D
:101C100041F28831206824F011FC2948FEF76AFB64
:101C20002844284A437E2B49284845F0B3FD2748DD
:101C3000FEF760FB2549034682B2254823F056FB98
:101C4000206824F01EFC05F11800FEF753FB284421
:101C5000437E2068032B11D0072B26D041F2883118
:101C600024F0ECFB05F11800FEF744FB0544154A8F
:101C70006B7E1949154845F08DFD08E041F2883129
:101C800024F0DCFB0F4A1549104845F083FD0F484E
:101C9000FEF730FB0D49034682B20D4823F026FBC8
:101CA0002068BDE8384024F0ECBB41F2883124F0D4
:101CB000C5FB044A0A49E7E768500024801C002459
:101CC000981C0024046E050831AB04081848002451
:101CD00064C100244FAB0408AAAB04086DAB040830
:101CE00089AB040810B50D4C41F28831206824F00E
:101CF000A5FB0B4B0B4A1B7E0B490C4845F04AFDDC
:101D00000A48FEF7F7FA0949034682B2084823F069
:101D1000EDFA2068BDE8104024F0B3BB6850002401
:101D2000801C00244B6D0508F0AB04081848002403
:101D300064C1002438B5444D41F28831434CAB7D39
:101D40002068012B32D124F079FB2B7E404A414997
:101D5000414845F01FFD4048FEF7CCFA3E49034696
:101D600082B23E4823F0C2FA206824F08AFB2B7E20
:101D7000206841F28831A3B124F060FB344A38492D
:101D8000354845F007FD3448FEF7B4FA32490346BA
:101D900082B2324823F0AAFA2068BDE8384024F025
:101DA00070BB24F04BFB2A4A2E49E9E724F046FB9E
:101DB0002B7E274A2C49284845F0ECFC2648FEF7A4
:101DC00099FA2549034682B2244823F08FFA206805
:101DD00024F057FB41F28831206824F02FFB6B7E02
:101DE0001B4A22491C4845F0D5FC1B48FEF782FAE5
:101DF0001949034682B2194823F078FA206824F082
:101E000040FB6B7E206841F28831032B17D8DFE856
:101E100003F002070C1124F011FB0D4A1449AFE73F
:101E200024F00CFB0A4A1349AAE724F007FB084AEE
:101E30001149A5E724F002FB054A1049A0E724F068
:101E4000FDFA034A0E499BE7801C002468500024D9
:101E5000236D05089CA904081848002464C10024C7
:101E6000B8A90408F0A904080AAC040825AC0408C1
:101E700060AA040875AA04089FAA0408D6AA040840
:101E800001AB040838B5444D41F28831434CAB7D79
:101E90002068012B32D124F0D1FA2B7E404A4149EF
:101EA000414845F077FC4048FEF724FA3E49034696
:101EB00082B23E4823F01AFA206824F0E2FA2B7E20
:101EC000206841F28831A3B124F0B8FA344A384985
:101ED000354845F05FFC3448FEF70CFA32490346BA
:101EE00082B2324823F002FA2068BDE8384024F07C
:101EF000C8BA24F0A3FA2A4A2E49E9E724F09EFA48
:101F00002B7E274A2C49284845F044FC2648FEF7FA
:101F1000F1F92549034682B2244823F0E7F9206805
:101F200024F0AFFA41F28831206824F087FA6B7E02
:101F30001B4A22491C4845F02DFC1B48FEF7DAF9E4
:101F40001949034682B2194823F0D0F9206824F0D9
:101F500098FA6B7E206841F28831032B17D8DFE8AE
:101F600003F002070C1124F069FA0D4A1449AFE797
:101F700024F064FA0A4A1349AAE724F05FFA084AEF
:101F80001149A5E724F05AFA054A1049A0E724F0C0
:101F900055FA034A0E499BE7801C00246850002430
:101FA000FB6C05089CA904081848002464C100249F
:101FB000B8A90408F0A904080AAC040825AC040870
:101FC00060AA040875AA04089FAA0408D6AA0408EF
:101FD00001AB040838B51C4C41F288311B4D206818
:101FE00024F02CFA6B7E1A4A1A491B4845F0D2FBA2
:101FF0001948FEF77FF91849034682B2174823F0C3
:1020000075F9206824F03DFA2B7E206841F2883172
:10201000A3B124F013FA0E4A11490F4845F0BAFB58
:102020000D48FEF767F90C49034682B20B4823F0CE
:102030005DF92068BDE8384024F023BA24F0FEF9A9
:10204000034A0849E9E700BF68500024801C0024C7
:102050005C6C050840AC04081848002464C10024E6
:1020600066AC040895AC040838B5444D41F288319B
:10207000434CAB7D2068012B32D124F0DFF92B7E5D
:10208000404A4149414845F085FB4048FEF732F956
:102090003E49034682B23E4823F028F9206824F0E6
:1020A000F0F92B7E206841F28831A3B124F0C6F903
:1020B000344A3849354845F06DFB3448FEF71AF983
:1020C0003249034682B2324823F010F92068BDE855
:1020D000384024F0D6B924F0B1F92A4A2E49E9E76C
:1020E00024F0ACF92B7E274A2C49284845F052FBB6
:1020F0002648FEF7FFF82549034682B2244823F01C
:10210000F5F8206824F0BDF941F28831206824F008
:1021100095F96B7E1B4A22491C4845F03BFB1B4846
:10212000FEF7E8F81949034682B2194823F0DEF8B1
:10213000206824F0A6F96B7E206841F28831032BD9
:1021400017D8DFE803F002070C1124F077F90D4AE5
:102150001449AFE724F072F90A4A1349AAE724F0B8
:102160006DF9084A1149A5E724F068F9054A1049B4
:10217000A0E724F063F9034A0E499BE7801C002482
:1021800068500024306C05089CA9040818480024F5
:1021900064C10024D2AC040801AD0408F0AB04080B
:1021A00048AD040860AA040875AA04089FAA040898
:1021B000D6AA040801AB040838B5404D41F2883175
:1021C0003F4CAB7D2068012B32D124F037F92B7EB8
:1021D0003C4A3D493D4845F0DDFA3C48FEF78AF867
:1021E0003A49034682B23A4823F080F8206824F046
:1021F00048F92B7E206841F28831A3B124F01EF902
:10220000304A3449314845F0C5FA3048FEF772F893
:102210002E49034682B22E4823F068F82068BDE8B4
:10222000384024F02EB924F009F9264A2A49E9E772
:1022300024F004F92B7E234A2849244845F0AAFAC1
:102240002248FEF757F82149034682B2204823F07E
:102250004DF8206824F015F941F28831206824F007
:10226000EDF86B7E174A1E49184845F093FA174857
:10227000FEF740F81549034682B2154823F036F8B8
:10228000206824F0FEF86B7E2068052B08D0062B12
:102290000DD041F2883124F0D1F80A4A1149B1E752
:1022A00041F2883124F0CAF8064A0F49AAE741F200
:1022B000883124F0C3F8034A0C49A3E7801C0024AA
:1022C000685000240D6C05089CA9040818480024D7
:1022D00064C1002462AD040884AD0408C0AD0408E4
:1022E000DEAD040828AE0408FCAD040810AE0408F6
:1022F00038B5444D41F28831434CAB7D2068012B09
:1023000032D124F09BF82B7E404A4149414845F0A8
:1023100041FA4048FDF7EEFF3E49034682B23E488F
:1023200022F0E4FF206824F0ACF82B7E206841F214
:102330008831A3B124F082F8344A3849354845F051
:1023400029FA3448FDF7D6FF3249034682B23248B3
:1023500022F0CCFF2068BDE8384024F092B824F089
:102360006DF82A4A2E49E9E724F068F82B7E274ABF
:102370002C49284845F00EFA2648FDF7BBFF2549B1
:10238000034682B2244822F0B1FF206824F079F895
:1023900041F28831206824F051F86B7E1B4A2249B3
:1023A0001C4845F0F7F91B48FDF7A4FF19490346FF
:1023B00082B2194822F09AFF206824F062F86B7EFE
:1023C000206841F28831032B17D8DFE803F00207B9
:1023D0000C1124F033F80D4A1449AFE724F02EF81D
:1023E0000A4A1349AAE724F029F8084A1149A5E73F
:1023F00024F024F8054A1049A0E724F01FF8034A06
:102400000E499BE7801C002468500024E16B0508FE
:102410009CA904081848002464C1002457AE04088D
:1024200086AE0408F0AB040848AD040860AA0408AE
:1024300075AA04089FAA0408D6AA040801AB0408D8
:10244000F8B5774D774CAB7D2068012B764F40F087
:102450008680764E41F288312B7E337023F0EEFF7A
:102460003B88734A7349744845F094F97248FDF704
:1024700041FF7149034682B2704822F037FF20685D
:1024800023F0FFFF41F28831206823F0D7FF337833
:10249000674A6B49684845F07DF96748FDF72AFFB0
:1024A0006549034682B2654822F020FF206823F088
:1024B000E8FF33782068082B08D8082B0AD8DFE813
:1024C00003F021092B09320909093900102B38D0F2
:1024D000202B3DD041F2883123F0B0FF3378544AAD
:1024E0005849554845F056F95348FDF703FF5249FE
:1024F000034682B2514822F0F9FE2068BDE8F84058
:1025000023F0BFBF41F2883123F098FF484A4E497B
:10251000494845F03FF9E7E741F2883123F08EFF63
:10252000434A4A49F4E741F2883123F087FF404AA1
:102530004749EDE741F2883123F080FF3C4A4549A5
:10254000E6E741F2883123F079FF394A4249DFE773
:1025500041F2883123F072FF354A4049D8E741F211
:10256000883123F06BFF3B88314A3D49324845F0C2
:1025700011F93148FDF7BEFE2F49034682B22F48BC
:1025800022F0B4FE206823F07CFF41F288312068FD
:1025900023F054FF2B7E264A3249274845F0FAF8AB
:1025A0002548FDF7A7FE2449034682B2234822F0BE
:1025B0009DFE206823F065FF41F28831206823F0FA
:1025C0003DFF6B7E1A4A28491B4845F0E3F81A483C
:1025D000FDF790FE1849034682B2184822F086FEA5
:1025E000206823F04EFF6B7E206841F28831012B7A
:1025F00007D0022B0AD073B923F020FF0C4A1B49E5
:1026000086E723F01BFF0A4A194981E723F016FFEA
:10261000074A18497CE723F011FF054A164977E776
:10262000801C0024685000248C0E00241206002414
:10263000706B050880A904081848002464C10024B0
:102640009CA90408AAAF0408CDAE0408F4AE04089F
:1026500017AF040838AF04085AAF040886AF04085F
:10266000E6AF040819B004084CB004087FB00408B1
:10267000D5B004082BB104088AB1040838B5124B50
:1026800041F28831114C1B7E2068114DABB123F013
:10269000D5FE2B880F4A1049104845F07BF80F48AB
:1026A000FDF728FE0D49034682B20D4822F01EFEBA
:1026B0002068BDE8384023F0E4BE23F0BFFE2B883D
:1026C000044A0849E8E700BF801C00246850002441
:1026D0008C0E00244D6B0508CFB104081848002467
:1026E00064C100242BB2040838B51C4C41F2883177
:1026F0001B4D206823F0A2FE2B7E1A4A1A491B4864
:1027000045F048F81948FDF7F5FD1849034682B22F
:10271000174822F0EBFD206823F0B3FE2B7E2068E3
:1027200041F28831A3B123F089FE0E4A11490F48C6
:1027300045F030F80D48FDF7DDFD0C49034682B247
:102740000B4822F0D3FD2068BDE8384023F099BE45
:1027500023F074FE034A0849E9E700BF68500024EB
:10276000801C0024296B050874B204081848002452
:1027700064C1002496B20408BCB2040838B5234CE6
:1027800041F28831224D206823F058FE2B7E214AE9
:102790002149224844F0FEFF2048FDF7ABFD1F49C8
:1027A000034682B21E4822F0A1FD206823F069FE94
:1027B0002B7E206841F28831012B17D0022B1AD0D2
:1027C000F3B923F03BFE134A1649144844F0E2FFE4
:1027D0001248FDF78FFD1149034682B2104822F0DE
:1027E00085FD2068BDE8384023F04BBE23F026FE6F
:1027F000084A0D49E9E723F021FE064A0B49E4E7C0
:1028000023F01CFE034A0A49DFE700BF685000249A
:10281000801C0024866A0508E6B2040818480024D3
:1028200064C1002409B3040817B3040827B30408DB
:1028300040B3040838B51C4C41F288311B4D206868
:1028400023F0FCFD6B7E1A4A1A491B4844F0A2FF94
:102850001948FDF74FFD1849034682B2174822F088
:1028600045FD206823F00DFE2B7E206841F2883163
:10287000A3B123F0E3FD0E4A11490F4844F08AFF4B
:102880000D48FDF737FD0C49034682B20B4822F094
:102890002DFD2068BDE8384023F0F3BD23F0CEFDC8
:1028A000034A0849E9E700BF68500024801C00245F
:1028B000656A050866B304081848002464C100244A
:1028C0008DB30408BDB3040838B51C4C41F28831FF
:1028D0001B4D206823F0B2FD2B7E1A4A1A491B4873
:1028E00044F058FF1948FDF705FD1849034682B228
:1028F000174822F0FBFC206823F0C3FD2B7E2068E4
:1029000041F28831A3B123F099FD0E4A11490F48D5
:1029100044F040FF0D48FDF7EDFC0C49034682B240
:102920000B4822F0E3FC2068BDE8384023F0A9BD45
:1029300023F084FD034A0849E9E700BF68500024FA
:10294000801C0024466A0508F3B3040818480024D4
:1029500064C1002413B4040833B4040838B5A44C8B
:1029600041F28831A34D206823F068FD2B68A24A0C
:102970001B78A249A24844F00DFFA148FDF7BAFC1C
:102980009F49034682B29F4822F0B0FC206823F0A2
:1029900078FD41F28831206823F050FD964A9A492B
:1029A000974844F0F7FE9648FDF7A4FC9449034687
:1029B00082B2944822F09AFC206823F062FD41F232
:1029C0008831206823F03AFD2B688B4A5B788F4969
:1029D0008B4844F0DFFE8A48FDF78CFC88490346AB
:1029E00082B2884822F082FC206823F04AFD2B68DE
:1029F000206841F288315B78013B042B72D8DFE814
:102A000003F0035D62676C0023F018FD7A4A804989
:102A10007B4844F0BFFE7A48FDF76CFC78490346DA
:102A200082B2784822F062FC206823F02AFD2B68ED
:102A30005B78012B17D141F28831206823F0FEFC2E
:102A40002B686D4A9B7873496D4844F0A3FE6C482F
:102A5000FDF750FC6A49034682B26A4822F046FC00
:102A6000206823F00EFD2B685B78032B40F08A80F2
:102A700041F28831206823F0E1FC2B685E4A9B78A4
:102A800065495F4844F086FE5D48FDF733FC5C49CC
:102A9000034682B25B4822F029FC206823F0F1FC57
:102AA0002B6820689B7813BB41F2883123F0C6FC69
:102AB000514A5A49524844F06DFE27E023F0BEFCCB
:102AC0004D4A5749A4E723F0B9FC4B4A55499FE7C3
:102AD00023F0B4FC484A54499AE723F0AFFC464A35
:102AE000524995E723F0AAFC434A514990E75A1E00
:102AF00041F28831622A00F2A78023F09FFC2B6804
:102B00003D4A9B784B493E4844F044FE3C48FDF723
:102B1000F1FB3B49034682B23A4822F0E7FB2068CA
:102B200023F0AFFC41F28831206823F087FC2B684A
:102B3000314ADB784049324844F02CFE3048FDF7FA
:102B4000D9FB2F49034682B22E4822F0CFFB2068E2
:102B500023F097FC41F28831206823F06FFC2B684A
:102B6000254A1B793549264844F014FE2448FDF7D0
:102B7000C1FB2349034682B2224822F0B7FB2068FA
:102B800023F07FFC2B685B78042B69D141F28831FC
:102B9000206823F053FC2B68174ADB782849184833
:102BA00044F0F8FD1648FDF7A5FB1549034682B22F
:102BB000144822F09BFB206823F063FC41F288312B
:102BC000206823F03BFC2B680B4A1B791D490C48FD
:102BD00044F0E0FD0A48FDF78DFB0949034682B247
:102BE000084822F083FB2068BDE8384023F049BC48
:102BF00068500024C8130024226A050854B404084D
:102C00001848002464C1002474B40408A0B4040863
:102C1000C0B40408B6B50408D6B50408F6B504086F
:102C2000DFB40408FEB4040820B504084EB5040857
:102C30007BB5040803B604086BB604088BB6040819
:102C4000ABB60408CBB60408FF2B04D123F0F6FB87
:102C5000044A05492EE723F0F1FB024A034929E71C
:102C600038BD00BF226A050818B6040843B6040838
:102C700010B50E4C41F28831206823F0DFFB0C4B7D
:102C80000C4A1B680C491B780C4844F083FD0B4828
:102C9000FDF730FB0949034682B2094822F026FBC2
:102CA0002068BDE8104023F0ECBB00BF6850002452
:102CB000C8130024EA690508EBB604081848002484
:102CC00064C1002410B50D4C41F28831206823F016
:102CD000B5FB0B4B0B4ADB7D0B490C4844F05AFD0E
:102CE0000A48FDF707FB0949034682B2084822F06B
:102CF000FDFA2068BDE8104023F0C3BB68500024F3
:102D0000801C0024CD6905082EB70408184800244B
:102D100064C100240C4C41F2883108B5206823F0CE
:102D20008DFB0A4A0A490B4844F034FD0948FDF777
:102D3000E1FA0849034682B2074822F0D7FA206830
:102D400023F09FFB72B6FEE768500024BC650508BF
:102D500076B704081848002464C1002438B5104B25
:102D600041F288310F4D1A7E5C7E286804EB022404
:102D700023F064FB0C4AA4B20C490D48234644F0EE
:102D800009FD0B48FDF7B6FA0949034682B2094826
:102D900022F0ACFA2868BDE8384023F072BB00BFCF
:102DA000801C002468500024BD6B0508C0B70408CF
:102DB0001848002464C100240D4C41F2883108B544
:102DC000206823F03BFB0B4A0B490C4844F0E2FC23
:102DD0000A48FDF78FFA0949034682B2084822F0F3
:102DE00085FA206823F04DFB642023F0E3FAFBE72B
:102DF00068500024F7650508DAB70408184800246D
:102E000064C100240E4C41F2883108B5206823F0DB
:102E100015FB0C4A0C490D4844F0BCFC0B48FDF76F
:102E200069FA0A49034682B2094822F05FFA20682B
:102E300023F027FB4FF4FA7023F0BCFAFAE700BF47
:102E400068500024E0650508DAB704081848002433
:102E500064C100240E4C41F2883108B5206823F08B
:102E6000EDFA0C4A0C490D4844F094FC0B48FDF770
:102E700041FA0A49034682B2094822F037FA20682B
:102E800023F0FFFA4FF4FA7023F094FAFAE700BF48
:102E900068500024D4650508DAB7040818480024EF
:102EA00064C1002410B5114C41F28831206823F030
:102EB000C5FA0F4A0F49104844F06CFC0E48FDF764
:102EC00019FA0D49034682B20C4822F00FFA206825
:102ED000002423F0D6FA6434FA2C03D9002401200C
:102EE00019F02CFB642023F065FAF4E76850002405
:102EF000EC650508DAB704081848002464C100240A
:102F0000104B41F2883110B50F4C1B7E2068A3B1E5
:102F100023F094FA0D4A0E490E4844F03BFC0D484C
:102F2000FDF7E8F90B49034682B20B4822F0DEF9BF
:102F30002068BDE8104023F0A4BA23F07FFA034ACA
:102F40000649E9E7801C002468500024976B0508B7
:102F5000F0B704081848002464C1002421B804080C
:102F600070B59CB04C22002109A844F036FD202207
:102F7000002101A844F031FD04201DF03BFC00239A
:102F800000932C4BDA6A22F00102DA62DB6A03F06A
:102F900001030093284B9A6942F440429A619A696E
:102FA00002F440420092009A9A699404FCD51DF004
:102FB00019FC022419F006FF204A27210520136F6F
:102FC0004025082623F0180313674FF480330D952E
:102FD0001694CDE909130123CDE90B330F93A023F8
:102FE000CDE91403042309A8CDE917340023CDE962
:102FF0001244CDE919631B931EF056FA08B1FFF78E
:1030000089FE3F2203232146CDE901234FF480634B
:10301000CDE9030601A8CDE90555CDE907351EF038
:10302000F1FE01460028EAD14FF480221EF0B2FDE5
:103030001CB070BD000400580048025800440258FB
:103040002DE98048A7B010220021012419A844F0DE
:10305000C4FC19F04BFF4FF05040CC4BADF864402E
:10306000CDE91A03CA4B19A81C9319F05DFF4FF064
:10307000104319A88DF865401A931A238DF86C3007
:1030800019F052FF042019F03FFFC24B5A6912F4A5
:10309000003211D1BFF34F8FBFF36F8FC3F85022AF
:1030A000BFF34F8FBFF36F8F5A6942F400325A61FA
:1030B000BFF34F8FBFF36F8FB64A536913F480335A
:1030C00023D1C2F88430BFF34F8FD2F8803043F65B
:1030D000E074C3F3C900C3F34E335B0103EA040693
:1030E000014646EA81750139C2F86052F9D2203BA7
:1030F00013F1200FF2D1BFF34F8F536943F48033A4
:103100005361BFF34F8FBFF36F8FA34C19F008FECD
:10311000FFF726FF1422002119A844F05EFCD4F822
:10312000E0300022082143F480639C4800250126FA
:10313000C4F8E0304FF00809D4F8E03002274FF02F
:10314000030B4FF0040A03F480634FF0400802932E
:10315000029BD4F8E03043F04003C4F8E030D4F8E8
:10316000E03003F040030393039BD4F8E03043F0D6
:103170000803C4F8E030D4F8E03003F00803049307
:10318000049BD4F8E03043F00403C4F8E030D4F8F2
:10319000E03003F004030593059BD4F8E03043F4DA
:1031A0008073C4F8E030D4F8E03003F48073069301
:1031B000069BD4F8E03043F01003C4F8E030D4F8B4
:1031C000E03003F010030793079BD4F8E03043F09E
:1031D0000203C4F8E030D4F8E03003F002030893AF
:1031E000089BD4F8E03043F40073C4F8E030D4F81E
:1031F000E03003F400730993099BD4F8E03043F006
:103200000103C4F8E030D4F8E03003F001030A937E
:103210000A9BD4F8E03043F02003C4F8E030D4F83F
:10322000E03003F020030B930B9BD4F8E03043F025
:103230008003C4F8E030D4F8E03003F080030C934E
:103240000C9B1AF0D5FC01224FF4005154481AF09F
:10325000CFFC0022082153481AF0CAFC002240216A
:1032600051481AF0C5FC0122042150481AF0C0FC54
:1032700019A94A48CDE91996CDE91B551AF036FA35
:103280004FF4807319A948481D95CDE91937CDE948
:103290001B551AF02BFA4FF4005319A94048CDE9F9
:1032A0001936CDE91B551AF021FA19A93D481B958D
:1032B000CDF870B0CDE919961AF018FA4FF404124F
:1032C00019A938481B95CDE919A21AF00FFA4FF445
:1032D000406219A93648CDE919270722CDE91B6BB1
:1032E0001D921AF003FA19A92F48CDE91B5BCDE90D
:1032F00019861AF0FBF919A92C48CDE91B55CDE91F
:1033000019A61AF0F3F92A460521484619F07EFD60
:10331000484619F0BFFDD4F8D4302A46052133437E
:103320007A204FF01009C4F8D430D4F8D4303340A8
:103330000193019B19F06AFD7A2019F0ABFD1D4A3B
:103340001D4B4FF400619560C2F80CA01297C2E9C2
:103350000036C2E9049813464FF48072DD619A6129
:103360001A464FF4805310469562C2E908130623AB
:1033700012A9CDE9133ACDE91537CDE9177720F039
:10338000C5FD0546D0B1FFF7C5FC00BF1300000323
:103390000100010100ED00E000440258000C025859
:1033A0000020025800180258000002580024025859
:1033B000000402589CC0002440410052C8484FF00D
:1033C000350A0DF0E7FEC74C0DF070FE3422294699
:1033D00019A844F002FBC44B4FF0280E40F2152B05
:1033E00040F2352220462561A58684F83650C4E98E
:1033F00000350923C4E905E30B23C4E907A340F220
:103400001B13C4E909B340F21D13C4E90255C4E912
:103410000B231CF0A7F802460028B4D14FF4F0713A
:1034200019904FF4806C4FF48873ADF89420249376
:103430008DF89620CDE91A10FF20CDE91E02052057
:10344000CDE920C04FF05040CDE9220119A9204616
:10345000CDE91C371CF0AAF90346002893D1A348F4
:10346000A34A838002600662C0E9053319F0E0FDDB
:103470000346002887D19F484FF440329E4DC0E953
:103480000273C0E900521AF021F800287FF47BAFE4
:103490009A4A9B4B104613601BF0D2F90346002852
:1034A0007FF471AF97481A24974A8361C0F820804F
:1034B000C0E900264FF40072C0E90269C0E9044285
:1034C0001DF0D2FA054600287FF45DAF8F4C84488A
:1034D0000DF04AFE8E498F4B20462562C4E9001349
:1034E000C4E90256C4E90455C4E906551AF01CFDA6
:1034F000014600287FF447AF20461AF08FFF0146AF
:1035000000287FF440AF20461AF0D0FF00287FF457
:103510003AAF814A4FF4E137804B0C2610461360D6
:103520000023C2E90173C2E90333C2E90563C2E9BA
:103530000733C2E9093321F089FF014600287FF4EF
:1035400022AF754822F028F9014600287FF41BAF0E
:10355000714822F07BF900287FF415AF6E4822F005
:10356000CFF8054600287FF40EAF142201460DA8BF
:103570006B4C44F032FA6B4B7F222046009525615C
:103580006561C4E90035FF23C4E90655C4E9022397
:1035900020F040FA00287FF4F6AEADF834000122A6
:1035A0008DF836000DA9CDE91000204620F0E0FA94
:1035B00000287FF4E8AE5C4B204601226946009368
:1035C00020F0D8FB044600287FF4DDAE0EF07AFB35
:1035D0005648574B84604461C0E900344FF40043BF
:1035E000C0E903341DF098F800287FF4CCAE514CAC
:1035F000514BA062C4E90200C4E90406C4E9060014
:10360000C4E908002046C4E9003721F01FFF014645
:1036100000287FF4B8AE204622F0BEF800287FF4E0
:10362000B2AE0021204622F011F900287FF4ABAEA3
:10363000204622F065F8034600287FF4A4AE3F48F8
:103640003F4AC0E9002320F0EBF8044600287FF44D
:103650009AAE0EF087FB0EF084FB22F03BFE394859
:1036600022F0B4FE384B394A02211860402022F083
:10367000CEFF374B374A02211860402022F0C7FFA7
:10368000354B364A012118604FF4006022F0BFFF2D
:10369000334B344A012118604FF4807022F0B7FF99
:1036A000314B324A02211860402022F0B0FF304BEB
:1036B000304A21461860304822F038FE2F4B304AFD
:1036C000214618602F4822F031FE2F4B2F4A214609
:1036D00018602F4822F02AFE2E4B2F4A21465DE02B
:1036E000152D0008F4C400240010005088C70024E1
:1036F000004C025820C700240010005274C6002459
:1037000000300052A8C4002400500052CCC600244F
:10371000001C0058B634900064C100240010014021
:1037200070C400240040005801010100F8C10024C9
:1037300000700052D0C000240044004094C4002413
:1037400000180248B072050868500024207305086C
:103750008C5C002408730508B85B0024F07205082F
:10376000E45A0024D872050890520024C07205085B
:103770003C510024107405088955000898C00024A5
:10378000EC730508731D0108ECAF0024C87305082D
:10379000B92D0008E8AF0024A473050818600E488E
:1037A00022F0C4FD0D4B0E4A214618600D4822F050
:1037B000BDFD0D4B0D4A214618600D4822F0B6FDA7
:1037C0000C4B0D4A214618600C4822F0AFFD0C4B03
:1037D000186022F091FDFEE7A52E00083C9F002412
:1037E00080730508052E0008908E00245C73050880
:1037F000552E0008E47D002438730508DD0101081A
:10380000386D0024F7B5204C07460E4615460021BA
:103810006FF001021D4826F01CFC0346206098B999
:10382000394600901022194826F0C4F9014620605C
:1038300050B91022284644F0D0F8102332462946C9
:10384000124826F01CFC2060104826F012FC236869
:10385000BBB10F4D41F28831286822F0EFFD23689B
:103860000C4A0D490D4843F095FF0C48FCF742FD0A
:103870000A49034682B20A4821F038FD286822F03E
:1038800000FE206803B0F0BDFC0A0024000B0024F9
:10389000685000247A72050860B8040818480024AB
:1038A00064C100240378427802EB03228378C07855
:1038B00003EB022300EB03207047000010B5084C17
:1038C00064300139A3609DF8083060612046636070
:1038D0009DF80C30C4E90321236044F0BFF910BD0A
:1038E000D80A002400F1100212F8013D0133DBB2C6
:1038F00013700BB98242F7D1704700002DE9F041F7
:10390000044600F11105324F0E4601342846FFF7F8
:10391000E9FF29462F4A2046FFF774FF3860002848
:103920003CD12C4B2C4A03F1100853F8041B43459F
:1039300042F8041BF9D128462946FFF7D3FF254A50
:103940002046FFF75FFF386040BB244A214B1046FA
:1039500053F8041B434542F8041BF9D1731E1E4A59
:103960001F3613F801CF1178B34281EA0C0102F837
:10397000011BF6D1184B53F8042B834244F8042B57
:10398000F9D1164B294603F1100253F8040B934268
:1039900041F8040BF9D13868BDE8F081104C41F2D0
:1039A0008831206822F04AFD3B680E4A0E490F48D4
:1039B00043F0F0FE0D48FCF79DFC0C49034682B233
:1039C0000B4821F093FC206822F05BFDE3E700BF89
:1039D0007C0A0024800A00245A0A00246A0A00246F
:1039E000685000242972050860B8040818480024AB
:1039F00064C1002438B504461130174DFFF772FF3B
:103A00000A460146601CFFF7FDFE0146286048B9E2
:103A10002022124843F0E1FF10492046FFF76EFFD5
:103A20002860B8B10E4C41F28831206822F006FDC2
:103A30002B680C4A0C490D4843F0ACFE0B48FCF7D0
:103A400059FC0A49034682B2094821F04FFC20681C
:103A500022F017FD286838BDD40A0024B40A0024D7
:103A6000685000245872050860B8040818480024FB
:103A700064C1002410B5044610220021013043F037
:103A8000ACFF1022002104F1110043F0A6FF102228
:103A9000002104F1210043F0A0FF0023237010BD9A
:103AA0002DE9F047254D0446254F286822F04BFEAE
:103AB00083B23B80002B3BD11846BDE8F087002342
:103AC000DFF894A0414628681A4622F00CFECAF896
:103AD0000000D8B1DFF8849041F28831D9F80000B5
:103AE00022F0ACFCDAF80030164A1749174843F0C8
:103AF00051FE1648FCF7FEFB1449034682B21448F7
:103B000021F0F4FBD9F8000022F0BBFC338898F8D0
:103B10000020E25401339BB22868338022F013FE68
:103B2000338818B140F6FD729342C8D93B80C3E791
:103B30000023084EDFF82880EEE700BF90520024F3
:103B4000580A00240D72050889B804081848002492
:103B500064C10024560A0024500A0024685000243E
:103B6000540A002438B502680446224B9A4210D108
:103B7000214D22492B7822480B70002300681A46F9
:103B800022F080FD1F4B0122294618601E4821F0BB
:103B90006FFD22681D4B9A422BD11D4B1D491B788E
:103BA0001D480B700023174D1A46006822F06AFD6D
:103BB0002860B8B1194C41F28831206822F03EFCEF
:103BC0002B68174A1749184843F0E4FD1648FCF7DC
:103BD00091FB1549034682B20B4821F087FB206810
:103BE00022F04FFC01220A491048BDE8384021F07C
:103BF0003FBD38BD00100140E23700244C0A0024CC
:103C000090520024480A002464C10024004400406B
:103C1000E3370024440A0024E45A002468500024B6
:103C2000F5710508BEB8040818480024D0C0002467
:103C30002DE9F84FDFF8409206460C4641F28831F4
:103C4000D9F80000174698467E4D22F0F7FB002277
:103C500094422A803ED814F00F0335D07A4D0F2BB2
:103C60002B8040F2C28023070CD47849784844F076
:103C70008EFD7748FCF73EFB7549034682B27548D6
:103C800021F034FB7149724844F081FD7048FCF723
:103C900031FB6F49034682B26E4821F027FB24F0C6
:103CA0000F036D4F9BB29C422B8000F2AF806B499B
:103CB000674844F06CFD6648FCF71CFB644903460A
:103CC00082B2644821F012FBD9F80000BDE8F84F39
:103CD00022F0D7BB7FB111070DD1424460495C4847
:103CE00043F058FD5A48FCF705FB5949034682B298
:103CF000584821F0FBFA2B885A49F25C544843F0AB
:103D000049FD5348FCF7F6FA5149034682B251483F
:103D100021F0ECFA54494E4844F039FD4C48FCF788
:103D2000E9FA4B49034682B24A4821F0DFFA2B8870
:103D300003F00F03072B0CD14449454844F027FDFD
:103D40004348FCF7D7FA4249034682B2414821F082
:103D5000CDFA2B8803F00F030F2B25D13B493C48AC
:103D600044F015FD3A48FCF7C5FA3949034682B2DA
:103D7000384821F0BBFA2B88DFF8CCA00F3BDFF8E6
:103D8000D8B09BB22A88AAF800309A4210D23349A0
:103D90002F4844F0FCFC2E48FCF7ACFA2C490346B3
:103DA00082B22C4821F0A2FA2A88013292B24FE75F
:103DB000F25C1BF8023013F0970F11D02B49244806
:103DC00043F0E8FC2248FCF795FA2149034682B209
:103DD000204821F08BFABAF8003001339BB2D1E7CA
:103DE00023491B4844F0D3FCECE72249184844F02F
:103DF000CEFC1748FCF77EFA1549034682B21548F7
:103E000021F074FA2B8801339BB228E7F25CBB5C8B
:103E100013F0970F10D015490D4843F0BBFC0C4828
:103E2000FCF768FA0A49034682B20A4821F05EFAB2
:103E30002B8801339BB236E70D49054844F0A7FCB7
:103E4000EDE700BF420A0024400A00240CB9040830
:103E50001848002464C1002489BC0508B4BF0408C4
:103E6000F5B8040807B9040811B9040813B904081F
:103E700016B904080FB9040868500024F0B5B34C13
:103E80009FB041F28831B24D206822F0D7FAB14A92
:103E9000B149B24843F07EFCB048FCF72BFAAF4979
:103EA000034682B2AE4821F021FA206822F0E9FAF6
:103EB000697D0023AB4E033905F118001A4689B21B
:103EC000FFF7B6FE3378232B5AD16B7D232B40F0BE
:103ED0009C8141F28831206822F0B0FA9D4AA249C3
:103EE00005F118079D4843F055FC9C48FCF702FA81
:103EF0009A49034682B29A4821F0F8F9206822F0E4
:103F0000C0FA41F28831206822F098FA914A974924
:103F1000924843F03FFC9148FCF7ECF98F49034687
:103F200082B28F4821F0E2F9206822F0AAFA41F229
:103F30008831206822F082FA864A8B49874843F00C
:103F400029FC8648FCF7D6F9844982B203468448A6
:103F500021F0CCF9206822F094FA854A05F1380C5A
:103F60003B46083203CB634542F8080C42F8041C78
:103F70001F46F5D1002320217D481A46FFF758FE41
:103F80003378432B40F041816B7D232B40F03D8102
:103F900041F28831206822F051FA6E4A75496F4823
:103FA00043F0F8FB6D48FCF7A5F96C49034682B273
:103FB0006B4821F09BF9206822F063FA41F28831C6
:103FC000206822F03BFA634A6B49644843F0E2FB05
:103FD0006248FCF78FF96149034682B2604821F0DC
:103FE00085F9206822F04DFA41F28831206822F0EC
:103FF00025FA584A5F49594843F0CCFB5748FCF72B
:1040000079F95E4D82B20346544905F120075448C0
:1040100021F06CF9206822F034FA594A2B46083214
:1040200003CBBB4242F8080C42F8041C1D46F5D1F4
:104030000023202152481A46FFF7FAFD09A826F06E
:10404000C5FB0546B0B141F28831206822F0F6F98F
:104050002B46404A4B49414843F09CFB3F48FCF704
:1040600049F93E49034682B23D4821F03FF92068B4
:1040700022F007FA002309AA2021414826F068FB14
:104080000546B0B141F28831206822F0D7F92B46BD
:10409000304A3D49314843F07DFB3048FCF72AF96E
:1040A0002E49034682B22E4821F020F9206822F0E2
:1040B000E8F900236A4601A909A826F0D6FA0546C0
:1040C000B0B141F28831206822F0B8F92B46214A7C
:1040D0002E49224843F05EFB2048FCF70BF91F49AC
:1040E000034682B21E4821F001F9206822F0C9F986
:1040F00009A826F070FB41F28831206822F09EF971
:10410000144A1949154843F045FB1448FCF7F2F8E6
:104110001249034682B2124821F0E8F8206822F0E2
:10412000B0F941F28831206822F088F9094A18492B
:104130000A4843F02FFB0948FCF7DCF8074903461F
:1041400082B2074821F0D2F8206823E068500024AA
:10415000801C0024C66D050818B9040818480024FE
:1041600064C100241B01002435B904085BB90408AC
:10417000600E002481B90408A8B90408981C002422
:10418000400E0024CFB9040807BA04084CBA04084A
:1041900090BA040822F075F941F28831206822F0C3
:1041A0004DF91E4A1E491F4843F0F4FA1D48FCF71A
:1041B000A1F81C49034682B21B4821F097F82068F9
:1041C00022F05FF90023202101A81A46FFF730FDF5
:1041D00001A92022154843F0D7FB034641F288315C
:1041E0002068B3B922F02AF90C4A11490D4843F06E
:1041F000D1FA0C48FCF77EF80A49034682B20A4815
:1042000021F074F8206822F03CF9FF2333701FB0CE
:10421000F0BD22F013F9014A0649E7E7C66D05082B
:1042200035B904081848002464C10024600E002435
:10423000BABA0408EEBA0408F8B5AC4D41F28831B8
:10424000AB4F6A7EAB7EAB4C03EB0223EA7EAA4EF9
:104250003B802B7F206803EB0223338022F0EEF8B3
:104260002B7EA64AA649A74843F094FAA548FCF736
:1042700041F8A449034682B2A34821F037F82068E8
:1042800022F0FFF841F28831206822F0D7F83B880D
:104290009A4A9E499B4843F07DFA9A48FCF72AF8CF
:1042A0009849034682B2984821F020F8206822F00D
:1042B000E8F841F28831206822F0C0F833888F4A4C
:1042C0009349904843F066FA8E48FCF713F88D49FD
:1042D000034682B28C4821F009F8206822F0D1F818
:1042E00041F28831206822F0A9F86B7F834A89491E
:1042F000844843F04FFA8348FBF7FCFF81490346AB
:1043000082B2814820F0F2FF206822F0BAF86E7F76
:10431000002E3AD041F28831206822F08FF87E4991
:10432000784805F11E0744F032FA7648FBF7E2FFC1
:104330007449034682B2744820F0D8FF206822F006
:10434000A0F80023314638461A46FFF771FC734B3C
:10435000AA7F1F60724B1E70724B53F82230984731
:1043600041F28831206822F069F86F49654844F0CD
:104370000EFA6448FBF7BEFF6249034682B2624808
:1043800020F0B4FF206822F07CF8B71D41F288319C
:1043900020682F4422F052F8584A3B7E634959481E
:1043A00043F0F8F95748FBF7A5FF5649034682B298
:1043B000554820F09BFF206822F063F83F7E002FD5
:1043C00030D041F28831206822F038F858494D4801
:1043D00044F0DDF94B48FBF78DFF4A49034682B2B2
:1043E000494820F083FF206822F04BF80023514811
:1043F00039461A463044FFF71BFC41F288312068E9
:1044000022F01CF84C493F4844F0C1F93D48FBF705
:1044100071FF3C49034682B23B4820F067FF2068A9
:1044200022F02FF8354441F2883120683D4422F0D3
:1044300005F8324AEB7F4149324843F0ABF9314845
:10444000FBF758FF2F49034682B22F4820F04EFF5A
:10445000206822F016F841F28831206821F0EEFF42
:1044600095F82030254A3649264843F093F92548E7
:10447000FBF740FF2349034682B2234820F036FF72
:10448000206821F0FEFF41F28831206821F0D6FF3C
:1044900095F82130194A2B491A4843F07BF91948FD
:1044A000FBF728FF1749034682B2174820F01EFF8A
:1044B000206821F0E6FF41F28831206821F0BEFF3C
:1044C00095F822300D4A20490E4843F063F90D4813
:1044D000FBF710FF0B49034682B20B4820F006FFA2
:1044E0002068BDE8F84021F0CCBF00BF801C00244C
:1044F000880E0024685000248A0E0024F56A0508FE
:1045000034BB04081848002464C100246ABB0408B2
:10451000A0BB0408D6BB04080CBC0408C8130024C4
:10452000C51300248014002452BC040898BC04085D
:10453000CEBC04089F1C002428BD040882BD0408CA
:10454000B8BD0408EEBD040824BE04082DE9F04FF0
:104550009A4C85B09A4E41F288312068002521F0AE
:104560006DFF337E974A9849984843F013F997486E
:10457000FBF7C0FE9549034682B2954820F0B6FE8F
:10458000206821F07EFF41F28831206821F056FF3B
:10459000737E8C4A8F498D4843F0FCF88B48FBF7BB
:1045A000A9FE8A49034682B2894820F09FFE20680E
:1045B00021F067FF41F28831206821F03FFFB37E90
:1045C000804A8549814843F0E5F88048FBF792FE30
:1045D0007E49034682B27E4820F088FE206821F0A2
:1045E00050FF41F28831206821F028FF754A7B494D
:1045F000764843F0CFF87548FBF77CFE73490346D5
:1046000082B2734820F072FE206821F03AFF002346
:10461000802106F11B001A46DFF8EC81FFF708FB4A
:1046200041F28831206896F819B0A8F8005021F0BE
:1046300005FF644A4FEACB1B6949644843F0AAF876
:104640006248FBF757FE614982B20346604820F09A
:104650004DFE206821F015FF2A46B37E5FFA85FAE9
:10466000534574D8AAB941F28831206821F0E6FE9A
:10467000544A5C49554843F08DF85448FBF73AFEDC
:104680005249034682B2524820F030FE206821F0A1
:10469000F8FE41F28831206821F0D0FE494A5049A5
:1046A0004A4843F077F84948FBF724FE4749034658
:1046B00082B2474820F01AFE206821F0E2FE41F263
:1046C0008831206821F0BAFEB8F800303D4A4649EA
:1046D0003E4843F05FF83D48FBF70CFE3B4903467C
:1046E00082B23B4820F002FE206821F0CAFE802200
:1046F0003E493F4844F053F83E4BB8F800201B8831
:104700009A4217D141F28831206821F097FEB8F81B
:1047100000302C4A38492D4843F03CF82B48FBF731
:10472000E9FD2A49034682B2294820F0DFFD2068CE
:1047300021F0A7FE0223314A3148138001230022D1
:104740002E49006805B0BDE8F04F21F09BBF0AF18B
:1047500020074FF000095F44FF00BFB206EB0A03D9
:10476000DB7E43FA09F3DB0721D507EB090341F2AE
:10477000883120689BB2039321F060FE039B114AAD
:1047800020490093114843F005F81048FBF7B2FDAB
:104790000E49034682B20E4820F0A8FD206821F0A1
:1047A00070FEB8F8003001220133A8F8003009F19A
:1047B0000109B9F1080FD1D101354EE76850002445
:1047C000801C0024A76A05085ABE04081848002463
:1047D00064C1002479BE040898BE0408B7BE04086A
:1047E000CDBE04081DBF040834BF04089B1C002470
:1047F000920E00248E0E002453BF040810060024DD
:104800008C5C0024FBBE0408900E002413B54A4CB7
:104810004FF47A71206821F011FE4849484843F06E
:10482000B6FF4748FBF766FD4549034682B2454857
:1048300020F05CFD4149424843F0A9FF4048FBF7A6
:1048400059FD3F49034682B23E4820F04FFD3B49A7
:104850003B4843F09CFF3A48FBF74CFD3849034680
:1048600082B2384820F042FD3749354843F08FFF87
:104870003348FBF73FFD3249034682B2314820F00E
:1048800035FD32492E4843F082FF2D48FBF732FDBB
:104890002B49034682B22B4820F028FD2C4928489A
:1048A00043F075FF2648FBF725FD2549034682B2F4
:1048B000244820F01BFD412326490193264B204824
:1048C0000093264B1A4642F065FF1D48FBF712FD88
:1048D0001B49034682B21B4820F008FD204A2149AB
:1048E000174842F057FF1648FBF704FD14490346EA
:1048F00082B2144820F0FAFC1B49114843F047FFEC
:104900000F48FBF7F7FC0E49034682B20D4820F032
:10491000EDFC0E490A4843F03AFF0948FBF7EAFC70
:104920000749034682B2074820F0E0FC206802B045
:10493000BDE8104021F0A5BD6850002485BF0408E3
:104940001848002464C10024B0BF0408B7BF04089D
:10495000FFBF040847C00408D33905084D590508AE
:1049600075C0040880C00408A5C0040800BA7047D8
:1049700010B5034C034821461EF0B9FF206810BD56
:104980003C0A002494C4002410B5002492B0CDE960
:10499000020409A902A827F0F3F800284FD0214605
:1049A00011220DF1130043F018F80B9B8DF8103015
:1049B0000A9B8DF81130099B8DF812300E9B643BD9
:1049C0008DF807300D9B01338DF805300C9B8DF869
:1049D00006300F9BA34208BF07238DF804301BF05D
:1049E00001FF224604A923481FF0C2F80446B8B1CB
:1049F000214C41F28831206821F020FD1F4A2049D6
:104A0000204842F0C7FE1F48FBF774FC1D490346CF
:104A100082B21D4820F06AFC2068012421F031FD9B
:104A2000002201A913481FF0A5F900B3124C41F26E
:104A30008831206821F002FD104A144907E00E4C2D
:104A400041F28831206821F0F9FC0C4A10490D48E8
:104A500042F0A0FE0B48FBF74DFC0A49034682B228
:104A6000094820F043FC2068012421F00AFD20467B
:104A700012B010BD70C4002468500024E371050812
:104A800016C104081848002464C1002446C1040863
:104A9000EDC0040870B50024A5B2AB4200D870BDCB
:104AA0000D5D165D754005550134F5E738B50446D2
:104AB00013482023134DFFF7EDFF01462046FEF774
:104AC0001DFF012328602370B8B10F4C41F28831DB
:104AD000206821F0B3FC2B680C4A0D490D4842F0C8
:104AE00059FE0C48FBF706FC0A49034682B20A4805
:104AF00020F0FCFB206821F0C4FC286838BD00BF12
:104B0000940A0024900A0024685000243E7205088C
:104B100060B804081848002464C10024F0B50446B5
:104B200085B000285CD00134A4B2A4F58075002DB6
:104B30002B46B8BFA4F1F903C3F3C7046B4205F0D9
:104B4000070503F0070358BF5D42EDB2230643D5C6
:104B5000002625E00B5D2B41DA073BD5214F41F2C2
:104B6000883105EBC406386821F068FC012306F59E
:104B700080761D4AAB401D491D480094CDE9015384
:104B8000334642F007FE1A48FBF7B4FB18490346C8
:104B900082B2184820F0AAFB386821F072FCB6B93E
:104BA000104C41F28831206821F048FC0E4A12492D
:104BB0000F4842F0EFFD0E48FBF79CFB0C49034603
:104BC00082B20C4820F092FB206821F05AFC30465B
:104BD00005B0F0BD0135EDB2072DBBD90134E4B20B
:104BE0000025B3E768500024C771050876C10408A2
:104BF0001848002464C10024D0C1040810B5944CA6
:104C00004FF47A71206821F019FC9249924843F0E0
:104C1000BEFD9148FBF76EFB8F49034682B28F4879
:104C200020F064FB8E498C4843F0B1FD8A48FBF7C5
:104C300061FB8949034682B2884820F057FB8949C5
:104C4000854843F0A4FD8448FBF754FB82490346A2
:104C500082B2824820F04AFB83497F4843F097FDA7
:104C60007D48FBF747FB7C49034682B27B4820F036
:104C70003DFB7E49784843F08AFD7748FBF73AFBD5
:104C80007549034682B2754820F030FB7849724876
:104C900043F07DFD7048FBF72DFB6F49034682B260
:104CA0006E4820F023FB73496B4843F070FD6A485F
:104CB000FBF720FB6849034682B2684820F016FBE8
:104CC0006D49654843F063FD6348FBF713FB624998
:104CD000034682B2614820F009FB68495E4843F010
:104CE00056FD5D48FBF706FB5B49034682B25B4815
:104CF00020F0FCFA6249584843F049FD5648FBF75A
:104D0000F9FA5549034682B2544820F0EFFA5D495A
:104D1000514843F03CFD5048FBF7ECFA4E4903463E
:104D200082B24E4820F0E2FA57494B4843F02FFD3B
:104D30004948FBF7DFFA4849034682B2474820F06A
:104D4000D5FA5249444843F022FD4348FBF7D2FAD2
:104D50004149034682B2414820F0C8FA4C493E48D6
:104D600043F015FD3C48FBF7C5FA3B49034682B2C8
:104D70003A4820F0BBFA4749374843F008FD364827
:104D8000FBF7B8FA3449034682B2344820F0AEFA51
:104D90004149314843F0FBFC2F48FBF7ABFA2E4961
:104DA000034682B22D4820F0A1FA3C492A4843F03C
:104DB000EEFC2948FBF79EFA2749034682B22748B2
:104DC00020F094FA3649244843F0E1FC2248FBF7EE
:104DD00091FA2149034682B2204820F087FA3149EE
:104DE0001D4843F0D4FC1C48FBF784FA1A490346DB
:104DF00082B21A4820F07AFA2B49174843F0C7FCD0
:104E00001548FBF777FA1449034682B2134820F09D
:104E10006DFA2649104843F0BAFC0F48FBF76AFACE
:104E20000D49034682B20D4820F060FA09490A484C
:104E300043F0ADFC0848FBF75DFA0749034682B230
:104E4000064820F053FA2068BDE8104021F019BB55
:104E500068500024F5C104081848002464C10024E7
:104E600047C2040899C20408C2C20408E3C2040885
:104E70000FC304083EC3040870C304089EC304089B
:104E8000CCC30408F7C304081CC404083FC40408C6
:104E900062C404087FC4040897C40408C0C404089A
:104EA000F3C4040822C5040847C5040861C5040802
:104EB000A0F1300370B504464A2B00F26B81DFE8A5
:104EC00013F04B004F0069016901680071007A001E
:104ED0006901690169016901690169016901690182
:104EE0006901690169018300690169019C00A800E9
:104EF0006901690169016901B100BA00EC00690149
:104F00006901FE006901070126012F0138016901CD
:104F10006901410169014A01690169016901690188
:104F20006901690169018C00690169019C00A8009F
:104F30006901690169016901B100BA00F5006901FF
:104F40006901FE0069010701260169013801690153
:104F50006901410169014A01BDE87040FFF74EBE99
:104F6000974C41F28831206821F068FA954A9649B9
:104F7000964842F00FFC9548FBF7BCF9934903466D
:104F800082B2934820F0B2F92068BDE8704021F069
:104F900078BA8B4C41F28831206821F04FFA894A67
:104FA0008C49E5E7864C41F28831206821F046FAC9
:104FB000844A8949DCE7824C41F28831206821F03B
:104FC0003DFA804A8549D3E77D4C41F2883120681B
:104FD00021F034FA7B4A8249CAE7794C4123814D5A
:104FE00041F2883120682B7021F028FA2B78754A1D
:104FF0007D49764842F0CEFBBDE722237B4A7B49C0
:10500000136000237A481A460068BDE8704021F01A
:1050100039BB6B4C41F28831206821F00FFA694AA4
:105020007449A5E7664C41F28831206821F006FA00
:10503000644A71499CE7714C41F28831604D237894
:105040002868ABB121F0FAF95E4A6D495F4842F039
:10505000A1FB5E48FBF74EF95C49034682B25C480F
:1050600020F044F9286821F00CFA0023237070BD69
:1050700021F0E4F9534A6349544842F08BFB53480A
:10508000FBF738F95149034682B2514820F02EF916
:10509000286821F0F6F90123E8E7494C41F288310C
:1050A000206821F0CBF9474A574961E7444C41F267
:1050B0008831206821F0C2F9424A544958E7404CEF
:1050C00041F28831206821F0B9F93E4A50494FE752
:1050D0003B4C41F28831206821F0B0F9394A4D4902
:1050E0003A4842F057FB3948FBF704F93749034681
:1050F00082B2374820F0FAF8206821F0C2F9464B16
:105100001A7812B100221A70B1E70122FBE72C4C89
:1051100041F28831206821F091F92A4A3F4927E776
:10512000274C41F28831206821F088F9254A3C4912
:105130001EE7234C41F28831206821F07FF9214A93
:10514000384915E71E4C41F28831206821F076F984
:105150001C4A35490CE71A4C41F28831206821F08D
:105160006DF9184A3149194842F014FB1748FBF70A
:10517000C1F81649034682B2154820F0B7F82068F6
:1051800021F07FF92123194A184913600023284888
:105190001A4639E70A4D41F28831286821F04EF964
:1051A00022462449094842F0F5FA0848FBF7A2F8DC
:1051B0000649034682B2064820F098F82868E4E6DB
:1051C00068500024A87105088DC5040818480024FB
:1051D00064C10024A8C50408D2C50408FBC504089E
:1051E00027C604081A01002453C60408380A0024FC
:1051F0003C51002470C6040885C60408360A002401
:10520000A2C60408B6C60408C9C60408F2C6040843
:105210001BC704082DC70408350A002450C704081A
:105220007DC70408A6C70408D0C70408F3C704084C
:105230008C5C002419C804082DE9F74F0446AB4ED6
:10524000032800F27D81DFE810F00400230037011D
:105250001F00A74C41F28831206821F0EFF8A54AE1
:10526000A549A64842F096FAA448FBF743F8A3499B
:10527000034682B2A24820F039F8206821F001F9F3
:105280000023A04A33701360307803B0BDE8F08F7C
:105290003378DBB9964C41F28831206821F0CEF8A2
:1052A000944A9949954842F075FA9448FBF722F8D8
:1052B0009249034682B2924820F018F8206821F003
:1052C000E0F801233370FFF799FCDDE7012BDBD118
:1052D0008C4A00218D4813688C4F323313604FF491
:1052E000805242F07AFB8948FEF7DAFB0028CBD0E7
:1052F0007F4C41F28831DFF84082206821F09EF82F
:105300003B467C4A82497D4842F044FA7B48FAF7A2
:10531000F1FF7A49034682B279481FF0E7FF20681F
:1053200021F0AFF87B49384642F080FBC8F8000016
:1053300018B93878FFF7BCFDA6E7774D6422002145
:10534000284642F04AFB07F10800FAF7D3FF07F1BD
:1053500008010246284643F022FA41F288312068CB
:1053600021F06CF82B46634A6C49644842F012FA0B
:105370006248FAF7BFFF6149034682B260481FF0F6
:10538000B5FF206821F07DF82878A0F14203DBB258
:10539000122B00F28E80624A22FA03F3DA0740F100
:1053A0008880DFF898B115F8013F1BF803301B0720
:1053B000F9D441F28831206821F040F82B464D4A5B
:1053C00058494E4842F0E6F94C48FAF793FFDFF8A7
:1053D00048A1034682B2494949481FF087FF206827
:1053E00021F04FF89AF80030422B21D195F8009027
:1053F00041F2883120681BF8093003F00303022BC7
:1054000008BFA9F1200921F019F83A4A5FFA89F397
:1054100045493A4842F0BEF93848FAF76BFF374938
:10542000034682B236481FF061FF206821F029F858
:105430009AF80030542B36D10A2201A9284642F0AE
:1054400011F8054641F28831206820F0F7FF2B461D
:10545000284A3649294842F09DF92848FAF74AFF78
:105460002649034682B226481FF040FF206821F0FB
:1054700008F82846FFF788FAA8B141F28831206879
:1054800020F0DCFF1B4A2A491C4842F083F91B48E4
:10549000FAF730FF1949034682B219481FF026FF78
:1054A000206820F0EEFFD8F80030002B7FF4ECAE3F
:1054B0003FE7FFF7FDFCF6E70D4C41F2883120682D
:1054C00020F0BCFF0B4A1B490C4842F063F90B4823
:1054D000FAF710FF0949034682B209481FF006FF98
:1054E000206820F0CEFF02233370CDE6340A00247A
:1054F000685000248B71050841C80408184800242E
:1055000064C10024300A002457C804081838002455
:1055100076C804089EC80408C8090024A7C804085F
:1055200001080400CBC80408EBC804080DC904082E
:1055300031C9040864C904082C0A002489BC050880
:105540000C4D41F28831286820F078FF23460A4A42
:105550000A490B4842F01EF90948FAF7CBFE084900
:10556000034682B207481FF0C1FE286820F089FF79
:105570008AE600BF685000248B71050884C90408BE
:105580001848002464C100242DE9F04FB44C89B0C0
:10559000FFF73CF941F28831206820F04FFFB14A13
:1055A000B149B24842F0F6F8B048B14DFAF7A2FE60
:1055B000AE49034682B2AF481FF098FEAE4E206857
:1055C00020F05FFF00222946AC481EF0A3FB00221A
:1055D0003146AA481EF070FCDFF8E8826B7841F291
:1055E00088312A7888F80030A54B20681A7020F09E
:1055F00025FFAB789B4A04936B78A24903932B78E1
:105600009A480293B378A04F019373780093F3788C
:1056100042F0C0F89548FAF76DFE9449034682B20D
:1056200094481FF063FE206820F02BFF0122974969
:10563000904820F01DF83870B0B141F288312068F0
:1056400020F0FCFE3B78874A9149884842F0A2F856
:105650008648FAF74FFE8549034682B285481FF017
:1056600045FE206820F00DFF26F06CFA41F28831EB
:10567000206820F0E3FE7B4A86497C4842F08AF8A5
:105680007A48FAF737FE7949034682B279481FF023
:105690002DFE206820F0F5FE41F28831206820F0D0
:1056A000CDFEDFF824A27C4B6E4A7C496F487C4FCC
:1056B000CDE9003A42F06EF86C48FAF71BFE6B49F0
:1056C000034682B26B481FF011FE206820F0D9FE1D
:1056D0000022674969481EF01DFB002266496748A1
:1056E0001EF0EAFB6F4AAB781178994272D0697864
:1056F000DFF8B8B11370F078B278DFF8D091CDE967
:1057000000132B787178FEF7D9F8DBF80030C9F870
:1057100000000BB3984240F22682C01A01281BD029
:1057200041F28831206820F089FED9F80030DBF89A
:1057300000205D499A1A00924A4A4C4842F02AF8E1
:105740004A48FAF7D7FD4949034682B249481FF053
:10575000CDFD206820F095FED9F80020534BDFF8EE
:1057600070911A60D9F80030514A0133C9F80030FD
:105770005343B3F1113F08D803234E4A4D491380D8
:1057800001230022386820F07DFFD9F800304A4A12
:105790005343B3F1333F1DD8DFF83891454AB9F888
:1057A0000030DFF834B101334249DBF800009BB22E
:1057B000332B28BF0123A9F80030142313800123C1
:1057C000002220F05FFF012300224946DBF80000A1
:1057D00020F058FF6B7898F800209A4200F09180F2
:1057E000344A88F800300223DFF8F0B01380012338
:1057F00000223049386820F045FF9BF80030012B2B
:105800007FD1DFF8DC90D9F80030002B79D0013B54
:1058100041F288312068C9F8003020F00FFED9F835
:105820000030104A2549114841F0B4FF0F48FAF7FB
:1058300061FD0E49034682B20E481FF057FD2068F5
:1058400020F01FFED9F80030002B5AD141F28831E8
:1058500020688BF8003020F0F1FD024A184941E041
:105860006850002401660508DAB7040818480024C7
:105870000438002464C100240038002470C40024CB
:1058800012000024BEC90408A0030024E23700244B
:10589000EFC9040843CA04084D5905085ECA040844
:1058A0008C5C00241100002492CA0408F8370024FC
:1058B000EFEEEEEE9E030024CDCCCCCC08CB04085A
:1058C0002ECB040813000024D3390508FC3700242C
:1058D000F43700249C030024B85B0024E83700243C
:1058E000E4370024AA4841F055FFA948FAF702FD21
:1058F000A749034682B2A7481FF0F8FC206820F0B1
:10590000C0FDA54B2A781978914241D04FF47A71A5
:1059100020681A7020F092FDA0499D4842F037FFA0
:105920009B48FAF7E7FC9A49034682B299481FF070
:10593000DDFC9B49964842F02AFF9548FAF7DAFCCD
:105940009349034682B293481FF0D0FC4123954906
:105950008F48CDE900A3944B1A4641F01BFF8C48B9
:10596000FAF7C8FC8A49034682B28A481FF0BEFC97
:105970008A49874842F00BFF8548FAF7BBFC844907
:10598000034682B283481FF0B1FC206820F079FD05
:10599000864B42F20F721B68934267D8844A127892
:1059A000002A63D1B3B941F28831206820F046FD66
:1059B0000A23804A8049764841F0ECFE7448FAF7A1
:1059C00099FC7349034682B272481FF08FFC20682D
:1059D00020F057FDDFF8D4914FF47A7BD9F80020FE
:1059E0003232B2FBFBF3C9F800200BFB1322E2B901
:1059F00041F28831206820F021FDD9F800306D4A4D
:105A0000C3F51C536D496248103393FBFBF341F01F
:105A1000C1FE5F48FAF76EFC5D49034682B25D48FD
:105A20001FF064FC206820F02CFD604B1A6842F2E5
:105A30000F739A4240F2D48041F28831206820F0FE
:105A4000FDFC0A235B4A5E49514841F0A3FE5048E1
:105A5000FAF750FC4E49034682B24E481FF046FC0E
:105A6000206820F00EFD0220FFF7E6FB554B18786A
:105A7000012801D1FFF7E0FB386820F064FEC0B2D6
:105A800068B300230DF11E0138681A4620F02BFE82
:105A90008146B0B141F28831206820F0CFFC4B46FE
:105AA000444A49493A4841F075FE3948FAF722FC20
:105AB0003749034682B237481FF018FC206820F0AF
:105AC000E0FCBDF81E30272B00F23F81162B00F2C0
:105AD000A780022B00F01D81032B40F033814FF48F
