:020000040800F2
:10000000000008243D960008F1920008F9920008CB
:1000100001930008099300081193000800000000F4
:10002000000000000000000000000000C1330408D0
:100030001993000800000000113604083124040858
:1000400091960008919600089196000891960008F4
:1000500091960008919600089196000891960008E4
:100060002793000891960008919600089196000841
:1000700091960008919600089196000891960008C4
:1000800091960008919600089196000891960008B4
:1000900091960008919600089196000891960008A4
:1000A0009196000891960008919600089196000894
:1000B0009196000891960008919600089196000884
:1000C0009196000891960008919600089196000874
:1000D000919600083593000849930008919600080E
:1000E0009196000891960008000000009196000883
:1000F0009196000891960008919600089196000844
:100100009196000891960008919600089196000833
:1001100091960008919600085D930008919600085A
:100120009196000891960008919600089196000813
:100130009196000891960008919600089196000803
:100140009196000891960008000000000000000051
:1001500091960008919600089196000891960008E3
:1001600091960008919600089196000891960008D3
:1001700091960008919600089196000800000000F2
:1001800091960008919600089196000891960008B3
:1001900091960008919600089196000891960008A3
:1001A00071930008919600088593000891960008C5
:1001B000999300089196000891960008919600087E
:1001C0009196000891960008919600089196000873
:1001D0009196000891960008919600089196000863
:1001E0009196000891960008919600089196000853
:1001F0009196000891960008919600089196000843
:100200009196000891960008919600089196000832
:100210009196000891960008919600089196000822
:1002200091960008AD930008C193000800000000FB
:100230009196000891960008919600089196000802
:1002400091960008919600089196000891960008F2
:1002500091960008919600089196000891960008E2
:1002600091960008919600089196000891960008D2
:1002700091960008919600089196000891960008C2
:1002800091960008919600089196000800000000E1
:08029000919600089196000808
:1002A00010B5054C237833B9044B13B10448AFF3B0
:1002B00000800123237010BDE05D002400000000D9
:1002C000883C060808B5034B1BB103490348AFF34C
:1002D000008008BD00000000E45D0024883C0608A2
:1002E00010F8012B11F8013B012A28BF9A42F7D0E0
:1002F000D01A7047034613F8012B002AFBD1181AB5
:1003000001387047000000000000000000000000FD
:1003100001F0FF01102A2BDB10F0070F08D010F8B6
:10032000013B013A8B422DD010F0070F42B3F6D1BA
:10033000F0B441EA012141EA014122F007047FF0D3
:1003400000070023F0E80256083C85EA010586EA2A
:10035000010685FA47F5A3FA87F586FA47F6A5FA66
:1003600087F68EB9EED1F0BC01F0FF0102F0070272
:1003700032B110F8013B013A83EA010313B1F8D11D
:100380000020704701387047002D06BF35460338FE
:10039000073815F0010F07D1013015F4807F02BF37
:1003A000013015F4C03F0130F0BC0138704700BF88
:1003B00081F0004102E000BF83F0004330B54FEA16
:1003C00041044FEA430594EA050F08BF90EA020F83
:1003D0001FBF54EA000C55EA020C7FEA645C7FEA16
:1003E000655C00F0E2804FEA5454D4EB5555B8BF39
:1003F0006D420CDD2C4480EA020281EA030382EAAA
:10040000000083EA010180EA020281EA0303362D3B
:1004100088BF30BD11F0004F4FEA01314FF4801C0E
:100420004CEA113102D0404261EB410113F0004F20
:100430004FEA03334CEA133302D0524263EB4303D7
:1004400094EA050F00F0A780A4F10104D5F1200E75
:100450000DDB02FA0EFC22FA05F2801841F10001D0
:1004600003FA0EF2801843FA05F359410EE0A5F1A4
:1004700020050EF1200E012A03FA0EFC28BF4CF0D5
:10048000020C43FA05F3C01851EBE37101F000458B
:1004900007D54FF0000EDCF1000C7EEB00006EEB98
:1004A0000101B1F5801F1BD3B1F5001F0CD3490822
:1004B0005FEA30004FEA3C0C04F101044FEA445279
:1004C00012F5800F80F09A80BCF1004F08BF5FEA00
:1004D000500C50F1000041EB045141EA050130BDE0
:1004E0005FEA4C0C404141EB0101013C28BFB1F5F2
:1004F000801FE9D291F0000F04BF01460020B1FA3D
:1005000081F308BF2033A3F10B03B3F120020CDA0F
:100510000C3208DD02F1140CC2F10C0201FA0CF0ED
:1005200021FA02F10CE002F11402D8BFC2F1200C52
:1005300001FA02F120FA0CFCDCBF41EA0C01904008
:10054000E41AA2BF01EB0451294330BD6FEA040451
:100550001F3C1CDA0C340EDC04F11404C4F120023C
:1005600020FA04F001FA02F340EA030021FA04F34E
:1005700045EA030130BDC4F10C04C4F1200220FAA5
:1005800002F001FA04F340EA0300294630BD21FAE3
:1005900004F0294630BD94F0000F83F4801306BFA9
:1005A00081F480110134013D4EE77FEA645C18BF9D
:1005B0007FEA655C29D094EA050F08BF90EA020F34
:1005C00005D054EA000C04BF1946104630BD91EA2C
:1005D000030F1EBF0021002030BD5FEA545C05D12F
:1005E0004000494128BF41F0004130BD14F580046E
:1005F0003CBF01F5801130BD01F0004545F0FE41E2
:1006000041F470014FF0000030BD7FEA645C1ABF16
:10061000194610467FEA655C1CBF0B46024650EA4D
:10062000013406BF52EA033591EA030F41F4002179
:1006300030BD00BF90F0000F04BF0021704730B5FF
:100640004FF4806404F132044FF000054FF00001D4
:1006500050E700BF90F0000F04BF0021704730B595
:100660004FF4806404F1320410F0004548BF40426A
:100670004FF000013EE700BF42004FEAE2014FEABF
:1006800031014FEA02701FBF12F07F4393F07F4F9A
:1006900081F06051704732F07F4208BF704793F09D
:1006A0007F4F04BF41F40021704730B54FF46074B0
:1006B00001F0004521F000411CE700BF50EA0102B3
:1006C00008BF704730B54FF000050AE050EA01025C
:1006D00008BF704730B511F0004502D5404261EBCC
:1006E00041014FF4806404F132045FEA915C3FF40D
:1006F000D8AE4FF003025FEADC0C18BF03325FEAAA
:10070000DC0C18BF033202EBDC02C2F1200300FA5A
:1007100003FC20FA02F001FA03FE40EA0E0021FA7F
:1007200002F11444BDE600BF7BB972B90029BEBF17
:1007300000204FF0004106E008BF00281CBF6FF00A
:1007400000414FF0FF3000F0D3B9ADF1080C6DE976
:1007500004CE002909DB002B1ADB00F04DF8DDF890
:1007600004E0DDE9022304B07047404261EB41013F
:10077000002B1BDB00F040F8DDF804E0DDE902238C
:1007800004B0404261EB4101524263EB43037047C6
:10079000524263EB430300F02FF8DDF804E0DDE99B
:1007A000022304B0404261EB41017047524263EBC7
:1007B000430300F021F8DDF804E0DDE9022304B092
:1007C000524263EB4303704753B94AB9002908BF4B
:1007D00000281CBF4FF0FF314FF0FF3000F088B908
:1007E000ADF1080C6DE904CE00F006F8DDF804E088
:1007F000DDE9022304B070472DE9F047089D8E46DD
:1008000004468846002B4AD18A42174662D9B2FA7A
:1008100082F64EB1C6F1200301FA06F820FA03F37E
:10082000B74043EA0808B4404FEA174E1FFA87FC66
:10083000B8FBFEF1230C0EFB118843EA084301FBD1
:100840000CF29A4209D9FB1801F1FF3080F0EA80DE
:100850009A4240F2E78002393B449A1AA3B2B2FBB3
:10086000FEF00EFB102243EA024300FB0CFC9C4509
:1008700009D9FB1800F1FF3280F0D6809C4540F288
:10088000D3803B44023840EA0140A3EB0C03002133
:100890001DB1F3400022C5E90032BDE8F0878B426C
:1008A00005D90DB1C5E9000100210846F5E7B3FA05
:1008B00083F1002946D1734502D3824200F20581BB
:1008C000841A6EEB030201209046002DE5D0C5E9A5
:1008D0000048E2E7002A00F09080B2FA82F6002E8B
:1008E00040F0A4808A1A030C4FEA174E80B2BCB2C3
:1008F0000121B2FBFEFC0EFB1C2243EA024304FB77
:100900000CF29A4207D9FB180CF1FF3802D29A4236
:1009100000F2E080C4469B1AB3FBFEF20EFB1233DA
:1009200040EA034302FB04F49C4207D9FB1802F19E
:10093000FF3002D29C4200F2CA8002461B1B42EAF0
:100940000C40A5E7C1F120068B4022FA06F71F43B1
:100950000EFA01F420FA06F32EFA06FE4FEA1749C2
:10096000234300FA01F81FFA87FCBEFBF9F01C0CC8
:1009700009FB10EE44EA0E4400FB0CFEA64502FA09
:1009800001F209D93C1900F1FF3A80F09C80A6459C
:1009900040F2998002383C44A4EB0E041FFA83FE17
:1009A000B4FBF9F309FB13444EEA044403FB0CFCCB
:1009B000A44508D93C1903F1FF3E80F08280A4458C
:1009C0007FD9023B3C4443EA0040A4EB0C04A0FB6B
:1009D00002EC64457346E14662D35FD05DB1B8EB8B
:1009E000030264EB090404FA06F622FA01F31E433B
:1009F000CC40C5E9006400214FE7B1FBF2FC010CDB
:100A000041EA0E4180B240EA01423B4638463C464C
:100A1000B846BE462026B1FBF7F1A2EB080241EA38
:100A20000C4166E7014618E710462CE7C6F12002A4
:100A30002EFA02F3B740B14020FA02F24FEA174E05
:100A40000A43B3FBFEF8BCB20EFB1833110C41EAAB
:100A5000034108FB04F9B04089454FEA104380B2D6
:100A60003ED9791808F1FF3C01D289451FD8A1EB86
:100A70000901B1FBFEF909FB04F80EFB191192B252
:100A800042EA0142424529D2BA1809F1FF31C4D2E3
:100A90004245C2D2A9F102013A44BEE7F0459DD2D7
:100AA000BEEB02036CEB070C0138E14696E7A7EBBF
:100AB00009094944A8F1020CB1FBFEF909FB04F84D
:100AC000DBE773467FE7504666E70846FDE63B44B2
:100AD000023A33E7ACF1020C3B441CE749469CE781
:100AE000A1EB0901C446B1FBFEF909FB04F8C4E718
:100AF000704700BF80B584B000AF07F00DFC764BA7
:100B00005B6903F40033002B1BD1BFF34F8F00BF91
:100B1000BFF36F8F00BF704B0022C3F85022BFF3AA
:100B20004F8F00BFBFF36F8F00BF6B4B5B696A4A8B
:100B300043F400335361BFF34F8F00BFBFF36F8F98
:100B400000E000BF644B5B6903F48033002B38D1B5
:100B5000614B0022C3F88420BFF34F8F00BF5E4B70
:100B6000D3F88030FB60FB685B0BC3F30E03BB6004
:100B7000FB68DB08C3F309037B60BB685A0143F6DB
:100B8000E07313407A68920753491343C1F8603207
:100B90007B685A1E7A60002BEFD1BB685A1EBA6080
:100BA000002BE5D1BFF34F8F00BF4B4B5B694A4A27
:100BB00043F480335361BFF34F8F00BFBFF36F8F98
:100BC00000E000BF2FF0BCFA00F0C6F800F0EAFB2E
:100BD00000F072FB00F090FB00F0D8F900F042F951
:100BE00000F062F900F0BEF900F054FA00F07AF972
:100BF00000F0CAFA00F07CFA08F0B6FC00F0A0FAA7
:100C000000F00EFB08F04CFD08F043FD41F02AFC1B
:100C1000324841F01EFD0346314A1360314A022139
:100C2000402041F043FF03462F4A13602F4A022120
:100C3000402041F03BFF03462D4A13602D4A01211D
:100C40004FF4806041F032FF03462B4A13602B4A79
:100C500001214FF4807041F029FF0346284A1360B8
:100C6000284A0021284841F047FC0346274A1360E0
:100C7000274A0021274841F03FFC0346264A1360DB
:100C8000264A0021264841F037FC0346254A1360D6
:100C9000254A0021254841F02FFC0346244A1360D1
:100CA000244A0021244841F027FC0346234A1360CC
:100CB000234A0021234841F01FFC0346224A1360C7
:100CC000224A0021224841F017FC0346214A1360C2
:100CD00041F0ECFB00BFFDE700ED00E030A30608AB
:100CE00054D00024D0A2060804C90024E8A20608B3
:100CF000D8C9002400A30608ACCA002418A306081B
:100D000000CF0024D4A1060871770008F8640024FD
:100D1000F8A10608B1960008A47500241CA20608D4
:100D2000817F0008A875002440A20608E57F00081E
:100D30005486002464A206086180000800970024FD
:100D400088A20608C5800008ACA70024ACA206084B
:100D50002981000858B8002480B59CB000AF07F185
:100D600024034C220021184660F0D1FC3B1D2022B8
:100D70000021184660F0CBFC042036F0BDFC0023B7
:100D80003B60364BDB6A354A23F00103D362334BB9
:100D9000DB6A03F001033B60314B9B69304A43F44B
:100DA000404393612E4B9B6903F440433B603B6897
:100DB00000BF2B4B9B6903F40053B3F5005FF8D1E0
:100DC0000B237B624FF48033BB6201233B634023E0
:100DD0007B630123BB630223BB640223FB64052303
:100DE0003B65A0237B650223BB650423FB650223CF
:100DF0003B6608237B660023BB660023FB6607F186
:100E00002403184637F05CFF0346002B01D007F09F
:100E1000CDFA3F237B600323BB600023FB600823E4
:100E20003B6140237B614023BB614FF48063FB61E6
:100E300040233B623B1D0221184638F0F1FC03467B
:100E4000002B01D007F0B2FA4FF4802200210020DD
:100E500039F056F800BF7037BD4680BD0004005819
:100E60000048025880B500AF0D4B0E4A1A600C4B7B
:100E700000221A710A4B00225A71094B00225A6152
:100E8000074B00229A61064B01221A6204482FF098
:100E9000DDFC0346002B01D007F088FA00BF80BDBF
:100EA000FC5D0024004C025880B500AF0B4B0C4A8F
:100EB0001A600A4B4FF440325A60084B02229A6083
:100EC000064B0022DA60054830F07CFB0346002B1D
:100ED00001D007F06BFA00BF80BD00BF205E002488
:100EE0000010005280B500AF1B4B1C4A1A601A4B11
:100EF0001B4A5A60184B00229A60174B0122DA6095
:100F0000154B00221A61144B00225A61124B002229
:100F10009A61114B0022DA610F4B00221A620E48CF
:100F200031F0C2F90346002B01D007F03FFA00214F
:100F3000094832F03DF80346002B01D007F036FA9D
:100F40000021054832F0AAF80346002B01D007F033
:100F50002DFA00BF80BD00BF885E0024001C005831
:100F6000B634900080B500AF064B074A1A600548BA
:100F700032F008F90346002B01D007F017FA00BF42
:100F800080BD00BFDC5E00240030005280B58EB012
:100F900000AF07F047FA3B1D34220021184660F0ED
:100FA000B6FB3A4B3A4A1A60384B00225A60374B2C
:100FB00000229A60354B0022DA60344B00221A611D
:100FC000324B28225A61314B09229A612F4B35222C
:100FD000DA612E4B0B221A622C4B40F215225A6218
:100FE0002A4B40F21B129A62284B40F23522DA62F9
:100FF000264B40F21D121A63244B002283F8342042
:10100000224B002283F83520204B002283F8362023
:101010001E4834F00FF90346002B01D007F0C6F943
:1010200000237B604FF4F073BB600023FB604FF440
:1010300088733B6102237B61FF23BB610023FB615B
:101040004FF480633B6205237B624FF05043BB62E9
:101050004FF4F073FB624FF488733B63002387F80F
:101060003430002387F83530002387F836303B1DB5
:1010700000221946054834F0BBFA0346002B01D084
:1010800007F094F900BF3837BD4680BD0C600024DE
:101090000010005080B500AF124B134A1A60114B7C
:1010A00001225A600F4B01229A600E4B1022DA6027
:1010B0000C4B1A221A610B4B4FF400725A61094B08
:1010C00000229A61074B40221A62064836F090FBD4
:1010D0000346002B01D007F069F9044807F016FA1F
:1010E00000BF80BDB460002400500052AD830008F2
:1010F00080B500AF104B114A1A600F4B00225A60A6
:101100000D4B7F229A600C4BFF22DA600A4B0022C3
:101110001A61094B00229A61074B0022DA61064BE3
:1011200000225A6104483CF0F7FA0346002B01D034
:1011300007F03CF900BF80BD00610024004000586A
:1011400080B500AF0E4B0F4A1A600D4B00225A605B
:101150000B4B00229A600A4B4FF40042DA60084BB6
:1011600000221A61064B00225A61054835F02CFB1B
:101170000346002B01D007F019F900BF80BD00BF66
:10118000246100240070005280B500AF224B234A36
:101190001A60214B4FF4E1325A601F4B00229A60D3
:1011A0001D4B0022DA601C4B00221A611A4B0C22E4
:1011B0005A61194B00229A61174B0022DA61164BD3
:1011C00000221A62144B00225A62134B00229A62C8
:1011D00011483DF09FF90346002B01D007F0E6F8D7
:1011E00000210D483FF082FF0346002B01D007F09D
:1011F000DDF80021084840F013F80346002B01D029
:1012000007F0D4F804483FF0F7FE0346002B01D066
:1012100007F0CCF800BF80BD9C63002400100140A3
:1012200080B500AF224B234A1A60214B4FF4E132C4
:101230005A601F4B00229A601D4B0022DA601C4B43
:1012400000221A611A4B0C225A61194B00229A6132
:10125000174B0022DA61164B00221A62144B00224F
:101260005A62134B00229A6211483DF053F903462B
:10127000002B01D007F09AF800210D483FF036FF0F
:101280000346002B01D007F091F8002108483FF0F9
:10129000C7FF0346002B01D007F088F804483FF051
:1012A000ABFE0346002B01D007F080F800BF80BDE5
:1012B000306400240044004080B582B000AF0D4B84
:1012C000D3F8D4300B4A43F00103C2F8D430094BB1
:1012D000D3F8D43003F001037B607B680022052142
:1012E0007A202FF0ABF87A202FF0D2F800BF083721
:1012F000BD4680BD0044025880B588B000AF3B1D9C
:1013000000221A605A609A60DA601A615A619A6122
:10131000214B224A1A60204B01225A601E4B0022A8
:101320009A601D4B0422DA601B4B10221A611A4B83
:1013300040225A61184B4FF480729A61164B00227A
:10134000DA61154B4FF400621A62134B4FF480526E
:101350005A62114B00229A6202237B600623BB6013
:101360000423FB6006233B6102237B610223BB61F4
:101370000223FB613B1D194607483CF02FFC034646
:10138000002B01D007F012F8054807F0E0F800BF85
:101390002037BD4680BD00BFC464002440410052D8
:1013A000AD83000880B590B000AF07F12C03002298
:1013B0001A605A609A60DA601A61A04BD3F8E03084
:1013C0009E4A43F48063C2F8E0309C4BD3F8E0308F
:1013D00003F48063BB62BB6A984BD3F8E030974A52
:1013E00043F04003C2F8E030944BD3F8E03003F010
:1013F00040037B627B6A914BD3F8E0308F4A43F025
:101400000803C2F8E0308D4BD3F8E03003F0080356
:101410003B623B6A894BD3F8E030884A43F00403CF
:10142000C2F8E030854BD3F8E03003F00403FB61F1
:10143000FB69824BD3F8E030804A43F48073C2F8F2
:10144000E0307E4BD3F8E03003F48073BB61BB69BE
:101450007A4BD3F8E030794A43F01003C2F8E03019
:10146000764BD3F8E03003F010037B617B69734B5C
:10147000D3F8E030714A43F00203C2F8E0306F4B1A
:10148000D3F8E03003F002033B613B696B4BD3F8C8
:10149000E0306A4A43F40073C2F8E030674BD3F897
:1014A000E03003F40073FB60FB68644BD3F8E0307A
:1014B000624A43F00103C2F8E030604BD3F8E030F9
:1014C00003F00103BB60BB685C4BD3F8E0305B4AC0
:1014D00043F02003C2F8E030584BD3F8E03003F07B
:1014E00020037B607B68554BD3F8E030534A43F0D0
:1014F0008003C2F8E030514BD3F8E03003F08003B2
:101500003B603B68002208214D4830F065FE012217
:101510004FF400514B4830F05FFE002208214A484A
:1015200030F05AFE00224021484830F055FE01229A
:101530000421474830F050FE0823FB6201233B633F
:1015400000237B630023BB6307F12C0319463C484F
:1015500030F02CFA4FF48073FB6202233B630023CC
:101560007B630023BB630023FB6307F12C03194655
:10157000364830F01BFA4FF40053FB6201233B6303
:1015800000237B630023BB6307F12C0319462D481E
:1015900030F00CFA0823FB6201233B6300237B63DA
:1015A0000323BB6307F12C031946274830F0FEF9EB
:1015B0000423FB624FF404133B6300237B6307F1B6
:1015C0002C031946204830F0F1F94FF44063FB62D8
:1015D00002233B6301237B630323BB630723FB637A
:1015E00007F12C0319461B4830F0E0F94023FB6259
:1015F00001233B6300237B630323BB6307F12C03BD
:101600001946124830F0D2F90423FB6201233B63F0
:1016100000237B630023BB6307F12C0319460C48AE
:1016200030F0C4F90022052108202EF007FF082021
:101630002EF02EFF00BF4037BD4680BD004402584B
:10164000000C0258002002580018025800000258EE
:10165000002402580004025890B583B000AF04463D
:10166000084611461A462346FB710346BB710B46DA
:101670007B7113463B71FB796433114A5361BB792B
:10168000013B0F4A13617B790D4AD3603B790C4AC9
:1016900093603B7E0A4A53603B7F094A13600848C7
:1016A00060F054F902460B460649C1E90023054B98
:1016B000D3E90023134618460C37BD4690BD00BF42
:1016C0004CF8002470F8002490B583B000AF786027
:1016D000544B1B68184641F01BFB03469AB2524B11
:1016E0001A80514B1B88002B00F095804F4B1B68D4
:1016F00041F28831184641F032F84B4B1B884C4A76
:101700004C494D485FF09CFF4B48FEF7F3FD034604
:101710009CB24948FEF7EEFD03462246464947483B
:101720003CF0C6FF414B1B68184641F063F8444B40
:1017300000221A803CE03B4B1868002300224149FC
:1017400041F088FA0346404A13603F4B1B68002B68
:1017500020D0364B1B6841F28831184640F0FFFF1D
:10176000394B1B68324A394933485FF069FF3248C8
:10177000FEF7C0FD03469CB22F48FEF7BBFD0346B3
:1017800022462D492D483CF093FF284B1B681846F4
:1017900041F030F82A4B1B881A467B681344294ACB
:1017A00012781A70264B1B8801339AB2244B1A8088
:1017B0001C4B1B68184641F0ABFA0346002B05D0C2
:1017C0001F4B1B8840F6FD729342B4D91C4B1A88FC
:1017D000154B1A80154B1B6841F28831184640F0B2
:1017E000BEFF114B1B88124A194913485FF028FFAE
:1017F0001148FEF77FFD03469CB20F48FEF77AFDC5
:10180000034622460C490D483CF052FF074B1B682B
:10181000184640F0EFFF044B1B8818460C37BD46B6
:1018200090BD00BF00CF002478F8002454D00024DD
:1018300040A30608303D0608A8D000249C6300247D
:101840007AF800247CF8002480F80024583D06082B
:10185000903D060890B583B000AF78607B681B6848
:101860002F4A934216D12F4B1A782F4B1A702F4BB9
:101870001868002300222C4941F08CF903462C4AB9
:101880001360012227492B483CF0A0FF03461A466B
:10189000294B1A707B681B68284A93423BD1284B1E
:1018A0001A78284B1A70284B186800230022254903
:1018B00041F070F903461E4A13601D4B1B68002B54
:1018C00020D0224B1B6841F28831184640F047FF78
:1018D000174B1B681E4A1F491F485FF0B1FE1E4888
:1018E000FEF708FD03469CB21B48FEF703FD0346C6
:1018F000224619490F483CF0DBFE144B1B68184682
:1019000040F078FF01220E4914483CF05FFF034687
:101910001A46094B1A7000BF0C37BD4690BD00BF78
:1019200000100140D5E8002484F8002400CF0024F2
:1019300088F800249C6300248CF8002400440040B4
:10194000D4E800248DF80024ACCA002454D000242C
:101950005CA30608B83D0608A8D000243064002423
:1019600090B585B000AFF8607B600B467B81134675
:101970007B727D4B00221A805AE17B7A002B2AD0A1
:10198000794B1B8803F00F039BB2002B23D1774BBD
:101990001B6841F28831184640F0E1FE724B1B880B
:1019A0001A467B6813441A46714972485FF048FE34
:1019B0007048FEF79FFC03469CB26E48FEF79AFC07
:1019C000034622466B496C483CF072FE674B1B682D
:1019D000184640F00FFF654B1B6841F288311846EE
:1019E00040F0BDFE604B1B881A46FB6813441B7811
:1019F0001A4662495F485FF023FE5E48FEF77AFCB4
:101A000003469CB25B48FEF775FC034622465949E3
:101A100059483CF04DFE554B1B68184640F0EAFE15
:101A2000524B1B6841F28831184640F098FE5449E9
:101A300050485FF005FE4F48FEF75CFC03469CB241
:101A40004C48FEF757FC034622464A494A483CF0B8
:101A50002FFE464B1B68184640F0CCFE424B1B88BD
:101A600003F00F039BB2072B1DD1404B1B6841F2C3
:101A70008831184640F073FE42493E485FF0E0FD71
:101A80003C48FEF737FC03469CB23A48FEF732FC6E
:101A900003462246374938483CF00AFE334B1B6860
:101AA000184640F0A7FE304B1B8803F00F039BB293
:101AB0000F2B40F0B7802D4B1B6841F28831184640
:101AC00040F04DFE2F492B485FF0BAFD2948FEF744
:101AD00011FC03469CB22748FEF70CFC0346224645
:101AE000244925483CF0E4FD204B1B68184640F093
:101AF00081FE1D4B1B880F3B9AB2234B1A806DE071
:101B0000214B1B881A46FB6813441B7801331F4A7C
:101B100013441B7803F09703002B3BD0134B1B6837
:101B200041F28831184640F01AFE174B1B881A46BE
:101B3000FB6813441B781A4615490E485FF080FD78
:101B40000C48FEF7D7FB03469CB20A48FEF7D2FBCF
:101B500003462246074908483CF0AAFD034B1B6890
:101B6000184640F047FE33E08EF8002454D000249D
:101B7000F03D0608A8D000249C630024043E06081B
:101B80000C3E0608103E060890F80024A8D506086A
:101B9000183E0608A84B1B6841F28831184640F0F1
:101BA000DEFDA649A6485FF04BFDA548FEF7A2FB67
:101BB00003469CB2A248FEF79DFB03462246A0497D
:101BC000A0483CF075FD9C4B1B68184640F012FE87
:101BD0009D4B1B8801339AB29B4B1A809B4B1A88F2
:101BE000994B1B889A428BD2934B1B6841F28831E8
:101BF000184640F0B4FD964991485FF021FD9048A9
:101C0000FEF778FB03469CB28D48FEF773FB034654
:101C100022468B498B483CF04BFD874B1B6818468E
:101C200040F0E8FD894B1B8801339AB2874B1A803C
:101C3000864B1B887A899A423FF69FAE7B8903F0D8
:101C40000F039BB2002B00F0D5807B8903F00F03BC
:101C50009AB27D4B1A8023E0774B1B6841F28831A2
:101C6000184640F07CFD7B4975485FF0E9FC7448FC
:101C7000FEF740FB03469CB27148FEF73BFB034670
:101C800022466F496F483CF013FD6B4B1B681846AA
:101C900040F0B0FD6C4B1B8801339AB26A4B1A803E
:101CA000694B1B880F2BD7D97B8903F008039BB2A4
:101CB000002B1DD1604B1B6841F28831184640F063
:101CC0004EFD65495E485FF0BBFC5D48FEF712FBC8
:101CD00003469CB25A48FEF70DFB0346224658497C
:101CE00058483CF0E5FC544B1B68184640F082FD18
:101CF000514B1B6841F28831184640F030FD56497F
:101D00004F485FF09DFC4E48FEF7F4FA03469CB244
:101D10004B48FEF7EFFA03462246494949483CF052
:101D2000C7FC454B1B68184640F064FD7B8923F0D7
:101D30000F039AB2444B1A8057E0434B1B881A4654
:101D4000FB6813441B780133444A13441B7803F0A7
:101D50009703002B25D0384B1B6841F28831184679
:101D600040F0FDFC384B1B881A46FB6813441B7877
:101D70001A463B4932485FF063FC3148FEF7BAFA35
:101D800003469CB22E48FEF7B5FA034622462C497C
:101D90002C483CF08DFC284B1B68184640F02AFD6F
:101DA0001DE0254B1B6841F28831184640F0D7FCF6
:101DB000224923485FF044FC2148FEF79BFA034682
:101DC0009CB21F48FEF796FA034622461C491D485E
:101DD0003CF06EFC184B1B68184640F00BFD1A4B8C
:101DE0001B8801339AB2184B1A80174B1B887A89CB
:101DF0009A42A2D8104B1B6841F28831184640F035
:101E0000AEFC13490E485FF01BFC0D48FEF772FA5A
:101E100003469CB20A48FEF76DFA0346224608497B
:101E200008483CF045FC044B1B68184640F0E2FCB7
:101E300000BF1437BD4690BD54D000241C3E060898
:101E4000A8D000249C63002490F800248EF800247D
:101E5000203E0608243E0608103E0608A8D50608BF
:101E6000183E060890B583B002AF654B1B684FF46F
:101E70007A71184640F073FC624963485FF0E0FBFA
:101E80006148FEF737FA03469CB25F48FEF732FA24
:101E9000034622465C495D483CF00AFC59495A48D1
:101EA0005FF0CEFB5848FEF725FA03469CB2564831
:101EB000FEF720FA03462246534954483CF0F8FB0B
:101EC000504951485FF0BCFB4F48FEF713FA0346F8
:101ED0009CB24D48FEF70EFA034622464A494B484B
:101EE0003CF0E6FB4A4948485FF0AAFB4648FEF74B
:101EF00001FA03469CB24448FEF7FCF90346224629
:101F0000414942483CF0D4FB42493F485FF098FBCE
:101F10003D48FEF7EFF903469CB23B48FEF7EAF96D
:101F200003462246384939483CF0C2FB3A49364814
:101F30005FF086FB3448FEF7DDF903469CB2324879
:101F4000FEF7D8F9034622462F4930483CF0B0FB53
:101F500041230193314B0093314B314A31492A4897
:101F60005FF06EFB2848FEF7C5F903469CB2264891
:101F7000FEF7C0F903462246234924483CF098FB6B
:101F8000294A2A4920485FF05BFB1F48FEF7B2F957
:101F900003469CB21C48FEF7ADF9034622461A4997
:101FA0001A483CF085FB224917485FF049FB164868
:101FB000FEF7A0F903469CB21348FEF79BF90346CF
:101FC0002246114911483CF073FB12490E485FF05C
:101FD00037FB0D48FEF78EF903469CB20A48FEF720
:101FE00089F903462246084908483CF061FB044B46
:101FF0001B68184640F0FEFB00BF0437BD4690BD8D
:1020000054D00024283E0608A8D000249C63002455
:10201000543E06085C3E0608A43E0608203F06081B
:10202000EC3E0608F03E0608243F0608303F06084E
:10203000583F060890B585B000AF03460A46FB71CD
:102040001346BB71704B00221A726F4B002283F84B
:10205000C8206E4B00221A701823FB73BB79002B2B
:102060001AD06B4B01336A4A52781946FF2005F0AB
:102070005DFB0346BB73FA79BB7B9A4201D1012217
:1020800000E00322614B1A70FA79BB7B9A4201D1BE
:10209000062300E01523FB73FB7B182B25D0182BA0
:1020A00043DC062B62D0152B3FD15A4B1B6841F203
:1020B0008831184640F053FB574A584958485FF05A
:1020C000BFFA5748FEF716F903469CB25448FEF78C
:1020D00011F903462246524952483CF0E9FA4D4B69
:1020E0001B68184640F086FB41E04A4B1B6841F2F2
:1020F0008831184640F033FB474A4B4948485FF067
:102100009FFA4748FEF7F6F803469CB24448FEF7AC
:10211000F1F803462246424942483CF0C9FA3D4B99
:102120001B68184640F066FB21E03A4B1B6841F201
:102130008831184640F013FBFB7B374A3B4938484F
:102140005FF07EFA3648FEF7D5F803469CB2344875
:10215000FEF7D0F803462246314932483CF0A8FA4F
:102160002C4B1B68184640F045FB00E000BF294B94
:102170001B6841F28831184640F0F1FA2C49284892
:102180005FF05EFA2648FEF7B5F803469CB2244895
:10219000FEF7B0F803462246214922483CF088FA6F
:1021A0001C4B1B68184640F025FB174BDB7C19467F
:1021B000002300221648FFF7D3FB164B1B6841F2A1
:1021C0008831184640F0CBFA1A4915485FF038FAC2
:1021D0001348FEF78FF803469CB21148FEF78AF8C1
:1021E000034622460E490F483CF062FA094B1B6831
:1021F000184640F0FFFA044B00221A74034B1B7878
:1022000018461437BD4690BD80F3002492F8002490
:1022100094F3002454D0002474A306080840060850
:10222000A8D000249C630024344006088C40060893
:10223000C04006082041060880B483B000AF0346C2
:10224000FB71144BDB7C1A46124B1344FA791A7556
:10225000104BDB7C0133DAB20E4BDA740E4B5B7839
:10226000032B0AD90C4B5B78033BDAB2094B83F89A
:10227000C920084B04221A7406E0064B012283F899
:10228000C920044B05221A7400BF0C37BD465DF807
:10229000047B704780F3002494F3002480B483B05F
:1022A00000AF0346FB71144B93F8C930013BDAB21F
:1022B000114B83F8C920104BDB7C1A460E4B13449C
:1022C000FA791A750C4BDB7C0133DAB20A4BDA74FB
:1022D000094BDB7CB32B05D8074BDA7C074B5B78CB
:1022E0009A4202D9044B05221A7400BF0C37BD462E
:1022F0005DF8047B704700BF80F3002494F3002452
:1023000080B400AF084B00221A74074B002283F8F8
:10231000C820054B00221A70034B00221A7200BF1E
:10232000BD465DF8047B704780F3002490B583B010
:1023300000AF0346FB71FB79022B02D9FB79B42B6A
:102340002AD9204B1B6841F28831184640F007FA21
:10235000FB791D4A1D491E485FF072F91C48FDF7C4
:10236000C9FF03469CB21A48FDF7C4FF0346224644
:10237000174918483CF09CF9124B1B68184640F06E
:1023800039FA154B00221A74134B002283F8C82027
:10239000114B00221A7210E00F4B02221A740E4BDE
:1023A000DB7C1A460C4B1344FA791A750A4BDB7C1A
:1023B0000133DAB2084BDA7400BF00BF0C37BD46F8
:1023C00090BD00BF54D000248CA3060880410608AD
:1023D000A8D000249C63002480F3002490B585B02D
:1023E00002AF0346FB71AC4B00221A70FB79012B44
:1023F00039D1AA4B1B6841F28831184640F0AFF939
:10240000A74AA849A8485FF01BF9A748FDF772FF43
:1024100003469CB2A448FDF76DFF03462246A2493D
:10242000A2483CF045F99D4B1B68184640F0E2F984
:102430009F4B01221A749E4B0022DA749C4B01229E
:1024400083F8C8209A4BDB7C1A46994B1344FA79DF
:102450001A75974BDB7C0133DAB2954BDA74944BE7
:1024600000221A72F1E1924B9B7C002B00F032812A
:10247000FB79062B02D0FB79152B08D18C4B00225F
:102480009A748B4B00221A70894B00221A72FB79C6
:10249000062B22D1814B1B6841F28831184640F04F
:1024A0005EF97F4A834980485FF0CAF87E48FDF7AD
:1024B00021FF03469CB27C48FDF71CFF03462246E1
:1024C00079497A483CF0F4F8744B1B68184640F0A0
:1024D00091F9714B02221A70B7E1FB79152B22D1C9
:1024E0006E4B1B6841F28831184640F038F96C4A4F
:1024F00071496D485FF0A4F86B48FDF7FBFE034699
:102500009CB26948FDF7F6FE0346224666496748D5
:102510003CF0CEF8614B1B68184640F06BF95E4BFF
:1025200005221A7091E1FB790133644A13441B7848
:1025300003F09703002B23D0584B1B6841F28831DE
:10254000184640F00CF9FA79FB7900931346544A87
:102550005B4955485FF074F85348FDF7CBFE0346DE
:102560009CB25148FDF7C6FE034622464E494F48ED
:102570003CF09EF8494B1B68184640F03BF964E17B
:10258000FB79182B46D0182B64DC062B02D0152BB8
:1025900020D05FE0414B1B6841F28831184640F083
:1025A000DEF83F4A474940485FF04AF83E48FDF7A9
:1025B000A1FE03469CB23C48FDF79CFE0346224622
:1025C00039493A483CF074F8344B1B68184640F0DF
:1025D00011F93AE1314B1B6841F28831184640F05D
:1025E000BEF82F4A384930485FF02AF82E48FDF7E8
:1025F00081FE03469CB22C48FDF77CFE0346224632
:1026000029492A483CF054F8244B1B68184640F0EE
:10261000F1F81AE1214B1B6841F28831184640F06D
:102620009EF81F4A294920485FF00AF81E48FDF726
:1026300061FE03469CB21C48FDF75CFE0346224641
:1026400019491A483CF034F8144B1B68184640F0FE
:10265000D1F8FAE0114B1B6841F28831184640F07E
:102660007EF8FB790E4A1A490F485EF0E9FF0E48E2
:10267000FDF740FE03469CB20B48FDF73BFE0346C8
:102680002246094909483CF013F8044B1B681846D8
:1026900040F0B0F8D9E000BF93F8002454D00024F3
:1026A000A0A30608B4410608A8D000249C63002417
:1026B00080F30024CC410608E4410608A8D50608AA
:1026C000FC4106082C4206085042060874420608DF
:1026D00098420608FB7901335F4A13441B7803F0E4
:1026E0009703002B23D05D4B1B6841F288311846BD
:1026F00040F035F8FA79FB7900931346584A594966
:1027000059485EF09DFF5848FDF7F4FD03469CB222
:102710005548FDF7EFFD03462246534953483BF029
:10272000C7FF4E4B1B68184640F064F88AE0FB79FF
:10273000182B46D0182B64DC062B02D0152B20D08A
:102740005FE0464B1B6841F28831184640F007F8BD
:10275000434A474944485EF073FF4348FDF7CAFDCA
:1027600003469CB24048FDF7C5FD034622463E495C
:102770003E483BF09DFF394B1B68184640F03AF845
:1027800060E0364B1B6841F2883118463FF0E7FFA6
:10279000334A384934485EF053FF3348FDF7AAFD09
:1027A00003469CB23048FDF7A5FD034622462E495C
:1027B0002E483BF07DFF294B1B68184640F01AF865
:1027C00040E0264B1B6841F2883118463FF0C7FFB6
:1027D000234A294924485EF033FF2348FDF78AFD48
:1027E00003469CB22048FDF785FD034622461E495C
:1027F0001E483BF05DFF194B1B6818463FF0FAFF7F
:1028000020E0164B1B6841F2883118463FF0A7FFC5
:10281000FB79134A194914485EF012FF1248FDF77C
:1028200069FD03469CB21048FDF764FD034622464D
:102830000D490E483BF03CFF084B1B6818463FF023
:10284000D9FF00BF0E4B00221A700E4B1B781846A2
:102850000C37BD4690BD00BFA8D5060854D0002453
:10286000A0A30608FC410608A8D000249C6300240D
:102870002C42060850420608744206089842060890
:1028800080F3002493F8002490B583B000AF034692
:10289000FB71FB79012B49D94F4B1B6841F2883101
:1028A00018463FF05CFFFB794C4A4D494D485EF0BD
:1028B000C7FE4C48FDF71EFD03469CB24948FDF794
:1028C00019FD03462246474947483BF0F1FE424B7B
:1028D0001B6818463FF08EFF3F4B1B6841F2883162
:1028E00018463FF03CFF3D4A40493E485EF0A8FE96
:1028F0003C48FDF7FFFC03469CB23A48FDF7FAFC62
:1029000003462246374938483BF0D2FE324B1B681B
:1029100018463FF06FFF364B00221A74344B0022EA
:1029200083F8C820324B00221A7251E0FB79002B49
:102930001FD1294B1B6841F2883118463FF00FFF29
:10294000264A2C4927485EF07BFE2648FDF7D2FC3C
:1029500003469CB22348FDF7CDFC0346224621499D
:1029600021483BF0A5FE1C4B1B6818463FF042FF78
:102970001EE0194B1B6841F2883118463FF0EFFE0C
:10298000164A1D4917485EF05BFE1648FDF7B2FC7B
:1029900003469CB21348FDF7ADFC0346224611499D
:1029A00011483BF085FE0C4B1B6818463FF022FF98
:1029B0000F4B03221A740E4BDB7C1A460C4B13444C
:1029C000FA791A750A4BDB7C0133DAB2084BDA74F8
:1029D00000BF0C37BD4690BD54D00024B4A30608F8
:1029E000C4420608A8D000249C63002420430608A3
:1029F00080F30024484306086843060890B585B074
:102A000000AF0346FB710023BB730023FB736AE036
:102A1000524B186807F10E010023002240F01AF90A
:102A200003464F4A13604E4B1B68002B20D04D4B82
:102A30001B6841F2883118463FF091FE484B1B68F5
:102A4000494A4A494A485EF0FBFD4948FDF752FCB5
:102A500003469CB24648FDF74DFC034622464449D6
:102A600044483BF025FE3F4B1B6818463FF0C2FE32
:102A7000414B1B7C052B33D801A252F823F000BF39
:102A8000992A0008A72A0008B12A0008BB2A0008D2
:102A9000C52A0008CF2A0008BB7B1846FFF79EFC1A
:102AA0000346FB731FE0BB7B1846FFF73FFC1AE0B1
:102AB000BB7B1846FFF7E8FE15E0BB7B1846FFF727
:102AC000BBFB10E0BB7B1846FFF7E8FB0BE0BB7BD2
:102AD000FA7911461846FFF7ADFA0346FB7302E098
:102AE000FFF70EFC00BFFB7B002B07D11B4B1B68C5
:102AF000184640F00DF90346002B89D1FB7B002BD3
:102B000027D11D4B93F8C830002B0FD01A4B1B7ADE
:102B1000002B0BD0184B00221A72174B00221A748C
:102B2000154B002283F8C8200423FB73124B9B7CB7
:102B3000002B0ED0104B1B78002B0AD00E4B00221E
:102B40001A700D4B00221A740B4B00229A74052345
:102B5000FB73FB7B18461437BD4690BDACCA0024FE
:102B600094F8002454D00024C8A30608884306081B
:102B7000A8D000249C63002480F3002490B583B087
:102B800000AFB44B1B6841F2883118463FF0E7FDB7
:102B9000B14B1B79B14AB249B2485EF051FDB14820
:102BA000FDF7A8FB03469CB2AE48FDF7A3FB034626
:102BB0002246AC49AC483BF07BFDA64B1B6818464F
:102BC0003FF018FEA44B1B790A2B1FDC002BC0F230
:102BD0005F810A2B00F25C8101A252F823F000BF52
:102BE000152C0008552C0008912E0008952C000883
:102BF000D52C0008152D0008912E0008552D000831
:102C0000912E0008952D0008D52D0008FF2B00F00F
:102C100001813DE18F4B1B6841F2883118463FF03E
:102C20009EFD8E4A91498F485EF00AFD8D48FDF762
:102C300061FB03469CB28B48FDF75CFB03462246D2
:102C4000884989483BF034FD824B1B6818463FF0A9
:102C5000D1FD3FE17F4B1B6841F2883118463FF0C0
:102C60007EFD7E4A82497F485EF0EAFC7D48FDF7A2
:102C700041FB03469CB27B48FDF73CFB03462246E2
:102C8000784979483BF014FD724B1B6818463FF0B9
:102C9000B1FD1FE16F4B1B6841F2883118463FF0D0
:102CA0005EFD6E4A73496F485EF0CAFC6D48FDF7E1
:102CB00021FB03469CB26B48FDF71CFB03462246F2
:102CC000684969483BF0F4FC624B1B6818463FF0CA
:102CD00091FDFFE05F4B1B6841F2883118463FF0E1
:102CE0003EFD5E4A64495F485EF0AAFC5D48FDF720
:102CF00001FB03469CB25B48FDF7FCFA0346224603
:102D0000584959483BF0D4FC524B1B6818463FF0D9
:102D100071FDDFE04F4B1B6841F2883118463FF0F0
:102D20001EFD4E4A55494F485EF08AFC4D48FDF75E
:102D3000E1FA03469CB24B48FDF7DCFA0346224613
:102D4000484949483BF0B4FC424B1B6818463FF0E9
:102D500051FDBFE03F4B1B6841F2883118463FF000
:102D6000FEFC3E4A46493F485EF06AFC3D48FDF79E
:102D7000C1FA03469CB23B48FDF7BCFA0346224623
:102D8000384939483BF094FC324B1B6818463FF0F9
:102D900031FD9FE02F4B1B6841F2883118463FF010
:102DA000DEFC2E4A37492F485EF04AFC2D48FDF7DD
:102DB000A1FA03469CB22B48FDF79CFA0346224633
:102DC000284929483BF074FC224B1B6818463FF009
:102DD00011FD7FE01F4B1B6841F2883118463FF020
:102DE000BEFC1E4A28491F485EF02AFC1D48FDF71C
:102DF00081FA03469CB21B48FDF77CFA0346224643
:102E0000184919483BF054FC124B1B6818463FF018
:102E1000F1FC5FE00F4B1B6841F2883118463FF030
:102E20009EFC0E4A19490F485EF00AFC0D48FDF75A
:102E300061FA03469CB20B48FDF75CFA0346224652
:102E4000084909483BF034FC024B1B6818463FF028
:102E5000D1FC3FE054D0002494F30024DCA3060806
:102E600000440608A8D000249C6300242C440608D3
:102E70005444060898440608C04406080C45060851
:102E8000344506085C4506088C450608BC4506081E
:102E90009B4B1B6841F2883118463FF060FC994B10
:102EA0001B79994A99499A485EF0CAFB9848FDF700
:102EB00021FA03469CB29648FDF71CFA03462246C7
:102EC000934994483BF0F4FB8D4B1B6818463FF048
:102ED00091FC00BF8A4B1B6841F2883118463FF0D5
:102EE0003EFC884B5B79884A8B4989485EF0A8FB99
:102EF0008748FDF7FFF903469CB28548FDF7FAF9CC
:102F000003462246824983483BF0D2FB7C4B1B6838
:102F100018463FF06FFC7B4B5B79002B1FD0784B42
:102F20001B6841F2883118463FF019FC764A7B490C
:102F300077485EF085FB7648FDF7DCF903469CB2E6
:102F40007348FDF7D7F903462246714971483BF0B3
:102F5000AFFB6B4B1B6818463FF04CFC1EE0684B08
:102F60001B6841F2883118463FF0F9FB664A6C490C
:102F700067485EF065FB6648FDF7BCF903469CB206
:102F80006348FDF7B7F903462246614961483BF0C3
:102F90008FFB5B4B1B6818463FF02CFC584B1B68A3
:102FA00041F2883118463FF0DAFB564B9B79564A7E
:102FB0005C4957485EF044FB5548FDF79BF90346D2
:102FC0009CB25348FDF796F90346224650495148B2
:102FD0003BF06EFB4A4B1B6818463FF00BFC494B1D
:102FE0009B79202B6CD0202B00F3A680102B47D090
:102FF000102B00F3A180002B02D0012B20D09BE0EE
:103000003F4B1B6841F2883118463FF0A8FB3E4A0F
:1030100045493F485EF014FB3D48FDF76BF9034618
:103020009CB23B48FDF766F90346224638493948C9
:103030003BF03EFB324B1B6818463FF0DBFB9DE04C
:103040002F4B1B6841F2883118463FF088FB2E4A0F
:1030500036492F485EF0F4FA2D48FDF74BF9034648
:103060009CB22B48FDF746F90346224628492948D9
:103070003BF01EFB224B1B6818463FF0BBFB7DE07C
:103080001F4B1B6841F2883118463FF068FB1E4A0F
:1030900027491F485EF0D4FA1D48FDF72BF9034677
:1030A0009CB21B48FDF726F90346224618491948E9
:1030B0003BF0FEFA124B1B6818463FF09BFB5DE0AD
:1030C0000F4B1B6841F2883118463FF048FB0E4A0F
:1030D00018490F485EF0B4FA0D48FDF70BF90346A6
:1030E0009CB20B48FDF706F90346224608490948F9
:1030F0003BF0DEFA024B1B6818463FF07BFB3DE0DD
:1031000054D0002494F30024DCA30608E845060804
:10311000A8D000249C6300242446060850460608D4
:10312000A4460608E04606080C470608604706085D
:10313000A4470608FC470608DB4B1B6841F28831B0
:1031400018463FF00CFBD94B9B79D94AD949DA484C
:103150005EF076FAD848FDF7CDF803469CB2D64823
:10316000FDF7C8F803462246D349D4483BF0A0FAFD
:10317000CD4B1B6818463FF03DFB00BFCA4B1B6898
:1031800041F2883118463FF0EAFAC84BDB79C84A69
:10319000CB49C9485EF054FAC748FDF7ABF803467F
:1031A0009CB2C548FDF7A6F803462246C249C3486B
:1031B0003BF07EFABC4B1B6818463FF01BFBBB4B39
:1031C000DB79A12B00F34C81002B40F3D984013B28
:1031D000A02B00F2D58401A252F823F04935000853
:1031E0000538000869340008C9340008C13A0008ED
:1031F000013B0008413B000845390008C53900087B
:10320000813B0008813B0008813B0008813B0008AE
:10321000813B000849360008453800088538000819
:10322000C538000805390008813B0008053A000848
:103230008539000889360008453A0008813B0008B6
:10324000813B0008813B0008813B0008813B00086E
:10325000813B0008813B000849370008C53700085A
:10326000813B0008813B0008813B0008813B00084E
:10327000813B0008813B0008813B0008813B00083E
:10328000813B0008813B0008813B0008813B00082E
:10329000813B0008813B0008C935000889350008DA
:1032A000813B0008813B0008813B0008813B00080E
:1032B000813B0008813B0008813B0008813B0008FE
:1032C000813B0008813B0008813B0008813B0008EE
:1032D000813B0008813B000809350008813B00085C
:1032E000813B0008813B0008813B0008813B0008CE
:1032F000813B0008813B0008813B0008813B0008BE
:10330000813B0008813B0008813B0008813B0008AD
:10331000813B0008813B0008C9360008813B00085A
:10332000813B0008813B0008813B0008813B00088D
:10333000813B0008813B0008813B0008813B00087D
:10334000813B0008813B0008813B0008813B00086D
:10335000813B0008813B0008813B0008813B00085D
:10336000813B0008813B0008813B0008813B00084D
:10337000813B0008813B0008813B0008813B00083D
:10338000813B0008813B0008813B0008813B00082D
:10339000813B0008813B0008813B0008813B00081D
:1033A000813B0008813B0008813B0008813B00080D
:1033B000813B0008813B0008813B0008813B0008FD
:1033C000813B0008813B0008813B0008813B0008ED
:1033D000813B0008813B0008813B0008813B0008DD
:1033E000813B0008813B0008813B0008813B0008CD
:1033F000813B0008813B0008813B0008813B0008BD
:10340000813B0008813B0008813B0008813B0008AC
:10341000813B0008813B0008813B0008813B00089C
:10342000813B0008813B0008813B0008813B00088C
:10343000813B0008813B0008813B0008813B00087C
:10344000813B0008813B0008813B0008813B00086C
:10345000813B0008813B0008813B000809370008D8
:10346000FF2B00F0D1808BE30F4B1B6841F28831BA
:1034700018463FF074F90E4A12490F485EF0E0F822
:103480000D48FCF737FF03469CB20B48FCF732FFB0
:1034900003462246084909483BF00AF9024B1B68DB
:1034A00018463FF0A7F98DE354D0002494F300248C
:1034B000DCA3060854480608A8D000249C63002416
:1034C00094480608C0480608AF4B1B6841F2883193
:1034D00018463FF044F9AD4AAD49AE485EF0B0F849
:1034E000AC48FCF707FF03469CB2AA48FCF702FF72
:1034F00003462246A749A8483BF0DAF8A24B1B68CE
:1035000018463FF077F95DE39F4B1B6841F2883125
:1035100018463FF024F99D4AA0499E485EF090F875
:103520009C48FCF7E7FE03469CB29A48FCF7E2FE93
:1035300003462246974998483BF0BAF8924B1B68DD
:1035400018463FF057F93DE38F4B1B6841F2883135
:1035500018463FF004F98D4A91498E485EF070F8A4
:103560008C48FCF7C7FE03469CB28A48FCF7C2FEB3
:1035700003462246874988483BF09AF8824B1B68ED
:1035800018463FF037F91DE37F4B1B6841F2883145
:1035900018463FF0E4F87D4A82497E485EF050F8D4
:1035A0007C48FCF7A7FE03469CB27A48FCF7A2FED3
:1035B00003462246774978483BF07AF8724B1B68FD
:1035C00018463FF017F9FDE26F4B1B6841F2883156
:1035D00018463FF0C4F86D4A73496E485EF030F803
:1035E0006C48FCF787FE03469CB26A48FCF782FEF3
:1035F00003462246674968483BF05AF8624B1B680D
:1036000018463FF0F7F8DDE25F4B1B6841F2883166
:1036100018463FF0A4F85D4A64495E485EF010F831
:103620005C48FCF767FE03469CB25A48FCF762FE12
:1036300003462246574958483BF03AF8524B1B681C
:1036400018463FF0D7F8BDE24F4B1B6841F2883176
:1036500018463FF084F84D4A55494E485DF0F0FF5A
:103660004C48FCF747FE03469CB24A48FCF742FE32
:1036700003462246474948483BF01AF8424B1B682C
:1036800018463FF0B7F89DE23F4B1B6841F2883186
:1036900018463FF064F83D4A46493E485DF0D0FF89
:1036A0003C48FCF727FE03469CB23A48FCF722FE52
:1036B00003462246374938483AF0FAFF324B1B6836
:1036C00018463FF097F87DE22F4B1B6841F2883196
:1036D00018463FF044F82D4A37492E485DF0B0FFB8
:1036E0002C48FCF707FE03469CB22A48FCF702FE72
:1036F00003462246274928483AF0DAFF224B1B6846
:1037000018463FF077F85DE21F4B1B6841F28831A5
:1037100018463FF024F81D4A28491E485DF090FFE6
:103720001C48FCF7E7FD03469CB21A48FCF7E2FD93
:1037300003462246174918483AF0BAFF124B1B6855
:1037400018463FF057F83DE20F4B1B6841F28831B5
:1037500018463FF004F80D4A19490E485DF070FF15
:103760000C48FCF7C7FD03469CB20A48FCF7C2FDB3
:1037700003462246074908483AF09AFF024B1B6865
:1037800018463FF037F81DE254D00024DCA30608A9
:10379000DC480608A8D000249C630024F0480608F2
:1037A0000849060824490608344906084C49060811
:1037B00068490608844906089C490608B84906086D
:1037C000D0490608AF4B1B6841F2883118463EF0DD
:1037D000C6FFAD4AAD49AE485DF032FFAC48FCF7DC
:1037E00089FD03469CB2AA48FCF784FD03462246A5
:1037F000A749A8483AF05CFFA24B1B6818463EF068
:10380000F9FFDFE19F4B1B6841F2883118463EF01B
:10381000A6FF9D4AA0499E485DF012FF9C48FCF718
:1038200069FD03469CB29A48FCF764FD03462246B4
:10383000974998483AF03CFF924B1B6818463EF077
:10384000D9FFBFE18F4B1B6841F2883118463EF02B
:1038500086FF8D4A91498E485DF0F2FE8C48FCF758
:1038600049FD03469CB28A48FCF744FD03462246C4
:10387000874988483AF01CFF824B1B6818463EF087
:10388000B9FF9FE17F4B1B6841F2883118463EF03B
:1038900066FF7D4A82497E485DF0D2FE7C48FCF797
:1038A00029FD03469CB27A48FCF724FD03462246D4
:1038B000774978483AF0FCFE724B1B6818463EF098
:1038C00099FF7FE16F4B1B6841F2883118463EF04B
:1038D00046FF6D4A73496E485DF0B2FE6C48FCF7D6
:1038E00009FD03469CB26A48FCF704FD03462246E4
:1038F000674968483AF0DCFE624B1B6818463EF0A8
:1039000079FF5FE15F4B1B6841F2883118463EF05A
:1039100026FF5D4A64495E485DF092FE5C48FCF714
:10392000E9FC03469CB25A48FCF7E4FC03462246F5
:10393000574958483AF0BCFE524B1B6818463EF0B7
:1039400059FF3FE14F4B1B6841F2883118463EF06A
:1039500006FF4D4A55494E485DF072FE4C48FCF753
:10396000C9FC03469CB24A48FCF7C4FC0346224605
:10397000474948483AF09CFE424B1B6818463EF0C7
:1039800039FF1FE13F4B1B6841F2883118463EF07A
:10399000E6FE3D4A46493E485DF052FE3C48FCF793
:1039A000A9FC03469CB23A48FCF7A4FC0346224615
:1039B000374938483AF07CFE324B1B6818463EF0D7
:1039C00019FFFFE02F4B1B6841F2883118463EF08B
:1039D000C6FE2D4A37492E485DF032FE2C48FCF7D2
:1039E00089FC03469CB22A48FCF784FC0346224625
:1039F000274928483AF05CFE224B1B6818463EF0E7
:103A0000F9FEDFE01F4B1B6841F2883118463EF09B
:103A1000A6FE1D4A28491E485DF012FE1C48FCF710
:103A200069FC03469CB21A48FCF764FC0346224634
:103A3000174918483AF03CFE124B1B6818463EF0F6
:103A4000D9FEBFE00F4B1B6841F2883118463EF0AB
:103A500086FE0D4A19490E485DF0F2FD0C48FCF750
:103A600049FC03469CB20A48FCF744FC0346224644
:103A7000074908483AF01CFE024B1B6818463EF006
:103A8000B9FE9FE054D00024DCA30608E8490608EC
:103A9000A8D000249C630024044A0608204A060893
:103AA000384A0608544A06086C4A0608844A06083A
:103AB000984A0608B04A0608CC4A0608E04A0608B2
:103AC000AF4B1B6841F2883118463EF048FEAD4AC4
:103AD000AD49AE485DF0B4FDAC48FCF70BFC0346C5
:103AE0009CB2AA48FCF706FC03462246A749A84810
:103AF0003AF0DEFDA24B1B6818463EF07BFE61E00B
:103B00009F4B1B6841F2883118463EF028FE9D4AC3
:103B1000A0499E485DF094FD9C48FCF7EBFB0346F2
:103B20009CB29A48FCF7E6FB034622469749984820
:103B30003AF0BEFD924B1B6818463EF05BFE41E03A
:103B40008F4B1B6841F2883118463EF008FE8D4AC3
:103B500091498E485DF074FD8C48FCF7CBFB034621
:103B60009CB28A48FCF7C6FB034622468749884830
:103B70003AF09EFD824B1B6818463EF03BFE21E06A
:103B80007F4B1B6841F2883118463EF0E8FD834BBD
:103B9000DB797C4A82497D485DF052FD7B48FCF729
:103BA000A9FB03469CB27948FCF7A4FB03462246D6
:103BB000764977483AF07CFD714B1B6818463EF019
:103BC00019FE00BF6E4B1B6841F2883118463EF06B
:103BD000C6FD724B1B7A6B4A72496C485DF030FD32
:103BE0006A48FCF787FB03469CB26848FCF782FBF7
:103BF00003462246654966483AF05AFD604B1B6809
:103C000018463EF0F7FD654BDB79022B40F05881FA
:103C1000624B1B7A072B00F2318101A252F823F08C
:103C2000413C0008813C0008C13C0008013D0008FF
:103C3000413D0008BD3D0008FD3D00083D3E000837
:103C40004F4B1B6841F2883118463EF088FD4D4AC3
:103C500055494E485DF0F4FC4C48FCF74BFB0346DD
:103C60009CB24A48FCF746FB03462246474948486F
:103C70003AF01EFD424B1B6818463EF0BBFD1FE1AB
:103C80003F4B1B6841F2883118463EF068FD3D4AC3
:103C900046493E485DF0D4FC3C48FCF72BFB03460C
:103CA0009CB23A48FCF726FB03462246374938487F
:103CB0003AF0FEFC324B1B6818463EF09BFDFFE0DD
:103CC0002F4B1B6841F2883118463EF048FD2D4AC3
:103CD00037492E485DF0B4FC2C48FCF70BFB03463B
:103CE0009CB22A48FCF706FB03462246274928488F
:103CF0003AF0DEFC224B1B6818463EF07BFDDFE00D
:103D00001F4B1B6841F2883118463EF028FD1D4AC2
:103D100028491E485DF094FC1C48FCF7EBFA03466A
:103D20009CB21A48FCF7E6FA03462246174918489F
:103D30003AF0BEFC124B1B6818463EF05BFDBFE03C
:103D40000F4B1B6841F2883118463EF008FD0D4AC2
:103D500019490E485DF074FC0C48FCF7CBFA034699
:103D60009CB20A48FCF7C6FA0346224607490848AF
:103D70003AF09EFC024B1B6818463EF03BFD9FE06C
:103D800054D00024DCA30608FC4A0608A8D000246E
:103D90009C630024184B06082C4B060894F300245F
:103DA0004C4B0608884B0608B44B0608DC4B06084B
:103DB000044C0608204C0608404C0608724B1B6851
:103DC00041F2883118463EF0CAFC704A7049714889
:103DD0005DF036FC6F48FCF78DFA03469CB26D48E7
:103DE000FCF788FA034622466A496B483AF060FCC1
:103DF000654B1B6818463EF0FDFC61E0624B1B689A
:103E000041F2883118463EF0AAFC604A6349614895
:103E10005DF016FC5F48FCF76DFA03469CB25D4806
:103E2000FCF768FA034622465A495B483AF040FCE0
:103E3000554B1B6818463EF0DDFC41E0524B1B68B9
:103E400041F2883118463EF08AFC504A54495148A4
:103E50005DF0F6FB4F48FCF74DFA03469CB24D4827
:103E6000FCF748FA034622464A494B483AF020FC00
:103E7000454B1B6818463EF0BDFC21E0424B1B68D9
:103E800041F2883118463EF06AFC464B1B7A3F4AA5
:103E9000454940485DF0D4FB3E48FCF72BFA034609
:103EA0009CB23C48FCF726FA0346224639493A4878
:103EB0003AF0FEFB344B1B6818463EF09BFC00BFFB
:103EC000314B1B6841F2883118463EF048FC354BB7
:103ED0005B7A2E4A35492F485DF0B2FB2D48FCF73E
:103EE00009FA03469CB22B48FCF704FA0346224623
:103EF000284929483AF0DCFB234B1B6818463EF062
:103F000079FC284B5B7B7B60264A7B680633134435
:103F10001B791B0223497A6807320A441279134439
:103F20001B0220497A6808320A44127913441B02A2
:103F30001C497A6809320A44127913443B60124BD7
:103F40001B6841F2883118463EF009FC3B680F4A75
:103F5000174910485DF074FB0E48FCF7CBF9034697
:103F60009CB20C48FCF7C6F90346224609490A48A8
:103F70003AF09EFB044B1B6818463EF03BFC00BF2A
:103F80000C37BD4690BD00BF54D00024DCA306080A
:103F9000584C0608A8D000249C630024784C0608DE
:103FA0008C4C060894F30024A04C0608E04C06084C
:103FB0000C4D060890B585B002AF9B4B1B6841F2D3
:103FC000883118463EF0CBFB984B1B79984A9949AB
:103FD00099485DF035FB9848FCF78CF903469CB294
:103FE0009548FCF787F903462246934993483AF0EF
:103FF0005FFB8D4B1B6818463EF0FCFB8A4B1B6831
:1040000041F2883118463EF0AAFB884B5B79884A1A
:104010008B4989485DF014FB8748FCF76BF9034630
:104020009CB28548FCF766F90346224682498348DC
:104030003AF03EFB7C4B1B6818463EF0DBFB7B4BAB
:104040001B7903F00103002B1FD0774B1B6841F253
:10405000883118463EF083FB754A7A4976485DF010
:10406000EFFA7548FCF746F903469CB27248FCF734
:1040700041F903462246704970483AF019FB6A4BF1
:104080001B6818463EF0B6FB1EE0674B1B6841F20A
:10409000883118463EF063FB654A6B4966485DF01F
:1040A000CFFA6548FCF726F903469CB26248FCF754
:1040B00021F903462246604960483AF0F9FA5A4B22
:1040C0001B6818463EF096FB584B1B7903F0020321
:1040D000002B1FD0544B1B6841F2883118463EF02C
:1040E0003EFB534A594954485DF0AAFA5248FCF73E
:1040F00001F903469CB25048FCF7FCF803462246FF
:104100004D494E483AF0D4FA474B1B6818463EF0EA
:1041100071FB1EE0444B1B6841F2883118463EF0AB
:104120001EFB434A4A4944485DF08AFA4248FCF77C
:10413000E1F803469CB24048FCF7DCF8034622460F
:104140003D493E483AF0B4FA374B1B6818463EF0FA
:1041500051FB364B1B7903F00403002B1FD0324B6D
:104160001B6841F2883118463EF0F9FA304A394965
:1041700031485DF065FA3048FCF7BCF803469CB264
:104180002D48FCF7B7F8034622462B492B483AF056
:104190008FFA254B1B6818463EF02CFB1EE0224B85
:1041A0001B6841F2883118463EF0D9FA204A2A4964
:1041B00021485DF045FA2048FCF79CF803469CB284
:1041C0001D48FCF797F8034622461B491B483AF066
:1041D0006FFA154B1B6818463EF00CFB134B1B790E
:1041E00003F00803002B3BD00F4B1B6841F28831D2
:1041F00018463EF0B4FA0E4A18490F485DF020FA0E
:104200000D48FCF777F803469CB20B48FCF772F8B0
:1042100003462246084909483AF04AFA024B1B680D
:1042200018463EF0E7FA3AE054D0002494F3002414
:1042300000A40608384D0608A8D000249C6300247A
:10424000604D0608884D0608A04D0608B84D0608C2
:10425000DC4D0608044E0608244E0608404E0608AB
:104260005E4B1B6841F2883118463EF078FA5C4A92
:104270005C495D485DF0E4F95B48FCF73BF80346B8
:104280009CB25948FCF736F803462246564957482F
:104290003AF00EFA514B1B6818463EF0ABFA4F4B02
:1042A0001B6841F2883118463EF059FA504B9B7911
:1042B0004B4A50494C485DF0C3F94B48FCF71AF89B
:1042C00003469CB24848FCF715F803462246464987
:1042D00046483AF0EDF9414B1B6818463EF08AFA21
:1042E0003E4B1B6841F2883118463EF038FA3C4A92
:1042F00041493D485DF0A4F93B48FBF7FBFF03460D
:104300009CB23948FBF7F6FF034622463649374848
:104310003AF0CEF9314B1B6818463EF06BFA344B3D
:104320009B79002B31D000237B6028E02B4B1B684E
:1043300041F2883118463EF012FA2D4A7B68033369
:1043400013441B7900937B68254A2C4926485DF06D
:1043500077F92548FBF7CEFF03469CB22248FBF7CE
:10436000C9FF03462246204920483AF0A1F91B4BD9
:104370001B6818463EF03EFA7B6801337B601C4B9D
:104380009B791A467B689342D0DB144B1B6841F241
:10439000883118463EF0E3F9154A154B9B790333F3
:1043A00013441B790E4A16490F485DF049F90E482F
:1043B000FBF7A0FF03469CB20B48FBF79BFF0346AD
:1043C0002246094909483AF073F9044B1B6818461C
:1043D0003EF010FA00BF0C37BD4690BD54D000240B
:1043E00000A406085C4E0608A8D000249C630024A4
:1043F00094F300247C4E0608A44E0608D04E06080E
:10440000F84E060890B583B000AF834B1B6841F2AD
:10441000883118463EF0A3F9804B1B79804A8149C8
:1044200081485DF00DF98048FBF764FF03469CB2BC
:104430007D48FBF75FFF034622467B497B483AF005
:1044400037F9754B1B6818463EF0D4F9734B0433AB
:104450001B783B713B7903F00103DBB2002B1ED0CC
:104460006D4B1B6841F2883118463EF078F96C4A72
:104470006F496D485DF0E4F86B48FBF73BFF03467E
:104480009CB26948FBF736FF0346224666496748F7
:104490003AF00EF9604B1B6818463EF0ABF93B79D9
:1044A00003F00203DBB2002B1ED05B4B1B6841F212
:1044B000883118463EF053F9594A5E495A485DF032
:1044C000BFF85948FBF716FF03469CB25648FBF766
:1044D00011FF03462246544954483AF0E9F84E4B3E
:1044E0001B6818463EF086F93B7903F00403DBB203
:1044F000002B1ED0484B1B6841F2883118463EF015
:104500002EF9474A4C4948485DF09AF84648FBF76F
:10451000F1FE03469CB24448FBF7ECFE03462246FC
:10452000414942483AF0C4F83B4B1B6818463EF0FC
:1045300061F93B7903F00803DBB2002B1ED0364B48
:104540001B6841F2883118463EF009F9344A3B496C
:1045500035485DF075F83448FBF7CCFE03469CB255
:104560003148FBF7C7FE034622462F492F483AF051
:104570009FF8294B1B6818463EF03CF93B7903F045
:104580001003DBB2002B1ED0234B1B6841F2883195
:1045900018463EF0E4F8224A294923485DF050F8D5
:1045A0002148FBF7A7FE03469CB21F48FBF7A2FE7B
:1045B000034622461C491D483AF07AF8164B1B6800
:1045C00018463EF017F93B7903F02003DBB2002BCD
:1045D0001ED0114B1B6841F2883118463EF0BFF8DF
:1045E0000F4A184910485DF02BF80F48FBF782FE80
:1045F00003469CB20C48FBF77DFE034622460A495F
:104600000A483AF055F8044B1B6818463EF0F2F899
:1046100000BF0C37BD4690BD54D0002494F3002455
:1046200020A40608204F0608A8D000249C6300247C
:10463000384F0608584F06087C4F0608A84F060852
:10464000CC4F0608E84F060890B587B002AF9B4BE9
:104650001B6841F2883118463EF081F8984B1B796F
:10466000984A994999485CF0EBFF9848FBF742FE5D
:1046700003469CB29548FBF73DFE0346224693490C
:1046800093483AF015F88D4B1B6818463EF0B2F887
:104690008A4B1B6841F2883118463EF060F8884B1F
:1046A0005B79884A8B4989485CF0CAFF8748FBF7E9
:1046B00021FE03469CB28548FBF71CFE03462246BA
:1046C0008249834839F0F4FF7C4B1B6818463EF062
:1046D00091F87A4B1B6841F2883118463EF03FF85A
:1046E000774B9B79774A7C4978485CF0A9FF7748FB
:1046F000FBF700FE03469CB27448FBF7FBFD034644
:1047000022467249724839F0D3FF6C4B1B68184639
:104710003EF070F8694B1B6841F2883118463EF054
:104720001EF8674BDB79674A6C4968485CF088FF84
:104730006648FBF7DFFD03469CB26448FBF7DAFDF1
:10474000034622466149624839F0B2FF5B4B1B6861
:1047500018463EF04FF8594B1B6841F28831184615
:104760003DF0FDFF564B1B7A564A5D4957485CF0B9
:1047700067FF5648FBF7BEFD03469CB25348FBF764
:10478000B9FD034622465149514839F091FF4B4B40
:104790001B6818463EF02EF8484B1B6841F28831E2
:1047A00018463DF0DCFF464B5B7A464A4D49474888
:1047B0005CF046FF4548FBF79DFD03469CB243482D
:1047C000FBF798FD034622464049414839F070FF07
:1047D0003A4B1B6818463EF00DF8384B1B6841F207
:1047E000883118463DF0BBFF354B9B7A354A3E4930
:1047F00036485CF025FF3548FBF77CFD03469CB24C
:104800003248FBF777FD034622463049304839F0FD
:104810004FFF2A4B1B6818463DF0ECFF274B1B68E7
:1048200041F2883118463DF09AFF254BDB7A254A44
:104830002E4926485CF004FF2448FBF75BFD034645
:104840009CB22248FBF756FD034622461F492048EA
:1048500039F02EFF194B1B6818463DF0CBFF0023A3
:10486000FB730023BB607EE0144B1B6841F2883170
:1048700018463DF074FF124ABB68083313441B7995
:104880000093BB680F4A1A4910485CF0D9FE0F48E4
:10489000FBF730FD03469CB20C48FBF72BFD0346AB
:1048A00022460A490A4839F003FF044B1B681846A0
:1048B0003DF0A0FF00237B604FE000BF54D00024F8
:1048C00094F3002450A4060804500608A8D000243D
:1048D0009C6300243C50060874500608AC5006083F
:1048E000E45006081C510608545106088C5106086D
:1048F000C4510608FB7B0133FB731F4ABB680833B6
:1049000013441B791A467B6842FA03F303F0010350
:10491000002B1FD0194B1B6841F2883118463DF01F
:104920001EFFFB7B164A174917485CF089FE1648A4
:10493000FBF7E0FC03469CB21348FBF7DBFC0346A5
:1049400022461149114839F0B3FE0C4B1B6818463A
:104950003DF050FF7B6801337B607B68072BC9DD2E
:10496000BB680133BB60BB681F2B7FF77DAF00BF07
:1049700000BF1437BD4690BD94F3002454D00024EA
:1049800050A40608F4510608A8D000249C63002413
:1049900090B589B002AFBA4B1B6841F28831184616
:1049A0003DF0DDFEB74B1B79B74AB849B8485CF01B
:1049B00047FEB748FBF79EFC03469CB2B448FBF7A2
:1049C00099FC03462246B249B24839F071FEAC4B1D
:1049D0001B6818463DF00EFFAA4B1B79402B00F3D5
:1049E0008B80002BC0F2C082402B00F2BD8201A25E
:1049F00052F823F0014B0008414B0008814B00089E
:104A0000714D0008C14B0008B14D0008694F000806
:104A1000694F0008014C0008694F0008694F000801
:104A2000694F0008694F0008694F0008694F000886
:104A3000694F0008414C0008F14D0008314E000854
:104A4000714E0008694F0008B14E0008F14E000891
:104A5000694F0008694F0008694F0008694F000856
:104A6000694F0008694F0008694F0008694F000846
:104A7000694F0008B14C0008694F0008694F0008F1
:104A8000694F0008694F0008694F0008694F000826
:104A9000694F0008694F0008694F0008694F000816
:104AA000694F0008694F0008694F0008694F000806
:104AB000694F0008694F0008694F0008694F0008F6
:104AC000694F0008694F0008694F0008694F0008E6
:104AD000694F0008694F0008694F0008694F0008D6
:104AE000694F0008694F0008694F0008694F0008C6
:104AF000694F0008F14C0008802B00F0198133E267
:104B00005F4B1B6841F2883118463DF028FE5E4A33
:104B100061495F485CF094FD5D48FBF7EBFB0346A1
:104B20009CB25B48FBF7E6FB0346224658495948CE
:104B300039F0BEFD524B1B6818463DF05BFE35E276
:104B40004F4B1B6841F2883118463DF008FE4E4A33
:104B500052494F485CF074FD4D48FBF7CBFB0346D0
:104B60009CB24B48FBF7C6FB0346224648494948DE
:104B700039F09EFD424B1B6818463DF03BFE15E2A6
:104B80003F4B1B6841F2883118463DF0E8FD3E4A34
:104B900043493F485CF054FD3D48FBF7ABFB0346FF
:104BA0009CB23B48FBF7A6FB0346224638493948EE
:104BB00039F07EFD324B1B6818463DF01BFEF5E1D7
:104BC0002F4B1B6841F2883118463DF0C8FD2E4A34
:104BD00034492F485CF034FD2D48FBF78BFB03462E
:104BE0009CB22B48FBF786FB0346224628492948FE
:104BF00039F05EFD224B1B6818463DF0FBFDD5E108
:104C00001F4B1B6841F2883118463DF0A8FD1E4A33
:104C100025491F485CF014FD1D48FBF76BFB03465C
:104C20009CB21B48FBF766FB03462246184919480D
:104C300039F03EFD124B1B6818463DF0DBFDB5E137
:104C40000F4B1B6841F2883118463DF088FD0E4A33
:104C500016490F485CF0F4FC0D48FBF74BFB03468C
:104C60009CB20B48FBF746FB03462246084909481D
:104C700039F01EFD024B1B6818463DF0BBFD95E167
:104C800054D0002494F3002480A406082852060877
:104C9000A8D000249C630024505206087C520608C9
:104CA000A4520608D45206080453060834530608D2
:104CB0009F4B1B6841F2883118463DF050FD9D4ADC
:104CC0009D499E485CF0BCFC9C48FBF713FB0346E7
:104CD0009CB29A48FBF70EFB034622469749984838
:104CE00039F0E6FC924B1B6818463DF083FD5DE110
:104CF0008F4B1B6841F2883118463DF030FD8D4ADC
:104D000090498E485CF09CFC8C48FBF7F3FA034614
:104D10009CB28A48FBF7EEFA034622468749884848
:104D200039F0C6FC824B1B6818463DF063FD3DE13F
:104D30007F4B1B6841F2883118463DF010FD7D4ADB
:104D400081497E485CF07CFC7C48FBF7D3FA034643
:104D50009CB27A48FBF7CEFA034622467749784858
:104D600039F0A6FC724B1B6818463DF043FD1DE16F
:104D70006F4B1B6841F2883118463DF0F0FC6D4ADC
:104D800072496E485CF05CFC6C48FBF7B3FA034672
:104D90009CB26A48FBF7AEFA034622466749684868
:104DA00039F086FC624B1B6818463DF023FDFDE0A0
:104DB0005F4B1B6841F2883118463DF0D0FC5D4ADC
:104DC00063495E485CF03CFC5C48FBF793FA0346A1
:104DD0009CB25A48FBF78EFA034622465749584878
:104DE00039F066FC524B1B6818463DF003FDDDE0D0
:104DF0004F4B1B6841F2883118463DF0B0FC4D4ADC
:104E000054494E485CF01CFC4C48FBF773FA0346CF
:104E10009CB24A48FBF76EFA034622464749484887
:104E200039F046FC424B1B6818463DF0E3FCBDE000
:104E30003F4B1B6841F2883118463DF090FC3D4ADB
:104E400045493E485CF0FCFB3C48FBF753FA0346FF
:104E50009CB23A48FBF74EFA034622463749384897
:104E600039F026FC324B1B6818463DF0C3FC9DE030
:104E70002F4B1B6841F2883118463DF070FC2D4ADB
:104E800036492E485CF0DCFB2C48FBF733FA03462E
:104E90009CB22A48FBF72EFA0346224627492848A7
:104EA00039F006FC224B1B6818463DF0A3FC7DE060
:104EB0001F4B1B6841F2883118463DF050FC1D4ADB
:104EC00027491E485CF0BCFB1C48FBF713FA03465D
:104ED0009CB21A48FBF70EFA0346224617491848B7
:104EE00039F0E6FB124B1B6818463DF083FC5DE091
:104EF0000F4B1B6841F2883118463DF030FC0D4ADB
:104F000018490E485CF09CFB0C48FBF7F3F903468C
:104F10009CB20A48FBF7EEF90346224607490848C7
:104F200039F0C6FB024B1B6818463DF063FC3DE0C0
:104F300054D0002480A406086C530608A8D000248E
:104F40009C63002498530608C4530608F8530608C7
:104F5000285406085854060894540608CC540608E9
:104F600004550608385506083A4B1B6841F288314B
:104F700018463DF0F4FB384B1B79384A384939481C
:104F80005CF05EFB3748FBF7B5F903469CB2354849
:104F9000FBF7B0F9034622463249334839F088FB23
:104FA0002C4B1B6818463DF025FC00BF2A4B1B7993
:104FB000012B40F09E80274B1B6841F28831184638
:104FC0003DF0CDFB244B5B79244A284925485CF011
:104FD00037FB2448FBF78EF903469CB22148FBF7C8
:104FE00089F9034622461F491F4839F061FB194BD6
:104FF0001B6818463DF0FEFB0023FB7500233B6158
:1050000074E0144B1B6841F2883118463DF0A7FB51
:10501000114A3B69023313441B7900933B690F4AE1
:10502000134910485CF00CFB0E48FBF763F903468C
:105030009CB20C48FBF75EF90346224609490A4830
:1050400039F036FB034B1B6818463DF0D3FB0023B9
:10505000FB6045E054D0002494F3002480A40608AB
:1050600068550608A8D000249C630024AC550608A7
:10507000CC550608FB7D0133FB75B44A3B6902330E
:1050800013441B791A46FB6842FA03F303F0010349
:10509000002B22D0AE4B1B6841F2883118463DF000
:1050A0005EFBFA7DFB7D00931346AA4AAA49AB48F2
:1050B0005CF0C6FAA948FBF71DF903469CB2A74865
:1050C000FBF718F903462246A449A54839F0F0FA3F
:1050D0009F4B1B6818463DF08DFBFB680133FB605E
:1050E000FB68072BC6DD3B6901333B613B69102B35
:1050F00087DD964B1B79052B27D1944B5B791B02DF
:105100009BB2924A927913447B81914B1B6841F286
:10511000883118463DF023FB7B898E4A91498F48A0
:105120005CF08EFA8D48FBF7E5F803469CB28B489D
:10513000FBF7E0F8034622468849894839F0B8FA77
:10514000834B1B6818463DF055FB804B1B79102B99
:1051500022D17E4B5B797B727D4B1B6841F288319B
:1051600018463DF0FCFA7B7A7A4A7F497B485CF02E
:1051700067FA7A48FBF7BEF803469CB27748FBF71C
:10518000B9F8034622467549754839F091FA704BD3
:105190001B6818463DF02EFB6C4B1B79112B22D15E
:1051A0006A4B5B793B726A4B1B6841F28831184647
:1051B0003DF0D5FA3B7A674A6C4968485CF040FAA2
:1051C0006648FBF797F803469CB26448FBF792F8F1
:1051D000034622466149624839F06AFA5C4B1B6813
:1051E00018463DF007FB594B1B79132B4FD1574BFA
:1051F0005B791B029BB2554A92791344FB80534B57
:10520000DB791B029BB2514A127A1344BB80504B8C
:105210001B6841F2883118463DF0A1FAFB884D4ADF
:1052200053494E485CF00CFA4C48FBF763F80346D0
:105230009CB24A48FBF75EF8034622464749484875
:1052400039F036FA424B1B6818463DF0D3FA404B12
:105250001B6841F2883118463DF081FABB883D4A0F
:1052600044493E485CF0ECF93C48FBF743F8034600
:105270009CB23A48FBF73EF8034622463749384885
:1052800039F016FA324B1B6818463DF0B3FA2F4B33
:105290001B79202B40F07F822C4B5B79FB70FB78D5
:1052A000FF2B00F03682FF2B00F35482212B63DCAE
:1052B000002BC0F24F82212B00F24C8201A252F847
:1052C00023F000BF81530008C353000805540008B1
:1052D00047540008555700080D5500084F55000861
:1052E00091550008D3550008895400085557000807
:1052F000CB5400085557000855570008555700086B
:1053000055570008555700085557000855570008CD
:1053100055570008555700085557000855570008BD
:1053200055570008555700085557000855570008AD
:10533000555700085557000855570008555700089D
:10534000555700084D5600088F56000894F3002466
:1053500054D0002480A40608F4550608A8D00024E0
:105360009C6300242856060844560608685606081A
:1053700090560608BC560608FE2B00F0A981E9E10C
:10538000A44B1B6841F2883118463DF0E8F9FB78E0
:10539000A14AA249A2485CF053F9A148FAF7AAFF32
:1053A00003469CB29E48FAF7A5FF034622469C4955
:1053B0009C4839F07DF9974B1B6818463DF01AFA66
:1053C000E9E1944B1B6841F2883118463DF0C7F97A
:1053D000FB78914A944992485CF032F99048FAF788
:1053E00089FF03469CB28E48FAF784FF03462246A3
:1053F0008B498C4839F05CF9864B1B6818463DF0A8
:10540000F9F9C8E1834B1B6841F2883118463DF039
:10541000A6F9FB78804A854981485CF011F98048FB
:10542000FAF768FF03469CB27D48FAF763FF03462C
:1054300022467B497B4839F03BF9764B1B6818467E
:105440003DF0D8F9A7E1734B1B6841F2883118464B
:105450003DF085F9FB78704A754971485CF0F0F8C9
:105460006F48FAF747FF03469CB26D48FAF742FFD0
:10547000034622466A496B4839F01AF9654B1B68A6
:1054800018463DF0B7F986E1624B1B6841F288315E
:1054900018463DF064F9FB785F4A664960485CF065
:1054A000CFF85F48FAF726FF03469CB25C48FAF74C
:1054B00021FF034622465A495A4839F0F9F8554B1C
:1054C0001B6818463DF096F965E1524B1B6841F2A6
:1054D000883118463DF043F9FB784F4A5649504809
:1054E0005CF0AEF84E48FAF705FF03469CB24C4814
:1054F000FAF700FF0346224649494A4839F0D8F8EE
:10550000444B1B6818463DF075F944E1414B1B685C
:1055100041F2883118463DF022F9FB783E4A47496E
:105520003F485CF08DF83E48FAF7E4FE03469CB233
:105530003B48FAF7DFFE034622463949394839F03D
:10554000B7F8344B1B6818463DF054F923E1314B52
:105550001B6841F2883118463DF001F9FB782E4A6C
:1055600037492F485CF06CF82D48FAF7C3FE034624
:105570009CB22B48FAF7BEFE03462246284929482A
:1055800039F096F8234B1B6818463DF033F902E1D9
:10559000204B1B6841F2883118463DF0E0F8FB785B
:1055A0001D4A28491E485CF04BF81D48FAF7A2FE38
:1055B00003469CB21A48FAF79DFE03462246184954
:1055C000184839F075F8134B1B6818463DF012F96E
:1055D000E1E0104B1B6841F2883118463DF0BFF8FE
:1055E000FB780D4A18490E485CF02AF80C48FAF787
:1055F00081FE03469CB20A48FAF77CFE0346224627
:105600000749084839F054F8024B1B6818463DF02A
:10561000F1F8C0E054D0002480A40608E85606083B
:10562000A8D000249C6300240857060828570608C1
:105630005C57060884570608B4570608E057060862
:1056400004580608285806084C580608884B1B685A
:1056500041F2883118463DF082F8FB78854A864948
:1056600086485BF0EDFF8548FAF744FE03469CB29E
:105670008248FAF73FFE034622468049804839F0C7
:1056800017F87B4B1B6818463DF0B4F883E0784B65
:105690001B6841F2883118463DF061F8FB78754A85
:1056A000784976485BF0CCFF7448FAF723FE03464E
:1056B0009CB27248FAF71EFE034622466F497048B4
:1056C00038F0F6FF6A4B1B6818463DF093F862E02D
:1056D000674B1B6841F2883118463DF040F8FB7873
:1056E000644A694965485BF0ABFF6448FAF702FE1B
:1056F00003469CB26148FAF7FDFD034622465F4926
:105700005F4838F0D5FF5A4B1B6818463DF072F8D9
:1057100041E0574B1B6841F2883118463DF01FF8B5
:10572000FB78544A594955485BF08AFF5348FAF7C9
:10573000E1FD03469CB25148FAF7DCFD03462246E0
:105740004E494F4838F0B4FF494B1B6818463DF0AE
:1057500051F820E0464B1B6841F2883118463CF076
:10576000FEFFFB78434A4A4944485BF069FF4348DF
:10577000FAF7C0FD03469CB24048FAF7BBFD03466A
:1057800022463E493E4838F093FF394B1B68184685
:105790003DF030F800BF3F4B1B79802B63D1344B79
:1057A0001B6841F2883118463CF0D9FF394B5B79D0
:1057B000304A394931485BF043FF3048FAF79AFDE7
:1057C00003469CB22D48FAF795FD034622462B4925
:1057D0002B4838F06DFF264B1B6818463DF00AF841
:1057E0002C4B5B79002B1FD0214B1B6841F2883179
:1057F00018463CF0B4FF1F4A284920485BF020FFC0
:105800001E48FAF777FD03469CB21C48FAF772FD72
:105810000346224619491A4838F04AFF144B1B68C0
:1058200018463CF0E7FF1EE0114B1B6841F288313F
:1058300018463CF094FF0F4A194910485BF000FFEE
:105840000E48FAF757FD03469CB20C48FAF752FD92
:105850000346224609490A4838F02AFF044B1B68D0
:1058600018463CF0C7FF00BF1C37BD4690BD00BFC7
:1058700054D0002480A4060870580608A8D000243C
:105880009C63002494580608B8580608E058060897
:105890000C59060894F30024305906085859060894
:1058A0009059060898B500AF494B9B78012B64D1FD
:1058B000484B1B6841F2883118463CF050FF444B7E
:1058C0001B79454A454946485BF0BAFE4448FAF719
:1058D00011FD03469CB24248FAF70CFD03462246EE
:1058E0003F49404838F0E4FE3A4B1B6818463CF00C
:1058F00081FF374B1B79002B1FD0364B1B6841F2C1
:10590000883118463CF02BFF334A374934485BF066
:1059100097FE3348FAF7EEFC03469CB23048FAF79C
:10592000E9FC034622462E492E4838F0C1FE294B99
:105930001B6818463CF05EFF48E0264B1B6841F2AE
:10594000883118463CF00BFF234A284924485BF075
:1059500077FE2348FAF7CEFC03469CB22048FAF7BC
:10596000C9FC034622461E491E4838F0A1FE194BC9
:105970001B6818463CF03EFF28E0164B1B6841F2BE
:10598000883118463CF0EBFE134A194914485BF085
:1059900057FE1348FAF7AEFC03469CB21048FAF7DC
:1059A000A9FC034622460E490E4838F081FE094BF9
:1059B0001B6818463CF01EFF054B181D044B5B7816
:1059C000033B99B200230022FBF7CAFF00BF98BD3A
:1059D00094F3002454D00024A4A40608E459060833
:1059E000A8D000249C630024005A0608385A0608F0
:1059F000605A060898B500AF5D4B1B6841F28831CC
:105A000018463CF0ACFE5B4B04335B4A5B495C4898
:105A10005BF016FE5A48FAF76DFC03469CB25848F4
:105A2000FAF768FC034622465549564838F040FECE
:105A30004F4B1B6818463CF0DDFE4D4B1B6841F296
:105A4000883118463CF08BFE4A4C4A4B04331846CA
:105A5000FAF750FC0346013323441B79464A4A496E
:105A600047485BF0EDFD4648FAF744FC03469CB21C
:105A70004348FAF73FFC034622464149414838F083
:105A800017FE3B4B1B6818463CF0B4FE394C394BB3
:105A900004331846FAF72EFC0346013323441B79DE
:105AA000032B02D0072B20D03FE0314B1B6841F283
:105AB000883118463CF053FE2F4A344930485BF099
:105AC000BFFD2F48FAF716FC03469CB22C48FAF7A4
:105AD00011FC034622462A492A4838F0E9FD244BA6
