:020000040800F2
:100000000000082449580108FD540108055501085D
:100010000D550108155501081D5501080000000087
:1000200000000000000000000000000071F704085C
:100030002555010800000000C1F90408E1E70408A3
:100040009D5801089D5801089D5801089D580108B8
:100050009D5801089D5801089D5801089D580108A8
:10006000335501089D5801089D5801089D58010805
:100070009D5801089D5801089D5801089D58010888
:100080009D5801089D5801089D5801089D58010878
:100090009D5801089D5801089D5801089D58010868
:1000A0009D5801089D5801089D5801089D58010858
:1000B0009D5801089D5801089D5801089D58010848
:1000C0009D5801089D5801089D5801089D58010838
:1000D0009D58010841550108555501089D580108D2
:1000E0009D5801089D580108000000009D58010816
:1000F0009D5801089D5801089D5801089D58010808
:100100009D5801089D5801089D5801089D580108F7
:100110009D5801089D580108695501089D5801081E
:100120009D5801089D5801089D5801089D580108D7
:100130009D5801089D5801089D5801089D580108C7
:100140009D5801089D5801080000000000000000B3
:100150009D5801089D5801089D5801089D580108A7
:100160009D5801089D5801089D5801089D58010897
:100170009D5801089D5801089D5801080000000085
:100180009D5801089D5801089D5801089D58010877
:100190009D5801089D5801089D5801089D58010867
:1001A0007D5501089D580108915501089D58010889
:1001B000A55501089D5801089D5801089D58010842
:1001C0009D5801089D5801089D5801089D58010837
:1001D0009D5801089D5801089D5801089D58010827
:1001E0009D5801089D5801089D5801089D58010817
:1001F0009D5801089D5801089D5801089D58010807
:100200009D5801089D5801089D5801089D580108F6
:100210009D5801089D5801089D5801089D580108E6
:100220009D580108B9550108CD550108000000008E
:100230009D5801089D5801089D5801089D580108C6
:100240009D5801089D5801089D5801089D580108B6
:100250009D5801089D5801089D5801089D580108A6
:100260009D5801089D5801089D5801089D58010896
:100270009D5801089D5801089D5801089D58010886
:100280009D5801089D5801089D5801080000000074
:080290009D5801089D5801086A
:1002A00010B5054C237833B9044B13B10448AFF3B0
:1002B00000800123237010BD005F002400000000B7
:1002C0007000070808B5034B1BB103490348AFF39F
:1002D000008008BD00000000045F002470000708D3
:1002E00010F8012B11F8013B012A28BF9A42F7D0E0
:1002F000D01A7047034613F8012B002AFBD1181AB5
:1003000001387047000000000000000000000000FD
:1003100001F0FF01102A2BDB10F0070F08D010F8B6
:10032000013B013A8B422DD010F0070F42B3F6D1BA
:10033000F0B441EA012141EA014122F007047FF0D3
:1003400000070023F0E80256083C85EA010586EA2A
:10035000010685FA47F5A3FA87F586FA47F6A5FA66
:1003600087F68EB9EED1F0BC01F0FF0102F0070272
:1003700032B110F8013B013A83EA010313B1F8D11D
:100380000020704701387047002D06BF35460338FE
:10039000073815F0010F07D1013015F4807F02BF37
:1003A000013015F4C03F0130F0BC0138704700BF88
:1003B00081F0004102E000BF83F0004330B54FEA16
:1003C00041044FEA430594EA050F08BF90EA020F83
:1003D0001FBF54EA000C55EA020C7FEA645C7FEA16
:1003E000655C00F0E2804FEA5454D4EB5555B8BF39
:1003F0006D420CDD2C4480EA020281EA030382EAAA
:10040000000083EA010180EA020281EA0303362D3B
:1004100088BF30BD11F0004F4FEA01314FF4801C0E
:100420004CEA113102D0404261EB410113F0004F20
:100430004FEA03334CEA133302D0524263EB4303D7
:1004400094EA050F00F0A780A4F10104D5F1200E75
:100450000DDB02FA0EFC22FA05F2801841F10001D0
:1004600003FA0EF2801843FA05F359410EE0A5F1A4
:1004700020050EF1200E012A03FA0EFC28BF4CF0D5
:10048000020C43FA05F3C01851EBE37101F000458B
:1004900007D54FF0000EDCF1000C7EEB00006EEB98
:1004A0000101B1F5801F1BD3B1F5001F0CD3490822
:1004B0005FEA30004FEA3C0C04F101044FEA445279
:1004C00012F5800F80F09A80BCF1004F08BF5FEA00
:1004D000500C50F1000041EB045141EA050130BDE0
:1004E0005FEA4C0C404141EB0101013C28BFB1F5F2
:1004F000801FE9D291F0000F04BF01460020B1FA3D
:1005000081F308BF2033A3F10B03B3F120020CDA0F
:100510000C3208DD02F1140CC2F10C0201FA0CF0ED
:1005200021FA02F10CE002F11402D8BFC2F1200C52
:1005300001FA02F120FA0CFCDCBF41EA0C01904008
:10054000E41AA2BF01EB0451294330BD6FEA040451
:100550001F3C1CDA0C340EDC04F11404C4F120023C
:1005600020FA04F001FA02F340EA030021FA04F34E
:1005700045EA030130BDC4F10C04C4F1200220FAA5
:1005800002F001FA04F340EA0300294630BD21FAE3
:1005900004F0294630BD94F0000F83F4801306BFA9
:1005A00081F480110134013D4EE77FEA645C18BF9D
:1005B0007FEA655C29D094EA050F08BF90EA020F34
:1005C00005D054EA000C04BF1946104630BD91EA2C
:1005D000030F1EBF0021002030BD5FEA545C05D12F
:1005E0004000494128BF41F0004130BD14F580046E
:1005F0003CBF01F5801130BD01F0004545F0FE41E2
:1006000041F470014FF0000030BD7FEA645C1ABF16
:10061000194610467FEA655C1CBF0B46024650EA4D
:10062000013406BF52EA033591EA030F41F4002179
:1006300030BD00BF90F0000F04BF0021704730B5FF
:100640004FF4806404F132044FF000054FF00001D4
:1006500050E700BF90F0000F04BF0021704730B595
:100660004FF4806404F1320410F0004548BF40426A
:100670004FF000013EE700BF42004FEAE2014FEABF
:1006800031014FEA02701FBF12F07F4393F07F4F9A
:1006900081F06051704732F07F4208BF704793F09D
:1006A0007F4F04BF41F40021704730B54FF46074B0
:1006B00001F0004521F000411CE700BF50EA0102B3
:1006C00008BF704730B54FF000050AE050EA01025C
:1006D00008BF704730B511F0004502D5404261EBCC
:1006E00041014FF4806404F132045FEA915C3FF40D
:1006F000D8AE4FF003025FEADC0C18BF03325FEAAA
:10070000DC0C18BF033202EBDC02C2F1200300FA5A
:1007100003FC20FA02F001FA03FE40EA0E0021FA7F
:1007200002F11444BDE600BF7BB972B90029BEBF17
:1007300000204FF0004106E008BF00281CBF6FF00A
:1007400000414FF0FF3000F0D3B9ADF1080C6DE976
:1007500004CE002909DB002B1ADB00F04DF8DDF890
:1007600004E0DDE9022304B07047404261EB41013F
:10077000002B1BDB00F040F8DDF804E0DDE902238C
:1007800004B0404261EB4101524263EB43037047C6
:10079000524263EB430300F02FF8DDF804E0DDE99B
:1007A000022304B0404261EB41017047524263EBC7
:1007B000430300F021F8DDF804E0DDE9022304B092
:1007C000524263EB4303704753B94AB9002908BF4B
:1007D00000281CBF4FF0FF314FF0FF3000F088B908
:1007E000ADF1080C6DE904CE00F006F8DDF804E088
:1007F000DDE9022304B070472DE9F047089D8E46DD
:1008000004468846002B4AD18A42174662D9B2FA7A
:1008100082F64EB1C6F1200301FA06F820FA03F37E
:10082000B74043EA0808B4404FEA174E1FFA87FC66
:10083000B8FBFEF1230C0EFB118843EA084301FBD1
:100840000CF29A4209D9FB1801F1FF3080F0EA80DE
:100850009A4240F2E78002393B449A1AA3B2B2FBB3
:10086000FEF00EFB102243EA024300FB0CFC9C4509
:1008700009D9FB1800F1FF3280F0D6809C4540F288
:10088000D3803B44023840EA0140A3EB0C03002133
:100890001DB1F3400022C5E90032BDE8F0878B426C
:1008A00005D90DB1C5E9000100210846F5E7B3FA05
:1008B00083F1002946D1734502D3824200F20581BB
:1008C000841A6EEB030201209046002DE5D0C5E9A5
:1008D0000048E2E7002A00F09080B2FA82F6002E8B
:1008E00040F0A4808A1A030C4FEA174E80B2BCB2C3
:1008F0000121B2FBFEFC0EFB1C2243EA024304FB77
:100900000CF29A4207D9FB180CF1FF3802D29A4236
:1009100000F2E080C4469B1AB3FBFEF20EFB1233DA
:1009200040EA034302FB04F49C4207D9FB1802F19E
:10093000FF3002D29C4200F2CA8002461B1B42EAF0
:100940000C40A5E7C1F120068B4022FA06F71F43B1
:100950000EFA01F420FA06F32EFA06FE4FEA1749C2
:10096000234300FA01F81FFA87FCBEFBF9F01C0CC8
:1009700009FB10EE44EA0E4400FB0CFEA64502FA09
:1009800001F209D93C1900F1FF3A80F09C80A6459C
:1009900040F2998002383C44A4EB0E041FFA83FE17
:1009A000B4FBF9F309FB13444EEA044403FB0CFCCB
:1009B000A44508D93C1903F1FF3E80F08280A4458C
:1009C0007FD9023B3C4443EA0040A4EB0C04A0FB6B
:1009D00002EC64457346E14662D35FD05DB1B8EB8B
:1009E000030264EB090404FA06F622FA01F31E433B
:1009F000CC40C5E9006400214FE7B1FBF2FC010CDB
:100A000041EA0E4180B240EA01423B4638463C464C
:100A1000B846BE462026B1FBF7F1A2EB080241EA38
:100A20000C4166E7014618E710462CE7C6F12002A4
:100A30002EFA02F3B740B14020FA02F24FEA174E05
:100A40000A43B3FBFEF8BCB20EFB1833110C41EAAB
:100A5000034108FB04F9B04089454FEA104380B2D6
:100A60003ED9791808F1FF3C01D289451FD8A1EB86
:100A70000901B1FBFEF909FB04F80EFB191192B252
:100A800042EA0142424529D2BA1809F1FF31C4D2E3
:100A90004245C2D2A9F102013A44BEE7F0459DD2D7
:100AA000BEEB02036CEB070C0138E14696E7A7EBBF
:100AB00009094944A8F1020CB1FBFEF909FB04F84D
:100AC000DBE773467FE7504666E70846FDE63B44B2
:100AD000023A33E7ACF1020C3B441CE749469CE781
:100AE000A1EB0901C446B1FBFEF909FB04F8C4E718
:100AF000704700BF80B584B000AF13F0D9FC774BCE
:100B00005B6903F40033002B1BD1BFF34F8F00BF91
:100B1000BFF36F8F00BF714B0022C3F85022BFF3A9
:100B20004F8F00BFBFF36F8F00BF6C4B5B696B4A89
:100B300043F400335361BFF34F8F00BFBFF36F8F98
:100B400000E000BF654B5B6903F48033002B38D1B4
:100B5000624B0022C3F88420BFF34F8F00BF5F4B6E
:100B6000D3F88030FB60FB685B0BC3F30E03BB6004
:100B7000FB68DB08C3F309037B60BB685A0143F6DB
:100B8000E07313407A68920754491343C1F8603206
:100B90007B685A1E7A60002BEFD1BB685A1EBA6080
:100BA000002BE5D1BFF34F8F00BF4C4B5B694B4A25
:100BB00043F480335361BFF34F8F00BFBFF36F8F98
:100BC00000E000BF3BF0C2FB00F0C8F800F004FCFE
:100BD00000F08CFB00F0AAFB00F0DCF900F046F915
:100BE00000F066F900F0C2F900F058FA00F07EF962
:100BF00000F0E4FA00F096FA14F0BCFD00F0BAFA46
:100C000000F028FB00F078FA14F050FE14F047FED4
:100C10004DF000FE32484DF0F4FE0346314A1360B9
:100C2000314A022140204EF019F903462F4A136041
:100C30002F4A022140204EF011F903462D4A13603D
:100C40002D4A01214FF400604EF008F903462B4A6B
:100C500013602B4A01214FF480704EF0FFF80346D9
:100C6000284A1360284A002128484DF01DFE0346FB
:100C7000274A1360274A002127484DF015FE0346F6
:100C8000264A1360264A002126484DF00DFE0346F1
:100C9000254A1360254A002125484DF005FE0346EC
:100CA000244A1360244A002124484DF0FDFD0346E8
:100CB000234A1360234A002123484DF0F5FD0346E3
:100CC000224A1360224A002122484DF0EDFD0346DE
:100CD000214A13604DF0C2FD00BFFDE700ED00E0CA
:100CE00088B9070888D5002428B9070838CA00241D
:100CF00040B907080CCB002458B90708E0CB002402
:100D000070B9070834D400242CB807084929010811
:100D10002C66002450B80708BD580108D876002476
:100D200074B8070865310108DC76002498B8070814
:100D3000C931010888870024BCB80708453201087A
:100D400034980024E0B80708A9320108E0A800247C
:100D500004B907080D3301088CB9002480B59CB094
:100D600000AF07F124034C22002118466CF031FF3C
:100D70003B1D2022002118466CF02BFF042042F07E
:100D8000C1FD00233B60374BDB6A364A23F0010389
:100D9000D362344BDB6A03F001033B60324B9B6947
:100DA000314A43F4404393612F4B9B6903F4404322
:100DB0003B603B6800BF2C4B9B6903F40053B3F5C9
:100DC000005FF8D12B237B624FF48033BB62012399
:100DD0003B6340237B630123BB630123FB6302234B
:100DE000BB640223FB6405233B65A0237B650223D0
:100DF000BB650423FB6502233B6608237B66002357
:100E0000BB660023FB6607F12403184644F05EF836
:100E10000346002B01D013F095FB3F237B60032397
:100E2000BB600023FB6008233B6140237B614023C0
:100E3000BB614FF48063FB6140233B623B1D022199
:100E4000184644F0F3FD0346002B01D013F07AFB63
:100E50004FF480220021002045F058F900BF703780
:100E6000BD4680BD000400580048025880B500AF60
:100E70000D4B0E4A1A600C4B00221A710A4B0022CD
:100E80005A71094B00225A61074B00229A61064BA6
:100E900001221A6204483BF0DFFD0346002B01D01B
:100EA00013F050FB00BF80BD1C5F0024004C0258B3
:100EB00080B500AF0B4B0C4A1A600A4B4FF440321E
:100EC0005A60084B02229A60064B0022DA600548FD
:100ED0003CF07EFC0346002B01D013F033FB00BF37
:100EE00080BD00BF405F00240010005280B500AFFD
:100EF0001B4B1C4A1A601A4B1B4A5A60184B0022A3
:100F00009A60174B0122DA60154B00221A61144BCC
:100F100000225A61124B00229A61114B0022DA61C1
:100F20000F4B00221A620E483DF0C4FA0346002B14
:100F300001D013F007FB002109483EF03FF90346BA
:100F4000002B01D013F0FEFA002105483EF0ACF969
:100F50000346002B01D013F0F5FA00BF80BD00BF9F
:100F6000A85F0024001C0058B634900080B500AF84
:100F7000064B074A1A6005483EF00AFA0346002B62
:100F800001D013F0DFFA00BF80BD00BFFC5F00247A
:100F90000030005280B58EB000AF13F00FFB3B1D48
:100FA0003422002118466CF014FE3A4B3A4A1A607B
:100FB000384B00225A60374B00229A60354B002292
:100FC000DA60344B00221A61324B28225A61314BCD
:100FD00009229A612F4B3522DA612E4B0B221A62BD
:100FE0002C4B40F215225A622A4B40F21B129A6295
:100FF000284B40F23522DA62264B40F21D121A636A
:10100000244B002283F83420224B002283F8352021
:10101000204B002283F836201E4840F011FA034688
:10102000002B01D013F08EFA00237B604FF4F07395
:10103000BB600023FB604FF488733B6102237B613C
:10104000FF23BB610023FB614FF480633B620523F8
:101050007B624FF05043BB624FF4F073FB624FF47E
:1010600088733B63002387F83430002387F83530DA
:10107000002387F836303B1D00221946054840F012
:10108000BDFB0346002B01D013F05CFA00BF3837DC
:10109000BD4680BD2C6100240010005080B500AF1B
:1010A000124B134A1A60114B01225A600F4B012256
:1010B0009A600E4B1022DA600C4B1A221A610B4B0D
:1010C0004FF400725A61094B00229A61074B40228B
:1010D0001A62064842F092FC0346002B01D013F03E
:1010E00031FA044813F0DEFA00BF80BDD461002459
:1010F000005000524545010880B500AF074B084A33
:101100001A60064B00225A60044848F00BFC034664
:10111000002B01D013F016FA00BF80BD206200241E
:101120000018024880B500AF104B114A1A600F4BEF
:1011300000225A600D4B7F229A600C4BFF22DA602E
:101140000A4B00221A61094B00229A61074B0022C8
:10115000DA61064B00225A61044848F0B5FC0346A8
:10116000002B01D013F0EEF900BF80BD34620024E3
:101170000040005880B500AF0E4B0F4A1A600D4B6F
:1011800000225A600B4B00229A600A4B4FF4004237
:10119000DA60084B00221A61064B00225A610548AA
:1011A00041F018FC0346002B01D013F0CBF900BF2F
:1011B00080BD00BF586200240070005280B500AFAF
:1011C000224B234A1A60214B4FF4E1325A601F4BE5
:1011D00000229A601D4B0022DA601C4B00221A612B
:1011E0001A4B0C225A61194B00229A61174B0022AC
:1011F000DA61164B00221A62144B00225A62134B1A
:1012000000229A62114849F05DFB0346002B01D091
:1012100013F098F900210D484CF040F90346002BDB
:1012200001D013F08FF9002108484CF0D1F90346A2
:10123000002B01D013F086F904484CF0B5F80346B2
:10124000002B01D013F07EF900BF80BDD0640024D4
:101250000010014080B500AF224B234A1A60214B99
:101260004FF4E1325A601F4B00229A601D4B00225E
:10127000DA601C4B00221A611A4B0C225A61194B7E
:1012800000229A61174B0022DA61164B00221A6283
:10129000144B00225A62134B00229A62114849F003
:1012A00011FB0346002B01D013F04CF900210D482F
:1012B0004CF0F4F80346002B01D013F043F9002161
:1012C00008484CF085F90346002B01D013F03AF999
:1012D00004484CF069F80346002B01D013F032F9B2
:1012E00000BF80BD646500240044004080B582B02A
:1012F00000AF0D4BD3F8D4300B4A43F00103C2F8D2
:10130000D430094BD3F8D43003F001037B607B6801
:10131000002205217A203BF097F97A203BF0BEF9B4
:1013200000BF0837BD4680BD0044025880B588B074
:1013300000AF3B1D00221A605A609A60DA601A61A1
:101340005A619A61214B224A1A60204B01225A604D
:101350001E4B00229A601D4B0422DA601B4B1022A8
:101360001A611A4B40225A61184B4FF480729A61ED
:10137000164B0022DA61154B4FF400621A62134BD0
:101380004FF480525A62114B00229A6202237B6012
:101390000623BB600423FB6006233B6102237B61C1
:1013A0000223BB610223FB613B1D1946074848F03D
:1013B000EDFD0346002B01D013F0C4F8054813F0EF
:1013C00092F900BF2037BD4680BD00BFF8650024FC
:1013D000404100524545010880B590B000AF07F18B
:1013E0002C0300221A605A609A60DA601A61A04BDE
:1013F000D3F8E0309E4A43F48063C2F8E0309C4B5F
:10140000D3F8E03003F48063BB62BB6A984BD3F837
:10141000E030974A43F04003C2F8E030944BD3F8F1
:10142000E03003F040037B627B6A914BD3F8E030FD
:101430008F4A43F00803C2F8E0308D4BD3F8E03018
:1014400003F008033B623B6A894BD3F8E030884ADB
:1014500043F00403C2F8E030854BD3F8E03003F0EA
:101460000403FB61FB69824BD3F8E030804A43F40C
:101470008073C2F8E0307E4BD3F8E03003F4807321
:10148000BB61BB697A4BD3F8E030794A43F0100373
:10149000C2F8E030764BD3F8E03003F010037B6104
:1014A0007B69734BD3F8E030714A43F00203C2F812
:1014B000E0306F4BD3F8E03003F002033B613B694F
:1014C0006B4BD3F8E0306A4A43F40073C2F8E03063
:1014D000674BD3F8E03003F40073FB60FB68644BA8
:1014E000D3F8E030624A43F00103C2F8E030604BC9
:1014F000D3F8E03003F00103BB60BB685C4BD3F86A
:10150000E0305B4A43F02003C2F8E030584BD3F898
:10151000E03003F020037B607B68554BD3F8E0306C
:10152000534A43F08003C2F8E030514BD3F8E03027
:1015300003F080033B603B68002208214D483CF0EB
:1015400051FF01224FF400514B483CF04BFF002269
:1015500008214A483CF046FF0022402148483CF020
:1015600041FF0122042147483CF03CFF0823FB6275
:1015700001233B6300237B630023BB6307F12C0340
:1015800019463C483CF018FB4FF48073FB62022381
:101590003B6300237B630023BB630023FB6307F1F2
:1015A0002C03194636483CF007FB4FF40053FB620E
:1015B00001233B6300237B630023BB6307F12C0300
:1015C00019462D483CF0F8FA0823FB6201233B63DF
:1015D00000237B630323BB6307F12C0319462748D1
:1015E0003CF0EAFA0423FB624FF404133B6300234C
:1015F0007B6307F12C03194620483CF0DDFA4FF4D9
:101600004063FB6202233B6301237B630323BB63D1
:101610000723FB6307F12C0319461B483CF0CCFA67
:101620004023FB6201233B6300237B630323BB63F3
:1016300007F12C03194612483CF0BEFA0423FB6262
:1016400001233B6300237B630023BB6307F12C036F
:1016500019460C483CF0B0FA0022052108203AF067
:10166000F3FF08203BF01AF800BF4037BD4680BDAD
:1016700000440258000C025800200258001802587A
:1016800000000258002402580004025890B583B0AC
:1016900000AF0446084611461A462346FB7103462E
:1016A000BB710B467B7113463B71FB796433114A66
:1016B0005361BB79013B0F4A13617B790D4AD360BB
:1016C0003B790C4A93603B7E0A4A53603B7F094A50
:1016D000136008486CF0AAFB02460B460649C1E9B4
:1016E0000023054BD3E90023134618460C37BD46AB
:1016F00090BD00BFD0130124F813012490B583B02E
:1017000000AF7860544B1B6818464DF0D9FC034677
:101710009AB2524B1A80514B1B88002B00F09580D7
:101720004F4B1B6841F2883118464DF0F0F94B4B96
:101730001B884C4A4C494D486CF0E4F94B48FEF785
:10174000D9FD03469CB24948FEF7D4FD0346224624
:101750004649474849F084F9414B1B6818464DF00B
:1017600021FA444B00221A803CE03B4B18680023CE
:10177000002241494DF046FC0346404A13603F4B6E
:101780001B68002B20D0364B1B6841F2883118466D
:101790004DF0BDF9394B1B68324A394933486CF07A
:1017A000B1F93248FEF7A6FD03469CB22F48FEF77A
:1017B000A1FD034622462D492D4849F051F9284BF9
:1017C0001B6818464DF0EEF92A4B1B881A467B68B9
:1017D0001344294A12781A70264B1B8801339AB297
:1017E000244B1A801C4B1B6818464DF069FC0346BD
:1017F000002B05D01F4B1B8840F6FD729342B4D9D5
:101800001C4B1A88154B1A80154B1B6841F2883106
:1018100018464DF07CF9114B1B88124A19491348A0
:101820006CF070F91148FEF765FD03469CB20F4855
:10183000FEF760FD034622460C490D4849F010F9B9
:10184000074B1B6818464DF0ADF9044B1B88184632
:101850000C37BD4690BD00BF34D4002400140124D1
:1018600088D5002498B9070818010708DCD500249A
:10187000D064002402140124041401240814012457
:10188000400107087801070890B583B000AF786081
:101890007B681B682F4A934216D12F4B1A782F4B27
:1018A0001A702F4B1868002300222C494DF04AFB78
:1018B00003462C4A1360012227492B4849F05EF960
:1018C00003461A46294B1A707B681B68284A9342C4
:1018D0003BD1284B1A78284B1A70284B18680023E4
:1018E000002225494DF02EFB03461E4A13601D4B76
:1018F0001B68002B20D0224B1B6841F28831184610
:101900004DF005F9174B1B681E4A1F491F486CF024
:10191000F9F81E48FEF7EEFC03469CB21B48FEF7A2
:10192000E9FC0346224619490F4849F099F8144B3F
:101930001B6818464DF036F901220E49144849F04B
:101940001DF903461A46094B1A7000BF0C37BD46F5
:1019500090BD00BF001001400DEE00240C140124C6
:1019600034D4002410140124D0640024141401245D
:10197000004400400CEE002415140124E0CB0024A8
:1019800088D50024B4B90708A0010708DCD50024D5
:101990006465002490B585B000AFF8607B600B46AD
:1019A0007B8113467B727D4B00221A805AE17B7A41
:1019B000002B2AD0794B1B8803F00F039BB2002B1E
:1019C00023D1774B1B6841F2883118464DF09FF8C0
:1019D000724B1B881A467B6813441A467149724839
:1019E0006CF090F87048FEF785FC03469CB26E4898
:1019F000FEF780FC034622466B496C4849F030F8FC
:101A0000674B1B6818464DF0CDF8654B1B6841F2DB
:101A1000883118464DF07BF8604B1B881A46FB68EE
:101A200013441B781A4662495F486CF06BF85E48B5
:101A3000FEF760FC03469CB25B48FEF75BFC034686
:101A400022465949594849F00BF8554B1B6818462E
:101A50004DF0A8F8524B1B6841F2883118464DF002
:101A600056F8544950486CF04DF84F48FEF742FC88
:101A700003469CB24C48FEF73DFC034622464A49C9
:101A80004A4848F0EDFF464B1B6818464DF08AF86F
:101A9000424B1B8803F00F039BB2072B1DD1404B19
:101AA0001B6841F2883118464DF031F842493E48F2
:101AB0006CF028F83C48FEF71DFC03469CB23A48FF
:101AC000FEF718FC034622463749384848F0C8FF5D
:101AD000334B1B6818464DF065F8304B1B8803F0FC
:101AE0000F039BB20F2B40F0B7802D4B1B6841F2C8
:101AF000883118464DF00BF82F492B486CF002F84E
:101B00002948FEF7F7FB03469CB22748FEF7F2FB95
:101B1000034622462449254848F0A2FF204B1B6873
:101B200018464DF03FF81D4B1B880F3B9AB2234BD4
:101B30001A806DE0214B1B881A46FB6813441B7802
:101B400001331F4A13441B7803F09703002B3BD04B
:101B5000134B1B6841F2883118464CF0D8FF174BE5
:101B60001B881A46FB6813441B781A4615490E4811
:101B70006BF0C8FF0C48FEF7BDFB03469CB20A4859
:101B8000FEF7B8FB034622460749084848F068FFBD
:101B9000034B1B6818464DF005F833E0161401247A
:101BA00088D50024D8010708DCD50024D06400249F
:101BB000EC010708F4010708F801070818140124CC
:101BC00058F4070800020708A84B1B6841F2883147
:101BD00018464CF09CFFA649A6486BF093FFA54819
:101BE000FEF788FB03469CB2A248FEF783FB034640
:101BF0002246A049A04848F033FF9C4B1B6818467A
:101C00004CF0D0FF9D4B1B8801339AB29B4B1A803E
:101C10009B4B1A88994B1B889A428BD2934B1B681B
:101C200041F2883118464CF072FF964991486BF0AA
:101C300069FF9048FEF75EFB03469CB28D48FEF7B5
:101C400059FB034622468B498B4848F009FF874BD6
:101C50001B6818464CF0A6FF894B1B8801339AB2CB
:101C6000874B1A80864B1B887A899A423FF69FAE33
:101C70007B8903F00F039BB2002B00F0D5807B899A
:101C800003F00F039AB27D4B1A8023E0774B1B6859
:101C900041F2883118464CF03AFF7B4975486BF0A9
:101CA00031FF7448FEF726FB03469CB27148FEF7ED
:101CB00021FB034622466F496F4848F0D1FE6B4B2B
:101CC0001B6818464CF06EFF6C4B1B8801339AB2B0
:101CD0006A4B1A80694B1B880F2BD7D97B8903F07D
:101CE00008039BB2002B1DD1604B1B6841F2883169
:101CF00018464CF00CFF65495E486BF003FF5D48E9
:101D0000FEF7F8FA03469CB25A48FEF7F3FA034688
:101D100022465849584848F0A3FE544B1B681846C1
:101D20004CF040FF514B1B6841F2883118464CF093
:101D3000EEFE56494F486BF0E5FE4E48FEF7DAFAE4
:101D400003469CB24B48FEF7D5FA03462246494962
:101D5000494848F085FE454B1B6818464CF022FF69
:101D60007B8923F00F039AB2444B1A8057E0434B10
:101D70001B881A46FB6813441B780133444A1344FA
:101D80001B7803F09703002B25D0384B1B6841F2DA
:101D9000883118464CF0BBFE384B1B881A46FB684E
:101DA00013441B781A463B4932486BF0ABFE31486E
:101DB000FEF7A0FA03469CB22E48FEF79BFA0346B4
:101DC00022462C492C4848F04BFE284B1B681846ED
:101DD0004CF0E8FE1DE0254B1B6841F288311846A7
:101DE0004CF095FE224923486BF08CFE2148FEF70B
:101DF00081FA03469CB21F48FEF77CFA034622464E
:101E00001C491D4848F02CFE184B1B6818464CF026
:101E1000C9FE1A4B1B8801339AB2184B1A80174B14
:101E20001B887A899A42A2D8104B1B6841F28831EC
:101E300018464CF06CFE13490E486BF063FE0D48DB
:101E4000FEF758FA03469CB20A48FEF753FA0346D7
:101E500022460849084848F003FE044B1B68184610
:101E60004CF0A0FE00BF1437BD4690BD88D50024BD
:101E700004020708DCD50024D064002418140124CF
:101E800016140124080207080C020708F8010708C5
:101E900058F407080002070890B583B002AF654BFD
:101EA0001B684FF47A7118464CF031FE6249634862
:101EB0006BF028FE6148FEF71DFA03469CB25F48AE
:101EC000FEF718FA034622465C495D4848F0C8FD13
:101ED00059495A486BF016FE5848FEF70BFA03466C
:101EE0009CB25648FEF706FA034622465349544828
:101EF00048F0B6FD504951486BF004FE4F48FEF7DC
:101F0000F9F903469CB24D48FEF7F4F90346224620
:101F10004A494B4848F0A4FD4A4948486BF0F2FD55
:101F20004648FEF7E7F903469CB24448FEF7E2F95B
:101F3000034622464149424848F092FD42493F4803
:101F40006BF0E0FD3D48FEF7D5F903469CB23B48F7
:101F5000FEF7D0F9034622463849394848F080FD5B
:101F60003A4936486BF0CEFD3448FEF7C3F90346D4
:101F70009CB23248FEF7BEF9034622462F4930484C
:101F800048F06EFD41230193314B0093314B314AB0
:101F900031492A486BF0B6FD2848FEF7ABF90346F5
:101FA0009CB22648FEF7A6F9034622462349244858
:101FB00048F056FD294A2A4920486BF0A3FD1F48E6
:101FC000FEF798F903469CB21C48FEF793F90346C6
:101FD00022461A491A4848F043FD224917486BF037
:101FE00091FD1648FEF786F903469CB21348FEF7AA
:101FF00081F9034622461149114848F031FD124942
:102000000E486BF07FFD0D48FEF774F903469CB255
:102010000A48FEF76FF9034622460849084848F087
:102020001FFD044B1B6818464CF0BCFD00BF043775
:10203000BD4690BD88D5002410020708DCD50024D9
:10204000D06400243C020708440207088C020708F9
:1020500008030708D4020708D80207080C0307087A
:10206000180307084003070880B500AF0349044878
:1020700047F0D4FC014B1B68184680BD1C1401249A
:102080002062002490B58BB004AF03463960FB801A
:102090000023BB82FB88002B23D0FB88A3F5807331
:1020A000002B00DA0733DB10FB75FB88DBB203F093
:1020B0000703BB75FB8801333B823B8AA3F5807322
:1020C000002B00DA0733DB10FB753B8AA3F5807326
:1020D0005A4203F0070302F0070258BF5342BB7590
:1020E00003E00023FB750023BB75FB7DFB7454E00C
:1020F000BB7DBB7449E0FB7C3A6813441B781A46ED
:10210000BB7C42FA03F303F00103002B3AD0FB7CC3
:1021100020339BB2DB009AB2BB7C9BB21344BB82E0
:10212000FB7CFB73BB7CBB73314B1B6841F288317A
:1021300018464CF0ECFCB88AFB7BBA7BB97B0124D7
:1021400004FA01F10291019200930346294A2A49B7
:102150002A486BF0D7FC2948FEF7CCF803469CB21E
:102160002648FEF7C7F8034622462449244848F08B
:1021700077FC1F4B1B6818464CF014FD0823BB74FA
:102180008023FB74BB7C0133BB74BB7C072BB2D9AF
:102190000023BB75FB7C0133FB7497F91330002BD4
:1021A000A6DABB8A002B1ED1114B1B6841F2883185
:1021B00018464CF0ACFC0F4A124910486BF0A2FCD8
:1021C0000E48FEF797F803469CB20C48FEF792F8CB
:1021D0000346224609490A4848F042FC044B1B6862
:1021E00018464CF0DFFCBB8A18461C37BD4690BD34
:1021F00088D50024CCB907083C040708DCD50024A6
:10220000D06400249804070890B585B002AF034657
:10221000FB71FB79002B44D18B4B1B6841F2883159
:1022200018464CF074FC894A89498A486BF06AFC6C
:102230008848FEF75FF803469CB28648FEF75AF8D6
:10224000034622468349844848F00AFC7E4B1B68BB
:1022500018464CF0A7FC814B00221A607A4B1B6891
:1022600041F2883118464CF052FC784A7C49794852
:102270006BF048FC7748FEF73DF803469CB2754882
:10228000FEF738F8034622467249734848F0E8FBE7
:102290006D4B1B6818464CF085FC724B00221A707F
:1022A000E6E2FB79012B40F084826F4B9A786F4B0A
:1022B0001B789A4208D06C4B9A786C4B1A70674B1B
:1022C0001B680133654A1360644B1B68052B26D9D4
:1022D000624B00221A605C4B1B6841F28831184641
:1022E0004CF015FC624B1B78584A624959486BF018
:1022F00009FC5848FDF7FEFF03469CB25548FDF720
:10230000F9FF034622465349534848F0A9FB4E4B78
:102310001B6818464CF046FC524B0B221A70514B6E
:102320001B78002B5CD1524B1B781946524A0B4646
:10233000DB005B1ADB00134414331B78052B40F0E1
:1023400097820FF033FD03461A464C4B1A70502209
:1023500000214B486BF03DFC494B9F221A70484BC3
:1023600004225A70424B1B781946434A0B46DB0045
:102370005B1ADB00134416331888404B1B7800931C
:1023800001233F4A02210EF075FD344B00221A60F2
:102390003C4B00221A702C4B1B6841F288311846C6
:1023A0004CF0B5FB324B1B78284A374929486BF073
:1023B000A9FB2848FDF79EFF03469CB22548FDF780
:1023C00099FF034622462349234848F049FB1E4B08
:1023D0001B6818464CF0E6FB224B01221A7047E2BC
:1023E000204B1B78012B40F0B181264B1B78002B32
:1023F00000F03E82254B1B78002B4BD1124B1B6803
:1024000041F2883118464CF082FB194B1B780F4A79
:102410001F4910486BF076FB0E48FDF76BFF034633
:102420009CB20C48FDF766FF0346224609490A485C
:1024300048F016FB044B1B6818464CF0B3FB094BE5
:102440000B221A7014E200BF88D50024E8B90708EF
:10245000C0040708DCD50024D06400242014012423
:10246000D404070824140124DCED00241500002402
:102470001400002404050708301201244813012425
:1024800028140124CE13012454050708CF13012476
:10249000900507089D4B00221A600FF087FC034649
:1024A0001A469B4B1A70502200219A486BF091FB00
:1024B000984B9F221A70974B06225A70954B002218
:1024C0009A70944B0222DA70924B01221A71924B4D
:1024D0001B781946914A0B46DB005B1ADB0013445C
:1024E00011331B7803F00403002B22D08C4B1B68A4
:1024F00041F2883118464CF00AFB8A4A8A498B48D7
:102500006BF000FB8948FDF7F5FE03469CB2874857
:10251000FDF7F0FE034622468449854848F0A0FABC
:102520007F4B1B6818464CF03DFB7A4B04225A71D6
:1025300085E0794B1B781946784A0B46DB005B1A1D
:10254000DB00134411331B7803F00203002B22D06D
:10255000734B1B6841F2883118464CF0D8FA714A27
:10256000744972486BF0CEFA7048FDF7C3FE03461B
:102570009CB26E48FDF7BEFE034622466B496C488E
:1025800048F06EFA664B1B6818464CF00BFB614B2B
:1025900002225A7153E0604B1B7819465F4A0B4682
:1025A000DB005B1ADB00134411331B7803F00103DB
:1025B000002B22D05A4B1B6841F2883118464CF050
:1025C000A6FA584A5C4959486BF09CFA5748FDF7FF
:1025D00091FE03469CB25548FDF78CFE0346224609
:1025E0005249534848F03CFA4D4B1B6818464CF092
:1025F000D9FA484B01225A7121E0494B1B6841F23C
:10260000883118464CF083FA464A4C4947486BF0EB
:1026100079FA4648FDF76EFE03469CB24348FDF743
:1026200069FE034622464149414848F019FA3C4BAD
:102630001B6818464CF0B6FA364B00225A71384BDC
:102640001B6841F2883118464CF061FA324B1B7816
:10265000344A3B4935486BF055FA3448FDF74AFE99
:1026600003469CB23148FDF745FE034622462F49FA
:102670002F4848F0F5F92A4B1B6818464CF092FA9F
:10268000254B1B781946234B5879244A0B46DB000F
:102690005B1ADB001344123302461A701E4B1B7880
:1026A00019461E4A0B46DB005B1ADB001344163347
:1026B0001888174B1B7800930123164A06210EF049
:1026C000D9FB174B1B6841F2883118464CF01FFAB2
:1026D000114B1B78134A1B4914486BF013FA13482B
:1026E000FDF708FE03469CB21048FDF703FE0346C3
:1026F00022460E490E4848F0B3F9094B1B681846AC
:102700004CF050FA104B02221A70B1E02014012450
:102710004813012428140124140000243012012439
:1027200088D50024E8B90708D0050708DCD50024BF
:10273000D0640024EC0507080C06070830060708DB
:1027400080060708A4060708241401244B4B1B78B5
:10275000022B00F08D80494B1B78032B00F0888002
:10276000464B1B78042B00F08380444B1B78052BD1
:102770007ED0424B1B78062B7AD0404B1B78072B20
:1027800076D03E4B1B78082B72D03C4B1B78092B24
:102790006ED03A4B1B780A2B03D1394B01221A70A9
:1027A00066E0364B1B780B2B62D1364B01221A7038
:1027B0005EE0FB79022B5BD0334B1B6841F2883122
:1027C00018464CF0A4F9314931486BF09BF9304878
:1027D000FDF790FD03469CB22D48FDF78BFD0346A7
:1027E00022462B492B4848F03BF9274B1B681846DB
:1027F0004CF0D8F9244B1B6841F2883118464CF054
:1028000086F9FB79244A254921486BF07BF9204859
:10281000FDF770FD03469CB21D48FDF76BFD0346B6
:1028200022461B491B4848F01BF9174B1B681846EA
:102830004CF0B8F9144B1B6841F2883118464CF043
:1028400066F9124912486BF05DF91148FDF752FD27
:1028500003469CB20E48FDF74DFD034622460C4947
:102860000C4848F0FDF8084B1B6818464CF09AF9E4
:10287000024B1B7818460C37BD4690BD241401242A
:1028800004EE002405EE002488D50024E80607089D
:10289000DCD50024D0640024E8B907084407070801
:1028A00098B500AF7C4B1B6841F2883118464CF05C
:1028B0002EF97A497A486BF025F97948FDF71AFD27
:1028C00003469CB27648FDF715FD0346224674493F
:1028D000744848F0C5F8704B1B6818464CF062F914
:1028E000714B181D704B5B78033B99B2002300229B
:1028F000FFF750F8684B1B6841F2883118464CF0DE
:1029000006F9694B1B79694A694965486BF0FAF821
:102910006348FDF7EFFC03469CB26148FDF7EAFC13
:10292000034622465E495F4848F09AF85A4B1B68B6
:1029300018464CF037F9584B1B6841F2883118465D
:102940004CF0E5F8584B5B79584A5A4954486BF0BB
:10295000D9F85348FDF7CEFC03469CB25048FDF72A
:10296000C9FC034622464E494E4848F079F84A4B86
:102970001B6818464CF016F94B4B5B79032B00F2A1
:10298000A38001A252F823F099290008D929000850
:10299000192A0008592A00083F4B1B6841F2883168
:1029A00018464CF0B4F8414A43493D486BF0AAF848
:1029B0003B48FDF79FFC03469CB23948FDF79AFC63
:1029C000034622463649374848F04AF8324B1B68DE
:1029D00018464CF0E7F897E02F4B1B6841F288311E
:1029E00018464CF094F8314A34492D486BF08AF877
:1029F0002B48FDF77FFC03469CB22948FDF77AFC83
:102A0000034622462649274848F02AF8224B1B68ED
:102A100018464CF0C7F877E01F4B1B6841F288312D
:102A200018464CF074F8214A25491D486BF06AF8A5
:102A30001B48FDF75FFC03469CB21948FDF75AFCA2
:102A4000034622461649174848F00AF8124B1B68FD
:102A500018464CF0A7F857E00F4B1B6841F288313D
:102A600018464CF054F8114A16490D486BF04AF8D4
:102A70000B48FDF73FFC03469CB20948FDF73AFCC2
:102A8000034622460649074847F0EAFF024B1B6807
:102A900018464CF087F837E088D50024EC07070883
:102AA000DCD50024D0640024BC08012408BA07083F
:102AB0003008070870080708B0080708C8080708A2
:102AC000F40807082C090708B24B1B6841F288314B
:102AD00018464CF01CF8B04AB049B1486BF012F8F7
:102AE000AF48FDF707FC03469CB2AD48FDF702FC7A
:102AF00003462246AA49AB4847F0B2FFA54B1B68E4
:102B000018464CF04FF800BFA24B1B6841F28831C9
:102B100018464BF0FCFFA44B9B791B02A24AD279CA
:102B200013449D4AA1499E486AF0ECFF9C48FDF77A
:102B3000E1FB03469CB29A48FDF7DCFB03462246C4
:102B40009749984847F08CFF924B1B6818464CF009
:102B500029F8904B1B6841F2883118464BF0D7FF9B
:102B6000914B1B7A8C4A92498D486AF0CBFF8C4876
:102B7000FDF7C0FB03469CB28948FDF7BBFB03464B
:102B800022468749874847F06BFF824B1B681846EF
:102B90004CF008F87F4B1B6841F2883118464BF027
:102BA000B6FF814B5B7A7C4A82497D486AF0AAFF76
:102BB0007B48FDF79FFB03469CB27948FDF79AFBE3
:102BC000034622467649774847F04AFF714B1B6817
:102BD00018464BF0E7FF6F4B1B6841F288311846EF
:102BE0004BF095FF704B9B7A6B4A73496C486AF0C7
:102BF00089FF6B48FDF77EFB03469CB26848FDF7F2
:102C000079FB034622466649664847F029FF614B37
:102C10001B6818464BF0C6FF5E4B1B6841F28831BB
:102C200018464BF074FF604BDB7A5B4A63495C48A3
:102C30006AF068FF5A48FDF75DFB03469CB25848AE
:102C4000FDF758FB034622465549564847F008FF12
:102C5000504B1B6818464BF0A5FF4E4B1B6841F2CA
:102C6000883118464BF053FF4F4B1B7B4A4A54495F
:102C70004B486AF047FF4A48FDF73CFB03469CB2CD
:102C80004748FDF737FB034622464549454847F08C
:102C9000E7FE404B1B6818464BF084FF3D4B1B681A
:102CA00041F2883118464BF032FF3F4B5B7B3A4A8A
:102CB00044493B486AF026FF3948FDF71BFB0346B1
:102CC0009CB23748FDF716FB034622463449354887
:102CD00047F0C6FE2F4B1B6818464BF063FF2D4B89
:102CE0001B6841F2883118464BF011FF2E4B9B7B3D
:102CF000294A35492A486AF005FF2948FDF7FAFABA
:102D000003469CB22648FDF7F5FA034622462449BD
:102D1000244847F0A5FE1F4B1B6818464BF042FFA6
:102D20001C4B1B6841F2883118464BF0F0FE1E4BDD
:102D3000DB7B194A25491A486AF0E4FE1848FDF77A
:102D4000D9FA03469CB21648FDF7D4FA0346224648
:102D50001349144847F084FE0E4B1B6818464BF08D
:102D600021FF0C4B1B6841F2883118464BF0CFFE17
:102D70000D4B1B7C084A164909486AF0C3FE0848F7
:102D8000FDF7B8FA03469CB20548FDF7B3FA0346CF
:102D900022461FE088D5002408BA0708580907080A
:102DA000DCD50024D0640024BC080124880907086D
:102DB000C8090708080A0708480A0708880A070810
:102DC000C80A0708080B0708480B0708880B0708FC
:102DD000C80B0708A549A64847F042FEA54B1B684B
:102DE00018464BF0DFFEA34B1B6841F288311846B2
:102DF0004BF08DFEA04B5B7CA04AA1499B486AF03A
:102E000081FE9A48FDF776FA03469CB29748FDF793
:102E100071FA034622469549954847F021FE954BA5
:102E20001B6818464BF0BEFE924B1B6841F288317E
:102E300018464BF06CFE904B9B7C904A91498B4816
:102E40006AF060FE8948FDF755FA03469CB2874850
:102E5000FDF750FA034622468449854847F000FEB4
:102E6000844B1B6818464BF09DFE824B1B6841F259
:102E7000883118464BF04BFE7F4BDB7C7F4A824902
:102E80007A486AF03FFE7948FDF734FA03469CB26F
:102E90007648FDF72FFA034622467449744847F0F6
:102EA000DFFD744B1B6818464BF07CFE714B1B68B2
:102EB00041F2883118464BF02AFE6F4B1B7D6F4A5A
:102EC00072496A486AF01EFE6848FDF713FA034625
:102ED0009CB26648FDF70EFA0346224663496448F1
:102EE00047F0BEFD634B1B6818464BF05BFE614B21
:102EF0001B6841F2883118464BF009FE5E4B5B7D42
:102F00005E4A634959486AF0FDFD5848FDF7F2F9F9
:102F100003469CB25548FDF7EDF903462246534956
:102F2000534847F09DFD534B1B6818464BF03AFE43
:102F3000514B5B7D03F04003002B1ED04D4B1B68B3
:102F400041F2883118464BF0E2FD4C4A514947485E
:102F50006AF0D8FD4548FDF7CDF903469CB24348D9
:102F6000FDF7C8F9034622464049414847F078FD3D
:102F7000404B1B6818464BF015FE3F4B5B7D03F042
:102F80002003002B1ED03B4B1B6841F288311846B2
:102F90004BF0BDFD394A404934486AF0B3FD33482F
:102FA000FDF7A8F903469CB23048FDF7A3F90346A4
:102FB00022462E492E4847F053FD2E4B1B681846DB
:102FC0004BF0F0FD2C4B5B7D03F00703013B032B23
:102FD00000F2B48001A252F823F000BFED2F0008E8
:102FE0002D300008A5300008E5300008214B1B6893
:102FF00041F2883118464BF08AFD204A27491B4888
:103000006AF080FD1948FDF775F903469CB2174830
:10301000FDF770F9034622461449154847F020FD94
:10302000144B1B6818464BF0BDFDA7E0114B1B6805
:1030300041F2883118464BF06AFD104A18490B4896
:103040006AF060FD0948FDF755F903469CB2074850
:10305000FDF750F9034622460449054847F000FDB4
:10306000044B1B6818464BF09DFD87E0DCD500241F
:10307000D064002488D50024BC08012408BA0708BD
:10308000080C0708480C0708880C0708C80C070834
:10309000080D0708480D0708840D0708C00D07082C
:1030A000E00D07081F4B1B6841F2883118464BF0B2
:1030B0002EFD1D4A1D491E486AF024FD1C48FDF7DF
:1030C00019F903469CB21A48FDF714F90346224643
:1030D0001749184847F0C4FC124B1B6818464BF0C0
:1030E00061FD4BE00F4B1B6841F2883118464BF0F5
:1030F0000EFD0D4A10490E486AF004FD0C48FDF71C
:10310000F9F803469CB20A48FDF7F4F80346224654
:103110000749084847F0A4FC024B1B6818464BF0CF
:1031200041FD2BE088D5002408BA0708000E0708E7
:10313000DCD50024D0640024200E0708A34B1B68B4
:1031400041F2883118464BF0E2FCA14AA149A2485D
:103150006AF0D8FCA048FDF7CDF803469CB29E4823
:10316000FDF7C8F8034622469B499C4847F078FC87
:10317000964B1B6818464BF015FD00BF934B1B6820
:1031800041F2883118464BF0C2FC954B9B7D904A2A
:10319000944991486AF0B6FC8F48FDF7ABF80346B6
:1031A0009CB28D48FDF7A6F8034622468A498B4813
:1031B00047F056FC854B1B6818464BF0F3FC834BDD
:1031C0001B6841F2883118464BF0A1FC844BDB7D33
:1031D0007F4A854980486AF095FC7F48FDF78AF868
:1031E00003469CB27C48FDF785F8034622467A499F
:1031F0007A4847F035FC754B1B6818464BF0D2FCFB
:10320000724B1B6841F2883118464BF080FC744BBE
:103210001B7E6F4A754970486AF074FC6E48FDF772
:1032200069F803469CB26C48FDF764F803462246F1
:1032300069496A4847F014FC644B1B6818464BF018
:10324000B1FC624B1B6841F2883118464BF05FFCC1
:10325000634B5B7E5E4A66495F486AF053FC5E489A
:10326000FDF748F803469CB25B48FDF743F8034678
:1032700022465949594847F0F3FB544B1B681846FE
:103280004BF090FC514B1B6841F2883118464BF0D3
:103290003EFC534B9B7E4E4A56494F486AF032FCE7
:1032A0004D48FDF727F803469CB24B48FDF722F83E
:1032B000034622464849494847F0D2FB434B1B6826
:1032C00018464BF06FFC414B1B6841F288311846A1
:1032D0004BF01DFC424BDB7E3D4A47493E486AF0BD
:1032E00011FC3D48FDF706F803469CB23A48FDF74D
:1032F00001F8034622463849384847F0B1FB334BC2
:103300001B6818464BF04EFC304B1B6841F288316D
:1033100018464BF0FCFB324B1B7F2D4A37492E4899
:103320006AF0F0FB2C48FCF7E5FF03469CB22A4804
:10333000FCF7E0FF034622462749284847F090FB68
:10334000224B1B6818464BF02DFC204B1B6841F2AA
:10335000883118464BF0DBFB214B5B7F1C4A284928
:103360001D486AF0CFFB1C48FCF7C4FF03469CB223
:103370001948FCF7BFFF034622461749174847F094
:103380006FFB124B1B6818464BF00CFC0F4B1B6875
:1033900041F2883118464BF0BAFB1A490E486AF0E0
:1033A000B1FB0D48FCF7A6FF03469CB20A48FCF7A8
:1033B000A1FF034622460849084847F051FB034B4A
:1033C0001B6818464BF0EEFB00BF98BD88D5002463
:1033D00008BA0708440E0708DCD50024D06400248E
:1033E000BC0801248C0E0708CC0E07080C0F070838
:1033F0004C0F07088C0F0708CC0F07080C100708A4
:103400004C1007088C10070890B585B000AF034634
:103410003960FB710123FB73FB79042B6BD8FA79BC
:1034200048491346DB009B1ADB000B4408331B782A
:1034300063F03F03DAB23B681A70FA793B68591CB3
:1034400040481346DB009B1ADB00034409331B781A
:103450000B70FA793B68991C3A481346DB009B1ABB
:10346000DB0003440A331B780B70FA7935491346A5
:10347000DB009B1ADB000B440B331A783B680333E9
:1034800022F00102D2B21A70FA792E491346DB00FB
:103490009B1ADB000B440C331A783B68043362F050
:1034A0003F02D2B21A70FA793B68591D254813467B
:1034B000DB009B1ADB0003440D331B780B70FA7999
:1034C0003B68991D1F481346DB009B1ADB00034431
:1034D0000E331B780B70FA791A491346DB009B1ADE
:1034E000DB000B440F331A783B68073322F00102EC
:1034F000D2B21A7021E0144B1B6841F28831184691
:103500004BF005FBFB79114A114912486AF0FAFAAF
:103510001048FCF7EFFE03469CB20E48FCF7EAFEAB
:10352000034622460B490C4847F09AFA064B1B68A3
:1035300018464BF037FB0023FB73FB7B1846143710
:10354000BD4690BD3012012488D5002420BA07085A
:10355000D0100708DCD50024D064002490B583B0D7
:1035600000AFFF23FB7100237B7141E00123BB719E
:1035700000233B7110E07A79397921481346DB004A
:103580009B1ADB0003440B441B78002B01D0002363
:10359000BB713B7901333B713B790F2BEBD9BB7985
:1035A000002B22D0174B1B6841F2883118464BF094
:1035B000AEFA7B79144A154915486AF0A3FA144803
:1035C000FCF798FE03469CB21148FCF793FE0346B5
:1035D00022460F490F4847F043FA0A4B1B6818462A
:1035E0004BF0E0FA7B79FB7105E07B7901337B716D
:1035F0007B79042BBAD9FB7918460C37BD4690BDB0
:103600003012012488D5002440BA07082411070885
:10361000DCD50024D064002480B483B000AF002344
:10362000FB7100233B6026E018493A681346DB0033
:103630009B1ADB000B4414331B78002B18D0134962
:103640003A681346DB009B1ADB000B4414331B78EB
:10365000012B0DD00D493A681346DB009B1ADB00A5
:103660000B4414331B78062B02D00123FB7105E0B9
:103670003B6801333B603B68042BD5DDFB79184682
:103680000C37BD465DF8047B704700BF3012012443
:1036900090B585B000AF0346FB71FB79042B19D8B8
:1036A0000123FB730023BB7310E0FA79B97B1D483B
:1036B0001346DB009B1ADB0003440B441B78002BF2
:1036C00001D00023FB73BB7B0133BB73BB7B0F2B90
:1036D000EBD921E0144B1B6841F2883118464BF0BE
:1036E00016FAFB79114A124912486AF00BFA11488E
:1036F000FCF700FE03469CB20E48FCF7FBFD0346B8
:1037000022460C490C4847F0ABF9074B1B6818469A
:103710004BF048FA0023FB73FB7B18461437BD4679
:1037200090BD00BF3012012488D5002458BA070884
:1037300040110708DCD50024D064002490B58BB07C
:1037400000AF7860012387F82730AF4B1B6841F248
:10375000883118464BF0DBF97B68AC4AAC49AD4880
:103760006AF0D0F9AB48FCF7C5FD03469CB2A94806
:10377000FCF7C0FD03462246A649A74847F070F96A
:10378000A14B1B6818464BF00DFA7868FCF7B2FDA8
:1037900003462F2B25D09C4B1B6841F288311846DD
:1037A0004BF0B5F97868FCF7A5FD0346974A9B49AD
:1037B00098486AF0A7F99748FCF79CFD03469CB22D
:1037C0009448FCF797FD034622469249924847F0F9
:1037D00047F98D4B1B6818464BF0E4F9002387F836
:1037E00027300023BB6176E0BB69052B11D0BB6994
:1037F0000B2B0ED0BB69112B0BD0BB69172B08D03C
:10380000BB691D2B05D0BB69232B02D0BB69292BBB
:103810002FD1BB697A6813441B780133804A134463
:103820001B7803F00403002B52D0774B1B6841F246
:10383000883118464BF06BF9BB69744A7949754871
:103840006AF060F97348FCF755FD03469CB2714875
:10385000FCF750FD034622466E496F4847F000F9D9
:10386000694B1B6818464BF09DF9002387F82730F9
:103870002EE0BB697A6813441B780133684A13440D
:103880001B7803F00403002B22D15F4B1B6841F22D
:10389000883118464BF03BF9BB695C4A62495D4888
:1038A0006AF030F95B48FCF725FD03469CB25948A5
:1038B000FCF720FD034622465649574847F0D0F80A
:1038C000514B1B6818464BF06DF9002387F82730E1
:1038D000BB690133BB61BB692E2B85DD7B683B6215
:1038E0000023FB7741E007F10C0306220021184674
:1038F0006AF06FF907F10C030522396A18466BF07C
:1039000034F807F10C03184669F0D2FE03467B61D8
:103910007B69B3F5803F22D33B4B1B6841F2883172
:1039200018464BF0F4F87B69384A404939486AF048
:10393000E9F83848FCF7DEFC03469CB23548FCF752
:10394000D9FC034622463349334847F089F82E4BC9
:103950001B6818464BF026F9002387F827303B6A8E
:1039600006333B62FB7F0233FB77FB7F0F2BBAD919
:1039700097F82730002B20D0234B1B6841F2883169
:1039800018464BF0C4F87B68204A294921486AF060
:10399000B9F82048FCF7AEFC03469CB21D48FCF782
:1039A000A9FC034622461B491B4847F059F8164B11
:1039B0001B6818464BF0F6F81FE0134B1B6841F2EA
:1039C000883118464BF0A3F87B68104A1949114812
:1039D0006AF098F80F48FCF78DFC03469CB20D483E
:1039E000FCF788FC034622460A490B4847F038F8A2
:1039F000054B1B6818464BF0D5F897F8273018464A
:103A00002C37BD4690BD00BF88D5002470BA07088A
:103A100088110708DCD50024D0640024A011070811
:103A200058F40708E41107082C1207087012070859
:103A3000A4120708BC12070890B585B000AF034672
:103A40003960FB71FB79042B36D8FA792C4913467F
:103A5000DB009B1ADB000B44103301221A70002399
:103A6000FB6011E0FB683A681344FA79187824493E
:103A70001346DB009B1ADB00CA18FB68134402469E
:103A80001A70FB680133FB60FB680F2BEADDFA79E3
:103A90001B491346DB009B1ADB000B441333002247
:103AA0001A70FA7916491346DB009B1ADB000B44A7
:103AB000143301221A701FE0124B1B6841F2883147
:103AC00018464BF024F8FB790F4A104910486AF069
:103AD00019F80F48FCF70EFC03469CB20C48FCF7A3
:103AE00009FC034622460A490A4846F0B9FF054B3D
:103AF0001B6818464BF056F800BF1437BD4690BD02
:103B00003012012488D500248CBA0708F412070863
:103B1000DCD50024D064002490B58DB000AF0346FE
:103B20003960FB71012387F82F30012387F82E308D
:103B3000FB79042B22D9654B1B6841F2883118466A
:103B40004AF0E5FFFB79624A6249634869F0DAFFAF
:103B50006148FCF7CFFB03469CB25F48FCF7CAFB09
:103B6000034622465C495D4846F07AFF574B1B6886
:103B700018464BF017F8002387F82F303868FFF706
:103B8000DDFD034687F82E3097F82F30002B03D049
:103B900097F82E3087F82F303B68BB62002387F8F8
:103BA000273097F82E30002B5AD055E007F1080344
:103BB0000622002118466AF00CF807F108030522D6
:103BC000B96A18466AF0D1FE07F10803184669F091
:103BD0006FFD03463B623B6AB3F5803F22D33B4B0C
:103BE0001B6841F2883118464AF091FF3B6A384A17
:103BF0003B49394869F086FF3748FCF77BFB0346B1
:103C00009CB23548FCF776FB0346224632493348DE
:103C100046F026FF2D4B1B6818464AF0C3FF0023D1
:103C200087F82E303B6A1A0A97F82730D2B2303321
:103C30003B4403F8202C97F8273001333A6AD2B27C
:103C400030333B4403F8202CBB6A0633BB6297F841
:103C50002730023387F8273097F827300F2BA5D964
:103C600097F82F30002B0BD097F82E30002B07D071
:103C700007F11002FB7911461846FFF7DDFE1EE042
:103C8000124B1B6841F2883118464AF040FF104A37
:103C90001449114869F036FF0F48FCF72BFB034627
:103CA0009CB20D48FCF726FB034622460A490B4806
:103CB00046F0D6FE054B1B6818464AF073FF97F88E
:103CC0002F3018463437BD4690BD00BF88D500243C
:103CD0009CBA070834130708DCD50024D0640024FC
:103CE000701207086013070890B585B000AF03464F
:103CF0003960FB713C220021294869F06AFF0023EA
:103D0000FB603CE0FA7927491346DB009B1ADB0095
:103D1000CA18FB6813441B781B0299B2FA79FB6836
:103D2000581C204C1346DB009B1ADB002344034441
:103D30001B780B449AB21C4B1A800A2200211B48A4
:103D400069F047FF184B1B881A461949174869F054
:103D5000D9FE1649124869F044FFFB680D2B0BDCB5
:103D60000F48FCF7C7FA03461A460D4B1344114996
:103D70001A460B461B881380FB680233FB60FB6806
:103D80000F2BBFDD0648FCF7B5FA03461A46044977
:103D900038686AF0EAFD00BF1437BD4690BD00BF29
:103DA0007814012430120124B4140124B81401241D
:103DB0008C1307089413070890B583B000AF03462F
:103DC000FB71FB79042B76D84D4B1B6841F288318F
:103DD00018464AF09CFEFB794A4A4B494B4869F029
:103DE00091FE4A48FCF786FA03469CB24748FCF726
:103DF00081FA034622464549454846F031FE404B8C
:103E00001B6818464AF0CEFEFA7942491346DB0099
:103E10009B1ADB000B44103300221A70FA79134608
:103E2000DB009B1ADB003B4A13441022002118469A
:103E300069F0CFFEFA7937491346DB009B1ADB00A5
:103E40000B44113300221A70FA7932491346DB0011
:103E50009B1ADB000B44123300221A70FA792D49A9
:103E60001346DB009B1ADB000B44133301221A704C
:103E7000FA7928491346DB009B1ADB000B44143304
:103E800000221A70FA7923491346DB009B1ADB00E3
:103E90000B4416334FF6FF721A80FA791346DB0093
:103EA0009B1ADB0018331B4A1344202200211846BA
:103EB00069F08FFE1FE0124B1B6841F288311846F3
:103EC0004AF025FEFB790F4A1349104869F01AFEA3
:103ED0000E48FCF70FFA03469CB20C48FCF70AFAAE
:103EE0000346224609490A4846F0BAFD044B1B68BE
:103EF00018464AF057FE00BF0C37BD4690BD00BFC4
:103F000088D50024B8BA070898130708DCD5002420
:103F1000D064002430120124B013070890B587B094
:103F200002AF03463960FB711346BB71594B9B7856
:103F30001F2B00F28880574B9B781D2B24D9564BA2
:103F40001B6841F2883118464AF0E1FD514B9B78DD
:103F50001A46202300931346504A5149514869F0AC
:103F6000D1FD5048FCF7C6F903469CB24D48FCF71A
:103F7000C1F9034622464B494B4846F071FD464B7A
:103F80001B6818464AF00EFE434B1B6841F288310D
:103F900018464AF0BCFDFB79404A4449414869F063
:103FA000B1FD4048FCF7A6F903469CB23D48FCF73A
:103FB000A1F9034622463B493B4846F051FD364BAA
:103FC0001B6818464AF0EEFD324B9B780133DAB29B
:103FD000304B9A702F4B5B7819462E4AAA2301FB6F
:103FE00003F313440333FA791A70BB79A82B01D970
:103FF000A823BB71274B5B781946264AAA2301FBED
:1040000003F313440433BA791A70224B5B781A46CF
:10401000AA2302FB03F31F4A13440533BA79396814
:1040200018466AF0A2FC1B4B5B780133DAB2194BDD
:104030005A70184B5B781F2B02D9164B00225A700E
:104040000123FB7321E0144B1B6841F288311846B1
:104050004AF05DFDFB79114A1549124869F052FD9D
:104060001048FCF747F903469CB20E48FCF742F9AA
:10407000034622460B490C4846F0F2FC064B1B68EF
:1040800018464AF08FFD0023FB73FB7B184614375C
:10409000BD4690BD10EE002488D50024CCBA070898
:1040A000F4130708DCD50024D06400244814070862
:1040B0007414070890B587B002AF03463960FB71EE
:1040C0001346BB71594B9B78072B00F28880574BE6
:1040D0009B78052B24D9564B1B6841F28831184632
:1040E0004AF015FD514B9B781A460823009313465E
:1040F000504A5149514869F005FD5048FCF7FAF81B
:1041000003469CB24D48FCF7F5F8034622464B495E
:104110004B4846F0A5FC464B1B6818464AF042FD4A
:10412000434B1B6841F2883118464AF0F0FCFB799A
:10413000404A4449414869F0E5FC4048FCF7DAF858
:1041400003469CB23D48FCF7D5F8034622463B495E
:104150003B4846F085FC364B1B6818464AF022FD6A
:10416000324B9B780133DAB2304B9A702F4B5B782D
:1041700019462E4AAA2301FB03F313440333FA79A9
:104180001A70BB79A82B01D9A823BB71274B5B7888
:104190001946264AAA2301FB03F313440433BA79D0
:1041A0001A70224B5B781A46AA2302FB03F31F4ABC
:1041B00013440533BA79396818466AF0D6FB1B4BAD
:1041C0005B780133DAB2194B5A70184B5B78072BC6
:1041D00002D9164B00225A700123FB7321E0144BC5
:1041E0001B6841F2883118464AF091FCFB79114A6C
:1041F0001549124869F086FC1048FCF77BF8034625
:104200009CB20E48FCF776F8034622460B490C4850
:1042100046F026FC064B1B6818464AF0C3FC0023F8
:10422000FB73FB7B18461437BD4690BD5403012435
:1042300088D50024E4BA0708BC140708DCD500249C
:10424000D0640024101507083C15070890B585B008
:1042500000AF03460A46FB711346BB71974B1B68C0
:1042600041F2883118464AF052FCFB79944A95494C
:10427000954869F047FC9448FCF73CF803469CB22B
:104280009148FCF737F8034622468F498F4846F09D
:10429000E7FB8A4B1B6818464AF084FC8C4B0022D3
:1042A0001A728B4B0022DA60894B002283F8C820F7
:1042B000884B00221A70884B18221A70BB79002B89
:1042C0001BD0864B0133854A52781946FF200EF0E9
:1042D00019FB0346FB73FA79FB7B9A4201D1012259
:1042E00000E003227B4B1A70FA79FB7B9A4201D1E2
:1042F000062200E01522784B1A70704B1B6841F2C1
:10430000883118464AF003FC75496F4869F0FAFB9A
:104310006D48FBF7EFFF03469CB26B48FBF7EAFFE3
:10432000034622466849694846F09AFB634B1B687E
:1043300018464AF037FC664BDB7C19460023002206
:104340006648FDF727FB5D4B1B6841F28831184634
:104350004AF0DDFB63495C4869F0D4FB5A48FBF73F
:10436000C9FF03469CB25848FBF7C4FF03462246E8
:104370005549564846F074FB504B1B6818464AF0A6
:1043800011FC534B00221A74012301225249564852
:1043900046F066FB504B1B78182B46D0182B64DC7C
:1043A000062B02D0152B20D05FE0444B1B6841F256
:1043B000883118464AF0ABFB414A4C49424869F003
:1043C000A1FB4148FBF796FF03469CB23E48FBF732
:1043D00091FF034622463C493C4846F041FB374B9F
:1043E0001B6818464AF0DEFB61E0344B1B6841F263
:1043F000883118464AF08BFB314A3D49324869F012
:1044000081FB3148FBF776FF03469CB22E48FBF751
:1044100071FF034622462C492C4846F021FB274BCE
:104420001B6818464AF0BEFB41E0244B1B6841F272
:10443000883118464AF06BFB214A2E49224869F020
:1044400061FB2148FBF756FF03469CB21E48FBF771
:1044500051FF034622461C491C4846F001FB174BFE
:104460001B6818464AF09EFB21E0144B1B6841F282
:10447000883118464AF04BFB174B1B78104A1E49EF
:10448000114869F03FFB1048FBF734FF03469CB22C
:104490000D48FBF72FFF034622460B490B4846F019
:1044A000DFFA064B1B6818464AF07CFB00BF094B3D
:1044B0001B7818461437BD4690BD00BF88D5002430
:1044C00008BB070880150708DCD50024D064002449
:1044D000A8080124C2140124C3140124BC08012427
:1044E000A015070800160708646500246016070871
:1044F0009C160708EC1607086417070880B483B0F9
:1045000000AF0346FB71144BDB7C1A46124B13447D
:10451000FA791A75104BDB7C0133DAB20E4BDA7480
:104520000E4B5B78032B0AD90C4B5B78033BDAB25A
:10453000094B83F8C920084B04221A7406E0064B85
:10454000012283F8C920044B05221A7400BF0C37DE
:10455000BD465DF8047B7047A8080124BC0801240F
:1045600080B483B000AF0346FB71144B93F8C9309D
:10457000013BDAB2114B83F8C920104BDB7C1A46A1
:104580000E4B1344FA791A750C4BDB7C0133DAB20B
:104590000A4BDA74094BDB7CB32B05D8074BDA7C6A
:1045A000074B5B789A4202D9044B05221A7400BF6C
:1045B0000C37BD465DF8047B704700BFA808012496
:1045C000BC08012498B500AF194B1B6841F2883133
:1045D00018464AF09CFA174A1749184869F092FAA7
:1045E0001648FBF787FE03469CB21448FBF782FE91
:1045F000034622461149124846F032FA0C4B1B681A
:1046000018464AF0CFFA0F4B00221A740D4B0022C5
:1046100083F8C8200B4B00221A700A4B00221A7232
:10462000084B00225A60074B0022DA6000BF98BD99
:1046300088D5002420BB0708AC170708DCD5002468
:10464000D0640024A808012490B583B000AF0346CD
:10465000FB71FB79022B02D9FB79B42B2DD9214BAD
:104660001B6841F2883118464AF051FAFB791E4A1C
:104670001E491F4869F046FA1D48FBF73BFE0346FA
:104680009CB21B48FBF736FE0346224618491948E0
:1046900046F0E6F9134B1B6818464AF083FA164BAE
:1046A00000221A74144B002283F8C820124B0022F7
:1046B0001A72114B0022DA6010E00F4B02221A74BA
:1046C0000D4BDB7C1A460C4B1344FA791A750A4BD6
:1046D000DB7C0133DAB2084BDA7400BF00BF0C3761
:1046E000BD4690BD88D5002438BB0708C817070809
:1046F000DCD50024D0640024A808012490B585B03E
:1047000002AF0346FB719F4B00221A70FB79012B0D
:1047100039D19D4B1B6841F2883118464AF0F7F9B0
:104720009A4A9B499B4869F0EDF99A48FBF7E2FDEC
:1047300003469CB29748FBF7DDFD034622469549A8
:10474000954846F08DF9904B1B6818464AF02AFAB6
:10475000924B01221A74914B0022DA748F4B012282
:1047600083F8C8208D4BDB7C1A468C4B1344FA79B6
:104770001A758A4BDB7C0133DAB2884BDA74874BCB
:1047800000221A72F9E1854B9B7C002B00F03781E7
:10479000FB79062B02D0FB79152B0ED17F4B002223
:1047A0009A747E4B00221A707C4B00221A727B4B4B
:1047B00000225A60794B0022DA60FB79062B22D165
:1047C000714B1B6841F2883118464AF0A0F96F4AD4
:1047D0007349704869F096F96E48FBF78BFD034604
:1047E0009CB26C48FBF786FD0346224669496A483D
:1047F00046F036F9644B1B6818464AF0D3F9614B12
:1048000002221A70B9E1FB79152B22D15E4B1B688D
:1048100041F2883118464AF07AF95C4A61495D48AC
:1048200069F070F95B48FBF765FD03469CB2594897
:10483000FBF760FD034622465649574846F010F9FB
:10484000514B1B6818464AF0ADF94E4B05221A70C1
:1048500093E1FB790133544A13441B7803F0970327
:10486000002B23D0484B1B6841F2883118464AF090
:104870004EF9FA79FB7900931346444A4B4945486F
:1048800069F040F94348FBF735FD03469CB24148C7
:10489000FBF730FD034622463E493F4846F0E0F82C
:1048A000394B1B6818464AF07DF966E1FB79182BF5
:1048B00047D0182B00F38280062B02D0152B20D076
:1048C0007CE0314B1B6841F2883118464AF01FF9F1
:1048D0002E4A37492F4869F015F92E48FBF70AFD93
:1048E00003469CB22B48FBF705FD034622462949A7
:1048F000294846F0B5F8244B1B6818464AF052F98F
:104900003BE1214B1B6841F2883118464AF0FFF821
:104910001E4A28491F4869F0F5F81E48FBF7EAFCD3
:1049200003469CB21B48FBF7E5FC034622461949A7
:10493000194846F095F8144B1B6818464AF032F9AE
:104940001BE1114B1B6841F2883118464AF0DFF831
:104950000E4A19490F4869F0D5F80E48FBF7CAFC12
:1049600003469CB20B48FBF7C5FC034622460949A7
:10497000094846F075F8044B1B6818464AF012F9CE
:10498000FBE000BFC414012488D500244CBB0708F9
:10499000FC170708DCD50024D0640024A8080124F3
:1049A000141807082C18070858F4070844180708B3
:1049B0007418070898180708BC180708724B1B687A
:1049C00041F2883118464AF0A2F8FB796F4A7049E3
:1049D000704869F097F86F48FBF78CFC03469CB26F
:1049E0006C48FBF787FC034622466A496A4846F052
:1049F00037F8654B1B6818464AF0D4F8BDE0FB79E0
:104A00000133664A13441B7803F09703002B23D02D
:104A10005D4B1B6841F2883118464AF078F8FA7904
:104A2000FB7900931346594A5D495A4869F06AF880
:104A30005848FBF75FFC03469CB25648FBF75AFC0C
:104A4000034622465349544846F00AF84E4B1B6829
:104A500018464AF0A7F88AE0FB79182B46D0182BA5
:104A600064DC062B02D0152B20D05FE0464B1B6880
:104A700041F2883118464AF04AF8444A49494548C3
:104A800069F040F84348FBF735FC03469CB24148C7
:104A9000FBF730FC034622463E493F4845F0E0FF25
:104AA000394B1B6818464AF07DF860E0364B1B68AE
:104AB00041F2883118464AF02AF8344A3A493548D2
:104AC00069F020F83348FBF715FC03469CB23148E7
:104AD000FBF710FC034622462E492F4845F0C0FF45
:104AE000294B1B6818464AF05DF840E0264B1B68CE
:104AF00041F2883118464AF00AF8244A2B492548E1
:104B000069F000F82348FBF7F5FB03469CB2214807
:104B1000FBF7F0FB034622461E491F4845F0A0FF65
:104B2000194B1B6818464AF03DF820E0164B1B68ED
:104B300041F28831184649F0EAFFFB79134A1449DB
:104B4000144868F0DFFF1348FBF7D4FB03469CB220
:104B50001048FBF7CFFB034622460E490E4845F0AE
:104B60007FFF094B1B6818464AF01CF800BF104B2A
:104B700000221A700E4B00225A600E4B1B7818460A
:104B80000C37BD4690BD00BF88D500244CBB07083C
:104B9000E0180708DCD50024D064002458F4070886
:104BA000441807087418070898180708BC1807085D
:104BB000A8080124C414012490B583B000AF0346B3
:104BC000FB71FB79012B4CD9514B1B6841F28831A9
:104BD000184649F09CFFFB794E4A4F494F4868F010
:104BE00091FF4E48FBF786FB03469CB24B48FBF710
:104BF00081FB034622464949494845F031FF444B71
:104C00001B68184649F0CEFF414B1B6841F28831C2
:104C1000184649F07CFF3F4A4249404868F072FF1D
:104C20003E48FBF767FB03469CB23C48FBF762FB40
:104C30000346224639493A4845F012FF344B1B6877
:104C4000184649F0AFFF384B00221A74364B002249
:104C500083F8C820344B00221A72334B0022DA60EA
:104C600051E0FB79002B1FD1294B1B6841F28831A1
:104C7000184649F04CFF274A2C49284868F042FF63
:104C80002648FBF737FB03469CB22448FBF732FB70
:104C9000034622462149224845F0E2FE1C4B1B6890
:104CA000184649F07FFF1EE0194B1B6841F288311E
:104CB000184649F02CFF174A1D49184868F022FF92
:104CC0001648FBF717FB03469CB21448FBF712FB90
:104CD000034622461149124845F0C2FE0C4B1B68A0
:104CE000184649F05FFF104B03221A740E4BDB7C11
:104CF0001A460D4B1344FA791A750B4BDB7C0133C2
:104D0000DAB2094BDA7400BF0C37BD4690BD00BF64
:104D100088D5002460BB07080C190708DCD50024DF
:104D2000D064002468190708A8080124901907080E
:104D3000B019070890B583B000AF0346FB71FB794B
:104D4000013B032B00F28C8001A252F823F000BF3C
:104D5000614D0008214E0008E14D0008A14D0008FA
:104D6000524B1B6841F28831184649F0D0FE504A38
:104D70005049514868F0C6FE4F48FBF7BBFA03465E
:104D80009CB24D48FBF7B6FA034622464A494B48C7
:104D900045F066FE454B1B68184649F003FF80E06E
:104DA000424B1B6841F28831184649F0B0FE404A38
:104DB0004349414868F0A6FE3F48FBF79BFA03468B
:104DC0009CB23D48FBF796FA034622463A493B48D7
:104DD00045F046FE354B1B68184649F0E3FE60E09F
:104DE000324B1B6841F28831184649F090FE304A38
:104DF0003449314868F086FE2F48FBF77BFA0346BA
:104E00009CB22D48FBF776FA034622462A492B48E6
:104E100045F026FE254B1B68184649F0C3FE40E0CE
:104E2000224B1B6841F28831184649F070FE204A37
:104E30002549214868F066FE1F48FBF75BFA0346E8
:104E40009CB21D48FBF756FA034622461A491B48F6
:104E500045F006FE154B1B68184649F0A3FE20E0FE
:104E6000124B1B6841F28831184649F050FEFB791D
:104E70000F4A1649104868F045FE0F48FBF73AFA0A
:104E800003469CB20C48FBF735FA034622460A4912
:104E90000A4845F0E5FD054B1B68184649F082FEBF
:104EA00000BF00BF0C37BD4690BD00BF88D50024B1
:104EB00074BB0708D0190708DCD50024D06400248F
:104EC000F8190708301A0708501A0708781A07084F
:104ED00090B583B000AF0346FB71FB79A12B00F3C3
:104EE0004D81002B40F3CA84013BA02B00F2C68405
:104EF00001A252F823F000BF4552000801550008F6
:104F000085510008C5510008BD570008FD5700082D
:104F10003D58000841560008C15600087D58000859
:104F20007D5800087D5800087D5800087D5800080D
:104F3000455300084155000881550008C155000837
:104F4000015600087D5800080157000881560008E6
:104F5000855300087D5700087D5800087D580008DB
:104F60007D5800087D5800087D5800087D580008CD
:104F70007D58000881540008C15400087D5800087D
:104F80007D5800087D5800087D5800087D580008AD
:104F90007D5800087D5800087D5800087D5800089D
:104FA0007D5800087D5800087D5800087D5800088D
:104FB0007D580008C5520008855200087D58000839
:104FC0007D5800087D5800087D5800087D5800086D
:104FD0007D5800087D5800087D5800087D5800085D
:104FE0007D5800087D5800087D5800087D5800084D
:104FF0007D580008055200087D5800087D580008BB
:105000007D5800087D5800087D5800087D5800082C
:105010007D5800087D5800087D5800087D5800081C
:105020007D5800087D5800087D5800087D5800080C
:105030007D580008C55300087D5800087D580008B9
:105040007D5800087D5800087D5800087D580008EC
:105050007D5800087D5800087D5800087D580008DC
:105060007D5800087D5800087D5800087D580008CC
:105070007D5800087D5800087D5800087D580008BC
:105080007D5800087D5800087D5800087D580008AC
:105090007D5800087D5800087D5800087D5800089C
:1050A0007D5800087D5800087D5800087D5800088C
:1050B0007D5800087D5800087D5800087D5800087C
:1050C0007D5800087D5800087D5800087D5800086C
:1050D0007D5800087D5800087D5800087D5800085C
:1050E0007D5800087D5800087D5800087D5800084C
:1050F0007D5800087D5800087D5800087D5800083C
:105100007D5800087D5800087D5800087D5800082B
:105110007D5800087D5800087D5800087D5800081B
:105120007D5800087D5800087D5800087D5800080B
:105130007D5800087D5800087D5800087D580008FB
:105140007D5800087D5800087D5800087D580008EB
:105150007D5800087D5800087D5800087D580008DB
:105160007D5800087D5800087D5800087D580008CB
:105170007D5800087D58000805540008FF2B00F0FA
:10518000C1807BE3AF4B1B6841F28831184649F080
:10519000BEFCAD4AAD49AE4868F0B4FCAC48FBF784
:1051A000A9F803469CB2AA48FBF7A4F80346224696
:1051B000A749A84845F054FCA24B1B68184649F083
:1051C000F1FC7CE39F4B1B6841F28831184649F0A3
:1051D0009EFC9D4AA0499E4868F094FC9C48FBF7C1
:1051E00089F803469CB29A48FBF784F803462246A6
:1051F0009749984845F034FC924B1B68184649F093
:10520000D1FC5CE38F4B1B6841F28831184649F0B2
:105210007EFC8D4A91498E4868F074FC8C48FBF7FF
:1052200069F803469CB28A48FBF764F803462246B5
:105230008749884845F014FC824B1B68184649F0A2
:10524000B1FC3CE37F4B1B6841F28831184649F0C2
:105250005EFC7D4A82497E4868F054FC7C48FBF73E
:1052600049F803469CB27A48FBF744F803462246C5
:105270007749784845F0F4FB724B1B68184649F0B3
:1052800091FC1CE36F4B1B6841F28831184649F0D2
:105290003EFC6D4A73496E4868F034FC6C48FBF77D
:1052A00029F803469CB26A48FBF724F803462246D5
:1052B0006749684845F0D4FB624B1B68184649F0C3
:1052C00071FCFCE25F4B1B6841F28831184649F0E3
:1052D0001EFC5D4A64495E4868F014FC5C48FBF7BC
:1052E00009F803469CB25A48FBF704F803462246E5
:1052F0005749584845F0B4FB524B1B68184649F0D3
:1053000051FCDCE24F4B1B6841F28831184649F0F2
:10531000FEFB4D4A55494E4868F0F4FB4C48FAF7FD
:10532000E9FF03469CB24A48FAF7E4FF03462246E7
:105330004749484845F094FB424B1B68184649F0E2
:1053400031FCBCE23F4B1B6841F28831184649F002
:10535000DEFB3D4A46493E4868F0D4FB3C48FAF73C
:10536000C9FF03469CB23A48FAF7C4FF03462246F7
:105370003749384845F074FB324B1B68184649F0F2
:1053800011FC9CE22F4B1B6841F28831184649F012
:10539000BEFB2D4A37492E4868F0B4FB2C48FAF77B
:1053A000A9FF03469CB22A48FAF7A4FF0346224607
:1053B0002749284845F054FB224B1B68184649F002
:1053C000F1FB7CE21F4B1B6841F28831184649F023
:1053D0009EFB1D4A28491E4868F094FB1C48FAF7BA
:1053E00089FF03469CB21A48FAF784FF0346224617
:1053F0001749184845F034FB124B1B68184649F012
:10540000D1FB5CE20F4B1B6841F28831184649F032
:105410007EFB0D4A19490E4868F074FB0C48FAF7F8
:1054200069FF03469CB20A48FAF764FF0346224626
:105430000749084845F014FB024B1B68184649F021
:10544000B1FB3CE288D5002498BB0708B41A0708D2
:10545000DCD50024D0640024D01A0708E41A070819
:10546000FC1A0708181B0708281B0708401B070819
:105470005C1B0708781B0708901B0708AC1B070874
:10548000AF4B1B6841F28831184649F040FBAD4AEA
:10549000AD49AE4868F036FBAC48FAF72BFF03463F
:1054A0009CB2AA48FAF726FF03462246A749A84815
:1054B00045F0D6FAA24B1B68184649F073FBFEE193
:1054C0009F4B1B6841F28831184649F020FB9D4AEA
:1054D000A0499E4868F016FB9C48FAF70BFF03466C
:1054E0009CB29A48FAF706FF034622469749984825
:1054F00045F0B6FA924B1B68184649F053FBDEE1C3
:105500008F4B1B6841F28831184649F000FB8D4AE9
:1055100091498E4868F0F6FA8C48FAF7EBFE03469C
:105520009CB28A48FAF7E6FE034622468749884835
:1055300045F096FA824B1B68184649F033FBBEE1F2
:105540007F4B1B6841F28831184649F0E0FA7D4AEA
:1055500082497E4868F0D6FA7C48FAF7CBFE0346CB
:105560009CB27A48FAF7C6FE034622467749784845
:1055700045F076FA724B1B68184649F013FB9EE122
:105580006F4B1B6841F28831184649F0C0FA6D4AEA
:1055900073496E4868F0B6FA6C48FAF7ABFE0346FA
:1055A0009CB26A48FAF7A6FE034622466749684855
:1055B00045F056FA624B1B68184649F0F3FA7EE153
:1055C0005F4B1B6841F28831184649F0A0FA5D4AEA
:1055D00064495E4868F096FA5C48FAF78BFE034629
:1055E0009CB25A48FAF786FE034622465749584865
:1055F00045F036FA524B1B68184649F0D3FA5EE183
:105600004F4B1B6841F28831184649F080FA4D4AE9
:1056100055494E4868F076FA4C48FAF76BFE034657
:105620009CB24A48FAF766FE034622464749484874
:1056300045F016FA424B1B68184649F0B3FA3EE1B2
:105640003F4B1B6841F28831184649F060FA3D4AE9
:1056500046493E4868F056FA3C48FAF74BFE034686
:105660009CB23A48FAF746FE034622463749384884
:1056700045F0F6F9324B1B68184649F093FA1EE1E3
:105680002F4B1B6841F28831184649F040FA2D4AE9
:1056900037492E4868F036FA2C48FAF72BFE0346B5
:1056A0009CB22A48FAF726FE034622462749284894
:1056B00045F0D6F9224B1B68184649F073FAFEE014
:1056C0001F4B1B6841F28831184649F020FA1D4AE9
:1056D00028491E4868F016FA1C48FAF70BFE0346E4
:1056E0009CB21A48FAF706FE0346224617491848A4
:1056F00045F0B6F9124B1B68184649F053FADEE044
:105700000F4B1B6841F28831184649F000FA0D4AE8
:1057100019490E4868F0F6F90C48FAF7EBFD034614
:105720009CB20A48FAF7E6FD0346224607490848B4
:1057300045F096F9024B1B68184649F033FABEE073
:1057400088D5002498BB0708C41B0708DCD50024B3
:10575000D0640024DC1B0708F81B0708141C07088A
:105760002C1C0708481C0708601C0708781C070841
:105770008C1C0708A41C0708C01C0708524B1B6898
:1057800041F28831184649F0C2F9504A504951480F
:1057900068F0B8F94F48FAF7ADFD03469CB24D48A2
:1057A000FAF7A8FD034622464A494B4845F058F906
:1057B000454B1B68184649F0F5F980E0424B1B68E1
:1057C00041F28831184649F0A2F9404A434941481C
:1057D00068F098F93F48FAF78DFD03469CB23D48C2
:1057E000FAF788FD034622463A493B4845F038F926
:1057F000354B1B68184649F0D5F960E0324B1B6801
:1058000041F28831184649F082F9304A344931482A
:1058100068F078F92F48FAF76DFD03469CB22D48E1
:10582000FAF768FD034622462A492B4845F018F945
:10583000254B1B68184649F0B5F940E0224B1B6820
:1058400041F28831184649F062F9204A2549214839
:1058500068F058F91F48FAF74DFD03469CB21D4801
:10586000FAF748FD034622461A491B4845F0F8F866
:10587000154B1B68184649F095F920E0124B1B6840
:1058800041F28831184649F042F9FB790F4A16492E
:10589000104868F037F90F48FAF72CFD03469CB220
:1058A0000C48FAF727FD034622460A490A4845F004
:1058B000D7F8054B1B68184649F074F900BF00BFC4
:1058C0000C37BD4690BD00BF88D5002498BB0708A3
:1058D000D41C0708DCD50024D0640024F01C070881
:1058E0000C1D0708201D0708401D070890B583B050
:1058F00000AF03460A46FB711346BB71FB79402B90
:1059000040F0B481BB79013B0A2B00F28F8101A2E8
:1059100052F823F04159000881590008C159000884
:10592000015A0008415A0008815A0008C15A00086B
:10593000015B0008415B0008815B0008C15B000857
:10594000AF4B1B6841F28831184649F0E0F8AD4A88
:10595000AD49AE4868F0D6F8AC48FAF7CBFC034640
:105960009CB2AA48FAF7C6FC03462246A749A848B3
:1059700045F076F8A24B1B68184649F013F975E11B
:105980009F4B1B6841F28831184649F0C0F89D4A88
:10599000A0499E4868F0B6F89C48FAF7ABFC03466D
:1059A0009CB29A48FAF7A6FC0346224697499848C3
:1059B00045F056F8924B1B68184649F0F3F855E14C
:1059C0008F4B1B6841F28831184649F0A0F88D4A88
:1059D00091498E4868F096F88C48FAF78BFC03469C
:1059E0009CB28A48FAF786FC0346224687498848D3
:1059F00045F036F8824B1B68184649F0D3F835E17C
:105A00007F4B1B6841F28831184649F080F87D4A87
:105A100082497E4868F076F87C48FAF76BFC0346CA
:105A20009CB27A48FAF766FC0346224677497848E2
:105A300045F016F8724B1B68184649F0B3F815E1AB
:105A40006F4B1B6841F28831184649F060F86D4A87
:105A500073496E4868F056F86C48FAF74BFC0346F9
:105A60009CB26A48FAF746FC0346224667496848F2
:105A700044F0F6FF624B1B68184649F093F8F5E0D6
:105A80005F4B1B6841F28831184649F040F85D4A87
:105A900063495E4868F036F85C48FAF72BFC034629
:105AA0009CB25A48FAF726FC034622465749584802
:105AB00044F0D6FF524B1B68184649F073F8D5E006
:105AC0004F4B1B6841F28831184649F020F84D4A87
:105AD00053494E4868F016F84C48FAF70BFC034659
