:020000040800F2
:1000000000000824C5B1000879AE000881AE0008E0
:1000100089AE000891AE000899AE0008000000000B
:10002000000000000000000000000000514F040824
:10003000A1AE000800000000A1510408B93F040867
:1000400019B2000819B2000819B2000819B2000864
:1000500019B2000819B2000819B2000819B2000854
:10006000AFAE000819B2000819B2000819B20008B2
:1000700019B2000819B2000819B2000819B2000834
:1000800019B2000819B2000819B2000819B2000824
:1000900019B2000819B2000819B2000819B2000814
:1000A00019B2000819B2000819B2000819B2000804
:1000B00019B2000819B2000819B2000819B20008F4
:1000C00019B2000819B2000819B2000819B20008E4
:1000D00019B20008BDAE0008D1AE000819B2000880
:1000E00019B2000819B200080000000019B2000897
:1000F00019B2000819B2000819B2000819B20008B4
:1001000019B2000819B2000819B2000819B20008A3
:1001100019B2000819B20008E5AE000819B20008CB
:1001200019B2000819B2000819B2000819B2000883
:1001300019B2000819B2000819B2000819B2000873
:1001400019B2000819B20008000000000000000009
:1001500019B2000819B2000819B2000819B2000853
:1001600019B2000819B2000819B2000819B2000843
:1001700019B2000819B2000819B200080000000006
:1001800019B2000819B2000819B2000819B2000823
:1001900019B2000819B2000819B2000819B2000813
:1001A000F9AE000819B200080DAF000819B2000836
:1001B00021AF000819B2000819B2000819B20008EE
:1001C00019B2000819B2000819B2000819B20008E3
:1001D00019B2000819B2000819B2000819B20008D3
:1001E00019B2000819B2000819B2000819B20008C3
:1001F00019B2000819B2000819B2000819B20008B3
:1002000019B2000819B2000819B2000819B20008A2
:1002100019B2000819B2000819B2000819B2000892
:1002200019B2000835AF000849AF0008000000000F
:1002300019B2000819B2000819B2000819B2000872
:1002400019B2000819B2000819B2000819B2000862
:1002500019B2000819B2000819B2000819B2000852
:1002600019B2000819B2000819B2000819B2000842
:1002700019B2000819B2000819B2000819B2000832
:1002800019B2000819B2000819B2000800000000F5
:0802900019B2000819B20008C0
:1002A00010B5054C237833B9044B13B10448AFF3B0
:1002B00000800123237010BDE05E002400000000D8
:1002C0001858060808B5034B1BB103490348AFF3A0
:1002D000008008BD00000000E45E002418580608F5
:1002E00010F8012B11F8013B012A28BF9A42F7D0E0
:1002F000D01A7047034613F8012B002AFBD1181AB5
:1003000001387047000000000000000000000000FD
:1003100001F0FF01102A2BDB10F0070F08D010F8B6
:10032000013B013A8B422DD010F0070F42B3F6D1BA
:10033000F0B441EA012141EA014122F007047FF0D3
:1003400000070023F0E80256083C85EA010586EA2A
:10035000010685FA47F5A3FA87F586FA47F6A5FA66
:1003600087F68EB9EED1F0BC01F0FF0102F0070272
:1003700032B110F8013B013A83EA010313B1F8D11D
:100380000020704701387047002D06BF35460338FE
:10039000073815F0010F07D1013015F4807F02BF37
:1003A000013015F4C03F0130F0BC0138704700BF88
:1003B00081F0004102E000BF83F0004330B54FEA16
:1003C00041044FEA430594EA050F08BF90EA020F83
:1003D0001FBF54EA000C55EA020C7FEA645C7FEA16
:1003E000655C00F0E2804FEA5454D4EB5555B8BF39
:1003F0006D420CDD2C4480EA020281EA030382EAAA
:10040000000083EA010180EA020281EA0303362D3B
:1004100088BF30BD11F0004F4FEA01314FF4801C0E
:100420004CEA113102D0404261EB410113F0004F20
:100430004FEA03334CEA133302D0524263EB4303D7
:1004400094EA050F00F0A780A4F10104D5F1200E75
:100450000DDB02FA0EFC22FA05F2801841F10001D0
:1004600003FA0EF2801843FA05F359410EE0A5F1A4
:1004700020050EF1200E012A03FA0EFC28BF4CF0D5
:10048000020C43FA05F3C01851EBE37101F000458B
:1004900007D54FF0000EDCF1000C7EEB00006EEB98
:1004A0000101B1F5801F1BD3B1F5001F0CD3490822
:1004B0005FEA30004FEA3C0C04F101044FEA445279
:1004C00012F5800F80F09A80BCF1004F08BF5FEA00
:1004D000500C50F1000041EB045141EA050130BDE0
:1004E0005FEA4C0C404141EB0101013C28BFB1F5F2
:1004F000801FE9D291F0000F04BF01460020B1FA3D
:1005000081F308BF2033A3F10B03B3F120020CDA0F
:100510000C3208DD02F1140CC2F10C0201FA0CF0ED
:1005200021FA02F10CE002F11402D8BFC2F1200C52
:1005300001FA02F120FA0CFCDCBF41EA0C01904008
:10054000E41AA2BF01EB0451294330BD6FEA040451
:100550001F3C1CDA0C340EDC04F11404C4F120023C
:1005600020FA04F001FA02F340EA030021FA04F34E
:1005700045EA030130BDC4F10C04C4F1200220FAA5
:1005800002F001FA04F340EA0300294630BD21FAE3
:1005900004F0294630BD94F0000F83F4801306BFA9
:1005A00081F480110134013D4EE77FEA645C18BF9D
:1005B0007FEA655C29D094EA050F08BF90EA020F34
:1005C00005D054EA000C04BF1946104630BD91EA2C
:1005D000030F1EBF0021002030BD5FEA545C05D12F
:1005E0004000494128BF41F0004130BD14F580046E
:1005F0003CBF01F5801130BD01F0004545F0FE41E2
:1006000041F470014FF0000030BD7FEA645C1ABF16
:10061000194610467FEA655C1CBF0B46024650EA4D
:10062000013406BF52EA033591EA030F41F4002179
:1006300030BD00BF90F0000F04BF0021704730B5FF
:100640004FF4806404F132044FF000054FF00001D4
:1006500050E700BF90F0000F04BF0021704730B595
:100660004FF4806404F1320410F0004548BF40426A
:100670004FF000013EE700BF42004FEAE2014FEABF
:1006800031014FEA02701FBF12F07F4393F07F4F9A
:1006900081F06051704732F07F4208BF704793F09D
:1006A0007F4F04BF41F40021704730B54FF46074B0
:1006B00001F0004521F000411CE700BF50EA0102B3
:1006C00008BF704730B54FF000050AE050EA01025C
:1006D00008BF704730B511F0004502D5404261EBCC
:1006E00041014FF4806404F132045FEA915C3FF40D
:1006F000D8AE4FF003025FEADC0C18BF03325FEAAA
:10070000DC0C18BF033202EBDC02C2F1200300FA5A
:1007100003FC20FA02F001FA03FE40EA0E0021FA7F
:1007200002F11444BDE600BF7BB972B90029BEBF17
:1007300000204FF0004106E008BF00281CBF6FF00A
:1007400000414FF0FF3000F0D3B9ADF1080C6DE976
:1007500004CE002909DB002B1ADB00F04DF8DDF890
:1007600004E0DDE9022304B07047404261EB41013F
:10077000002B1BDB00F040F8DDF804E0DDE902238C
:1007800004B0404261EB4101524263EB43037047C6
:10079000524263EB430300F02FF8DDF804E0DDE99B
:1007A000022304B0404261EB41017047524263EBC7
:1007B000430300F021F8DDF804E0DDE9022304B092
:1007C000524263EB4303704753B94AB9002908BF4B
:1007D00000281CBF4FF0FF314FF0FF3000F088B908
:1007E000ADF1080C6DE904CE00F006F8DDF804E088
:1007F000DDE9022304B070472DE9F047089D8E46DD
:1008000004468846002B4AD18A42174662D9B2FA7A
:1008100082F64EB1C6F1200301FA06F820FA03F37E
:10082000B74043EA0808B4404FEA174E1FFA87FC66
:10083000B8FBFEF1230C0EFB118843EA084301FBD1
:100840000CF29A4209D9FB1801F1FF3080F0EA80DE
:100850009A4240F2E78002393B449A1AA3B2B2FBB3
:10086000FEF00EFB102243EA024300FB0CFC9C4509
:1008700009D9FB1800F1FF3280F0D6809C4540F288
:10088000D3803B44023840EA0140A3EB0C03002133
:100890001DB1F3400022C5E90032BDE8F0878B426C
:1008A00005D90DB1C5E9000100210846F5E7B3FA05
:1008B00083F1002946D1734502D3824200F20581BB
:1008C000841A6EEB030201209046002DE5D0C5E9A5
:1008D0000048E2E7002A00F09080B2FA82F6002E8B
:1008E00040F0A4808A1A030C4FEA174E80B2BCB2C3
:1008F0000121B2FBFEFC0EFB1C2243EA024304FB77
:100900000CF29A4207D9FB180CF1FF3802D29A4236
:1009100000F2E080C4469B1AB3FBFEF20EFB1233DA
:1009200040EA034302FB04F49C4207D9FB1802F19E
:10093000FF3002D29C4200F2CA8002461B1B42EAF0
:100940000C40A5E7C1F120068B4022FA06F71F43B1
:100950000EFA01F420FA06F32EFA06FE4FEA1749C2
:10096000234300FA01F81FFA87FCBEFBF9F01C0CC8
:1009700009FB10EE44EA0E4400FB0CFEA64502FA09
:1009800001F209D93C1900F1FF3A80F09C80A6459C
:1009900040F2998002383C44A4EB0E041FFA83FE17
:1009A000B4FBF9F309FB13444EEA044403FB0CFCCB
:1009B000A44508D93C1903F1FF3E80F08280A4458C
:1009C0007FD9023B3C4443EA0040A4EB0C04A0FB6B
:1009D00002EC64457346E14662D35FD05DB1B8EB8B
:1009E000030264EB090404FA06F622FA01F31E433B
:1009F000CC40C5E9006400214FE7B1FBF2FC010CDB
:100A000041EA0E4180B240EA01423B4638463C464C
:100A1000B846BE462026B1FBF7F1A2EB080241EA38
:100A20000C4166E7014618E710462CE7C6F12002A4
:100A30002EFA02F3B740B14020FA02F24FEA174E05
:100A40000A43B3FBFEF8BCB20EFB1833110C41EAAB
:100A5000034108FB04F9B04089454FEA104380B2D6
:100A60003ED9791808F1FF3C01D289451FD8A1EB86
:100A70000901B1FBFEF909FB04F80EFB191192B252
:100A800042EA0142424529D2BA1809F1FF31C4D2E3
:100A90004245C2D2A9F102013A44BEE7F0459DD2D7
:100AA000BEEB02036CEB070C0138E14696E7A7EBBF
:100AB00009094944A8F1020CB1FBFEF909FB04F84D
:100AC000DBE773467FE7504666E70846FDE63B44B2
:100AD000023A33E7ACF1020C3B441CE749469CE781
:100AE000A1EB0901C446B1FBFEF909FB04F8C4E718
:100AF000704700BF80B584B000AF09F0D1F9764BE4
:100B00005B6903F40033002B1BD1BFF34F8F00BF91
:100B1000BFF36F8F00BF704B0022C3F85022BFF3AA
:100B20004F8F00BFBFF36F8F00BF6B4B5B696A4A8B
:100B300043F400335361BFF34F8F00BFBFF36F8F98
:100B400000E000BF644B5B6903F48033002B38D1B5
:100B5000614B0022C3F88420BFF34F8F00BF5E4B70
:100B6000D3F88030FB60FB685B0BC3F30E03BB6004
:100B7000FB68DB08C3F309037B60BB685A0143F6DB
:100B8000E07313407A68920753491343C1F8603207
:100B90007B685A1E7A60002BEFD1BB685A1EBA6080
:100BA000002BE5D1BFF34F8F00BF4B4B5B694A4A27
:100BB00043F480335361BFF34F8F00BFBFF36F8F98
:100BC00000E000BF31F080F800F0C6F800F0EAFB6A
:100BD00000F072FB00F090FB00F0D8F900F042F951
:100BE00000F062F900F0BEF900F054FA00F07AF972
:100BF00000F0CAFA00F07CFA0AF07AFA00F0A0FAE3
:100C000000F00EFB0AF010FB0AF007FB43F0EEF9D0
:100C1000324843F0E2FA0346314A1360314A022176
:100C2000402043F007FD03462F4A13602F4A02215C
:100C3000402043F0FFFC03462D4A13602D4A01215A
:100C40004FF4806043F0F6FC03462B4A13602B4AB6
:100C500001214FF4807043F0EDFC0346284A1360F5
:100C6000284A0021284843F00BFA0346274A13601C
:100C7000274A0021274843F003FA0346264A136017
:100C8000264A0021264843F0FBF90346254A136013
:100C9000254A0021254843F0F3F90346244A13600E
:100CA000244A0021244843F0EBF90346234A136009
:100CB000234A0021234843F0E3F90346224A136004
:100CC000224A0021224843F0DBF90346214A1360FF
:100CD00043F0B0F900BFFDE700ED00E000CB0608EF
:100CE00054D10024A0CA060804CA0024B8CA0608C1
:100CF000D8CA0024D0CA0608ACCB0024E8CA06082B
:100D000000D00024A4C90608FD910008F86500245D
:100D1000C8C9060839B20008A4760024ECC9060840
:100D20000D9A0008A876002410CA0608719A0008D7
:100D30005487002434CA0608ED9A0008009800245D
:100D400058CA0608519B0008ACA800247CCA0608B3
:100D5000B59B000858B9002480B59CB000AF07F1DE
:100D600024034C220021184662F099FA3B1D2022F0
:100D70000021184662F093FA042038F081FA00232B
:100D80003B60364BDB6A354A23F00103D362334BB9
:100D9000DB6A03F001033B60314B9B69304A43F44B
:100DA000404393612E4B9B6903F440433B603B6897
:100DB00000BF2B4B9B6903F40053B3F5005FF8D1E0
:100DC0000B237B624FF48033BB6201233B634023E0
:100DD0007B630123BB630223BB640223FB64052303
:100DE0003B65A0237B650223BB650423FB650223CF
:100DF0003B6608237B660023BB660023FB6607F186
:100E00002403184639F020FD0346002B01D009F0D9
:100E100091F83F237B600323BB600023FB60082322
:100E20003B6140237B614023BB614FF48063FB61E6
:100E300040233B623B1D022118463AF0B5FA0346B7
:100E4000002B01D009F076F84FF480220021002019
:100E50003AF01AFE00BF7037BD4680BD000400584E
:100E60000048025880B500AF0D4B0E4A1A600C4B7B
:100E700000221A710A4B00225A71094B00225A6152
:100E8000074B00229A61064B01221A62044831F096
:100E9000A1FA0346002B01D009F04CF800BF80BD39
:100EA000FC5E0024004C025880B500AF0B4B0C4A8E
:100EB0001A600A4B4FF440325A60084B02229A6083
:100EC000064B0022DA60054832F040F90346002B59
:100ED00001D009F02FF800BF80BD00BF205F0024C3
:100EE0000010005280B500AF1B4B1C4A1A601A4B11
:100EF0001B4A5A60184B00229A60174B0122DA6095
:100F0000154B00221A61144B00225A61124B002229
:100F10009A61114B0022DA610F4B00221A620E48CF
:100F200032F086FF0346002B01D009F003F80021C0
:100F3000094833F001FE0346002B01D008F0FAFF08
:100F40000021054833F06EFE0346002B01D008F067
:100F5000F1FF00BF80BD00BF885F0024001C005867
:100F6000B634900080B500AF064B074A1A600548BA
:100F700033F0CCFE0346002B01D008F0DBFF00BFAE
:100F800080BD00BFDC5F00240030005280B58EB011
:100F900000AF09F00BF83B1D34220021184662F027
:100FA0007EF93A4B3A4A1A60384B00225A60374B66
:100FB00000229A60354B0022DA60344B00221A611D
:100FC000324B28225A61314B09229A612F4B35222C
:100FD000DA612E4B0B221A622C4B40F215225A6218
:100FE0002A4B40F21B129A62284B40F23522DA62F9
:100FF000264B40F21D121A63244B002283F8342042
:10100000224B002283F83520204B002283F8362023
:101010001E4835F0D3FE0346002B01D008F08AFFAE
:1010200000237B604FF4F073BB600023FB604FF440
:1010300088733B6102237B61FF23BB610023FB615B
:101040004FF480633B6205237B624FF05043BB62E9
:101050004FF4F073FB624FF488733B63002387F80F
:101060003430002387F83530002387F836303B1DB5
:1010700000221946054836F07FF80346002B01D0C0
:1010800008F058FF00BF3837BD4680BD0C61002412
:101090000010005080B500AF124B134A1A60114B7C
:1010A00001225A600F4B01229A600E4B1022DA6027
:1010B0000C4B1A221A610B4B4FF400725A61094B08
:1010C00000229A61074B40221A62064838F054F910
:1010D0000346002B01D008F02DFF044808F0DAFF8A
:1010E00000BF80BDB461002400500052359F00084D
:1010F00080B500AF104B114A1A600F4B00225A60A6
:101100000D4B7F229A600C4BFF22DA600A4B0022C3
:101110001A61094B00229A61074B0022DA61064BE3
:1011200000225A6104483EF0BBF80346002B01D070
:1011300008F000FF00BF80BD00620024004000589E
:1011400080B500AF0E4B0F4A1A600D4B00225A605B
:101150000B4B00229A600A4B4FF40042DA60084BB6
:1011600000221A61064B00225A61054837F0F0F858
:101170000346002B01D008F0DDFE00BF80BD00BF9C
:10118000246200240070005280B500AF224B234A35
:101190001A60214B4FF4E1325A601F4B00229A60D3
:1011A0001D4B0022DA601C4B00221A611A4B0C22E4
:1011B0005A61194B00229A61174B0022DA61164BD3
:1011C00000221A62144B00225A62134B00229A62C8
:1011D00011483EF063FF0346002B01D008F0AAFE41
:1011E00000210D4841F046FD0346002B01D008F0D8
:1011F000A1FE0021084841F0D7FD0346002B01D095
:1012000008F098FE044841F0BBFC0346002B01D0D7
:1012100008F090FE00BF80BD9C64002400100140D7
:1012200080B500AF224B234A1A60214B4FF4E132C4
:101230005A601F4B00229A601D4B0022DA601C4B43
:1012400000221A611A4B0C225A61194B00229A6132
:10125000174B0022DA61164B00221A62144B00224F
:101260005A62134B00229A6211483EF017FF034660
:10127000002B01D008F05EFE00210D4841F0FAFC81
:101280000346002B01D008F055FE0021084841F02C
:101290008BFD0346002B01D008F04CFE044841F0C2
:1012A0006FFC0346002B01D008F044FE00BF80BD58
:1012B000306500240044004080B582B000AF0D4B83
:1012C000D3F8D4300B4A43F00103C2F8D430094BB1
:1012D000D3F8D43003F001037B607B680022052142
:1012E0007A2030F06FFE7A2030F096FE00BF08378B
:1012F000BD4680BD0044025880B588B000AF3B1D9C
:1013000000221A605A609A60DA601A615A619A6122
:10131000214B224A1A60204B01225A601E4B0022A8
:101320009A601D4B0422DA601B4B10221A611A4B83
:1013300040225A61184B4FF480729A61164B00227A
:10134000DA61154B4FF400621A62134B4FF480526E
:101350005A62114B00229A6202237B600623BB6013
:101360000423FB6006233B6102237B610223BB61F4
:101370000223FB613B1D194607483EF0F3F9034683
:10138000002B01D008F0D6FD054808F0A4FE00BFF0
:101390002037BD4680BD00BFC465002440410052D7
:1013A000359F000880B590B000AF07F12C030022F4
:1013B0001A605A609A60DA601A61A04BD3F8E03084
:1013C0009E4A43F48063C2F8E0309C4BD3F8E0308F
:1013D00003F48063BB62BB6A984BD3F8E030974A52
:1013E00043F04003C2F8E030944BD3F8E03003F010
:1013F00040037B627B6A914BD3F8E0308F4A43F025
:101400000803C2F8E0308D4BD3F8E03003F0080356
:101410003B623B6A894BD3F8E030884A43F00403CF
:10142000C2F8E030854BD3F8E03003F00403FB61F1
:10143000FB69824BD3F8E030804A43F48073C2F8F2
:10144000E0307E4BD3F8E03003F48073BB61BB69BE
:101450007A4BD3F8E030794A43F01003C2F8E03019
:10146000764BD3F8E03003F010037B617B69734B5C
:10147000D3F8E030714A43F00203C2F8E0306F4B1A
:10148000D3F8E03003F002033B613B696B4BD3F8C8
:10149000E0306A4A43F40073C2F8E030674BD3F897
:1014A000E03003F40073FB60FB68644BD3F8E0307A
:1014B000624A43F00103C2F8E030604BD3F8E030F9
:1014C00003F00103BB60BB685C4BD3F8E0305B4AC0
:1014D00043F02003C2F8E030584BD3F8E03003F07B
:1014E00020037B607B68554BD3F8E030534A43F0D0
:1014F0008003C2F8E030514BD3F8E03003F08003B2
:101500003B603B68002208214D4832F029FC012253
:101510004FF400514B4832F023FC002208214A4886
:1015200032F01EFC00224021484832F019FC012212
:101530000421474832F014FC0823FB6201233B637B
:1015400000237B630023BB6307F12C0319463C484F
:1015500031F0F0FF4FF48073FB6202233B63002302
:101560007B630023BB630023FB6307F12C03194655
:10157000364831F0DFFF4FF40053FB6201233B6339
:1015800000237B630023BB6307F12C0319462D481E
:1015900031F0D0FF0823FB6201233B6300237B6310
:1015A0000323BB6307F12C031946274831F0C2FF20
:1015B0000423FB624FF404133B6300237B6307F1B6
:1015C0002C031946204831F0B5FF4FF44063FB620D
:1015D00002233B6301237B630323BB630723FB637A
:1015E00007F12C0319461B4831F0A4FF4023FB628E
:1015F00001233B6300237B630323BB6307F12C03BD
:101600001946124831F096FF0423FB6201233B6325
:1016100000237B630023BB6307F12C0319460C48AE
:1016200031F088FF00220521082030F0CBFC082093
:1016300030F0F2FC00BF4037BD4680BD0044025888
:10164000000C0258002002580018025800000258EE
:10165000002402580004025890B583B000AF04463D
:10166000084611461A462346FB710346BB710B46DA
:101670007B7113463B71FB796433114A5361BB792B
:10168000013B0F4A13617B790D4AD3603B790C4AC9
:1016900093603B7E0A4A53603B7F094A13600848C7
:1016A00061F01CFF02460B460649C1E90023054BC9
:1016B000D3E90023134618460C37BD4690BD00BF42
:1016C000F0090124180A012490B583B000AF7860B6
:1016D000544B1B68184643F0DFF803469AB2524B4E
:1016E0001A80514B1B88002B00F095804F4B1B68D4
:1016F00041F28831184642F0F6FD4B4B1B884C4AAC
:101700004C494D4861F064FD4B48FEF7F3FD03463C
:101710009CB24948FEF7EEFD03462246464947483B
:101720003EF08AFD414B1B68184642F027FE444BB1
:1017300000221A803CE03B4B1868002300224149FC
:1017400043F04CF80346404A13603F4B1B68002BA4
:1017500020D0364B1B6841F28831184642F0C3FD59
:10176000394B1B68324A3949334861F031FD324800
:10177000FEF7C0FD03469CB22F48FEF7BBFD0346B3
:1017800022462D492D483EF057FD284B1B68184630
:1017900042F0F4FD2A4B1B881A467B681344294A01
:1017A00012781A70264B1B8801339AB2244B1A8088
:1017B0001C4B1B68184643F06FF80346002B05D0FE
:1017C0001F4B1B8840F6FD729342B4D91C4B1A88FC
:1017D000154B1A80154B1B6841F28831184642F0B0
:1017E00082FD114B1B88124A1949134861F0F0FC25
:1017F0001148FEF77FFD03469CB20F48FEF77AFDC5
:10180000034622460C490D483EF016FD074B1B6867
:10181000184642F0B3FD044B1B8818460C37BD46F2
:1018200090BD00BF00D00024200A012454D1002420
:1018300010CB0608C0580608A8D100249C640024D8
:10184000220A0124240A0124280A0124E85806084F
:101850002059060890B583B000AF78607B681B689C
:101860002F4A934216D12F4B1A782F4B1A702F4BB9
:101870001868002300222C4942F050FF03462C4AEE
:101880001360012227492B483EF064FD03461A46A7
:10189000294B1A707B681B68284A93423BD1284B1E
:1018A0001A78284B1A70284B186800230022254903
:1018B00042F034FF03461E4A13601D4B1B68002B89
:1018C00020D0224B1B6841F28831184642F00BFDB4
:1018D000174B1B681E4A1F491F4861F079FC1E48C0
:1018E000FEF708FD03469CB21B48FEF703FD0346C6
:1018F000224619490F483EF09FFC144B1B681846BE
:1019000042F03CFD01220E4914483EF023FD0346FF
:101910001A46094B1A7000BF0C37BD4690BD00BF78
:1019200000100140D5E900242C0A012400D0002435
:10193000300A01249C640024340A0124004400403D
:10194000D4E90024350A0124ACCB002454D100246E
:101950002CCB060848590608A8D10024306500247D
:1019600090B585B000AFF8607B600B467B81134675
:101970007B727D4B00221A805AE17B7A002B2AD0A1
:10198000794B1B8803F00F039BB2002B23D1774BBD
:101990001B6841F28831184642F0A5FC724B1B8847
:1019A0001A467B6813441A467149724861F010FC6C
:1019B0007048FEF79FFC03469CB26E48FEF79AFC07
:1019C000034622466B496C483EF036FC674B1B6869
:1019D000184642F0D3FC654B1B6841F2883118462B
:1019E00042F081FC604B1B881A46FB6813441B784D
:1019F0001A4662495F4861F0EBFB5E48FEF77AFCED
:101A000003469CB25B48FEF775FC034622465949E3
:101A100059483EF011FC554B1B68184642F0AEFC8D
:101A2000524B1B6841F28831184642F05CFC544925
:101A3000504861F0CDFB4F48FEF75CFC03469CB27A
:101A40004C48FEF757FC034622464A494A483EF0B6
:101A5000F3FB464B1B68184642F090FC424B1B8838
:101A600003F00F039BB2072B1DD1404B1B6841F2C3
:101A70008831184642F037FC42493E4861F0A8FBE5
:101A80003C48FEF737FC03469CB23A48FEF732FC6E
:101A900003462246374938483EF0CEFB334B1B689D
:101AA000184642F06BFC304B1B8803F00F039BB2CF
:101AB0000F2B40F0B7802D4B1B6841F28831184640
:101AC00042F011FC2F492B4861F082FB2948FEF7B8
:101AD00011FC03469CB22748FEF70CFC0346224645
:101AE000244925483EF0A8FB204B1B68184642F0CD
:101AF00045FC1D4B1B880F3B9AB2234B1A806DE0AF
:101B0000214B1B881A46FB6813441B7801331F4A7C
:101B100013441B7803F09703002B3BD0134B1B6837
:101B200041F28831184642F0DEFB174B1B881A46FB
:101B3000FB6813441B781A4615490E4861F048FBB0
:101B40000C48FEF7D7FB03469CB20A48FEF7D2FBCF
:101B500003462246074908483EF06EFB034B1B68CC
:101B6000184642F00BFC33E0360A012454D100241D
:101B700080590608A8D100249C64002494590608C2
:101B80009C590608A0590608380A012428000708AD
:101B9000A8590608A84B1B6841F28831184642F044
:101BA000A2FBA649A64861F013FBA548FEF7A2FBDD
:101BB00003469CB2A248FEF79DFB03462246A0497D
:101BC000A0483EF039FB9C4B1B68184642F0D6FB00
:101BD0009D4B1B8801339AB29B4B1A809B4B1A88F2
:101BE000994B1B889A428BD2934B1B6841F28831E8
:101BF000184642F078FB9649914861F0E9FA90481E
:101C0000FEF778FB03469CB28D48FEF773FB034654
:101C100022468B498B483EF00FFB874B1B681846CA
:101C200042F0ACFB894B1B8801339AB2874B1A8078
:101C3000864B1B887A899A423FF69FAE7B8903F0D8
:101C40000F039BB2002B00F0D5807B8903F00F03BC
:101C50009AB27D4B1A8023E0774B1B6841F28831A2
:101C6000184642F040FB7B49754861F0B1FA744870
:101C7000FEF740FB03469CB27148FEF73BFB034670
:101C800022466F496F483EF0D7FA6B4B1B681846E7
:101C900042F074FB6C4B1B8801339AB26A4B1A807A
:101CA000694B1B880F2BD7D97B8903F008039BB2A4
:101CB000002B1DD1604B1B6841F28831184642F061
:101CC00012FB65495E4861F083FA5D48FEF712FB3E
:101CD00003469CB25A48FEF70DFB0346224658497C
:101CE00058483EF0A9FA544B1B68184642F046FB90
:101CF000514B1B6841F28831184642F0F4FA5649BC
:101D00004F4861F065FA4E48FEF7F4FA03469CB27C
:101D10004B48FEF7EFFA03462246494949483EF050
:101D20008BFA454B1B68184642F028FB7B8923F051
:101D30000F039AB2444B1A8057E0434B1B881A4654
:101D4000FB6813441B780133444A13441B7803F0A7
:101D50009703002B25D0384B1B6841F28831184679
:101D600042F0C1FA384B1B881A46FB6813441B78B3
:101D70001A463B49324861F02BFA3148FEF7BAFA6D
:101D800003469CB22E48FEF7B5FA034622462C497C
:101D90002C483EF051FA284B1B68184642F0EEFAE8
:101DA0001DE0254B1B6841F28831184642F09BFA32
:101DB0002249234861F00CFA2148FEF79BFA0346BA
:101DC0009CB21F48FEF796FA034622461C491D485E
:101DD0003EF032FA184B1B68184642F0CFFA1A4B05
:101DE0001B8801339AB2184B1A80174B1B887A89CB
:101DF0009A42A2D8104B1B6841F28831184642F033
:101E000072FA13490E4861F0E3F90D48FEF772FAD1
:101E100003469CB20A48FEF76DFA0346224608497B
:101E200008483EF009FA044B1B68184642F0A6FA2F
:101E300000BF1437BD4690BD54D10024AC590608EC
:101E4000A8D100249C640024380A0124360A012405
:101E5000B0590608B4590608A05906082800070812
:101E6000A859060890B583B002AF654B1B684FF4C4
:101E70007A71184642F037FA6249634861F0A8F96E
:101E80006148FEF737FA03469CB25F48FEF732FA24
:101E9000034622465C495D483EF0CEF959495A480E
:101EA00061F096F95848FEF725FA03469CB2564869
:101EB000FEF720FA03462246534954483EF0BCF947
:101EC0005049514861F084F94F48FEF713FA034630
:101ED0009CB24D48FEF70EFA034622464A494B484B
:101EE0003EF0AAF94A49484861F072F94648FEF7BF
:101EF00001FA03469CB24448FEF7FCF90346224629
:101F0000414942483EF098F942493F4861F060F942
:101F10003D48FEF7EFF903469CB23B48FEF7EAF96D
:101F200003462246384939483EF086F93A49364850
:101F300061F04EF93448FEF7DDF903469CB23248B1
:101F4000FEF7D8F9034622462F4930483EF074F98F
:101F500041230193314B0093314B314A31492A4897
:101F600061F036F92848FEF7C5F903469CB22648C9
:101F7000FEF7C0F903462246234924483EF05CF9A7
:101F8000294A2A49204861F023F91F48FEF7B2F98F
:101F900003469CB21C48FEF7ADF9034622461A4997
:101FA0001A483EF049F92249174861F011F91648DC
:101FB000FEF7A0F903469CB21348FEF79BF90346CF
:101FC0002246114911483EF037F912490E4861F096
:101FD000FFF80D48FEF78EF903469CB20A48FEF75B
:101FE00089F903462246084908483EF025F9044B82
:101FF0001B68184642F0C2F900BF0437BD4690BDC9
:1020000054D10024B8590608A8D100249C640024A7
:10201000E4590608EC590608345A0608B05A06086E
:102020007C5A0608805A0608B45A0608C05A0608A0
:10203000E85A060890B587B002AF03463960FB71D5
:102040001346BB71594B9B781F2B00F28880574B6E
:102050009B781D2B24D9564B1B6841F288311846BA
:1020600042F041F9514B9B781A46202300931346C6
:10207000504A5149514861F0ABF85048FEF73AF9DF
:1020800003469CB24D48FEF735F9034622464B49BC
:102090004B483EF0D1F8464B1B68184642F06EF9AB
:1020A000434B1B6841F28831184642F01CF9FB791A
:1020B000404A4449414861F08BF84048FEF71AF91C
:1020C00003469CB23D48FEF715F9034622463B49BC
:1020D0003B483EF0B1F8364B1B68184642F04EF9CB
:1020E000324B9B780133DAB2304B9A702F4B5B78CE
:1020F00019462E4AAA2301FB03F313440333FA794A
:102100001A70BB79A82B01D9A823BB71274B5B7828
:102110001946264AAA2301FB03F313440433BA7970
:102120001A70224B5B781A46AA2302FB03F31F4A5C
:1021300013440533BA793968184661F06EFF1B4BBA
:102140005B780133DAB2194B5A70184B5B781F2B4E
:1021500002D9164B00225A700123FB7321E0144B65
:102160001B6841F28831184642F0BDF8FB79114AEC
:102170001549124861F02CF81048FEF7BBF80346E9
:102180009CB20E48FEF7B6F8034622460B490C48AF
:102190003EF052F8064B1B68184642F0EFF8002359
:1021A000FB73FB7B18461437BD4690BDD8E900246D
:1021B00054D1002444CB0608985B0608A8D100241B
:1021C0009C640024EC5B0608185C060890B587B098
:1021D00002AF03463960FB711346BB71594B9B78C4
:1021E000072B00F28880574B9B78052B24D9564B40
:1021F0001B6841F28831184642F075F8514B9B78C4
:102200001A46082300931346504A5149514860F03A
:10221000DFFF5048FEF76EF803469CB24D48FEF7CC
:1022200069F8034622464B494B483EF005F8464BB9
:102230001B68184642F0A2F8434B1B6841F28831F4
:10224000184642F050F8FB79404A4449414860F052
:10225000BFFF4048FEF74EF803469CB23D48FEF7EC
:1022600049F8034622463B493B483DF0E5FF364BE3
:102270001B68184642F082F8324B9B780133DAB281
:10228000304B9A702F4B5B7819462E4AAA2301FBDC
:1022900003F313440333FA791A70BB79A82B01D9DD
:1022A000A823BB71274B5B781946264AAA2301FB5A
:1022B00003F313440433BA791A70224B5B781A463D
:1022C000AA2302FB03F31F4A13440533BA79396882
:1022D000184661F0A2FE1B4B5B780133DAB2194B52
:1022E0005A70184B5B78072B02D9164B00225A7094
:1022F0000123FB7321E0144B1B6841F2883118461F
:1023000041F0F1FFFB79114A1549124860F060FF76
:102310001048FDF7EFFF03469CB20E48FDF7EAFFB9
:10232000034622460B490C483DF086FF064B1B68CE
:10233000184642F023F80023FB73FB7B1846143742
:10234000BD4690BD1CFF002454D100245CCB060880
:10235000605C0608A8D100249C640024B45C0608D4
:10236000E05C060890B585B000AF03460A46FB71F5
:102370001346BB71974B1B6841F28831184641F0F8
:10238000B2FFFB79944A9549954860F021FF944843
:10239000FDF7B0FF03469CB29148FDF7ABFF034643
:1023A00022468F498F483DF047FF8A4B1B681846ED
:1023B00041F0E4FF8C4B00221A728B4B0022DA6052
:1023C000894B002283F8C820884B00221A70884B62
:1023D00018221A70BB79002B1BD0864B0133854A1B
:1023E00052781946FF2006F0E7FE0346FB73FA79A0
:1023F000FB7B9A4201D1012200E003227B4B1A7041
:10240000FA79FB7B9A4201D1062200E01522784B33
:102410001A70704B1B6841F28831184641F063FF17
:1024200075496F4860F0D4FE6D48FDF763FF0346C1
:102430009CB26B48FDF75EFF034622466849694837
:102440003DF0FAFE634B1B68184641F097FF664B60
:10245000DB7C1946002300226648FFF781FA5D4BBA
:102460001B6841F28831184641F03DFF63495C48E2
:1024700060F0AEFE5A48FDF73DFF03469CB2584857
:10248000FDF738FF03462246554956483DF0D4FE35
:10249000504B1B68184641F071FF534B00221A74D1
:1024A00001230122524956483DF0C6FE504B1B788D
:1024B000182B46D0182B64DC062B02D0152B20D00D
:1024C0005FE0444B1B6841F28831184641F00BFF36
:1024D000414A4C49424860F07BFE4148FDF70AFF03
:1024E00003469CB23E48FDF705FF034622463C49A1
:1024F0003C483DF0A1FE374B1B68184641F03EFFBB
:1025000061E0344B1B6841F28831184641F0EBFE24
:10251000314A3D49324860F05BFE3148FDF7EAFE42
:1025200003469CB22E48FDF7E5FE034622462C49A1
:102530002C483DF081FE274B1B68184641F01EFFDA
:1025400041E0244B1B6841F28831184641F0CBFE34
:10255000214A2E49224860F03BFE2148FDF7CAFE81
:1025600003469CB21E48FDF7C5FE034622461C49A1
:102570001C483DF061FE174B1B68184641F0FEFEFB
:1025800021E0144B1B6841F28831184641F0ABFE44
:10259000174B1B78104A1E49114860F019FE10486D
:1025A000FDF7A8FE03469CB20D48FDF7A3FE0346C7
:1025B00022460B490B483DF03FFE064B1B68184670
:1025C00041F0DCFE00BF094B1B7818461437BD46AE
:1025D00090BD00BF54D1002480CB0608245D0608BE
:1025E000A8D100249C640024700401243A0A012428
:1025F0003B0A012484040124445D0608A45D060806
:1026000030650024045E0608405E0608905E0608F9
:10261000085F060890B583B000AF0346FB71234BFB
:102620001B6841F28831184641F05DFEFB79204A73
:102630002049214860F0CCFD1F48FDF75BFE0346B2
:102640009CB21D48FDF756FE034622461A491B4818
:102650003DF0F2FD154B1B68184641F08FFE184BFC
:10266000DB7C1A46164B1344FA791A75144BDB7C43
:102670000133DAB2124BDA74124B5B78032B0AD9AE
:10268000104B5B78033BDAB20D4B83F8C9200C4B3F
:1026900004221A7406E00A4B012283F8C920084B71
:1026A00005221A7400BF0C37BD4690BD54D10024DA
:1026B00098CB0608505F0608A8D100249C6400242B
:1026C000700401248404012480B483B000AF034665
:1026D000FB71144B93F8C930013BDAB2114B83F80C
:1026E000C920104BDB7C1A460E4B1344FA791A753D
:1026F0000C4BDB7C0133DAB20A4BDA74094BDB7C1E
:10270000B32B05D8074BDA7C074B5B789A4202D98A
:10271000044B05221A7400BF0C37BD465DF8047BDC
:10272000704700BF700401248404012498B500AFF1
:10273000194B1B6841F28831184641F0D4FD174A05
:102740001749184860F044FD1648FDF7D3FD0346CD
:102750009CB21448FDF7CEFD0346224611491248AB
:102760003DF06AFD0C4B1B68184641F007FE0F4B0D
:1027700000221A740D4B002283F8C8200B4B002254
:102780001A700A4B00221A72084B00225A60074B3B
:102790000022DA6000BF98BD54D10024ACCB0608FB
:1027A0006C5F0608A8D100249C64002470040124F6
:1027B00090B583B000AF0346FB71FB79022B02D9C1
:1027C000FB79B42B2DD9214B1B6841F28831184677
:1027D00041F089FDFB791E4A1E491F4860F0F8FC54
:1027E0001D48FDF787FD03469CB21B48FDF782FD9F
:1027F00003462246184919483DF01EFD134B1B683D
:10280000184641F0BBFD164B00221A74144B0022EF
:1028100083F8C820124B00221A72114B0022DA6092
:1028200010E00F4B02221A740D4BDB7C1A460C4B46
:102830001344FA791A750A4BDB7C0133DAB2084B80
:10284000DA7400BF00BF0C37BD4690BD54D10024E0
:10285000C4CB0608885F0608A8D100249C64002425
:102860007004012490B585B002AF0346FB719F4B05
:1028700000221A70FB79012B39D19D4B1B6841F264
:102880008831184641F02FFD9A4A9B499B4860F0D9
:102890009FFC9A48FDF72EFD03469CB29748FDF732
:1028A00029FD03462246954995483DF0C5FC904BCD
:1028B0001B68184641F062FD924B01221A74914B3D
:1028C0000022DA748F4B012283F8C8208D4BDB7C09
:1028D0001A468C4B1344FA791A758A4BDB7C013308
:1028E000DAB2884BDA74874B00221A72F9E1854B11
:1028F0009B7C002B00F03781FB79062B02D0FB7903
:10290000152B0ED17F4B00229A747E4B00221A7039
:102910007C4B00221A727B4B00225A60794B0022BA
:10292000DA60FB79062B22D1714B1B6841F28831AA
:10293000184641F0D8FC6F4A7349704860F048FC73
:102940006E48FDF7D7FC03469CB26C48FDF7D2FCFD
:102950000346224669496A483DF06EFC644B1B6899
:10296000184641F00BFD614B02221A70B9E1FB7968
:10297000152B22D15E4B1B6841F28831184641F07D
:10298000B2FC5C4A61495D4860F022FC5B48FDF79F
:10299000B1FC03469CB25948FDF7ACFC0346224605
:1029A000564957483DF048FC514B1B68184641F0CA
:1029B000E5FC4E4B05221A7093E1FB790133544A32
:1029C00013441B7803F09703002B23D0484B1B685C
:1029D00041F28831184641F086FCFA79FB79009380
:1029E0001346444A4B49454860F0F2FB4348FDF723
:1029F00081FC03469CB24148FDF77CFC034622461D
:102A00003E493F483DF018FC394B1B68184641F0E1
:102A1000B5FC66E1FB79182B47D0182B00F38280B8
:102A2000062B02D0152B20D07CE0314B1B6841F2E5
:102A30008831184641F057FC2E4A37492F4860F03C
:102A4000C7FB2E48FDF756FC03469CB22B48FDF70A
:102A500051FC03462246294929483DF0EDFB244B11
:102A60001B68184641F08AFC3BE1214B1B6841F290
:102A70008831184641F037FC1E4A28491F4860F04B
:102A8000A7FB1E48FDF736FC03469CB21B48FDF72A
:102A900031FC03462246194919483DF0CDFB144B41
:102AA0001B68184641F06AFC1BE1114B1B6841F2A0
:102AB0008831184641F017FC0E4A19490F4860F05A
:102AC00087FB0E48FDF716FC03469CB20B48FDF74A
:102AD00011FC03462246094909483DF0ADFB044B71
:102AE0001B68184641F04AFCFBE000BF3C0A012489
:102AF00054D10024D8CB0608BC5F0608A8D1002416
:102B00009C64002470040124D45F0608EC5F06086E
:102B100028000708046006083460060858600608A4
:102B20007C600608724B1B6841F28831184641F000
:102B3000DAFBFB796F4A7049704860F049FB6F48D7
:102B4000FDF7D8FB03469CB26C48FDF7D3FB034668
:102B500022466A496A483DF06FFB654B1B68184680
:102B600041F00CFCBDE0FB790133664A13441B784D
:102B700003F09703002B23D05D4B1B6841F2883193
:102B8000184641F0B0FBFA79FB7900931346594A95
:102B90005D495A4860F01CFB5848FDF7ABFB034603
:102BA0009CB25648FDF7A6FB0346224653495448BB
:102BB0003DF042FB4E4B1B68184641F0DFFB8AE0BC
:102BC000FB79182B46D0182B64DC062B02D0152B72
:102BD00020D05FE0464B1B6841F28831184641F037
:102BE00082FB444A4949454860F0F2FA4348FDF700
:102BF00081FB03469CB24148FDF77CFB034622461D
:102C00003E493F483DF018FB394B1B68184641F0E0
:102C1000B5FB60E0364B1B6841F28831184641F045
:102C200062FB344A3A49354860F0D2FA3348FDF73E
:102C300061FB03469CB23148FDF75CFB034622462C
:102C40002E492F483DF0F8FA294B1B68184641F0F1
:102C500095FB40E0264B1B6841F28831184641F055
:102C600042FB244A2B49254860F0B2FA2348FDF77D
:102C700041FB03469CB22148FDF73CFB034622463C
:102C80001E491F483DF0D8FA194B1B68184641F001
:102C900075FB20E0164B1B6841F28831184641F065
:102CA00022FBFB79134A1449144860F091FA134847
:102CB000FDF720FB03469CB21048FDF71BFB0346C3
:102CC00022460E490E483DF0B7FA094B1B681846DC
:102CD00041F054FB00BF104B00221A700E4B002233
:102CE0005A600E4B1B7818460C37BD4690BD00BF8E
:102CF00054D10024D8CB0608A0600608A8D100242F
:102D00009C64002428000708046006083460060854
:102D1000586006087C600608700401243C0A0124FF
:102D200090B583B000AF0346FB71FB79012B4CD902
:102D3000514B1B6841F28831184641F0D4FAFB79B7
:102D40004E4A4F494F4860F043FA4E48FDF7D2FAD9
:102D500003469CB24B48FDF7CDFA0346224649494B
:102D600049483DF069FA444B1B68184641F006FBA0
:102D7000414B1B6841F28831184641F0B4FA3F4A92
:102D80004249404860F024FA3E48FDF7B3FA034652
:102D90009CB23C48FDF7AEFA0346224639493A4810
:102DA0003DF04AFA344B1B68184641F0E7FA384BBD
:102DB00000221A74364B002283F8C820344B0022BC
:102DC0001A72334B0022DA6051E0FB79002B1FD1DD
:102DD000294B1B6841F28831184641F084FA274A92
:102DE0002C49284860F0F4F92648FDF783FA034699
:102DF0009CB22448FDF77EFA034622462149224828
:102E00003DF01AFA1C4B1B68184641F0B7FA1EE059
:102E1000194B1B6841F28831184641F064FA174A91
:102E20001D49184860F0D4F91648FDF763FA0346C7
:102E30009CB21448FDF75EFA034622461149124837
:102E40003DF0FAF90C4B1B68184641F097FA104B0D
:102E500003221A740E4BDB7C1A460D4B1344FA798D
:102E60001A750B4BDB7C0133DAB2094BDA7400BF05
:102E70000C37BD4690BD00BF54D10024ECCB0608F2
:102E8000CC600608A8D100249C64002428610608B0
:102E900070040124506106087061060890B585B081
:102EA00000AF0346FB710023BB730023FB736AE092
:102EB000524B186807F10E010023002241F08EFCEE
:102EC00003464F4A13604E4B1B68002B20D04D4BDE
:102ED0001B6841F28831184641F005FA484B1B68DF
:102EE000494A4A494A4860F073F94948FDF702FAED
:102EF00003469CB24648FDF7FDF903462246444985
:102F000044483DF099F93F4B1B68184641F036FAAA
:102F1000414B1B7C052B33D801A252F823F000BF94
:102F2000392F0008472F0008512F00085B2F000899
:102F3000652F00086F2F0008BB7B1846FFF792FC37
:102F40000346FB731FE0BB7B1846FFF731FC1AE01A
:102F5000BB7B1846FFF7E4FE15E0BB7B1846FFF786
:102F600059FB10E0BB7B1846FFF7AEFB0BE0BB7BC9
:102F7000FA7911461846FFF7F5F90346FB7302E0AC
:102F8000FFF7D4FB00BFFB7B002B07D11B4B1B685B
:102F9000184641F081FC0346002B89D1FB7B002BB6
:102FA00027D11D4B93F8C830002B0FD01A4B1B7A3A
:102FB000002B0BD0184B00221A72174B00221A74E8
:102FC000154B002283F8C8200423FB73124B9B7C13
:102FD000002B0ED0104B1B78002B0AD00E4B00227A
:102FE0001A700D4B00221A740B4B00229A740523A1
:102FF000FB73FB7B18461437BD4690BDACCB002459
:10300000400A012454D1002400CC0608906106082F
:10301000A8D100249C6400247004012480B400AF73
:10302000104B9B78002B13D00E4B9B78013BDAB2F0
:103030000C4B9A700B4B1B780133DAB2094B1A70A8
:10304000084B1B781F2B07D9064B00221A7003E090
:10305000044B5A78034B1A7000BFBD465DF8047BE1
:10306000704700BFD8E9002480B400AF104B9B78B4
:10307000002B13D00E4B9B78013BDAB20C4B9A70AD
:103080000B4B1B780133DAB2094B1A70084B1B78D3
:10309000072B07D9064B00221A7003E0044B5A781D
:1030A000034B1A7000BFBD465DF8047B704700BF3C
:1030B0001CFF002490B585B002AF9B4B1B6841F20A
:1030C0008831184641F00FF9984B1B79984A994975
:1030D000994860F07DF89848FDF70CF903469CB2DA
:1030E0009548FDF707F903462246934993483DF07A
:1030F000A3F88D4B1B68184641F040F98A4B1B68BA
:1031000041F28831184641F0EEF8884B5B79884AE5
:103110008B49894860F05CF88748FDF7EBF8034677
:103120009CB28548FDF7E6F803462246824983486B
:103130003DF082F87C4B1B68184641F01FF97B4B31
:103140001B7903F00103002B1FD0774B1B6841F262
:103150008831184641F0C7F8754A7A49764860F0D8
:1031600037F87548FDF7C6F803469CB27248FDF77C
:10317000C1F803462246704970483DF05DF86A4B3D
:103180001B68184641F0FAF81EE0674B1B6841F2D5
:103190008831184641F0A7F8654A6B49664860F0E7
:1031A00017F86548FDF7A6F803469CB26248FDF79C
:1031B000A1F803462246604960483DF03DF85A4B6D
:1031C0001B68184641F0DAF8584B1B7903F00203EC
:1031D000002B1FD0544B1B6841F28831184641F038
:1031E00082F8534A594954485FF0F2FF5248FDF7BC
:1031F00081F803469CB25048FDF77CF8034622460E
:103200004D494E483DF018F8474B1B68184641F0B1
:10321000B5F81EE0444B1B6841F28831184641F076
:1032200062F8434A4A4944485FF0D2FF4248FDF7FA
:1032300061F803469CB24048FDF75CF8034622461D
:103240003D493E483CF0F8FF374B1B68184641F0BB
:1032500095F8364B1B7903F00403002B1FD0324B3B
:103260001B6841F28831184641F03DF8304A39492F
:1032700031485FF0ADFF3048FDF73CF803469CB2A3
:103280002D48FDF737F8034622462B492B483CF0E2
:10329000D3FF254B1B68184641F070F81EE0224B07
:1032A0001B6841F28831184641F01DF8204A2A492E
:1032B00021485FF08DFF2048FDF71CF803469CB2C3
:1032C0001D48FDF717F8034622461B491B483CF0F2
:1032D000B3FF154B1B68184641F050F8134B1B7990
:1032E00003F00803002B3BD00F4B1B6841F28831E1
:1032F000184640F0F8FF0E4A18490F485FF068FF83
:103300000D48FCF7F7FF03469CB20B48FCF7F2FFB1
:1033100003462246084909483CF08EFF024B1B68D1
:10332000184641F02BF83AE054D1002484040124DB
:1033300014CC060808620608A8D100249C64002466
:10334000306206085862060870620608886206083D
:10335000AC620608D4620608F46206081063060828
:10336000994B1B6841F28831184640F0BCFF974AE0
:10337000974998485FF02CFF9648FCF7BBFF03463F
:103380009CB29448FCF7B6FF034622469149924806
:103390003CF052FF8C4B1B68184640F0EFFF8A4B05
:1033A0001B6841F28831184640F09DFF8B4B9B799A
:1033B000864A8B4987485FF00BFF8648FCF79AFFE7
:1033C00003469CB28348FCF795FF03462246814999
:1033D00081483CF031FF7C4B1B68184640F0CEFF23
:1033E000794B1B6841F28831184640F07CFF774AE0
:1033F0007C4978485FF0ECFE7648FCF77BFF03469B
:103400009CB27448FCF776FF034622467149724825
:103410003CF012FF6C4B1B68184640F0AFFF6F4B3F
:103420009B79002B31D000237B6028E0664B1B6822
:1034300041F28831184640F056FF684A7B680333F2
:1034400013441B7900937B68604A674961485FF0C9
:10345000BFFE6048FCF74EFF03469CB25D48FCF798
:1034600049FF034622465B495B483CF0E5FE564B6C
:103470001B68184640F082FF7B6801337B60574B26
:103480009B791A467B689342D0DB4F4B1B6841F215
:103490008831184640F027FF504A504B9B79033340
:1034A00013441B79494A51494A485FF091FE494803
:1034B000FCF720FF03469CB24648FCF71BFF03467F
:1034C0002246444944483CF0B7FE3F4B1B6818462F
:1034D00040F054FF3C4B1B6841F28831184640F0E5
:1034E00002FF3E4A3D4B9B79043313441B79374A14
:1034F0003F4938485FF06CFE3648FCF7FBFE034658
:103500009CB23448FCF7F6FE034622463149324865
:103510003CF092FE2C4B1B68184640F02FFF2F4AC0
:103520002E4B9B79033313441B79082B27D12B4A4D
:103530002A4B9B79043313441B79002B1FD1224B58
:103540001B6841F28831184640F0CDFE1F4A2949D8
:1035500020485FF03DFE1F48FCF7CCFE03469CB2BE
:103560001C48FCF7C7FE034622461A491A483CF09D
:1035700063FE154B1B68184640F000FF1FE0124B1E
:103580001B6841F28831184640F0ADFE0F4A1A49D7
:1035900010485FF01DFE0F48FCF7ACFE03469CB2DE
:1035A0000C48FCF7A7FE034622460A490A483CF0AD
:1035B00043FE054B1B68184640F0E0FE00BF00BF0D
:1035C0000C37BD4690BD00BF54D1002414CC060872
:1035D0002C630608A8D100249C64002484040124E0
:1035E0004C63060874630608A0630608C8630608EF
:1035F000F0630608186406084C64060890B583B0AA
:1036000000AF834B1B6841F28831184640F06BFED7
:10361000804B1B79804A814981485FF0D9FD804801
:10362000FCF768FE03469CB27D48FCF763FE034648
:1036300022467B497B483CF0FFFD754B1B681846D2
:1036400040F09CFE734B04331B783B713B7903F0D5
:103650000103DBB2002B1ED06D4B1B6841F2883199
:10366000184640F040FE6C4A6F496D485FF0B0FD6F
:103670006B48FCF73FFE03469CB26948FCF73AFEF4
:1036800003462246664967483CF0D6FD604B1B68FE
:10369000184640F073FE3B7903F00203DBB2002BC7
:1036A0001ED05B4B1B6841F28831184640F01BFE70
:1036B000594A5E495A485FF08BFD5948FCF71AFE9B
:1036C00003469CB25648FCF715FE03462246544971
:1036D00054483CF0B1FD4E4B1B68184640F04EFE7E
:1036E0003B7903F00403DBB2002B1ED0484B1B6870
:1036F00041F28831184640F0F6FD474A4C494848A7
:103700005FF066FD4648FCF7F5FD03469CB2444871
:10371000FCF7F0FD03462246414942483CF08CFD4F
:103720003B4B1B68184640F029FE3B7903F0080329
:10373000DBB2002B1ED0364B1B6841F28831184695
:1037400040F0D1FD344A3B4935485FF041FD3448F3
:10375000FCF7D0FD03469CB23148FCF7CBFD034695
:1037600022462F492F483CF067FD294B1B6818461D
:1037700040F004FE3B7903F01003DBB2002B1ED0B7
:10378000234B1B6841F28831184640F0ACFD224AB9
:10379000294923485FF01CFD2148FCF7ABFD034697
:1037A0009CB21F48FCF7A6FD034622461C491D4853
:1037B0003CF042FD164B1B68184640F0DFFD3B799C
:1037C00003F02003DBB2002B1ED0114B1B6841F22B
:1037D0008831184640F087FD0F4A184910485FF0BD
:1037E000F7FC0F48FCF786FD03469CB20C48FCF73B
:1037F00081FD034622460A490A483CF01DFD044B60
:103800001B68184640F0BAFD00BF0C37BD4690BD9E
:1038100054D100248404012434CC0608A064060892
:10382000A8D100249C640024B8640608D864060863
:10383000FC640608286506084C65060868650608E5
:1038400090B587B002AF9B4B1B6841F28831184698
:1038500040F049FD984B1B79984A994999485FF087
:10386000B7FC9848FCF746FD03469CB29548FCF728
:1038700041FD03462246934993483CF0DDFC8D4BC5
:103880001B68184640F07AFD8A4B1B6841F288316C
:10389000184640F028FD884B5B79884A8B49894857
:1038A0005FF096FC8748FCF725FD03469CB28548EF
:1038B000FCF720FD03462246824983483CF0BCFCCD
:1038C0007C4B1B68184640F059FD7A4B1B6841F24F
:1038D0008831184640F007FD774B9B79774A7C4941
:1038E00078485FF075FC7748FCF704FD03469CB20E
:1038F0007448FCF7FFFC03462246724972483CF0CC
:103900009BFC6C4B1B68184640F038FD694B1B68EC
:1039100041F28831184640F0E6FC674BDB79674A94
:103920006C4968485FF054FC6648FCF7E3FC0346CA
:103930009CB26448FCF7DEFC0346224661496248BB
:103940003CF07AFC5B4B1B68184640F017FD594B66
:103950001B6841F28831184640F0C5FC564B1B7A73
:10396000564A5D4957485FF033FC5648FCF7C2FCA5
:1039700003469CB25348FCF7BDFC0346224651491E
:1039800051483CF059FC4B4B1B68184640F0F6FC84
:10399000484B1B6841F28831184640F0A4FC464B66
:1039A0005B7A464A4D4947485FF012FC4548FCF7B0
:1039B000A1FC03469CB24348FCF79CFC034622460C
:1039C000404941483CF038FC3A4B1B68184640F0EF
:1039D000D5FC384B1B6841F28831184640F083FC17
:1039E000354B9B7A354A3E4936485FF0F1FB354806
:1039F000FCF780FC03469CB23248FCF77BFC034694
:103A00002246304930483CF017FC2A4B1B681846C8
:103A100040F0B4FC274B1B6841F28831184640F057
:103A200062FC254BDB7A254A2E4926485FF0D0FB05
:103A30002448FCF75FFC03469CB22248FCF75AFC82
:103A4000034622461F4920483CF0F6FB194B1B68F1
:103A5000184640F093FC0023FB730023BB607EE01C
:103A6000144B1B6841F28831184640F03CFC124A66
:103A7000BB68083313441B790093BB680F4A1A498B
:103A800010485FF0A5FB0F48FCF734FC03469CB2DE
:103A90000C48FCF72FFC034622460A490A483CF032
:103AA000CBFB044B1B68184640F068FC00237B608E
:103AB0004FE000BF54D100248404012464CC0608E4
:103AC00084650608A8D100249C640024BC6506080F
:103AD000F46506082C660608646606089C660608F7
:103AE000D46606080C67060844670608FB7B0133AA
:103AF000FB731F4ABB68083313441B791A467B6863
:103B000042FA03F303F00103002B1FD0194B1B688B
:103B100041F28831184640F0E6FBFB7B164A174914
:103B200017485FF055FB1648FCF7E4FB03469CB2D0
:103B30001348FCF7DFFB03462246114911483CF0CD
:103B40007BFB0C4B1B68184640F018FC7B6801336C
:103B50007B607B68072BC9DDBB680133BB60BB683A
:103B60001F2B7FF77DAF00BF00BF1437BD4690BD50
:103B70008404012454D1002464CC06087467060828
:103B8000A8D100249C64002490B583B000AFB44B4E
:103B90001B6841F28831184640F0A5FBB14B1B79F8
:103BA000B14AB249B2485FF013FBB148FCF7A2FB3F
:103BB00003469CB2AE48FCF79DFB03462246AC4947
:103BC000AC483CF039FBA64B1B68184640F0D6FBCE
:103BD000A44B1B790A2B1FDC002BC0F25F810A2B40
:103BE00000F25C8101A252F823F000BF213C0008E2
:103BF000613C00089D3E0008A13C0008E13C000833
:103C0000213D00089D3E0008613D00089D3E0008E2
:103C1000A13D0008E13D0008FF2B00F001813DE1DE
:103C20008F4B1B6841F28831184640F05CFB8E4A8E
:103C300091498F485FF0CCFA8D48FCF75BFB034657
:103C40009CB28B48FCF756FB0346224688498948BC
:103C50003CF0F2FA824B1B68184640F08FFB3FE1C4
:103C60007F4B1B6841F28831184640F03CFB7E4A8E
:103C700082497F485FF0ACFA7D48FCF73BFB034686
:103C80009CB27B48FCF736FB0346224678497948CC
:103C90003CF0D2FA724B1B68184640F06FFB1FE1F4
:103CA0006F4B1B6841F28831184640F01CFB6E4A8E
:103CB00073496F485FF08CFA6D48FCF71BFB0346B5
:103CC0009CB26B48FCF716FB0346224668496948DC
:103CD0003CF0B2FA624B1B68184640F04FFBFFE025
:103CE0005F4B1B6841F28831184640F0FCFA5E4A8F
:103CF00064495F485FF06CFA5D48FCF7FBFA0346E5
:103D00009CB25B48FCF7F6FA0346224658495948EC
:103D10003CF092FA524B1B68184640F02FFBDFE054
:103D20004F4B1B6841F28831184640F0DCFA4E4A8E
:103D300055494F485FF04CFA4D48FCF7DBFA034613
:103D40009CB24B48FCF7D6FA0346224648494948FC
:103D50003CF072FA424B1B68184640F00FFBBFE084
:103D60003F4B1B6841F28831184640F0BCFA3E4A8E
:103D700046493F485FF02CFA3D48FCF7BBFA034642
:103D80009CB23B48FCF7B6FA03462246384939480C
:103D90003CF052FA324B1B68184640F0EFFA9FE0B5
:103DA0002F4B1B6841F28831184640F09CFA2E4A8E
:103DB00037492F485FF00CFA2D48FCF79BFA034671
:103DC0009CB22B48FCF796FA03462246284929481C
:103DD0003CF032FA224B1B68184640F0CFFA7FE0E5
:103DE0001F4B1B6841F28831184640F07CFA1E4A8E
:103DF00028491F485FF0ECF91D48FCF77BFA0346A1
:103E00009CB21B48FCF776FA03462246184919482B
:103E10003CF012FA124B1B68184640F0AFFA5FE014
:103E20000F4B1B6841F28831184640F05CFA0E4A8D
:103E300019490F485FF0CCF90D48FCF75BFA0346CF
:103E40009CB20B48FCF756FA03462246084909483B
:103E50003CF0F2F9024B1B68184640F08FFA3FE045
:103E600054D100248404012494CC0608A8670608D1
:103E7000A8D100249C640024D4670608FC670608C7
:103E80004068060868680608B4680608DC68060822
:103E90000469060834690608646906089B4B1B68B8
:103EA00041F28831184640F01EFA994B1B79994A25
:103EB00099499A485FF08CF99848FCF71BFA034639
:103EC0009CB29648FCF716FA03462246934994485A
:103ED0003CF0B2F98D4B1B68184640F04FFA00BF1A
:103EE0008A4B1B6841F28831184640F0FCF9884B38
:103EF0005B79884A8B4989485FF06AF98748FCF703
:103F0000F9F903469CB28548FCF7F4F903462246CA
:103F1000824983483CF090F97C4B1B68184640F07E
:103F20002DFA7B4B5B79002B1FD0784B1B6841F23D
:103F30008831184640F0D7F9764A7B4977485FF0D8
:103F400047F97648FCF7D6F903469CB27348FCF76C
:103F5000D1F903462246714971483CF06DF96B4B2B
:103F60001B68184640F00AFA1EE0684B1B6841F2D5
:103F70008831184640F0B7F9664A6C4967485FF0E7
:103F800027F96648FCF7B6F903469CB26348FCF78C
:103F9000B1F903462246614961483CF04DF95B4B5B
:103FA0001B68184640F0EAF9584B1B6841F288310B
:103FB000184640F098F9564B9B79564A5C49574849
:103FC0005FF006F95548FCF795F903469CB2534853
:103FD000FCF790F903462246504951483CF02CF931
:103FE0004A4B1B68184640F0C9F9494B9B79202B76
:103FF0006CD0202B00F3A680102B47D0102B00F3A1
:10400000A180002B02D0012B20D09BE03F4B1B68EE
:1040100041F28831184640F066F93E4A45493F482A
:104020005FF0D6F83D48FCF765F903469CB23B4883
:10403000FCF760F903462246384939483CF0FCF861
:10404000324B1B68184640F099F99DE02F4B1B68D6
:1040500041F28831184640F046F92E4A36492F4839
:104060005FF0B6F82D48FCF745F903469CB22B48A3
:10407000FCF740F903462246284929483CF0DCF881
:10408000224B1B68184640F079F97DE01F4B1B68F6
:1040900041F28831184640F026F91E4A27491F4848
:1040A0005FF096F81D48FCF725F903469CB21B48C3
:1040B000FCF720F903462246184919483CF0BCF8A1
:1040C000124B1B68184640F059F95DE00F4B1B6816
:1040D00041F28831184640F006F90E4A18490F4857
:1040E0005FF076F80D48FCF705F903469CB20B48E3
:1040F000FCF700F903462246084909483CF09CF8C1
:10410000024B1B68184640F039F93DE054D10024B9
:104110008404012494CC060890690608A8D10024E0
:104120009C640024CC690608F86906084C6A0608F5
:10413000886A0608B46A0608086B06084C6B06080D
:10414000A46B0608DB4B1B6841F28831184640F02F
:10415000CAF8D94B9B79D94AD949DA485FF038F87F
:10416000D848FCF7C7F803469CB2D648FCF7C2F81B
:1041700003462246D349D4483CF05EF8CD4B1B6839
:10418000184640F0FBF800BFCA4B1B6841F288316B
:10419000184640F0A8F8C84BDB79C84ACB49C94853
:1041A0005FF016F8C748FCF7A5F803469CB2C5486F
:1041B000FCF7A0F803462246C249C3483CF03CF84D
:1041C000BC4B1B68184640F0D9F8BB4BDB79A12BE0
:1041D00000F34C81002B40F3D984013BA02B00F26B
:1041E000D58401A252F823F0554500081148000873
:1041F00075440008D5440008CD4A00080D4B00085E
:104200004D4B000851490008D14900088D4B00086A
:104210008D4B00088D4B00088D4B00088D4B00081E
:10422000554600085148000891480008D148000848
:10423000114900088D4B0008114A000891490008F7
:1042400095460008514A00088D4B00088D4B000828
:104250008D4B00088D4B00088D4B00088D4B0008DE
:104260008D4B000855470008D14700088D4B0008CA
:104270008D4B00088D4B00088D4B00088D4B0008BE
:104280008D4B00088D4B00088D4B00088D4B0008AE
:104290008D4B00088D4B00088D4B00088D4B00089E
:1042A0008D4B0008D5450008954500088D4B00084A
:1042B0008D4B00088D4B00088D4B00088D4B00087E
:1042C0008D4B00088D4B00088D4B00088D4B00086E
:1042D0008D4B00088D4B00088D4B00088D4B00085E
:1042E0008D4B0008154500088D4B00088D4B0008CC
:1042F0008D4B00088D4B00088D4B00088D4B00083E
:104300008D4B00088D4B00088D4B00088D4B00082D
:104310008D4B00088D4B00088D4B00088D4B00081D
:104320008D4B0008D54600088D4B00088D4B0008CA
:104330008D4B00088D4B00088D4B00088D4B0008FD
:104340008D4B00088D4B00088D4B00088D4B0008ED
:104350008D4B00088D4B00088D4B00088D4B0008DD
:104360008D4B00088D4B00088D4B00088D4B0008CD
:104370008D4B00088D4B00088D4B00088D4B0008BD
:104380008D4B00088D4B00088D4B00088D4B0008AD
:104390008D4B00088D4B00088D4B00088D4B00089D
:1043A0008D4B00088D4B00088D4B00088D4B00088D
:1043B0008D4B00088D4B00088D4B00088D4B00087D
:1043C0008D4B00088D4B00088D4B00088D4B00086D
:1043D0008D4B00088D4B00088D4B00088D4B00085D
:1043E0008D4B00088D4B00088D4B00088D4B00084D
:1043F0008D4B00088D4B00088D4B00088D4B00083D
:104400008D4B00088D4B00088D4B00088D4B00082C
:104410008D4B00088D4B00088D4B00088D4B00081C
:104420008D4B00088D4B00088D4B00088D4B00080C
:104430008D4B00088D4B00088D4B00088D4B0008FC
:104440008D4B00088D4B00088D4B00088D4B0008EC
:104450008D4B00088D4B00088D4B00088D4B0008DC
:104460008D4B00088D4B000815470008FF2B00F00E
:10447000D1808BE30F4B1B6841F2883118463FF027
:1044800032FF0E4A12490F485EF0A2FE0D48FBF7BC
:1044900031FF03469CB20B48FBF72CFF0346224634
:1044A000084909483BF0C8FE024B1B6818463FF01C
:1044B00065FF8DE354D100248404012494CC0608C4
:1044C000FC6B0608A8D100249C6400243C6C060800
:1044D000686C0608AF4B1B6841F2883118463FF004
:1044E00002FFAD4AAD49AE485EF072FEAC48FBF744
:1044F00001FF03469CB2AA48FBF7FCFE0346224696
:10450000A749A8483BF098FEA24B1B6818463FF00D
:1045100035FF5DE39F4B1B6841F2883118463FF041
:10452000E2FE9D4AA0499E485EF052FE9C48FBF781
:10453000E1FE03469CB29A48FBF7DCFE03462246A6
:10454000974998483BF078FE924B1B6818463FF01D
:1045500015FF3DE38F4B1B6841F2883118463FF051
:10456000C2FE8D4A91498E485EF032FE8C48FBF7C0
:10457000C1FE03469CB28A48FBF7BCFE03462246B6
:10458000874988483BF058FE824B1B6818463FF02D
:10459000F5FE1DE37F4B1B6841F2883118463FF062
:1045A000A2FE7D4A82497E485EF012FE7C48FBF7FF
:1045B000A1FE03469CB27A48FBF79CFE03462246C6
:1045C000774978483BF038FE724B1B6818463FF03D
:1045D000D5FEFDE26F4B1B6841F2883118463FF073
:1045E00082FE6D4A73496E485EF0F2FD6C48FBF73F
:1045F00081FE03469CB26A48FBF77CFE03462246D6
:10460000674968483BF018FE624B1B6818463FF04C
:10461000B5FEDDE25F4B1B6841F2883118463FF082
:1046200062FE5D4A64495E485EF0D2FD5C48FBF77D
:1046300061FE03469CB25A48FBF75CFE03462246E5
:10464000574958483BF0F8FD524B1B6818463FF05D
:1046500095FEBDE24F4B1B6841F2883118463FF092
:1046600042FE4D4A55494E485EF0B2FD4C48FBF7BC
:1046700041FE03469CB24A48FBF73CFE03462246F5
:10468000474948483BF0D8FD424B1B6818463FF06D
:1046900075FE9DE23F4B1B6841F2883118463FF0A2
:1046A00022FE3D4A46493E485EF092FD3C48FBF7FB
:1046B00021FE03469CB23A48FBF71CFE0346224605
:1046C000374938483BF0B8FD324B1B6818463FF07D
:1046D00055FE7DE22F4B1B6841F2883118463FF0B2
:1046E00002FE2D4A37492E485EF072FD2C48FBF73A
:1046F00001FE03469CB22A48FBF7FCFD0346224616
:10470000274928483BF098FD224B1B6818463FF08C
:1047100035FE5DE21F4B1B6841F2883118463FF0C1
:10472000E2FD1D4A28491E485EF052FD1C48FBF779
:10473000E1FD03469CB21A48FBF7DCFD0346224626
:10474000174918483BF078FD124B1B6818463FF09C
:1047500015FE3DE20F4B1B6841F2883118463FF0D1
:10476000C2FD0D4A19490E485EF032FD0C48FBF7B8
:10477000C1FD03469CB20A48FBF7BCFD0346224636
:10478000074908483BF058FD024B1B6818463FF0AC
:10479000F5FD1DE254D1002494CC0608846C060873
:1047A000A8D100249C640024986C0608B06C06080C
:1047B000CC6C0608DC6C0608F46C0608106D060864
:1047C0002C6D0608446D0608606D0608786D0608B5
:1047D000AF4B1B6841F2883118463FF084FDAD4A6B
:1047E000AD49AE485EF0F4FCAC48FBF783FD0346F0
:1047F0009CB2AA48FBF77EFD03462246A749A8487B
:104800003BF01AFDA24B1B6818463FF0B7FDDFE1F5
:104810009F4B1B6841F2883118463FF064FD9D4A6A
:10482000A0499E485EF0D4FC9C48FBF763FD03461C
:104830009CB29A48FBF75EFD03462246974998488A
:104840003BF0FAFC924B1B6818463FF097FDBFE126
:104850008F4B1B6841F2883118463FF044FD8D4A6A
:1048600091498E485EF0B4FC8C48FBF743FD03464B
:104870009CB28A48FBF73EFD03462246874988489A
:104880003BF0DAFC824B1B6818463FF077FD9FE156
:104890007F4B1B6841F2883118463FF024FD7D4A6A
:1048A00082497E485EF094FC7C48FBF723FD03467A
:1048B0009CB27A48FBF71EFD0346224677497848AA
:1048C0003BF0BAFC724B1B6818463FF057FD7FE186
:1048D0006F4B1B6841F2883118463FF004FD6D4A6A
:1048E00073496E485EF074FC6C48FBF703FD0346A9
:1048F0009CB26A48FBF7FEFC0346224667496848BB
:104900003BF09AFC624B1B6818463FF037FD5FE1B5
:104910005F4B1B6841F2883118463FF0E4FC5D4A6A
:1049200064495E485EF054FC5C48FBF7E3FC0346D8
:104930009CB25A48FBF7DEFC0346224657495848CA
:104940003BF07AFC524B1B6818463FF017FD3FE1E5
:104950004F4B1B6841F2883118463FF0C4FC4D4A6A
:1049600055494E485EF034FC4C48FBF7C3FC034607
:104970009CB24A48FBF7BEFC0346224647494848DA
:104980003BF05AFC424B1B6818463FF0F7FC1FE116
:104990003F4B1B6841F2883118463FF0A4FC3D4A6A
:1049A00046493E485EF014FC3C48FBF7A3FC034636
:1049B0009CB23A48FBF79EFC0346224637493848EA
:1049C0003BF03AFC324B1B6818463FF0D7FCFFE047
:1049D0002F4B1B6841F2883118463FF084FC2D4A6A
:1049E00037492E485EF0F4FB2C48FBF783FC034666
:1049F0009CB22A48FBF77EFC0346224627492848FA
:104A00003BF01AFC224B1B6818463FF0B7FCDFE076
:104A10001F4B1B6841F2883118463FF064FC1D4A69
:104A200028491E485EF0D4FB1C48FBF763FC034694
:104A30009CB21A48FBF75EFC034622461749184809
:104A40003BF0FAFB124B1B6818463FF097FCBFE0A7
:104A50000F4B1B6841F2883118463FF044FC0D4A69
:104A600019490E485EF0B4FB0C48FBF743FC0346C3
:104A70009CB20A48FBF73EFC034622460749084819
:104A80003BF0DAFB024B1B6818463FF077FC9FE0D7
:104A900054D1002494CC0608906D0608A8D10024B7
:104AA0009C640024AC6D0608C86D0608E06D06081D
:104AB000FC6D0608146E06082C6E0608406E06088B
:104AC000586E0608746E0608886E0608AF4B1B68A1
:104AD00041F2883118463FF006FCAD4AAD49AE4878
:104AE0005EF076FBAC48FBF705FC03469CB2AA4897
:104AF000FBF700FC03462246A749A8483BF09CFB75
:104B0000A24B1B6818463FF039FC61E09F4B1B68C5
:104B100041F2883118463FF0E6FB9D4AA0499E4885
:104B20005EF056FB9C48FBF7E5FB03469CB29A48B7
:104B3000FBF7E0FB03462246974998483BF07CFB95
:104B4000924B1B6818463FF019FC41E08F4B1B68E5
:104B500041F2883118463FF0C6FB8D4A91498E4894
:104B60005EF036FB8C48FBF7C5FB03469CB28A48D7
:104B7000FBF7C0FB03462246874988483BF05CFBB5
:104B8000824B1B6818463FF0F9FB21E07F4B1B6806
:104B900041F2883118463FF0A6FB834BDB797C4A13
:104BA00082497D485EF014FB7B48FBF7A3FB03467C
:104BB0009CB27948FBF79EFB03462246764977482C
:104BC0003BF03AFB714B1B6818463FF0D7FB00BF28
:104BD0006E4B1B6841F2883118463FF084FB724BE4
:104BE0001B7A6B4A72496C485EF0F2FA6A48FBF72E
:104BF00081FB03469CB26848FBF77CFB03462246D8
:104C0000654966483BF018FB604B1B6818463FF04F
:104C1000B5FB654BDB79022B40F05881624B1B7A68
:104C2000072B00F2318101A252F823F04D4C00080D
:104C30008D4C0008CD4C00080D4D00084D4D00086E
:104C4000C94D0008094E0008494E00084F4B1B682B
:104C500041F2883118463FF046FB4D4A55494E48CF
:104C60005EF0B6FA4C48FBF745FB03469CB24A4857
:104C7000FBF740FB03462246474948483BF0DCFA35
:104C8000424B1B6818463FF079FB1FE13F4B1B6806
:104C900041F2883118463FF026FB3D4A46493E48DE
:104CA0005EF096FA3C48FBF725FB03469CB23A4877
:104CB000FBF720FB03462246374938483BF0BCFA55
:104CC000324B1B6818463FF059FBFFE02F4B1B6827
:104CD00041F2883118463FF006FB2D4A37492E48ED
:104CE0005EF076FA2C48FBF705FB03469CB22A4897
:104CF000FBF700FB03462246274928483BF09CFA75
:104D0000224B1B6818463FF039FBDFE01F4B1B6846
:104D100041F2883118463FF0E6FA1D4A28491E48FC
:104D20005EF056FA1C48FBF7E5FA03469CB21A48B7
:104D3000FBF7E0FA03462246174918483BF07CFA95
:104D4000124B1B6818463FF019FBBFE00F4B1B6866
:104D500041F2883118463FF0C6FA0D4A19490E480B
:104D60005EF036FA0C48FBF7C5FA03469CB20A48D7
:104D7000FBF7C0FA03462246074908483BF05CFAB5
:104D8000024B1B6818463FF0F9FA9FE054D100240B
:104D900094CC0608A46E0608A8D100249C640024C4
:104DA000C06E0608D46E060884040124F46E06085A
:104DB000306F06085C6F0608846F0608AC6F060843
:104DC000C86F0608E86F0608944B1B6841F28831EB
:104DD00018463FF088FA924A924993485EF0F8F9F3
:104DE0009148FBF787FA03469CB28F48FBF782FA9B
:104DF000034622468C498D483BF01EFA874B1B68C0
:104E000018463FF0BBFA61E0844B1B6841F28831E1
:104E100018463FF068FA824A854983485EF0D8F91F
:104E20008148FBF767FA03469CB27F48FBF762FABA
:104E3000034622467C497D483BF0FEF9774B1B68D0
:104E400018463FF09BFA41E0744B1B6841F28831F1
:104E500018463FF048FA724A764973485EF0B8F94E
:104E60007148FBF747FA03469CB26F48FBF742FADA
:104E7000034622466C496D483BF0DEF9674B1B68E0
:104E800018463FF07BFA21E0644B1B6841F2883101
:104E900018463FF028FA684B1B7A614A6749624816
:104EA0005EF096F96048FBF725FA03469CB25E482F
:104EB000FBF720FA034622465B495C483BF0BCF90D
:104EC000564B1B6818463FF059FA00BF534B1B68FE
:104ED00041F2883118463FF006FA574B5B7A504A48
:104EE000574951485EF074F94F48FBF703FA0346FF
:104EF0009CB24D48FBF7FEF9034622464A494B480F
:104F00003BF09AF9454B1B6818463FF037FA4A4B7D
:104F10005B7B7B60484A7B68063313441B791B022A
:104F200045497A6807320A44127913441B02424900
:104F30007A6808320A44127913441B023E497A689F
:104F400009320A44127913443B60344B1B6841F226
:104F5000883118463FF0C7F93B68314A3949324831
:104F60005EF036F93048FBF7C5F903469CB22E488F
:104F7000FBF7C0F9034622462B492C483BF05CF96D
:104F8000264B1B6818463FF0F9F9002200218020CB
:104F900002F0A4FF03F0ACF902F038FF03F07AFA54
:104FA00002F0CCFE02F0FEFE03F040FA002003F017
:104FB000DDFA03F0A7FA03F015FB002209214020D7
:104FC00002F08CFF0522C821122002F087FF002288
:104FD000C821032002F082FF00220021012002F0FC
:104FE0007DFF00220021132002F078FF0022002123
:104FF000052002F073FF00220021202002F06EFF46
:1050000000220021102002F069FF0022002111205F
:1050100002F064FF00BF0C37BD4690BD54D10024A0
:1050200094CC060800700608A8D100249C640024D3
:1050300020700608347006088404012448700608AD
:1050400088700608B470060890B589B002AFBA4BF4
:105050001B6841F2883118463FF045F9B74B1B7980
:10506000B74AB849B8485EF0B3F8B748FBF742F919
:1050700003469CB2B448FBF73DF903462246B249C9
:10508000B2483BF0D9F8AC4B1B6818463FF076F9B4
:10509000AA4B1B79402B00F38B80002BC0F2C082FF
:1050A000402B00F2BD8201A252F823F0B951000852
:1050B000F9510008395200082954000879520008B3
:1050C000695400082156000821560008B95200080A
:1050D00021560008215600082156000821560008D4
:1050E000215600082156000821560008F9520008F0
:1050F000A9540008E9540008295500082156000861
:1051000069550008A95500082156000821560008D5
:105110002156000821560008215600082156000893
:10512000215600082156000821560008695300083E
:105130002156000821560008215600082156000873
:105140002156000821560008215600082156000863
:105150002156000821560008215600082156000853
:105160002156000821560008215600082156000843
:105170002156000821560008215600082156000833
:105180002156000821560008215600082156000823
:105190002156000821560008215600082156000813
:1051A000215600082156000821560008A95300087E
:1051B000802B00F0198133E25F4B1B6841F288318C
:1051C00018463FF090F85E4A61495F485EF000F88B
:1051D0005D48FBF78FF803469CB25B48FBF78AF803
:1051E00003462246584959483BF026F8524B1B6863
:1051F00018463FF0C3F835E24F4B1B6841F2883147
:1052000018463FF070F84E4A52494F485DF0E0FFB3
:105210004D48FBF76FF803469CB24B48FBF76AF822
:1052200003462246484949483BF006F8424B1B6872
:1052300018463FF0A3F815E23F4B1B6841F2883156
:1052400018463FF050F83E4A43493F485DF0C0FFE2
:105250003D48FBF74FF803469CB23B48FBF74AF842
:1052600003462246384939483AF0E6FF324B1B687C
:1052700018463FF083F8F5E12F4B1B6841F2883167
:1052800018463FF030F82E4A34492F485DF0A0FF11
:105290002D48FBF72FF803469CB22B48FBF72AF862
:1052A00003462246284929483AF0C6FF224B1B688C
:1052B00018463FF063F8D5E11F4B1B6841F2883177
:1052C00018463FF010F81E4A25491F485DF080FF40
:1052D0001D48FBF70FF803469CB21B48FBF70AF882
:1052E00003462246184919483AF0A6FF124B1B689C
:1052F00018463FF043F8B5E10F4B1B6841F2883187
:1053000018463EF0F0FF0E4A16490F485DF060FF68
:105310000D48FAF7EFFF03469CB20B48FAF7EAFF95
:1053200003462246084909483AF086FF024B1B68AB
:1053300018463FF023F895E154D100248404012459
:10534000B8CC0608E0700608A8D100249C640024AC
:1053500008710608347106085C7106088C7106082D
:10536000BC710608EC7106089F4B1B6841F288313E
:1053700018463EF0B8FF9D4A9D499E485DF028FFC3
:105380009C48FAF7B7FF03469CB29A48FAF7B2FF77
:1053900003462246974998483AF04EFF924B1B68C5
:1053A00018463EF0EBFF5DE18F4B1B6841F2883100
:1053B00018463EF098FF8D4A90498E485DF008FFF0
:1053C0008C48FAF797FF03469CB28A48FAF792FF97
:1053D00003462246874988483AF02EFF824B1B68D5
:1053E00018463EF0CBFF3DE17F4B1B6841F2883110
:1053F00018463EF078FF7D4A81497E485DF0E8FE20
:105400007C48FAF777FF03469CB27A48FAF772FFB6
:1054100003462246774978483AF00EFF724B1B68E4
:1054200018463EF0ABFF1DE16F4B1B6841F288311F
:1054300018463EF058FF6D4A72496E485DF0C8FE4E
:105440006C48FAF757FF03469CB26A48FAF752FFD6
:1054500003462246674968483AF0EEFE624B1B68F5
:1054600018463EF08BFFFDE05F4B1B6841F2883130
:1054700018463EF038FF5D4A63495E485DF0A8FE7D
:105480005C48FAF737FF03469CB25A48FAF732FFF6
:1054900003462246574958483AF0CEFE524B1B6805
:1054A00018463EF06BFFDDE04F4B1B6841F2883140
:1054B00018463EF018FF4D4A54494E485DF088FEAC
:1054C0004C48FAF717FF03469CB24A48FAF712FF16
:1054D00003462246474948483AF0AEFE424B1B6815
:1054E00018463EF04BFFBDE03F4B1B6841F2883150
:1054F00018463EF0F8FE3D4A45493E485DF068FEDC
:105500003C48FAF7F7FE03469CB23A48FAF7F2FE37
:1055100003462246374938483AF08EFE324B1B6824
:1055200018463EF02BFF9DE02F4B1B6841F288315F
:1055300018463EF0D8FE2D4A36492E485DF048FE0A
:105540002C48FAF7D7FE03469CB22A48FAF7D2FE57
:1055500003462246274928483AF06EFE224B1B6834
:1055600018463EF00BFF7DE01F4B1B6841F288316F
:1055700018463EF0B8FE1D4A27491E485DF028FE39
:105580001C48FAF7B7FE03469CB21A48FAF7B2FE77
:1055900003462246174918483AF04EFE124B1B6844
:1055A00018463EF0EBFE5DE00F4B1B6841F2883180
:1055B00018463EF098FE0D4A18490E485DF008FE68
:1055C0000C48FAF797FE03469CB20A48FAF792FE97
:1055D00003462246074908483AF02EFE024B1B6854
:1055E00018463EF0CBFE3DE054D10024B8CC06086E
:1055F00024720608A8D100249C6400245072060876
:105600007C720608B0720608E0720608107306087D
:105610004C73060884730608BC730608F07306080A
:105620007E4B1B6841F2883118463EF05CFE7C4B95
:105630001B797C4A7C497D485DF0CAFD7B48FAF7BE
:1056400059FE03469CB27948FAF754FE03462246B7
:10565000764977483AF0F0FD704B1B6818463EF0EB
:105660008DFE00BF6E4B1B79012B40F08E806B4B83
:105670001B6841F2883118463EF035FE684B5B7975
:10568000684A6C4969485DF0A3FD6848FAF732FE44
:1056900003469CB26548FAF72DFE0346224663494D
:1056A00063483AF0C9FD5D4B1B6818463EF066FE44
:1056B0000023FB7500233B6164E0584B1B6841F2FB
:1056C000883118463EF00FFE554A3B6902331344B9
:1056D0001B7900933B69534A574954485DF078FD64
:1056E0005248FAF707FE03469CB25048FAF702FE0A
:1056F000034622464D494E483AF09EFD474B1B68F3
:1057000018463EF03BFE0023FB6035E0FB7D013395
:10571000FB75434A3B69023313441B791A46FB6805
:1057200042FA03F303F00103002B22D03B4B1B682A
:1057300041F2883118463EF0D6FDFA7DFB7D00939C
:105740001346384A3D4939485DF042FD3748FAF77B
:10575000D1FD03469CB23548FAF7CCFD03462246FC
:10576000324933483AF068FD2C4B1B6818463EF02E
:1057700005FEFB680133FB60FB68072BC6DD3B6958
:1057800001333B613B69102B97DD254B1B79032BC4
:1057900079D1224B1B6841F2883118463EF0A3FDB7
:1057A0001F4B5B791F4A264920485DF011FD1F48B9
:1057B000FAF7A0FD03469CB21C48FAF79BFD03468E
:1057C00022461A491A483AF037FD144B1B6818460E
:1057D0003EF0D4FD124B5B79002B35D00F4B1B688C
:1057E00041F2883118463EF07EFD0E4A15490F48B9
:1057F0005DF0EEFC0D48FAF77DFD03469CB20B48C8
:10580000FAF778FD03462246084909483AF014FDA4
:10581000024B1B6818463EF0B1FD34E054D1002421
:1058200084040124B8CC060820740608A8D10024FA
:105830009C6400246474060884740608AC7406082A
:10584000E074060808750608704B1B6841F2883141
:1058500018463EF048FD6E4A6E496F485DF0B8FC50
:105860006D48FAF747FD03469CB26B48FAF742FDD4
:1058700003462246684969483AF0DEFC634B1B68E0
:1058800018463EF07BFD664B1B79052B27D1644BF8
:105890005B791B029BB2624A927913447B815B4B1A
:1058A0001B6841F2883118463EF01DFD7B89584A3D
:1058B0005C4959485DF08CFC5748FAF71BFD0346DC
:1058C0009CB25548FAF716FD034622465249534802
:1058D0003AF0B2FC4D4B1B6818463EF04FFD504B62
:1058E0001B79102B22D14E4B5B797B72474B1B6887
:1058F00041F2883118463EF0F6FC7B7A444A4A4928
:1059000045485DF065FC4448FAF7F4FC03469CB258
:105910004148FAF7EFFC034622463F493F483AF038
:105920008BFC3A4B1B6818463EF028FD3C4B1B791C
:10593000112B22D13A4B5B793B72344B1B6841F2FD
:10594000883118463EF0CFFC3B7A314A374932481D
:105950005DF03EFC3048FAF7CDFC03469CB22E4881
:10596000FAF7C8FC034622462B492C483AF064FC5F
:10597000264B1B6818463EF001FD294B1B79122B64
:1059800079D1224B1B6841F2883118463EF0ABFCBE
:10599000234B5B791E4A26491F485DF019FC1E48BF
:1059A000FAF7A8FC03469CB21B48FAF7A3FC03468F
:1059B0002246194919483AF03FFC144B1B68184617
:1059C0003EF0DCFC164B5B79002B35D00F4B1B688F
:1059D00041F2883118463EF086FC0D4A15490E48C2
:1059E0005DF0F6FB0C48FAF785FC03469CB20A48CA
:1059F000FAF780FC03462246074908483AF01CFCA7
:105A0000024B1B6818463EF0B9FC34E054D1002428
:105A1000B8CC060848750608A8D100249C64002468
:105A20008404012494750608B0750608D475060828
:105A3000E0740608FC750608AC4B1B6841F288311F
:105A400018463EF050FCAA4AAA49AB485DF0C0FB9C
:105A5000A948FAF74FFC03469CB2A748FAF74AFC5C
:105A600003462246A449A5483AF0E6FB9F4B1B6833
:105A700018463EF083FCA24B1B79132B4FD1A04B51
:105A80005B791B029BB29E4A92791344FB809C4B2C
:105A9000DB791B029BB29A4A127A1344BB80934B68
:105AA0001B6841F2883118463EF01DFCFB88904A85
:105AB000944991485DF08CFB8F48FAF71BFC034634
:105AC0009CB28D48FAF716FC034622468A498B4859
:105AD0003AF0B2FB854B1B6818463EF04FFC834BF7
