:020000040800F2
:100000000000082425340108D9300108E130010836
:10001000E9300108F1300108F93001080000000062
:1000200000000000000000000000000051D30408A0
:100030000131010800000000A1D50408BDC3040877
:1000400079340108793401087934010879340108D8
:1000500079340108793401087934010879340108C8
:100060000F31010879340108793401087934010825
:1000700079340108793401087934010879340108A8
:100080007934010879340108793401087934010898
:100090007934010879340108793401087934010888
:1000A0007934010879340108793401087934010878
:1000B0007934010879340108793401087934010868
:1000C0007934010879340108793401087934010858
:1000D000793401081D3101083131010879340108F2
:1000E00079340108793401080000000079340108EE
:1000F0007934010879340108793401087934010828
:100100007934010879340108793401087934010817
:10011000793401087934010845310108793401083E
:1001200079340108793401087934010879340108F7
:1001300079340108793401087934010879340108E7
:100140007934010879340108000000000000000043
:1001500079340108793401087934010879340108C7
:1001600079340108793401087934010879340108B7
:10017000793401087934010879340108000000005D
:100180007934010879340108793401087934010897
:100190007934010879340108793401087934010887
:1001A00059310108793401086D31010879340108A9
:1001B0008131010879340108793401087934010862
:1001C0007934010879340108793401087934010857
:1001D0007934010879340108793401087934010847
:1001E0007934010879340108793401087934010837
:1001F0007934010879340108793401087934010827
:100200007934010879340108793401087934010816
:100210007934010879340108793401087934010806
:100220007934010895310108A93101080000000066
:1002300079340108793401087934010879340108E6
:1002400079340108793401087934010879340108D6
:1002500079340108793401087934010879340108C6
:1002600079340108793401087934010879340108B6
:1002700079340108793401087934010879340108A6
:10028000793401087934010879340108000000004C
:080290007934010879340108FA
:1002A00010B5054C237833B9044B13B10448AFF3B0
:1002B00000800123237010BDE05E002400000000D8
:1002C00050DC060808B5034B1BB103490348AFF3E4
:1002D000008008BD00000000E45E002450DC060839
:1002E00010F8012B11F8013B012A28BF9A42F7D0E0
:1002F000D01A7047034613F8012B002AFBD1181AB5
:1003000001387047000000000000000000000000FD
:1003100001F0FF01102A2BDB10F0070F08D010F8B6
:10032000013B013A8B422DD010F0070F42B3F6D1BA
:10033000F0B441EA012141EA014122F007047FF0D3
:1003400000070023F0E80256083C85EA010586EA2A
:10035000010685FA47F5A3FA87F586FA47F6A5FA66
:1003600087F68EB9EED1F0BC01F0FF0102F0070272
:1003700032B110F8013B013A83EA010313B1F8D11D
:100380000020704701387047002D06BF35460338FE
:10039000073815F0010F07D1013015F4807F02BF37
:1003A000013015F4C03F0130F0BC0138704700BF88
:1003B00081F0004102E000BF83F0004330B54FEA16
:1003C00041044FEA430594EA050F08BF90EA020F83
:1003D0001FBF54EA000C55EA020C7FEA645C7FEA16
:1003E000655C00F0E2804FEA5454D4EB5555B8BF39
:1003F0006D420CDD2C4480EA020281EA030382EAAA
:10040000000083EA010180EA020281EA0303362D3B
:1004100088BF30BD11F0004F4FEA01314FF4801C0E
:100420004CEA113102D0404261EB410113F0004F20
:100430004FEA03334CEA133302D0524263EB4303D7
:1004400094EA050F00F0A780A4F10104D5F1200E75
:100450000DDB02FA0EFC22FA05F2801841F10001D0
:1004600003FA0EF2801843FA05F359410EE0A5F1A4
:1004700020050EF1200E012A03FA0EFC28BF4CF0D5
:10048000020C43FA05F3C01851EBE37101F000458B
:1004900007D54FF0000EDCF1000C7EEB00006EEB98
:1004A0000101B1F5801F1BD3B1F5001F0CD3490822
:1004B0005FEA30004FEA3C0C04F101044FEA445279
:1004C00012F5800F80F09A80BCF1004F08BF5FEA00
:1004D000500C50F1000041EB045141EA050130BDE0
:1004E0005FEA4C0C404141EB0101013C28BFB1F5F2
:1004F000801FE9D291F0000F04BF01460020B1FA3D
:1005000081F308BF2033A3F10B03B3F120020CDA0F
:100510000C3208DD02F1140CC2F10C0201FA0CF0ED
:1005200021FA02F10CE002F11402D8BFC2F1200C52
:1005300001FA02F120FA0CFCDCBF41EA0C01904008
:10054000E41AA2BF01EB0451294330BD6FEA040451
:100550001F3C1CDA0C340EDC04F11404C4F120023C
:1005600020FA04F001FA02F340EA030021FA04F34E
:1005700045EA030130BDC4F10C04C4F1200220FAA5
:1005800002F001FA04F340EA0300294630BD21FAE3
:1005900004F0294630BD94F0000F83F4801306BFA9
:1005A00081F480110134013D4EE77FEA645C18BF9D
:1005B0007FEA655C29D094EA050F08BF90EA020F34
:1005C00005D054EA000C04BF1946104630BD91EA2C
:1005D000030F1EBF0021002030BD5FEA545C05D12F
:1005E0004000494128BF41F0004130BD14F580046E
:1005F0003CBF01F5801130BD01F0004545F0FE41E2
:1006000041F470014FF0000030BD7FEA645C1ABF16
:10061000194610467FEA655C1CBF0B46024650EA4D
:10062000013406BF52EA033591EA030F41F4002179
:1006300030BD00BF90F0000F04BF0021704730B5FF
:100640004FF4806404F132044FF000054FF00001D4
:1006500050E700BF90F0000F04BF0021704730B595
:100660004FF4806404F1320410F0004548BF40426A
:100670004FF000013EE700BF42004FEAE2014FEABF
:1006800031014FEA02701FBF12F07F4393F07F4F9A
:1006900081F06051704732F07F4208BF704793F09D
:1006A0007F4F04BF41F40021704730B54FF46074B0
:1006B00001F0004521F000411CE700BF50EA0102B3
:1006C00008BF704730B54FF000050AE050EA01025C
:1006D00008BF704730B511F0004502D5404261EBCC
:1006E00041014FF4806404F132045FEA915C3FF40D
:1006F000D8AE4FF003025FEADC0C18BF03325FEAAA
:10070000DC0C18BF033202EBDC02C2F1200300FA5A
:1007100003FC20FA02F001FA03FE40EA0E0021FA7F
:1007200002F11444BDE600BF7BB972B90029BEBF17
:1007300000204FF0004106E008BF00281CBF6FF00A
:1007400000414FF0FF3000F0D3B9ADF1080C6DE976
:1007500004CE002909DB002B1ADB00F04DF8DDF890
:1007600004E0DDE9022304B07047404261EB41013F
:10077000002B1BDB00F040F8DDF804E0DDE902238C
:1007800004B0404261EB4101524263EB43037047C6
:10079000524263EB430300F02FF8DDF804E0DDE99B
:1007A000022304B0404261EB41017047524263EBC7
:1007B000430300F021F8DDF804E0DDE9022304B092
:1007C000524263EB4303704753B94AB9002908BF4B
:1007D00000281CBF4FF0FF314FF0FF3000F088B908
:1007E000ADF1080C6DE904CE00F006F8DDF804E088
:1007F000DDE9022304B070472DE9F047089D8E46DD
:1008000004468846002B4AD18A42174662D9B2FA7A
:1008100082F64EB1C6F1200301FA06F820FA03F37E
:10082000B74043EA0808B4404FEA174E1FFA87FC66
:10083000B8FBFEF1230C0EFB118843EA084301FBD1
:100840000CF29A4209D9FB1801F1FF3080F0EA80DE
:100850009A4240F2E78002393B449A1AA3B2B2FBB3
:10086000FEF00EFB102243EA024300FB0CFC9C4509
:1008700009D9FB1800F1FF3280F0D6809C4540F288
:10088000D3803B44023840EA0140A3EB0C03002133
:100890001DB1F3400022C5E90032BDE8F0878B426C
:1008A00005D90DB1C5E9000100210846F5E7B3FA05
:1008B00083F1002946D1734502D3824200F20581BB
:1008C000841A6EEB030201209046002DE5D0C5E9A5
:1008D0000048E2E7002A00F09080B2FA82F6002E8B
:1008E00040F0A4808A1A030C4FEA174E80B2BCB2C3
:1008F0000121B2FBFEFC0EFB1C2243EA024304FB77
:100900000CF29A4207D9FB180CF1FF3802D29A4236
:1009100000F2E080C4469B1AB3FBFEF20EFB1233DA
:1009200040EA034302FB04F49C4207D9FB1802F19E
:10093000FF3002D29C4200F2CA8002461B1B42EAF0
:100940000C40A5E7C1F120068B4022FA06F71F43B1
:100950000EFA01F420FA06F32EFA06FE4FEA1749C2
:10096000234300FA01F81FFA87FCBEFBF9F01C0CC8
:1009700009FB10EE44EA0E4400FB0CFEA64502FA09
:1009800001F209D93C1900F1FF3A80F09C80A6459C
:1009900040F2998002383C44A4EB0E041FFA83FE17
:1009A000B4FBF9F309FB13444EEA044403FB0CFCCB
:1009B000A44508D93C1903F1FF3E80F08280A4458C
:1009C0007FD9023B3C4443EA0040A4EB0C04A0FB6B
:1009D00002EC64457346E14662D35FD05DB1B8EB8B
:1009E000030264EB090404FA06F622FA01F31E433B
:1009F000CC40C5E9006400214FE7B1FBF2FC010CDB
:100A000041EA0E4180B240EA01423B4638463C464C
:100A1000B846BE462026B1FBF7F1A2EB080241EA38
:100A20000C4166E7014618E710462CE7C6F12002A4
:100A30002EFA02F3B740B14020FA02F24FEA174E05
:100A40000A43B3FBFEF8BCB20EFB1833110C41EAAB
:100A5000034108FB04F9B04089454FEA104380B2D6
:100A60003ED9791808F1FF3C01D289451FD8A1EB86
:100A70000901B1FBFEF909FB04F80EFB191192B252
:100A800042EA0142424529D2BA1809F1FF31C4D2E3
:100A90004245C2D2A9F102013A44BEE7F0459DD2D7
:100AA000BEEB02036CEB070C0138E14696E7A7EBBF
:100AB00009094944A8F1020CB1FBFEF909FB04F84D
:100AC000DBE773467FE7504666E70846FDE63B44B2
:100AD000023A33E7ACF1020C3B441CE749469CE781
:100AE000A1EB0901C446B1FBFEF909FB04F8C4E718
:100AF000704700BF80B584B000AF11F0C7FA774BE4
:100B00005B6903F40033002B1BD1BFF34F8F00BF91
:100B1000BFF36F8F00BF714B0022C3F85022BFF3A9
:100B20004F8F00BFBFF36F8F00BF6C4B5B696B4A89
:100B300043F400335361BFF34F8F00BFBFF36F8F98
:100B400000E000BF654B5B6903F48033002B38D1B4
:100B5000624B0022C3F88420BFF34F8F00BF5F4B6E
:100B6000D3F88030FB60FB685B0BC3F30E03BB6004
:100B7000FB68DB08C3F309037B60BB685A0143F6DB
:100B8000E07313407A68920754491343C1F8603206
:100B90007B685A1E7A60002BEFD1BB685A1EBA6080
:100BA000002BE5D1BFF34F8F00BF4C4B5B694B4A25
:100BB00043F480335361BFF34F8F00BFBFF36F8F98
:100BC00000E000BF39F0B0F900F0C8F800F004FC14
:100BD00000F08CFB00F0AAFB00F0DCF900F046F915
:100BE00000F066F900F0C2F900F058FA00F07EF962
:100BF00000F0E4FA00F096FA12F0AAFB00F0BAFA5C
:100C000000F028FB00F078FA12F03EFC12F035FC00
:100C10004BF0EEFB32484BF0E2FC0346314A1360E6
:100C2000314A022140204BF007FF03462F4A136050
:100C30002F4A022140204BF0FFFE03462D4A13604D
:100C40002D4A01214FF400604BF0F6FE03462B4A7B
:100C500013602B4A01214FF480704BF0EDFE0346E8
:100C6000284A1360284A002128484BF00BFC034611
:100C7000274A1360274A002127484BF003FC03460C
:100C8000264A1360264A002126484BF0FBFB034608
:100C9000254A1360254A002125484BF0F3FB034603
:100CA000244A1360244A002124484BF0EBFB0346FE
:100CB000234A1360234A002123484BF0E3FB0346F9
:100CC000224A1360224A002122484BF0DBFB0346F4
:100CD000214A13604BF0B0FB00BFFDE700ED00E0E0
:100CE000DC89070868D500247C89070818CA002415
:100CF00094890708ECCA0024AC890708C0CB0024FB
:100D0000C489070814D400248088070865070108EF
:100D10000C660024A488070899340108B8760024DA
:100D2000C8880708810F0108BC760024EC880708F2
:100D3000E50F010868870024108907086110010881
:100D40001498002434890708C5100108C0A800249D
:100D500058890708291101086CB9002480B59CB096
:100D600000AF07F124034C22002118466AF021FD50
:100D70003B1D2022002118466AF01BFD042040F094
:100D8000AFFB00233B60374BDB6A364A23F001039D
:100D9000D362344BDB6A03F001033B60324B9B6947
:100DA000314A43F4404393612F4B9B6903F4404322
:100DB0003B603B6800BF2C4B9B6903F40053B3F5C9
:100DC000005FF8D12B237B624FF48033BB62012399
:100DD0003B6340237B630123BB630123FB6302234B
:100DE000BB640223FB6405233B65A0237B650223D0
:100DF000BB650423FB6502233B6608237B66002357
:100E0000BB660023FB6607F12403184641F04CFE45
:100E10000346002B01D011F083F93F237B600323AD
:100E2000BB600023FB6008233B6140237B614023C0
:100E3000BB614FF48063FB6140233B623B1D022199
:100E4000184642F0E1FB0346002B01D011F068F98F
:100E50004FF480220021002042F046FF00BF70378F
:100E6000BD4680BD000400580048025880B500AF60
:100E70000D4B0E4A1A600C4B00221A710A4B0022CD
:100E80005A71094B00225A61074B00229A61064BA6
:100E900001221A62044839F0CDFB0346002B01D031
:100EA00011F03EF900BF80BDFC5E0024004C0258EA
:100EB00080B500AF0B4B0C4A1A600A4B4FF440321E
:100EC0005A60084B02229A60064B0022DA600548FD
:100ED0003AF06CFA0346002B01D011F021F900BF63
:100EE00080BD00BF205F00240010005280B500AF1D
:100EF0001B4B1C4A1A601A4B1B4A5A60184B0022A3
:100F00009A60174B0122DA60154B00221A61144BCC
:100F100000225A61124B00229A61114B0022DA61C1
:100F20000F4B00221A620E483BF0B2F80346002B2A
:100F300001D011F0F5F8002109483BF02DFF0346E0
:100F4000002B01D011F0ECF8002105483BF09AFF8E
:100F50000346002B01D011F0E3F800BF80BD00BFB5
:100F6000885F0024001C0058B634900080B500AFA4
:100F7000064B074A1A6005483BF0F8FF0346002B72
:100F800001D011F0CDF800BF80BD00BFDC5F0024B0
:100F90000030005280B58EB000AF11F0FDF83B1D5F
:100FA0003422002118466AF004FC3A4B3A4A1A608F
:100FB000384B00225A60374B00229A60354B002292
:100FC000DA60344B00221A61324B28225A61314BCD
:100FD00009229A612F4B3522DA612E4B0B221A62BD
:100FE0002C4B40F215225A622A4B40F21B129A6295
:100FF000284B40F23522DA62264B40F21D121A636A
:10100000244B002283F83420224B002283F8352021
:10101000204B002283F836201E483DF0FFFF034698
:10102000002B01D011F07CF800237B604FF4F073AB
:10103000BB600023FB604FF488733B6102237B613C
:10104000FF23BB610023FB614FF480633B620523F8
:101050007B624FF05043BB624FF4F073FB624FF47E
:1010600088733B63002387F83430002387F83530DA
:10107000002387F836303B1D0022194605483EF014
:10108000ABF90346002B01D011F04AF800BF383706
:10109000BD4680BD0C6100240010005080B500AF3B
:1010A000124B134A1A60114B01225A600F4B012256
:1010B0009A600E4B1022DA600C4B1A221A610B4B0D
:1010C0004FF400725A61094B00229A61074B40228B
:1010D0001A62064840F080FA0346002B01D011F056
:1010E0001FF8044811F0CCF800BF80BDB4610024A3
:1010F000005000522121010880B500AF074B084A7B
:101100001A60064B00225A60044846F0F9F903467B
:10111000002B01D011F004F800BF80BD0062002454
:101120000018024880B500AF104B114A1A600F4BEF
:1011300000225A600D4B7F229A600C4BFF22DA602E
:101140000A4B00221A61094B00229A61074B0022C8
:10115000DA61064B00225A61044846F0A3FA0346BE
:10116000002B01D010F0DCFF00BF80BD1462002412
:101170000040005880B500AF0E4B0F4A1A600D4B6F
:1011800000225A600B4B00229A600A4B4FF4004237
:10119000DA60084B00221A61064B00225A610548AA
:1011A0003FF006FA0346002B01D010F0B9FF00BF54
:1011B00080BD00BF386200240070005280B500AFCF
:1011C000224B234A1A60214B4FF4E1325A601F4BE5
:1011D00000229A601D4B0022DA601C4B00221A612B
:1011E0001A4B0C225A61194B00229A61174B0022AC
:1011F000DA61164B00221A62144B00225A62134B1A
:1012000000229A62114847F04BF90346002B01D0A7
:1012100010F086FF00210D4849F02EFF0346002BF9
:1012200001D010F07DFF0021084849F0BFFF0346C0
:10123000002B01D010F074FF044849F0A3FE0346D0
:10124000002B01D010F06CFF00BF80BDB064002403
:101250000010014080B500AF224B234A1A60214B99
:101260004FF4E1325A601F4B00229A601D4B00225E
:10127000DA601C4B00221A611A4B0C225A61194B7E
:1012800000229A61174B0022DA61164B00221A6283
:10129000144B00225A62134B00229A62114847F005
:1012A000FFF80346002B01D010F03AFF00210D4853
:1012B00049F0E2FE0346002B01D010F031FF00217F
:1012C000084849F073FF0346002B01D010F028FFB7
:1012D000044849F057FE0346002B01D010F020FFD0
:1012E00000BF80BD446500240044004080B582B04A
:1012F00000AF0D4BD3F8D4300B4A43F00103C2F8D2
:10130000D430094BD3F8D43003F001037B607B6801
:10131000002205217A2038F085FF7A2038F0ACFFD2
:1013200000BF0837BD4680BD0044025880B588B074
:1013300000AF3B1D00221A605A609A60DA601A61A1
:101340005A619A61214B224A1A60204B01225A604D
:101350001E4B00229A601D4B0422DA601B4B1022A8
:101360001A611A4B40225A61184B4FF480729A61ED
:10137000164B0022DA61154B4FF400621A62134BD0
:101380004FF480525A62114B00229A6202237B6012
:101390000623BB600423FB6006233B6102237B61C1
:1013A0000223BB610223FB613B1D1946074846F03F
:1013B000DBFB0346002B01D010F0B2FE054810F015
:1013C00080FF00BF2037BD4680BD00BFD865002428
:1013D000404100522121010880B590B000AF07F1D3
:1013E0002C0300221A605A609A60DA601A61A04BDE
:1013F000D3F8E0309E4A43F48063C2F8E0309C4B5F
:10140000D3F8E03003F48063BB62BB6A984BD3F837
:10141000E030974A43F04003C2F8E030944BD3F8F1
:10142000E03003F040037B627B6A914BD3F8E030FD
:101430008F4A43F00803C2F8E0308D4BD3F8E03018
:1014400003F008033B623B6A894BD3F8E030884ADB
:1014500043F00403C2F8E030854BD3F8E03003F0EA
:101460000403FB61FB69824BD3F8E030804A43F40C
:101470008073C2F8E0307E4BD3F8E03003F4807321
:10148000BB61BB697A4BD3F8E030794A43F0100373
:10149000C2F8E030764BD3F8E03003F010037B6104
:1014A0007B69734BD3F8E030714A43F00203C2F812
:1014B000E0306F4BD3F8E03003F002033B613B694F
:1014C0006B4BD3F8E0306A4A43F40073C2F8E03063
:1014D000674BD3F8E03003F40073FB60FB68644BA8
:1014E000D3F8E030624A43F00103C2F8E030604BC9
:1014F000D3F8E03003F00103BB60BB685C4BD3F86A
:10150000E0305B4A43F02003C2F8E030584BD3F898
:10151000E03003F020037B607B68554BD3F8E0306C
:10152000534A43F08003C2F8E030514BD3F8E03027
:1015300003F080033B603B68002208214D483AF0ED
:101540003FFD01224FF400514B483AF039FD002293
:1015500008214A483AF034FD0022402148483AF038
:101560002FFD0122042147483AF02AFD0823FB629F
:1015700001233B6300237B630023BB6307F12C0340
:1015800019463C483AF006F94FF48073FB62022397
:101590003B6300237B630023BB630023FB6307F1F2
:1015A0002C03194636483AF0F5F84FF40053FB6225
:1015B00001233B6300237B630023BB6307F12C0300
:1015C00019462D483AF0E6F80823FB6201233B63F5
:1015D00000237B630323BB6307F12C0319462748D1
:1015E0003AF0D8F80423FB624FF404133B63002362
:1015F0007B6307F12C03194620483AF0CBF84FF4EF
:101600004063FB6202233B6301237B630323BB63D1
:101610000723FB6307F12C0319461B483AF0BAF87D
:101620004023FB6201233B6300237B630323BB63F3
:1016300007F12C03194612483AF0ACF80423FB6278
:1016400001233B6300237B630023BB6307F12C036F
:1016500019460C483AF09EF800220521082038F07F
:10166000E1FD082038F008FE00BF4037BD4680BDD0
:1016700000440258000C025800200258001802587A
:1016800000000258002402580004025890B583B0AC
:1016900000AF0446084611461A462346FB7103462E
:1016A000BB710B467B7113463B71FB796433114A66
:1016B0005361BB79013B0F4A13617B790D4AD360BB
:1016C0003B790C4A93603B7E0A4A53603B7F094A50
:1016D000136008486AF09AF902460B460649C1E9C8
:1016E0000023054BD3E90023134618460C37BD46AB
:1016F00090BD00BF80120124A812012490B583B0D0
:1017000000AF7860544B1B6818464BF0C7FA03468D
:101710009AB2524B1A80514B1B88002B00F09580D7
:101720004F4B1B6841F2883118464AF0DEFF4B4BA5
:101730001B884C4A4C494D4869F0D4FF4B48FEF792
:10174000D9FD03469CB24948FEF7D4FD0346224624
:101750004649474846F072FF414B1B6818464BF01C
:101760000FF8444B00221A803CE03B4B18680023E2
:10177000002241494BF034FA0346404A13603F4B84
:101780001B68002B20D0364B1B6841F2883118466D
:101790004AF0ABFF394B1B68324A3949334869F08C
:1017A000A1FF3248FEF7A6FD03469CB22F48FEF784
:1017B000A1FD034622462D492D4846F03FFF284B08
:1017C0001B6818464AF0DCFF2A4B1B881A467B68C8
:1017D0001344294A12781A70264B1B8801339AB297
:1017E000244B1A801C4B1B6818464BF057FA0346D3
:1017F000002B05D01F4B1B8840F6FD729342B4D9D5
:101800001C4B1A88154B1A80154B1B6841F2883106
:1018100018464AF06AFF114B1B88124A19491348AF
:1018200069F060FF1148FEF765FD03469CB20F4862
:10183000FEF760FD034622460C490D4846F0FEFEC9
:10184000074B1B6818464AF09BFF044B1B88184641
:101850000C37BD4690BD00BF14D40024B012012443
:1018600068D50024EC890708F8DC0608BCD50024FC
:10187000B0640024B2120124B4120124B81201246D
:1018800020DD060858DD060890B583B000AF78600B
:101890007B681B682F4A934216D12F4B1A782F4B27
:1018A0001A702F4B1868002300222C494BF038F98E
:1018B00003462C4A1360012227492B4846F04CFF6F
:1018C00003461A46294B1A707B681B68284A9342C4
:1018D0003BD1284B1A78284B1A70284B18680023E4
:1018E000002225494BF01CF903461E4A13601D4B8C
:1018F0001B68002B20D0224B1B6841F28831184610
:101900004AF0F3FE174B1B681E4A1F491F4869F037
:10191000E9FE1E48FEF7EEFC03469CB21B48FEF7AC
:10192000E9FC0346224619490F4846F087FE144B4E
:101930001B6818464AF024FF01220E49144846F05D
:101940000BFF03461A46094B1A7000BF0C37BD4601
:1019500090BD00BF00100140EDED0024BC12012439
:1019600014D40024C0120124B0640024C412012441
:1019700000440040ECED0024C5120124C0CB00243B
:1019800068D50024088A070880DD0608BCD5002435
:101990004465002490B585B000AFF8607B600B46CD
:1019A0007B8113467B727D4B00221A805AE17B7A41
:1019B000002B2AD0794B1B8803F00F039BB2002B1E
:1019C00023D1774B1B6841F2883118464AF08DFECF
:1019D000724B1B881A467B6813441A467149724839
:1019E00069F080FE7048FEF785FC03469CB26E48A5
:1019F000FEF780FC034622466B496C4846F01EFE0B
:101A0000674B1B6818464AF0BBFE654B1B6841F2EA
:101A1000883118464AF069FE604B1B881A46FB68FD
:101A200013441B781A4662495F4869F05BFE5E48C2
:101A3000FEF760FC03469CB25B48FEF75BFC034686
:101A400022465949594846F0F9FD554B1B6818463E
:101A50004AF096FE524B1B6841F2883118464AF014
:101A600044FE5449504869F03DFE4F48FEF742FCA1
:101A700003469CB24C48FEF73DFC034622464A49C9
:101A80004A4846F0DBFD464B1B6818464AF078FE94
:101A9000424B1B8803F00F039BB2072B1DD1404B19
:101AA0001B6841F2883118464AF01FFE42493E4801
:101AB00069F018FE3C48FEF71DFC03469CB23A480C
:101AC000FEF718FC034622463749384846F0B6FD73
:101AD000334B1B6818464AF053FE304B1B8803F00B
:101AE0000F039BB20F2B40F0B7802D4B1B6841F2C8
:101AF000883118464AF0F9FD2F492B4869F0F2FD6C
:101B00002948FEF7F7FB03469CB22748FEF7F2FB95
:101B1000034622462449254846F090FD204B1B6889
:101B200018464AF02DFE1D4B1B880F3B9AB2234BE3
:101B30001A806DE0214B1B881A46FB6813441B7802
:101B400001331F4A13441B7803F09703002B3BD04B
:101B5000134B1B6841F2883118464AF0C6FD174BFB
:101B60001B881A46FB6813441B781A4615490E4811
:101B700069F0B8FD0C48FEF7BDFB03469CB20A486D
:101B8000FEF7B8FB034622460749084846F056FDD3
:101B9000034B1B6818464AF0F3FD33E0C6120124DC
:101BA00068D50024B8DD0608BCD50024B064002444
:101BB000CCDD0608D4DD0608D8DD0608C8120124ED
:101BC00020C30708E0DD0608A84B1B6841F28831F6
:101BD00018464AF08AFDA649A64869F083FDA54843
:101BE000FEF788FB03469CB2A248FEF783FB034640
:101BF0002246A049A04846F021FD9C4B1B68184690
:101C00004AF0BEFD9D4B1B8801339AB29B4B1A8054
:101C10009B4B1A88994B1B889A428BD2934B1B681B
:101C200041F2883118464AF060FD9649914869F0C2
:101C300059FD9048FEF75EFB03469CB28D48FEF7C7
:101C400059FB034622468B498B4846F0F7FC874BED
:101C50001B6818464AF094FD894B1B8801339AB2E1
:101C6000874B1A80864B1B887A899A423FF69FAE33
:101C70007B8903F00F039BB2002B00F0D5807B899A
:101C800003F00F039AB27D4B1A8023E0774B1B6859
:101C900041F2883118464AF028FD7B49754869F0C1
:101CA00021FD7448FEF726FB03469CB27148FEF7FF
:101CB00021FB034622466F496F4846F0BFFC6B4B41
:101CC0001B6818464AF05CFD6C4B1B8801339AB2C6
:101CD0006A4B1A80694B1B880F2BD7D97B8903F07D
:101CE00008039BB2002B1DD1604B1B6841F2883169
:101CF00018464AF0FAFC65495E4869F0F3FC5D4815
:101D0000FEF7F8FA03469CB25A48FEF7F3FA034688
:101D100022465849584846F091FC544B1B681846D7
:101D20004AF02EFD514B1B6841F2883118464AF0AB
:101D3000DCFC56494F4869F0D5FC4E48FEF7DAFA0C
:101D400003469CB24B48FEF7D5FA03462246494962
:101D5000494846F073FC454B1B6818464AF010FD95
:101D60007B8923F00F039AB2444B1A8057E0434B10
:101D70001B881A46FB6813441B780133444A1344FA
:101D80001B7803F09703002B25D0384B1B6841F2DA
:101D9000883118464AF0A9FC384B1B881A46FB6864
:101DA00013441B781A463B49324869F09BFC314882
:101DB000FEF7A0FA03469CB22E48FEF79BFA0346B4
:101DC00022462C492C4846F039FC284B1B68184603
:101DD0004AF0D6FC1DE0254B1B6841F288311846BD
:101DE0004AF083FC2249234869F07CFC2148FEF735
:101DF00081FA03469CB21F48FEF77CFA034622464E
:101E00001C491D4846F01AFC184B1B6818464AF03E
:101E1000B7FC1A4B1B8801339AB2184B1A80174B28
:101E20001B887A899A42A2D8104B1B6841F28831EC
:101E300018464AF05AFC13490E4869F053FC0D4805
:101E4000FEF758FA03469CB20A48FEF753FA0346D7
:101E500022460849084846F0F1FB044B1B68184627
:101E60004AF08EFC00BF1437BD4690BD68D50024F3
:101E7000E4DD0608BCD50024B0640024C8120124A7
:101E8000C6120124E8DD0608ECDD0608D8DD0608E8
:101E900020C30708E0DD060890B583B002AF654BAC
:101EA0001B684FF47A7118464AF01FFC6249634878
:101EB00069F018FC6148FEF71DFA03469CB25F48C2
:101EC000FEF718FA034622465C495D4846F0B6FB29
:101ED00059495A4869F006FC5848FEF70BFA034680
:101EE0009CB25648FEF706FA034622465349544828
:101EF00046F0A4FB5049514869F0F4FB4F48FEF707
:101F0000F9F903469CB24D48FEF7F4F90346224620
:101F10004A494B4846F092FB4A49484869F0E2FB7F
:101F20004648FEF7E7F903469CB24448FEF7E2F95B
:101F3000034622464149424846F080FB42493F4819
:101F400069F0D0FB3D48FEF7D5F903469CB23B480B
:101F5000FEF7D0F9034622463849394846F06EFB71
:101F60003A49364869F0BEFB3448FEF7C3F90346E8
:101F70009CB23248FEF7BEF9034622462F4930484C
:101F800046F05CFB41230193314B0093314B314AC6
:101F900031492A4869F0A6FB2848FEF7ABF9034609
:101FA0009CB22648FEF7A6F9034622462349244858
:101FB00046F044FB294A2A49204869F093FB1F4810
:101FC000FEF798F903469CB21C48FEF793F90346C6
:101FD00022461A491A4846F031FB2249174869F04F
:101FE00081FB1648FEF786F903469CB21348FEF7BC
:101FF00081F9034622461149114846F01FFB124958
:102000000E4869F06FFB0D48FEF774F903469CB269
:102010000A48FEF76FF9034622460849084846F089
:102020000DFB044B1B6818464AF0AAFB00BF04379F
:10203000BD4690BD68D50024F0DD0608BCD500245F
:10204000B06400241CDE060824DE06086CDE0608E8
:10205000E8DE0608B4DE0608B8DE0608ECDE060890
:10206000F8DE060820DF060880B500AF0349044803
:1020700045F0C2FA014B1B68184680BDCC12012402
:102080000062002498B500AFB14B1B6841F2883163
:1020900018464AF02AFBAF49AF4869F023FBAE4827
:1020A000FEF728F903469CB2AB48FEF723F9034636
:1020B0002246A949A94846F0C1FAA54B1B68184613
:1020C0004AF05EFBA64B181DA54B5B78033B99B20B
:1020D00000230022FFF75EFC9D4B1B6841F2883114
:1020E00018464AF002FB9E4B1B799E4A9E499A482D
:1020F00069F0F8FA9848FEF7FDF803469CB2964856
:10210000FEF7F8F8034622469349944846F096FABB
:102110008F4B1B6818464AF033FB8D4B1B6841F20E
:10212000883118464AF0E1FA8D4B5B798D4A8F4928
:10213000894869F0D7FA8848FEF7DCF803469CB274
:102140008548FEF7D7F8034622468349834846F080
:1021500075FA7F4B1B6818464AF012FB7C4B1B68D4
:1021600041F2883118464AF0C0FA7D4B9B791B0238
:102170007B4AD27913447B4A7D49774869F0B2FAA9
:102180007548FEF7B7F803469CB27348FEF7B2F8FD
:10219000034622467049714846F050FA6C4B1B6862
:1021A00018464AF0EDFA6A4B1B6841F2883118462E
:1021B0004AF09BFA6A4B1B7A6A4A6E49664869F094
:1021C00091FA6548FEF796F803469CB26248FEF71E
:1021D00091F8034622466049604846F02FFA5C4B6E
:1021E0001B6818464AF0CCFA594B1B6841F28831FB
:1021F00018464AF07AFA5A4B5B7A5A4A5E49564870
:1022000069F070FA5448FEF775F803469CB25248DC
:10221000FEF770F8034622464F49504846F00EFA42
:102220004B4B1B6818464AF0ABFA494B1B6841F20E
:10223000883118464AF059FA494B9B7A494A4F4926
:10224000454869F04FFA4448FEF754F803469CB2FB
:102250004148FEF74FF8034622463F493F4846F0C3
:10226000EDF93B4B1B6818464AF08AFA384B1B685D
:1022700041F2883118464AF038FA394BDB7A394A4C
:102280003F49354869F02EFA3348FEF733F80346E4
:102290009CB23148FEF72EF8034622462E492F48BD
:1022A00046F0CCF92A4B1B6818464AF069FA284BCD
:1022B0001B6841F2883118464AF017FA284B1B7BFD
:1022C000284A3049244869F00DFA2348FEF712F8ED
:1022D00003469CB22048FEF70DF8034622461E49ED
:1022E0001E4846F0ABF91A4B1B6818464AF048FAEC
:1022F000174B1B6841F2883118464AF0F6F9184B23
:102300005B7B184A2049144869F0ECF91248FDF744
:10231000F1FF03469CB21048FDF7ECFF034622464E
:102320000D490E4846F08AF9094B1B6818464AF0D9
:1023300027FA074B1B6841F2883118464AF0D5F955
:10234000074B9B7B074A1149034869F0CBF91FE013
:1023500068D50024D0DF0608BCD50024B064002472
:102360009C080124208A070814E0060854E00608A7
:1023700094E00608D4E0060814E1060854E10608D3
:1023800094E10608D4E1060814E2060854E20608BF
:10239000AB48FDF7AFFF03469CB2A948FDF7AAFF83
:1023A00003462246A649A74846F048F9A64B1B68B3
:1023B00018464AF0E5F9A44B1B6841F288311846EB
:1023C0004AF093F9A14BDB7BA14AA2499C4869F0F2
:1023D00089F99B48FDF78EFF03469CB29848FDF7AC
:1023E00089FF034622469649964846F027F9964BC0
:1023F0001B6818464AF0C4F9934B1B6841F28831B8
:1024000018464AF072F9914B1B7C914A92498C48CC
:1024100069F068F98A48FDF76DFF03469CB2884869
:10242000FDF768FF034622468549864846F006F9CF
:10243000854B1B6818464AF0A3F9834B1B6841F291
:10244000883118464AF051F9804B5B7C804A8349B9
:102450007B4869F047F97A48FDF74CFF03469CB288
:102460007748FDF747FF034622467549754846F011
:10247000E5F8754B1B6818464AF082F9724B1B68E9
:1024800041F2883118464AF030F9704B9B7C704A13
:1024900073496B4869F026F96948FDF72BFF03463D
:1024A0009CB26748FDF726FF03462246644965480B
:1024B00046F0C4F8644B1B6818464AF061F9624B59
:1024C0001B6841F2883118464AF00FF95F4BDB7CFC
:1024D0005F4A64495A4869F005F95948FDF70AFF0F
:1024E00003469CB25648FDF705FF03462246544971
:1024F000544846F0A3F8544B1B6818464AF040F97C
:10250000514B1B6841F2883118464AF0EEF84F4BA8
:102510001B7D4F4A54494A4869F0E4F84848FDF7A2
:10252000E9FE03469CB24648FDF7E4FE0346224618
:102530004349444846F082F8434B1B6818464AF02A
:102540001FF9414B1B6841F2883118464AF0CDF81B
:102550003E4B5B7D3E4A4549394869F0C3F83848EF
:10256000FDF7C8FE03469CB23548FDF7C3FE03469F
:1025700022463349334846F061F8334B1B6818460E
:102580004AF0FEF8314B5B7D03F04003002B1ED078
:102590002D4B1B6841F2883118464AF0A6F82C4AA8
:1025A0003349274869F09EF82548FDF7A3FE034606
:1025B0009CB22348FDF79EFE03462246204921484F
:1025C00046F03CF8204B1B6818464AF0D9F81F4BE0
:1025D0005B7D03F02003002B1ED01B4B1B6841F2D8
:1025E000883118464AF081F8194A2249144869F09E
:1025F00079F81348FDF77EFE03469CB21048FDF7BC
:1026000079FE034622460E490E4846F017F80E4B57
:102610001B6818464AF0B4F80C4B5B7D03F00703C7
:10262000013B032B00F2B88001A252F823F000BF57
:1026300079260008B9260008F9260008392700087D
:10264000BCD50024B064002468D500249C08012473
:10265000208A070894E20608D4E2060814E3060874
:1026600054E3060894E30608D4E3060814E40608D5
:1026700054E4060890E406083F4B1B6841F2883199
:1026800018464AF032F83D4A3D493E4869F02AF87A
:102690003C48FDF72FFE03469CB23A48FDF72AFE60
:1026A000034622463749384845F0C8FF324B1B687D
:1026B00018464AF065F88FE02F4B1B6841F28831CD
:1026C00018464AF012F82D4A30492E4869F00AF8A7
:1026D0002C48FDF70FFE03469CB22A48FDF70AFE80
:1026E000034622462749284845F0A8FF224B1B688D
:1026F00018464AF045F86FE01F4B1B6841F28831DD
:10270000184649F0F2FF1D4A21491E4868F0EAFFC9
:102710001C48FDF7EFFD03469CB21A48FDF7EAFDA1
:10272000034622461749184845F088FF124B1B689C
:1027300018464AF025F84FE00F4B1B6841F28831EC
:10274000184649F0D2FF0D4A12490E4868F0CAFFF8
:102750000C48FDF7CFFD03469CB20A48FDF7CAFDC1
:10276000034622460749084845F068FF024B1B68AC
:1027700018464AF005F82FE068D50024208A07089B
:10278000CCE40608BCD50024B0640024ECE40608C0
:102790000CE506082CE50608A34B1B6841F28831BE
:1027A000184649F0A2FFA14AA149A24868F09AFF41
:1027B000A048FDF79FFD03469CB29E48FDF79AFD99
:1027C000034622469B499C4845F038FF964B1B68C0
:1027D000184649F0D5FF00BF934B1B6841F2883182
:1027E000184649F082FF954B9B7D904A9449914849
:1027F00068F078FF8F48FDF77DFD03469CB28D4859
:10280000FDF778FD034622468A498B4845F016FFBE
:10281000854B1B68184649F0B3FF834B1B6841F298
:102820008831184649F061FF844BDB7D7F4A85493A
:10283000804868F057FF7F48FDF75CFD03469CB277
:102840007C48FDF757FD034622467A497A4845F011
:10285000F5FE754B1B68184649F092FF724B1B68DA
:1028600041F28831184649F040FF744B1B7E6F4A95
:102870007549704868F036FF6E48FDF73BFD03462A
:102880009CB26C48FDF736FD0346224669496A480A
:1028900045F0D4FE644B1B68184649F071FF624B4B
:1028A0001B6841F28831184649F01FFF634B5B7E7D
:1028B0005E4A66495F4868F015FF5E48FDF71AFDFD
:1028C00003469CB25B48FDF715FD03462246594975
:1028D000594845F0B3FE544B1B68184649F050FF69
:1028E000514B1B6841F28831184649F0FEFE534BAC
:1028F0009B7E4E4A56494F4868F0F4FE4D48FDF71E
:10290000F9FC03469CB24B48FDF7F4FC0346224613
:102910004849494845F092FE434B1B68184649F028
:102920002FFF414B1B6841F28831184649F0DDFE0C
:10293000424BDB7E3D4A47493E4868F0D3FE3D4866
:10294000FDF7D8FC03469CB23A48FDF7D3FC03469A
:1029500022463849384845F071FE334B1B6818460B
:1029600049F00EFF304B1B6841F28831184649F0A0
:10297000BCFE324B1B7F2D4A37492E4868F0B2FE11
:102980002C48FDF7B7FC03469CB22A48FDF7B2FC81
:10299000034622462749284845F050FE224B1B6833
:1029A000184649F0EDFE204B1B6841F2883118466D
:1029B00049F09BFE214B5B7F1C4A28491D4868F06B
:1029C00091FE1C48FDF796FC03469CB21948FDF7A2
:1029D00091FC034622461749174845F02FFE124B3B
:1029E0001B68184649F0CCFE0F4B1B6841F288313A
:1029F000184649F07AFE1A490E4868F073FE0D48F1
:102A0000FDF778FC03469CB20A48FDF773FC0346C9
:102A100022460849084845F011FE034B1B6818463A
:102A200049F0AEFE00BF98BD68D50024208A070893
:102A300050E50608BCD50024B06400249C0801249D
:102A400098E50608D8E5060818E6060858E60608D8
:102A500098E60608D8E6060818E7060858E70608C4
:102A600098E7060890B585B000AF03463960FB7162
:102A70000123FB73FB79042B63D8FB79444A1621AD
:102A800001FB03F3134408331B7863F03F03DAB20E
:102A90003B681A70FA793B6801333D49162000FB08
:102AA00002F20A44093212781A70FA793B6802334A
:102AB0003749162000FB02F20A440A3212781A70D3
:102AC000FB79334A162101FB03F313440B331A78C5
:102AD0003B68033322F00102D2B21A70FB792C4A10
:102AE000162101FB03F313440C331A783B680433BB
:102AF00062F03F02D2B21A70FA793B68053324497A
:102B0000162000FB02F20A440D3212781A70FA798C
:102B10003B6806331E49162000FB02F20A440E32BF
:102B200012781A70FB791A4A162101FB03F3134439
:102B30000F331A783B68073322F00102D2B21A70C1
:102B400021E0144B1B6841F28831184649F0CDFD55
:102B5000FB79114A1149124868F0C4FD1048FDF78D
:102B6000C9FB03469CB20E48FDF7C4FB0346224650
:102B70000B490C4845F062FD064B1B68184649F0AE
:102B8000FFFD0023FB73FB7B18461437BD4690BD49
:102B90001012012468D50024388A0708DCE70608EB
:102BA000BCD50024B064002490B583B000AFFF23EF
:102BB000FB7100237B7140E00123BB7100233B715B
:102BC0000FE07A793B792149162000FB02F20A4492
:102BD00013441B78002B01D00023BB713B790133D8
:102BE0003B713B790F2BECD9BB79002B22D0184BD2
:102BF0001B6841F28831184649F077FD7B79154A08
:102C00001549164868F06EFD1448FDF773FB03463E
:102C10009CB21248FDF76EFB034622460F4910484E
:102C200045F00CFD0A4B1B68184649F0A9FD7B795D
:102C3000FB7105E07B7901337B717B79042BBBD978
:102C4000FB7918460C37BD4690BD00BF1012012419
:102C500068D50024588A070830E80608BCD5002447
:102C6000B064002480B483B000AF0023FB71002364
:102C70003B6023E0164A3B68162101FB03F3134433
:102C800015331B78002B16D0114A3B68162101FB27
:102C900003F3134415331B78012B0CD00C4A3B680B
:102CA000162101FB03F3134415331B78052B02D0C7
:102CB0000123FB7105E03B6801333B603B68042B5B
:102CC000D8DDFB7918460C37BD465DF8047B7047AC
:102CD0001012012490B585B000AF0346FB71FB795B
:102CE000042B18D80123FB730023BB730FE0FA7980
:102CF000BB7B1C49162000FB02F20A4413441B78DC
:102D0000002B01D00023FB73BB7B0133BB73BB7B68
:102D10000F2BECD921E0144B1B6841F28831184687
:102D200049F0E3FCFB79114A1149124868F0DAFCDA
:102D30001048FDF7DFFA03469CB20E48FDF7DAFAB9
:102D4000034622460B490C4845F078FC064B1B68AD
:102D5000184649F015FD0023FB73FB7B184614371A
:102D6000BD4690BD1012012468D50024708A070862
:102D70004CE80608BCD50024B064002490B585B0AA
:102D800000AF03463960FB71FB79042B32D8FB7925
:102D90002A4A162101FB03F31344103301221A704F
:102DA0000023FB6010E0FB683A681A44FB79107856
:102DB000224A162101FB03F31A44FB68134402461E
:102DC0001A70FB680133FB60FB680F2BEBDDFB79AE
:102DD0001A4A162101FB03F31344143300221A701C
:102DE000FB79164A162101FB03F313441533012224
:102DF0001A701FE0124B1B6841F28831184649F0E7
:102E000074FCFB790F4A1049104868F06BFC0F48BE
:102E1000FDF770FA03469CB20C48FDF76BFA0346C7
:102E200022460A490A4845F009FC054B1B6818462A
:102E300049F0A6FC00BF1437BD4690BD1012012416
:102E400068D50024888A070894E80608BCD50024C1
:102E5000B064002490B58FB000AF03463960FB71B9
:102E6000012387F83730012387F83630FB79042BAC
:102E700022D9A14B1B6841F28831184649F035FC34
:102E8000FB799E4A9E499F4868F02CFC9D48FDF7BF
:102E900031FA03469CB29B48FDF72CFA03462246C2
:102EA0009849994845F0CAFB934B1B68184649F06E
:102EB00067FC002387F837308F4B1B6841F288315D
:102EC000184649F012FC3B688C4A90498D4868F0DE
:102ED00009FC8C48FDF70EFA03469CB28948FDF7C1
:102EE00009FA034622468749874845F0A7FB824BEB
:102EF0001B68184649F044FC3868FDF7FBF90346A7
:102F00002F2B25D07C4B1B6841F28831184649F0A5
:102F1000ECFB3868FDF7EEF90346784A7C497948BE
:102F200068F0E0FB7748FDF7E5F903469CB2754889
:102F3000FDF7E0F9034622467249734845F07EFBEF
:102F40006D4B1B68184649F01BFC002387F8363090
:102F50000023BB6276E0BB6A052B11D0BB6A0B2B4A
:102F60000ED0BB6A112B0BD0BB6A172B08D0BB6AE3
:102F70001D2B05D0BB6A232B02D0BB6A292B2FD176
:102F8000BB6A3A6813441B780133624A13441B78C6
:102F900003F00403002B52D0574B1B6841F28831D9
:102FA000184649F0A2FBBB6A544A5B49554868F091
:102FB00099FB5448FDF79EF903469CB25148FDF732
:102FC00099F9034622464F494F4845F037FB4A4B93
:102FD0001B68184649F0D4FB002387F836302EE0F2
:102FE000BB6A3A6813441B7801334A4A13441B787E
:102FF00003F00403002B22D13F4B1B6841F28831C0
:10300000184649F072FBBB6A3C4A44493D4868F0A7
:1030100069FB3C48FDF76EF903469CB23948FDF761
:1030200069F9034622463749374845F007FB324BDA
:103030001B68184649F0A4FB002387F83630BB6AAA
:103040000133BB62BB6A2E2B85DD97F83630002B2F
:1030500020D0294B1B6841F28831184649F045FBC6
:103060003B68264A2E49274868F03CFB2548FDF777
:1030700041F903469CB22348FDF73CF9034622463A
:103080002049214845F0DAFA1B4B1B68184649F0E5
:1030900077FB1FE0184B1B6841F28831184649F056
:1030A00024FB3B68154A1F49164868F01BFB15486E
:1030B000FDF720F903469CB21248FDF71BF90346C1
:1030C00022461049104845F0B9FA0B4B1B681846C8
:1030D00049F056FB97F83730002B03D097F836307D
:1030E00087F837303B683B63002387F82F3097F829
:1030F0003630002B72D06DE068D50024988A07081E
:1031000094E80608BCD50024B0640024D4E806087E
:10311000ECE8060820C3070830E9060878E9060845
:10312000BCE90608D4E9060807F10C0306220021D1
:10313000184668F03EFB07F10C030522396B184670
:1031400069F003FA07F10C03184668F0A1F803468A
:103150007B627B6AB3F5803F22D33D4B1B6841F213
:103160008831184649F0C1FA7B6A3A4A3A493B48E5
:1031700068F0B8FA3948FDF7BDF803469CB2374805
:10318000FDF7B8F8034622463449354845F056FA6B
:103190002F4B1B68184649F0F3FA002387F83630A6
:1031A0007B6A1A0A97F82F30D2B238333B4403F8BF
:1031B000242C97F82F3001337A6AD2B238333B444B
:1031C00003F8242C3B6B06333B6397F82F30023314
:1031D00087F82F3097F82F300F2BA5D997F8373075
:1031E000002B0FD097F83630002B0BD097F83630E5
:1031F00087F8373007F11402FB7911461846FFF7BC
:10320000BDFD1EE0124B1B6841F28831184649F0A3
:103210006CFA104A1349114868F064FA0F48FDF738
:1032200069F803469CB20D48FDF764F80346224650
:103230000A490B4845F002FA054B1B68184649F04D
:103240009FFA97F8373018463C37BD4690BD00BF0F
:1032500068D50024988A07080CEA0608BCD5002423
:10326000B064002440EA060890B585B000AF03467C
:10327000FB71FB79042B4ED8394B1B6841F2883126
:10328000184649F032FAFB79364A3749374868F030
:1032900029FA3648FDF72EF803469CB23348FDF76D
:1032A00029F8034622463149314845F0C7F92C4BED
:1032B0001B68184649F064FAFB792E4A162101FB77
:1032C00003F31344103300221A700023FB600CE058
:1032D000FB79284A162101FB03F31A44FB681344C7
:1032E00000221A70FB680133FB60FB680F2BEFDDD7
:1032F000FB79204A162101FB03F313441433012206
:103300001A70FB791B4A162101FB03F31344153392
:1033100000221A701FE0124B1B6841F288311846D8
:1033200049F0E3F9FB790F4A1349104868F0DAF9DC
:103330000E48FCF7DFFF03469CB20C48FCF7DAFFAF
:103340000346224609490A4845F078F9044B1B68B0
:10335000184649F015FA00BF1437BD4690BD00BFAE
:1033600068D50024B48A07086CEA0608BCD5002496
:10337000B06400241012012484EA060890B587B0D6
:1033800002AF03463960FB711346BB71594B9B7802
:103390001F2B00F28880574B9B781D2B24D9564B4E
:1033A0001B6841F28831184649F09FF9514B9B78D0
:1033B0001A46202300931346504A5149514868F059
:1033C00091F95048FCF796FF03469CB24D48FCF734
:1033D00091FF034622464B494B4845F02FF9464B97
:1033E0001B68184649F0CCF9434B1B6841F2883101
:1033F000184649F07AF9FB79404A4449414868F057
:1034000071F94048FCF776FF03469CB23D48FCF753
:1034100071FF034622463B493B4845F00FF9364BC6
:103420001B68184649F0ACF9324B9B780133DAB28D
:10343000304B9A702F4B5B7819462E4AAA2301FB1A
:1034400003F313440333FA791A70BB79A82B01D91B
:10345000A823BB71274B5B781946264AAA2301FB98
:1034600003F313440433BA791A70224B5B781A467B
:10347000AA2302FB03F31F4A13440533BA793968C0
:10348000184669F062F81B4B5B780133DAB2194BCE
:103490005A70184B5B781F2B02D9164B00225A70BA
:1034A0000123FB7321E0144B1B6841F2883118465D
:1034B00049F01BF9FB79114A1549124868F012F9D5
:1034C0001048FCF717FF03469CB20E48FCF712FFAA
:1034D000034622460B490C4845F0B0F8064B1B68E2
:1034E000184649F04DF90023FB73FB7B184614374F
:1034F000BD4690BDF0ED002468D50024C88A0708B9
:10350000C8EA0608BCD50024B06400241CEB0608F9
:1035100048EB060890B587B002AF03463960FB71EF
:103520001346BB71594B9B78072B00F28880574B91
:103530009B78052B24D9564B1B6841F288311846DD
:1035400049F0D3F8514B9B781A4608230093134651
:10355000504A5149514868F0C5F85048FCF7CAFE36
:1035600003469CB24D48FCF7C5FE034622464B4934
:103570004B4845F063F8464B1B68184649F000F984
:10358000434B1B6841F28831184649F0AEF8FB798D
:10359000404A4449414868F0A5F84048FCF7AAFE73
:1035A00003469CB23D48FCF7A5FE034622463B4934
:1035B0003B4845F043F8364B1B68184649F0E0F8A5
:1035C000324B9B780133DAB2304B9A702F4B5B78D9
:1035D00019462E4AAA2301FB03F313440333FA7955
:1035E0001A70BB79A82B01D9A823BB71274B5B7834
:1035F0001946264AAA2301FB03F313440433BA797C
:103600001A70224B5B781A46AA2302FB03F31F4A67
:1036100013440533BA793968184668F096FF1B4B96
:103620005B780133DAB2194B5A70184B5B78072B71
:1036300002D9164B00225A700123FB7321E0144B70
:103640001B6841F28831184649F04FF8FB79114A5E
:103650001549124868F046F81048FCF74BFE03463F
:103660009CB20E48FCF746FE034622460B490C4826
:1036700044F0E4FF064B1B68184649F081F800232C
:10368000FB73FB7B18461437BD4690BD3403012401
:1036900068D50024E08A070890EB0608BCD5002412
:1036A000B0640024E4EB060810EC060890B585B081
:1036B00000AF03460A46FB711346BB71974B1B686C
:1036C00041F28831184649F010F8FB79944A95493F
:1036D000954868F007F89448FCF70CFE03469CB246
:1036E0009148FCF707FE034622468F498F4844F075
:1036F000A5FF8A4B1B68184649F042F88C4B002204
:103700001A728B4B0022DA60894B002283F8C820A2
:10371000884B00221A70884B18221A70BB79002B34
:103720001BD0864B0133854A52781946FF200CF096
:10373000F7FF0346FB73FA79FB7B9A4201D1012222
:1037400000E003227B4B1A70FA79FB7B9A4201D18D
:10375000062200E01522784B1A70704B1B6841F26C
:103760008831184648F0C1FF75496F4867F0BAFFC5
:103770006D48FCF7BFFD03469CB26B48FCF7BAFDF1
:10378000034622466849694844F058FF634B1B686A
:10379000184648F0F5FF664BDB7C194600230022F3
:1037A0006648FEF7F7F85D4B1B6841F28831184612
:1037B00048F09BFF63495C4867F094FF5A48FCF768
:1037C00099FD03469CB25848FCF794FD03462246F7
:1037D0005549564844F032FF504B1B68184648F094
:1037E000CFFF534B00221A7401230122524956483D
:1037F00044F024FF504B1B78182B46D0182B64DC68
:10380000062B02D0152B20D05FE0444B1B6841F201
:103810008831184648F069FF414A4C49424867F0F0
:1038200061FF4148FCF766FD03469CB23E48FCF749
:1038300061FD034622463C493C4844F0FFFE374BBD
:103840001B68184648F09CFF61E0344B1B6841F24E
:103850008831184648F049FF314A3D49324867F0FF
:1038600041FF3148FCF746FD03469CB22E48FCF769
:1038700041FD034622462C492C4844F0DFFE274BED
:103880001B68184648F07CFF41E0244B1B6841F25E
:103890008831184648F029FF214A2E49224867F00E
:1038A00021FF2148FCF726FD03469CB21E48FCF789
:1038B00021FD034622461C491C4844F0BFFE174B1D
:1038C0001B68184648F05CFF21E0144B1B6841F26E
:1038D0008831184648F009FF174B1B78104A1E49DB
:1038E000114867F0FFFE1048FCF704FD03469CB248
:1038F0000D48FCF7FFFC034622460B490B4844F0F9
:103900009DFE064B1B68184648F03AFF00BF094B66
:103910001B7818461437BD4690BD00BF68D50024FB
:10392000048B070854EC0608BCD50024B0640024BE
:1039300088080124D0120124D11201249C080124FA
:1039400074EC0608D4EC06084465002434ED06083F
:1039500070ED0608C0ED060838EE060880B483B0A6
:1039600000AF0346FB71144BDB7C1A46124B134429
:10397000FA791A75104BDB7C0133DAB20E4BDA742C
:103980000E4B5B78032B0AD90C4B5B78033BDAB206
:10399000094B83F8C920084B04221A7406E0064B31
:1039A000012283F8C920044B05221A7400BF0C378A
:1039B000BD465DF8047B7047880801249C080124FB
:1039C00080B483B000AF0346FB71144B93F8C93049
:1039D000013BDAB2114B83F8C920104BDB7C1A464D
:1039E0000E4B1344FA791A750C4BDB7C0133DAB2B7
:1039F0000A4BDA74094BDB7CB32B05D8074BDA7C16
:103A0000074B5B789A4202D9044B05221A7400BF17
:103A10000C37BD465DF8047B704700BF8808012461
:103A20009C08012498B500AF194B1B6841F28831FE
:103A3000184648F05AFE174A1749184867F052FED0
:103A40001648FCF757FC03469CB21448FCF752FC9E
:103A5000034622461149124844F0F0FD0C4B1B6806
:103A6000184648F08DFE0F4B00221A740D4B0022B1
:103A700083F8C8200B4B00221A700A4B00221A72DE
:103A8000084B00225A60074B0022DA6000BF98BD45
:103A900068D500241C8B070880EE0608BCD50024DE
:103AA000B06400248808012490B583B000AF0346B9
:103AB000FB71FB79022B02D9FB79B42B2DD9214B59
:103AC0001B6841F28831184648F00FFEFB791E4A08
:103AD0001E491F4867F006FE1D48FCF70BFC034615
:103AE0009CB21B48FCF706FC0346224618491948BD
:103AF00044F0A4FD134B1B68184648F041FE164BDA
:103B000000221A74144B002283F8C820124B0022A2
:103B10001A72114B0022DA6010E00F4B02221A7465
:103B20000D4BDB7C1A460C4B1344FA791A750A4B81
:103B3000DB7C0133DAB2084BDA7400BF00BF0C370C
:103B4000BD4690BD68D50024348B07089CEE06085E
:103B5000BCD50024B06400248808012490B585B049
:103B600002AF0346FB719F4B00221A70FB79012BB9
:103B700039D19D4B1B6841F28831184648F0B5FD9C
:103B80009A4A9B499B4867F0ADFD9A48FCF7B2FB07
:103B900003469CB29748FCF7ADFB03462246954985
:103BA000954844F04BFD904B1B68184648F0E8FDE3
:103BB000924B01221A74914B0022DA748F4B01222E
:103BC00083F8C8208D4BDB7C1A468C4B1344FA7962
:103BD0001A758A4BDB7C0133DAB2884BDA74874B77
:103BE00000221A72F9E1854B9B7C002B00F0378193
:103BF000FB79062B02D0FB79152B0ED17F4B0022CF
:103C00009A747E4B00221A707C4B00221A727B4BF6
:103C100000225A60794B0022DA60FB79062B22D110
:103C2000714B1B6841F28831184648F05EFD6F4ABF
:103C30007349704867F056FD6E48FCF75BFB03461E
:103C40009CB26C48FCF756FB0346224669496A4819
:103C500044F0F4FC644B1B68184648F091FD614B3E
:103C600002221A70B9E1FB79152B22D15E4B1B6839
:103C700041F28831184648F038FD5C4A61495D4898
:103C800067F030FD5B48FCF735FB03469CB25948B2
:103C9000FCF730FB034622465649574844F0CEFC19
:103CA000514B1B68184648F06BFD4E4B05221A70AD
:103CB00093E1FB790133544A13441B7803F09703D3
:103CC000002B23D0484B1B6841F28831184648F03E
:103CD0000CFDFA79FB7900931346444A4B49454859
:103CE00067F000FD4348FCF705FB03469CB24148E2
:103CF000FCF700FB034622463E493F4844F09EFC49
:103D0000394B1B68184648F03BFD66E1FB79182BE0
:103D100047D0182B00F38280062B02D0152B20D021
:103D20007CE0314B1B6841F28831184648F0DDFCDD
:103D30002E4A37492F4867F0D5FC2E48FCF7DAFAAF
:103D400003469CB22B48FCF7D5FA03462246294984
:103D5000294844F073FC244B1B68184648F010FDBA
:103D60003BE1214B1B6841F28831184648F0BDFC0D
:103D70001E4A28491F4867F0B5FC1E48FCF7BAFAEE
:103D800003469CB21B48FCF7B5FA03462246194984
:103D9000194844F053FC144B1B68184648F0F0FCDB
:103DA0001BE1114B1B6841F28831184648F09DFC1D
:103DB0000E4A19490F4867F095FC0E48FCF79AFA2D
:103DC00003469CB20B48FCF795FA03462246094984
:103DD000094844F033FC044B1B68184648F0D0FCFB
:103DE000FBE000BFD212012468D50024488B0708ED
:103DF000D0EE0608BCD50024B06400248808012455
:103E0000E8EE060800EF060820C3070818EF0608CA
:103E100048EF06086CEF060890EF0608724B1B6827
:103E200041F28831184648F060FCFB796F4A7049CE
:103E3000704867F057FC6F48FCF75CFA03469CB289
:103E40006C48FCF757FA034622466A496A4844F030
:103E5000F5FB654B1B68184648F092FCBDE0FB790A
:103E60000133664A13441B7803F09703002B23D0D9
:103E70005D4B1B6841F28831184648F036FCFA79F0
:103E8000FB7900931346594A5D495A4867F02AFC6A
:103E90005848FCF72FFA03469CB25648FCF72AFA1A
:103EA000034622465349544844F0C8FB4E4B1B6816
:103EB000184648F065FC8AE0FB79182B46D0182B91
:103EC00064DC062B02D0152B20D05FE0464B1B682C
:103ED00041F28831184648F008FC444A49494548AF
:103EE00067F000FC4348FCF705FA03469CB24148E2
:103EF000FCF700FA034622463E493F4844F09EFB49
:103F0000394B1B68184648F03BFC60E0364B1B6899
:103F100041F28831184648F0E8FB344A3A493548BE
:103F200067F0E0FB3348FCF7E5F903469CB2314803
:103F3000FCF7E0F9034622462E492F4844F07EFB69
:103F4000294B1B68184648F01BFC40E0264B1B68B9
:103F500041F28831184648F0C8FB244A2B492548CD
:103F600067F0C0FB2348FCF7C5F903469CB2214823
:103F7000FCF7C0F9034622461E491F4844F05EFB89
:103F8000194B1B68184648F0FBFB20E0164B1B68DA
:103F900041F28831184648F0A8FBFB79134A1449CE
:103FA000144867F09FFB1348FCF7A4F903469CB242
:103FB0001048FCF79FF9034622460E490E4844F08C
:103FC0003DFB094B1B68184648F0DAFB00BF104B5D
:103FD00000221A700E4B00225A600E4B1B781846B6
:103FE0000C37BD4690BD00BF68D50024488B07083C
:103FF000B4EF0608BCD50024B064002420C3070831
:1040000018EF060848EF06086CEF060890EF060860
:1040100088080124D212012490B583B000AF034672
:10402000FB71FB79012B4CD9514B1B6841F2883154
:10403000184648F05AFBFB794E4A4F494F4867F003
:1040400051FB4E48FCF756F903469CB24B48FCF72F
:1040500051F9034622464949494844F0EFFA444B96
:104060001B68184648F08CFB414B1B6841F28831B5
:10407000184648F03AFB3F4A4249404867F032FB55
:104080003E48FCF737F903469CB23C48FCF732F94E
:104090000346224639493A4844F0D0FA344B1B686B
:1040A000184648F06DFB384B00221A74364B00223C
:1040B00083F8C820344B00221A72334B0022DA6096
:1040C00051E0FB79002B1FD1294B1B6841F288314D
:1040D000184648F00AFB274A2C49284867F002FB9B
:1040E0002648FCF707F903469CB22448FCF702F97E
:1040F000034622462149224844F0A0FA1C4B1B6883
:10410000184648F03DFB1EE0194B1B6841F2883110
:10411000184648F0EAFA174A1D49184867F0E2FACB
:104120001648FCF7E7F803469CB21448FCF7E2F89F
:10413000034622461149124844F080FA0C4B1B6892
:10414000184648F01DFB104B03221A740E4BDB7C03
:104150001A460D4B1344FA791A750B4BDB7C01336D
:10416000DAB2094BDA7400BF0C37BD4690BD00BF10
:1041700068D500245C8B0708E0EF0608BCD5002456
:10418000B06400243CF006088808012464F00608A6
:1041900084F0060890B583B000AF0346FB71FB794D
:1041A000013B032B00F28C8001A252F823F000BFE8
:1041B000C141000881420008414200080142000854
:1041C000524B1B6841F28831184648F08EFA504A2B
:1041D0005049514867F086FA4F48FCF78BF8034680
:1041E0009CB24D48FCF786F8034622464A494B48A4
:1041F00044F024FA454B1B68184648F0C1FA80E0A9
:10420000424B1B6841F28831184648F06EFA404A2A
:104210004349414867F066FA3F48FCF76BF80346AC
:104220009CB23D48FCF766F8034622463A493B48B3
:1042300044F004FA354B1B68184648F0A1FA60E0D8
:10424000324B1B6841F28831184648F04EFA304A2A
:104250003449314867F046FA2F48FCF74BF80346DB
:104260009CB22D48FCF746F8034622462A492B48C3
:1042700044F0E4F9254B1B68184648F081FA40E009
:10428000224B1B6841F28831184648F02EFA204A2A
:104290002549214867F026FA1F48FCF72BF803460A
:1042A0009CB21D48FCF726F8034622461A491B48D3
:1042B00044F0C4F9154B1B68184648F061FA20E039
:1042C000124B1B6841F28831184648F00EFAFB7910
:1042D0000F4A1649104867F005FA0F48FCF70AF82C
:1042E00003469CB20C48FCF705F8034622460A49EF
:1042F0000A4844F0A3F9054B1B68184648F040FAF9
:1043000000BF00BF0C37BD4690BD00BF68D500247C
:10431000708B0708A4F00608BCD50024B064002404
:10432000CCF0060804F1060824F106084CF1060852
:1043300090B583B000AF0346FB71FB79A12B00F36E
:104340004D81002B40F3CA84013BA02B00F2C684B0
:1043500001A252F823F000BFA546000861490008F9
:10436000E5450008254600081D4C00085D4C000886
:104370009D4C0008A14A0008214B0008DD4C0008B4
:10438000DD4C0008DD4C0008DD4C0008DD4C000869
:10439000A5470008A1490008E1490008214A000892
:1043A000614A0008DD4C0008614B0008E14A000842
:1043B000E5470008DD4B0008DD4C0008DD4C000837
:1043C000DD4C0008DD4C0008DD4C0008DD4C000829
:1043D000DD4C0008E148000821490008DD4C0008D8
:1043E000DD4C0008DD4C0008DD4C0008DD4C000809
:1043F000DD4C0008DD4C0008DD4C0008DD4C0008F9
:10440000DD4C0008DD4C0008DD4C0008DD4C0008E8
:10441000DD4C000825470008E5460008DD4C000893
:10442000DD4C0008DD4C0008DD4C0008DD4C0008C8
:10443000DD4C0008DD4C0008DD4C0008DD4C0008B8
:10444000DD4C0008DD4C0008DD4C0008DD4C0008A8
:10445000DD4C000865460008DD4C0008DD4C000816
:10446000DD4C0008DD4C0008DD4C0008DD4C000888
:10447000DD4C0008DD4C0008DD4C0008DD4C000878
:10448000DD4C0008DD4C0008DD4C0008DD4C000868
:10449000DD4C000825480008DD4C0008DD4C000814
:1044A000DD4C0008DD4C0008DD4C0008DD4C000848
:1044B000DD4C0008DD4C0008DD4C0008DD4C000838
:1044C000DD4C0008DD4C0008DD4C0008DD4C000828
:1044D000DD4C0008DD4C0008DD4C0008DD4C000818
:1044E000DD4C0008DD4C0008DD4C0008DD4C000808
:1044F000DD4C0008DD4C0008DD4C0008DD4C0008F8
:10450000DD4C0008DD4C0008DD4C0008DD4C0008E7
:10451000DD4C0008DD4C0008DD4C0008DD4C0008D7
:10452000DD4C0008DD4C0008DD4C0008DD4C0008C7
:10453000DD4C0008DD4C0008DD4C0008DD4C0008B7
:10454000DD4C0008DD4C0008DD4C0008DD4C0008A7
:10455000DD4C0008DD4C0008DD4C0008DD4C000897
:10456000DD4C0008DD4C0008DD4C0008DD4C000887
:10457000DD4C0008DD4C0008DD4C0008DD4C000877
:10458000DD4C0008DD4C0008DD4C0008DD4C000867
:10459000DD4C0008DD4C0008DD4C0008DD4C000857
:1045A000DD4C0008DD4C0008DD4C0008DD4C000847
:1045B000DD4C0008DD4C0008DD4C0008DD4C000837
:1045C000DD4C0008DD4C0008DD4C0008DD4C000827
:1045D000DD4C0008DD4C000865480008FF2B00F0AA
:1045E000C1807BE3AF4B1B6841F28831184648F02D
:1045F0007CF8AD4AAD49AE4867F074F8AC48FBF7BB
:1046000079FE03469CB2AA48FBF774FE0346224695
:10461000A749A84844F012F8A24B1B68184648F076
:10462000AFF87CE39F4B1B6841F28831184648F095
:104630005CF89D4AA0499E4867F054F89C48FBF7F7
:1046400059FE03469CB29A48FBF754FE03462246A5
:104650009749984843F0F2FF924B1B68184648F080
:104660008FF85CE38F4B1B6841F28831184648F0A5
:104670003CF88D4A91498E4867F034F88C48FBF736
:1046800039FE03469CB28A48FBF734FE03462246B5
:104690008749884843F0D2FF824B1B68184648F090
:1046A0006FF83CE37F4B1B6841F28831184648F0B5
:1046B0001CF87D4A82497E4867F014F87C48FBF775
:1046C00019FE03469CB27A48FBF714FE03462246C5
:1046D0007749784843F0B2FF724B1B68184648F0A0
:1046E0004FF81CE36F4B1B6841F28831184647F0C6
:1046F000FCFF6D4A73496E4866F0F4FF6C48FBF7A7
:10470000F9FD03469CB26A48FBF7F4FD03462246D6
:104710006749684843F092FF624B1B68184648F0AF
:104720002FF8FCE25F4B1B6841F28831184647F0D6
:10473000DCFF5D4A64495E4866F0D4FF5C48FBF7E5
:10474000D9FD03469CB25A48FBF7D4FD03462246E6
:104750005749584843F072FF524B1B68184648F0BF
:104760000FF8DCE24F4B1B6841F28831184647F0E6
:10477000BCFF4D4A55494E4866F0B4FF4C48FBF724
:10478000B9FD03469CB24A48FBF7B4FD03462246F6
:104790004749484843F052FF424B1B68184647F0D0
:1047A000EFFFBCE23F4B1B6841F28831184647F0EF
:1047B0009CFF3D4A46493E4866F094FF3C48FBF763
:1047C00099FD03469CB23A48FBF794FD0346224606
:1047D0003749384843F032FF324B1B68184647F0E0
:1047E000CFFF9CE22F4B1B6841F28831184647F0FF
:1047F0007CFF2D4A37492E4866F074FF2C48FBF7A2
:1048000079FD03469CB22A48FBF774FD0346224615
:104810002749284843F012FF224B1B68184647F0EF
:10482000AFFF7CE21F4B1B6841F28831184647F00E
:104830005CFF1D4A28491E4866F054FF1C48FBF7E0
:1048400059FD03469CB21A48FBF754FD0346224625
:104850001749184843F0F2FE124B1B68184647F000
:104860008FFF5CE20F4B1B6841F28831184647F01E
:104870003CFF0D4A19490E4866F034FF0C48FBF71F
:1048800039FD03469CB20A48FBF734FD0346224635
:104890000749084843F0D2FE024B1B68184647F010
:1048A0006FFF3CE268D50024948B070888F1060866
:1048B000BCD50024B0640024A4F10608B8F10608B1
:1048C000D0F10608ECF10608FCF1060814F206081F
:1048D00030F206084CF2060864F2060880F2060878
:1048E000AF4B1B6841F28831184647F0FEFEAD4AD7
:1048F000AD49AE4866F0F6FEAC48FBF7FBFC03465C
:104900009CB2AA48FBF7F6FC03462246A749A848F2
:1049100043F094FEA24B1B68184647F031FFFEE1BE
:104920009F4B1B6841F28831184647F0DEFE9D4AD6
:10493000A0499E4866F0D6FE9C48FBF7DBFC034688
:104940009CB29A48FBF7D6FC034622469749984802
:1049500043F074FE924B1B68184647F011FFDEE1EE
:104960008F4B1B6841F28831184647F0BEFE8D4AD6
:1049700091498E4866F0B6FE8C48FBF7BBFC0346B7
:104980009CB28A48FBF7B6FC034622468749884812
:1049900043F054FE824B1B68184647F0F1FEBEE11F
:1049A0007F4B1B6841F28831184647F09EFE7D4AD6
:1049B00082497E4866F096FE7C48FBF79BFC0346E6
:1049C0009CB27A48FBF796FC034622467749784822
:1049D00043F034FE724B1B68184647F0D1FE9EE14F
:1049E0006F4B1B6841F28831184647F07EFE6D4AD6
:1049F00073496E4866F076FE6C48FBF77BFC034615
:104A00009CB26A48FBF776FC034622466749684831
:104A100043F014FE624B1B68184647F0B1FE7EE17E
:104A20005F4B1B6841F28831184647F05EFE5D4AD5
:104A300064495E4866F056FE5C48FBF75BFC034643
:104A40009CB25A48FBF756FC034622465749584841
:104A500043F0F4FD524B1B68184647F091FE5EE1AF
:104A60004F4B1B6841F28831184647F03EFE4D4AD5
:104A700055494E4866F036FE4C48FBF73BFC034672
:104A80009CB24A48FBF736FC034622464749484851
:104A900043F0D4FD424B1B68184647F071FE3EE1DF
:104AA0003F4B1B6841F28831184647F01EFE3D4AD5
:104AB00046493E4866F016FE3C48FBF71BFC0346A1
:104AC0009CB23A48FBF716FC034622463749384861
:104AD00043F0B4FD324B1B68184647F051FE1EE10F
:104AE0002F4B1B6841F28831184647F0FEFD2D4AD6
:104AF00037492E4866F0F6FD2C48FBF7FBFB0346D2
:104B00009CB22A48FBF7F6FB034622462749284871
:104B100043F094FD224B1B68184647F031FEFEE03F
:104B20001F4B1B6841F28831184647F0DEFD1D4AD5
:104B300028491E4866F0D6FD1C48FBF7DBFB034600
:104B40009CB21A48FBF7D6FB034622461749184881
:104B500043F074FD124B1B68184647F011FEDEE06F
:104B60000F4B1B6841F28831184647F0BEFD0D4AD5
:104B700019490E4866F0B6FD0C48FBF7BBFB03462F
:104B80009CB20A48FBF7B6FB034622460749084891
:104B900043F054FD024B1B68184647F0F1FDBEE0A0
:104BA00068D50024948B070898F20608BCD5002429
:104BB000B0640024B0F20608CCF20608E8F2060859
:104BC00000F306081CF3060834F306084CF3060845
:104BD00060F3060878F3060894F30608524B1B6846
:104BE00041F28831184647F080FD504A50495148FB
:104BF00066F078FD4F48FBF77DFB03469CB24D48BD
:104C0000FBF778FB034622464A494B4843F016FD22
:104C1000454B1B68184647F0B3FD80E0424B1B68CC
:104C200041F28831184647F060FD404A4349414807
:104C300066F058FD3F48FBF75DFB03469CB23D48DC
:104C4000FBF758FB034622463A493B4843F0F6FC43
:104C5000354B1B68184647F093FD60E0324B1B68EC
:104C600041F28831184647F040FD304A3449314816
:104C700066F038FD2F48FBF73DFB03469CB22D48FC
:104C8000FBF738FB034622462A492B4843F0D6FC63
:104C9000254B1B68184647F073FD40E0224B1B680C
:104CA00041F28831184647F020FD204A2549214825
:104CB00066F018FD1F48FBF71DFB03469CB21D481C
:104CC000FBF718FB034622461A491B4843F0B6FC83
:104CD000154B1B68184647F053FD20E0124B1B682C
:104CE00041F28831184647F000FDFB790F4A16491A
:104CF000104866F0F7FC0F48FBF7FCFA03469CB23D
:104D00000C48FBF7F7FA034622460A490A4843F0E3
:104D100095FC054B1B68184647F032FD00BF00BFED
:104D20000C37BD4690BD00BF68D50024948B0708A2
:104D3000A8F30608BCD50024B0640024C4F3060818
:104D4000E0F30608F4F3060814F4060890B583B0FF
:104D500000AF03460A46FB711346BB71FB79402B3B
:104D600040F0B481BB79013B0A2B00F28F8101A294
:104D700052F823F0A14D0008E14D0008214E000833
:104D8000614E0008A14E0008E14E0008214F0008C6
:104D9000614F0008A14F0008E14F000821500008B2
:104DA000AF4B1B6841F28831184647F09EFCAD4A74
:104DB000AD49AE4866F096FCAC48FBF79BFA03465B
:104DC0009CB2AA48FBF796FA03462246A749A84890
:104DD00043F034FCA24B1B68184647F0D1FC75E148
:104DE0009F4B1B6841F28831184647F07EFC9D4A74
:104DF000A0499E4866F076FC9C48FBF77BFA034688
:104E00009CB29A48FBF776FA03462246974998489F
:104E100043F014FC924B1B68184647F0B1FC55E177
:104E20008F4B1B6841F28831184647F05EFC8D4A73
:104E300091498E4866F056FC8C48FBF75BFA0346B6
:104E40009CB28A48FBF756FA0346224687498848AF
:104E500043F0F4FB824B1B68184647F091FC35E1A8
:104E60007F4B1B6841F28831184647F03EFC7D4A73
:104E700082497E4866F036FC7C48FBF73BFA0346E5
:104E80009CB27A48FBF736FA0346224677497848BF
:104E900043F0D4FB724B1B68184647F071FC15E1D8
:104EA0006F4B1B6841F28831184647F01EFC6D4A73
:104EB00073496E4866F016FC6C48FBF71BFA034614
:104EC0009CB26A48FBF716FA0346224667496848CF
:104ED00043F0B4FB624B1B68184647F051FCF5E009
:104EE0005F4B1B6841F28831184647F0FEFB5D4A74
:104EF00063495E4866F0F6FB5C48FBF7FBF9034646
:104F00009CB25A48FBF7F6F90346224657495848DF
:104F100043F094FB524B1B68184647F031FCD5E038
:104F20004F4B1B6841F28831184647F0DEFB4D4A73
:104F300053494E4866F0D6FB4C48FBF7DBF9034675
:104F40009CB24A48FBF7D6F90346224647494848EF
:104F500043F074FB424B1B68184647F011FCB5E068
:104F60003F4B1B6841F28831184647F0BEFB3D4A73
:104F700043493E4866F0B6FB3C48FBF7BBF90346A5
:104F80009CB23A48FBF7B6F90346224637493848FF
:104F900043F054FB324B1B68184647F0F1FB95E099
:104FA0002F4B1B6841F28831184647F09EFB2D4A73
:104FB00033492E4866F096FB2C48FBF79BF90346D5
:104FC0009CB22A48FBF796F903462246274928480F
:104FD00043F034FB224B1B68184647F0D1FB75E0C9
:104FE0001F4B1B6841F28831184647F07EFB1D4A73
:104FF00024491E4866F076FB1C48FBF77BF9034604
:105000009CB21A48FBF776F903462246174918481E
:1050100043F014FB124B1B68184647F0B1FB55E0F8
:105020000F4B1B6841F28831184647F05EFB0D4A72
:1050300015490E4866F056FB0C48FBF75BF9034632
:105040009CB20A48FBF756F903462246074908482E
:1050500043F0F4FA024B1B68184647F091FB35E029
:1050600068D50024B88B070850F40608BCD5002486
:10507000B064002464F4060880F40608B0F406085E
:10508000E4F4060814F506083CF50608B24B1B6864
:1050900041F28831184647F028FBB04AB049B14880
:1050A00066F020FBAF48FBF725F903469CB2AD48FC
:1050B000FBF720F903462246AA49AB4843F0BEFA63
:1050C000A54B1B68184647F05BFB00BFFB79012B23
:1050D00040F0D480BB79013B052B00F2AF8001A2E8
:1050E00052F823F0FD5000083D5100087D510008A2
:1050F000BD5100083D520008FD510008964B1B6849
:1051000041F28831184647F0F0FA944A9749954899
:1051100066F0E8FA9348FBF7EDF803469CB2914835
:10512000FBF7E8F8034622468E498F4843F086FA9B
:10513000894B1B68184647F023FB9FE0864B1B6892
:1051400041F28831184647F0D0FA844A88498548A8
:1051500066F0C8FA8348FBF7CDF803469CB2814855
:10516000FBF7C8F8034622467E497F4843F066FABB
:10517000794B1B68184647F003FB7FE0764B1B68B2
:1051800041F28831184647F0B0FA744A79497548B7
:1051900066F0A8FA7348FBF7ADF803469CB2714875
:1051A000FBF7A8F8034622466E496F4843F046FADB
:1051B000694B1B68184647F0E3FA5FE0664B1B68D3
:1051C00041F28831184647F090FA644A6A496548C6
:1051D00066F088FA6348FBF78DF803469CB2614895
:1051E000FBF788F8034622465E495F4843F026FAFB
:1051F000594B1B68184647F0C3FA3FE0564B1B68F3
:1052000041F28831184647F070FA544A5B495548D4
:1052100066F068FA5348FBF76DF803469CB25148B4
:10522000FBF768F8034622464E494F4843F006FA1A
:10523000494B1B68184647F0A3FA1FE0464B1B6812
:1052400041F28831184647F050FA444A44494548EB
:1052500066F048FA4348FBF74DF803469CB24148D4
:10526000FBF748F8034622463E493F4843F0E6F93B
:10527000394B1B68184647F083FA00BFFB79312B86
:1052800040F0A480BB79032B46D0032B7EDC012B9E
:1052900002D0022B20D079E02F4B1B6841F28831DD
:1052A000184647F022FA2D4A35492E4866F01AFA78
:1052B0002C48FBF71FF803469CB22A48FBF71AF864
:1052C000034622462749284843F0B8F9224B1B6879
:1052D000184647F055FA79E01F4B1B6841F28831B8
:1052E000184647F002FA1D4A26491E4866F0FAF9A8
:1052F0001C48FAF7FFFF03469CB21A48FAF7FAFF78
:10530000034622461749184843F098F9124B1B6888
:10531000184647F035FA59E00F4B1B6841F28831C7
:10532000184647F0E2F90D4A17490E4866F0DAF9D7
:105330000C48FAF7DFFF03469CB20A48FAF7DAFF97
:10534000034622460749084843F078F9024B1B6898
:10535000184647F015FA39E068D50024B88B0708DD
:1053600064F50608BCD50024B064002498F506084E
:10537000C0F50608E4F5060814F6060834F6060833
:1053800058F6060874F60608A0F60608B04B1B6827
:1053900041F28831184647F0A8F9AE4AAE49AF4805
:1053A00066F0A0F9AD48FAF7A5FF03469CB2AB48FA
:1053B000FAF7A0FF03462246A849A94843F03EF960
:1053C000A34B1B68184647F0DBF900BFFB79A12B04
:1053D00040F0BA81BB79013B0A2B00F2958101A212
:1053E00052F823F091540008915500081155000817
:1053F0001156000811540008D1540008D155000876
:10540000515500088956000851540008C956000833
:105410008F4B1B6841F28831184647F066F98D4A78
:1054200090498E4866F05EF98C48FAF763FF0346B0
:105430009CB28A48FAF75EFF0346224687498848AD
:1054400043F0FCF8824B1B68184647F099F97BE162
:105450007F4B1B6841F28831184647F046F97D4A78
:1054600081497E4866F03EF97C48FAF743FF0346DF
:105470009CB27A48FAF73EFF0346224677497848BD
:1054800043F0DCF8724B1B68184647F079F95BE192
:105490006F4B1B6841F28831184647F026F96D4A78
:1054A00072496E4866F01EF96C48FAF723FF03460E
:1054B0009CB26A48FAF71EFF0346224667496848CD
:1054C00043F0BCF8624B1B68184647F059F93BE1C2
:1054D0005F4B1B6841F28831184647F006F95D4A78
:1054E00063495E4866F0FEF85C48FAF703FF03463E
:1054F0009CB25A48FAF7FEFE0346224657495848DE
:1055000043F09CF8524B1B68184647F039F91BE1F1
:105510004F4B1B6841F28831184647F0E6F84D4A78
:1055200054494E4866F0DEF84C48FAF7E3FE03466D
:105530009CB24A48FAF7DEFE0346224647494848ED
:1055400043F07CF8424B1B68184647F019F9FBE022
:105550003F4B1B6841F28831184647F0C6F83D4A78
:1055600045493E4866F0BEF83C48FAF7C3FE03469C
:105570009CB23A48FAF7BEFE0346224637493848FD
:1055800043F05CF8324B1B68184647F0F9F8DBE053
:105590002F4B1B6841F28831184647F0A6F82D4A78
:1055A00036492E4866F09EF82C48FAF7A3FE0346CB
:1055B0009CB22A48FAF79EFE03462246274928480D
:1055C00043F03CF8224B1B68184647F0D9F8BBE083
:1055D0001F4B1B6841F28831184647F086F81D4A78
:1055E00027491E4866F07EF81C48FAF783FE0346FA
:1055F0009CB21A48FAF77EFE03462246174918481D
:1056000043F01CF8124B1B68184647F0B9F89BE0B2
:105610000F4B1B6841F28831184647F066F80D4A77
:1056200018490E4866F05EF80C48FAF763FE034628
:105630009CB20A48FAF75EFE03462246074908482C
:1056400042F0FCFF024B1B68184647F099F87BE0DC
:1056500068D50024B88B070864F50608BCD500247B
:10566000B0640024C4F60608F8F606082CF706080D
:1056700060F7060894F70608CCF7060804F8060851
:1056800030F806085CF80608B14B1B6841F2883117
:10569000184647F02AF8AF4AAF49B04866F022F8FA
:1056A000AE48FAF727FE03469CB2AC48FAF722FE52
:1056B00003462246A949AA4842F0C0FFA44B1B68F2
:1056C000184647F05DF83FE0A14B1B6841F2883176
:1056D000184647F00AF89F4AA249A04866F002F827
:1056E0009E48FAF707FE03469CB29C48FAF702FE72
:1056F0000346224699499A4842F0A0FF944B1B6802
:10570000184647F03DF81FE0914B1B6841F2883185
:10571000184646F0EAFF8F4A9349904865F0E2FF49
:105720008E48FAF7E7FD03469CB28C48FAF7E2FD93
:105730000346224689498A4842F080FF844B1B6811
:10574000184647F01DF800BFFB79212B65D1BB79C6
:10575000012B02D0022B20D03FE07D4B1B6841F291
:105760008831184646F0C1FF7A4A80497B4865F087
:10577000B9FF7A48FAF7BEFD03469CB27748FAF7BC
:10578000B9FD034622467549754842F057FF704BF4
:105790001B68184646F0F4FF3FE06D4B1B6841F272
:1057A0008831184646F0A1FF6A4A71496B4865F096
:1057B00099FF6A48FAF79EFD03469CB26748FAF7DC
:1057C00099FD034622466549654842F037FF604B24
:1057D0001B68184646F0D4FF1FE05D4B1B6841F282
:1057E0008831184646F081FF5A4A5F495B4865F0A8
:1057F00079FF5A48FAF77EFD03469CB25748FAF7FC
:1058000079FD034622465549554842F017FF504B53
:105810001B68184646F0B4FF00BFFB79022B40F02E
:105820003181BB79013B062B00F20C8101A252F8B9
:1058300023F000BF5158000891580008D1580008C3
:105840001159000885590008C5590008055A000873
:105850003F4B1B6841F28831184646F046FF3D4AEF
:1058600044493E4865F03EFF3C48FAF743FD034695
:105870009CB23A48FAF73EFD03462246374938487B
:1058800042F0DCFE324B1B68184646F079FFF9E027
:105890002F4B1B6841F28831184646F026FF2D4AEF
:1058A00035492E4865F01EFF2C48FAF723FD0346C4
:1058B0009CB22A48FAF71EFD03462246274928488B
:1058C00042F0BCFE224B1B68184646F059FFD9E057
:1058D0001F4B1B6841F28831184646F006FF1D4AEF
:1058E00026491E4865F0FEFE1C48FAF703FD0346F4
:1058F0009CB21A48FAF7FEFC03462246174918489C
:1059000042F09CFE124B1B68184646F039FFB9E086
:105910000F4B1B6841F28831184646F0E6FE0D4AEF
:1059200017490E4865F0DEFE0C48FAF7E3FC034623
:105930009CB20A48FAF7DEFC0346224607490848AB
:1059400042F07CFE024B1B68184646F019FF99E0B6
:1059500068D50024B88B07088CF80608BCD500244D
:10596000B0640024BCF8060864F50608E0F80608F0
:1059700014F9060838F9060854F9060870F90608FB
:10598000A0F90608AC4B1B6841F28831184646F076
:10599000ACFEAA4AAA49AB4865F0A4FEA948FAF7AA
:1059A000A9FC03469CB2A748FAF7A4FC034622468A
:1059B000A449A54842F042FE9F4B1B68184646F09A
:1059C000DFFE5FE09C4B1B6841F28831184646F0D1
:1059D0008CFE9A4A9D499B4865F084FE9948FAF7E7
:1059E00089FC03469CB29748FAF784FC034622469A
:1059F0009449954842F022FE8F4B1B68184646F0AA
:105A0000BFFE3FE08C4B1B6841F28831184646F0E0
:105A10006CFE8A4A8E498B4865F064FE8948FAF725
:105A200069FC03469CB28748FAF764FC03462246A9
:105A30008449854842F002FE7F4B1B68184646F0B9
:105A40009FFE1FE07C4B1B6841F28831184646F0F0
:105A50004CFE7A4A7F497B4865F044FE7948FAF764
:105A600049FC03469CB27748FAF744FC03462246B9
:105A70007449754842F0E2FD6F4B1B68184646F0CA
:105A80007FFE00BFFB79102B40F03281BB79013BD8
:105A9000062B00F20D8101A252F823F0B95A00083A
:105AA000F95B0008F95A0008395B0008795B0008C7
:105AB000B95B0008715C00085F4B1B6841F28831DC
:105AC000184646F012FE5D4A63495E4865F00AFEDC
:105AD0005C48FAF70FFC03469CB25A48FAF70AFCF6
