:020000040800F2
:100000000000082415BE0008C9BA0008D1BA0008CB
:10001000D9BA0008E1BA0008E9BA000800000000F7
:10002000000000000000000000000000A15B0408C8
:10003000F1BA000800000000F15D0408094C040852
:1000400069BE000869BE000869BE000869BE0008F4
:1000500069BE000869BE000869BE000869BE0008E4
:10006000FFBA000869BE000869BE000869BE000842
:1000700069BE000869BE000869BE000869BE0008C4
:1000800069BE000869BE000869BE000869BE0008B4
:1000900069BE000869BE000869BE000869BE0008A4
:1000A00069BE000869BE000869BE000869BE000894
:1000B00069BE000869BE000869BE000869BE000884
:1000C00069BE000869BE000869BE000869BE000874
:1000D00069BE00080DBB000821BB000869BE00080E
:1000E00069BE000869BE00080000000069BE000883
:1000F00069BE000869BE000869BE000869BE000844
:1001000069BE000869BE000869BE000869BE000833
:1001100069BE000869BE000835BB000869BE00085A
:1001200069BE000869BE000869BE000869BE000813
:1001300069BE000869BE000869BE000869BE000803
:1001400069BE000869BE0008000000000000000051
:1001500069BE000869BE000869BE000869BE0008E3
:1001600069BE000869BE000869BE000869BE0008D3
:1001700069BE000869BE000869BE000800000000F2
:1001800069BE000869BE000869BE000869BE0008B3
:1001900069BE000869BE000869BE000869BE0008A3
:1001A00049BB000869BE00085DBB000869BE0008C5
:1001B00071BB000869BE000869BE000869BE00087E
:1001C00069BE000869BE000869BE000869BE000873
:1001D00069BE000869BE000869BE000869BE000863
:1001E00069BE000869BE000869BE000869BE000853
:1001F00069BE000869BE000869BE000869BE000843
:1002000069BE000869BE000869BE000869BE000832
:1002100069BE000869BE000869BE000869BE000822
:1002200069BE000885BB000899BB000800000000FB
:1002300069BE000869BE000869BE000869BE000802
:1002400069BE000869BE000869BE000869BE0008F2
:1002500069BE000869BE000869BE000869BE0008E2
:1002600069BE000869BE000869BE000869BE0008D2
:1002700069BE000869BE000869BE000869BE0008C2
:1002800069BE000869BE000869BE000800000000E1
:0802900069BE000869BE000808
:1002A00010B5054C237833B9044B13B10448AFF3B0
:1002B00000800123237010BDE05E002400000000D8
:1002C0006864060808B5034B1BB103490348AFF344
:1002D000008008BD00000000E45E00246864060899
:1002E00010F8012B11F8013B012A28BF9A42F7D0E0
:1002F000D01A7047034613F8012B002AFBD1181AB5
:1003000001387047000000000000000000000000FD
:1003100001F0FF01102A2BDB10F0070F08D010F8B6
:10032000013B013A8B422DD010F0070F42B3F6D1BA
:10033000F0B441EA012141EA014122F007047FF0D3
:1003400000070023F0E80256083C85EA010586EA2A
:10035000010685FA47F5A3FA87F586FA47F6A5FA66
:1003600087F68EB9EED1F0BC01F0FF0102F0070272
:1003700032B110F8013B013A83EA010313B1F8D11D
:100380000020704701387047002D06BF35460338FE
:10039000073815F0010F07D1013015F4807F02BF37
:1003A000013015F4C03F0130F0BC0138704700BF88
:1003B00081F0004102E000BF83F0004330B54FEA16
:1003C00041044FEA430594EA050F08BF90EA020F83
:1003D0001FBF54EA000C55EA020C7FEA645C7FEA16
:1003E000655C00F0E2804FEA5454D4EB5555B8BF39
:1003F0006D420CDD2C4480EA020281EA030382EAAA
:10040000000083EA010180EA020281EA0303362D3B
:1004100088BF30BD11F0004F4FEA01314FF4801C0E
:100420004CEA113102D0404261EB410113F0004F20
:100430004FEA03334CEA133302D0524263EB4303D7
:1004400094EA050F00F0A780A4F10104D5F1200E75
:100450000DDB02FA0EFC22FA05F2801841F10001D0
:1004600003FA0EF2801843FA05F359410EE0A5F1A4
:1004700020050EF1200E012A03FA0EFC28BF4CF0D5
:10048000020C43FA05F3C01851EBE37101F000458B
:1004900007D54FF0000EDCF1000C7EEB00006EEB98
:1004A0000101B1F5801F1BD3B1F5001F0CD3490822
:1004B0005FEA30004FEA3C0C04F101044FEA445279
:1004C00012F5800F80F09A80BCF1004F08BF5FEA00
:1004D000500C50F1000041EB045141EA050130BDE0
:1004E0005FEA4C0C404141EB0101013C28BFB1F5F2
:1004F000801FE9D291F0000F04BF01460020B1FA3D
:1005000081F308BF2033A3F10B03B3F120020CDA0F
:100510000C3208DD02F1140CC2F10C0201FA0CF0ED
:1005200021FA02F10CE002F11402D8BFC2F1200C52
:1005300001FA02F120FA0CFCDCBF41EA0C01904008
:10054000E41AA2BF01EB0451294330BD6FEA040451
:100550001F3C1CDA0C340EDC04F11404C4F120023C
:1005600020FA04F001FA02F340EA030021FA04F34E
:1005700045EA030130BDC4F10C04C4F1200220FAA5
:1005800002F001FA04F340EA0300294630BD21FAE3
:1005900004F0294630BD94F0000F83F4801306BFA9
:1005A00081F480110134013D4EE77FEA645C18BF9D
:1005B0007FEA655C29D094EA050F08BF90EA020F34
:1005C00005D054EA000C04BF1946104630BD91EA2C
:1005D000030F1EBF0021002030BD5FEA545C05D12F
:1005E0004000494128BF41F0004130BD14F580046E
:1005F0003CBF01F5801130BD01F0004545F0FE41E2
:1006000041F470014FF0000030BD7FEA645C1ABF16
:10061000194610467FEA655C1CBF0B46024650EA4D
:10062000013406BF52EA033591EA030F41F4002179
:1006300030BD00BF90F0000F04BF0021704730B5FF
:100640004FF4806404F132044FF000054FF00001D4
:1006500050E700BF90F0000F04BF0021704730B595
:100660004FF4806404F1320410F0004548BF40426A
:100670004FF000013EE700BF42004FEAE2014FEABF
:1006800031014FEA02701FBF12F07F4393F07F4F9A
:1006900081F06051704732F07F4208BF704793F09D
:1006A0007F4F04BF41F40021704730B54FF46074B0
:1006B00001F0004521F000411CE700BF50EA0102B3
:1006C00008BF704730B54FF000050AE050EA01025C
:1006D00008BF704730B511F0004502D5404261EBCC
:1006E00041014FF4806404F132045FEA915C3FF40D
:1006F000D8AE4FF003025FEADC0C18BF03325FEAAA
:10070000DC0C18BF033202EBDC02C2F1200300FA5A
:1007100003FC20FA02F001FA03FE40EA0E0021FA7F
:1007200002F11444BDE600BF7BB972B90029BEBF17
:1007300000204FF0004106E008BF00281CBF6FF00A
:1007400000414FF0FF3000F0D3B9ADF1080C6DE976
:1007500004CE002909DB002B1ADB00F04DF8DDF890
:1007600004E0DDE9022304B07047404261EB41013F
:10077000002B1BDB00F040F8DDF804E0DDE902238C
:1007800004B0404261EB4101524263EB43037047C6
:10079000524263EB430300F02FF8DDF804E0DDE99B
:1007A000022304B0404261EB41017047524263EBC7
:1007B000430300F021F8DDF804E0DDE9022304B092
:1007C000524263EB4303704753B94AB9002908BF4B
:1007D00000281CBF4FF0FF314FF0FF3000F088B908
:1007E000ADF1080C6DE904CE00F006F8DDF804E088
:1007F000DDE9022304B070472DE9F047089D8E46DD
:1008000004468846002B4AD18A42174662D9B2FA7A
:1008100082F64EB1C6F1200301FA06F820FA03F37E
:10082000B74043EA0808B4404FEA174E1FFA87FC66
:10083000B8FBFEF1230C0EFB118843EA084301FBD1
:100840000CF29A4209D9FB1801F1FF3080F0EA80DE
:100850009A4240F2E78002393B449A1AA3B2B2FBB3
:10086000FEF00EFB102243EA024300FB0CFC9C4509
:1008700009D9FB1800F1FF3280F0D6809C4540F288
:10088000D3803B44023840EA0140A3EB0C03002133
:100890001DB1F3400022C5E90032BDE8F0878B426C
:1008A00005D90DB1C5E9000100210846F5E7B3FA05
:1008B00083F1002946D1734502D3824200F20581BB
:1008C000841A6EEB030201209046002DE5D0C5E9A5
:1008D0000048E2E7002A00F09080B2FA82F6002E8B
:1008E00040F0A4808A1A030C4FEA174E80B2BCB2C3
:1008F0000121B2FBFEFC0EFB1C2243EA024304FB77
:100900000CF29A4207D9FB180CF1FF3802D29A4236
:1009100000F2E080C4469B1AB3FBFEF20EFB1233DA
:1009200040EA034302FB04F49C4207D9FB1802F19E
:10093000FF3002D29C4200F2CA8002461B1B42EAF0
:100940000C40A5E7C1F120068B4022FA06F71F43B1
:100950000EFA01F420FA06F32EFA06FE4FEA1749C2
:10096000234300FA01F81FFA87FCBEFBF9F01C0CC8
:1009700009FB10EE44EA0E4400FB0CFEA64502FA09
:1009800001F209D93C1900F1FF3A80F09C80A6459C
:1009900040F2998002383C44A4EB0E041FFA83FE17
:1009A000B4FBF9F309FB13444EEA044403FB0CFCCB
:1009B000A44508D93C1903F1FF3E80F08280A4458C
:1009C0007FD9023B3C4443EA0040A4EB0C04A0FB6B
:1009D00002EC64457346E14662D35FD05DB1B8EB8B
:1009E000030264EB090404FA06F622FA01F31E433B
:1009F000CC40C5E9006400214FE7B1FBF2FC010CDB
:100A000041EA0E4180B240EA01423B4638463C464C
:100A1000B846BE462026B1FBF7F1A2EB080241EA38
:100A20000C4166E7014618E710462CE7C6F12002A4
:100A30002EFA02F3B740B14020FA02F24FEA174E05
:100A40000A43B3FBFEF8BCB20EFB1833110C41EAAB
:100A5000034108FB04F9B04089454FEA104380B2D6
:100A60003ED9791808F1FF3C01D289451FD8A1EB86
:100A70000901B1FBFEF909FB04F80EFB191192B252
:100A800042EA0142424529D2BA1809F1FF31C4D2E3
:100A90004245C2D2A9F102013A44BEE7F0459DD2D7
:100AA000BEEB02036CEB070C0138E14696E7A7EBBF
:100AB00009094944A8F1020CB1FBFEF909FB04F84D
:100AC000DBE773467FE7504666E70846FDE63B44B2
:100AD000023A33E7ACF1020C3B441CE749469CE781
:100AE000A1EB0901C446B1FBFEF909FB04F8C4E718
:100AF000704700BF80B584B000AF09F0F9FF764BB6
:100B00005B6903F40033002B1BD1BFF34F8F00BF91
:100B1000BFF36F8F00BF704B0022C3F85022BFF3AA
:100B20004F8F00BFBFF36F8F00BF6B4B5B696A4A8B
:100B300043F400335361BFF34F8F00BFBFF36F8F98
:100B400000E000BF644B5B6903F48033002B38D1B5
:100B5000614B0022C3F88420BFF34F8F00BF5E4B70
:100B6000D3F88030FB60FB685B0BC3F30E03BB6004
:100B7000FB68DB08C3F309037B60BB685A0143F6DB
:100B8000E07313407A68920753491343C1F8603207
:100B90007B685A1E7A60002BEFD1BB685A1EBA6080
:100BA000002BE5D1BFF34F8F00BF4B4B5B694A4A27
:100BB00043F480335361BFF34F8F00BFBFF36F8F98
:100BC00000E000BF31F0A8FE00F0C6F800F0EAFB3C
:100BD00000F072FB00F090FB00F0D8F900F042F951
:100BE00000F062F900F0BEF900F054FA00F07AF972
:100BF00000F0CAFA00F07CFA0BF0A2F800F0A0FABC
:100C000000F00EFB0BF038F90BF02FF944F016F85A
:100C1000324844F00AF90346314A1360314A02214E
:100C2000402044F02FFB03462F4A13602F4A022135
:100C3000402044F027FB03462D4A13602D4A012132
:100C40004FF4806044F01EFB03462B4A13602B4A8E
:100C500001214FF4807044F015FB0346284A1360CD
:100C6000284A0021284844F033F80346274A1360F5
:100C7000274A0021274844F02BF80346264A1360F0
:100C8000264A0021264844F023F80346254A1360EB
:100C9000254A0021254844F01BF80346244A1360E6
:100CA000244A0021244844F013F80346234A1360E1
:100CB000234A0021234844F00BF80346224A1360DC
:100CC000224A0021224844F003F80346214A1360D7
:100CD00043F0D8FF00BFFDE700ED00E040DE06086E
:100CE00054D10024E0DD060804CA0024F8DD06081B
:100CF000D8CA002410DE0608ACCB002428DE060883
:100D000000D00024E4DC06082D9E0008F8650024CD
:100D100008DD060889BE0008A47600242CDD06083C
:100D20003DA60008A876002450DD0608A1A600080C
:100D30005487002474DD06081DA7000800980024CD
:100D400098DD060881A70008ACA80024BCDD0608D1
:100D5000E5A7000858B9002480B59CB000AF07F1A2
:100D600024034C220021184663F0C1F83B1D2022C9
:100D70000021184663F0BBF8042039F0A9F80023DD
:100D80003B60364BDB6A354A23F00103D362334BB9
:100D9000DB6A03F001033B60314B9B69304A43F44B
:100DA000404393612E4B9B6903F440433B603B6897
:100DB00000BF2B4B9B6903F40053B3F5005FF8D1E0
:100DC0000B237B624FF48033BB6201233B634023E0
:100DD0007B630123BB630223BB640223FB64052303
:100DE0003B65A0237B650223BB650423FB650223CF
:100DF0003B6608237B660023BB660023FB6607F186
:100E0000240318463AF048FB0346002B01D009F0B2
:100E1000B9FE3F237B600323BB600023FB600823F4
:100E20003B6140237B614023BB614FF48063FB61E6
:100E300040233B623B1D022118463BF0DDF8034690
:100E4000002B01D009F09EFE4FF4802200210020EB
:100E50003BF042FC00BF7037BD4680BD0004005827
:100E60000048025880B500AF0D4B0E4A1A600C4B7B
:100E700000221A710A4B00225A71094B00225A6152
:100E8000074B00229A61064B01221A62044832F095
:100E9000C9F80346002B01D009F074FE00BF80BDE5
:100EA000FC5E0024004C025880B500AF0B4B0C4A8E
:100EB0001A600A4B4FF440325A60084B02229A6083
:100EC000064B0022DA60054832F068FF0346002B2B
:100ED00001D009F057FE00BF80BD00BF205F002495
:100EE0000010005280B500AF1B4B1C4A1A601A4B11
:100EF0001B4A5A60184B00229A60174B0122DA6095
:100F0000154B00221A61144B00225A61124B002229
:100F10009A61114B0022DA610F4B00221A620E48CF
:100F200033F0AEFD0346002B01D009F02BFE00216B
:100F3000094834F029FC0346002B01D009F022FEB9
:100F40000021054834F096FC0346002B01D009F03F
:100F500019FE00BF80BD00BF885F0024001C005840
:100F6000B634900080B500AF064B074A1A600548BA
:100F700034F0F4FC0346002B01D009F003FE00BF5F
:100F800080BD00BFDC5F00240030005280B58EB011
:100F900000AF09F033FE3B1D34220021184662F0F9
:100FA000A6FF3A4B3A4A1A60384B00225A60374B38
:100FB00000229A60354B0022DA60344B00221A611D
:100FC000324B28225A61314B09229A612F4B35222C
:100FD000DA612E4B0B221A622C4B40F215225A6218
:100FE0002A4B40F21B129A62284B40F23522DA62F9
:100FF000264B40F21D121A63244B002283F8342042
:10100000224B002283F83520204B002283F8362023
:101010001E4836F0FBFC0346002B01D009F0B2FD60
:1010200000237B604FF4F073BB600023FB604FF440
:1010300088733B6102237B61FF23BB610023FB615B
:101040004FF480633B6205237B624FF05043BB62E9
:101050004FF4F073FB624FF488733B63002387F80F
:101060003430002387F83530002387F836303B1DB5
:1010700000221946054836F0A7FE0346002B01D092
:1010800009F080FD00BF3837BD4680BD0C610024EB
:101090000010005080B500AF124B134A1A60114B7C
:1010A00001225A600F4B01229A600E4B1022DA6027
:1010B0000C4B1A221A610B4B4FF400725A61094B08
:1010C00000229A61074B40221A62064838F07CFFE2
:1010D0000346002B01D009F055FD044809F002FE3B
:1010E00000BF80BDB46100240050005285AB0008F1
:1010F00080B500AF104B114A1A600F4B00225A60A6
:101100000D4B7F229A600C4BFF22DA600A4B0022C3
:101110001A61094B00229A61074B0022DA61064BE3
:1011200000225A6104483EF0E3FE0346002B01D042
:1011300009F028FD00BF80BD006200240040005877
:1011400080B500AF0E4B0F4A1A600D4B00225A605B
:101150000B4B00229A600A4B4FF40042DA60084BB6
:1011600000221A61064B00225A61054837F018FF29
:101170000346002B01D009F005FD00BF80BD00BF74
:10118000246200240070005280B500AF224B234A35
:101190001A60214B4FF4E1325A601F4B00229A60D3
:1011A0001D4B0022DA601C4B00221A611A4B0C22E4
:1011B0005A61194B00229A61174B0022DA61164BD3
:1011C00000221A62144B00225A62134B00229A62C8
:1011D00011483FF08BFD0346002B01D009F0D2FCF3
:1011E00000210D4842F06EFB0346002B01D009F0B0
:1011F000C9FC0021084842F0FFFB0346002B01D048
:1012000009F0C0FC044842F0E3FA0346002B01D089
:1012100009F0B8FC00BF80BD9C64002400100140B0
:1012200080B500AF224B234A1A60214B4FF4E132C4
:101230005A601F4B00229A601D4B0022DA601C4B43
:1012400000221A611A4B0C225A61194B00229A6132
:10125000174B0022DA61164B00221A62144B00224F
:101260005A62134B00229A6211483FF03FFD034639
:10127000002B01D009F086FC00210D4842F022FB32
:101280000346002B01D009F07DFC0021084842F004
:10129000B3FB0346002B01D009F074FC044842F074
:1012A00097FA0346002B01D009F06CFC00BF80BD0B
:1012B000306500240044004080B582B000AF0D4B83
:1012C000D3F8D4300B4A43F00103C2F8D430094BB1
:1012D000D3F8D43003F001037B607B680022052142
:1012E0007A2031F097FC7A2031F0BEFC00BF08373D
:1012F000BD4680BD0044025880B588B000AF3B1D9C
:1013000000221A605A609A60DA601A615A619A6122
:10131000214B224A1A60204B01225A601E4B0022A8
:101320009A601D4B0422DA601B4B10221A611A4B83
:1013300040225A61184B4FF480729A61164B00227A
:10134000DA61154B4FF400621A62134B4FF480526E
:101350005A62114B00229A6202237B600623BB6013
:101360000423FB6006233B6102237B610223BB61F4
:101370000223FB613B1D194607483FF01BF803465B
:10138000002B01D009F0FEFB054809F0CCFC00BFA2
:101390002037BD4680BD00BFC465002440410052D7
:1013A00085AB000880B590B000AF07F12C03002298
:1013B0001A605A609A60DA601A61A04BD3F8E03084
:1013C0009E4A43F48063C2F8E0309C4BD3F8E0308F
:1013D00003F48063BB62BB6A984BD3F8E030974A52
:1013E00043F04003C2F8E030944BD3F8E03003F010
:1013F00040037B627B6A914BD3F8E0308F4A43F025
:101400000803C2F8E0308D4BD3F8E03003F0080356
:101410003B623B6A894BD3F8E030884A43F00403CF
:10142000C2F8E030854BD3F8E03003F00403FB61F1
:10143000FB69824BD3F8E030804A43F48073C2F8F2
:10144000E0307E4BD3F8E03003F48073BB61BB69BE
:101450007A4BD3F8E030794A43F01003C2F8E03019
:10146000764BD3F8E03003F010037B617B69734B5C
:10147000D3F8E030714A43F00203C2F8E0306F4B1A
:10148000D3F8E03003F002033B613B696B4BD3F8C8
:10149000E0306A4A43F40073C2F8E030674BD3F897
:1014A000E03003F40073FB60FB68644BD3F8E0307A
:1014B000624A43F00103C2F8E030604BD3F8E030F9
:1014C00003F00103BB60BB685C4BD3F8E0305B4AC0
:1014D00043F02003C2F8E030584BD3F8E03003F07B
:1014E00020037B607B68554BD3F8E030534A43F0D0
:1014F0008003C2F8E030514BD3F8E03003F08003B2
:101500003B603B68002208214D4833F051FA01222C
:101510004FF400514B4833F04BFA002208214A485F
:1015200033F046FA00224021484833F041FA0122C4
:101530000421474833F03CFA0823FB6201233B6354
:1015400000237B630023BB6307F12C0319463C484F
:1015500032F018FE4FF48073FB6202233B630023DA
:101560007B630023BB630023FB6307F12C03194655
:10157000364832F007FE4FF40053FB6201233B6311
:1015800000237B630023BB6307F12C0319462D481E
:1015900032F0F8FD0823FB6201233B6300237B63E9
:1015A0000323BB6307F12C031946274832F0EAFDF9
:1015B0000423FB624FF404133B6300237B6307F1B6
:1015C0002C031946204832F0DDFD4FF44063FB62E6
:1015D00002233B6301237B630323BB630723FB637A
:1015E00007F12C0319461B4832F0CCFD4023FB6267
:1015F00001233B6300237B630323BB6307F12C03BD
:101600001946124832F0BEFD0423FB6201233B63FE
:1016100000237B630023BB6307F12C0319460C48AE
:1016200032F0B0FD00220521082031F0F3FA082045
:1016300031F01AFB00BF4037BD4680BD0044025860
:10164000000C0258002002580018025800000258EE
:10165000002402580004025890B583B000AF04463D
:10166000084611461A462346FB710346BB710B46DA
:101670007B7113463B71FB796433114A5361BB792B
:10168000013B0F4A13617B790D4AD3603B790C4AC9
:1016900093603B7E0A4A53603B7F094A13600848C7
:1016A00062F044FD02460B460649C1E90023054BA2
:1016B000D3E90023134618460C37BD4690BD00BF42
:1016C000480901247009012490B583B000AF786007
:1016D000544B1B68184643F007FF03469AB2524B1F
:1016E0001A80514B1B88002B00F095804F4B1B68D4
:1016F00041F28831184643F01EFC4B4B1B884C4A84
:101700004C494D4862F08CFB4B48FEF7F3FD034615
:101710009CB24948FEF7EEFD03462246464947483B
:101720003FF0B2FB414B1B68184643F04FFC444B63
:1017300000221A803CE03B4B1868002300224149FC
:1017400043F074FE0346404A13603F4B1B68002B76
:1017500020D0364B1B6841F28831184643F0EBFB32
:10176000394B1B68324A3949334862F059FB3248D9
:10177000FEF7C0FD03469CB22F48FEF7BBFD0346B3
:1017800022462D492D483FF07FFB284B1B68184609
:1017900043F01CFC2A4B1B881A467B681344294AD9
:1017A00012781A70264B1B8801339AB2244B1A8088
:1017B0001C4B1B68184643F097FE0346002B05D0D0
:1017C0001F4B1B8840F6FD729342B4D91C4B1A88FC
:1017D000154B1A80154B1B6841F28831184643F0AF
:1017E000AAFB114B1B88124A1949134862F018FBD7
:1017F0001148FEF77FFD03469CB20F48FEF77AFDC5
:10180000034622460C490D483FF03EFB074B1B6840
:10181000184643F0DBFB044B1B8818460C37BD46CB
:1018200090BD00BF00D000247809012454D10024C9
:1018300050DE060810650608A8D100249C64002428
:101840007A0901247C0901248009012438650608ED
:101850007065060890B583B000AF78607B681B6840
:101860002F4A934216D12F4B1A782F4B1A702F4BB9
:101870001868002300222C4943F078FD03462C4AC7
:101880001360012227492B483FF08CFB03461A4680
:10189000294B1A707B681B68284A93423BD1284B1E
:1018A0001A78284B1A70284B186800230022254903
:1018B00043F05CFD03461E4A13601D4B1B68002B62
:1018C00020D0224B1B6841F28831184643F033FB8D
:1018D000174B1B681E4A1F491F4862F0A1FA1E4899
:1018E000FEF708FD03469CB21B48FEF703FD0346C6
:1018F000224619490F483FF0C7FA144B1B68184697
:1019000043F064FB01220E4914483FF04BFB0346B1
:101910001A46094B1A7000BF0C37BD4690BD00BF78
:1019200000100140D5E900248409012400D00024DE
:10193000880901249C6400248C090124004400408F
:10194000D4E900248D090124ACCB002454D1002417
:101950006CDE060898650608A8D1002430650024CE
:1019600090B585B000AFF8607B600B467B81134675
:101970007B727D4B00221A805AE17B7A002B2AD0A1
:10198000794B1B8803F00F039BB2002B23D1774BBD
:101990001B6841F28831184643F0CDFA724B1B8820
:1019A0001A467B6813441A467149724862F038FA45
:1019B0007048FEF79FFC03469CB26E48FEF79AFC07
:1019C000034622466B496C483FF05EFA674B1B6842
:1019D000184643F0FBFA654B1B6841F28831184604
:1019E00043F0A9FA604B1B881A46FB6813441B7826
:1019F0001A4662495F4862F013FA5E48FEF77AFCC5
:101A000003469CB25B48FEF775FC034622465949E3
:101A100059483FF039FA554B1B68184643F0D6FA3F
:101A2000524B1B6841F28831184643F084FA5449FE
:101A3000504862F0F5F94F48FEF75CFC03469CB253
:101A40004C48FEF757FC034622464A494A483FF0B5
:101A50001BFA464B1B68184643F0B8FA424B1B88EA
:101A600003F00F039BB2072B1DD1404B1B6841F2C3
:101A70008831184643F05FFA42493E4862F0D0F997
:101A80003C48FEF737FC03469CB23A48FEF732FC6E
:101A900003462246374938483FF0F6F9334B1B6876
:101AA000184643F093FA304B1B8803F00F039BB2A8
:101AB0000F2B40F0B7802D4B1B6841F28831184640
:101AC00043F039FA2F492B4862F0AAF92948FEF76A
:101AD00011FC03469CB22748FEF70CFC0346224645
:101AE000244925483FF0D0F9204B1B68184643F0A5
:101AF0006DFA1D4B1B880F3B9AB2234B1A806DE089
:101B0000214B1B881A46FB6813441B7801331F4A7C
:101B100013441B7803F09703002B3BD0134B1B6837
:101B200041F28831184643F006FA174B1B881A46D3
:101B3000FB6813441B781A4615490E4862F070F989
:101B40000C48FEF7D7FB03469CB20A48FEF7D2FBCF
:101B500003462246074908483FF096F9034B1B68A5
:101B6000184643F033FA33E08E09012454D100249F
:101B7000D0650608A8D100249C640024E46506080A
:101B8000EC650608F065060890090124981107081D
:101B9000F8650608A84B1B6841F28831184643F0E7
:101BA000CAF9A649A64862F03BF9A548FEF7A2FB90
:101BB00003469CB2A248FEF79DFB03462246A0497D
:101BC000A0483FF061F99C4B1B68184643F0FEF9B2
:101BD0009D4B1B8801339AB29B4B1A809B4B1A88F2
:101BE000994B1B889A428BD2934B1B6841F28831E8
:101BF000184643F0A0F99649914862F011F99048CF
:101C0000FEF778FB03469CB28D48FEF773FB034654
:101C100022468B498B483FF037F9874B1B681846A3
:101C200043F0D4F9894B1B8801339AB2874B1A8051
:101C3000864B1B887A899A423FF69FAE7B8903F0D8
:101C40000F039BB2002B00F0D5807B8903F00F03BC
:101C50009AB27D4B1A8023E0774B1B6841F28831A2
:101C6000184643F068F97B49754862F0D9F8744822
:101C7000FEF740FB03469CB27148FEF73BFB034670
:101C800022466F496F483FF0FFF86B4B1B681846C0
:101C900043F09CF96C4B1B8801339AB26A4B1A8053
:101CA000694B1B880F2BD7D97B8903F008039BB2A4
:101CB000002B1DD1604B1B6841F28831184643F060
:101CC0003AF965495E4862F0ABF85D48FEF712FBF1
:101CD00003469CB25A48FEF70DFB0346224658497C
:101CE00058483FF0D1F8544B1B68184643F06EF942
:101CF000514B1B6841F28831184643F01CF9564994
:101D00004F4862F08DF84E48FEF7F4FA03469CB255
:101D10004B48FEF7EFFA03462246494949483FF04F
:101D2000B3F8454B1B68184643F050F97B8923F004
:101D30000F039AB2444B1A8057E0434B1B881A4654
:101D4000FB6813441B780133444A13441B7803F0A7
:101D50009703002B25D0384B1B6841F28831184679
:101D600043F0E9F8384B1B881A46FB6813441B788C
:101D70001A463B49324862F053F83148FEF7BAFA46
:101D800003469CB22E48FEF7B5FA034622462C497C
:101D90002C483FF079F8284B1B68184643F016F999
:101DA0001DE0254B1B6841F28831184643F0C3F80B
:101DB0002249234862F034F82148FEF79BFA034693
:101DC0009CB21F48FEF796FA034622461C491D485E
:101DD0003FF05AF8184B1B68184643F0F7F81A4BB7
:101DE0001B8801339AB2184B1A80174B1B887A89CB
:101DF0009A42A2D8104B1B6841F28831184643F032
:101E00009AF813490E4862F00BF80D48FEF772FA83
:101E100003469CB20A48FEF76DFA0346224608497B
:101E200008483FF031F8044B1B68184643F0CEF8E1
:101E300000BF1437BD4690BD54D10024FC65060890
:101E4000A8D100249C640024900901248E09012457
:101E50000066060804660608F0650608981107087B
:101E6000F865060890B583B002AF654B1B684FF468
:101E70007A71184643F05FF86249634861F0D0FF19
:101E80006148FEF737FA03469CB25F48FEF732FA24
:101E9000034622465C495D483EF0F6FF59495A48E0
:101EA00061F0BEFF5848FEF725FA03469CB256483B
:101EB000FEF720FA03462246534954483EF0E4FF19
:101EC0005049514861F0ACFF4F48FEF713FA034602
:101ED0009CB24D48FEF70EFA034622464A494B484B
:101EE0003EF0D2FF4A49484861F09AFF4648FEF763
:101EF00001FA03469CB24448FEF7FCF90346224629
:101F0000414942483EF0C0FF42493F4861F088FFE6
:101F10003D48FEF7EFF903469CB23B48FEF7EAF96D
:101F200003462246384939483EF0AEFF3A49364822
:101F300061F076FF3448FEF7DDF903469CB2324883
:101F4000FEF7D8F9034622462F4930483EF09CFF61
:101F500041230193314B0093314B314A31492A4897
:101F600061F05EFF2848FEF7C5F903469CB226489B
:101F7000FEF7C0F903462246234924483EF084FF79
:101F8000294A2A49204861F04BFF1F48FEF7B2F961
:101F900003469CB21C48FEF7ADF9034622461A4997
:101FA0001A483EF071FF2249174861F039FF164880
:101FB000FEF7A0F903469CB21348FEF79BF90346CF
:101FC0002246114911483EF05FFF12490E4861F068
:101FD00027FF0D48FEF78EF903469CB20A48FEF72C
:101FE00089F903462246084908483EF04DFF044B54
:101FF0001B68184642F0EAFF00BF0437BD4690BD9B
:1020000054D1002408660608A8D100249C6400244A
:10201000346606083C6606088466060800670608FB
:10202000CC660608D066060804670608106706082E
:102030003867060890B585B000AF03460A46FB71C5
:102040001346BB71974B1B6841F28831184642F02A
:1020500072FFFB79944A9549954861F0E1FE9448F6
:10206000FEF748F903469CB29148FEF743F9034650
:1020700022468F498F483EF007FF8A4B1B6818465F
:1020800042F0A4FF8C4B00221A728B4B0022DA60C4
:10209000894B002283F8C820884B00221A70884B95
:1020A00018221A70BB79002B1BD0864B0133854A4E
:1020B00052781946FF2007F097FE0346FB73FA7922
:1020C000FB7B9A4201D1012200E003227B4B1A7074
:1020D000FA79FB7B9A4201D1062200E01522784B67
:1020E0001A70704B1B6841F28831184642F023FF8A
:1020F00075496F4861F094FE6D48FEF7FBF80346A2
:102100009CB26B48FEF7F6F80346224668496948D8
:102110003EF0BAFE634B1B68184642F057FF664B11
:10212000DB7C1946002300226648FFF719FC5D4B53
:102130001B6841F28831184642F0FDFE63495C4855
:1021400061F06EFE5A48FEF7D5F803469CB2584837
:10215000FEF7D0F803462246554956483EF094FE15
:10216000504B1B68184642F031FF534B00221A7443
:1021700001230122524956483EF086FE504B1B78FF
:10218000182B46D0182B64DC062B02D0152B20D040
:102190005FE0444B1B6841F28831184642F0CBFEA9
:1021A000414A4C49424861F03BFE4148FEF7A2F8E3
:1021B00003469CB23E48FEF79DF8034622463C4942
:1021C0003C483EF061FE374B1B68184642F0FEFE6D
:1021D00061E0344B1B6841F28831184642F0ABFE97
:1021E000314A3D49324861F01BFE3148FEF782F822
:1021F00003469CB22E48FEF77DF8034622462C4942
:102200002C483EF041FE274B1B68184642F0DEFE8C
:1022100041E0244B1B6841F28831184642F08BFEA6
:10222000214A2E49224861F0FBFD2148FEF762F861
:1022300003469CB21E48FEF75DF8034622461C4941
:102240001C483EF021FE174B1B68184642F0BEFEAC
:1022500021E0144B1B6841F28831184642F06BFEB6
:10226000174B1B78104A1E49114861F0D9FD1048E0
:10227000FEF740F803469CB20D48FEF73BF80346D4
:1022800022460B490B483EF0FFFD064B1B681846E3
:1022900042F09CFE00BF094B1B7818461437BD4620
:1022A00090BD00BF54D1002484DE0608746906087E
:1022B000A8D100249C640024700401249209012404
:1022C000930901248404012494690608F46906082A
:1022D00030650024546A0608906A0608E06A060819
:1022E000586B060890B583B000AF0346FB71234BD3
:1022F0001B6841F28831184642F01DFEFB79204AE6
:102300002049214861F08CFD1F48FDF7F3FF03468B
:102310009CB21D48FDF7EEFF034622461A491B48B2
:102320003EF0B2FD154B1B68184642F04FFE184BAD
:10233000DB7C1A46164B1344FA791A75144BDB7C76
:102340000133DAB2124BDA74124B5B78032B0AD9E1
:10235000104B5B78033BDAB20D4B83F8C9200C4B72
:1023600004221A7406E00A4B012283F8C920084BA4
:1023700005221A7400BF0C37BD4690BD54D100240D
:102380009CDE0608A06B0608A8D100249C640024EB
:10239000700401248404012480B483B000AF034698
:1023A000FB71144B93F8C930013BDAB2114B83F83F
:1023B000C920104BDB7C1A460E4B1344FA791A7570
:1023C0000C4BDB7C0133DAB20A4BDA74094BDB7C51
:1023D000B32B05D8074BDA7C074B5B789A4202D9BE
:1023E000044B05221A7400BF0C37BD465DF8047B10
:1023F000704700BF700401248404012498B500AF25
:10240000194B1B6841F28831184642F094FD174A77
:102410001749184861F004FD1648FDF76BFF0346A5
:102420009CB21448FDF766FF034622461149124844
:102430003EF02AFD0C4B1B68184642F0C7FD0F4BBF
:1024400000221A740D4B002283F8C8200B4B002287
:102450001A700A4B00221A72084B00225A60074B6E
:102460000022DA6000BF98BD54D10024B0DE060817
:10247000BC6B0608A8D100249C64002470040124CD
:1024800090B583B000AF0346FB71FB79022B02D9F4
:10249000FB79B42B2DD9214B1B6841F288311846AA
:1024A00042F049FDFB791E4A1E491F4861F0B8FC05
:1024B0001D48FDF71FFF03469CB21B48FDF71AFF9E
:1024C00003462246184919483EF0DEFC134B1B68B0
:1024D000184642F07BFD164B00221A74144B002262
:1024E00083F8C820124B00221A72114B0022DA60C6
:1024F00010E00F4B02221A740D4BDB7C1A460C4B7A
:102500001344FA791A750A4BDB7C0133DAB2084BB3
:10251000DA7400BF00BF0C37BD4690BD54D1002413
:10252000C8DE0608D86B0608A8D100249C640024E5
:102530007004012490B585B002AF0346FB719F4B38
:1025400000221A70FB79012B39D19D4B1B6841F297
:102550008831184642F0EFFC9A4A9B499B4861F04B
:102560005FFC9A48FDF7C6FE03469CB29748FDF70C
:10257000C1FE03462246954995483EF085FC904BA6
:102580001B68184642F022FD924B01221A74914BAF
:102590000022DA748F4B012283F8C8208D4BDB7C3C
:1025A0001A468C4B1344FA791A758A4BDB7C01333B
:1025B000DAB2884BDA74874B00221A72F9E1854B44
:1025C0009B7C002B00F03781FB79062B02D0FB7936
:1025D000152B0ED17F4B00229A747E4B00221A706D
:1025E0007C4B00221A727B4B00225A60794B0022EE
:1025F000DA60FB79062B22D1714B1B6841F28831DE
:10260000184642F098FC6F4A7349704861F008FC24
:102610006E48FDF76FFE03469CB26C48FDF76AFEFC
:102620000346224669496A483EF02EFC644B1B680B
:10263000184642F0CBFC614B02221A70B9E1FB79DB
:10264000152B22D15E4B1B6841F28831184642F0AF
:1026500072FC5C4A61495D4861F0E2FB5B48FDF752
:1026600049FE03469CB25948FDF744FE0346224604
:10267000564957483EF008FC514B1B68184642F03B
:10268000A5FC4E4B05221A7093E1FB790133544AA5
:1026900013441B7803F09703002B23D0484B1B688F
:1026A00041F28831184642F046FCFA79FB790093F2
:1026B0001346444A4B49454861F0B2FB4348FDF795
:1026C00019FE03469CB24148FDF714FE034622461C
:1026D0003E493F483EF0D8FB394B1B68184642F054
:1026E00075FC66E1FB79182B47D0182B00F382802C
:1026F000062B02D0152B20D07CE0314B1B6841F219
:102700008831184642F017FC2E4A37492F4861F0AD
:1027100087FB2E48FDF7EEFD03469CB22B48FDF7E4
:10272000E9FD03462246294929483EF0ADFB244BEA
:102730001B68184642F04AFC3BE1214B1B6841F202
:102740008831184642F0F7FB1E4A28491F4861F0BD
:1027500067FB1E48FDF7CEFD03469CB21B48FDF704
:10276000C9FD03462246194919483EF08DFB144B1A
:102770001B68184642F02AFC1BE1114B1B6841F212
:102780008831184642F0D7FB0E4A19490F4861F0CC
:1027900047FB0E48FDF7AEFD03469CB20B48FDF724
:1027A000A9FD03462246094909483EF06DFB044B4A
:1027B0001B68184642F00AFCFBE000BF94090124A4
:1027C00054D10024DCDE06080C6C0608A8D10024D5
:1027D0009C64002470040124246C06083C6C0608E8
:1027E00098110708546C0608846C0608A86C060843
:1027F000CC6C0608724B1B6841F28831184642F0D7
:102800009AFBFB796F4A7049704861F009FB6F4889
:10281000FDF770FD03469CB26C48FDF76BFD034667
:1028200022466A496A483EF02FFB654B1B681846F2
:1028300042F0CCFBBDE0FB790133664A13441B78C0
:1028400003F09703002B23D05D4B1B6841F28831C6
:10285000184642F070FBFA79FB7900931346594A07
:102860005D495A4861F0DCFA5848FDF743FD0346DC
:102870009CB25648FDF73EFD034622465349544854
:102880003EF002FB4E4B1B68184642F09FFB8AE06D
:10289000FB79182B46D0182B64DC062B02D0152BA5
:1028A00020D05FE0464B1B6841F28831184642F069
:1028B00042FB444A4949454861F0B2FA4348FDF7B2
:1028C00019FD03469CB24148FDF714FD034622461C
:1028D0003E493F483EF0D8FA394B1B68184642F053
:1028E00075FB60E0364B1B6841F28831184642F0B8
:1028F00022FB344A3A49354861F092FA3348FDF7F1
:10290000F9FC03469CB23148FDF7F4FC034622462D
:102910002E492F483EF0B8FA294B1B68184642F062
:1029200055FB40E0264B1B6841F28831184642F0C7
:1029300002FB244A2B49254861F072FA2348FDF72F
:10294000D9FC03469CB22148FDF7D4FC034622463D
:102950001E491F483EF098FA194B1B68184642F072
:1029600035FB20E0164B1B6841F28831184642F0D7
:10297000E2FAFB79134A1449144861F051FA1348FA
:10298000FDF7B8FC03469CB21048FDF7B3FC0346C4
:1029900022460E490E483EF077FA094B1B6818464E
:1029A00042F014FB00BF104B00221A700E4B0022A5
:1029B0005A600E4B1B7818460C37BD4690BD00BFC1
:1029C00054D10024DCDE0608F06C0608A8D10024EF
:1029D0009C64002498110708546C0608846C06084F
:1029E000A86C0608CC6C0608700401249409012424
:1029F00090B583B000AF0346FB71FB79012B4CD936
:102A0000514B1B6841F28831184642F094FAFB7929
:102A10004E4A4F494F4861F003FA4E48FDF76AFCB1
:102A200003469CB24B48FDF765FC034622464949E4
:102A300049483EF029FA444B1B68184642F0C6FA52
:102A4000414B1B6841F28831184642F074FA3F4A04
:102A50004249404861F0E4F93E48FDF74BFC03462B
:102A60009CB23C48FDF746FC0346224639493A48A9
:102A70003EF00AFA344B1B68184642F0A7FA384B6E
:102A800000221A74364B002283F8C820344B0022EF
:102A90001A72334B0022DA6051E0FB79002B1FD110
:102AA000294B1B6841F28831184642F044FA274A04
:102AB0002C49284861F0B4F92648FDF71BFC034671
:102AC0009CB22448FDF716FC0346224621492248C1
:102AD0003EF0DAF91C4B1B68184642F077FA1EE00C
:102AE000194B1B6841F28831184642F024FA174A04
:102AF0001D49184861F094F91648FDF7FBFB0346A1
:102B00009CB21448FDF7F6FB0346224611491248D1
:102B10003EF0BAF90C4B1B68184642F057FA104BBE
:102B200003221A740E4BDB7C1A460D4B1344FA79C0
:102B30001A750B4BDB7C0133DAB2094BDA7400BF38
:102B40000C37BD4690BD00BF54D10024F0DE06080E
:102B50001C6D0608A8D100249C640024786D06082A
:102B600070040124A06D0608C06D060890B585B0FC
:102B700000AF0346FB710023BB730023FB736AE0C5
:102B8000524B186807F10E010023002242F04EFC60
:102B900003464F4A13604E4B1B68002B20D04D4B11
:102BA0001B6841F28831184642F0C5F9484B1B6852
:102BB000494A4A494A4861F033F94948FDF79AFBC6
:102BC00003469CB24648FDF795FB0346224644491E
:102BD00044483EF059F93F4B1B68184642F0F6F95D
:102BE000414B1B7C052B33D801A252F823F000BFC8
:102BF000092C0008172C0008212C00082B2C000899
:102C0000352C00083F2C0008BB7B1846FFF792FCD0
:102C10000346FB731FE0BB7B1846FFF731FC1AE04D
:102C2000BB7B1846FFF7E4FE15E0BB7B1846FFF7B9
:102C300059FB10E0BB7B1846FFF7AEFB0BE0BB7BFC
:102C4000FA7911461846FFF7F5F90346FB7302E0DF
:102C5000FFF7D4FB00BFFB7B002B07D11B4B1B688E
:102C6000184642F041FC0346002B89D1FB7B002B28
:102C700027D11D4B93F8C830002B0FD01A4B1B7A6D
:102C8000002B0BD0184B00221A72174B00221A741B
:102C9000154B002283F8C8200423FB73124B9B7C46
:102CA000002B0ED0104B1B78002B0AD00E4B0022AD
:102CB0001A700D4B00221A740B4B00229A740523D4
:102CC000FB73FB7B18461437BD4690BDACCB00248C
:102CD0009809012454D1002404DF0608E06D060899
:102CE000A8D100249C6400247004012480B400AFA7
:102CF000104B9B78002B13D00E4B9B78013BDAB224
:102D00000C4B9A700B4B1B780133DAB2094B1A70DB
:102D1000084B1B781F2B07D9064B00221A7003E0C3
:102D2000044B5A78034B1A7000BFBD465DF8047B14
:102D3000704700BFD8E9002480B400AF104B9B78E7
:102D4000002B13D00E4B9B78013BDAB20C4B9A70E0
:102D50000B4B1B780133DAB2094B1A70084B1B7806
:102D6000072B07D9064B00221A7003E0044B5A7850
:102D7000034B1A7000BFBD465DF8047B704700BF6F
:102D80001CFF002490B587B002AF9B4B1B6841F23B
:102D90008831184642F0CFF8984B1B79984A9949E8
:102DA000994861F03DF89848FDF7A4FA03469CB2B3
:102DB0009548FDF79FFA03462246934993483EF013
:102DC00063F88D4B1B68184642F000F98A4B1B686C
:102DD00041F28831184642F0AEF8884B5B79884A58
:102DE0008B49894861F01CF88748FDF783FA034650
:102DF0009CB28548FDF77EFA034622468249834805
:102E00003EF042F87C4B1B68184642F0DFF87B4BE3
:102E10001B7903F00103002B1FD0774B1B6841F295
:102E20008831184642F087F8754A7A49764860F04A
:102E3000F7FF7548FDF75EFA03469CB27248FDF74E
:102E400059FA03462246704970483EF01DF86A4B15
:102E50001B68184642F0BAF81EE0674B1B6841F247
:102E60008831184642F067F8654A6B49664860F059
:102E7000D7FF6548FDF73EFA03469CB26248FDF76E
:102E800039FA03462246604960483DF0FDFF5A4B3F
:102E90001B68184642F09AF8584B1B7903F002035E
:102EA000002B1FD0544B1B6841F28831184642F06A
:102EB00042F8534A5949544860F0B2FF5248FDF76E
:102EC00019FA03469CB25048FDF714FA034622460D
:102ED0004D494E483DF0D8FF474B1B68184642F01D
:102EE00075F81EE0444B1B6841F28831184642F0E9
:102EF00022F8434A4A49444860F092FF4248FDF7AD
:102F0000F9F903469CB24048FDF7F4F9034622461E
:102F10003D493E483DF0B8FF374B1B68184642F02C
:102F200055F8364B1B7903F00403002B1FD0324BAE
:102F30001B6841F28831184641F0FDFF304A39499B
:102F4000314860F06DFF3048FDF7D4F903469CB27C
:102F50002D48FDF7CFF9034622462B492B483DF07B
:102F600093FF254B1B68184642F030F81EE0224BB9
:102F70001B6841F28831184641F0DDFF204A2A499A
:102F8000214860F04DFF2048FDF7B4F903469CB29C
:102F90001D48FDF7AFF9034622461B491B483DF08B
:102FA00073FF154B1B68184642F010F8134B1B7942
:102FB00003F00803002B3BD00F4B1B6841F2883114
:102FC000184641F0B8FF0E4A18490F4860F028FF34
:102FD0000D48FDF78FF903469CB20B48FDF78AF9BF
:102FE00003462246084909483DF04EFF024B1B6844
:102FF000184641F0EBFF3AE054D100248404012448
:1030000018DF0608586E0608A8D100249C64002426
:10301000806E0608A86E0608C06E0608D86E060800
:10302000FC6E0608246F0608446F0608606F0608E9
:10303000A64B1B6841F28831184641F07CFFA44A38
:10304000A449A54860F0ECFEA348FDF753F90346F8
:103050009CB2A148FDF74EF9034622469E499F487F
:103060003DF012FF994B1B68184641F0AFFF974B9C
:103070001B6841F28831184641F05DFF984B9B79FF
:10308000934A9849944860F0CBFE9348FDF732F993
:1030900003469CB29048FDF72DF9034622468E491F
:1030A0008E483DF0F1FE894B1B68184641F08EFFBB
:1030B000864B1B6841F28831184641F03CFF844A38
:1030C0008949854860F0ACFE8348FDF713F9034653
:1030D0009CB28148FDF70EF9034622467E497F489F
:1030E0003DF0D2FE794B1B68184641F06FFF7C4BD8
:1030F0009B79002B6FD00023FB730023BB6064E03F
:10310000724B1B6841F28831184641F014FF744A33
:10311000BB68033313441B790093BB686C4A734943
:103120006D4860F07DFE6C48FDF7E4F803469CB204
:103130006948FDF7DFF803462246674967483DF0D6
:10314000A3FE624B1B68184641F040FF00237B60E2
:1031500035E0FB7B0133FB73614ABB6803331344E7
:103160001B791A467B6842FA03F303F00103002B34
:1031700022D0564B1B6841F28831184641F0DBFEE5
:10318000FA7BFB7B00931346514A5949524860F041
:1031900047FE5148FDF7AEF803469CB24E48FDF796
:1031A000A9F8034622464C494C483DF06DFE474B7A
:1031B0001B68184641F00AFF7B6801337B607B681F
:1031C000072BC6DDBB680133BB60454B9B791A46B4
:1031D000BB68934294DB3D4B1B6841F28831184633
:1031E00041F0A9FE3E4A3E4B9B79033313441B79C1
:1031F000374A4049384860F013FE3748FDF77AF8FF
:1032000003469CB23448FDF775F80346224632491E
:1032100032483DF039FE2D4B1B68184641F0D6FE72
:103220002A4B1B6841F28831184641F084FE2C4A33
:103230002B4B9B79043313441B79254A2E4926488E
:1032400060F0EEFD2448FDF755F803469CB2224895
:10325000FDF750F8034622461F4920483DF014FE72
:103260001A4B1B68184641F0B1FE1D4A1C4B9B7956
:10327000033313441B79082B42D1194A184B9B790D
:10328000043313441B79002B3AD1104B1B6841F2D5
:103290008831184641F04FFE0D4A18490E4860F03B
:1032A000BFFD0D48FDF726F803469CB20A48FDF71E
:1032B00021F803462246084908483DF0E5FD034B46
:1032C0001B68184641F082FE3AE000BF54D100244A
:1032D00018DF06087C6F0608A8D100249C6400242F
:1032E000840401249C6F0608C46F0608F06F06086A
:1032F000187006083C700608647006088C70060892
:10330000114B1B6841F28831184641F014FE0F4AF8
:103310000F49104860F084FD0E48FCF7EBFF0346B0
:103320009CB20C48FCF7E6FF0346224609490A48CE
:103330003DF0AAFD044B1B68184641F047FE00BF54
:1033400000BF1437BD4690BD54D1002418DF0608D5
:10335000C0700608A8D100249C64002490B583B0F6
:1033600000AF834B1B6841F28831184641F0E3FD02
:10337000804B1B79804A8149814860F051FD80482B
:10338000FCF7B8FF03469CB27D48FCF7B3FF034649
:1033900022467B497B483DF077FD754B1B681846FC
:1033A00041F014FE734B04331B783B713B7903F0FF
:1033B0000103DBB2002B1ED06D4B1B6841F288313C
:1033C000184641F0B8FD6C4A6F496D4860F028FD21
:1033D0006B48FCF78FFF03469CB26948FCF78AFFF5
:1033E00003462246664967483DF04EFD604B1B6828
:1033F000184641F0EBFD3B7903F00203DBB2002BF2
:103400001ED05B4B1B6841F28831184641F093FD9A
:10341000594A5E495A4860F003FD5948FCF76AFF73
:1034200003469CB25648FCF765FF034622465449C2
:1034300054483DF029FD4E4B1B68184641F0C6FD2F
:103440003B7903F00403DBB2002B1ED0484B1B6812
:1034500041F28831184641F06EFD474A4C494848D0
:1034600060F0DEFC4648FCF745FF03469CB244484A
:10347000FCF740FF03462246414942483DF004FD27
:103480003B4B1B68184641F0A1FD3B7903F0080354
:10349000DBB2002B1ED0364B1B6841F28831184638
:1034A00041F049FD344A3B49354860F0B9FC3448A5
:1034B000FCF720FF03469CB23148FCF71BFF034694
:1034C00022462F492F483DF0DFFC294B1B68184648
:1034D00041F07CFD3B7903F01003DBB2002B1ED0E2
:1034E000234B1B6841F28831184641F024FD224AE3
:1034F0002949234860F094FC2148FCF7FBFE034671
:103500009CB21F48FCF7F6FE034622461C491D48A4
:103510003DF0BAFC164B1B68184641F057FD3B794D
:1035200003F02003DBB2002B1ED0114B1B6841F2CD
:103530008831184641F0FFFC0F4A1849104860F0E6
:103540006FFC0F48FCF7D6FE03469CB20C48FCF714
:10355000D1FE034622460A490A483DF095FC044B39
:103560001B68184641F032FD00BF0C37BD4690BDC8
:1035700054D100248404012438DF0608147106089D
:10358000A8D100249C6400242C7106084C71060804
:10359000707106089C710608C0710608DC71060887
:1035A00090B587B002AF9B4B1B6841F2883118463B
:1035B00041F0C1FC984B1B79984A9949994860F0B1
:1035C0002FFC9848FCF796FE03469CB29548FCF702
:1035D00091FE03462246934993483DF055FC8D4B9E
:1035E0001B68184641F0F2FC8A4B1B6841F2883197
:1035F000184641F0A0FC884B5B79884A8B49894882
:1036000060F00EFC8748FCF775FE03469CB28548C7
:10361000FCF770FE03462246824983483DF034FCA5
:103620007C4B1B68184641F0D1FC7A4B1B6841F279
:103630008831184641F07FFC774B9B79774A7C496B
:10364000784860F0EDFB7748FCF754FE03469CB2E7
:103650007448FCF74FFE03462246724972483DF01B
:1036600013FC6C4B1B68184641F0B0FC694B1B689F
:1036700041F28831184641F05EFC674BDB79674ABE
:103680006C49684860F0CCFB6648FCF733FE0346A3
:103690009CB26448FCF72EFE03462246614962480C
:1036A0003DF0F2FB5B4B1B68184641F08FFC594B19
:1036B0001B6841F28831184641F03DFC564B1B7A9D
:1036C000564A5D49574860F0ABFB5648FCF712FE7E
:1036D00003469CB25348FCF70DFE0346224651496F
:1036E00051483DF0D1FB4B4B1B68184641F06EFC36
:1036F000484B1B6841F28831184641F01CFC464B90
:103700005B7A464A4D49474860F08AFB4548FCF7DA
:10371000F1FD03469CB24348FCF7ECFD034622460C
:10372000404941483DF0B0FB3A4B1B68184641F018
:103730004DFC384B1B6841F28831184641F0FBFBC9
:10374000354B9B7A354A3E49364860F069FB35482F
:10375000FCF7D0FD03469CB23248FCF7CBFD034694
:103760002246304930483DF08FFB2A4B1B681846F3
:1037700041F02CFC274B1B6841F28831184641F080
:10378000DAFB254BDB7A254A2E49264860F048FBB8
:103790002448FCF7AFFD03469CB22248FCF7AAFD83
:1037A000034622461F4920483DF06EFB194B1B681B
:1037B000184641F00BFC0023FB730023BB607EE046
:1037C000144B1B6841F28831184641F0B4FB124A91
:1037D000BB68083313441B790093BB680F4A1A492E
:1037E000104860F01DFB0F48FCF784FD03469CB2B7
:1037F0000C48FCF77FFD034622460A490A483DF083
:1038000043FB044B1B68184641F0E0FB00237B6040
:103810004FE000BF54D100248404012468DF06086F
:10382000F8710608A8D100249C64002430720608B0
:1038300068720608A0720608D87206081073060897
:103840004873060880730608B8730608FB7B0133CB
:10385000FB731F4ABB68083313441B791A467B6805
:1038600042FA03F303F00103002B1FD0194B1B682E
:1038700041F28831184641F05EFBFB7B164A17493E
:10388000174860F0CDFA1648FCF734FD03469CB2A9
:103890001348FCF72FFD03462246114911483DF01D
:1038A000F3FA0C4B1B68184641F090FB7B68013320
:1038B0007B607B68072BC9DDBB680133BB60BB68DD
:1038C0001F2B7FF77DAF00BF00BF1437BD4690BDF3
:1038D0008404012454D1002468DF0608E873060834
:1038E000A8D100249C64002490B583B000AFB44BF1
:1038F0001B6841F28831184641F01DFBB14B1B7922
:10390000B14AB249B24860F08BFAB148FCF7F2FC18
:1039100003469CB2AE48FCF7EDFC03462246AC4998
:10392000AC483DF0B1FAA64B1B68184641F04EFB7F
:10393000A44B1B790A2B1FDC002BC0F25F810A2BE2
:1039400000F25C8101A252F823F000BF8139000827
:10395000C1390008FD3B0008013A0008413A00085F
:10396000813A0008FD3B0008C13A0008FD3B000811
:10397000013B0008413B0008FF2B00F001813DE1C5
:103980008F4B1B6841F28831184641F0D4FA8E4AB9
:1039900091498F4860F044FA8D48FCF7ABFC034630
:1039A0009CB28B48FCF7A6FC03462246884989480E
:1039B0003DF06AFA824B1B68184641F007FB3FE175
:1039C0007F4B1B6841F28831184641F0B4FA7E4AB9
:1039D00082497F4860F024FA7D48FCF78BFC03465F
:1039E0009CB27B48FCF786FC03462246784979481E
:1039F0003DF04AFA724B1B68184641F0E7FA1FE1A6
:103A00006F4B1B6841F28831184641F094FA6E4AB8
:103A100073496F4860F004FA6D48FCF76BFC03468D
:103A20009CB26B48FCF766FC03462246684969482D
:103A30003DF02AFA624B1B68184641F0C7FAFFE0D6
:103A40005F4B1B6841F28831184641F074FA5E4AB8
:103A500064495F4860F0E4F95D48FCF74BFC0346BD
:103A60009CB25B48FCF746FC03462246584959483D
:103A70003DF00AFA524B1B68184641F0A7FADFE006
:103A80004F4B1B6841F28831184641F054FA4E4AB8
:103A900055494F4860F0C4F94D48FCF72BFC0346EC
:103AA0009CB24B48FCF726FC03462246484949484D
:103AB0003DF0EAF9424B1B68184641F087FABFE037
:103AC0003F4B1B6841F28831184641F034FA3E4AB8
:103AD00046493F4860F0A4F93D48FCF70BFC03461B
:103AE0009CB23B48FCF706FC03462246384939485D
:103AF0003DF0CAF9324B1B68184641F067FA9FE067
:103B00002F4B1B6841F28831184641F014FA2E4AB7
:103B100037492F4860F084F92D48FCF7EBFB03464A
:103B20009CB22B48FCF7E6FB03462246284929486D
:103B30003DF0AAF9224B1B68184641F047FA7FE096
:103B40001F4B1B6841F28831184641F0F4F91E4AB8
:103B500028491F4860F064F91D48FCF7CBFB034679
:103B60009CB21B48FCF7C6FB03462246184919487D
:103B70003DF08AF9124B1B68184641F027FA5FE0C6
:103B80000F4B1B6841F28831184641F0D4F90E4AB8
:103B900019490F4860F044F90D48FCF7ABFB0346A8
:103BA0009CB20B48FCF7A6FB03462246084909488D
:103BB0003DF06AF9024B1B68184641F007FA3FE0F6
:103BC00054D100248404012498DF06081C740608DC
:103BD000A8D100249C640024487406087074060868
:103BE000B4740608DC7406082875060850750608C3
:103BF00078750608A8750608D8750608334B1B6843
:103C000041F28831184641F096F9314B1B79314A1F
:103C10003149324860F004F93048FCF76BFB034649
:103C20009CB22E48FCF766FB034622462B492C48E3
:103C30003DF02AF9254B1B68184641F0C7F900BF33
:103C4000224B1B6841F28831184641F074F9204B31
:103C50005B79204A2349214860F0E2F81F48FCF7CD
:103C600049FB03469CB21D48FCF744FB0346224631
:103C70001A491B483DF008F9144B1B68184641F0DF
:103C8000A5F9134B5B79002B30D0104B1B6841F228
:103C90008831184641F04FF90E4A13490F4860F039
:103CA000BFF80E48FCF726FB03469CB20B48FCF716
:103CB00021FB03462246094909483DF0E5F8034B3C
:103CC0001B68184641F082F92FE000BF54D1002450
:103CD0008404012498DF060804760608A8D100248D
:103CE0009C640024407606086C760608914B1B689D
:103CF00041F28831184641F01EF98F4A8F499048A9
:103D000060F08EF88E48FCF7F5FA03469CB28C48BA
:103D1000FCF7F0FA0346224689498A483DF0B4F898
:103D2000844B1B68184641F051F9824B1B6841F2E5
:103D30008831184641F0FFF8834B9B797E4A8349CE
:103D40007F4860F06DF87E48FCF7D4FA03469CB2D9
:103D50007B48FCF7CFFA03462246794979483DF083
:103D600093F8744B1B68184641F030F9764B9B79F9
:103D700003F00103002B1ED06E4B1B6841F288310B
:103D8000184641F0D8F86C4A71496D4860F048F81F
:103D90006B48FCF7AFFA03469CB26948FCF7AAFAF5
:103DA00003462246664967483DF06EF8614B1B6842
:103DB000184641F00BF9644B9B7903F01003002B7C
:103DC0001ED05C4B1B6841F28831184641F0B3F8B5
:103DD000594A60495A4860F023F85948FCF78AFA72
:103DE00003469CB25648FCF785FA034622465449DE
:103DF00054483DF049F84F4B1B68184641F0E6F82F
:103E0000514B9B7903F02003002B1ED0494B1B68BC
:103E100041F28831184641F08EF8474A4E494848E9
:103E20005FF0FEFF4648FCF765FA03469CB2444843
:103E3000FCF760FA03462246414942483DF024F827
:103E40003C4B1B68184641F0C1F83F4B9B7903F08F
:103E50000203002B1ED0374B1B6841F288311846F5
:103E600041F069F8344A3D4935485FF0D9FF34489C
:103E7000FCF740FA03469CB23148FCF73BFA034694
:103E800022462F492F483CF0FFFF2A4B1B6818465B
:103E900041F09CF82C4B9B7923F03303002B1ED070
:103EA000244B1B6841F28831184641F044F8224AFD
:103EB0002B4923485FF0B4FF2148FCF71BFA034667
:103EC0009CB21F48FCF716FA034622461C491D48BF
:103ED0003CF0DAFF174B1B68184641F077F8154B9A
:103EE0001B6841F28831184641F025F8164BDB7902
:103EF000114A1C4912485FF093FF1148FCF7FAF988
:103F000003469CB20E48FCF7F5F9034622460C49DD
:103F10000C483CF0B9FF074B1B68184641F056F8B7
:103F2000094BDB79A12B00F36981002B40F3E68478
:103F30001AE000BF54D1002498DF0608C0760608B6
:103F4000A8D100249C64002484040124FC76060883
:103F5000287706086C770608C477060818780608DC
:103F6000447806087C780608013BA02B00F2C68442
:103F700001A252F823F000BFC542000881450008A5
:103F800005420008454200083D4800087D480008F9
:103F9000BD480008C146000841470008FD48000828
:103FA000FD480008FD480008FD480008FD480008DD
:103FB000C5430008C1450008014600084146000805
:103FC00081460008FD4800088147000801470008B5
:103FD00005440008FD470008FD480008FD480008AA
:103FE000FD480008FD480008FD480008FD4800089D
:103FF000FD4800080145000841450008FD4800084B
:10400000FD480008FD480008FD480008FD4800087C
:10401000FD480008FD480008FD480008FD4800086C
:10402000FD480008FD480008FD480008FD4800085C
:10403000FD4800084543000805430008FD48000806
:10404000FD480008FD480008FD480008FD4800083C
:10405000FD480008FD480008FD480008FD4800082C
:10406000FD480008FD480008FD480008FD4800081C
:10407000FD48000885420008FD480008FD4800088A
:10408000FD480008FD480008FD480008FD480008FC
:10409000FD480008FD480008FD480008FD480008EC
:1040A000FD480008FD480008FD480008FD480008DC
:1040B000FD48000845440008FD480008FD48000888
:1040C000FD480008FD480008FD480008FD480008BC
:1040D000FD480008FD480008FD480008FD480008AC
:1040E000FD480008FD480008FD480008FD4800089C
:1040F000FD480008FD480008FD480008FD4800088C
:10410000FD480008FD480008FD480008FD4800087B
:10411000FD480008FD480008FD480008FD4800086B
:10412000FD480008FD480008FD480008FD4800085B
:10413000FD480008FD480008FD480008FD4800084B
:10414000FD480008FD480008FD480008FD4800083B
:10415000FD480008FD480008FD480008FD4800082B
:10416000FD480008FD480008FD480008FD4800081B
:10417000FD480008FD480008FD480008FD4800080B
:10418000FD480008FD480008FD480008FD480008FB
:10419000FD480008FD480008FD480008FD480008EB
:1041A000FD480008FD480008FD480008FD480008DB
:1041B000FD480008FD480008FD480008FD480008CB
:1041C000FD480008FD480008FD480008FD480008BB
:1041D000FD480008FD480008FD480008FD480008AB
:1041E000FD480008FD480008FD480008FD4800089B
:1041F000FD480008FD48000885440008FF2B00F03A
:10420000C1807BE3AF4B1B6841F28831184640F018
:1042100092FEAD4AAD49AE485FF002FEAC48FCF7F5
:1042200069F803469CB2AA48FCF764F803462246A4
:10423000A749A8483CF028FEA24B1B68184640F04E
:10424000C5FE7DE39F4B1B6841F28831184640F064
:1042500072FE9D4AA0499E485FF0E2FD9C48FCF733
:1042600049F803469CB29A48FCF744F803462246B4
:10427000974998483CF008FE924B1B68184640F05E
:10428000A5FE5DE38F4B1B6841F28831184640F074
:1042900052FE8D4A91498E485FF0C2FD8C48FCF772
:1042A00029F803469CB28A48FCF724F803462246C4
:1042B000874988483CF0E8FD824B1B68184640F06F
:1042C00085FE3DE37F4B1B6841F28831184640F084
:1042D00032FE7D4A82497E485FF0A2FD7C48FCF7B1
:1042E00009F803469CB27A48FCF704F803462246D4
:1042F000774978483CF0C8FD724B1B68184640F07F
:1043000065FE1DE36F4B1B6841F28831184640F093
:1043100012FE6D4A73496E485FF082FD6C48FBF7F0
:10432000E9FF03469CB26A48FBF7E4FF03462246D6
:10433000674968483CF0A8FD624B1B68184640F08E
:1043400045FEFDE25F4B1B6841F28831184640F0A4
:10435000F2FD5D4A64495E485FF062FD5C48FBF730
:10436000C9FF03469CB25A48FBF7C4FF03462246E6
:10437000574958483CF088FD524B1B68184640F09E
:1043800025FEDDE24F4B1B6841F28831184640F0B4
:10439000D2FD4D4A55494E485FF042FD4C48FBF76F
:1043A000A9FF03469CB24A48FBF7A4FF03462246F6
:1043B000474948483CF068FD424B1B68184640F0AE
:1043C00005FEBDE23F4B1B6841F28831184640F0C4
:1043D000B2FD3D4A46493E485FF022FD3C48FBF7AE
:1043E00089FF03469CB23A48FBF784FF0346224606
:1043F000374938483CF048FD324B1B68184640F0BE
:10440000E5FD9DE22F4B1B6841F28831184640F0D4
:1044100092FD2D4A37492E485FF002FD2C48FBF7EC
:1044200069FF03469CB22A48FBF764FF0346224615
:10443000274928483CF028FD224B1B68184640F0CD
:10444000C5FD7DE21F4B1B6841F28831184640F0E4
:1044500072FD1D4A28491E485FF0E2FC1C48FBF72C
:1044600049FF03469CB21A48FBF744FF0346224625
:10447000174918483CF008FD124B1B68184640F0DD
:10448000A5FD5DE20F4B1B6841F28831184640F0F4
:1044900052FD0D4A19490E485FF0C2FC0C48FBF76B
:1044A00029FF03469CB20A48FBF724FF0346224635
:1044B000074908483CF0E8FC024B1B68184640F0EE
:1044C00085FD3DE254D1002498DF0608A87806084F
:1044D000A8D100249C640024C4780608D878060873
:1044E000F07806080C7906081C7906083479060865
:1044F000507906086C79060884790608A0790608C0
:10450000AF4B1B6841F28831184640F014FDAD4AAC
:10451000AD49AE485FF084FCAC48FBF7EBFE0346C8
:104520009CB2AA48FBF7E6FE03462246A749A848E4
:104530003CF0AAFCA24B1B68184640F047FDFFE187
:104540009F4B1B6841F28831184640F0F4FC9D4AAD
:10455000A0499E485FF064FC9C48FBF7CBFE0346F5
:104560009CB29A48FBF7C6FE0346224697499848F4
:104570003CF08AFC924B1B68184640F027FDDFE1B7
:104580008F4B1B6841F28831184640F0D4FC8D4AAD
:1045900091498E485FF044FC8C48FBF7ABFE034624
:1045A0009CB28A48FBF7A6FE034622468749884804
:1045B0003CF06AFC824B1B68184640F007FDBFE1E7
:1045C0007F4B1B6841F28831184640F0B4FC7D4AAD
:1045D00082497E485FF024FC7C48FBF78BFE034653
:1045E0009CB27A48FBF786FE034622467749784814
:1045F0003CF04AFC724B1B68184640F0E7FC9FE118
:104600006F4B1B6841F28831184640F094FC6D4AAC
:1046100073496E485FF004FC6C48FBF76BFE034681
:104620009CB26A48FBF766FE034622466749684823
:104630003CF02AFC624B1B68184640F0C7FC7FE147
:104640005F4B1B6841F28831184640F074FC5D4AAC
:1046500064495E485FF0E4FB5C48FBF74BFE0346B1
:104660009CB25A48FBF746FE034622465749584833
:104670003CF00AFC524B1B68184640F0A7FC5FE177
:104680004F4B1B6841F28831184640F054FC4D4AAC
:1046900055494E485FF0C4FB4C48FBF72BFE0346E0
:1046A0009CB24A48FBF726FE034622464749484843
:1046B0003CF0EAFB424B1B68184640F087FC3FE1A8
:1046C0003F4B1B6841F28831184640F034FC3D4AAC
:1046D00046493E485FF0A4FB3C48FBF70BFE03460F
:1046E0009CB23A48FBF706FE034622463749384853
:1046F0003CF0CAFB324B1B68184640F067FC1FE1D8
:104700002F4B1B6841F28831184640F014FC2D4AAB
:1047100037492E485FF084FB2C48FBF7EBFD03463E
:104720009CB22A48FBF7E6FD034622462749284863
:104730003CF0AAFB224B1B68184640F047FCFFE008
:104740001F4B1B6841F28831184640F0F4FB1D4AAC
:1047500028491E485FF064FB1C48FBF7CBFD03466D
:104760009CB21A48FBF7C6FD034622461749184873
:104770003CF08AFB124B1B68184640F027FCDFE038
:104780000F4B1B6841F28831184640F0D4FB0D4AAC
:1047900019490E485FF044FB0C48FBF7ABFD03469C
:1047A0009CB20A48FBF7A6FD034622460749084883
:1047B0003CF06AFB024B1B68184640F007FCBFE068
:1047C00054D1002498DF0608B8790608A8D100243F
:1047D0009C640024D0790608EC790608087A06085B
:1047E000207A06083C7A0608547A06086C7A06088D
:1047F000807A0608987A0608B47A0608AF4B1B68D8
:1048000041F28831184640F096FBAD4AAD49AE48BA
:104810005FF006FBAC48FBF76DFD03469CB2AA486F
:10482000FBF768FD03462246A749A8483CF02CFB4D
:10483000A24B1B68184640F0C9FB81E09F4B1B68E8
:1048400041F28831184640F076FB9D4AA0499E48C7
:104850005FF0E6FA9C48FBF74DFD03469CB29A4890
:10486000FBF748FD03462246974998483CF00CFB6D
:10487000924B1B68184640F0A9FB61E08F4B1B6808
:1048800041F28831184640F056FB8D4A91498E48D6
:104890005FF0C6FA8C48FBF72DFD03469CB28A48B0
:1048A000FBF728FD03462246874988483CF0ECFA8E
:1048B000824B1B68184640F089FB41E07F4B1B6828
:1048C00041F28831184640F036FB7D4A82497E48E5
:1048D0005FF0A6FA7C48FBF70DFD03469CB27A48D0
:1048E000FBF708FD03462246774978483CF0CCFAAE
:1048F000724B1B68184640F069FB21E06F4B1B6848
:1049000041F28831184640F016FB744BDB796C4A53
:1049100073496D485FF084FA6B48FBF7EBFC034684
:104920009CB26948FBF7E6FC0346224666496748A5
:104930003CF0AAFA614B1B68184640F047FB00BFE9
:104940005E4B1B6841F28831184640F0F4FA634B25
:104950001B7A5B4A63495C485FF062FA5A48FBF78E
:10496000C9FC03469CB25848FBF7C4FC03462246E8
:10497000554956483CF088FA504B1B68184640F0A1
:1049800025FB564BDB79022B40F05881534B1B7AA9
:10499000072B00F2318101A252F823F0BD49000833
:1049A000FD4900083D4A00087D4A0008F94A000810
:1049B000394B0008794B0008B94B00083F4B1B6886
:1049C00041F28831184640F0B6FA3D4A46493E4821
:1049D0005FF026FA3C48FBF78DFC03469CB23A4850
:1049E000FBF788FC03462246374938483CF04CFA2E
:1049F000324B1B68184640F0E9FA1FE12F4B1B6849
:104A000041F28831184640F096FA2D4A37492E482F
:104A10005FF006FA2C48FBF76DFC03469CB22A486F
:104A2000FBF768FC03462246274928483CF02CFA4D
:104A3000224B1B68184640F0C9FAFFE01F4B1B6869
:104A400041F28831184640F076FA1D4A28491E483E
:104A50005FF0E6F91C48FBF74DFC03469CB21A4890
:104A6000FBF748FC03462246174918483CF00CFA6D
:104A7000124B1B68184640F0A9FADFE00F4B1B6889
:104A800041F28831184640F056FA0D4A19490E484D
:104A90005FF0C6F90C48FBF72DFC03469CB20A48B0
:104AA000FBF728FC03462246074908483CF0ECF98E
:104AB000024B1B68184640F089FABFE054D100242D
:104AC00098DF0608C87A0608A8D100249C64002450
:104AD000E47A0608007B0608147B06088404012497
:104AE000347B0608707B06089C7B0608C47B06089E
:104AF000EC7B0608087C0608AD4B1B6841F2883148
:104B0000184640F018FAAB4AAB49AC485FF088F958
:104B1000AA48FBF7EFFB03469CB2A848FBF7EAFB69
:104B200003462246A549A6483CF0AEF9A04B1B68B7
:104B3000184640F04BFA81E09D4B1B6841F28831EA
:104B4000184640F0F8F99B4A9E499C485FF068F986
:104B50009A48FBF7CFFB03469CB29848FBF7CAFB89
:104B600003462246954996483CF08EF9904B1B68C7
:104B7000184640F02BFA61E08D4B1B6841F28831FA
:104B8000184640F0D8F98B4A8F498C485FF048F9B5
:104B90008A48FBF7AFFB03469CB28848FBF7AAFBA9
:104BA00003462246854986483CF06EF9804B1B68D7
:104BB000184640F00BFA41E07D4B1B6841F288310A
:104BC000184640F0B8F97B4A80497C485FF028F9E4
:104BD0007A48FBF78FFB03469CB27848FBF78AFBC9
:104BE00003462246754976483CF04EF9704B1B68E7
:104BF000184640F0EBF921E06D4B1B6841F288311B
:104C0000184640F098F9724B1B7A6A4A71496B4812
:104C10005FF006F96948FBF76DFB03469CB26748F5
:104C2000FBF768FB03462246644965483CF02CF9D3
:104C30005F4B1B68184640F0C9F900BF5C4B1B680E
:104C400041F28831184640F076F9614B5B7A594A57
:104C500061495A485FF0E4F85848FBF74BFB0346BC
:104C60009CB25648FBF746FB03462246534954483C
:104C70003CF00AF94E4B1B68184640F0A7F9544B1C
:104C80005B7A7B607B68002B44D0494B1B6841F208
:104C90008831184640F04FF9504948485FF0C0F855
:104CA0004648FBF727FB03469CB24448FBF722FB30
:104CB00003462246414942483CF0E6F83C4B1B681B
:104CC000184640F083F9424B03F10A007B6899B221
:104CD00000230022FCF744FE354B1B6841F288316B
:104CE000184640F028F93E4934485FF099F83348B7
:104CF000FBF700FB03469CB23048FBF7FBFA034688
:104D000022462E492E483CF0BFF8294B1B68184616
:104D100040F05CF9264B1B6841F28831184640F0A0
:104D20000AF92B4A7B68063313441B79214A2D4923
:104D300022485FF075F82148FBF7DCFA03469CB285
:104D40001E48FBF7D7FA034622461C491C483CF094
:104D50009BF8174B1B68184640F038F91C4A7B68D3
:104D6000063313441B7903F00103002B3ED0104B94
:104D70001B6841F28831184640F0DDF80D4A1A49A7
:104D80000E485FF04DF80D48FBF7B4FA03469CB2AD
:104D90000A48FBF7AFFA03462246084908483CF0A8
:104DA00073F8034B1B68184640F010F93DE000BF54
:104DB00054D1002498DF0608287C0608A8D10024D6
:104DC0009C640024407C0608607C0608747C06080D
:104DD00084040124887C0608C87C0608F47C060844
:104DE000407D06088C7D0608B87D06082E4B1B68A2
:104DF00041F28831184640F09EF82C4A2C492D4843
:104E00005FF00EF82B48FBF775FA03469CB2294871
:104E1000FBF770FA03462246264927483CF034F84F
:104E2000214B1B68184640F0D1F8244A7B680733B1
:104E300013441B791B0221497A6808320A4412790B
:104E400013441B021D497A6809320A44127913443B
:104E50001B021A497A680A320A44127913443B60E9
:104E6000114B1B6841F28831184640F064F83B68EA
:104E70000E4A13490F485EF0D3FF0E48FBF73AFA8B
:104E800003469CB20B48FBF735FA03462246094914
:104E900009483BF0F9FF044B1B68184640F096F8B0
:104EA00000BF0C37BD4690BD54D1002498DF0608E2
:104EB000DC7D0608A8D100249C640024840401241D
:104EC000147E060890B589B002AFBA4B1B6841F258
:104ED0008831184640F02FF8B74B1B79B74AB849CC
:104EE000B8485EF09DFFB748FBF704FA03469CB252
:104EF000B448FBF7FFF903462246B249B2483BF0FB
:104F0000C3FFAC4B1B68184640F060F8AA4B1B79F6
:104F1000402B00F38B80002BC0F2C082402B00F2AC
:104F2000BD8201A252F823F03550000875500008E8
:104F3000B5500008A5520008F5500008E5520008D9
:104F40009D5400089D540008355100089D540008E8
:104F50009D5400089D5400089D5400089D5400086D
:104F60009D5400089D540008755100082553000801
:104F700065530008A55300089D540008E553000838
:104F8000255400089D5400089D5400089D540008B5
:104F90009D5400089D5400089D5400089D5400082D
:104FA0009D5400089D540008E55100089D540008D8
:104FB0009D5400089D5400089D5400089D5400080D
:104FC0009D5400089D5400089D5400089D540008FD
:104FD0009D5400089D5400089D5400089D540008ED
:104FE0009D5400089D5400089D5400089D540008DD
:104FF0009D5400089D5400089D5400089D540008CD
:105000009D5400089D5400089D5400089D540008BC
:105010009D5400089D5400089D5400089D540008AC
:105020009D5400089D54000825520008802B00F074
:10503000198133E25F4B1B6841F2883118463FF01B
:105040007AFF5E4A61495F485EF0EAFE5D48FBF721
:1050500051F903469CB25B48FBF74CF903462246E4
:10506000584959483BF010FF524B1B6818463FF017
:10507000ADFF35E24F4B1B6841F2883118463FF0D7
:105080005AFF4E4A52494F485EF0CAFE4D48FBF760
:1050900031F903469CB24B48FBF72CF903462246F4
:1050A000484949483BF0F0FE424B1B6818463FF028
:1050B0008DFF15E23F4B1B6841F2883118463FF0E7
:1050C0003AFF3E4A43493F485EF0AAFE3D48FBF79F
:1050D00011F903469CB23B48FBF70CF90346224604
:1050E000384939483BF0D0FE324B1B6818463FF038
:1050F0006DFFF5E12F4B1B6841F2883118463FF0F8
:105100001AFF2E4A34492F485EF08AFE2D48FBF7DD
:10511000F1F803469CB22B48FBF7ECF80346224615
:10512000284929483BF0B0FE224B1B6818463FF047
:105130004DFFD5E11F4B1B6841F2883118463FF007
:10514000FAFE1E4A25491F485EF06AFE1D48FBF71D
:10515000D1F803469CB21B48FBF7CCF80346224625
:10516000184919483BF090FE124B1B6818463FF057
:105170002DFFB5E10F4B1B6841F2883118463FF017
:10518000DAFE0E4A16490F485EF04AFE0D48FBF75C
:10519000B1F803469CB20B48FBF7ACF80346224635
:1051A000084909483BF070FE024B1B6818463FF067
:1051B0000DFF95E154D1002484040124BCDF0608CE
:1051C000407E0608A8D100249C640024687E06085E
:1051D000947E0608BC7E0608EC7E06081C7F060846
:1051E0004C7F06089F4B1B6841F2883118463FF000
:1051F000A2FE9D4A9D499E485EF012FE9C48FBF728
:1052000079F803469CB29A48FBF774F803462246A5
:10521000974998483BF038FE924B1B6818463FF080
:10522000D5FE5DE18F4B1B6841F2883118463FF097
:1052300082FE8D4A90498E485EF0F2FD8C48FBF765
:1052400059F803469CB28A48FBF754F803462246B5
:10525000874988483BF018FE824B1B6818463FF090
:10526000B5FE3DE17F4B1B6841F2883118463FF0A7
:1052700062FE7D4A81497E485EF0D2FD7C48FBF7A4
:1052800039F803469CB27A48FBF734F803462246C5
:10529000774978483BF0F8FD724B1B6818463FF0A1
:1052A00095FE1DE16F4B1B6841F2883118463FF0B7
:1052B00042FE6D4A72496E485EF0B2FD6C48FBF7E3
:1052C00019F803469CB26A48FBF714F803462246D5
:1052D000674968483BF0D8FD624B1B6818463FF0B1
:1052E00075FEFDE05F4B1B6841F2883118463FF0C8
:1052F00022FE5D4A63495E485EF092FD5C48FAF723
:10530000F9FF03469CB25A48FAF7F4FF03462246D7
:10531000574958483BF0B8FD524B1B6818463FF0C0
:1053200055FEDDE04F4B1B6841F2883118463FF0D7
:1053300002FE4D4A54494E485EF072FD4C48FAF761
:10534000D9FF03469CB24A48FAF7D4FF03462246E7
:10535000474948483BF098FD424B1B6818463FF0D0
:1053600035FEBDE03F4B1B6841F2883118463FF0E7
:10537000E2FD3D4A45493E485EF052FD3C48FAF7A1
:10538000B9FF03469CB23A48FAF7B4FF03462246F7
:10539000374938483BF078FD324B1B6818463FF0E0
:1053A00015FE9DE02F4B1B6841F2883118463FF0F7
:1053B000C2FD2D4A36492E485EF032FD2C48FAF7E0
:1053C00099FF03469CB22A48FAF794FF0346224607
:1053D000274928483BF058FD224B1B6818463FF0F0
:1053E000F5FD7DE01F4B1B6841F2883118463FF008
:1053F000A2FD1D4A27491E485EF012FD1C48FAF71F
:1054000079FF03469CB21A48FAF774FF0346224616
:10541000174918483BF038FD124B1B6818463FF0FF
:10542000D5FD5DE00F4B1B6841F2883118463FF017
:1054300082FD0D4A18490E485EF0F2FC0C48FAF75E
:1054400059FF03469CB20A48FAF754FF0346224626
:10545000074908483BF018FD024B1B6818463FF00F
:10546000B5FD3DE054D10024BCDF0608847F06086A
:10547000A8D100249C640024B07F0608DC7F0608C5
:10548000108006084080060870800608AC80060878
:10549000E48006081C810608508106087E4B1B68C4
:1054A00041F2883118463FF046FD7C4B1B797C4A1F
:1054B0007C497D485EF0B4FC7B48FAF71BFF03464D
:1054C0009CB27948FAF716FF034622467649774898
:1054D0003BF0DAFC704B1B6818463FF077FD00BFCD
:1054E0006E4B1B79012B40F08E806B4B1B6841F299
:1054F000883118463FF01FFD684B5B79684A6C495C
:1055000069485EF08DFC6848FAF7F4FE03469CB2E9
:105510006548FAF7EFFE03462246634963483BF0CD
:10552000B3FC5D4B1B6818463FF050FD0023FB7534
:1055300000233B6164E0584B1B6841F288311846F8
:105540003FF0F9FC554A3B69023313441B79009341
:105550003B69534A574954485EF062FC5248FAF797
:10556000C9FE03469CB25048FAF7C4FE03462246E1
:105570004D494E483BF088FC474B1B6818463FF0AE
:1055800025FD0023FB6035E0FB7D0133FB75434ABD
:105590003B69023313441B791A46FB6842FA03F352
:1055A00003F00103002B22D03B4B1B6841F28831F2
:1055B00018463FF0C0FCFA7DFB7D00931346384A45
:1055C0003D4939485EF02CFC3748FAF793FE034614
:1055D0009CB23548FAF78EFE0346224632493348DC
:1055E0003BF052FC2C4B1B6818463FF0EFFCFB686D
:1055F0000133FB60FB68072BC6DD3B6901333B6170
:105600003B69102B97DD254B1B79032B79D1224B5E
:105610001B6841F2883118463FF08DFC1F4B5B79C7
:105620001F4A264920485EF0FBFB1F48FAF762FE3E
:1056300003469CB21C48FAF75DFE034622461A490F
:105640001A483BF021FC144B1B6818463FF0BEFC87
:10565000124B5B79002B35D00F4B1B6841F2883120
:1056600018463FF068FC0E4A15490F485EF0D8FB1B
:105670000D48FAF73FFE03469CB20B48FAF73AFE94
:1056800003462246084909483BF0FEFB024B1B68D3
:1056900018463FF09BFC34E054D1002484040124DC
:1056A000BCDF060880810608A8D100249C64002481
:1056B000C4810608E48106080C82060840820608B8
:1056C00068820608704B1B6841F2883118463FF02B
:1056D00032FC6E4A6E496F485EF0A2FB6D48FAF7E5
:1056E00009FE03469CB26B48FAF704FE03462246C5
:1056F000684969483BF0C8FB634B1B6818463FF09C
:1057000065FC664B1B79052B27D1644B5B791B022B
:105710009BB2624A927913447B815B4B1B6841F2D6
:10572000883118463FF007FC7B89584A5C49594844
:105730005EF076FB5748FAF7DDFD03469CB255480C
:10574000FAF7D8FD03462246524953483BF09CFBEA
:105750004D4B1B6818463FF039FC504B1B79102B02
:1057600022D14E4B5B797B72474B1B6841F28831EB
:1057700018463FF0E0FB7B7A444A4A4945485EF0D0
:105780004FFB4448FAF7B6FD03469CB24148FAF78E
:10579000B1FD034622463F493F483BF075FB3A4B7B
:1057A0001B6818463FF012FC3C4B1B79112B22D191
:1057B0003A4B5B793B72344B1B6841F28831184697
:1057C0003FF0B9FB3B7A314A374932485EF028FB5B
:1057D0003048FAF78FFD03469CB22E48FAF78AFD4F
:1057E000034622462B492C483BF04EFB264B1B68B8
:1057F00018463FF0EBFB294B1B79122B79D1224B3A
:105800001B6841F2883118463FF095FB234B5B79CA
:105810001E4A26491F485EF003FB1E48FAF76AFD40
:1058200003469CB21B48FAF765FD03462246194918
:1058300019483BF029FB144B1B6818463FF0C6FB88
:10584000164B5B79002B35D00F4B1B6841F288312A
:1058500018463FF070FB0D4A15490E485EF0E0FA1D
:105860000C48FAF747FD03469CB20A48FAF742FD96
:1058700003462246074908483BF006FB024B1B68DB
:1058800018463FF0A3FB34E054D10024BCDF0608E7
:10589000A8820608A8D100249C6400248404012462
:1058A000F48206081083060834830608408206083E
:1058B0005C830608AC4B1B6841F2883118463FF008
:1058C0003AFBAA4AAA49AB485EF0AAFAA948FAF7F5
:1058D00011FD03469CB2A748FAF70CFD0346224689
:1058E000A449A5483BF0D0FA9F4B1B6818463FF0EF
:1058F0006DFBA24B1B79132B4FD1A04B5B791B0285
:105900009BB29E4A92791344FB809C4BDB791B022D
:105910009BB29A4A127A1344BB80934B1B6841F2A4
:10592000883118463FF007FBFB88904A944991481C
:105930005EF076FA8F48FAF7DDFC03469CB28D489C
:10594000FAF7D8FC034622468A498B483BF09CFA7A
:10595000854B1B6818463FF039FB834B1B6841F2AF
:10596000883118463FF0E7FABB88804A854981486C
:105970005EF056FA7F48FAF7BDFC03469CB27D48BC
:10598000FAF7B8FC034622467A497B483BF07CFA9A
:10599000754B1B6818463FF019FB784B1B79202B81
:1059A00040F08182754B5B79FB70FB78FF2B00F038
:1059B0001C82FF2B00F35682212B4DDC002BC0F202
:1059C0005182212B00F24E8201A252F823F000BF37
:1059D000615A0008A35A0008E55A0008275B00082E
:1059E000655E00081D5C00085F5C0008A15C0008A3
:1059F000E35C0008995B0008655E0008DB5B00085B
:105A0000655E0008655E0008655E0008655E00086A
:105A1000655E0008655E0008655E0008655E00085A
:105A2000655E0008655E0008655E0008655E00084A
:105A3000655E0008655E0008655E0008655E00083A
:105A4000655E0008655E0008655E0008655E00082A
:105A5000255D0008675D0008FE2B00F0A58101E2CE
:105A6000414B1B6841F2883118463FF064FAFB78DD
:105A70003E4A45493F485EF0D3F93E48FAF73AFCC2
:105A800003469CB23B48FAF735FC034622463949A7
:105A900039483BF0F9F9344B1B6818463FF096FA49
:105AA00001E2314B1B6841F2883118463FF043FA5E
:105AB000FB782E4A35492F485EF0B2F92D48FAF7A7
:105AC00019FC03469CB22B48FAF714FC0346224605
:105AD000284929483BF0D8F9234B1B6818463FF06A
