:020000040800F2
:1000000000000824F9760108AD730108B5730108F2
:10001000BD730108C5730108CD730108000000001D
:10002000000000000000000000000000311705087B
:10003000D57301080000000081190508A107050813
:100040004D7701084D7701084D7701084D7701087C
:100050004D7701084D7701084D7701084D7701086C
:10006000E37301084D7701084D7701084D770108CA
:100070004D7701084D7701084D7701084D7701084C
:100080004D7701084D7701084D7701084D7701083C
:100090004D7701084D7701084D7701084D7701082C
:1000A0004D7701084D7701084D7701084D7701081C
:1000B0004D7701084D7701084D7701084D7701080C
:1000C0004D7701084D7701084D7701084D770108FC
:1000D0004D770108F1730108057401084D77010897
:1000E0004D7701084D770108000000004D770108A9
:1000F0004D7701084D7701084D7701084D770108CC
:100100004D7701084D7701084D7701084D770108BB
:100110004D7701084D770108197401084D770108E2
:100120004D7701084D7701084D7701084D7701089B
:100130004D7701084D7701084D7701084D7701088B
:100140004D7701084D770108000000000000000015
:100150004D7701084D7701084D7701084D7701086B
:100160004D7701084D7701084D7701084D7701085B
:100170004D7701084D7701084D7701080000000018
:100180004D7701084D7701084D7701084D7701083B
:100190004D7701084D7701084D7701084D7701082B
:1001A0002D7401084D770108417401084D7701084D
:1001B000557401084D7701084D7701084D77010806
:1001C0004D7701084D7701084D7701084D770108FB
:1001D0004D7701084D7701084D7701084D770108EB
:1001E0004D7701084D7701084D7701084D770108DB
:1001F0004D7701084D7701084D7701084D770108CB
:100200004D7701084D7701084D7701084D770108BA
:100210004D7701084D7701084D7701084D770108AA
:100220004D770108697401087D7401080000000021
:100230004D7701084D7701084D7701084D7701088A
:100240004D7701084D7701084D7701084D7701087A
:100250004D7701084D7701084D7701084D7701086A
:100260004D7701084D7701084D7701084D7701085A
:100270004D7701084D7701084D7701084D7701084A
:100280004D7701084D7701084D7701080000000007
:080290004D7701084D770108CC
:1002A00010B5054C237833B9044B13B10448AFF3B0
:1002B00000800123237010BD005F002400000000B7
:1002C000E07A070808B5034B1BB103490348AFF3B5
:1002D000008008BD00000000045F0024E07A0708E9
:1002E00010F8012B11F8013B012A28BF9A42F7D0E0
:1002F000D01A7047034613F8012B002AFBD1181AB5
:1003000001387047000000000000000000000000FD
:1003100001F0FF01102A2BDB10F0070F08D010F8B6
:10032000013B013A8B422DD010F0070F42B3F6D1BA
:10033000F0B441EA012141EA014122F007047FF0D3
:1003400000070023F0E80256083C85EA010586EA2A
:10035000010685FA47F5A3FA87F586FA47F6A5FA66
:1003600087F68EB9EED1F0BC01F0FF0102F0070272
:1003700032B110F8013B013A83EA010313B1F8D11D
:100380000020704701387047002D06BF35460338FE
:10039000073815F0010F07D1013015F4807F02BF37
:1003A000013015F4C03F0130F0BC0138704700BF88
:1003B00081F0004102E000BF83F0004330B54FEA16
:1003C00041044FEA430594EA050F08BF90EA020F83
:1003D0001FBF54EA000C55EA020C7FEA645C7FEA16
:1003E000655C00F0E2804FEA5454D4EB5555B8BF39
:1003F0006D420CDD2C4480EA020281EA030382EAAA
:10040000000083EA010180EA020281EA0303362D3B
:1004100088BF30BD11F0004F4FEA01314FF4801C0E
:100420004CEA113102D0404261EB410113F0004F20
:100430004FEA03334CEA133302D0524263EB4303D7
:1004400094EA050F00F0A780A4F10104D5F1200E75
:100450000DDB02FA0EFC22FA05F2801841F10001D0
:1004600003FA0EF2801843FA05F359410EE0A5F1A4
:1004700020050EF1200E012A03FA0EFC28BF4CF0D5
:10048000020C43FA05F3C01851EBE37101F000458B
:1004900007D54FF0000EDCF1000C7EEB00006EEB98
:1004A0000101B1F5801F1BD3B1F5001F0CD3490822
:1004B0005FEA30004FEA3C0C04F101044FEA445279
:1004C00012F5800F80F09A80BCF1004F08BF5FEA00
:1004D000500C50F1000041EB045141EA050130BDE0
:1004E0005FEA4C0C404141EB0101013C28BFB1F5F2
:1004F000801FE9D291F0000F04BF01460020B1FA3D
:1005000081F308BF2033A3F10B03B3F120020CDA0F
:100510000C3208DD02F1140CC2F10C0201FA0CF0ED
:1005200021FA02F10CE002F11402D8BFC2F1200C52
:1005300001FA02F120FA0CFCDCBF41EA0C01904008
:10054000E41AA2BF01EB0451294330BD6FEA040451
:100550001F3C1CDA0C340EDC04F11404C4F120023C
:1005600020FA04F001FA02F340EA030021FA04F34E
:1005700045EA030130BDC4F10C04C4F1200220FAA5
:1005800002F001FA04F340EA0300294630BD21FAE3
:1005900004F0294630BD94F0000F83F4801306BFA9
:1005A00081F480110134013D4EE77FEA645C18BF9D
:1005B0007FEA655C29D094EA050F08BF90EA020F34
:1005C00005D054EA000C04BF1946104630BD91EA2C
:1005D000030F1EBF0021002030BD5FEA545C05D12F
:1005E0004000494128BF41F0004130BD14F580046E
:1005F0003CBF01F5801130BD01F0004545F0FE41E2
:1006000041F470014FF0000030BD7FEA645C1ABF16
:10061000194610467FEA655C1CBF0B46024650EA4D
:10062000013406BF52EA033591EA030F41F4002179
:1006300030BD00BF90F0000F04BF0021704730B5FF
:100640004FF4806404F132044FF000054FF00001D4
:1006500050E700BF90F0000F04BF0021704730B595
:100660004FF4806404F1320410F0004548BF40426A
:100670004FF000013EE700BF42004FEAE2014FEABF
:1006800031014FEA02701FBF12F07F4393F07F4F9A
:1006900081F06051704732F07F4208BF704793F09D
:1006A0007F4F04BF41F40021704730B54FF46074B0
:1006B00001F0004521F000411CE700BF50EA0102B3
:1006C00008BF704730B54FF000050AE050EA01025C
:1006D00008BF704730B511F0004502D5404261EBCC
:1006E00041014FF4806404F132045FEA915C3FF40D
:1006F000D8AE4FF003025FEADC0C18BF03325FEAAA
:10070000DC0C18BF033202EBDC02C2F1200300FA5A
:1007100003FC20FA02F001FA03FE40EA0E0021FA7F
:1007200002F11444BDE600BF7BB972B90029BEBF17
:1007300000204FF0004106E008BF00281CBF6FF00A
:1007400000414FF0FF3000F0D3B9ADF1080C6DE976
:1007500004CE002909DB002B1ADB00F04DF8DDF890
:1007600004E0DDE9022304B07047404261EB41013F
:10077000002B1BDB00F040F8DDF804E0DDE902238C
:1007800004B0404261EB4101524263EB43037047C6
:10079000524263EB430300F02FF8DDF804E0DDE99B
:1007A000022304B0404261EB41017047524263EBC7
:1007B000430300F021F8DDF804E0DDE9022304B092
:1007C000524263EB4303704753B94AB9002908BF4B
:1007D00000281CBF4FF0FF314FF0FF3000F088B908
:1007E000ADF1080C6DE904CE00F006F8DDF804E088
:1007F000DDE9022304B070472DE9F047089D0F465C
:1008000004468C46002B48D18A42164661D9B2FA7A
:1008100082F34BB1C3F1200201FA03FC20FA02F289
:100820009E4042EA0C0C9C404FEA164EB7B2BCFB0D
:10083000FEF1220C0EFB11CC42EA0C4201FB07F048
:10084000904209D9B21801F1FF3C80F0EE8090424D
:1008500040F2EB8002393244121AA4B2B2FBFEF02D
:100860000EFB102244EA024400FB07F7A74209D915
:10087000341900F1FF3280F0DA80A74240F2D780CD
:100880003444023840EA0140E41B00211DB1DC4041
:100890000023C5E90043BDE8F0878B4206D90DB1BE
:1008A000C5E9000100210846BDE8F087B3FA83F1ED
:1008B000002948D1BB4202D3824200F20781841A48
:1008C00067EB030201209446002DE4D0C5E9004CFB
:1008D000E1E7002A00F09280B2FA82F3002B40F0A8
:1008E000A8808A1A4FEA164E1FFA86FC0121200CB6
:1008F000B2FBFEF70EFB172240EA02420CFB07F0A8
:10090000904207D9B21807F1FF3802D2904200F2A4
:10091000E2804746121AA4B2B2FBFEF00EFB102290
:1009200044EA02440CFB00FCA44507D9341900F149
:10093000FF3202D2A44500F2CB801046A4EB0C0497
:1009400040EA0740A2E7C1F120068B4022FA06FCEC
:100950004CEA030C07FA01F420FA06F3F7404FEAD9
:100960001C49234300FA01F81FFA8CFEB7FBF9F08B
:100970001C0C09FB107744EA074400FB0EF7A74262
:1009800002FA01F20AD91CEB040400F1FF3A80F0EC
:100990009B80A74240F2988002386444E41B9FB2D7
:1009A000B4FBF9F309FB134447EA044403FB0EFECE
:1009B000A64509D91CEB040403F1FF3780F08280BF
:1009C000A6457FD9023B644443EA0040A4EB0E04F1
:1009D000A0FB02E7BC427346B94663D360D05DB169
:1009E000B8EB030264EB090404FA06F622FA01F3F9
:1009F0001E43CC40C5E9006400214CE7620848086A
:100A000042EAC1710B0C43EA00438AB242EA034254
:100A1000B3FBF6F1E407B4463746B6461F23B0FBF6
:100A2000F6F0D21B41EA004161E7614614E7104647
:100A300028E7C3F1200120FA01F29E4027FA01F1D4
:100A40009F403A434FEA164E1FFA86FCB1FBFEF771
:100A50000EFB1710110C41EA004107FB0CF888450A
:100A600004FA03F43AD9711807F1FF3001D288452E
:100A70001FD8A1EB0801B1FBFEF808FB0CF70EFB39
:100A8000181192B242EA0142BA422FD2B21808F1CA
:100A9000FF31C6D2BA42C4D2A8F102013244C0E743
:100AA000F0459CD2BEEB020367EB0C070138B94658
:100AB00095E7A6EB08084144B81EB1FBFEF808FB19
:100AC0000CF7DCE73B467FE7504667E70846FBE666
:100AD0003444023832E7023F32441BE7A1EB0801FD
:100AE0003846B1FBFEF808FB0CF7C8E7414698E72B
:100AF000704700BF80B584B000AF15F015FC774B90
:100B00005B6903F40033002B1BD1BFF34F8F00BF91
:100B1000BFF36F8F00BF714B0022C3F85022BFF3A9
:100B20004F8F00BFBFF36F8F00BF6C4B5B696B4A89
:100B300043F400335361BFF34F8F00BFBFF36F8F98
:100B400000E000BF654B5B6903F48033002B38D1B4
:100B5000624B0022C3F88420BFF34F8F00BF5F4B6E
:100B6000D3F88030FB60FB685B0BC3F30E03BB6004
:100B7000FB68DB08C3F309037B60BB685A0143F6DB
:100B8000E07313407A68920754491343C1F8603206
:100B90007B685A1E7A60002BEFD1BB685A1EBA6080
:100BA000002BE5D1BFF34F8F00BF4C4B5B694B4A25
:100BB00043F480335361BFF34F8F00BFBFF36F8F98
:100BC00000E000BF3DF06CFB00F0C8F800F004FC52
:100BD00000F08CFB00F0AAFB00F0DCF900F046F915
:100BE00000F066F900F0C2F900F058FA00F07EF962
:100BF00000F0E4FA00F096FA16F014FD00F0BAFAEC
:100C000000F028FB00F078FA16F0A8FD16F09FFD22
:100C10004FF0E0FD32484FF0D4FE0346314A1360F6
:100C2000314A0221402050F0F9F803462F4A136060
:100C30002F4A0221402050F0F1F803462D4A13605C
:100C40002D4A01214FF4006050F0E8F803462B4A8A
:100C500013602B4A01214FF4807050F0DFF80346F7
:100C6000284A1360284A002128484FF0FDFD03461A
:100C7000274A1360274A002127484FF0F5FD034615
:100C8000264A1360264A002126484FF0EDFD034610
:100C9000254A1360254A002125484FF0E5FD03460B
:100CA000244A1360244A002124484FF0DDFD034606
:100CB000234A1360234A002123484FF0D5FD034601
:100CC000224A1360224A002122484FF0CDFD0346FC
:100CD000214A13604FF0A2FD00BFFDE700ED00E0E8
:100CE000E83B080888D50024883B080838CA002457
:100CF000A03B08080CCB0024B83B0808E0CB00243C
:100D0000D03B080834D400248C3A080899470108DD
:100D10002C660024B03A08086D770108D8760024C4
:100D2000D43A080805500108DC760024F83A08088F
:100D300069500108888700241C3B0808E550010819
:100D400034980024403B080849510108E0A80024D9
:100D5000643B0808AD5101088CB9002480B59CB0F3
:100D600000AF07F124034C220021184674F0EFFD78
:100D70003B1D20220021184674F0E9FD042044F0B8
:100D80006BFD00233B60374BDB6A364A23F00103DF
:100D9000D362344BDB6A03F001033B60324B9B6947
:100DA000314A43F4404393612F4B9B6903F4404322
:100DB0003B603B6800BF2C4B9B6903F40053B3F5C9
:100DC000005FF8D12B237B624FF48033BB62012399
:100DD0003B6340237B630123BB630123FB6302234B
:100DE000BB640223FB6405233B65A0237B650223D0
:100DF000BB650423FB6502233B6608237B66002357
:100E0000BB660023FB6607F12403184646F008F88A
:100E10000346002B01D015F0D1FA3F237B6003235A
:100E2000BB600023FB6008233B6140237B614023C0
:100E3000BB614FF48063FB6140233B623B1D022199
:100E4000184646F09DFD0346002B01D015F0B6FA7A
:100E50004FF480220021002047F002F900BF7037D4
:100E6000BD4680BD000400580048025880B500AF60
:100E70000D4B0E4A1A600C4B00221A710A4B0022CD
:100E80005A71094B00225A61074B00229A61064BA6
:100E900001221A6204483DF089FD0346002B01D06F
:100EA00015F08CFA00BF80BD1C5F0024004C025876
:100EB00080B500AF0B4B0C4A1A600A4B4FF440321E
:100EC0005A60084B02229A60064B0022DA600548FD
:100ED0003EF028FC0346002B01D015F06FFA00BF4E
:100EE00080BD00BF405F00240010005280B500AFFD
:100EF0001B4B1C4A1A601A4B1B4A5A60184B0022A3
:100F00009A60174B0122DA60154B00221A61144BCC
:100F100000225A61124B00229A61114B0022DA61C1
:100F20000F4B00221A620E483FF06EFA0346002B68
:100F300001D015F043FA0021094840F0E9F80346D2
:100F4000002B01D015F03AFA0021054840F056F97F
:100F50000346002B01D015F031FA00BF80BD00BF61
:100F6000A85F0024001C0058B634900080B500AF84
:100F7000064B074A1A60054840F0B4F90346002BB7
:100F800001D015F01BFA00BF80BD00BFFC5F00243C
:100F90000030005280B58EB000AF15F04BFA3B1D0B
:100FA00034220021184674F0D2FC3A4B3A4A1A60B7
:100FB000384B00225A60374B00229A60354B002292
:100FC000DA60344B00221A61324B28225A61314BCD
:100FD00009229A612F4B3522DA612E4B0B221A62BD
:100FE0002C4B40F215225A622A4B40F21B129A6295
:100FF000284B40F23522DA62264B40F21D121A636A
:10100000244B002283F83420224B002283F8352021
:10101000204B002283F836201E4842F0BBF90346DD
:10102000002B01D015F0CAF900237B604FF4F07358
:10103000BB600023FB604FF488733B6102237B613C
:10104000FF23BB610023FB614FF480633B620523F8
:101050007B624FF05043BB624FF4F073FB624FF47E
:1010600088733B63002387F83430002387F83530DA
:10107000002387F836303B1D00221946054842F010
:1010800067FB0346002B01D015F098F900BF3837F5
:10109000BD4680BD2C6100240010005080B500AF1B
:1010A000124B134A1A60114B01225A600F4B012256
:1010B0009A600E4B1022DA600C4B1A221A610B4B0D
:1010C0004FF400725A61094B00229A61074B40228B
:1010D0001A62064844F03CFC0346002B01D015F090
:1010E0006DF9044815F01AFA00BF80BDD4610024E0
:1010F00000500052BD63010880B500AF074B084A9D
:101100001A60064B00225A6004484AF0B5FB0346B9
:10111000002B01D015F052F900BF80BD20620024E1
:101120000018024880B500AF104B114A1A600F4BEF
:1011300000225A600D4B7F229A600C4BFF22DA602E
:101140000A4B00221A61094B00229A61074B0022C8
:10115000DA61064B00225A6104484AF091FC0346CA
:10116000002B01D015F02AF900BF80BD34620024A5
:101170000040005880B500AF0E4B0F4A1A600D4B6F
:1011800000225A600B4B00229A600A4B4FF4004237
:10119000DA60084B00221A61064B00225A610548AA
:1011A00043F0C2FB0346002B01D015F007F900BF46
:1011B00080BD00BF586200240070005280B500AFAF
:1011C000224B234A1A60214B4FF4E1325A601F4BE5
:1011D00000229A601D4B0022DA601C4B00221A612B
:1011E0001A4B0C225A61194B00229A61174B0022AC
:1011F000DA61164B00221A62144B00225A62134B1A
:1012000000229A6211484BF03DFB0346002B01D0AF
:1012100015F0D4F800210D484EF020F90346002BBC
:1012200001D015F0CBF8002108484EF0B1F9034683
:10123000002B01D015F0C2F804484EF095F8034693
:10124000002B01D015F0BAF800BF80BDD064002497
:101250000010014080B500AF224B234A1A60214B99
:101260004FF4E1325A601F4B00229A601D4B00225E
:10127000DA601C4B00221A611A4B0C225A61194B7E
:1012800000229A61174B0022DA61164B00221A6283
:10129000144B00225A62134B00229A6211484BF001
:1012A000F1FA0346002B01D015F088F800210D4813
:1012B0004EF0D4F80346002B01D015F07FF8002142
:1012C00008484EF065F90346002B01D015F076F87A
:1012D00004484EF049F80346002B01D015F06EF893
:1012E00000BF80BD646500240044004080B582B02A
:1012F00000AF0D4BD3F8D4300B4A43F00103C2F8D2
:10130000D430094BD3F8D43003F001037B607B6801
:10131000002205217A203DF041F97A203DF068F95C
:1013200000BF0837BD4680BD0044025880B588B074
:1013300000AF3B1D00221A605A609A60DA601A61A1
:101340005A619A61214B224A1A60204B01225A604D
:101350001E4B00229A601D4B0422DA601B4B1022A8
:101360001A611A4B40225A61184B4FF480729A61ED
:10137000164B0022DA61154B4FF400621A62134BD0
:101380004FF480525A62114B00229A6202237B6012
:101390000623BB600423FB6006233B6102237B61C1
:1013A0000223BB610223FB613B1D194607484AF03B
:1013B000C9FD0346002B01D015F000F8054815F0D3
:1013C000CEF800BF2037BD4680BD00BFF8650024C1
:1013D00040410052BD63010880B590B000AF07F1F5
:1013E0002C0300221A605A609A60DA601A61A04BDE
:1013F000D3F8E0309E4A43F48063C2F8E0309C4B5F
:10140000D3F8E03003F48063BB62BB6A984BD3F837
:10141000E030974A43F04003C2F8E030944BD3F8F1
:10142000E03003F040037B627B6A914BD3F8E030FD
:101430008F4A43F00803C2F8E0308D4BD3F8E03018
:1014400003F008033B623B6A894BD3F8E030884ADB
:1014500043F00403C2F8E030854BD3F8E03003F0EA
:101460000403FB61FB69824BD3F8E030804A43F40C
:101470008073C2F8E0307E4BD3F8E03003F4807321
:10148000BB61BB697A4BD3F8E030794A43F0100373
:10149000C2F8E030764BD3F8E03003F010037B6104
:1014A0007B69734BD3F8E030714A43F00203C2F812
:1014B000E0306F4BD3F8E03003F002033B613B694F
:1014C0006B4BD3F8E0306A4A43F40073C2F8E03063
:1014D000674BD3F8E03003F40073FB60FB68644BA8
:1014E000D3F8E030624A43F00103C2F8E030604BC9
:1014F000D3F8E03003F00103BB60BB685C4BD3F86A
:10150000E0305B4A43F02003C2F8E030584BD3F898
:10151000E03003F020037B607B68554BD3F8E0306C
:10152000534A43F08003C2F8E030514BD3F8E03027
:1015300003F080033B603B68002208214D483EF0E9
:10154000FBFE01224FF400514B483EF0F5FE002215
:1015500008214A483EF0F0FE0022402148483EF073
:10156000EBFE0122042147483EF0E6FE0823FB6221
:1015700001233B6300237B630023BB6307F12C0340
:1015800019463C483EF0C2FA4FF48073FB620223D6
:101590003B6300237B630023BB630023FB6307F1F2
:1015A0002C03194636483EF0B1FA4FF40053FB6263
:1015B00001233B6300237B630023BB6307F12C0300
:1015C00019462D483EF0A2FA0823FB6201233B6333
:1015D00000237B630323BB6307F12C0319462748D1
:1015E0003EF094FA0423FB624FF404133B630023A0
:1015F0007B6307F12C03194620483EF087FA4FF42D
:101600004063FB6202233B6301237B630323BB63D1
:101610000723FB6307F12C0319461B483EF076FABB
:101620004023FB6201233B6300237B630323BB63F3
:1016300007F12C03194612483EF068FA0423FB62B6
:1016400001233B6300237B630023BB6307F12C036F
:1016500019460C483EF05AFA0022052108203CF0B9
:101660009DFF08203CF0C4FF00BF4037BD4680BD51
:1016700000440258000C025800200258001802587A
:1016800000000258002402580004025890B587B0A8
:1016900002AFF860B9607A606FF0010200212C4857
:1016A00055F060F903462B4A13602A4B1B68002B48
:1016B0001DD10023009300231022F968244854F020
:1016C00075FD0346234A1360224B1B68002B10D183
:1016D00010220021786874F03AF91023BA6879680A
:1016E0001B4855F081F903461A4A136002E000BF17
:1016F00000E000BF164855F052F9164B1B68002B4E
:1017000020D0154B1B6841F2883118464FF0DFF9A5
:10171000104B1B68114A1249124873F0F5FF11482B
:10172000FEF7E8FD03469CB20E48FEF7E3FD0346D4
:1017300022460C490C484BF073F9074B1B681846BE
:101740004FF010FA034B1B6818461437BD4690BD86
:1017500088160124C017012488D50024283C0808D5
:10176000887B0708DCD50024D064002480B483B0D3
:1017700000AF78607B681B781B029BB27A680132ED
:10178000127813449BB218460C37BD465DF8047BB3
:10179000704780B483B000AF78607B681B781B0211
:1017A0007A680132127813441B027A680232127886
:1017B00013441B027A6803321278134418460C371C
:1017C000BD465DF8047B704790B583B000AF04461A
:1017D000084611461A462346FB710346BB710B4669
:1017E0007B7113463B71FB796433114A5361BB79BA
:1017F000013B0F4A13617B790D4AD3603B790C4A58
:1018000093603B7E0A4A53603B7F094A1360084855
:1018100074F0C8F902460B460649C1E90023054B9E
:10182000D3E90023134618460C37BD4690BD00BFD0
:10183000C4170124E817012490B583B000AF786085
:1018400039607B681133184600F056F87B68581CE5
:101850007B6811333A681946FFF718FF03461F4AA1
:1018600013601E4B1B68002B0CD1202200211C484A
:1018700074F06DF81A49786800F0AEF80346174A1C
:10188000136000E000BF154B1B68002B20D0154BE8
:101890001B6841F2883118464FF019F90F4B1B684D
:1018A000114A1249124873F02FFF1148FEF722FD2A
:1018B00003469CB20E48FEF71DFD034622460C4926
:1018C0000C484BF0ADF8074B1B6818464FF04AF92F
:1018D000024B1B6818460C37BD4690BDF01701241B
:1018E000F417012488D50024403C0808887B0708A9
:1018F000DCD50024D064002480B485B000AF7860CB
:101900000F23FB600CE0FB687A6813441A780132FD
:10191000D2B21A701B78002B06D1FB68013BFB602A
:10192000FB68002BEFDA00E000BF00BF1437BD46B4
:101930005DF8047B7047000090B585B000AFF8609B
:10194000B9607A6020237A68B9681C4800F060FDAD
:101950001A49F86800F040F80346194A1360FB681A
:1019600001221A70164B1B68002B20D0154B1B68E8
:1019700041F2883118464FF0AAF8114B1B68124A01
:101980001249134873F0C0FE1148FEF7B3FC03463A
:101990009CB20F48FEF7AEFC034622460C490D48A8
:1019A0004BF03EF8074B1B6818464FF0DBF8044B32
:1019B0001B6818461437BD4690BD00BF141801249B
:1019C0003418012488D50024643C0808887B070863
:1019D000DCD50024D0640024B0B584B000AF7860BA
:1019E00039607B6811331846FFF786FF7B68581C07
:1019F0007B681133414A1946FFF748FE0346404AC7
:101A000013603F4B1B68002B49D13E4A3B4B1446A9
:101A10000FCB84E80F007B6811331846FFF76CFF8B
:101A20007B68581C7B681133344A1946FFF72EFE39
:101A30000346334A1360324B1B68002B31D1324AC4
:101A40002E4B14461D460FCD20606160A260E360FE
:101A50000023FB6011E02B4AFB6813441A78FB68F3
:101A600039680B441B785340D9B2264AFB681344AB
:101A70000A461A70FB680133FB60FB681F2BEAD92A
:101A80007B68013310221F49184674F02CFE7B68D6
:101A9000113310221C49184674F025FE02E000BFE5
:101AA00000E000BF164B1B68002B20D0174B1B68B3
:101AB00041F2883118464FF00AF8114B1B68144A5E
:101AC0001449154873F020FE1348FEF713FC034633
:101AD0009CB21148FEF70EFC034622460E490F4801
:101AE0004AF09EFF094B1B6818464FF03BF8044B29
:101AF0001B6818461037BD46B0BD00BF381801241A
:101B0000481801244C1801245C18012488D50024AD
:101B1000803C0808887B0708DCD50024D0640024BA
:101B200080B582B000AF78607B680133102200215D
:101B3000184673F00CFF7B68113310220021184601
:101B400073F005FF7B68213310220021184673F0E3
:101B5000FEFE7B6800221A7000BF0837BD4680BDBC
:101B600090B583B000AF7860544B1B6818464FF0B7
:101B700087FA03469AB2524B1A80514B1B88002BAE
:101B800000F095804F4B1B6841F2883118464EF0AB
:101B90009EFF4B4B1B884C4A4C494D4873F0B4FD9B
:101BA0004B48FEF7A7FB03469CB24948FEF7A2FB51
:101BB00003462246464947484AF032FF414B1B68DC
:101BC00018464EF0CFFF444B00221A803CE03B4BBE
:101BD00018680023002241494FF0F4F90346404AB7
:101BE00013603F4B1B68002B20D0364B1B6841F223
:101BF000883118464EF06BFF394B1B68324A394921
:101C0000334873F081FD3248FEF774FB03469CB203
:101C10002F48FEF76FFB034622462D492D484AF018
:101C2000FFFE284B1B6818464EF09CFF2A4B1B8872
:101C30001A467B681344294A12781A70264B1B886F
:101C400001339AB2244B1A801C4B1B6818464FF084
:101C500017FA0346002B05D01F4B1B8840F6FD7278
:101C60009342B4D91C4B1A88154B1A80154B1B682C
:101C700041F2883118464EF02AFF114B1B88124A58
:101C80001949134873F040FD1148FEF733FB034632
:101C90009CB20F48FEF72EFB034622460C490D4826
:101CA0004AF0BEFE074B1B6818464EF05BFF044B24
:101CB0001B8818460C37BD4690BD00BF34D40024A5
:101CC0006C18012488D50024983C0808B47B0708C8
:101CD000DCD50024D06400246E180124701801247F
:101CE00074180124DC7B0708147C070890B583B0C6
:101CF00000AF78607B681B682F4A934216D12F4B48
:101D00001A782F4B1A702F4B1868002300222C4989
:101D10004FF0F8F803462C4A1360012227492B485C
:101D20004AF00CFF03461A46294B1A707B681B6861
:101D3000284A93423BD1284B1A78284B1A70284BDB
:101D400018680023002225494FF0DCF803461E4A9C
:101D500013601D4B1B68002B20D0224B1B6841F2E7
:101D6000883118464EF0B3FE174B1B681E4A1F49B8
:101D70001F4873F0C9FC1E48FEF7BCFA03469CB22C
:101D80001B48FEF7B7FA0346224619490F484AF0A6
:101D900047FE144B1B6818464EF0E4FE01220E4924
:101DA00014484AF0CBFE03461A46094B1A7000BF8E
:101DB0000C37BD4690BD00BF0010014011EE00245D
:101DC0007818012434D400247C180124D064002421
:101DD000801801240044004010EE002481180124E2
:101DE000E0CB002488D50024B43C08083C7C0708DC
:101DF000DCD500246465002490B585B000AFF860A0
:101E00007B600B467B8113467B72A84B1B6841F2BB
:101E1000883118464EF05BFEA54B00221A80E3E0A5
:101E20007B7A002B1ED0A24B1B8803F00F039BB2C2
:101E3000002B17D19E4B1B881A467B6813441A4609
:101E40009C499D4873F060FC9B48FEF753FA03469B
:101E50009CB29948FEF74EFA0346224696499748A7
:101E60004AF0DEFD924B1B881A46FB6813441B7830
:101E70001A469349904873F047FC8F48FEF73AFAA8
:101E800003469CB28C48FEF735FA034622468A493F
:101E90008A484AF0C5FD8B49874873F035FC86486F
:101EA000FEF728FA03469CB28348FEF723FA03465E
:101EB0002246814981484AF0B3FD7D4B1B8803F0DF
:101EC0000F039BB2072B11D17F497B4873F01CFC99
:101ED0007948FEF70FFA03469CB27748FEF70AFAF4
:101EE00003462246744975484AF09AFD704B1B8898
:101EF00003F00F039BB20F2B70D173496E4873F040
:101F000003FC6D48FEF7F6F903469CB26A48FEF7FB
:101F1000F1F903462246684968484AF081FD644B5E
:101F20001B880F3B9AB2694B1A803FE0674B1B88B6
:101F30001A46FB6813441B780133654A13441B7827
:101F400003F09703002B19D0604B1B881A46FB68DF
:101F500013441B781A465F49574873F0D5FB56481F
:101F6000FEF7C8F903469CB25348FEF7C3F903468F
:101F70002246514951484AF053FD11E056494E4816
:101F800073F0C2FB4C48FEF7B5F903469CB24A48D1
:101F9000FEF7B0F903462246474948484AF040FD5B
:101FA0004A4B1B8801339AB2484B1A80404B1A881F
:101FB000464B1B889A42B9D248493F4873F0A4FB6C
:101FC0003D48FEF797F903469CB23B48FEF792F96D
:101FD00003462246384939484AF022FD344B1B88D3
:101FE00001339AB2324B1A80314B1B887A899A425C
:101FF0003FF616AF7B8903F00F039BB2002B00F076
:10200000C8807B8903F00F039AB2304B1A8017E027
:102010003349294873F078FB2748FEF76BF90346EC
:102020009CB22548FEF766F903462246224923481A
:102030004AF0F6FC254B1B8801339AB2234B1A80D9
:10204000224B1B880F2BE3D97B8903F008039BB23B
:10205000002B11D11C49184873F056FB1648FEF7A7
:1020600049F903469CB21448FEF744F90346224658
:10207000114912484AF0D4FC13490F4873F044FB4D
:102080000D48FEF737F903469CB20B48FEF732F9CC
:1020900003462246084909484AF0C2FC7B8923F0DE
:1020A0000F039AB2094B1A805CE000BF88D5002468
:1020B00082180124747C0708DCD50024D064002435
:1020C000887C0708907C0708947C07088418012402
:1020D000A89A08089C7C0708A07C0708A47C07082D
:1020E000A87C07082F4B1B881A46FB6813441B78F3
:1020F00001332D4A13441B7803F09703002B19D0AA
:10210000284B1B881A46FB6813441B781A4627493C
:10211000274873F0F9FA2648FEF7ECF803469CB21C
:102120002348FEF7E7F803462246214921484AF0B2
:1021300077FC11E020491E4873F0E6FA1C48FEF7D0
:10214000D9F803469CB21A48FEF7D4F80346224653
:10215000174918484AF064FC124B1B8801339AB2A5
:10216000104B1A800F4B1B887A899A42BAD81349B0
:102170000F4873F0C9FA0E48FEF7BCF803469CB24C
:102180000B48FEF7B7F803462246094909484AF0CA
:1021900047FC0B4B1B6818464EF0E4FC00BF14379D
:1021A000BD4690BD84180124A89A08089C7C0708A5
:1021B000DCD50024D0640024A07C0708A47C070898
:1021C00088D5002490B583B002AF654B1B684FF4EF
:1021D0007A7118464EF07BFC6249634873F094FABA
:1021E0006148FEF787F803469CB25F48FEF782F825
:1021F000034622465C495D484AF012FC59495A4858
:1022000073F082FA5848FEF775F803469CB25648B8
:10221000FEF770F803462246534954484AF000FC42
:102220005049514873F070FA4F48FEF763F803467F
:102230009CB24D48FEF75EF8034622464A494B4899
:102240004AF0EEFB4A49484873F05EFA4648FEF70A
:1022500051F803469CB24448FEF74CF80346224628
:10226000414942484AF0DCFB42493F4873F04CFA8E
:102270003D48FEF73FF803469CB23B48FEF73AF86C
:1022800003462246384939484AF0CAFB3A4936489B
:1022900073F03AFA3448FEF72DF803469CB2324800
:1022A000FEF728F8034622462F4930484AF0B8FB8B
:1022B00041230193314B0093314B314A31492A4834
:1022C00073F022FA2848FEF715F803469CB2264818
:1022D000FEF710F803462246234924484AF0A0FBA3
:1022E000294A2A49204873F00FFA1F48FEF702F8DE
:1022F00003469CB21C48FDF7FDFF034622461A49DF
:102300001A484AF08DFB2249174873F0FDF9164828
:10231000FDF7F0FF03469CB21348FDF7EBFF0346C1
:102320002246114911484AF07BFB12490E4873F0CE
:10233000EBF90D48FDF7DEFF03469CB20A48FDF7B6
:10234000D9FF03462246084908484AF069FB044B76
:102350001B6818464EF006FC00BF0437BD4690BD12
:1023600088D50024AC7C0708DCD50024D064002488
:10237000D87C0708E07C0708287D0708A47D0708AB
:10238000707D0708747D0708A87D0708B47D0708DD
:10239000DC7D070880B483B000AF0346FB80B7F94B
:1023A00006301B021AB2FB881B0A9BB21BB21343F6
:1023B0001BB29BB218460C37BD465DF8047B7047D4
:1023C00080B483B000AF78607B681A0E7B681B0A0C
:1023D00003F47F431A437B681B0203F47F031A4311
:1023E0007B681B06134318460C37BD465DF8047B1B
:1023F0007047000080B500AF0349044849F0EAFA8D
:10240000014B1B68184680BD8818012420620024F7
:1024100080B487B000AFF860B9607A607B80002339
:10242000FB8210E0FB8ABA6813441978FB8A7A6849
:1024300013441A78FB8AF86803444A40D2B21A70EF
:10244000FB8A0133FB82FA8A7B889A42EAD300BF77
:1024500000BF1C37BD465DF8047B704790B58BB05C
:1024600004AF03463960FB800023BB82FB88002B4E
:1024700023D0FB88A3F58073002B00DA0733DB1031
:10248000FB75FB88DBB203F00703BB75FB880133E8
:102490003B823B8AA3F58073002B00DA0733DB1005
:1024A000FB753B8AA3F580735A4203F0070302F0E1
:1024B000070258BF5342BB7503E00023FB7500239E
:1024C000BB75FB7DFB7454E0BB7DBB7449E0FB7CBA
:1024D0003A6813441B781A46BB7C42FA03F303F0B4
:1024E0000103002B3AD0FB7C20339BB2DB009AB275
:1024F000BB7C9BB21344BB82FB7CFB73BB7CBB737A
:10250000314B1B6841F2883118464EF0E0FAB88A28
:10251000FB7BBA7BB97B012404FA01F102910192A1
:1025200000930346294A2A492A4873F0EDF82948BE
:10253000FDF7E0FE03469CB22648FDF7DBFE0346AE
:102540002246244924484AF06BFA1F4B1B68184660
:102550004EF008FB0823BB748023FB74BB7C013363
:10256000BB74BB7C072BB2D90023BB75FB7C01334A
:10257000FB7497F91330002BA6DABB8A002B1ED10F
:10258000114B1B6841F2883118464EF0A0FA0F4AF1
:102590001249104873F0B8F80E48FDF7ABFE034639
:1025A0009CB20C48FDF7A6FE0346224609490A489C
:1025B0004AF036FA044B1B6818464EF0D3FABB8A31
:1025C00018461C37BD4690BD88D50024CC3C080871
:1025D000D87E0708DCD50024D0640024347F0708A7
:1025E000B0B58CB006AF0346FB71FB79002B45D12B
:1025F0008C4B1B6841F2883118464EF068FA8A4AC3
:102600008A498B4873F080F88948FDF773FE0346CA
:102610009CB28748FDF76EFE0346224684498548F2
:102620004AF0FEF97F4B1B6818464EF09BFA824B2E
:1026300000221A607B4B1B6841F2883118464EF02D
:1026400046FA794A7D497A4873F05EF87848FDF792
:1026500051FE03469CB27648FDF74CFE03462246E7
:10266000734974484AF0DCF96E4B1B6818464EF00B
:1026700079FA734B00221A7001F019B9FB79012B1A
:1026800041F0B6806F4B9A786F4B1B789A4208D016
:102690006C4B9A786C4B1A70674B1B680133664A17
:1026A0001360654B1B68B3F5967F26D9624B0022F9
:1026B0001A605C4B1B6841F2883118464EF007FAED
:1026C000624B1B78584A6249594873F01DF85848C4
:1026D000FDF710FE03469CB25548FDF70BFE03467E
:1026E0002246534953484AF09BF94E4B1B68184603
:1026F0004EF038FA524B0B221A70514B1B78002BBC
:102700005BD1524B1B781946524A582301FB03F305
:10271000134414331B78042B41F0C98010F08AFB5A
:1027200003461A464C4B1A70502200214B4873F056
:102730000EF94A4B9F221A70484B04225A70434BA1
:102740001B781946434A582301FB03F313441633FD
:102750001888414B1B7800930123404A02210FF057
:1027600041FD354B00221A603D4B00221A702D4B63
:102770001B6841F2883118464EF0A9F9334B1B789B
:10278000294A38492A4872F0BFFF2948FDF7B2FDAF
:1027900003469CB22648FDF7ADFD03462246244978
:1027A00024484AF03DF91F4B1B6818464EF0DAF9F1
:1027B000234B01221A7001F07AB8214B1B78012BB0
:1027C00040F0BC81264B1B78002B01F07080264B1B
:1027D0001B78002B4CD1134B1B6841F288311846F3
:1027E0004EF075F9194B1B780F4A2049104872F0CA
:1027F0008BFF0F48FDF77EFD03469CB20C48FDF7AA
:1028000079FD034622460A490A484AF009F9054B70
:102810001B6818464EF0A6F9094B0B221A7001F0FE
:1028200046B800BF88D50024E83C08085C7F07084C
:10283000DCD50024D06400248C180124707F0708A4
:1028400090180124DCED002416000024140000245C
:10285000A07F070834120124EC13012494180124EA
:1028600077140124F07F0708781401242C800708CE
:10287000A04B00221A60A04B1B78184610F0ECFA0F
:1028800003461A469C4B1A70502200219B4873F055
:102890005EF89A4B9F221A70984B06225A70974BFB
:1028A00000229A70954B0222DA70944B01221A7121
:1028B000934B1B781946934A582301FB03F31344A7
:1028C00011331B7803F00403002B22D08E4B1B68BE
:1028D00041F2883118464EF0FAF88C4A8C498D48FE
:1028E00072F012FF8B48FDF705FD03469CB2894844
:1028F000FDF700FD03462246864987484AF090F8D6
:10290000814B1B6818464EF02DF97C4B04225A71FE
:1029100083E07B4B1B7819467A4A582301FB03F36B
:10292000134411331B7803F00203002B22D0764BA3
:102930001B6841F2883118464EF0C9F8734A77494E
:10294000744872F0E1FE7348FDF7D4FC03469CB274
:102950007048FDF7CFFC034622466E496E484AF0A8
:102960005FF8694B1B6818464EF0FCF8634B022277
:102970005A7152E0624B1B781946624A582301FB98
:1029800003F3134411331B7803F00103002B22D00F
:102990005D4B1B6841F2883118464EF098F85B4A4F
:1029A0005F495C4872F0B0FE5A48FDF7A3FC03464D
:1029B0009CB25848FDF79EFC0346224655495648AE
:1029C0004AF02EF8504B1B6818464EF0CBF84B4B94
:1029D00001225A7121E04C4B1B6841F288311846A4
:1029E0004EF075F8494A4F494A4872F08DFE494801
:1029F000FDF780FC03469CB24648FDF77BFC03468E
:102A00002246444944484AF00BF83F4B1B6818469D
:102A10004EF0A8F8394B00225A713B4B1B6841F22B
:102A2000883118464EF053F8354B1B78374A3E49EB
:102A3000384872F069FE3748FDF75CFC03469CB2EB
:102A40003448FDF757FC034622463249324849F0E4
:102A5000E7FF2D4B1B6818464EF084F8284B1B7877
:102A60001846264B5979274A582300FB03F3134491
:102A700012330A461A70224B1B781946214A5823F2
:102A800001FB03F31344163318881B4B1B78009388
:102A900001231A4A06210FF0A5FB244B00221A70CD
:102AA000234B00221A70184B1B6841F288311846DC
:102AB0004EF00DF8124B1B78144A1E49154872F05F
:102AC00023FE1448FDF716FC03469CB21148FDF79F
:102AD00011FC034622460F490F4849F0A1FF0A4B5B
:102AE0001B6818464EF03EF8134B02221A7000F095
:102AF000DEBE00BF8C180124EC13012494180124BD
:102B0000140000243412012488D50024E83C08086D
:102B10006C800708DCD50024D06400248880070876
:102B2000A8800708CC8007081C81070879140124B5
:102B30007A1401244081070890180124844B1B78E3
:102B4000022B40F02B81834B1B78002B00F0AF86CB
:102B5000814B1B78002B25D0804B1B6841F28831BC
:102B600018464DF0B4FF7E4B1B787E4A7E497F4865
:102B700072F0CAFD7D48FDF7BDFB03469CB27B4861
:102B8000FDF7B8FB034622467849794849F048FFEB
:102B9000724B1B6818464DF0E5FF6D4B0B221A7007
:102BA00000F085BE734B00221A607349734800F031
:102BB0009DFEF860FB68002B1FD0684B1B6841F23C
:102BC000883118464DF083FFFB68664A6C496748B8
:102BD00072F09AFD6548FDF78DFB03469CB2634891
:102BE000FDF788FB034622466049614849F018FF1B
:102BF0005A4B1B6818464DF0B5FF624B1B781846C0
:102C000010F02AF903461A465E4B1A705022002132
:102C10005D4872F09CFE5C4B9F221A705A4B082252
:102C20005A70594B01229A70574B534ADC1C154677
:102C30000FCD20606160A260E3600FCD2061616113
:102C4000A261E361464B1B781946504A582301FBA9
:102C500003F31344163318884A4B1B78009301235F
:102C6000494A23210FF0BEFA10F05AFEB860BB6843
:102C7000002B28D1464B00221A70384B1B6841F2BA
:102C8000883118464DF023FF354B1B78354A4149B2
:102C9000364872F039FD3548FDF72CFB03469CB2EF
:102CA0003248FDF727FB034622463049304849F0B9
:102CB000B7FE2A4B1B6818464DF054FF244B0322E5
:102CC0001A7000F0F4BD254B1B6841F2883118469C
:102CD0004DF0FDFE234A3049244872F015FD23488B
:102CE000FDF708FB03469CB22048FDF703FB0346B3
:102CF00022461E491E4849F093FE184B1B68184691
:102D00004DF030FF154B1B6841F2883118464DF0ED
:102D1000DEFE134B1B78134A1349144872F0F4FC7F
:102D20001248FDF7E7FA03469CB21048FDF7E2FAB5
:102D3000034622460D490E4849F072FE074B1B68B8
:102D400018464DF00FFF024B0B221A7000F0AFBD7A
:102D500090180124791401247A14012488D50024C0
:102D600014000024E83C080884810708DCD500240E
:102D7000D06400248C18012480140124A0140124A0
:102D8000C8810708EC13012494180124341201248B
:102D90007B1401240C8207085C820708B14B1B7866
:102DA000032B40F08B81B04B1B78002B00F07F850C
:102DB000AE4B00221A60AE4B1B6841F288311846B8
:102DC0004DF085FEAB4AAC49AC4872F09DFCAB4877
:102DD000FDF790FA03469CB2A848FDF78BFA03462C
:102DE0002246A649A64849F01BFEA14B1B6818467F
:102DF0004DF0B8FEA34B1B78184610F02DF8034693
:102E00001A46A04B1A70502200219F4872F09FFD75
:102E10009D4B9F221A709C4B02225A70994B1A7834
:102E2000994B9A70984B0122DA70914B1B6841F2D2
:102E3000883118464DF04BFE8E4A94498F4872F007
:102E400063FC8E48FDF756FA03469CB28B48FDF7AB
:102E500051FA034622468949894849F0E1FD844BED
:102E60001B6818464DF07EFE894855F0B6FE386165
:102E70003B69002B1FD07E4B1B6841F288311846FE
:102E80004DF025FE3B697B4A82497C4872F03CFC50
:102E90007A48FDF72FFA03469CB27848FDF72AFAE4
:102EA000034622467549764849F0BAFD704B1B68C7
:102EB00018464DF057FE10227749754855F0F8FE38
:102EC00038613B69002B1FD0694B1B6841F2883188
:102ED00018464DF0FCFD3B69664A7049674872F040
:102EE00013FC6648FDF706FA03469CB26348FDF7FB
:102EF00001FA034622466149614849F091FD5C4B65
:102F00001B6818464DF02EFE594B1B6841F2883164
:102F100018464DF0DCFD574A6149584872F0F4FB01
:102F20005648FDF7E7F903469CB25448FDF7E2F92D
:102F3000034622465149524849F072FD4C4B1B68EA
:102F400018464DF00FFE504B534A1C1D13460FCB35
:102F500084E80F004E4855F002FF38613B69002BB2
:102F60001FD0434B1B6841F2883118464DF0AFFD2E
:102F70003B69404A4B49414872F0C6FB3F48FDF768
:102F8000B9F903469CB23D48FDF7B4F90346224621
:102F90003A493B4849F044FD354B1B6818464DF013
:102FA000E1FD334B1B6841F2883118464DF08FFD2F
:102FB000304A3D49314872F0A7FB3048FDF79AF995
:102FC00003469CB22D48FDF795F9034622462B494E
:102FD0002B4849F025FD264B1B6818464DF0C2FDD5
:102FE0000023002210212C48FEF706FF2F4B1B78F0
:102FF00019462F4A582301FB03F31344163318884C
:10300000204B1B78009301231F4A14210FF0EAF88C
:10301000284B00221A70164B1B6841F28831184663
:103020004DF055FD214B1B78124A2349134872F08D
:103030006BFB1248FDF75EF903469CB20F48FDF7A3
:1030400059F9034622460D490D4849F0E9FC084B61
:103050001B6818464DF086FD024B04221A7000F0E2
:1030600026BC00BF901801247B1401248C18012475
:1030700088D50024E83C0808A0820708DCD5002495
:10308000D0640024EC13012494180124C48207089E
:10309000C014012414830708001501244C83070879
:1030A00090830708D48307080C84070814000024C1
:1030B000341201247C1401244C840708214B1B7812
:1030C000042B40F07183204B1B78002B00F0EF8322
:1030D0001D4B00221A701D4B00221A601C4B1B78DE
:1030E000002B29D111F00CF80346184A1360174B36
:1030F0001B68002B20D0174B1B6841F28831184603
:103100004DF0E5FC114B1B68134A1449144872F04A
:10311000FBFA1348FDF7EEF803469CB21048FDF7A2
:10312000E9F8034622460E490E4849F079FC094B5E
:103130001B6818464DF016FD0B4B00221A60012348
:10314000FB759DE2901801247C140124E4180124ED
:103150002015012488D50024E83C0808A08407082D
:10316000DCD50024D0640024E8180124FB7D013B59
:10317000FB75B349B348FEF75FFB0346B24A1360E1
:10318000B14B1B68002B20D0B04B1B6841F288313B
:1031900018464DF09CFCAC4B1B68AD4AAD49AE489F
:1031A00072F0B2FAAC48FDF7A5F803469CB2AA4803
:1031B000FDF7A0F803462246A749A84849F030FC8D
:1031C000A24B1B6818464DF0CDFCA04B1B6841F28A
:1031D000883118464DF07BFC9D4AA1499E4872F00B
:1031E00093FA9D48FDF786F803469CB29A48FDF78E
:1031F00081F8034622469849984849F011FC934BC0
:103200001B6818464DF0AEFC0023002210218C48AC
:10321000FEF7F2FD6FF001020021924853F0A2FB8D
:103220000346914A1360904B1B68002B20D0874BBC
:103230001B6841F2883118464DF049FC8A4B1B68E7
:10324000834A8A49844872F05FFA8348FDF752F84E
:1032500003469CB28048FDF74DF8034622467E495E
:103260007E4849F0DDFB794B1B6818464DF07AFC2F
:1032700010227F497B4852F0F4FF03467D4A1360D9
:103280007C4B1B68002B20D0704B1B6841F28831AF
:1032900018464DF01CFC774B1B686D4A76496E480A
:1032A00072F032FA6C48FDF725F803469CB26A4882
:1032B000FDF720F8034622466749684849F0B0FB0D
:1032C000624B1B6818464DF04DFC604B1B6841F289
:1032D000883118464DF0FBFB5D4A68495E4872F044
:1032E00013FA5D48FDF706F803469CB25A48FDF70D
:1032F00001F8034622465849584849F091FB534B80
:103300001B6818464DF02EFC5D4B1B7819460023B8
:1033100000225C48FEF770FD4C4B1B6841F288317F
:1033200018464DF0D4FB564B1B78494A56494A483B
:1033300072F0EAF94848FCF7DDFF03469CB24648C4
:10334000FCF7D8FF034622464349444849F068FB4E
:103350003E4B1B6818464DF005FC3C4B1B6841F288
:10336000883118464DF0B3FB394A48493A4872F063
:10337000CBF93948FCF7BEFF03469CB23648FCF750
:10338000B9FF034622463449344849F049FB2F4BE4
:103390001B6818464DF0E6FB002300220D2128484B
:1033A000FEF72AFD294B1B6841F2883118464DF083
:1033B0008EFB274A3649284872F0A6F92648FCF7C2
:1033C00099FF03469CB22448FCF794FF034622462B
:1033D0002149224849F024FB1C4B1B6818464DF03C
:1033E000C1FB2C4B1B781946002300222A48FEF70C
:1033F00003FD164B1B6841F2883118464DF067FB00
:10340000244B1B78124A2549134872F07DF9124863
:10341000FCF770FF03469CB20F48FCF76BFF0346B6
:1034200022460D490D4849F0FBFA084B1B68184627
:103430004DF098FB054B1B6841F2883130E000BF2E
:103440004115012420150124EC18012488D50024FD
:10345000E83C0808D4840708DCD50024D0640024A4
:1034600004850708F0180124281A01243485070868
:10347000D01401242C1A01246085070890850708C0
:103480005416012454150124B0850708DC8507086B
:10349000FC850708601601245816012418860708C1
:1034A00018464DF014FBA34AA349A44872F02CF926
:1034B000A248FCF71FFF03469CB2A048FCF71AFF86
:1034C000034622469D499E4849F0AAFA9D4B1B6837
:1034D00018464DF047FB9C4B1B78194600230022F1
:1034E0009A48FEF789FC974B1B6841F288311846D1
:1034F0004DF0EDFA944B1B788E4A95498F4872F047
:1035000003F98E48FCF7F6FE03469CB28B48FCF7A5
:10351000F1FE034622468949894849F081FA894BE0
:103520001B6818464DF01EFB10220021894872F0DE
:103530000EFA894B1B781946884B1B781A46824B2A
:103540001B780593814B04930392854B02930D23C3
:103550000193844B00930B46834A7E49834852F083
:10356000B7FF0346824A1360814B1B68002B20D0B3
:10357000744B1B6841F2883118464DF0A8FA7C4B19
:103580001B686C4A7B496D4872F0BEF86B48FCF7CB
:10359000B1FE03469CB26948FCF7ACFE03462246E6
:1035A0006649674849F03CFA664B1B6818464DF07F
:1035B000D9FA644B1B6841F2883118464DF087FAFE
:1035C000FB7D5C4A6C495D4872F09EF85B48FCF7F5
:1035D00091FE03469CB25948FCF78CFE03462246F6
:1035E0005649574849F01CFA564B1B6818464DF08F
:1035F000B9FA594B1B781946002300225548FEF7AB
:10360000FBFB5A4853F0CBF95C4B1B68002B09D1EC
:103610005B4B1B68002B05D1554B1B68002B01D160
:10362000012300E00023574A1360564B1B68002B10
:1036300026D0554B00221A60424B1B6841F288315C
:1036400018464DF044FA514B1B783A4A50493B48D2
:1036500072F05AF83948FCF74DFE03469CB23748E1
:10366000FCF748FE034622463449354849F0D8F96C
:10367000344B1B6818464DF075FA464B05221A70FC
:10368000404B1B68002B03D1FB7D002B7FF46EADFC
:103690003C4B1B68002B40F00A812A4B1B6841F20F
:1036A000883118464DF013FA224A3B49234872F0FC
:1036B0002BF82248FCF71EFE03469CB21F48FCF77D
:1036C00019FE034622461D491D4849F0A9F91D4B24
:1036D0001B6818464DF046FA2B4B00221A602F4803
:1036E000FEF71EFA2E4B01221A70164B1B6841F290
:1036F000883118464DF0EBF9244B1B780D4A2949C7
:103700000E4872F001F80D48FCF7F4FD03469CB238
:103710000A48FCF7EFFD034622460849084849F0ED
:103720007FF9084B1B6818464DF01CFA194B032211
:103730001A70BCE0E83C080844860708DCD5002481
:10374000D064002488D50024841601246416012442
:103750005C860708301A01245416012460160124DF
:10376000581601244115012454150124F018012490
:10377000401A012488860708BC860708281A0124F5
:103780002C1A0124E81801248C18012414000024A8
:103790001C8707089018012470870708201501244A
:1037A0007B14012490870708464B1B78052B7ED09D
:1037B000444B1B78062B7AD0424B1B78072B76D0D4
:1037C000404B1B78082B72D03E4B1B78092B6ED0D8
:1037D0003C4B1B780A2B03D13B4B01221A7066E04D
:1037E000384B1B780B2B62D1384B01221A705EE0EC
:1037F000FB79022B5BD0364B1B6841F288311846AF
:103800004DF065F93349344871F07EFF3248FCF7DA
:1038100071FD03469CB23048FCF76CFD034622461E
:103820002D492E4849F0FCF8294B1B6818464DF0ED
:1038300099F9274B1B6841F2883118464DF047F93A
:10384000FB79274A2749244871F05EFF2248FCF79C
:1038500051FD03469CB22048FCF74CFD034622462E
:103860001D491E4849F0DCF8194B1B6818464DF0FD
:1038700079F9174B1B6841F2883118464DF027F94A
:103880001449154871F040FF1348FCF733FD034617
:103890009CB21148FCF72EFD034622460E490F4804
:1038A00049F0BEF80A4B1B6818464DF05BF9054B12
:1038B0001A780D4B1A70034B1B7818461837BD4603
:1038C000B0BD00BF9018012405EE002406EE0024D0
:1038D00088D50024E4870708DCD50024D0640024C0
:1038E000E83C0808408807087614012490B59FB08A
:1038F00000AF7860396000237B672023FB602023C2
:10390000BB60BB4B1B6841F2883118464DF0DFF8B5
:10391000B84AB949B94871F0F7FEB848FCF7EAFC73
:1039200003469CB2B548FCF7E5FC03462246B34982
:10393000B34849F075F8AE4B1B6818464DF012F9C4
:10394000AB4B1B6841F2883118464DF0C0F8A94ACC
:10395000AC49AA4871F0D8FEA848FCF7CBFC034656
:103960009CB2A648FCF7C6FC03462246A349A448DD
:1039700049F056F89E4B1B6818464DF0F3F807F1D6
:103980006403184655F029F978677B6F002B40F0E7
:103990005881974B1B6841F2883118464DF097F8D3
:1039A000944A9949954871F0AFFE9448FCF7A2FCFF
:1039B00003469CB29148FCF79DFC034622468F4982
:1039C0008F4849F02DF88A4B1B6818464DF0CAF80D
:1039D00007F11003184653F08BFE78677B6F002BBE
:1039E00040F03181824B1B6841F2883118464DF01E
:1039F0006EF8804A8549814871F086FE7F48FCF761
:103A000079FC03469CB27D48FCF774FC03462246D1
:103A10007A497B4849F004F8754B1B6818464DF00D
:103A2000A1F807F1100207F164032021184653F0B2
:103A3000C7FC78677B6F002B40F007816C4B1B68DD
:103A400041F2883118464DF042F86A4A70496B4895
:103A500071F05AFE6948FCF74DFC03469CB267487A
:103A6000FCF748FC034622466449654848F0D8FF05
:103A70005F4B1B6818464DF075F85D4B1B6841F2B3
:103A8000883118464DF023F85A4A62495B4871F074
:103A90003BFE5A48FCF72EFC03469CB25748FCF705
:103AA00029FC034622465549554848F0B9FF504B7A
:103AB0001B6818464DF056F84D4B1B6841F2883193
:103AC00018464DF004F84B4A51494C4871F01CFE21
:103AD0004A48FCF70FFC03469CB24848FCF70AFC36
:103AE000034622464549464848F09AFF404B1B682A
:103AF00018464DF037F807F10C0207F110000023CB
:103B0000796853F077FD78670023002220217868D8
:103B1000FEF772F90023002220213F48FEF76CF9DE
:103B20007B6F002B40F09380314B1B6841F2883152
:103B300018464CF0CCFF2F4A3549304871F0E4FD6F
:103B40002E48FCF7D7FB03469CB22C48FCF7D2FB6F
:103B50000346224629492A4848F062FF244B1B6845
:103B600018464CF0FFFF224B1B6841F28831184683
:103B70004CF0ADFF1F4A2949204871F0C5FD1F4890
:103B8000FCF7B8FB03469CB21C48FCF7B3FB0346AA
:103B900022461A491A4848F043FF154B1B6818463D
:103BA0004CF0E0FF124B1B6841F2883118464CF094
:103BB0008EFF104A1649114871F0A6FD0F48FCF718
:103BC00099FB03469CB20D48FCF794FB0346224642
:103BD0000A490B4848F024FF054B1B6818464CF077
:103BE000C1FF07F1080207F11000002318E000BF31
:103BF00088D50024083D080880880708DCD5002403
:103C0000D064002490880708C4880708EC88070857
:103C10001889070840890708A01401246889070843
:103C2000396853F06BFC7867002300222021386844
:103C3000FEF7E2F80023002220213D48FEF7DCF8E1
:103C400006E000BF04E000BF02E000BF00E000BFEC
:103C5000384B1B6841F2883118464CF038FF364A21
:103C60003649374871F050FD3548FCF743FB0346B1
:103C70009CB23348FCF73EFB0346224630493148AC
:103C800048F0CEFE2B4B1B6818464CF06BFF07F13B
:103C90006403184655F063F807F11003184653F013
:103CA00036FD7B6F002B1FD0224B1B6841F2883101
:103CB00018464CF00CFF7B6F1F4A2349204871F0D7
:103CC00023FD1F48FCF716FB03469CB21C48FCF77B
:103CD00011FB034622461A491A4848F0A1FE154B2B
:103CE0001B6818464CF03EFF124B1B6841F28831AE
:103CF00018464CF0ECFE104A1449114871F004FDCE
:103D00000F48FCF7F7FA03469CB20D48FCF7F2FAAD
:103D1000034622460A490B4848F082FE054B1B68C1
:103D200018464CF01FFF7B6F18467C37BD4690BD90
:103D30008014012488D50024083D080890890708CC
:103D4000DCD50024D0640024887B0708A4890708F8
:103D500098B500AF1E4B1B6841F2883118464CF0F5
:103D6000B6FE1C491C4871F0CFFC1B48FCF7C2FA98
:103D700003469CB21848FCF7BDFA03462246164992
:103D8000164848F04DFE124B1B6818464CF0EAFEF0
:103D90000F4B1B6841F2883118464CF098FE1049D1
:103DA0000D4871F0B1FC0C48FCF7A4FA03469CB234
:103DB0000948FCF79FFA034622460749074848F09E
:103DC0002FFE034B1B6818464CF0CCFE00BF98BD7D
:103DD00088D50024188A0708DCD50024D064002484
:103DE0005C8A070890B585B000AF03463960FB7167
:103DF0000123FB73FB79042B57D8FB793E4A5821EA
:103E000001FB03F3134408331A783B681A70FA79FC
:103E10003B6801333849582000FB02F20A4409325A
:103E200012781A70FA793B6802333349582000FB44
:103E300002F20A440A3212781A70FA793B680333A4
:103E40002D49582000FB02F20A440B3212781A70F6
:103E5000FA793B6804332849582000FB02F20A44EF
:103E60000C3212781A70FA793B68053322495820CF
:103E700000FB02F20A440D3212781A70FA793B689C
:103E800006331D49582000FB02F20A440E32127814
:103E90001A70FA793B6807331749582000FB02F281
:103EA0000A440F3212781A7021E0144B1B6841F259
:103EB000883118464CF00BFEFB79114A1149124823
:103EC00071F022FC1048FCF715FA03469CB20E482C
:103ED000FCF710FA034622460B490C4848F0A0FDB7
:103EE000064B1B6818464CF03DFE0023FB73FB7B22
:103EF00018461437BD4690BD3412012488D50024DD
:103F0000283D0808A08A0708DCD50024D0640024D6
:103F100090B583B000AFFF23FB7100237B7140E0BD
:103F20000123BB7100233B710FE07A793B79214972
:103F3000582000FB02F20A4413441B78002B01D0E6
:103F40000023BB713B7901333B713B790F2BECD9DB
:103F5000BB79002B22D0184B1B6841F288311846E0
:103F60004CF0B5FD7B79154A1549164871F0CCFB2C
:103F70001448FCF7BFF903469CB21248FCF7BAF9A3
:103F8000034622460F49104848F04AFD0A4B1B6879
:103F900018464CF0E7FD7B79FB7105E07B79013336
:103FA0007B717B79042BBBD9FB7918460C37BD4656
:103FB00090BD00BF3412012488D50024483D080874
:103FC000F48A0708DCD50024D064002480B483B0D0
:103FD00000AF0023FB7100233B6023E0164A3B68DF
:103FE000582101FB03F3134414331B78002B16D024
:103FF000114A3B68582101FB03F3134414331B7827
:10400000012B0CD00C4A3B68582101FB03F31344ED
:1040100014331B78052B02D00123FB7105E03B68AC
:1040200001333B603B68042BD8DDFB7918460C3725
:10403000BD465DF8047B70473412012490B585B00D
:1040400000AF0346FB71FB79042B18D80123FB73E7
:104050000023BB730FE0FA79BB7B1C49582000FB9F
:1040600002F20A4413441B78002B01D00023FB7397
:10407000BB7B0133BB73BB7B0F2BECD921E0144B13
:104080001B6841F2883118464CF021FDFB79114A3A
:104090001149124871F038FB1048FCF72BF9034620
:1040A0009CB20E48FCF726F9034622460B490C4801
:1040B00048F0B6FC064B1B6818464CF053FD002335
:1040C000FB73FB7B18461437BD4690BD34120124A8
:1040D00088D50024603D0808108B0708DCD5002433
:1040E000D064002490B58BB000AF7860012387F8CE
:1040F0002730AF4B1B6841F2883118464CF0E7FC83
:104100007B68AC4AAC49AD4871F0FEFAAB48FCF7AD
:10411000F1F803469CB2A948FCF7ECF803462246A6
:10412000A649A74848F07CFCA14B1B6818464CF0F8
:1041300019FD7868FCF7DEF803462F2B25D09C4B41
:104140001B6841F2883118464CF0C1FC7868FCF7D6
:10415000D1F80346974A9B49984871F0D5FA974899
:10416000FCF7C8F803469CB29448FCF7C3F8034632
:1041700022469249924848F053FC8D4B1B681846E2
:104180004CF0F0FC002387F827300023BB6176E079
:10419000BB69052B11D0BB690B2B0ED0BB69112B52
:1041A0000BD0BB69172B08D0BB691D2B05D0BB6991
:1041B000232B02D0BB69292B2FD1BB697A6813440A
:1041C0001B780133804A13441B7803F00403002B4F
:1041D00052D0774B1B6841F2883118464CF077FC7F
:1041E000BB69744A7949754871F08EFA7348FCF7D7
:1041F00081F803469CB27148FCF77CF803462246DE
:104200006E496F4848F00CFC694B1B6818464CF02F
:10421000A9FC002387F827302EE0BB697A68134495
:104220001B780133684A13441B7803F00403002B06
:1042300022D15F4B1B6841F2883118464CF047FC95
:10424000BB695C4A62495D4871F05EFA5B48FCF705
:1042500051F803469CB25948FCF74CF803462246F5
:104260005649574848F0DCFB514B1B6818464CF048
:1042700079FC002387F82730BB690133BB61BB6938
:104280002E2B85DD7B683B620023FB7741E007F145
:104290000C0306220021184671F059FB07F10C03AC
:1042A0000522396A184672F01EFA07F10C03184607
:1042B00070F026FF03467B617B69B3F5803F22D314
:1042C0003B4B1B6841F2883118464CF000FC7B697F
:1042D000384A4049394871F017FA3848FCF70AF86B
:1042E00003469CB23548FCF705F80346224633499D
:1042F000334848F095FB2E4B1B6818464CF032FCB7
:10430000002387F827303B6A06333B62FB7F02338A
:10431000FB77FB7F0F2BBAD997F82730002B20D0E3
:10432000234B1B6841F2883118464CF0D0FB7B6868
:10433000204A2949214871F0E7F92048FBF7DAFFC4
:1043400003469CB21D48FBF7D5FF034622461B4996
:104350001B4848F065FB164B1B6818464CF002FCE6
:104360001FE0134B1B6841F2883118464CF0AFFB3D
:104370007B68104A1949114871F0C6F90F48FBF7DC
:10438000B9FF03469CB20D48FBF7B4FF0346224633
:104390000A490B4848F044FB054B1B6818464CF093
:1043A000E1FB97F8273018462C37BD4690BD00BF7B
:1043B00088D50024783D0808588B0708DCD50024F0
:1043C000D0640024708B0708A89A0808B48B0708EB
:1043D000FC8B0708408C0708748C07088C8C070836
:1043E00090B585B000AF03463960FB71FB79042BB3
:1043F00032D8FB792A4A582101FB03F313441033C6
:1044000001221A700023FB6010E0FB683A681A442E
:10441000FB791078224A582101FB03F31A44FB6808
:10442000134402461A70FB680133FB60FB680F2BD4
:10443000EBDDFB791A4A582101FB03F313441333D4
:1044400000221A70FB79164A582101FB03F313442A
:10445000143301221A701FE0124B1B6841F288319D
:1044600018464CF034FBFB790F4A1049104871F0A4
:104470004BF90F48FBF73EFF03469CB20C48FBF795
:1044800039FF034622460A490A4848F0C9FA054B53
:104490001B6818464CF066FB00BF1437BD4690BD44
:1044A0003412012488D50024943D0808C48C0708E0
:1044B000DCD50024D064002490B583B000AF03465F
:1044C0003960FB716A4B01221A706A4B01221A7023
:1044D000FB79042B22D9684B1B6841F288311846BE
:1044E0004CF0F5FAFB79654A6549664871F00CF9BC
:1044F0006448FBF7FFFE03469CB26248FBF7FAFEF6
:10450000034622465F49604848F08AFA5A4B1B68C6
:1045100018464CF027FB564B00221A703868FFF7FC
:10452000E1FD03461A46534B1A70514B1B78002B82
:1045300003D0504B1A784E4B1A70544A3B681360A4
:10454000534B00221A704B4B1B78002B5CD057E06A
:10455000062200214F4871F0FAF94C4B1B680522E6
:1045600019464C4872F0BFF84A4870F0C9FD03463E
:104570001A46494B1A60484B1B68B3F5803F23D35A
:104580003D4B1B6841F2883118464CF0A0FA424B73
:104590001B683A4A41493B4871F0B6F83948FBF785
:1045A000A9FE03469CB23748FBF7A4FE0346224609
:1045B0003449354848F034FA2F4B1B6818464CF004
:1045C000D1FA2C4B00221A70334B1B68190A304B5E
:1045D0001B781A46C9B2324B99542F4B1A682C4B90
:1045E0001B780133D1B22E4AD154284B1B680633B5
:1045F000264A1360264B1B780233DAB2244B1A701A
:10460000234B1B780F2BA3D9194B1B78002B09D0F8
:10461000184B1B78002B05D0FB7921491846FFF772
:10462000DFFE1EE0144B1B6841F2883118464CF047
:104630004EFA124A1B49134871F066F81148FBF70D
:1046400059FE03469CB20F48FBF754FE0346224630
:104650000C490D4848F0E4F9074B1B6818464CF02C
:1046600081FA034B1B7818460C37BD4690BD00BF3E
:10467000441A0124451A012488D50024A43D0808C1
:10468000048D0708DCD50024D0640024481A0124D6
:104690004C1A0124501A0124581A0124308D07089D
:1046A0005C1A01247C8D070890B585B000AF0346E5
:1046B0003960FB713C220021284871F048F9002341
:1046C000FB603AE0FB79264A582101FB03F31A44C8
:1046D000FB6813441B781B029BB2F979FA6801321C
:1046E0001F48582404FB01F101440A441278134482
:1046F0009AB21C4B1A800A2200211B4871F027F93C
:10470000184B1B881A461949174870F0FDFF1649C7
:10471000124871F024F9FB680D2B0BDC0F48FBF7F6
:10472000E9FD03461A460D4B134411491A460B4640
:104730001B881380FB680233FB60FB680F2BC1DD15
:104740000648FBF7D7FD03461A460449386871F05E
:10475000CAFF00BF1437BD4690BD00BF6C1A0124CC
:1047600034120124A81A0124AC1A0124A88D0708C8
:10477000B08D070890B583B000AF0346FB71FB799D
:10478000042B00F28780554B1B6841F28831184694
:104790004CF09DF9FB79524A5249534870F0B4FFEE
:1047A0005148FBF7A7FD03469CB24F48FBF7A2FD1B
:1047B000034622464C494D4848F032F9474B1B68A6
:1047C00018464CF0CFF9FB79494A582101FB03F315
:1047D0001344103300221A70FB79582202FB03F3B2
:1047E000434A134410220021184671F0B0F8FB79B7
:1047F0003F4A582101FB03F31344113300221A707E
:10480000FB793B4A582101FB03F313441233002286
:104810001A70FB79364A582101FB03F31344133312
:1048200001221A70FB79324A582101FB03F3134429
:10483000143300221A70FB792D4A582101FB03F32F
:10484000134416334FF6FF721A80FB79582202FB8D
:1048500003F31833264A134420220021184671F02E
:1048600076F8FB79582202FB03F33833204A1344CD
:1048700010220021184671F06AF8FB79582202FBD9
:1048800003F348331A4A134410220021184671F0EA
:104890005EF81FE0114B1B6841F2883118464CF05E
:1048A00016F9FB790E4A13490F4870F02DFF0E4898
:1048B000FBF720FD03469CB20B48FBF71BFD0346AC
:1048C00022460949094848F0ABF8044B1B681846D2
:1048D0004CF048F900BF0C37BD4690BD88D5002488
:1048E000C03D0808B48D0708DCD50024D06400243E
:1048F00034120124CC8D070890B587B002AF03466F
:104900003960FB711346BB71594B9B781F2B00F22A
:104910008880574B9B781D2B24D9564B1B6841F23E
:10492000883118464CF0D3F8514B9B781A46202317
:1049300000931346504A5149514870F0E5FE5048E3
:10494000FBF7D8FC03469CB24D48FBF7D3FC03466B
:1049500022464B494B4848F063F8464B1B681846C3
:104960004CF000F9434B1B6841F2883118464CF07B
:10497000AEF8FB79404A4449414870F0C5FE4048D2
:10498000FBF7B8FC03469CB23D48FBF7B3FC03467B
:1049900022463B493B4848F043F8364B1B681846D3
:1049A0004CF0E0F8324B9B780133DAB2304B9A701E
:1049B0002F4B5B7819462E4AAA2301FB03F31344BD
:1049C0000333FA791A70BB79A82B01D9A823BB71DC
:1049D000274B5B781946264AAA2301FB03F31344AD
:1049E0000433BA791A70224B5B781A46AA2302FB69
:1049F00003F31F4A13440533BA793968184671F036
:104A000072FE1B4B5B780133DAB2194B5A70184BAC
:104A10005B781F2B02D9164B00225A700123FB73BF
:104A200021E0144B1B6841F2883118464CF04FF8D6
:104A3000FB79114A1549124870F066FE1048FBF7E1
:104A400059FC03469CB20E48FBF754FC0346224631
:104A50000B490C4847F0E4FF064B1B6818464CF026
:104A600081F80023FB73FB7B18461437BD4690BDCD
:104A700014EE002488D50024D43D0808108E0708C1
:104A8000DCD50024D0640024648E0708908E0708CB
:104A900090B587B002AF03463960FB711346BB7116
:104AA000594B9B78072B00F28880574B9B78052B3E
:104AB00024D9564B1B6841F2883118464CF007F850
:104AC000514B9B781A46082300931346504A51498C
:104AD000514870F019FE5048FBF70CFC03469CB29D
:104AE0004D48FBF707FC034622464B494B4847F02D
:104AF00097FF464B1B6818464CF034F8434B1B6835
:104B000041F2883118464BF0E2FFFB79404A4449B4
:104B1000414870F0F9FD4048FBF7ECFB03469CB2BE
:104B20003D48FBF7E7FB034622463B493B4847F03D
:104B300077FF364B1B6818464CF014F8324B9B78C5
:104B40000133DAB2304B9A702F4B5B7819462E4AFC
:104B5000AA2301FB03F313440333FA791A70BB79D8
:104B6000A82B01D9A823BB71274B5B781946264A8D
:104B7000AA2301FB03F313440433BA791A70224BBE
:104B80005B781A46AA2302FB03F31F4A134405333A
:104B9000BA793968184671F0A6FD1B4B5B78013372
:104BA000DAB2194B5A70184B5B78072B02D9164BA7
:104BB00000225A700123FB7321E0144B1B6841F261
:104BC000883118464BF083FFFB79114A154912488A
:104BD00070F09AFD1048FBF78DFB03469CB20E481F
:104BE000FBF788FB034622460B490C4847F018FFA9
:104BF000064B1B6818464BF0B5FF0023FB73FB7B8D
:104C000018461437BD4690BD5803012488D50024AA
:104C1000EC3D0808D88E0708DCD50024D0640024B9
:104C20002C8F0708588F070890B585B000AF034652
:104C30000A46FB711346BB71974B1B6841F28831E2
:104C400018464BF044FFFB79944A9549954870F01B
:104C50005BFD9448FBF74EFB03469CB29148FBF783
:104C600049FB034622468F498F4847F0D9FE8A4BBD
:104C70001B6818464BF076FF8C4B00221A728B4B48
:104C80000022DA60894B002283F8C820884B00227A
:104C90001A70884B18221A70BB79002B1BD0864BD8
:104CA0000133854A52781946FF200FF053FD034621
:104CB000FB73FA79FB7B9A4201D1012200E00322C7
:104CC0007B4B1A70FA79FB7B9A4201D1062200E0F5
:104CD0001522784B1A70704B1B6841F288311846C8
:104CE0004BF0F5FE75496F4870F00EFD6D48FBF70F
:104CF00001FB03469CB26B48FBF7FCFA03462246D5
:104D00006849694847F08CFE634B1B6818464BF0B6
:104D100029FF664BDB7C1946002300226648FDF71D
:104D20006BF85D4B1B6841F2883118464BF0CFFEA3
:104D300063495C4870F0E8FC5A48FBF7DBFA03462D
:104D40009CB25848FBF7D6FA0346224655495648C6
:104D500047F066FE504B1B6818464BF003FF534B61
:104D600000221A74012301225249564847F058FE86
:104D7000504B1B78182B46D0182B64DC062B02D026
:104D8000152B20D05FE0444B1B6841F28831184658
:104D90004BF09DFE414A4C49424870F0B5FC4148F9
:104DA000FBF7A8FA03469CB23E48FBF7A3FA03467A
:104DB00022463C493C4847F033FE374B1B681846B7
:104DC0004BF0D0FE61E0344B1B6841F2883118464D
:104DD0004BF07DFE314A3D49324870F095FC314838
:104DE000FBF788FA03469CB22E48FBF783FA03468A
:104DF00022462C492C4847F013FE274B1B681846C7
:104E00004BF0B0FE41E0244B1B6841F2883118465C
:104E10004BF05DFE214A2E49224870F075FC214876
:104E2000FBF768FA03469CB21E48FBF763FA034699
:104E300022461C491C4847F0F3FD174B1B681846D7
:104E40004BF090FE21E0144B1B6841F2883118466C
:104E50004BF03DFE174B1B78104A1E49114870F06D
:104E600053FC1048FBF746FA03469CB20D48FBF78B
:104E700041FA034622460B490B4847F0D1FD064B49
:104E80001B6818464BF06EFE00BF094B1B78184696
:104E90001437BD4690BD00BF88D50024103E0808D9
:104EA0009C8F0708DCD50024D0640024AC080124C2
:104EB000B61A0124B71A0124C0080124BC8F0708C0
:104EC0001C900708646500247C900708B8900708C8
:104ED000089107088091070880B483B000AF0346AB
:104EE000FB71144BDB7C1A46124B1344FA791A758A
:104EF000104BDB7C0133DAB20E4BDA740E4B5B786D
:104F0000032B0AD90C4B5B78033BDAB2094B83F8CD
:104F1000C920084B04221A7406E0064B012283F8CC
:104F2000C920044B05221A7400BF0C37BD465DF83A
:104F3000047B7047AC080124C008012480B483B00E
:104F400000AF0346FB71144B93F8C930013BDAB252
:104F5000114B83F8C920104BDB7C1A460E4B1344CF
:104F6000FA791A750C4BDB7C0133DAB20A4BDA742E
:104F7000094BDB7CB32B05D8074BDA7C074B5B78FE
:104F80009A4202D9044B05221A7400BF0C37BD4661
:104F90005DF8047B704700BFAC080124C008012401
:104FA00098B500AF194B1B6841F2883118464BF099
:104FB0008EFD174A1749184870F0A6FB1648FBF7F4
:104FC00099F903469CB21448FBF794F9034622462C
:104FD0001149124847F024FD0C4B1B6818464BF052
:104FE000C1FD0F4B00221A740D4B002283F8C8201C
:104FF0000B4B00221A700A4B00221A72084B002237
:105000005A60074B0022DA6000BF98BD88D50024A3
:10501000283E0808C8910708DCD50024D064002485
:10502000AC08012490B583B000AF0346FB71FB7957
:10503000022B02D9FB79B42B2DD9214B1B6841F2ED
:10504000883118464BF043FDFB791E4A1E491F4824
:1050500070F05AFB1D48FBF74DF903469CB21B4804
:10506000FBF748F9034622461849194847F0D8FC8F
:10507000134B1B6818464BF075FD164B00221A7433
:10508000144B002283F8C820124B00221A72114BD5
:105090000022DA6010E00F4B02221A740D4BDB7C09
:1050A0001A460C4B1344FA791A750A4BDB7C013310
:1050B000DAB2084BDA7400BF00BF0C37BD4690BDB2
:1050C00088D50024403E0808E4910708DCD5002478
:1050D000D0640024AC08012490B585B002AF03462B
:1050E000FB719F4B00221A70FB79012B39D19D4B2C
:1050F0001B6841F2883118464BF0E9FC9A4A9B49FB
:105100009B4870F001FB9A48FBF7F4F803469CB209
:105110009748FBF7EFF8034622469549954847F034
:105120007FFC904B1B6818464BF01CFD924B0122F4
:105130001A74914B0022DA748F4B012283F8C82035
:105140008D4BDB7C1A468C4B1344FA791A758A4BCB
:10515000DB7C0133DAB2884BDA74874B00221A7297
:10516000F9E1854B9B7C002B00F03781FB79062B06
:1051700002D0FB79152B0ED17F4B00229A747E4B07
:1051800000221A707C4B00221A727B4B00225A605C
:10519000794B0022DA60FB79062B22D1714B1B6818
:1051A00041F2883118464BF092FC6F4A73497048BF
:1051B00070F0AAFA6E48FBF79DF803469CB26C4863
:1051C000FBF798F80346224669496A4847F028FCED
:1051D000644B1B6818464BF0C5FC614B02221A70E9
:1051E000B9E1FB79152B22D15E4B1B6841F2883166
:1051F00018464BF06CFC5C4A61495D4870F084FADB
:105200005B48FBF777F803469CB25948FBF772F806
:10521000034622465649574847F002FC514B1B684B
:1052200018464BF09FFC4E4B05221A7093E1FB7918
:105230000133544A13441B7803F09703002B23D007
:10524000484B1B6841F2883118464BF040FCFA7914
:10525000FB7900931346444A4B49454870F054FA91
:105260004348FBF747F803469CB24148FBF742F836
:10527000034622463E493F4847F0D2FB394B1B6864
:1052800018464BF06FFC66E1FB79182B47D0182BC2
:1052900000F38280062B02D0152B20D07CE0314B0E
:1052A0001B6841F2883118464BF011FC2E4A3749F1
:1052B0002F4870F029FA2E48FBF71CF803469CB2E1
:1052C0002B48FBF717F8034622462949294847F09F
:1052D000A7FB244B1B6818464BF044FC3BE1214BD9
:1052E0001B6841F2883118464BF0F1FB1E4A2849F1
:1052F0001F4870F009FA1E48FAF7FCFF03469CB2FB
:105300001B48FAF7F7FF034622461949194847F0A8
:1053100087FB144B1B6818464BF024FC1BE1114B18
:105320001B6841F2883118464BF0D1FB0E4A1949EF
:105330000F4870F0E9F90E48FAF7DCFF03469CB21B
:105340000B48FAF7D7FF034622460949094847F0B8
:1053500067FB044B1B6818464BF004FCFBE000BFE6
:10536000B81A012488D50024543E0808189207086A
:10537000DCD50024D0640024AC0801243092070856
:1053800048920708A89A08086092070890920708B0
:10539000B4920708D8920708724B1B6841F2883113
:1053A00018464BF094FBFB796F4A7049704870F0D7
:1053B000ABF96F48FAF79EFF03469CB26C48FAF7C8
:1053C00099FF034622466A496A4847F029FB654B24
:1053D0001B6818464BF0C6FBBDE0FB790133664AFB
:1053E00013441B7803F09703002B23D05D4B1B68FD
:1053F00041F2883118464BF06AFBFA79FB79009349
:105400001346594A5D495A4870F07EF95848FAF7F0
:1054100071FF03469CB25648FAF76CFF03462246DA
:105420005349544847F0FCFA4E4B1B6818464BF062
:1054300099FB8AE0FB79182B46D0182B64DC062BED
:1054400002D0152B20D05FE0464B1B6841F288311B
:1054500018464BF03CFB444A4949454870F054F922
:105460004348FAF747FF03469CB24148FAF742FF28
:10547000034622463E493F4847F0D2FA394B1B6863
:1054800018464BF06FFB60E0364B1B6841F28831E9
:1054900018464BF01CFB344A3A49354870F034F951
:1054A0003348FAF727FF03469CB23148FAF722FF48
:1054B000034622462E492F4847F0B2FA294B1B6873
:1054C00018464BF04FFB40E0264B1B6841F28831F9
:1054D00018464BF0FCFA244A2B49254870F014F981
:1054E0002348FAF707FF03469CB22148FAF702FF68
:1054F000034622461E491F4847F092FA194B1B6883
:1055000018464BF02FFB20E0164B1B6841F2883108
:1055100018464BF0DCFAFB79134A1449144870F032
:10552000F3F81348FAF7E6FE03469CB21048FAF780
:10553000E1FE034622460E490E4847F071FA094B38
:105540001B6818464BF00EFB00BF104B00221A7070
:105550000E4B00225A600E4B1B7818460C37BD4686
:1055600090BD00BF88D50024543E0808FC9207086F
:10557000DCD50024D0640024A89A080860920708AB
:1055800090920708B4920708D8920708AC08012443
:10559000B81A012490B583B000AF0346FB71FB79C4
:1055A000012B4CD9514B1B6841F2883118464BF006
:1055B0008EFAFB794E4A4F494F4870F0A5F84E4895
:1055C000FAF798FE03469CB24B48FAF793FE03465F
:1055D00022464949494847F023FA444B1B6818467C
:1055E0004BF0C0FA414B1B6841F2883118464BF032
:1055F0006EFA3F4A4249404870F086F83E48FAF752
:1056000079FE03469CB23C48FAF774FE03462246F4
:1056100039493A4847F004FA344B1B6818464BF0B6
:10562000A1FA384B00221A74364B002283F8C820A6
:10563000344B00221A72334B0022DA6051E0FB79BE
:10564000002B1FD1294B1B6841F2883118464BF0C3
:105650003EFA274A2C49284870F056F82648FAF7AF
:1056600049FE03469CB22448FAF744FE034622460C
:105670002149224847F0D4F91C4B1B6818464BF0CF
:1056800071FA1EE0194B1B6841F2883118464BF045
:105690001EFA174A1D49184870F036F81648FAF7EE
:1056A00029FE03469CB21448FAF724FE034622461C
:1056B0001149124847F0B4F90C4B1B6818464BF0DF
:1056C00051FA104B03221A740E4BDB7C1A460D4B19
:1056D0001344FA791A750B4BDB7C0133DAB2094BB0
:1056E000DA7400BF0C37BD4690BD00BF88D50024DA
:1056F000683E080828930708DCD50024D0640024FD
:1057000084930708AC080124AC930708CC930708DE
:1057100090B583B000AF0346FB71FB79013B032BCF
:1057200000F28C8001A252F823F000BF3D57000820
:10573000FD570008BD5700087D570008524B1B68F5
:1057400041F2883118464BF0C2F9504A504951484D
:105750006FF0DAFF4F48FAF7CDFD03469CB24D4893
:10576000FAF7C8FD034622464A494B4847F058F924
:10577000454B1B6818464BF0F5F980E0424B1B681F
:1057800041F2883118464BF0A2F9404A434941485A
:105790006FF0BAFF3F48FAF7ADFD03469CB23D48B3
:1057A000FAF7A8FD034622463A493B4847F038F944
:1057B000354B1B6818464BF0D5F960E0324B1B683F
:1057C00041F2883118464BF082F9304A3449314869
:1057D0006FF09AFF2F48FAF78DFD03469CB22D48D3
:1057E000FAF788FD034622462A492B4847F018F964
:1057F000254B1B6818464BF0B5F940E0224B1B685F
:1058000041F2883118464BF062F9204A2549214877
:105810006FF07AFF1F48FAF76DFD03469CB21D48F2
:10582000FAF768FD034622461A491B4847F0F8F884
:10583000154B1B6818464BF095F920E0124B1B687E
:1058400041F2883118464BF042F9FB790F4A16496C
:1058500010486FF059FF0F48FAF74CFD03469CB211
:105860000C48FAF747FD034622460A490A4847F022
:10587000D7F8054B1B6818464BF074F900BF00BF02
:105880000C37BD4690BD00BF88D500247C3E08087B
:10589000EC930708DCD50024D06400241494070896
:1058A0004C9407086C9407089494070890B583B04B
:1058B00000AF0346FB71FB79A12B00F34D81002B58
:1058C00040F3CA84013BA02B00F2C68401A252F827
:1058D00023F000BF215C0008DD5E0008615B00086A
:1058E000A15B000899610008D961000819620008ED
:1058F0001D6000089D600008596200085962000898
:10590000596200085962000859620008215D0008C8
:105910001D5F00085D5F00089D5F0008DD5F0008F7
:1059200059620008DD6000085D600008615D0008E4
:10593000596100085962000859620008596200085C
:10594000596200085962000859620008596200084B
:105950005D5E00089D5E00085962000859620008FB
:10596000596200085962000859620008596200082B
:10597000596200085962000859620008596200081B
:10598000596200085962000859620008596200080B
:10599000A15C0008615C00085962000859620008B7
:1059A00059620008596200085962000859620008EB
:1059B00059620008596200085962000859620008DB
:1059C00059620008596200085962000859620008CB
:1059D000E15B00085962000859620008596200083A
:1059E00059620008596200085962000859620008AB
:1059F000596200085962000859620008596200089B
:105A0000596200085962000859620008596200088A
:105A1000A15D000859620008596200085962000837
:105A2000596200085962000859620008596200086A
:105A3000596200085962000859620008596200085A
:105A4000596200085962000859620008596200084A
:105A5000596200085962000859620008596200083A
:105A6000596200085962000859620008596200082A
:105A7000596200085962000859620008596200081A
:105A8000596200085962000859620008596200080A
:105A900059620008596200085962000859620008FA
:105AA00059620008596200085962000859620008EA
:105AB00059620008596200085962000859620008DA
:105AC00059620008596200085962000859620008CA
:105AD00059620008596200085962000859620008BA
