:020000040800F2
:1000000000000824B1BF010865BC01086DBC0108EF
:1000100075BC01087DBC010885BC0108000000001A
:10002000000000000000000000000000016505085D
:100030008DBC0108000000005167050871550508D6
:1000400005C0010805C0010805C0010805C0010878
:1000500005C0010805C0010805C0010805C0010868
:100060009BBC010805C0010805C0010805C00108C6
:1000700005C0010805C0010805C0010805C0010848
:1000800005C0010805C0010805C0010805C0010838
:1000900005C0010805C0010805C0010805C0010828
:1000A00005C0010805C0010805C0010805C0010818
:1000B00005C0010805C0010805C0010805C0010808
:1000C00005C0010805C0010805C0010805C00108F8
:1000D00005C00108A9BC0108BDBC010805C0010894
:1000E00005C0010805C001080000000005C00108A6
:1000F00005C0010805C0010805C0010805C00108C8
:1001000005C0010805C0010805C0010805C00108B7
:1001100005C0010805C00108D1BC010805C00108DF
:1001200005C0010805C0010805C0010805C0010897
:1001300005C0010805C0010805C0010805C0010887
:1001400005C0010805C00108000000000000000013
:1001500005C0010805C0010805C0010805C0010867
:1001600005C0010805C0010805C0010805C0010857
:1001700005C0010805C0010805C001080000000015
:1001800005C0010805C0010805C0010805C0010837
:1001900005C0010805C0010805C0010805C0010827
:1001A000E5BC010805C00108F9BC010805C001084B
:1001B0000DBD010805C0010805C0010805C0010802
:1001C00005C0010805C0010805C0010805C00108F7
:1001D00005C0010805C0010805C0010805C00108E7
:1001E00005C0010805C0010805C0010805C00108D7
:1001F00005C0010805C0010805C0010805C00108C7
:1002000005C0010805C0010805C0010805C00108B6
:1002100005C0010805C0010805C0010805C00108A6
:1002200005C0010821BD010835BD0108000000001E
:1002300005C0010805C0010805C0010805C0010886
:1002400005C0010805C0010805C0010805C0010876
:1002500005C0010805C0010805C0010805C0010866
:1002600005C0010805C0010805C0010805C0010856
:1002700005C0010805C0010805C0010805C0010846
:1002800005C0010805C0010805C001080000000004
:0802900005C0010805C00108CA
:1002A00010B5054C237833B9044B13B10448AFF3B0
:1002B00000800123237010BD005F002400000000B7
:1002C000DCCC070808B5034B1BB103490348AFF367
:1002D000008008BD00000000045F0024DCCC07089B
:1002E00010F8012B11F8013B012A28BF9A42F7D0E0
:1002F000D01A7047034613F8012B002AFBD1181AB5
:1003000001387047000000000000000000000000FD
:1003100001F0FF01102A2BDB10F0070F08D010F8B6
:10032000013B013A8B422DD010F0070F42B3F6D1BA
:10033000F0B441EA012141EA014122F007047FF0D3
:1003400000070023F0E80256083C85EA010586EA2A
:10035000010685FA47F5A3FA87F586FA47F6A5FA66
:1003600087F68EB9EED1F0BC01F0FF0102F0070272
:1003700032B110F8013B013A83EA010313B1F8D11D
:100380000020704701387047002D06BF35460338FE
:10039000073815F0010F07D1013015F4807F02BF37
:1003A000013015F4C03F0130F0BC0138704700BF88
:1003B00081F0004102E000BF83F0004330B54FEA16
:1003C00041044FEA430594EA050F08BF90EA020F83
:1003D0001FBF54EA000C55EA020C7FEA645C7FEA16
:1003E000655C00F0E2804FEA5454D4EB5555B8BF39
:1003F0006D420CDD2C4480EA020281EA030382EAAA
:10040000000083EA010180EA020281EA0303362D3B
:1004100088BF30BD11F0004F4FEA01314FF4801C0E
:100420004CEA113102D0404261EB410113F0004F20
:100430004FEA03334CEA133302D0524263EB4303D7
:1004400094EA050F00F0A780A4F10104D5F1200E75
:100450000DDB02FA0EFC22FA05F2801841F10001D0
:1004600003FA0EF2801843FA05F359410EE0A5F1A4
:1004700020050EF1200E012A03FA0EFC28BF4CF0D5
:10048000020C43FA05F3C01851EBE37101F000458B
:1004900007D54FF0000EDCF1000C7EEB00006EEB98
:1004A0000101B1F5801F1BD3B1F5001F0CD3490822
:1004B0005FEA30004FEA3C0C04F101044FEA445279
:1004C00012F5800F80F09A80BCF1004F08BF5FEA00
:1004D000500C50F1000041EB045141EA050130BDE0
:1004E0005FEA4C0C404141EB0101013C28BFB1F5F2
:1004F000801FE9D291F0000F04BF01460020B1FA3D
:1005000081F308BF2033A3F10B03B3F120020CDA0F
:100510000C3208DD02F1140CC2F10C0201FA0CF0ED
:1005200021FA02F10CE002F11402D8BFC2F1200C52
:1005300001FA02F120FA0CFCDCBF41EA0C01904008
:10054000E41AA2BF01EB0451294330BD6FEA040451
:100550001F3C1CDA0C340EDC04F11404C4F120023C
:1005600020FA04F001FA02F340EA030021FA04F34E
:1005700045EA030130BDC4F10C04C4F1200220FAA5
:1005800002F001FA04F340EA0300294630BD21FAE3
:1005900004F0294630BD94F0000F83F4801306BFA9
:1005A00081F480110134013D4EE77FEA645C18BF9D
:1005B0007FEA655C29D094EA050F08BF90EA020F34
:1005C00005D054EA000C04BF1946104630BD91EA2C
:1005D000030F1EBF0021002030BD5FEA545C05D12F
:1005E0004000494128BF41F0004130BD14F580046E
:1005F0003CBF01F5801130BD01F0004545F0FE41E2
:1006000041F470014FF0000030BD7FEA645C1ABF16
:10061000194610467FEA655C1CBF0B46024650EA4D
:10062000013406BF52EA033591EA030F41F4002179
:1006300030BD00BF90F0000F04BF0021704730B5FF
:100640004FF4806404F132044FF000054FF00001D4
:1006500050E700BF90F0000F04BF0021704730B595
:100660004FF4806404F1320410F0004548BF40426A
:100670004FF000013EE700BF42004FEAE2014FEABF
:1006800031014FEA02701FBF12F07F4393F07F4F9A
:1006900081F06051704732F07F4208BF704793F09D
:1006A0007F4F04BF41F40021704730B54FF46074B0
:1006B00001F0004521F000411CE700BF50EA0102B3
:1006C00008BF704730B54FF000050AE050EA01025C
:1006D00008BF704730B511F0004502D5404261EBCC
:1006E00041014FF4806404F132045FEA915C3FF40D
:1006F000D8AE4FF003025FEADC0C18BF03325FEAAA
:10070000DC0C18BF033202EBDC02C2F1200300FA5A
:1007100003FC20FA02F001FA03FE40EA0E0021FA7F
:1007200002F11444BDE600BF7BB972B90029BEBF17
:1007300000204FF0004106E008BF00281CBF6FF00A
:1007400000414FF0FF3000F0D3B9ADF1080C6DE976
:1007500004CE002909DB002B1ADB00F04DF8DDF890
:1007600004E0DDE9022304B07047404261EB41013F
:10077000002B1BDB00F040F8DDF804E0DDE902238C
:1007800004B0404261EB4101524263EB43037047C6
:10079000524263EB430300F02FF8DDF804E0DDE99B
:1007A000022304B0404261EB41017047524263EBC7
:1007B000430300F021F8DDF804E0DDE9022304B092
:1007C000524263EB4303704753B94AB9002908BF4B
:1007D00000281CBF4FF0FF314FF0FF3000F088B908
:1007E000ADF1080C6DE904CE00F006F8DDF804E088
:1007F000DDE9022304B070472DE9F047089D0F465C
:1008000004468C46002B48D18A42164661D9B2FA7A
:1008100082F34BB1C3F1200201FA03FC20FA02F289
:100820009E4042EA0C0C9C404FEA164EB7B2BCFB0D
:10083000FEF1220C0EFB11CC42EA0C4201FB07F048
:10084000904209D9B21801F1FF3C80F0EE8090424D
:1008500040F2EB8002393244121AA4B2B2FBFEF02D
:100860000EFB102244EA024400FB07F7A74209D915
:10087000341900F1FF3280F0DA80A74240F2D780CD
:100880003444023840EA0140E41B00211DB1DC4041
:100890000023C5E90043BDE8F0878B4206D90DB1BE
:1008A000C5E9000100210846BDE8F087B3FA83F1ED
:1008B000002948D1BB4202D3824200F20781841A48
:1008C00067EB030201209446002DE4D0C5E9004CFB
:1008D000E1E7002A00F09280B2FA82F3002B40F0A8
:1008E000A8808A1A4FEA164E1FFA86FC0121200CB6
:1008F000B2FBFEF70EFB172240EA02420CFB07F0A8
:10090000904207D9B21807F1FF3802D2904200F2A4
:10091000E2804746121AA4B2B2FBFEF00EFB102290
:1009200044EA02440CFB00FCA44507D9341900F149
:10093000FF3202D2A44500F2CB801046A4EB0C0497
:1009400040EA0740A2E7C1F120068B4022FA06FCEC
:100950004CEA030C07FA01F420FA06F3F7404FEAD9
:100960001C49234300FA01F81FFA8CFEB7FBF9F08B
:100970001C0C09FB107744EA074400FB0EF7A74262
:1009800002FA01F20AD91CEB040400F1FF3A80F0EC
:100990009B80A74240F2988002386444E41B9FB2D7
:1009A000B4FBF9F309FB134447EA044403FB0EFECE
:1009B000A64509D91CEB040403F1FF3780F08280BF
:1009C000A6457FD9023B644443EA0040A4EB0E04F1
:1009D000A0FB02E7BC427346B94663D360D05DB169
:1009E000B8EB030264EB090404FA06F622FA01F3F9
:1009F0001E43CC40C5E9006400214CE7620848086A
:100A000042EAC1710B0C43EA00438AB242EA034254
:100A1000B3FBF6F1E407B4463746B6461F23B0FBF6
:100A2000F6F0D21B41EA004161E7614614E7104647
:100A300028E7C3F1200120FA01F29E4027FA01F1D4
:100A40009F403A434FEA164E1FFA86FCB1FBFEF771
:100A50000EFB1710110C41EA004107FB0CF888450A
:100A600004FA03F43AD9711807F1FF3001D288452E
:100A70001FD8A1EB0801B1FBFEF808FB0CF70EFB39
:100A8000181192B242EA0142BA422FD2B21808F1CA
:100A9000FF31C6D2BA42C4D2A8F102013244C0E743
:100AA000F0459CD2BEEB020367EB0C070138B94658
:100AB00095E7A6EB08084144B81EB1FBFEF808FB19
:100AC0000CF7DCE73B467FE7504667E70846FBE666
:100AD0003444023832E7023F32441BE7A1EB0801FD
:100AE0003846B1FBFEF808FB0CF7C8E7414698E72B
:100AF000704700BF80B400AFBFF34F8F00BF064BFD
:100B0000DB6803F4E0620449044B1343CB60BFF39A
:100B10004F8F00BF00BFFDE700ED00E00400FA05C5
:100B200080B584B000AF1AF05BF8774B5B6903F4D3
:100B30000033002B1BD1BFF34F8F00BFBFF36F8F6C
:100B400000BF714B0022C3F85022BFF34F8F00BF8C
:100B5000BFF36F8F00BF6C4B5B696B4A43F400338C
:100B60005361BFF34F8F00BFBFF36F8F00E000BF33
:100B7000654B5B6903F48033002B38D1624B002254
:100B8000C3F88420BFF34F8F00BF5F4BD3F8803092
:100B9000FB60FB685B0BC3F30E03BB60FB68DB0809
:100BA000C3F309037B60BB685A0143F6E07313404B
:100BB0007A68920754491343C1F860327B685A1E21
:100BC0007A60002BEFD1BB685A1EBA60002BE5D1CA
:100BD000BFF34F8F00BF4C4B5B694B4A43F48033EC
:100BE0005361BFF34F8F00BFBFF36F8F00E000BFB3
:100BF00041F0B2FF00F0C8F800F044FC00F0CCFB7C
:100C000000F0EAFB00F0E8F900F052F900F072F9A8
:100C100000F0CEF900F064FA00F08AF900F024FB4D
:100C200000F0A2FA1BF05AF900F0FAFA00F068FBA3
:100C300000F084FA1BF0EEF91BF0E5F954F0B2FC79
:100C4000324854F0A6FD0346314A1360314A02216E
:100C5000402054F0CBFF03462F4A13602F4A022155
:100C6000402054F0C3FF03462D4A13602D4A012152
:100C70004FF4006054F0BAFF03462B4A13602B4A2E
:100C800001214FF4807054F0B1FF0346284A1360ED
:100C9000284A0021284854F0CFFC0346274A136015
:100CA000274A0021274854F0C7FC0346264A136010
:100CB000264A0021264854F0BFFC0346254A13600B
:100CC000254A0021254854F0B7FC0346244A136006
:100CD000244A0021244854F0AFFC0346234A136001
:100CE000234A0021234854F0A7FC0346224A1360FC
:100CF000224A0021224854F09FFC0346214A1360F7
:100D000054F074FC00BFFDE700ED00E000A508080A
:100D100088D50024A0A4080838CA0024B8A408086C
:100D20000CCB0024D0A40808E0CB0024E8A40808D9
:100D300034D40024A4A30808DD8A01082C6600240A
:100D4000C8A3080825C00108D8760024ECA3080829
:100D500031960108DC76002410A408089596010855
:100D60008887002434A408081197010834980024C7
:100D700058A4080875970108E0A800247CA4080876
:100D8000D99701088CB9002480B59CB000AF07F159
:100D900024034C220021184679F03BFF3B1D202202
:100DA0000021184679F035FF042049F0C1F90023ED
:100DB0003B603C4BDB6A3B4A23F00103D362394B77
:100DC000DB6A03F001033B60374B9B69364A43F40F
:100DD00040439361344B9B6903F440433B603B6861
:100DE00000BF314B9B6903F40053B3F5005FF8D1AA
:100DF00049F08EF941F030FF2C4B1B6F2B4A23F04A
:100E00001803136727237B624FF48033BB620123EF
:100E1000FB6201233B6340237B630123FB630223CB
:100E2000BB640223FB6405233B65A0237B6502238F
:100E3000BB650423FB6502233B6608237B66002316
:100E4000BB660023FB6607F1240318464AF054FCF6
:100E50000346002B01D019F00DFF3F237B600323D5
:100E6000BB600023FB6008233B6140237B61402380
:100E7000BB614FF48063FB6140233B623B1D022159
:100E800018464BF0E9F90346002B01D019F0F2FEA9
:100E90004FF48022002100204BF04EFD00BF703740
:100EA000BD4680BD00040058004802580044025866
:100EB00080B500AF0D4B0E4A1A600C4B00221A7120
:100EC0000A4B00225A71094B00225A61074B00223B
:100ED0009A61064B01221A62044842F0C3F90346A4
:100EE000002B01D019F0C6FE00BF80BD1C5F00249E
:100EF000004C025880B500AF0B4B0C4A1A600A4BED
:100F00004FF440325A60084B02229A60064B00228E
:100F1000DA60054843F062F80346002B01D019F06F
:100F2000A9FE00BF80BD00BF405F0024001000523A
:100F300080B500AF1B4B1C4A1A601A4B1B4A5A6003
:100F4000184B00229A60174B0122DA60154B0022E1
:100F50001A61144B00225A61124B00229A61114B04
:100F60000022DA610F4B00221A620E4843F0A8FEFD
:100F70000346002B01D019F07DFE0021094844F002
:100F800023FD0346002B01D019F074FE0021054813
:100F900044F090FD0346002B01D019F06BFE00BF1A
:100FA00080BD00BFA85F0024001C0058B63490002C
:100FB00080B500AF064B074A1A60054844F0EEFDC5
:100FC0000346002B01D019F055FE00BF80BD00BFC5
:100FD000FC5F00240030005280B58EB000AF19F0E5
:100FE00085FE3B1D34220021184679F012FE3A4B53
:100FF0003A4A1A60384B00225A60374B00229A60F6
:10100000354B0022DA60344B00221A61324B282221
:101010005A61314B09229A612F4B3522DA612E4BEE
:101020000B221A622C4B40F215225A622A4B40F2D4
:101030001B129A62284B40F23522DA62264B40F2AC
:101040001D121A63244B002283F83420224B002205
:1010500083F83520204B002283F836201E4846F0C6
:10106000F5FD0346002B01D019F004FE00237B6040
:101070004FF4F073BB600023FB604FF488733B6157
:1010800002237B61FF23BB610023FB614FF480637C
:101090003B6205237B624FF05043BB624FF4F07319
:1010A000FB624FF488733B63002387F834300023DE
:1010B00087F83530002387F836303B1D002219466B
:1010C000054846F0A1FF0346002B01D019F0D2FDE0
:1010D00000BF3837BD4680BD2C6100240010005091
:1010E00080B500AF124B134A1A60114B01225A60AF
:1010F0000F4B01229A600E4B1022DA600C4B1A2221
:101100001A610B4B4FF400725A61094B00229A612D
:10111000074B40221A62064849F086F80346002B26
:1011200001D019F0A7FD044819F054FE00BF80BD9E
:10113000D46100240050005275AC010880B500AFA6
:10114000074B084A1A60064B00225A6004484EF0CA
:10115000FFFF0346002B01D019F08CFD00BF80BDBE
:10116000206200240018024880B586B000AF3B1D05
:1011700000221A605A609A60DA601A6100233B60AC
:10118000254B264A1A60244B00225A60224B7F22AC
:101190009A60214BFF22DA601F4B00221A611E4B1E
:1011A00000229A611C4B0022DA611B4B00225A611B
:1011B00019484FF0D1F80346002B01D019F05AFD21
:1011C00000233B7100237B710023BB7100233B6133
:1011D00000237B613B1D012219460F484FF0AAF9FD
:1011E0000346002B01D019F045FD01233B7001237C
:1011F0007B700123BB700023FB703B460122194624
:1012000005484FF04DFB0346002B01D019F032FD8D
:1012100000BF1837BD4680BD34620024004000582E
:1012200080B500AF0E4B0F4A1A600D4B00225A607A
:101230000B4B00229A600A4B4FF40042DA60084BD5
:1012400000221A61064B00225A61054847F0C8FF88
:101250000346002B01D019F00DFD00BF80BD00BF7B
:10126000586200240070005280B500AF224B234A20
:101270001A60214B4FF4E1325A601F4B00229A60F2
:101280001D4B0022DA601C4B00221A611A4B0C2203
:101290005A61194B00229A61174B0022DA61164BF2
:1012A00000221A62144B00225A62134B00229A62E7
:1012B000114850F0CFF90346002B01D019F0DAFCA9
:1012C00000210D4852F0B2FF0346002B01D019F067
:1012D000D1FC0021084853F043F80346002B01D00D
:1012E00019F0C8FC044852F027FF0346002B01D038
:1012F00019F0C0FC00BF80BDD06400240010014084
:1013000080B500AF224B234A1A60214B4FF4E132E3
:101310005A601F4B00229A601D4B0022DA601C4B62
:1013200000221A611A4B0C225A61194B00229A6151
:10133000174B0022DA61164B00221A62144B00226E
:101340005A62134B00229A62114850F083F9034607
:10135000002B01D019F08EFC00210D4852F066FFE1
:101360000346002B01D019F085FC0021084852F0FB
:10137000F7FF0346002B01D019F07CFC044852F023
:10138000DBFE0346002B01D019F074FC00BF80BDCA
:10139000646500240044004080B582B000AF0D4B6E
:1013A000D3F8D4300B4A43F00103C2F8D430094BD0
:1013B000D3F8D43003F001037B607B680022052161
:1013C0007A2041F047FD7A2041F06EFD00BF0837DA
:1013D000BD4680BD0044025880B588B000AF3B1DBB
:1013E00000221A605A609A60DA601A615A619A6142
:1013F000214B224A1A60204B01225A601E4B0022C8
:101400009A601D4B0422DA601B4B10221A611A4BA2
:1014100040225A61184B4FF480729A61164B002299
:10142000DA61154B4FF400621A62134B4FF480528D
:101430005A62114B00229A6202237B600623BB6032
:101440000423FB6006233B6102237B610223BB6113
:101450000223FB613B1D194607484FF05BFC034626
:10146000002B01D019F006FC054819F0D4FC00BF90
:101470002037BD4680BD00BFF865002440410052C2
:1014800075AC010880B590B000AF07F12C030022C5
:101490001A605A609A60DA601A61A04BD3F8E030A3
:1014A0009E4A43F48063C2F8E0309C4BD3F8E030AE
:1014B00003F48063BB62BB6A984BD3F8E030974A71
:1014C00043F04003C2F8E030944BD3F8E03003F02F
:1014D00040037B627B6A914BD3F8E0308F4A43F044
:1014E0000803C2F8E0308D4BD3F8E03003F0080376
:1014F0003B623B6A894BD3F8E030884A43F00403EF
:10150000C2F8E030854BD3F8E03003F00403FB6110
:10151000FB69824BD3F8E030804A43F48073C2F811
:10152000E0307E4BD3F8E03003F48073BB61BB69DD
:101530007A4BD3F8E030794A43F01003C2F8E03038
:10154000764BD3F8E03003F010037B617B69734B7B
:10155000D3F8E030714A43F00203C2F8E0306F4B39
:10156000D3F8E03003F002033B613B696B4BD3F8E7
:10157000E0306A4A43F40073C2F8E030674BD3F8B6
:10158000E03003F40073FB60FB68644BD3F8E03099
:10159000624A43F00103C2F8E030604BD3F8E03018
:1015A00003F00103BB60BB685C4BD3F8E0305B4ADF
:1015B00043F02003C2F8E030584BD3F8E03003F09A
:1015C00020037B607B68554BD3F8E030534A43F0EF
:1015D0008003C2F8E030514BD3F8E03003F08003D1
:1015E0003B603B68002208214D4843F001FB01228B
:1015F0004FF400514B4843F0FBFA002208214A48BF
:1016000043F0F6FA00224021484843F0F1FA012263
:101610000421474843F0ECFA0823FB6201233B63B3
:1016200000237B630023BB6307F12C0319463C486E
:1016300042F0C8FE4FF48073FB6202233B63002339
:101640007B630023BB630023FB6307F12C03194674
:10165000364842F0B7FE4FF40053FB6201233B6370
:1016600000237B630023BB6307F12C0319462D483D
:1016700042F0A8FE0823FB6201233B6300237B6347
:101680000323BB6307F12C031946274842F09AFE57
:101690000423FB624FF404133B6300237B6307F1D5
:1016A0002C031946204842F08DFE4FF44063FB6244
:1016B00002233B6301237B630323BB630723FB6399
:1016C00007F12C0319461B4842F07CFE4023FB62C5
:1016D00001233B6300237B630323BB6307F12C03DC
:1016E0001946124842F06EFE0423FB6201233B635D
:1016F00000237B630023BB6307F12C0319460C48CE
:1017000042F060FE00220521082041F0A3FB0820E2
:1017100041F0CAFB00BF4037BD4680BD00440258BF
:10172000000C02580020025800180258000002580D
:10173000002402580004025890B587B002AFF86048
:10174000B9607A606FF0010200212C485AF0B1F8BC
:1017500003462B4A13602A4B1B68002B1DD1002324
:10176000009300231022F968244859F007FC03462F
:10177000234A1360224B1B68002B10D1102200213A
:10178000786879F046FA1023BA6879681B485AF0ED
:10179000D2F803461A4A136002E000BF00E000BF1F
:1017A00016485AF0A3F8164B1B68002B20D0154B97
:1017B0001B6841F28831184654F071F8104B1B68D1
:1017C000114A1249124879F001F91148FEF792FDC9
:1017D00003469CB20E48FEF78DFD034622460C4997
:1017E0000C4850F005F8074B1B68184654F0A2F857
:1017F000034B1B6818461437BD4690BD14190124CD
:101800004C1A012488D5002450A5080888CD070863
:10181000DCD50024D064002480B483B000AF7860AD
:101820007B681B781B029BB27A68013212781344E2
:101830009BB218460C37BD465DF8047B704780B4F8
:1018400083B000AF78607B681B781B027A68013236
:10185000127813441B027A680232127813441B0276
:101860007A6803321278134418460C37BD465DF887
:10187000047B704790B583B000AF0446084611461C
:101880001A462346FB710346BB710B467B71134618
:101890003B71FB796433114A5361BB79013B0F4AB9
:1018A00013617B790D4AD3603B790C4A93603B7E90
:1018B0000A4A53603B7F094A1360084879F0EAFA04
:1018C00002460B460649C1E90023054BD3E9002334
:1018D000134618460C37BD4690BD00BF501A012470
:1018E000781A012490B583B000AF786039607B68C6
:1018F0001133184600F056F87B68581C7B6811338A
:101900003A681946FFF718FF03461F4A13601E4B3B
:101910001B68002B0CD1202200211C4879F079F99A
:101920001A49786800F0AEF80346174A136000E0E1
:1019300000BF154B1B68002B20D0154B1B6841F2D4
:101940008831184653F0ABFF0F4B1B68114A124900
:10195000124879F03BF81148FEF7CCFC03469CB2E4
:101960000E48FEF7C7FC034622460C490C484FF0D0
:101970003FFF074B1B68184653F0DCFF024B1B6808
:1019800018460C37BD4690BD801A0124841A0124E4
:1019900088D5002468A5080888CD0708DCD5002470
:1019A000D064002480B485B000AF78600F23FB6062
:1019B0000CE0FB687A6813441A780132D2B21A70CC
:1019C0001B78002B06D1FB68013BFB60FB68002BFA
:1019D000EFDA00E000BF00BF1437BD465DF8047BBE
:1019E0007047000090B585B000AFF860B9607A60CC
:1019F00020237A68B9681C4800F03CFE1A49F86850
:101A000000F040F80346194A1360FB6801221A707F
:101A1000164B1B68002B20D0154B1B6841F28831F8
:101A2000184653F03CFF114B1B68124A12491348E9
:101A300078F0CCFF1148FEF75DFC03469CB20F48DE
:101A4000FEF758FC034622460C490D484FF0D0FEE5
:101A5000074B1B68184653F06DFF044B1B68184674
:101A60001437BD4690BD00BFA41A0124C41A012436
:101A700088D500248CA5080888CD0708DCD500246B
:101A8000D0640024B0B584B000AF786039607B6862
:101A900011331846FFF786FF7B68581C7B681133AB
:101AA000414A1946FFF748FE0346404A13603F4B40
:101AB0001B68002B49D13E4A3B4B14460FCB84E8B0
:101AC0000F007B6811331846FFF76CFF7B68581CCA
:101AD0007B681133344A1946FFF72EFE0346334A1A
:101AE0001360324B1B68002B31D1324A2E4B144607
:101AF0001D460FCD20606160A260E3600023FB60A3
:101B000011E02B4AFB6813441A78FB6839680B44D0
:101B10001B785340D9B2264AFB6813440A461A7010
:101B2000FB680133FB60FB681F2BEAD97B6801333C
:101B300010221F49184679F04EFF7B68113310229E
:101B40001C49184679F047FF02E000BF00E000BFE3
:101B5000164B1B68002B20D0174B1B6841F28831B5
:101B6000184653F09CFE114B1B68144A1449154843
:101B700078F02CFF1348FEF7BDFB03469CB21148DA
:101B8000FEF7B8FB034622460E490F484FF030FEE1
:101B9000094B1B68184653F0CDFE044B1B681846D2
:101BA0001037BD46B0BD00BFC81A0124D81A0124A1
:101BB000DC1A0124EC1A012488D50024A8A5080801
:101BC00088CD0708DCD50024D064002480B582B01D
:101BD00000AF78607B68013310220021184679F04D
:101BE00018F87B68113310220021184679F011F89B
:101BF0007B68213310220021184679F00AF87B68AF
:101C000000221A7000BF0837BD4680BD90B583B072
:101C100000AF7860544B1B68184654F019F903461E
:101C20009AB2524B1A80514B1B88002B00F09580C2
:101C30004F4B1B6841F28831184653F030FE4B4B36
:101C40001B884C4A4C494D4878F0C0FE4B48FEF783
:101C500051FB03469CB24948FEF74CFB0346224623
:101C6000464947484FF0C4FD414B1B68184653F0A6
:101C700061FE444B00221A803CE03B4B1868002375
:101C80000022414954F086F80346404A13603F4B16
:101C90001B68002B20D0364B1B6841F28831184658
:101CA00053F0FDFD394B1B68324A3949334878F00F
:101CB0008DFE3248FEF71EFB03469CB22F48FEF70E
:101CC00019FB034622462D492D484FF091FD284B24
:101CD0001B68184653F02EFE2A4B1B881A467B6859
:101CE0001344294A12781A70264B1B8801339AB282
:101CF000244B1A801C4B1B68184654F0A9F8034665
:101D0000002B05D01F4B1B8840F6FD729342B4D9BF
:101D10001C4B1A88154B1A80154B1B6841F28831F1
:101D2000184653F0BCFD114B1B88124A1949134841
:101D300078F04CFE1148FEF7DDFA03469CB20F48DE
:101D4000FEF7D8FA034622460C490D484FF050FDE5
:101D5000074B1B68184653F0EDFD044B1B881846D3
:101D60000C37BD4690BD00BF34D40024FC1A0124BA
:101D700088D50024C0A50808B4CD0708DCD5002408
:101D8000D0640024FE1A0124001B0124041B01243A
:101D9000DCCD070814CE070890B583B000AF78609B
:101DA0007B681B682F4A934216D12F4B1A782F4B12
:101DB0001A702F4B1868002300222C4953F08AFF19
:101DC00003462C4A1360012227492B484FF09EFD01
:101DD00003461A46294B1A707B681B68284A9342AF
:101DE0003BD1284B1A78284B1A70284B18680023CF
:101DF0000022254953F06EFF03461E4A13601D4B17
:101E00001B68002B20D0224B1B6841F288311846FA
:101E100053F045FD174B1B681E4A1F491F4878F0B9
:101E2000D5FD1E48FEF766FA03469CB21B48FEF736
:101E300061FA0346224619490F484FF0D9FC144B6A
:101E40001B68184653F076FD01220E4914484FF0E6
:101E50005DFD03461A46094B1A7000BF0C37BD469C
:101E600090BD00BF0010014011EE0024081B0124AA
:101E700034D400240C1B0124D0640024101B012442
:101E80000044004010EE0024111B0124E0CB00248C
:101E900088D50024DCA508083CCE0708DCD5002442
:101EA0006465002490B585B000AFF8607B600B4698
:101EB0007B8113467B72A84B1B6841F28831184620
:101EC00053F0EDFCA54B00221A80E3E07B7A002B57
:101ED0001ED0A24B1B8803F00F039BB2002B17D11F
:101EE0009E4B1B881A467B6813441A469C499D48A2
:101EF00078F06CFD9B48FEF7FDF903469CB29948CB
:101F0000FEF7F8F903462246964997484FF070FCD1
:101F1000924B1B881A46FB6813441B781A46934958
:101F2000904878F053FD8F48FEF7E4F903469CB2E1
:101F30008C48FEF7DFF9034622468A498A484FF06B
:101F400057FC8B49874878F041FD8648FEF7D2F967
:101F500003469CB28348FEF7CDF9034622468149E9
:101F600081484FF045FC7D4B1B8803F00F039BB26B
:101F7000072B11D17F497B4878F028FD7948FEF77F
:101F8000B9F903469CB27748FEF7B4F903462246F6
:101F9000744975484FF02CFC704B1B8803F00F03FD
:101FA0009BB20F2B70D173496E4878F00FFD6D48CE
:101FB000FEF7A0F903469CB26A48FEF79BF9034678
:101FC0002246684968484FF013FC644B1B880F3B5E
:101FD0009AB2694B1A803FE0674B1B881A46FB6830
:101FE00013441B780133654A13441B7803F09703AD
:101FF000002B19D0604B1B881A46FB6813441B78D2
:102000001A465F49574878F0E1FC5648FEF772F9E6
:1020100003469CB25348FEF76DF9034622465149E8
:1020200051484FF0E5FB11E056494E4878F0CEFCA0
:102030004C48FEF75FF903469CB24A48FEF75AF94E
:1020400003462246474948484FF0D2FB4A4B1B887B
:1020500001339AB2484B1A80404B1A88464B1B8872
:102060009A42B9D248493F4878F0B0FC3D48FEF763
:1020700041F903469CB23B48FEF73CF90346224631
:10208000384939484FF0B4FB344B1B8801339AB2BE
:10209000324B1A80314B1B887A899A423FF616AF31
:1020A0007B8903F00F039BB2002B00F0C8807B8973
:1020B00003F00F039AB2304B1A8017E033492948D6
:1020C00078F084FC2748FEF715F903469CB22548B2
:1020D000FEF710F903462246224923484FF088FBB9
:1020E000254B1B8801339AB2234B1A80224B1B8845
:1020F0000F2BE3D97B8903F008039BB2002B11D18E
:102100001C49184878F062FC1648FEF7F3F80346BD
:102110009CB21448FEF7EEF80346224611491248D5
:102120004FF066FB13490F4878F050FC0D48FEF75E
:10213000E1F803469CB20B48FEF7DCF80346224662
:10214000084909484FF054FB7B8923F00F039AB2EA
:10215000094B1A805CE000BF88D50024121B0124C3
:1021600074CE0708DCD50024D064002488CE07088C
:1021700090CE070894CE0708141B0124C804090850
:102180009CCE0708A0CE0708A4CE0708A8CE070853
:102190002F4B1B881A46FB6813441B7801332D4ACA
:1021A00013441B7803F09703002B19D0284B1B888E
:1021B0001A46FB6813441B781A462749274878F0CB
:1021C00005FC2648FEF796F803469CB22348FEF726
:1021D00091F803462246214921484FF009FB11E0BE
:1021E00020491E4878F0F2FB1C48FEF783F80346AE
:1021F0009CB21A48FEF77EF8034622461749184853
:102200004FF0F6FA124B1B8801339AB2104B1A802A
:102210000F4B1B887A899A42BAD813490F4878F035
:10222000D5FB0E48FEF766F803469CB20B48FEF756
:1022300061F803462246094909484FF0D9FA0B4B89
:102240001B68184653F076FB00BF1437BD4690BD9F
:10225000141B0124C80409089CCE0708DCD50024FF
:10226000D0640024A0CE0708A4CE070888D5002497
:1022700090B583B002AF654B1B684FF47A71184676
:1022800053F00DFB6249634878F0A0FB6148FEF70C
:1022900031F803469CB25F48FEF72CF8034622460D
:1022A0005C495D484FF0A4FA59495A4878F08EFBD2
:1022B0005848FEF71FF803469CB25648FEF71AF836
:1022C00003462246534954484FF092FA5049514828
:1022D00078F07CFB4F48FEF70DF803469CB24D4862
:1022E000FEF708F8034622464A494B484FF080FA69
:1022F0004A49484878F06AFB4648FDF7FBFF034629
:102300009CB24448FDF7F6FF034622464149424845
:102310004FF06EFA42493F4878F058FB3D48FDF7D0
:10232000E9FF03469CB23B48FDF7E4FF0346224623
:10233000384939484FF05CFA3A49364878F046FB5C
:102340003448FDF7D7FF03469CB23248FDF7D2FF71
:10235000034622462F4930484FF04AFA4123019361
:10236000314B0093314B314A31492A4878F02EFBEA
:102370002848FDF7BFFF03469CB22648FDF7BAFF89
:1023800003462246234924484FF032FA294A2A4973
:10239000204878F01BFB1F48FDF7ACFF03469CB2BA
:1023A0001C48FDF7A7FF034622461A491A484FF07A
:1023B0001FFA2249174878F009FB1648FDF79AFFE3
:1023C00003469CB21348FDF795FF03462246114988
:1023D00011484FF00DFA12490E4878F0F7FA0D48FF
:1023E000FDF788FF03469CB20A48FDF783FF0346CA
:1023F0002246084908484FF0FBF9044B1B68184671
:1024000053F098FA00BF0437BD4690BD88D500242C
:10241000ACCE0708DCD50024D0640024D8CE070851
:10242000E0CE070828CF0708A4CF070870CF070819
:1024300074CF0708A8CF0708B4CF0708DCCF070878
:1024400080B483B000AF0346FB80B7F906301B02AF
:102450001AB2FB881B0A9BB21BB213431BB29BB27E
:1024600018460C37BD465DF8047B704780B483B0D6
:1024700000AF78607B681A0E7B681B0A03F47F4309
:102480001A437B681B0203F47F031A437B681B0615
:10249000134318460C37BD465DF8047B70470000B7
:1024A00080B500AF034904484DF000FF014B1B68A5
:1024B000184680BD181B01242062002490B597B0F7
:1024C00000AF7860796800200A460346C7E9122306
:1024D000002387F8573007F1240207F1480311461B
:1024E00018465CF077FC0346002B21D1594B1B6842
:1024F00041F28831184653F0D2F9574A57495848A3
:1025000078F064FA5648FDF7F5FE03469CB254484D
:10251000FDF7F0FE03462246514952484FF068F954
:102520004C4B1B68184653F005FA012387F85730C7
:1025300097F85730002B40F0868007F110030022F7
:102540001A605A609A60DA601A610023FB60FB6AC5
:10255000DBB23B74BB6ADBB27B747B6ADBB2BB74FD
:102560000023FB6100233B62BB6BDBB2643BDBB24D
:10257000FB737B6BDBB20133DBB27B733B6BDBB298
:10258000BB73FB6B002B02D0FB6BDBB200E00723BD
:102590003B7347F0BDFD07F1100300221946324896
:1025A0004DF0C8FF0346002B21D02A4B1B6841F297
:1025B0008831184653F073F9274A2C49284878F097
:1025C00005FA2748FDF796FE03469CB22448FDF71E
:1025D00091FE03462246224922484FF009F91D4B3D
:1025E0001B68184653F0A6F9012387F8573007F106
:1025F0000C03002219461C484EF052F90346002BEA
:1026000021D0144B1B6841F28831184653F047F92A
:10261000114A1749124878F0D9F91148FDF76AFEB6
:1026200003469CB20E48FDF765FE034622460C4960
:102630000C484FF0DDF8074B1B68184653F07AF949
:10264000012387F8573097F8573018465C37BD4656
:1026500090BD00BF88D50024F4A5080824D0070841
:10266000DCD50024D06400243462002450D0070854
:1026700080D0070880B487B000AFF860B9607A6096
:102680007B800023FB8210E0FB8ABA681344197830
:10269000FB8A7A6813441A78FB8AF86803444A4034
:1026A000D2B21A70FB8A0133FB82FA8A7B889A4283
:1026B000EAD300BF00BF1C37BD465DF8047B7047FE
:1026C00090B58BB004AF03463960FB800023BB821A
:1026D000FB88002B23D0FB88A3F58073002B00DA46
:1026E0000733DB10FB75FB88DBB203F00703BB7518
:1026F000FB8801333B823B8AA3F58073002B00DA11
:102700000733DB10FB753B8AA3F580735A4203F055
:10271000070302F0070258BF5342BB7503E00023D2
:10272000FB750023BB75FB7DFB7454E0BB7DBB7464
:1027300049E0FB7C3A6813441B781A46BB7C42FA9A
:1027400003F303F00103002B3AD0FB7C20339BB250
:10275000DB009AB2BB7C9BB21344BB82FB7CFB7355
:10276000BB7CBB73314B1B6841F28831184653F078
:1027700096F8B88AFB7BBA7BB97B012404FA01F195
:102780000291019200930346294A2A492A4878F087
:102790001DF92948FDF7AEFD03469CB22648FDF71A
:1027A000A9FD03462246244924484FF021F81F4B37
:1027B0001B68184653F0BEF80823BB748023FB74D3
:1027C000BB7C0133BB74BB7C072BB2D90023BB7528
:1027D000FB7C0133FB7497F91330002BA6DABB8A1C
:1027E000002B1ED1114B1B6841F28831184653F063
:1027F00056F80F4A1249104878F0E8F80E48FDF7ED
:1028000079FD03469CB20C48FDF774FD0346224651
:1028100009490A484EF0ECFF044B1B68184653F078
:1028200089F8BB8A18461C37BD4690BD88D5002460
:1028300008A6080864D10708DCD50024D064002469
:10284000C0D1070898B500AFB64B1B684FF47A713A
:10285000184653F024F8B449B44878F0B7F8B348B0
:10286000FDF748FD03469CB2B048FDF743FD034623
:102870002246AE49AE484EF0BBFFAE49AB4878F0B9
:10288000A5F8AA48FDF736FD03469CB2A748FDF718
:1028900031FD03462246A549A5484EF0A9FFA649A9
:1028A000A24878F093F8A148FDF724FD03469CB2B6
:1028B0009E48FDF71FFD034622469C499C484EF06A
:1028C00097FF9E49994878F081F89848FDF712FDE6
:1028D00003469CB29548FDF70DFD034622469349F9
:1028E00093484EF085FF9649904878F06FF88F48EE
:1028F000FDF700FD03469CB28C48FDF7FBFC034648
:1029000022468A498A484EF073FF8E49874878F0FC
:102910005DF88648FDF7EEFC03469CB28348FDF760
:10292000E9FC03462246814981484EF061FF864911
:102930007E4878F04BF87D48FDF7DCFC03469CB2FE
:102940007A48FDF7D7FC03462246784978484EF08E
:102950004FFF7E49754878F039F87448FDF7CAFC96
:1029600003469CB27148FDF7C5FC034622466F49F9
:102970006F484EF03DFF76496C4878F027F86B4879
:10298000FDF7B8FC03469CB26848FDF7B3FC03466C
:102990002246664966484EF02BFF6E49634878F040
:1029A00015F86248FDF7A6FC03469CB25F48FDF7A8
:1029B000A1FC034622465D495D484EF019FF664979
:1029C0005A4878F003F85948FDF794FC03469CB246
:1029D0005648FDF78FFC03462246544954484EF0B2
:1029E00007FF5E49514877F0F1FF5048FDF782FC40
:1029F00003469CB24D48FDF77DFC034622464B49F9
:102A00004B484EF0F5FE5649484877F0DFFF4748FF
:102A1000FDF770FC03469CB24448FDF76BFC03468F
:102A20002246424942484EF0E3FE4E493F4877F085
:102A3000CDFF3E48FDF75EFC03469CB23B48FDF7E8
:102A400059FC03462246394939484EF0D1FE4649E1
:102A5000364877F0BBFF3548FDF74CFC03469CB287
:102A60003248FDF747FC03462246304930484EF0D5
:102A7000BFFE3E492D4877F0A9FF2C48FDF73AFCF0
:102A800003469CB22948FDF735FC034622462749F8
:102A900027484EF0ADFE3649244877F097FF23488B
:102AA000FDF728FC03469CB22048FDF723FC0346B3
:102AB00022461E491E484EF09BFE2E491B4877F0C9
:102AC00085FF1A48FDF716FC03469CB21748FDF730
:102AD00011FC03462246154915484EF089FE264949
:102AE000124877F073FF1148FDF704FC03469CB2CF
:102AF0000E48FDF7FFFB034622460C490C484EF0FA
:102B000077FE1E49094877F061FF0848FDF7F2FBA0
:102B100003469CB20548FDF7EDFB034622460349F8
:102B20002EE000BF88D50024E8D10708DCD50024BA
:102B3000D06400243CD2070890D20708BCD2070812
:102B4000E0D207080CD307083CD3070870D3070866
:102B5000A0D30708D0D30708F8D307081CD4070868
:102B600040D4070860D4070878D40708A4D407081D
:102B7000D8D4070808D5070830D507084CD507086A
:102B80000D484EF035FE0D490D4877F01FFF0C48FB
:102B9000FDF7B0FB03469CB20948FDF7ABFB0346CB
:102BA0002246074904484EF023FE064B1B68184690
:102BB00052F0C0FE00BF98BDD0640024E8D10708E1
:102BC000DCD5002488D5002490B583B000AF03463F
:102BD000FB71FB79303B4A2B00F2418301A252F892
:102BE00023F000BF112D0008172D00085F320008E8
:102BF0005F320008572D0008972D0008D72D0008D8
:102C00005F3200085F3200085F3200085F32000860
:102C10005F3200085F3200085F3200085F32000850
:102C20005F3200085F3200085F320008172E00088C
:102C30005F3200085F3200085F320008A12E0008F2
:102C40005F3200085F3200085F3200085F32000820
:102C5000E12E0008212F0008F52F00085F32000840
:102C60005F320008753000085F320008B530000898
:102C70000B3100084B3100088B3100085F3200082F
:102C80005F320008CB3100085F3200080B320008C9
:102C90005F3200085F3200085F3200085F320008D0
:102CA0005F3200085F3200085F320008572E0008CC
:102CB0005F3200085F3200085F320008A12E000872
:102CC0005F3200085F3200085F3200085F320008A0
:102CD000E12E0008212F0008353000085F3200087F
:102CE0005F320008753000085F320008B530000818
:102CF0000B3100085F3200088B3100085F3200089A
:102D00005F320008CB3100085F3200080B32000848
:102D1000FFF798FDC4E2A74B1B6841F288311846C3
:102D200052F0BDFDA44AA549A54877F04FFEA4483E
:102D3000FDF7E0FA03469CB2A148FDF7DBFA034633
:102D400022469F499F484EF053FD9A4B1B681846F8
:102D500052F0F0FDA4E2974B1B6841F2883118460F
:102D600052F09DFD944A9849954877F02FFE94487B
:102D7000FDF7C0FA03469CB29148FDF7BBFA034643
:102D800022468F498F484EF033FD8A4B1B68184608
:102D900052F0D0FD84E2874B1B6841F2883118461F
:102DA00052F07DFD844A8949854877F00FFE8448BA
:102DB000FDF7A0FA03469CB28148FDF79BFA034653
:102DC00022467F497F484EF013FD7A4B1B68184618
:102DD00052F0B0FD64E2774B1B6841F2883118462F
:102DE00052F05DFD744A7A49754877F0EFFD7448FA
:102DF000FDF780FA03469CB27148FDF77BFA034663
:102E000022466F496F484EF0F3FC6A4B1B68184628
:102E100052F090FD44E2674B1B6841F2883118463E
:102E200052F03DFD644A6B49654877F0CFFD644838
:102E3000FDF760FA03469CB26148FDF75BFA034672
:102E400022465F495F484EF0D3FC5A4B1B68184638
:102E500052F070FD24E2604B41221A70554B1B6802
:102E600041F28831184652F01AFD5B4B1B78524AEA
:102E70005A49534877F0AAFD5148FDF73BFA0346FB
:102E80009CB24F48FDF736FA034622464C494D485E
:102E90004EF0AEFC474B1B68184652F04BFDFFE16D
:102EA000444B1B6841F28831184652F0F8FC424A04
:102EB0004B49434877F08AFD4148FDF71BFA03462A
:102EC0009CB23F48FDF716FA034622463C493D486E
:102ED0004EF08EFC374B1B68184652F02BFDDFE19D
:102EE000344B1B6841F28831184652F0D8FC324A04
:102EF0003C49334877F06AFD3148FDF7FBF903465A
:102F00009CB22F48FDF7F6F9034622462C492D487E
:102F10004EF06EFC274B1B68184652F00BFDBFE1CC
:102F2000314B1B78002B22D0224B1B6841F2883199
:102F3000184652F0B4FC204A2C49214877F046FD4F
:102F40001F48FDF7D7F903469CB21D48FDF7D2F99B
:102F5000034622461A491B484EF04AFC154B1B6893
:102F6000184652F0E7FC204B00221A7098E1114BF2
:102F70001B6841F28831184652F091FC0E4A1C49F8
:102F80000F4877F023FD0E48FDF7B4F903469CB2D5
:102F90000B48FDF7AFF903462246094909484EF0B0
:102FA00027FC044B1B68184652F0C4FC0E4B012250
:102FB0001A7075E188D5002424A6080878D507087A
:102FC000DCD50024D064002494D50708C0D50708B8
:102FD000ECD5070818D607081600002444D60708C1
:102FE00064D607087CD607081C1B01249CD607085A
:102FF000B0D60708AC4B1B6841F28831184652F036
:103000004EFCAA4AAA49AB4877F0E0FCA948FDF774
:1030100071F903469CB2A748FDF76CF903462246B6
:10302000A449A5484EF0E4FB9F4B1B68184652F09C
:1030300081FC35E19C4B1B6841F28831184652F007
:103040002EFC9A4A9D499B4877F0C0FC9948FDF7B1
:1030500051F903469CB29748FDF74CF903462246C6
:10306000944995484EF0C4FB8F4B1B68184652F0AC
:1030700061FC15E18C4B1B6841F28831184652F017
:103080000EFC8A4A8E498B4877F0A0FC8948FDF7F0
:1030900031F903469CB28748FDF72CF903462246D6
:1030A000844985484EF0A4FB7F4B1B68184652F0BC
:1030B00041FCF5E07C4B1B6841F28831184652F028
:1030C000EEFB7A4A7F497B4877F080FC7948FDF730
:1030D00011F903469CB27748FDF70CF903462246E6
:1030E000744975484EF084FB6F4B1B68184652F0CC
:1030F00021FC754B1B78002B03D0734B00221A70F8
:10310000CEE0714B01221A70CAE0674B1B6841F296
:103110008831184652F0C3FB644A6C49654877F021
:1031200055FC6448FDF7E6F803469CB26148FDF79C
:10313000E1F8034622465F495F484EF059FB5A4B7F
:103140001B68184652F0F6FBAAE0574B1B6841F289
:103150008831184652F0A3FB544A5D49554877F030
:1031600035FC5448FDF7C6F803469CB25148FDF7BC
:10317000C1F8034622464F494F484EF039FB4A4BAF
:103180001B68184652F0D6FB8AE0474B1B6841F299
:103190008831184652F083FB444A4E49454877F03F
:1031A00015FC4448FDF7A6F803469CB24148FDF7DC
:1031B000A1F8034622463F493F484EF019FB3A4BDF
:1031C0001B68184652F0B6FB6AE0374B1B6841F2A9
:1031D0008831184652F063FB344A3F49354877F04E
:1031E000F5FB3448FDF786F803469CB23148FDF7FD
:1031F00081F8034622462F492F484EF0F9FA2A4B10
:103200001B68184652F096FB4AE0274B1B6841F2B8
:103210008831184652F043FB244A3049254877F05C
:10322000D5FB2448FDF766F803469CB22148FDF71C
:1032300061F8034622461F491F484EF0D9FA1A4B3F
:103240001B68184652F076FB254B20221A60254B4E
:10325000186800230022224952F03CFD20E0124B66
:103260001B6841F28831184652F019FBFB791A4667
:103270001D49104877F0AAFB0E48FDF73BF80346BE
:103280009CB20C48FDF736F80346224609490A4825
:103290004EF0AEFA044B1B68184652F04BFB00BFD1
:1032A00000BF0C37BD4690BD88D5002424A6080871
:1032B000C4D60708DCD50024D0640024F0D6070863
:1032C0001CD7070830D707081D1B012454D707084F
:1032D00084D70708B0D70708DCD7070800D8070845
:1032E000201B012438CA002428D8070890B589B0CB
:1032F00000AF0346FB71FB79002B28D1914B1B6873
:1033000041F28831184652F0CAFA8F4A8F499048E4
:1033100077F05CFB8E48FCF7EDFF03469CB28C48CF
:10332000FCF7E8FF0346224689498A484EF060FAD6
:10333000844B1B68184652F0FDFA874B00221A7026
:10334000864B00221A60864B00221A60F6E1FB7958
:10335000012B40F0AA81804B1B78002B24D1794BA4
:103360001B6841F28831184652F099FA764A7D4935
:10337000774877F02BFB7648FCF7BCFF03469CB2FE
:103380007348FCF7B7FF03462246714971484EF077
:103390002FFA6C4B1B68184652F0CCFA6E4B012288
:1033A0001A70FFF74FFAC9E16B4B1B78022B00F044
:1033B000C581694B1B78012B40F0C081674B1B68AE
:1033C0003233664A13604FF480520021664877F02A
:1033D00020FC6548FEF71AFC03461A46634B1A8028
:1033E000624B1B88002B00F0A981564B1B6841F2F1
:1033F0008831184652F053FA5B4B534A5C495448A3
:1034000077F0E4FA5248FCF775FF03469CB2504847
:10341000FCF770FF034622464D494E484EF0E8F94E
:10342000484B1B68184652F085FA52494E4877F0CF
:1034300019FC0346504A13604F4B1B68002B00F0E9
:103440002681642200214D4877F0E3FB4C4C4C4B25
:103450001846FCF74FFF03461A462146474878F0C6
:10346000BAFA384B1B6841F28831184652F017FA05
:10347000424B354A4349364877F0A8FA3448FCF7BE
:1034800039FF03469CB23248FCF734FF034622461C
:103490002F4930484EF0ACF92A4B1B68184652F0C1
:1034A00049FA364B1B784D2B08D0344B1B78422BF6
:1034B00004D0324B1B78542B40F0E280324BFB613E
:1034C00002E0FB690133FB61FB691B7801332F4A82
:1034D00013441B7803F00803002BF2D1194B1B682F
:1034E00041F28831184652F0DAF9FB69164A284948
:1034F000174877F06BFA1648FCF7FCFE03469CB2BF
:103500001348FCF7F7FE03462246114911484EF0D6
:103510006FF90C4B1B68184652F00CFA174B1B78CE
:10352000422B59D1FB691B78FB76FB7E0133174A8E
:1035300013441B7803F00303022B2BD1FB7E203BAB
:1035400029E000BF88D5002444A6080850D8070801
:10355000DCD50024D0640024241B0124281B012472
:103560002C1B012468D80708DCDD0024301B012453
:1035700088D80708B0D80708341B0124381B012459
:10358000E4DD0024BCD80708391B0124C80409085D
:10359000E0D80708FB7EBB766B4B1B6841F2883195
:1035A000184652F07CF9BB7E684A6949694877F051
:1035B0000DFA6848FCF79EFE03469CB26548FCF78E
:1035C00099FE03462246634963484EF011F95E4B6B
:1035D0001B68184652F0AEF9604B1B78542B55D13E
:1035E00007F10C030A221946F86977F057F8786159
:1035F000554B1B6841F28831184652F050F97B69EF
:10360000524A5749534877F0E1F95248FCF772FEA5
:1036100003469CB24F48FCF76DFE034622464D49D7
:103620004D484EF0E5F8484B1B68184652F082F9B9
:103630007869FEF743FF0346FB74FB7C002B25D023
:10364000414B1B6841F28831184652F028F93F4A35
:103650004449404877F0BAF93E48FCF74BFE034630
:103660009CB23C48FCF746FE0346224639493A489C
:103670004EF0BEF8344B1B68184652F05BF905E07B
:10368000364B1B781846FFF79FFA00E000BF364B19
:103690001B68002B52D1354B1B68002B4ED1344B8D
:1036A0001B781846FFF790FA48E0FB79022B22D1ED
:1036B000254B1B6841F28831184652F0F0F8234A36
:1036C0002C49244877F082F92248FCF713FE034680
:1036D0009CB22048FCF70EFE034622461D491E48B8
:1036E0004EF086F8184B1B68184652F023F9224B0F
:1036F00002221A7022E0FB79032B1FD0124B1B68A9
:1037000041F28831184652F0CAF8FB790F4A1B493A
:10371000104877F05BF90F48FCF7ECFD03469CB2CC
:103720000C48FCF7E7FD034622460A490A484EF0DA
:103730005FF8054B1B68184652F0FCF80E4B1B78DF
:1037400018462437BD4690BD88D5002444A60808F5
:1037500000D90708DCD50024D0640024381B0124DC
:1037600024D9070848D907089C1B0124341B0124CD
:10377000DCDD00247CD90708241B01249CD9070820
:10378000B0B58EB006AF0346FB71FB79002B45D177
:10379000AC4B1B6841F28831184652F080F8AA4AB7
:1037A000AA49AB4877F012F9A948FCF7A3FD0346F4
:1037B0009CB2A748FCF79EFD03462246A449A548B3
:1037C0004EF016F89F4B1B68184652F0B3F8A24B08
:1037D00000221A609B4B1B6841F28831184652F058
:1037E0005EF8994A9D499A4877F0F0F89848FCF7B6
:1037F00081FD03469CB29648FCF77CFD03462246B9
:10380000934994484DF0F4FF8E4B1B68184652F0D4
:1038100091F8934B00221A7002F085BFFB79012BBF
:1038200042F022878F4B9A788F4B1B789A4208D0B0
:103830008C4B9A788C4B1A70874B1B680133864AE5
:103840001360854B1B68B3F5967F47D9824B0022E6
:103850001A607C4B1B6841F28831184652F01FF801
:10386000824B1B78784A8249794877F0AFF87848DC
:10387000FCF740FD03469CB27548FCF73BFD034650
:103880002246734973484DF0B3FF6E4B1B681846D0
:1038900052F050F86B4B1B6841F28831184651F0DA
:1038A000FEFF724B1B78684A7249694877F08EF8C0
:1038B0006748FCF71FFD03469CB26548FCF71AFDFC
:1038C00003462246624963484DF092FF5D4B1B68F8
:1038D000184652F02FF8624B0A221A70604B1B7880
:1038E000002B7AD1614B1B781946634A582301FBA0
:1038F00003F3134414331B78042B42F0148713F0A2
:103900001DFC03461A465D4B1A70502200215C488C
:1039100077F07FF95A4B9F221A70594B04225A7044
:10392000484B1B6841F28831184651F0B8FF464AAF
:103930005449474877F04AF84548FCF7DBFC034612
:103940009CB24348FCF7D6FC034622464049414816
:103950004DF04EFF3B4B1B68184651F0EBFF434BBD
:103960001B781946444A582301FB03F313441633CA
:103970001888424B1B7800930123414A022112F020
:10398000B5FD354B00221A603F4B00221A702D4BBB
:103990001B6841F28831184651F081FF334B1B7888
:1039A000294A3A492A4877F011F82948FCF7A2FC3D
:1039B00003469CB22648FCF79DFC03462246244958
:1039C00024484DF015FF1F4B1B68184651F0B2FFFD
:1039D000234B01221A7002F0A6BE214B1B78012B4B
:1039E00040F0E081284B1B78002B02F09C86284B8E
:1039F0001B78002B50D1134B1B6841F288311846BD
:103A000051F04DFF194B1B780F4A2249104876F0B0
:103A1000DDFF0F48FCF76EFC03469CB20C48FCF738
:103A200069FC034622460A490A484DF0E1FE054B6F
:103A30001B68184651F07EFF094B0A221A7002F0EB
:103A400072BE00BF88D5002464A60808D8D907082C
:103A5000DCD50024D0640024A01B0124ECD9070885
:103A6000A41B0124DCED0024170000241400002412
:103A70001CDA07084CDA0708341201243016012436
:103A8000A81B012480DA0708BD16012498DA07086C
:103A9000BE160124D4DA0708AF4B00221A60AF4BE0
:103AA0001B78184613F05CFB03461A46AB4B1A70A2
:103AB00050220021AA4877F0ACF8A94B9F221A7037
:103AC000A74B06225A70A64B00229A70A44B0222E2
:103AD000DA70A34B01221A71A24B1B781946A24A35
:103AE000582301FB03F3134411331B7803F0040341
:103AF000002B22D09D4B1B6841F28831184651F0B3
:103B0000CEFE9B4A9B499C4876F060FF9A48FCF7A2
:103B1000F1FB03469CB29848FCF7ECFB03462246B7
:103B2000954996484DF064FE904B1B68184651F03D
:103B300001FF8B4B04225A7183E08A4B1B78194694
:103B4000894A582301FB03F3134411331B7803F014
:103B50000203002B22D0854B1B6841F288311846A6
:103B600051F09DFE824A8649834876F02FFF8248B5
:103B7000FCF7C0FB03469CB27F48FCF7BBFB034647
:103B800022467D497D484DF033FE784B1B68184630
:103B900051F0D0FE724B02225A7152E0714B1B78E9
:103BA0001946714A582301FB03F3134411331B7860
:103BB00003F00103002B22D06C4B1B6841F28831CB
:103BC000184651F06CFE6A4A6E496B4876F0FEFE6C
:103BD0006948FCF78FFB03469CB26748FCF78AFBF9
:103BE00003462246644965484DF002FE5F4B1B6860
:103BF000184651F09FFE5A4B01225A7121E05B4B4F
:103C00001B6841F28831184651F049FE584A5E4916
:103C1000594876F0DBFE5848FCF76CFB03469CB233
:103C20005548FCF767FB03462246534953484DF07D
:103C3000DFFD4E4B1B68184651F07CFE484B0022BE
:103C40005A714A4B1B6841F28831184651F027FEE1
:103C5000444B1B78464A4D49474876F0B7FE4648E4
:103C6000FCF748FB03469CB24348FCF743FB034682
:103C70002246414941484DF0BBFD3C4B1B6818466C
:103C800051F058FE374B1B781846354B5979364A58
:103C9000582300FB03F3134412330A461A70334BC4
:103CA0001B6841F28831184651F0F9FD304A384915
:103CB000314876F08BFE3048FCF71CFB03469CB283
:103CC0002D48FCF717FB034622462B492B484DF0A5
:103CD0008FFD264B1B68184651F02CFE214B1B789C
:103CE0001946214A582301FB03F31344163318885D
:103CF0001A4B1B7800930123194A062112F0F6FB98
:103D0000244B00221A70244B00221A70174B1B6898
:103D100041F28831184651F0C2FD124B1B78144A0B
:103D20001E49154876F052FE1348FCF7E3FA0346A5
:103D30009CB21148FCF7DEFA034622460E490F48B2
:103D40004DF056FD094B1B68184651F0F3FD144B1E
:103D500002221A7002F0E7BCA01B012430160124D5
:103D6000A81B0124140000243412012488D5002447
:103D700064A6080814DB0708DCD50024D0640024FE
:103D800030DB070850DB070874DB0708C4DB0708D3
:103D9000E8DB0708BF160124C016012400DC070871
:103DA000A41B0124944B1B78022B40F04D81934BB4
:103DB0001B78002B02F0B784914B1B78002B25D089
:103DC000904B1B6841F28831184651F068FD8E4BCC
:103DD0001B788E4A8E498F4876F0F8FD8D48FCF7A7
:103DE00089FA03469CB28B48FCF784FA03462246C4
:103DF000884989484DF0FCFC824B1B68184651F0FD
:103E000099FD7D4B0A221A7002F08DBC834B002273
:103E10001A608349834802F0A1FCF860FB68002B1C
:103E20001FD0784B1B6841F28831184651F037FD9E
:103E3000FB68764A7C49774876F0C8FD7548FCF700
:103E400059FA03469CB27348FCF754FA03462246DB
:103E5000704971484DF0CCFC6A4B1B68184651F014
:103E600069FD724B1B78184613F07AF903461A461F
:103E70006E4B1A70502200216D4876F0CAFE6C4BD2
:103E80009F221A706A4B08225A70694B01229A705D
:103E9000674B634ADC1C15460FCD20606160A26051
:103EA000E3600FCD20616161A261E361554B1B6846
:103EB00041F28831184651F0F2FC544A5D495548A8
:103EC00076F084FD5348FCF715FA03469CB251483E
:103ED000FCF710FA034622464E494F484DF088FC45
:103EE000484B1B68184651F025FD474B1B78194677
:103EF000514A582301FB03F31344163318884B4BE4
:103F00001B78009301234A4A232112F0EFFA13F0A1
:103F1000A9FEB860BB68002B28D1484B00221A705C
:103F2000384B1B6841F28831184651F0B8FC364BCB
:103F30001B78364A4249374876F048FD3548FCF749
:103F4000D9F903469CB23348FCF7D4F9034622461C
:103F5000304931484DF04CFC2A4B1B68184651F053
:103F6000E9FC254B03221A7002F0DDBB254B1B68D0
:103F700041F28831184651F092FC244A31492548D3
:103F800076F024FD2348FCF7B5F903469CB221489E
:103F9000FCF7B0F9034622461E491F484DF028FCA5
:103FA000184B1B68184651F0C5FC164B1B6841F2B4
:103FB0008831184651F073FC134B1B78134A14498F
:103FC000144876F003FD1348FCF794F903469CB2BD
:103FD0001048FCF78FF9034622460E490E484DF073
:103FE00007FC084B1B68184651F0A4FC024B0A2240
:103FF0001A7002F098BB00BFA41B0124BF16012455
:10400000C016012488D500241400002464A60808E2
:1040100044DC0708DCD50024D0640024A01B012464
:10402000C4160124E416012488DC07083016012494
:10403000A81B0124CCDC070834120124C11601247A
:1040400020DD070870DD0708B04B1B78032B40F01C
:104050009981AF4B1B78002B02F06583AD4B00229A
:104060001A60AD4B1B6841F28831184651F017FCBD
:10407000AA4AAB49AB4876F0A9FCAA48FCF73AF942
:1040800003469CB2A748FCF735F903462246A549EA
:10409000A5484DF0ADFBA04B1B68184651F04AFCFB
:1040A000A24B1B78184613F05BF803461A469F4B49
:1040B0001A70502200219E4876F0ABFD9C4B9F2247
:1040C0001A709B4B02225A70984B1A78984B9A7030
:1040D000974B0122DA70904B1B6841F288311846E9
:1040E00051F0DDFB8D4A93498E4876F06FFC8D4888
:1040F000FCF700F903469CB28A48FCF7FBF803463C
:104100002246884988484DF073FB834B1B6818464C
:1041100051F010FC884859F008FD0346874A1360A7
:10412000864B1B68002B20D07B4B1B6841F28831EB
:10413000184651F0B4FB814B1B68784A8049794896
:1041400076F044FC7748FCF7D5F803469CB27548F6
:10415000FCF7D0F803462246724973484DF048FBFD
:104160006D4B1B68184651F0E5FB102275497248EB
:1041700059F046FD0346714A1360704B1B68002BD3
:1041800020D0654B1B6841F28831184651F087FBFF
:104190006A4B1B68614A6C49624876F017FC6148BB
:1041A000FCF7A8F803469CB25E48FCF7A3F8034668
:1041B00022465C495C484DF01BFB574B1B68184678
:1041C00051F0B8FB544B1B6841F28831184651F04E
:1041D00066FB524A5D49534876F0F8FB5148FCF7BC
:1041E00089F803469CB24F48FCF784F80346224600
:1041F0004C494D484DF0FCFA474B1B68184651F0AE
:1042000099FB4B4B4F4A1C1D13460FCB84E80F0004
:10421000494859F04CFD0346484A1360474B1B6818
:10422000002B20D03C4B1B6841F28831184651F0DE
:1042300036FB424B1B68394A45493A4876F0C6FB83
:104240003848FCF757F803469CB23648FCF752F85A
:1042500003462246334934484DF0CAFA2E4B1B68B8
:10426000184651F067FB2C4B1B6841F28831184609
:1042700051F015FB294A37492A4876F0A7FB29480F
:10428000FCF738F803469CB22648FCF733F803469F
:104290002246244924484DF0ABFA1F4B1B681846B0
:1042A00051F048FB0023002210212648FDF7FAFDBB
:1042B000294B1B781946294A582301FB03F3134461
:1042C00016331888194B1B7800930123184A1421C0
:1042D00012F00CF9224B00221A700F4B1B6841F2AE
:1042E0008831184651F0DBFA1B4B1B780B4A1D49ED
:1042F0000C4876F06BFB0B48FBF7FCFF03469CB2C7
:104300000848FBF7F7FF034622462DE0A41B0124D3
:10431000C1160124A01B012488D5002464A6080826
:10432000B4DD0708DCD50024D06400243016012455
:10433000A81B0124D8DD070804170124F81B012459
:1043400028DE07084C17012460DE0708A4DE0708F2
:10435000E8DE070820DF07081400002434120124D7
:10436000C216012460DF070829492A484DF040FAA7
:10437000294B1B68184651F0DDFA284B04221A70AD
:1043800002F0D1B9254B1B78042B40F0EF85244B6C
:104390001B78002B02F0C781214B00221A70214BA1
:1043A00000221A60204B1B78002B29D114F04AF808
:1043B00003461C4A13601B4B1B68002B20D0164B76
:1043C0001B6841F28831184651F069FA154B1B6899
:1043D000164A17490E4876F0F9FA0D48FBF78AFF9E
:1043E00003469CB20A48FBF785FF0346224608496C
:1043F00008484DF0FDF9084B1B68184651F09AFA31
:104400000C4B00221A600123FB7700F01ABD00BF9D
:10441000DCD50024D064002488D50024A41B01240A
:10442000C2160124FC1B01246C17012464A6080891
:10443000B4DF0708001C0124FB7F013BFB77B34975
:10444000B348FDF74FFA0346B24A1360B14B1B68FD
:10445000002B20D0B04B1B6841F28831184651F038
:104460001EFAAC4B1B68AD4AAD49AE4876F0AEFAC9
:10447000AC48FBF73FFF03469CB2AA48FBF73AFF64
:1044800003462246A749A8484DF0B2F9A24B1B6843
:10449000184651F04FFAA04B1B6841F2883118467C
:1044A00051F0FDF99D4AA1499E4876F08FFA9D484A
:1044B000FBF720FF03469CB29A48FBF71BFF03461D
:1044C0002246984998484DF093F9934B1B6818463B
:1044D00051F030FA0023002210218C48FDF7E2FC55
:1044E0006FF001020021924857F0E3F90346914A28
:1044F0001360904B1B68002B20D0874B1B6841F248
:104500008831184651F0CBF98A4B1B68834A8A4997
:10451000844876F05BFA8348FBF7ECFE03469CB2D6
:104520008048FBF7E7FE034622467E497E484DF071
:104530005FF9794B1B68184651F0FCF910227F494E
:104540007B4856F076FD03467D4A13607C4B1B6822
:10455000002B20D0704B1B6841F28831184651F077
:104560009EF9774B1B686D4A76496E4876F02EFAB5
:104570006C48FBF7BFFE03469CB26A48FBF7BAFEE5
:1045800003462246674968484DF032F9624B1B6882
:10459000184651F0CFF9604B1B6841F2883118463C
:1045A00051F07DF95D4A68495E4876F00FFA5D4842
:1045B000FBF7A0FE03469CB25A48FBF79BFE03465E
:1045C0002246584958484DF013F9534B1B6818467A
:1045D00051F0B0F95D4B1B781946002300225C486E
:1045E000FDF760FC4C4B1B6841F28831184651F0D6
:1045F00056F9564B1B78494A56494A4876F0E6F92F
:104600004848FBF777FE03469CB24648FBF772FE2C
:1046100003462246434944484DF0EAF83E4B1B68A6
:10462000184651F087F93C4B1B6841F28831184617
:1046300051F035F9394A48493A4876F0C7F93948CE
:10464000FBF758FE03469CB23648FBF753FE034681
:104650002246344934484DF0CBF82F4B1B6818469E
:1046600051F068F9002300220D212848FDF71AFCBB
:10467000294B1B6841F28831184651F010F9274A3E
:104680003649284876F0A2F92648FBF733FE034660
:104690009CB22448FBF72EFE0346224621492248BD
:1046A0004DF0A6F81C4B1B68184651F043F92C4BF3
:1046B0001B781946002300222A48FDF7F3FB164B0E
:1046C0001B6841F28831184651F0E9F8244B1B78F9
:1046D000124A2549134876F079F91248FBF70AFE89
:1046E00003469CB20F48FBF705FE034622460D49E0
:1046F0000D484DF07DF8084B1B68184651F01AF92B
:10470000054B1B6841F2883130E000BF8D17012452
:104710006C170124041C012488D5002464A6080811
:10472000E8DF0708DCD50024D064002418E007087F
:10473000081C0124401D012448E007081C1701241F
:10474000441D012474E00708A4E00708A018012410
:10475000A0170124C4E00708F0E0070810E10708EB
:10476000AC180124A41801242CE10708184651F0C4
:1047700096F85F4A5F49604876F028F95E48FBF793
:10478000B9FD03469CB25C48FBF7B4FD03462246E4
:1047900059495A484DF02CF8594B1B68184651F0AE
:1047A000C9F8584B1B781946002300225648FDF7DC
:1047B00079FB534B1B6841F28831184651F06FF872
:1047C000504B1B784A4A51494B4876F0FFF84A480B
:1047D000FBF790FD03469CB24748FBF78BFD034671
:1047E0002246454945484DF003F8454B1B6818469D
:1047F00051F0A0F810220021454876F00AFA454B06
:104800001B781946444B1B781A463E4B1B78059380
:104810003D4B04930392414B02930D230193404B74
:1048200000930B463F4A3A493F4856F094FE0346F0
:104830003E4A13603D4B1B68002B20D0304B1B6859
:1048400041F28831184651F02AF8384B1B68284A43
:104850003749294876F0BAF82748FBF74BFD03465D
:104860009CB22548FBF746FD0346224622492348D1
:104870004CF0BEFF224B1B68184651F05BF8204BF2
:104880001B6841F28831184651F009F8FB7F184A3D
:104890002849194876F09AF81748FBF72BFD03468C
:1048A0009CB21548FBF726FD0346224612491348E1
:1048B0004CF09EFF124B1B68184651F03BF8154B0D
:1048C0001B781946002300221148FDF7EBFA164821
:1048D00057F00CF8184B1B68002B31D1174B1B6895
:1048E000002B2DD1114B1B68002B29D1012328E06F
:1048F00064A6080858E10708DCD50024D064002429
:1049000088D50024D0180124B018012470E10708CC
:10491000481D0124A0180124AC180124A418012466
:104920008D170124A0170124081C0124581D0124FF
:104930009CE10708D0E10708401D0124441D012423
:104940000023B24A1360B14B1B68002B00F0798240
:10495000AF4B1B6841F28831184650F0A0FFAD49BB
:10496000AD4876F033F8AC48FBF7C4FC03469CB284
:10497000A948FBF7BFFC03462246A749A7484CF0CD
:1049800037FFA34B1B68184650F0D4FFA44BA54A31
:104990001A60A54B1A78A54B1A70A14B1B681B789F
:1049A0001A46A34B53F822309847994B1B6841F2A3
:1049B0008831184650F073FF9E49974876F006F804
:1049C0009548FBF797FC03469CB29348FBF792FC93
:1049D00003462246904991484CF00AFF8C4B1B68D5
:1049E000184650F0A7FF944B00221A60884B1B68B2
:1049F00041F28831184650F052FF904A904986485B
:104A000075F0E4FF8448FBF775FC03469CB28248CE
:104A1000FBF770FC034622467F4980484CF0E8FED5
:104A20007B4B1B68184650F085FF864B9B7843F004
:104A30000103DAB2834B9A70754B1B6841F28831DF
:104A4000184650F02CFF8049734875F0BFFF72483C
:104A5000FBF750FC03469CB26F48FBF74BFC034648
:104A600022466D496D484CF0C3FE694B1B681846E1
:104A700050F060FF0023002206217248FDF712FA71
:104A8000674B704A1A60694B06221A70644B1B68A8
:104A90001B781A46664B53F8223098475C4B1B68CC
:104AA00041F28831184650F0FAFE68495A4875F0CC
:104AB0008DFF5948FBF71EFC03469CB25648FBF796
:104AC00019FC03462246544954484CF091FE504B81
:104AD0001B68184650F02EFF5D4B1B78184612F0ED
:104AE0003FFB03461A465A4B1A7050220021594880
:104AF00076F08FF8574B9F221A70564B03225A704C
:104B0000534B1A78534B9A70524B0022DA7006239B
:104B1000FB75514B04221A704F4B1A78FB7D1344DE
:104B2000DBB20833DAB24D4B1A704D494D48FCF7F1
:104B3000D9FE03464C4A13604B4B1B68002B20D018
:104B4000334B1B6841F28831184650F0A8FE464BA3
:104B50001B683A4A4549304875F038FF2E48FBF744
:104B6000C9FB03469CB22C48FBF7C4FB0346224614
:104B700029492A484CF03CFE254B1B68184650F04A
:104B8000D9FE234B1B6841F28831184650F087FE4E
:104B90002A4A3749204875F019FF1F48FBF7AAFB3E
:104BA00003469CB21C48FBF7A5FB034622461A4964
:104BB0001A484CF01DFE164B1B68184650F0BAFE02
:104BC0000023002210212648FDF76CF92022002145
:104BD000284876F01EF8284B1B881846FDF730FC55
:104BE00003461A46234B1A80244B1B781946244A45
:104BF000582301FB03F3134416331B881846FDF7B3
:104C00001FFC03461A461B4B5A803BE0001C012444
:104C100088D5002430E20708DCD50024D0640024C5
:104C20002C120124481D0124A01801243012012453
:104C3000780D012474E20708A01B012464A608086B
:104C4000B8E2070814170124E4E207083CE3070868
:104C500030160124A81B01245C1D01245D1D0124C4
:104C60008D1701246C170124041C0124E8DF0708B8
:104C700018E00708601D0124BA160124140000245E
:104C8000341201249C4B1B681846FDF7EFFB0346CA
:104C90009A4A53609A4B1B781846FDF7D1FB03469E
:104CA0001A46964B1A81974B9A78944B9A72954B69
:104CB000DA78924BDA72944B0C221A706FF0010280
:104CC0000021924856F0F5FD0346914A13601022E8
:104CD00090498E4856F0ADF903468F4A13608F4BCA
:104CE0001B781A46874BD118FA7D8C4B1B781846D7
:104CF000FB7D0344834803448348007805907F4844
:104D000004900820039002930D230193844B009399
:104D10001346844A7D4856F0C2FA38617B4856F003
:104D2000E5FD7B4B1B68002B06D17B4B1B68002BE2
:104D300002D13B69002B26D07B4B1B6841F28831A6
:104D4000184650F0ACFD724B1968734B1B683A69FA
:104D5000019200930B46754A7549764875F036FE08
:104D60007448FBF7C7FA03469CB27248FBF7C2FAD5
:104D7000034622466F4970484CF03AFD6A4B1B6867
:104D8000184650F0D7FD684B1B6841F28831184631
:104D900050F085FD654A6949664875F017FE65481B
:104DA000FBF7A8FA03469CB26248FBF7A3FA034656
:104DB0002246604960484CF01BFD5B4B1B6818465F
:104DC00050F0B8FD4E4B1B781946002300224D4889
:104DD000FDF768F85A4B1B7819465A4A582301FBCD
:104DE00003F3134416331888454B1978564B1B7838
:104DF00000930123434A11F079FB4B4B1B6841F2AE
:104E00008831184650F04BFD4D4B1B78474A4F49AF
:104E1000484875F0DBFD4748FBF76CFA03469CB247
:104E20004448FBF767FA03462246424942484CF0A1
:104E3000DFFC3D4B1B68184650F07CFD444B0522BF
:104E40001A70444B1B68002B03D1FB7F002B7FF4AF
:104E5000F3AA404B1B68002B41F06584324B1B6862
:104E600041F28831184650F01AFD304A3A4931482B
:104E700075F0ACFD2F48FBF73DFA03469CB22D4878
:104E8000FBF738FA034622462A492B484CF0B0FC7F
:104E9000254B1B68184650F04DFD304B00221A6020
:104EA0002F48FCF793FE2F4B01221A701E4B1B68F4
:104EB00041F28831184650F0F2FC214B1B781B4A16
:104EC00029491C4875F082FD1A48FBF713FA03467E
:104ED0009CB21848FBF70EFA0346224615491648BD
:104EE0004CF086FC104B1B68184650F023FD184B05
:104EF00003221A7001F017BC24120124601D012442
:104F00005D1D0124A81B0124801D0124081C01240F
:104F1000401D01241C170124441D01245C1D012493
:104F20008D1701241417012488D5002464A60808CD
:104F300094E30708DCD50024D0640024D0E30708FC
:104F4000140000243412012430160124F4E307086D
:104F5000A41B0124001C012448E40708A01B012411
:104F60006C170124C116012468E40708B24B1B78B2
:104F7000052B40F09D86B14B1B78002B01F0D383AD
:104F8000AE4B00221A70AE49AE48FCF7ABFC0346AC
:104F9000AD4A1360AC4B1B68002B20D0AB4B1B6899
:104FA00041F28831184650F07AFCA74B1B68A84A9A
:104FB000A849A94875F00AFDA748FBF79BF90346E5
:104FC0009CB2A548FBF796F903462246A249A3489E
:104FD0004CF00EFC9D4B1B68184650F0ABFC9B4BF5
:104FE0001B6841F28831184650F059FC984A9C4998
:104FF000994875F0EBFC9848FBF77CF903469CB2A6
:105000009548FBF777F903462246934993484CF0BD
:10501000EFFB8E4B1B68184650F08CFC00230022DF
:1050200010218748FCF73EFF6FF0010200218D48F8
:1050300056F03FFC03468C4A13608B4B1B68002BD9
:1050400020D0824B1B6841F28831184650F027FC73
:10505000854B1B687E4A85497F4875F0B7FC7E48C2
:10506000FBF748F903469CB27B48FBF743F903463C
:105070002246794979484CF0BBFB744B1B681846B3
:1050800050F058FC10227A49764855F0D2FF03467A
:10509000784A1360774B1B68002B20D06B4B1B6842
:1050A00041F28831184650F0FAFB724B1B68684A8F
:1050B0007149694875F08AFC6748FBF71BF903469C
:1050C0009CB26548FBF716F90346224662496348DD
:1050D0004CF08EFB5D4B1B68184650F02BFC5B4B75
:1050E0001B6841F28831184650F0D9FB584A634991
:1050F000594875F06BFC5848FBF7FCF803469CB226
:105100005548FBF7F7F803462246534953484CF0FD
:105110006FFB4E4B1B68184650F00CFC584B1B782D
:105120001946002300225748FCF7BCFE474B1B687A
:1051300041F28831184650F0B2FB514B1B78444A7B
:105140005149454875F042FC4348FBF7D3F8034604
:105150009CB24148FBF7CEF8034622463E493F4801
:105160004CF046FB394B1B68184650F0E3FB374BBD
:105170001B6841F28831184650F091FB344A43498C
:10518000354875F023FC3448FBF7B4F803469CB26D
:105190003148FBF7AFF8034622462F492F484CF021
:1051A00027FB2A4B1B68184650F0C4FB0023002243
:1051B0000D212348FCF776FE244B1B6841F2883111
:1051C000184650F06CFB224A3149234875F0FEFB2B
:1051D0002148FBF78FF803469CB21F48FBF78AF87B
:1051E000034622461C491D484CF002FB174B1B6826
:1051F000184650F09FFB274B1B78194600230022CE
:105200002548FCF74FFE114B1B6841F288311846C8
:1052100050F045FB1F4B1B780D4A20490E4875F096
:10522000D5FB0D48FBF766F803469CB20A48FBF72E
:1052300061F8034634E000BFA41B0124C216012418
:105240008D1701246C170124041C012488D5002427
:1052500064A60808E8DF0708DCD50024D064002431
:1052600018E00708081C0124401D012448E0070835
:105270001C170124441D012474E00708A4E007085A
:10528000A0180124A0170124C4E00708F0E00708D3
:1052900010E10708AC180124A41801242CE1070828
:1052A00022467C497C484CF0A3FA7C4B1B6818468C
:1052B00050F040FB794B1B6841F28831184650F0A2
:1052C000EEFA774A7749734875F080FB7148FBF72F
:1052D00011F803469CB26F48FBF70CF803462246D0
:1052E0006C496D484CF084FA6C4B1B68184650F0C2
:1052F00021FB6D4B1B781946002300226B48FCF7FD
:10530000D1FD664B1B6841F28831184650F0C7FA50
:10531000654B1B78624A66495E4875F057FB5D48ED
:10532000FAF7E8FF03469CB25A48FAF7E3FF034650
:105330002246584958484CF05BFA584B1B681846AF
:1053400050F0F8FA032200215A4875F062FC5A4BDB
:105350001B78032B67D1584B1B781946574B1B788A
:105360001A46514B1B780593504B04930392544BB0
:1053700002930D230193534B00930B46524A4D4920
:10538000524856F0E8F80346514A1360504B1B68E8
:10539000002B20D0414B1B6841F28831184650F059
:1053A0007EFA4B4B1B683E4A4A493A4875F00EFB61
:1053B0003848FAF79FFF03469CB23648FAF79AFF3F
:1053C00003462246334934484CF012FA334B1B68EB
:1053D000184650F0AFFA314B1B6841F2883118463D
:1053E00050F05DFA2E4A3C492A4875F0EFFA2948F8
:1053F000FAF780FF03469CB22648FAF77BFF034684
:105400002246244924484CF0F3F9244B1B681846E3
:1054100050F090FA284B1B781946002300222548AB
:10542000FCF740FD24E01D4B1B6841F28831184613
:1054300050F035FA204B1B781A46032327491548AC
:1054400075F0C4FA1348FAF755FF03469CB21148A9
:10545000FAF750FF034622460E490F484CF0C8F9B0
:105460000E4B1B68184650F065FA194B00221A6063
:10547000164856F03BFA1A4B1B68002B34D1194BD7
:105480001B68002B30D1124B1B68002B2CD1012341
:105490002BE000BFDCD50024D064002488D5002494
:1054A00064A6080858E10708D0180124B0180124A0
:1054B00070E10708841D0124A0180124AC18012400
:1054C000A41801248D170124A0170124081C01240D
:1054D000881D0124BCE40708F8E4070848E507082C
:1054E000401D0124441D01240023A34A1360A24B44
:1054F0001B68002B01F01781A04B00221A60A04B03
:105500001B6841F28831184650F0C9F99D499E4800
:1055100075F05CFA9C48FAF7EDFE03469CB29A4897
:10552000FAF7E8FE03462246974998484CF060F99E
:10553000934B1B68184650F0FDF9954B954A1A603D
:10554000954B1A78954B1A70914B1B681B781A462D
:10555000934B53F822309847894B1B6841F28831AE
:10556000184650F09CF98F49874875F02FFA864805
:10557000FAF7C0FE03469CB28348FAF7BBFE034627
:105580002246814981484CF033F97D4B1B6818460F
:1055900050F0D0F97A4B1B6841F28831184650F030
:1055A0007EF9814A8149784875F010FA7648FAF711
:1055B000A1FE03469CB27448FAF79CFE03462246BD
:1055C000714972484CF014F96D4B1B68184650F045
:1055D000B1F9774B1B78184611F0C2FD03461A4605
:1055E000734B1A7050220021724875F012FB714BF8
:1055F0009F221A706F4B03225A706D4B1A786D4BB5
:105600009A706C4B0022DA7013237B776A4B04226A
:105610001A70694B1A787B7F1344DBB20833DAB215
:10562000664B1A70664B9F221A70654B0A225A709D
:10563000584B9A78624B9A7010220021614875F09D
:10564000E8FA544B9B78BB775F4B1B7819465F4A4F
:10565000582301FB03F3134412331B78BA7F9A4299
:105660001FD0474B1B6841F28831184650F017F99C
:105670005749454875F0AAF94348FAF73BFE0346F7
:105680009CB24148FAF736FE034622463E493F485F
:105690004CF0AEF83A4B1B68184650F04BF900231B
:1056A000BB77BB7F802B00F0CB80802B00F3088181
:1056B000042B08D0042B00F30381012B00F094800D
:1056C000022B2CD0FCE02E4B1B6841F2883118468F
:1056D00050F0E5F8344A3F492B4875F077F92A48ED
:1056E000FAF708FE03469CB22748FAF703FE034682
:1056F0002246254925484CF07BF8214B1B6818466B
:1057000050F018F92E4B344ADC1C15460FCD2060A2
:105710006160A260E360314B2F4A1A60F3E0184BDE
:105720001B6841F28831184650F0B9F81E4A2C49DE
:10573000154875F04BF91448FAF7DCFD03469CB2A6
:105740001148FAF7D7FD034622460F490F484CF09F
:105750004FF80B4B1B68184650F0ECF8184B214AD9
:10576000DC1C15460FCD20606160A260E3601B4B1E
:105770001C4A1A60C7E000BF8C1D0124A01B012435
:1057800088D50024ACE50708DCD50024D0640024CB
:105790002C120124841D0124A0180124301201249C
:1057A000780D0124F8E5070864A6080844E6070810
:1057B00030160124A81B01245C1D01245D1D012459
:1057C000901D0124931D012414000024341201248F
:1057D00084E60708DCE60708D4180124A41D012488
:1057E00004E70708E41801242B4B1B6841F28831B9
:1057F000184650F054F8294A29492A4875F0E6F825
:105800002848FAF777FD03469CB22648FAF772FD5E
:1058100003462246234924484BF0EAFF1E4B1B68EF
:10582000184650F087F8214B214ADC1C15460FCD55
:1058300020606160A260E3601E4B1D4A1A6062E056
:10584000154B1B6841F28831184650F028F8134A6E
:105850001949144875F0BAF81248FAF74BFD034697
:105860009CB21048FAF746FD034622460D490E4801
:105870004BF0BEFF084B1B68184650F05BF80B4B13
:105880000E4ADC1C15460FCD20606160A260E3600B
:10589000084B0A4A1A6036E088D5002464A6080836
:1058A0002CE70708DCD50024D0640024901D0124D7
:1058B000F4180124A41D012454E707080419012445
:1058C000AD4B1B6841F2883118464FF0E8FFAB4AF8
:1058D000AB49AC4875F07AF8AA48FAF70BFD0346D5
:1058E0009CB2A848FAF706FD03462246A549A648F9
:1058F0004BF07EFFA04B1B68184650F01BF8A34BE3
:1059000000221A6000BF9C4B1B6841F28831184688
:105910004FF0C5FF994A9E499A4875F057F8994843
:10592000FAF7E8FC03469CB29648FAF7E3FC034614
:105930002246944994484BF05BFF8F4B1B681846F6
:105940004FF0F8FF0023002213219248FCF7AAFA37
:1059500091499248FBF7C6FF0346914A1360904B6A
:105960001B68002B20D0844B1B6841F288311846FD
:105970004FF095FF8A4B1B68804A8A49814875F031
:1059800025F88048FAF7B6FC03469CB27D48FAF742
:10599000B1FC034622467B497B484BF029FF764BFE
:1059A0001B6818464FF0C6FF734B1B6841F28831E5
:1059B00018464FF074FF714A7B49724875F006F83B
:1059C0007048FAF797FC03469CB26E48FAF792FCCF
:1059D000034622466B496C484BF00AFF664B1B6836
:1059E00018464FF0A7FF0023002210216A48FCF759
:1059F00059FA202200216D4875F00BF96C4B1B8879
:105A00001846FCF71DFD03461A46684B1A80694B81
:105A10001B781946684A582301FB03F313441633D5
:105A20001B881846FCF70CFD03461A465F4B5A804C
:105A3000624B1B681846FCF719FD03465B4A53602E
:105A40005F4B1B781846FCF7FBFC03461A46574B86
:105A50001A815C4B9A78554B9A725A4BDA78534BB1
:105A6000DA72594B0C221A706FF00102002157486C
:105A700055F01FFF0346564A1360102255495348FC
:105A800055F0D7FA0346544A1360544B1B781A4614
:105A90004C4BD1187A7F514B1B7818467B7F0344BF
:105AA000484803444848007805904048049008203E
:105AB000039002930D230193374B00931346354A0D
:105AC000424855F0ECFBB861404855F00FFF404BA1
:105AD0001B68002B06D1404B1B68002B02D1BB6911
